{
	"compilerInput": "{\"language\":\"Solidity\",\"sources\":{\"contract-127b40141e.sol\":{\"content\":\"// SPDX-License-Identifier: QAI\\npragma solidity ^0.8.20;\\n\\nimport \\\"@openzeppelin/contracts-upgradeable@5.0.0/token/ERC20/ERC20Upgradeable.sol\\\";\\nimport \\\"@openzeppelin/contracts-upgradeable@5.0.0/token/ERC20/extensions/ERC20BurnableUpgradeable.sol\\\";\\nimport \\\"@openzeppelin/contracts-upgradeable@5.0.0/token/ERC20/extensions/ERC20PausableUpgradeable.sol\\\";\\nimport \\\"@openzeppelin/contracts-upgradeable@5.0.0/access/AccessControlUpgradeable.sol\\\";\\nimport \\\"@openzeppelin/contracts-upgradeable@5.0.0/token/ERC20/extensions/ERC20PermitUpgradeable.sol\\\";\\nimport \\\"@openzeppelin/contracts-upgradeable@5.0.0/token/ERC20/extensions/ERC20VotesUpgradeable.sol\\\";\\nimport \\\"@openzeppelin/contracts-upgradeable@5.0.0/token/ERC20/extensions/ERC20FlashMintUpgradeable.sol\\\";\\nimport \\\"@openzeppelin/contracts-upgradeable@5.0.0/proxy/utils/Initializable.sol\\\";\\n\\n/// @custom:security-contact zelena130293@gmail.com\\ncontract QAI is Initializable, ERC20Upgradeable, ERC20BurnableUpgradeable, ERC20PausableUpgradeable, AccessControlUpgradeable, ERC20PermitUpgradeable, ERC20VotesUpgradeable, ERC20FlashMintUpgradeable {\\n    bytes32 public constant PAUSER_ROLE = keccak256(\\\"PAUSER_ROLE\\\");\\n    bytes32 public constant MINTER_ROLE = keccak256(\\\"MINTER_ROLE\\\");\\n\\n    /// @custom:oz-upgrades-unsafe-allow constructor\\n    constructor() {\\n        _disableInitializers();\\n    }\\n\\n    function initialize(address defaultAdmin, address pauser, address minter)\\n        initializer public\\n    {\\n        __ERC20_init(\\\"QAI\\\", \\\"AI\\\");\\n        __ERC20Burnable_init();\\n        __ERC20Pausable_init();\\n        __AccessControl_init();\\n        __ERC20Permit_init(\\\"QAI\\\");\\n        __ERC20Votes_init();\\n        __ERC20FlashMint_init();\\n\\n        _grantRole(DEFAULT_ADMIN_ROLE, defaultAdmin);\\n        _grantRole(PAUSER_ROLE, pauser);\\n        _mint(msg.sender, 150000000 * 10 ** decimals());\\n        _grantRole(MINTER_ROLE, minter);\\n    }\\n\\n    function pause() public onlyRole(PAUSER_ROLE) {\\n        _pause();\\n    }\\n\\n    function unpause() public onlyRole(PAUSER_ROLE) {\\n        _unpause();\\n    }\\n\\n    function mint(address to, uint256 amount) public onlyRole(MINTER_ROLE) {\\n        _mint(to, amount);\\n    }\\n\\n    // The following functions are overrides required by Solidity.\\n\\n    function _update(address from, address to, uint256 value)\\n        internal\\n        override(ERC20Upgradeable, ERC20PausableUpgradeable, ERC20VotesUpgradeable)\\n    {\\n        super._update(from, to, value);\\n    }\\n\\n    function nonces(address owner)\\n        public\\n        view\\n        override(ERC20PermitUpgradeable, NoncesUpgradeable)\\n        returns (uint256)\\n    {\\n        return super.nonces(owner);\\n    }\\n}\\n\"},\"@openzeppelin/contracts-upgradeable@5.0.0/proxy/utils/Initializable.sol\":{\"content\":\"// SPDX-License-Identifier: MIT\\n// OpenZeppelin Contracts (last updated v5.0.0) (proxy/utils/Initializable.sol)\\n\\npragma solidity ^0.8.20;\\n\\n/**\\n * @dev This is a base contract to aid in writing upgradeable contracts, or any kind of contract that will be deployed\\n * behind a proxy. Since proxied contracts do not make use of a constructor, it's common to move constructor logic to an\\n * external initializer function, usually called `initialize`. It then becomes necessary to protect this initializer\\n * function so it can only be called once. The {initializer} modifier provided by this contract will have this effect.\\n *\\n * The initialization functions use a version number. Once a version number is used, it is consumed and cannot be\\n * reused. This mechanism prevents re-execution of each \\\"step\\\" but allows the creation of new initialization steps in\\n * case an upgrade adds a module that needs to be initialized.\\n *\\n * For example:\\n *\\n * [.hljs-theme-light.nopadding]\\n * ```solidity\\n * contract MyToken is ERC20Upgradeable {\\n *     function initialize() initializer public {\\n *         __ERC20_init(\\\"MyToken\\\", \\\"MTK\\\");\\n *     }\\n * }\\n *\\n * contract MyTokenV2 is MyToken, ERC20PermitUpgradeable {\\n *     function initializeV2() reinitializer(2) public {\\n *         __ERC20Permit_init(\\\"MyToken\\\");\\n *     }\\n * }\\n * ```\\n *\\n * TIP: To avoid leaving the proxy in an uninitialized state, the initializer function should be called as early as\\n * possible by providing the encoded function call as the `_data` argument to {ERC1967Proxy-constructor}.\\n *\\n * CAUTION: When used with inheritance, manual care must be taken to not invoke a parent initializer twice, or to ensure\\n * that all initializers are idempotent. This is not verified automatically as constructors are by Solidity.\\n *\\n * [CAUTION]\\n * ====\\n * Avoid leaving a contract uninitialized.\\n *\\n * An uninitialized contract can be taken over by an attacker. This applies to both a proxy and its implementation\\n * contract, which may impact the proxy. To prevent the implementation contract from being used, you should invoke\\n * the {_disableInitializers} function in the constructor to automatically lock it when it is deployed:\\n *\\n * [.hljs-theme-light.nopadding]\\n * ```\\n * /// @custom:oz-upgrades-unsafe-allow constructor\\n * constructor() {\\n *     _disableInitializers();\\n * }\\n * ```\\n * ====\\n */\\nabstract contract Initializable {\\n    /**\\n     * @dev Storage of the initializable contract.\\n     *\\n     * It's implemented on a custom ERC-7201 namespace to reduce the risk of storage collisions\\n     * when using with upgradeable contracts.\\n     *\\n     * @custom:storage-location erc7201:openzeppelin.storage.Initializable\\n     */\\n    struct InitializableStorage {\\n        /**\\n         * @dev Indicates that the contract has been initialized.\\n         */\\n        uint64 _initialized;\\n        /**\\n         * @dev Indicates that the contract is in the process of being initialized.\\n         */\\n        bool _initializing;\\n    }\\n\\n    // keccak256(abi.encode(uint256(keccak256(\\\"openzeppelin.storage.Initializable\\\")) - 1)) & ~bytes32(uint256(0xff))\\n    bytes32 private constant INITIALIZABLE_STORAGE = 0xf0c57e16840df040f15088dc2f81fe391c3923bec73e23a9662efc9c229c6a00;\\n\\n    /**\\n     * @dev The contract is already initialized.\\n     */\\n    error InvalidInitialization();\\n\\n    /**\\n     * @dev The contract is not initializing.\\n     */\\n    error NotInitializing();\\n\\n    /**\\n     * @dev Triggered when the contract has been initialized or reinitialized.\\n     */\\n    event Initialized(uint64 version);\\n\\n    /**\\n     * @dev A modifier that defines a protected initializer function that can be invoked at most once. In its scope,\\n     * `onlyInitializing` functions can be used to initialize parent contracts.\\n     *\\n     * Similar to `reinitializer(1)`, except that in the context of a constructor an `initializer` may be invoked any\\n     * number of times. This behavior in the constructor can be useful during testing and is not expected to be used in\\n     * production.\\n     *\\n     * Emits an {Initialized} event.\\n     */\\n    modifier initializer() {\\n        // solhint-disable-next-line var-name-mixedcase\\n        InitializableStorage storage $ = _getInitializableStorage();\\n\\n        // Cache values to avoid duplicated sloads\\n        bool isTopLevelCall = !$._initializing;\\n        uint64 initialized = $._initialized;\\n\\n        // Allowed calls:\\n        // - initialSetup: the contract is not in the initializing state and no previous version was\\n        //                 initialized\\n        // - construction: the contract is initialized at version 1 (no reininitialization) and the\\n        //                 current contract is just being deployed\\n        bool initialSetup = initialized == 0 && isTopLevelCall;\\n        bool construction = initialized == 1 && address(this).code.length == 0;\\n\\n        if (!initialSetup && !construction) {\\n            revert InvalidInitialization();\\n        }\\n        $._initialized = 1;\\n        if (isTopLevelCall) {\\n            $._initializing = true;\\n        }\\n        _;\\n        if (isTopLevelCall) {\\n            $._initializing = false;\\n            emit Initialized(1);\\n        }\\n    }\\n\\n    /**\\n     * @dev A modifier that defines a protected reinitializer function that can be invoked at most once, and only if the\\n     * contract hasn't been initialized to a greater version before. In its scope, `onlyInitializing` functions can be\\n     * used to initialize parent contracts.\\n     *\\n     * A reinitializer may be used after the original initialization step. This is essential to configure modules that\\n     * are added through upgrades and that require initialization.\\n     *\\n     * When `version` is 1, this modifier is similar to `initializer`, except that functions marked with `reinitializer`\\n     * cannot be nested. If one is invoked in the context of another, execution will revert.\\n     *\\n     * Note that versions can jump in increments greater than 1; this implies that if multiple reinitializers coexist in\\n     * a contract, executing them in the right order is up to the developer or operator.\\n     *\\n     * WARNING: Setting the version to 2**64 - 1 will prevent any future reinitialization.\\n     *\\n     * Emits an {Initialized} event.\\n     */\\n    modifier reinitializer(uint64 version) {\\n        // solhint-disable-next-line var-name-mixedcase\\n        InitializableStorage storage $ = _getInitializableStorage();\\n\\n        if ($._initializing || $._initialized >= version) {\\n            revert InvalidInitialization();\\n        }\\n        $._initialized = version;\\n        $._initializing = true;\\n        _;\\n        $._initializing = false;\\n        emit Initialized(version);\\n    }\\n\\n    /**\\n     * @dev Modifier to protect an initialization function so that it can only be invoked by functions with the\\n     * {initializer} and {reinitializer} modifiers, directly or indirectly.\\n     */\\n    modifier onlyInitializing() {\\n        _checkInitializing();\\n        _;\\n    }\\n\\n    /**\\n     * @dev Reverts if the contract is not in an initializing state. See {onlyInitializing}.\\n     */\\n    function _checkInitializing() internal view virtual {\\n        if (!_isInitializing()) {\\n            revert NotInitializing();\\n        }\\n    }\\n\\n    /**\\n     * @dev Locks the contract, preventing any future reinitialization. This cannot be part of an initializer call.\\n     * Calling this in the constructor of a contract will prevent that contract from being initialized or reinitialized\\n     * to any version. It is recommended to use this to lock implementation contracts that are designed to be called\\n     * through proxies.\\n     *\\n     * Emits an {Initialized} event the first time it is successfully executed.\\n     */\\n    function _disableInitializers() internal virtual {\\n        // solhint-disable-next-line var-name-mixedcase\\n        InitializableStorage storage $ = _getInitializableStorage();\\n\\n        if ($._initializing) {\\n            revert InvalidInitialization();\\n        }\\n        if ($._initialized != type(uint64).max) {\\n            $._initialized = type(uint64).max;\\n            emit Initialized(type(uint64).max);\\n        }\\n    }\\n\\n    /**\\n     * @dev Returns the highest version that has been initialized. See {reinitializer}.\\n     */\\n    function _getInitializedVersion() internal view returns (uint64) {\\n        return _getInitializableStorage()._initialized;\\n    }\\n\\n    /**\\n     * @dev Returns `true` if the contract is currently initializing. See {onlyInitializing}.\\n     */\\n    function _isInitializing() internal view returns (bool) {\\n        return _getInitializableStorage()._initializing;\\n    }\\n\\n    /**\\n     * @dev Returns a pointer to the storage namespace.\\n     */\\n    // solhint-disable-next-line var-name-mixedcase\\n    function _getInitializableStorage() private pure returns (InitializableStorage storage $) {\\n        assembly {\\n            $.slot := INITIALIZABLE_STORAGE\\n        }\\n    }\\n}\\n\"},\"@openzeppelin/contracts-upgradeable@5.0.0/token/ERC20/extensions/ERC20FlashMintUpgradeable.sol\":{\"content\":\"// SPDX-License-Identifier: MIT\\n// OpenZeppelin Contracts (last updated v5.0.0) (token/ERC20/extensions/ERC20FlashMint.sol)\\n\\npragma solidity ^0.8.20;\\n\\nimport {IERC3156FlashBorrower} from \\\"@openzeppelin/contracts/interfaces/IERC3156FlashBorrower.sol\\\";\\nimport {IERC3156FlashLender} from \\\"@openzeppelin/contracts/interfaces/IERC3156FlashLender.sol\\\";\\nimport {ERC20Upgradeable} from \\\"../ERC20Upgradeable.sol\\\";\\nimport {Initializable} from \\\"../../../proxy/utils/Initializable.sol\\\";\\n\\n/**\\n * @dev Implementation of the ERC3156 Flash loans extension, as defined in\\n * https://eips.ethereum.org/EIPS/eip-3156[ERC-3156].\\n *\\n * Adds the {flashLoan} method, which provides flash loan support at the token\\n * level. By default there is no fee, but this can be changed by overriding {flashFee}.\\n *\\n * NOTE: When this extension is used along with the {ERC20Capped} or {ERC20Votes} extensions,\\n * {maxFlashLoan} will not correctly reflect the maximum that can be flash minted. We recommend\\n * overriding {maxFlashLoan} so that it correctly reflects the supply cap.\\n */\\nabstract contract ERC20FlashMintUpgradeable is Initializable, ERC20Upgradeable, IERC3156FlashLender {\\n    bytes32 private constant RETURN_VALUE = keccak256(\\\"ERC3156FlashBorrower.onFlashLoan\\\");\\n\\n    /**\\n     * @dev The loan token is not valid.\\n     */\\n    error ERC3156UnsupportedToken(address token);\\n\\n    /**\\n     * @dev The requested loan exceeds the max loan value for `token`.\\n     */\\n    error ERC3156ExceededMaxLoan(uint256 maxLoan);\\n\\n    /**\\n     * @dev The receiver of a flashloan is not a valid {onFlashLoan} implementer.\\n     */\\n    error ERC3156InvalidReceiver(address receiver);\\n\\n    function __ERC20FlashMint_init() internal onlyInitializing {\\n    }\\n\\n    function __ERC20FlashMint_init_unchained() internal onlyInitializing {\\n    }\\n    /**\\n     * @dev Returns the maximum amount of tokens available for loan.\\n     * @param token The address of the token that is requested.\\n     * @return The amount of token that can be loaned.\\n     *\\n     * NOTE: This function does not consider any form of supply cap, so in case\\n     * it's used in a token with a cap like {ERC20Capped}, make sure to override this\\n     * function to integrate the cap instead of `type(uint256).max`.\\n     */\\n    function maxFlashLoan(address token) public view virtual returns (uint256) {\\n        return token == address(this) ? type(uint256).max - totalSupply() : 0;\\n    }\\n\\n    /**\\n     * @dev Returns the fee applied when doing flash loans. This function calls\\n     * the {_flashFee} function which returns the fee applied when doing flash\\n     * loans.\\n     * @param token The token to be flash loaned.\\n     * @param value The amount of tokens to be loaned.\\n     * @return The fees applied to the corresponding flash loan.\\n     */\\n    function flashFee(address token, uint256 value) public view virtual returns (uint256) {\\n        if (token != address(this)) {\\n            revert ERC3156UnsupportedToken(token);\\n        }\\n        return _flashFee(token, value);\\n    }\\n\\n    /**\\n     * @dev Returns the fee applied when doing flash loans. By default this\\n     * implementation has 0 fees. This function can be overloaded to make\\n     * the flash loan mechanism deflationary.\\n     * @param token The token to be flash loaned.\\n     * @param value The amount of tokens to be loaned.\\n     * @return The fees applied to the corresponding flash loan.\\n     */\\n    function _flashFee(address token, uint256 value) internal view virtual returns (uint256) {\\n        // silence warning about unused variable without the addition of bytecode.\\n        token;\\n        value;\\n        return 0;\\n    }\\n\\n    /**\\n     * @dev Returns the receiver address of the flash fee. By default this\\n     * implementation returns the address(0) which means the fee amount will be burnt.\\n     * This function can be overloaded to change the fee receiver.\\n     * @return The address for which the flash fee will be sent to.\\n     */\\n    function _flashFeeReceiver() internal view virtual returns (address) {\\n        return address(0);\\n    }\\n\\n    /**\\n     * @dev Performs a flash loan. New tokens are minted and sent to the\\n     * `receiver`, who is required to implement the {IERC3156FlashBorrower}\\n     * interface. By the end of the flash loan, the receiver is expected to own\\n     * value + fee tokens and have them approved back to the token contract itself so\\n     * they can be burned.\\n     * @param receiver The receiver of the flash loan. Should implement the\\n     * {IERC3156FlashBorrower-onFlashLoan} interface.\\n     * @param token The token to be flash loaned. Only `address(this)` is\\n     * supported.\\n     * @param value The amount of tokens to be loaned.\\n     * @param data An arbitrary datafield that is passed to the receiver.\\n     * @return `true` if the flash loan was successful.\\n     */\\n    // This function can reenter, but it doesn't pose a risk because it always preserves the property that the amount\\n    // minted at the beginning is always recovered and burned at the end, or else the entire function will revert.\\n    // slither-disable-next-line reentrancy-no-eth\\n    function flashLoan(\\n        IERC3156FlashBorrower receiver,\\n        address token,\\n        uint256 value,\\n        bytes calldata data\\n    ) public virtual returns (bool) {\\n        uint256 maxLoan = maxFlashLoan(token);\\n        if (value > maxLoan) {\\n            revert ERC3156ExceededMaxLoan(maxLoan);\\n        }\\n        uint256 fee = flashFee(token, value);\\n        _mint(address(receiver), value);\\n        if (receiver.onFlashLoan(_msgSender(), token, value, fee, data) != RETURN_VALUE) {\\n            revert ERC3156InvalidReceiver(address(receiver));\\n        }\\n        address flashFeeReceiver = _flashFeeReceiver();\\n        _spendAllowance(address(receiver), address(this), value + fee);\\n        if (fee == 0 || flashFeeReceiver == address(0)) {\\n            _burn(address(receiver), value + fee);\\n        } else {\\n            _burn(address(receiver), value);\\n            _transfer(address(receiver), flashFeeReceiver, fee);\\n        }\\n        return true;\\n    }\\n}\\n\"},\"@openzeppelin/contracts-upgradeable@5.0.0/token/ERC20/extensions/ERC20VotesUpgradeable.sol\":{\"content\":\"// SPDX-License-Identifier: MIT\\n// OpenZeppelin Contracts (last updated v5.0.0) (token/ERC20/extensions/ERC20Votes.sol)\\n\\npragma solidity ^0.8.20;\\n\\nimport {ERC20Upgradeable} from \\\"../ERC20Upgradeable.sol\\\";\\nimport {VotesUpgradeable} from \\\"../../../governance/utils/VotesUpgradeable.sol\\\";\\nimport {Checkpoints} from \\\"@openzeppelin/contracts/utils/structs/Checkpoints.sol\\\";\\nimport {Initializable} from \\\"../../../proxy/utils/Initializable.sol\\\";\\n\\n/**\\n * @dev Extension of ERC20 to support Compound-like voting and delegation. This version is more generic than Compound's,\\n * and supports token supply up to 2^208^ - 1, while COMP is limited to 2^96^ - 1.\\n *\\n * NOTE: This contract does not provide interface compatibility with Compound's COMP token.\\n *\\n * This extension keeps a history (checkpoints) of each account's vote power. Vote power can be delegated either\\n * by calling the {delegate} function directly, or by providing a signature to be used with {delegateBySig}. Voting\\n * power can be queried through the public accessors {getVotes} and {getPastVotes}.\\n *\\n * By default, token balance does not account for voting power. This makes transfers cheaper. The downside is that it\\n * requires users to delegate to themselves in order to activate checkpoints and have their voting power tracked.\\n */\\nabstract contract ERC20VotesUpgradeable is Initializable, ERC20Upgradeable, VotesUpgradeable {\\n    /**\\n     * @dev Total supply cap has been exceeded, introducing a risk of votes overflowing.\\n     */\\n    error ERC20ExceededSafeSupply(uint256 increasedSupply, uint256 cap);\\n\\n    function __ERC20Votes_init() internal onlyInitializing {\\n    }\\n\\n    function __ERC20Votes_init_unchained() internal onlyInitializing {\\n    }\\n    /**\\n     * @dev Maximum token supply. Defaults to `type(uint208).max` (2^208^ - 1).\\n     *\\n     * This maximum is enforced in {_update}. It limits the total supply of the token, which is otherwise a uint256,\\n     * so that checkpoints can be stored in the Trace208 structure used by {{Votes}}. Increasing this value will not\\n     * remove the underlying limitation, and will cause {_update} to fail because of a math overflow in\\n     * {_transferVotingUnits}. An override could be used to further restrict the total supply (to a lower value) if\\n     * additional logic requires it. When resolving override conflicts on this function, the minimum should be\\n     * returned.\\n     */\\n    function _maxSupply() internal view virtual returns (uint256) {\\n        return type(uint208).max;\\n    }\\n\\n    /**\\n     * @dev Move voting power when tokens are transferred.\\n     *\\n     * Emits a {IVotes-DelegateVotesChanged} event.\\n     */\\n    function _update(address from, address to, uint256 value) internal virtual override {\\n        super._update(from, to, value);\\n        if (from == address(0)) {\\n            uint256 supply = totalSupply();\\n            uint256 cap = _maxSupply();\\n            if (supply > cap) {\\n                revert ERC20ExceededSafeSupply(supply, cap);\\n            }\\n        }\\n        _transferVotingUnits(from, to, value);\\n    }\\n\\n    /**\\n     * @dev Returns the voting units of an `account`.\\n     *\\n     * WARNING: Overriding this function may compromise the internal vote accounting.\\n     * `ERC20Votes` assumes tokens map to voting units 1:1 and this is not easy to change.\\n     */\\n    function _getVotingUnits(address account) internal view virtual override returns (uint256) {\\n        return balanceOf(account);\\n    }\\n\\n    /**\\n     * @dev Get number of checkpoints for `account`.\\n     */\\n    function numCheckpoints(address account) public view virtual returns (uint32) {\\n        return _numCheckpoints(account);\\n    }\\n\\n    /**\\n     * @dev Get the `pos`-th checkpoint for `account`.\\n     */\\n    function checkpoints(address account, uint32 pos) public view virtual returns (Checkpoints.Checkpoint208 memory) {\\n        return _checkpoints(account, pos);\\n    }\\n}\\n\"},\"@openzeppelin/contracts-upgradeable@5.0.0/token/ERC20/extensions/ERC20PermitUpgradeable.sol\":{\"content\":\"// SPDX-License-Identifier: MIT\\n// OpenZeppelin Contracts (last updated v5.0.0) (token/ERC20/extensions/ERC20Permit.sol)\\n\\npragma solidity ^0.8.20;\\n\\nimport {IERC20Permit} from \\\"@openzeppelin/contracts/token/ERC20/extensions/IERC20Permit.sol\\\";\\nimport {ERC20Upgradeable} from \\\"../ERC20Upgradeable.sol\\\";\\nimport {ECDSA} from \\\"@openzeppelin/contracts/utils/cryptography/ECDSA.sol\\\";\\nimport {EIP712Upgradeable} from \\\"../../../utils/cryptography/EIP712Upgradeable.sol\\\";\\nimport {NoncesUpgradeable} from \\\"../../../utils/NoncesUpgradeable.sol\\\";\\nimport {Initializable} from \\\"../../../proxy/utils/Initializable.sol\\\";\\n\\n/**\\n * @dev Implementation of the ERC20 Permit extension allowing approvals to be made via signatures, as defined in\\n * https://eips.ethereum.org/EIPS/eip-2612[EIP-2612].\\n *\\n * Adds the {permit} method, which can be used to change an account's ERC20 allowance (see {IERC20-allowance}) by\\n * presenting a message signed by the account. By not relying on `{IERC20-approve}`, the token holder account doesn't\\n * need to send a transaction, and thus is not required to hold Ether at all.\\n */\\nabstract contract ERC20PermitUpgradeable is Initializable, ERC20Upgradeable, IERC20Permit, EIP712Upgradeable, NoncesUpgradeable {\\n    bytes32 private constant PERMIT_TYPEHASH =\\n        keccak256(\\\"Permit(address owner,address spender,uint256 value,uint256 nonce,uint256 deadline)\\\");\\n\\n    /**\\n     * @dev Permit deadline has expired.\\n     */\\n    error ERC2612ExpiredSignature(uint256 deadline);\\n\\n    /**\\n     * @dev Mismatched signature.\\n     */\\n    error ERC2612InvalidSigner(address signer, address owner);\\n\\n    /**\\n     * @dev Initializes the {EIP712} domain separator using the `name` parameter, and setting `version` to `\\\"1\\\"`.\\n     *\\n     * It's a good idea to use the same `name` that is defined as the ERC20 token name.\\n     */\\n    function __ERC20Permit_init(string memory name) internal onlyInitializing {\\n        __EIP712_init_unchained(name, \\\"1\\\");\\n    }\\n\\n    function __ERC20Permit_init_unchained(string memory) internal onlyInitializing {}\\n\\n    /**\\n     * @inheritdoc IERC20Permit\\n     */\\n    function permit(\\n        address owner,\\n        address spender,\\n        uint256 value,\\n        uint256 deadline,\\n        uint8 v,\\n        bytes32 r,\\n        bytes32 s\\n    ) public virtual {\\n        if (block.timestamp > deadline) {\\n            revert ERC2612ExpiredSignature(deadline);\\n        }\\n\\n        bytes32 structHash = keccak256(abi.encode(PERMIT_TYPEHASH, owner, spender, value, _useNonce(owner), deadline));\\n\\n        bytes32 hash = _hashTypedDataV4(structHash);\\n\\n        address signer = ECDSA.recover(hash, v, r, s);\\n        if (signer != owner) {\\n            revert ERC2612InvalidSigner(signer, owner);\\n        }\\n\\n        _approve(owner, spender, value);\\n    }\\n\\n    /**\\n     * @inheritdoc IERC20Permit\\n     */\\n    function nonces(address owner) public view virtual override(IERC20Permit, NoncesUpgradeable) returns (uint256) {\\n        return super.nonces(owner);\\n    }\\n\\n    /**\\n     * @inheritdoc IERC20Permit\\n     */\\n    // solhint-disable-next-line func-name-mixedcase\\n    function DOMAIN_SEPARATOR() external view virtual returns (bytes32) {\\n        return _domainSeparatorV4();\\n    }\\n}\\n\"},\"@openzeppelin/contracts-upgradeable@5.0.0/access/AccessControlUpgradeable.sol\":{\"content\":\"// SPDX-License-Identifier: MIT\\n// OpenZeppelin Contracts (last updated v5.0.0) (access/AccessControl.sol)\\n\\npragma solidity ^0.8.20;\\n\\nimport {IAccessControl} from \\\"@openzeppelin/contracts/access/IAccessControl.sol\\\";\\nimport {ContextUpgradeable} from \\\"../utils/ContextUpgradeable.sol\\\";\\nimport {ERC165Upgradeable} from \\\"../utils/introspection/ERC165Upgradeable.sol\\\";\\nimport {Initializable} from \\\"../proxy/utils/Initializable.sol\\\";\\n\\n/**\\n * @dev Contract module that allows children to implement role-based access\\n * control mechanisms. This is a lightweight version that doesn't allow enumerating role\\n * members except through off-chain means by accessing the contract event logs. Some\\n * applications may benefit from on-chain enumerability, for those cases see\\n * {AccessControlEnumerable}.\\n *\\n * Roles are referred to by their `bytes32` identifier. These should be exposed\\n * in the external API and be unique. The best way to achieve this is by\\n * using `public constant` hash digests:\\n *\\n * ```solidity\\n * bytes32 public constant MY_ROLE = keccak256(\\\"MY_ROLE\\\");\\n * ```\\n *\\n * Roles can be used to represent a set of permissions. To restrict access to a\\n * function call, use {hasRole}:\\n *\\n * ```solidity\\n * function foo() public {\\n *     require(hasRole(MY_ROLE, msg.sender));\\n *     ...\\n * }\\n * ```\\n *\\n * Roles can be granted and revoked dynamically via the {grantRole} and\\n * {revokeRole} functions. Each role has an associated admin role, and only\\n * accounts that have a role's admin role can call {grantRole} and {revokeRole}.\\n *\\n * By default, the admin role for all roles is `DEFAULT_ADMIN_ROLE`, which means\\n * that only accounts with this role will be able to grant or revoke other\\n * roles. More complex role relationships can be created by using\\n * {_setRoleAdmin}.\\n *\\n * WARNING: The `DEFAULT_ADMIN_ROLE` is also its own admin: it has permission to\\n * grant and revoke this role. Extra precautions should be taken to secure\\n * accounts that have been granted it. We recommend using {AccessControlDefaultAdminRules}\\n * to enforce additional security measures for this role.\\n */\\nabstract contract AccessControlUpgradeable is Initializable, ContextUpgradeable, IAccessControl, ERC165Upgradeable {\\n    struct RoleData {\\n        mapping(address account => bool) hasRole;\\n        bytes32 adminRole;\\n    }\\n\\n    bytes32 public constant DEFAULT_ADMIN_ROLE = 0x00;\\n\\n\\n    /// @custom:storage-location erc7201:openzeppelin.storage.AccessControl\\n    struct AccessControlStorage {\\n        mapping(bytes32 role => RoleData) _roles;\\n    }\\n\\n    // keccak256(abi.encode(uint256(keccak256(\\\"openzeppelin.storage.AccessControl\\\")) - 1)) & ~bytes32(uint256(0xff))\\n    bytes32 private constant AccessControlStorageLocation = 0x02dd7bc7dec4dceedda775e58dd541e08a116c6c53815c0bd028192f7b626800;\\n\\n    function _getAccessControlStorage() private pure returns (AccessControlStorage storage $) {\\n        assembly {\\n            $.slot := AccessControlStorageLocation\\n        }\\n    }\\n\\n    /**\\n     * @dev Modifier that checks that an account has a specific role. Reverts\\n     * with an {AccessControlUnauthorizedAccount} error including the required role.\\n     */\\n    modifier onlyRole(bytes32 role) {\\n        _checkRole(role);\\n        _;\\n    }\\n\\n    function __AccessControl_init() internal onlyInitializing {\\n    }\\n\\n    function __AccessControl_init_unchained() internal onlyInitializing {\\n    }\\n    /**\\n     * @dev See {IERC165-supportsInterface}.\\n     */\\n    function supportsInterface(bytes4 interfaceId) public view virtual override returns (bool) {\\n        return interfaceId == type(IAccessControl).interfaceId || super.supportsInterface(interfaceId);\\n    }\\n\\n    /**\\n     * @dev Returns `true` if `account` has been granted `role`.\\n     */\\n    function hasRole(bytes32 role, address account) public view virtual returns (bool) {\\n        AccessControlStorage storage $ = _getAccessControlStorage();\\n        return $._roles[role].hasRole[account];\\n    }\\n\\n    /**\\n     * @dev Reverts with an {AccessControlUnauthorizedAccount} error if `_msgSender()`\\n     * is missing `role`. Overriding this function changes the behavior of the {onlyRole} modifier.\\n     */\\n    function _checkRole(bytes32 role) internal view virtual {\\n        _checkRole(role, _msgSender());\\n    }\\n\\n    /**\\n     * @dev Reverts with an {AccessControlUnauthorizedAccount} error if `account`\\n     * is missing `role`.\\n     */\\n    function _checkRole(bytes32 role, address account) internal view virtual {\\n        if (!hasRole(role, account)) {\\n            revert AccessControlUnauthorizedAccount(account, role);\\n        }\\n    }\\n\\n    /**\\n     * @dev Returns the admin role that controls `role`. See {grantRole} and\\n     * {revokeRole}.\\n     *\\n     * To change a role's admin, use {_setRoleAdmin}.\\n     */\\n    function getRoleAdmin(bytes32 role) public view virtual returns (bytes32) {\\n        AccessControlStorage storage $ = _getAccessControlStorage();\\n        return $._roles[role].adminRole;\\n    }\\n\\n    /**\\n     * @dev Grants `role` to `account`.\\n     *\\n     * If `account` had not been already granted `role`, emits a {RoleGranted}\\n     * event.\\n     *\\n     * Requirements:\\n     *\\n     * - the caller must have ``role``'s admin role.\\n     *\\n     * May emit a {RoleGranted} event.\\n     */\\n    function grantRole(bytes32 role, address account) public virtual onlyRole(getRoleAdmin(role)) {\\n        _grantRole(role, account);\\n    }\\n\\n    /**\\n     * @dev Revokes `role` from `account`.\\n     *\\n     * If `account` had been granted `role`, emits a {RoleRevoked} event.\\n     *\\n     * Requirements:\\n     *\\n     * - the caller must have ``role``'s admin role.\\n     *\\n     * May emit a {RoleRevoked} event.\\n     */\\n    function revokeRole(bytes32 role, address account) public virtual onlyRole(getRoleAdmin(role)) {\\n        _revokeRole(role, account);\\n    }\\n\\n    /**\\n     * @dev Revokes `role` from the calling account.\\n     *\\n     * Roles are often managed via {grantRole} and {revokeRole}: this function's\\n     * purpose is to provide a mechanism for accounts to lose their privileges\\n     * if they are compromised (such as when a trusted device is misplaced).\\n     *\\n     * If the calling account had been revoked `role`, emits a {RoleRevoked}\\n     * event.\\n     *\\n     * Requirements:\\n     *\\n     * - the caller must be `callerConfirmation`.\\n     *\\n     * May emit a {RoleRevoked} event.\\n     */\\n    function renounceRole(bytes32 role, address callerConfirmation) public virtual {\\n        if (callerConfirmation != _msgSender()) {\\n            revert AccessControlBadConfirmation();\\n        }\\n\\n        _revokeRole(role, callerConfirmation);\\n    }\\n\\n    /**\\n     * @dev Sets `adminRole` as ``role``'s admin role.\\n     *\\n     * Emits a {RoleAdminChanged} event.\\n     */\\n    function _setRoleAdmin(bytes32 role, bytes32 adminRole) internal virtual {\\n        AccessControlStorage storage $ = _getAccessControlStorage();\\n        bytes32 previousAdminRole = getRoleAdmin(role);\\n        $._roles[role].adminRole = adminRole;\\n        emit RoleAdminChanged(role, previousAdminRole, adminRole);\\n    }\\n\\n    /**\\n     * @dev Attempts to grant `role` to `account` and returns a boolean indicating if `role` was granted.\\n     *\\n     * Internal function without access restriction.\\n     *\\n     * May emit a {RoleGranted} event.\\n     */\\n    function _grantRole(bytes32 role, address account) internal virtual returns (bool) {\\n        AccessControlStorage storage $ = _getAccessControlStorage();\\n        if (!hasRole(role, account)) {\\n            $._roles[role].hasRole[account] = true;\\n            emit RoleGranted(role, account, _msgSender());\\n            return true;\\n        } else {\\n            return false;\\n        }\\n    }\\n\\n    /**\\n     * @dev Attempts to revoke `role` to `account` and returns a boolean indicating if `role` was revoked.\\n     *\\n     * Internal function without access restriction.\\n     *\\n     * May emit a {RoleRevoked} event.\\n     */\\n    function _revokeRole(bytes32 role, address account) internal virtual returns (bool) {\\n        AccessControlStorage storage $ = _getAccessControlStorage();\\n        if (hasRole(role, account)) {\\n            $._roles[role].hasRole[account] = false;\\n            emit RoleRevoked(role, account, _msgSender());\\n            return true;\\n        } else {\\n            return false;\\n        }\\n    }\\n}\\n\"},\"@openzeppelin/contracts-upgradeable@5.0.0/token/ERC20/extensions/ERC20PausableUpgradeable.sol\":{\"content\":\"// SPDX-License-Identifier: MIT\\n// OpenZeppelin Contracts (last updated v5.0.0) (token/ERC20/extensions/ERC20Pausable.sol)\\n\\npragma solidity ^0.8.20;\\n\\nimport {ERC20Upgradeable} from \\\"../ERC20Upgradeable.sol\\\";\\nimport {PausableUpgradeable} from \\\"../../../utils/PausableUpgradeable.sol\\\";\\nimport {Initializable} from \\\"../../../proxy/utils/Initializable.sol\\\";\\n\\n/**\\n * @dev ERC20 token with pausable token transfers, minting and burning.\\n *\\n * Useful for scenarios such as preventing trades until the end of an evaluation\\n * period, or having an emergency switch for freezing all token transfers in the\\n * event of a large bug.\\n *\\n * IMPORTANT: This contract does not include public pause and unpause functions. In\\n * addition to inheriting this contract, you must define both functions, invoking the\\n * {Pausable-_pause} and {Pausable-_unpause} internal functions, with appropriate\\n * access control, e.g. using {AccessControl} or {Ownable}. Not doing so will\\n * make the contract pause mechanism of the contract unreachable, and thus unusable.\\n */\\nabstract contract ERC20PausableUpgradeable is Initializable, ERC20Upgradeable, PausableUpgradeable {\\n    function __ERC20Pausable_init() internal onlyInitializing {\\n        __Pausable_init_unchained();\\n    }\\n\\n    function __ERC20Pausable_init_unchained() internal onlyInitializing {\\n    }\\n    /**\\n     * @dev See {ERC20-_update}.\\n     *\\n     * Requirements:\\n     *\\n     * - the contract must not be paused.\\n     */\\n    function _update(address from, address to, uint256 value) internal virtual override whenNotPaused {\\n        super._update(from, to, value);\\n    }\\n}\\n\"},\"@openzeppelin/contracts-upgradeable@5.0.0/token/ERC20/extensions/ERC20BurnableUpgradeable.sol\":{\"content\":\"// SPDX-License-Identifier: MIT\\n// OpenZeppelin Contracts (last updated v5.0.0) (token/ERC20/extensions/ERC20Burnable.sol)\\n\\npragma solidity ^0.8.20;\\n\\nimport {ERC20Upgradeable} from \\\"../ERC20Upgradeable.sol\\\";\\nimport {ContextUpgradeable} from \\\"../../../utils/ContextUpgradeable.sol\\\";\\nimport {Initializable} from \\\"../../../proxy/utils/Initializable.sol\\\";\\n\\n/**\\n * @dev Extension of {ERC20} that allows token holders to destroy both their own\\n * tokens and those that they have an allowance for, in a way that can be\\n * recognized off-chain (via event analysis).\\n */\\nabstract contract ERC20BurnableUpgradeable is Initializable, ContextUpgradeable, ERC20Upgradeable {\\n    function __ERC20Burnable_init() internal onlyInitializing {\\n    }\\n\\n    function __ERC20Burnable_init_unchained() internal onlyInitializing {\\n    }\\n    /**\\n     * @dev Destroys a `value` amount of tokens from the caller.\\n     *\\n     * See {ERC20-_burn}.\\n     */\\n    function burn(uint256 value) public virtual {\\n        _burn(_msgSender(), value);\\n    }\\n\\n    /**\\n     * @dev Destroys a `value` amount of tokens from `account`, deducting from\\n     * the caller's allowance.\\n     *\\n     * See {ERC20-_burn} and {ERC20-allowance}.\\n     *\\n     * Requirements:\\n     *\\n     * - the caller must have allowance for ``accounts``'s tokens of at least\\n     * `value`.\\n     */\\n    function burnFrom(address account, uint256 value) public virtual {\\n        _spendAllowance(account, _msgSender(), value);\\n        _burn(account, value);\\n    }\\n}\\n\"},\"@openzeppelin/contracts-upgradeable@5.0.0/token/ERC20/ERC20Upgradeable.sol\":{\"content\":\"// SPDX-License-Identifier: MIT\\n// OpenZeppelin Contracts (last updated v5.0.0) (token/ERC20/ERC20.sol)\\n\\npragma solidity ^0.8.20;\\n\\nimport {IERC20} from \\\"@openzeppelin/contracts/token/ERC20/IERC20.sol\\\";\\nimport {IERC20Metadata} from \\\"@openzeppelin/contracts/token/ERC20/extensions/IERC20Metadata.sol\\\";\\nimport {ContextUpgradeable} from \\\"../../utils/ContextUpgradeable.sol\\\";\\nimport {IERC20Errors} from \\\"@openzeppelin/contracts/interfaces/draft-IERC6093.sol\\\";\\nimport {Initializable} from \\\"../../proxy/utils/Initializable.sol\\\";\\n\\n/**\\n * @dev Implementation of the {IERC20} interface.\\n *\\n * This implementation is agnostic to the way tokens are created. This means\\n * that a supply mechanism has to be added in a derived contract using {_mint}.\\n *\\n * TIP: For a detailed writeup see our guide\\n * https://forum.openzeppelin.com/t/how-to-implement-erc20-supply-mechanisms/226[How\\n * to implement supply mechanisms].\\n *\\n * The default value of {decimals} is 18. To change this, you should override\\n * this function so it returns a different value.\\n *\\n * We have followed general OpenZeppelin Contracts guidelines: functions revert\\n * instead returning `false` on failure. This behavior is nonetheless\\n * conventional and does not conflict with the expectations of ERC20\\n * applications.\\n *\\n * Additionally, an {Approval} event is emitted on calls to {transferFrom}.\\n * This allows applications to reconstruct the allowance for all accounts just\\n * by listening to said events. Other implementations of the EIP may not emit\\n * these events, as it isn't required by the specification.\\n */\\nabstract contract ERC20Upgradeable is Initializable, ContextUpgradeable, IERC20, IERC20Metadata, IERC20Errors {\\n    /// @custom:storage-location erc7201:openzeppelin.storage.ERC20\\n    struct ERC20Storage {\\n        mapping(address account => uint256) _balances;\\n\\n        mapping(address account => mapping(address spender => uint256)) _allowances;\\n\\n        uint256 _totalSupply;\\n\\n        string _name;\\n        string _symbol;\\n    }\\n\\n    // keccak256(abi.encode(uint256(keccak256(\\\"openzeppelin.storage.ERC20\\\")) - 1)) & ~bytes32(uint256(0xff))\\n    bytes32 private constant ERC20StorageLocation = 0x52c63247e1f47db19d5ce0460030c497f067ca4cebf71ba98eeadabe20bace00;\\n\\n    function _getERC20Storage() private pure returns (ERC20Storage storage $) {\\n        assembly {\\n            $.slot := ERC20StorageLocation\\n        }\\n    }\\n\\n    /**\\n     * @dev Sets the values for {name} and {symbol}.\\n     *\\n     * All two of these values are immutable: they can only be set once during\\n     * construction.\\n     */\\n    function __ERC20_init(string memory name_, string memory symbol_) internal onlyInitializing {\\n        __ERC20_init_unchained(name_, symbol_);\\n    }\\n\\n    function __ERC20_init_unchained(string memory name_, string memory symbol_) internal onlyInitializing {\\n        ERC20Storage storage $ = _getERC20Storage();\\n        $._name = name_;\\n        $._symbol = symbol_;\\n    }\\n\\n    /**\\n     * @dev Returns the name of the token.\\n     */\\n    function name() public view virtual returns (string memory) {\\n        ERC20Storage storage $ = _getERC20Storage();\\n        return $._name;\\n    }\\n\\n    /**\\n     * @dev Returns the symbol of the token, usually a shorter version of the\\n     * name.\\n     */\\n    function symbol() public view virtual returns (string memory) {\\n        ERC20Storage storage $ = _getERC20Storage();\\n        return $._symbol;\\n    }\\n\\n    /**\\n     * @dev Returns the number of decimals used to get its user representation.\\n     * For example, if `decimals` equals `2`, a balance of `505` tokens should\\n     * be displayed to a user as `5.05` (`505 / 10 ** 2`).\\n     *\\n     * Tokens usually opt for a value of 18, imitating the relationship between\\n     * Ether and Wei. This is the default value returned by this function, unless\\n     * it's overridden.\\n     *\\n     * NOTE: This information is only used for _display_ purposes: it in\\n     * no way affects any of the arithmetic of the contract, including\\n     * {IERC20-balanceOf} and {IERC20-transfer}.\\n     */\\n    function decimals() public view virtual returns (uint8) {\\n        return 18;\\n    }\\n\\n    /**\\n     * @dev See {IERC20-totalSupply}.\\n     */\\n    function totalSupply() public view virtual returns (uint256) {\\n        ERC20Storage storage $ = _getERC20Storage();\\n        return $._totalSupply;\\n    }\\n\\n    /**\\n     * @dev See {IERC20-balanceOf}.\\n     */\\n    function balanceOf(address account) public view virtual returns (uint256) {\\n        ERC20Storage storage $ = _getERC20Storage();\\n        return $._balances[account];\\n    }\\n\\n    /**\\n     * @dev See {IERC20-transfer}.\\n     *\\n     * Requirements:\\n     *\\n     * - `to` cannot be the zero address.\\n     * - the caller must have a balance of at least `value`.\\n     */\\n    function transfer(address to, uint256 value) public virtual returns (bool) {\\n        address owner = _msgSender();\\n        _transfer(owner, to, value);\\n        return true;\\n    }\\n\\n    /**\\n     * @dev See {IERC20-allowance}.\\n     */\\n    function allowance(address owner, address spender) public view virtual returns (uint256) {\\n        ERC20Storage storage $ = _getERC20Storage();\\n        return $._allowances[owner][spender];\\n    }\\n\\n    /**\\n     * @dev See {IERC20-approve}.\\n     *\\n     * NOTE: If `value` is the maximum `uint256`, the allowance is not updated on\\n     * `transferFrom`. This is semantically equivalent to an infinite approval.\\n     *\\n     * Requirements:\\n     *\\n     * - `spender` cannot be the zero address.\\n     */\\n    function approve(address spender, uint256 value) public virtual returns (bool) {\\n        address owner = _msgSender();\\n        _approve(owner, spender, value);\\n        return true;\\n    }\\n\\n    /**\\n     * @dev See {IERC20-transferFrom}.\\n     *\\n     * Emits an {Approval} event indicating the updated allowance. This is not\\n     * required by the EIP. See the note at the beginning of {ERC20}.\\n     *\\n     * NOTE: Does not update the allowance if the current allowance\\n     * is the maximum `uint256`.\\n     *\\n     * Requirements:\\n     *\\n     * - `from` and `to` cannot be the zero address.\\n     * - `from` must have a balance of at least `value`.\\n     * - the caller must have allowance for ``from``'s tokens of at least\\n     * `value`.\\n     */\\n    function transferFrom(address from, address to, uint256 value) public virtual returns (bool) {\\n        address spender = _msgSender();\\n        _spendAllowance(from, spender, value);\\n        _transfer(from, to, value);\\n        return true;\\n    }\\n\\n    /**\\n     * @dev Moves a `value` amount of tokens from `from` to `to`.\\n     *\\n     * This internal function is equivalent to {transfer}, and can be used to\\n     * e.g. implement automatic token fees, slashing mechanisms, etc.\\n     *\\n     * Emits a {Transfer} event.\\n     *\\n     * NOTE: This function is not virtual, {_update} should be overridden instead.\\n     */\\n    function _transfer(address from, address to, uint256 value) internal {\\n        if (from == address(0)) {\\n            revert ERC20InvalidSender(address(0));\\n        }\\n        if (to == address(0)) {\\n            revert ERC20InvalidReceiver(address(0));\\n        }\\n        _update(from, to, value);\\n    }\\n\\n    /**\\n     * @dev Transfers a `value` amount of tokens from `from` to `to`, or alternatively mints (or burns) if `from`\\n     * (or `to`) is the zero address. All customizations to transfers, mints, and burns should be done by overriding\\n     * this function.\\n     *\\n     * Emits a {Transfer} event.\\n     */\\n    function _update(address from, address to, uint256 value) internal virtual {\\n        ERC20Storage storage $ = _getERC20Storage();\\n        if (from == address(0)) {\\n            // Overflow check required: The rest of the code assumes that totalSupply never overflows\\n            $._totalSupply += value;\\n        } else {\\n            uint256 fromBalance = $._balances[from];\\n            if (fromBalance < value) {\\n                revert ERC20InsufficientBalance(from, fromBalance, value);\\n            }\\n            unchecked {\\n                // Overflow not possible: value <= fromBalance <= totalSupply.\\n                $._balances[from] = fromBalance - value;\\n            }\\n        }\\n\\n        if (to == address(0)) {\\n            unchecked {\\n                // Overflow not possible: value <= totalSupply or value <= fromBalance <= totalSupply.\\n                $._totalSupply -= value;\\n            }\\n        } else {\\n            unchecked {\\n                // Overflow not possible: balance + value is at most totalSupply, which we know fits into a uint256.\\n                $._balances[to] += value;\\n            }\\n        }\\n\\n        emit Transfer(from, to, value);\\n    }\\n\\n    /**\\n     * @dev Creates a `value` amount of tokens and assigns them to `account`, by transferring it from address(0).\\n     * Relies on the `_update` mechanism\\n     *\\n     * Emits a {Transfer} event with `from` set to the zero address.\\n     *\\n     * NOTE: This function is not virtual, {_update} should be overridden instead.\\n     */\\n    function _mint(address account, uint256 value) internal {\\n        if (account == address(0)) {\\n            revert ERC20InvalidReceiver(address(0));\\n        }\\n        _update(address(0), account, value);\\n    }\\n\\n    /**\\n     * @dev Destroys a `value` amount of tokens from `account`, lowering the total supply.\\n     * Relies on the `_update` mechanism.\\n     *\\n     * Emits a {Transfer} event with `to` set to the zero address.\\n     *\\n     * NOTE: This function is not virtual, {_update} should be overridden instead\\n     */\\n    function _burn(address account, uint256 value) internal {\\n        if (account == address(0)) {\\n            revert ERC20InvalidSender(address(0));\\n        }\\n        _update(account, address(0), value);\\n    }\\n\\n    /**\\n     * @dev Sets `value` as the allowance of `spender` over the `owner` s tokens.\\n     *\\n     * This internal function is equivalent to `approve`, and can be used to\\n     * e.g. set automatic allowances for certain subsystems, etc.\\n     *\\n     * Emits an {Approval} event.\\n     *\\n     * Requirements:\\n     *\\n     * - `owner` cannot be the zero address.\\n     * - `spender` cannot be the zero address.\\n     *\\n     * Overrides to this logic should be done to the variant with an additional `bool emitEvent` argument.\\n     */\\n    function _approve(address owner, address spender, uint256 value) internal {\\n        _approve(owner, spender, value, true);\\n    }\\n\\n    /**\\n     * @dev Variant of {_approve} with an optional flag to enable or disable the {Approval} event.\\n     *\\n     * By default (when calling {_approve}) the flag is set to true. On the other hand, approval changes made by\\n     * `_spendAllowance` during the `transferFrom` operation set the flag to false. This saves gas by not emitting any\\n     * `Approval` event during `transferFrom` operations.\\n     *\\n     * Anyone who wishes to continue emitting `Approval` events on the`transferFrom` operation can force the flag to\\n     * true using the following override:\\n     * ```\\n     * function _approve(address owner, address spender, uint256 value, bool) internal virtual override {\\n     *     super._approve(owner, spender, value, true);\\n     * }\\n     * ```\\n     *\\n     * Requirements are the same as {_approve}.\\n     */\\n    function _approve(address owner, address spender, uint256 value, bool emitEvent) internal virtual {\\n        ERC20Storage storage $ = _getERC20Storage();\\n        if (owner == address(0)) {\\n            revert ERC20InvalidApprover(address(0));\\n        }\\n        if (spender == address(0)) {\\n            revert ERC20InvalidSpender(address(0));\\n        }\\n        $._allowances[owner][spender] = value;\\n        if (emitEvent) {\\n            emit Approval(owner, spender, value);\\n        }\\n    }\\n\\n    /**\\n     * @dev Updates `owner` s allowance for `spender` based on spent `value`.\\n     *\\n     * Does not update the allowance value in case of infinite allowance.\\n     * Revert if not enough allowance is available.\\n     *\\n     * Does not emit an {Approval} event.\\n     */\\n    function _spendAllowance(address owner, address spender, uint256 value) internal virtual {\\n        uint256 currentAllowance = allowance(owner, spender);\\n        if (currentAllowance != type(uint256).max) {\\n            if (currentAllowance < value) {\\n                revert ERC20InsufficientAllowance(spender, currentAllowance, value);\\n            }\\n            unchecked {\\n                _approve(owner, spender, currentAllowance - value, false);\\n            }\\n        }\\n    }\\n}\\n\"},\"@openzeppelin/contracts/utils/structs/Checkpoints.sol\":{\"content\":\"// SPDX-License-Identifier: MIT\\n// OpenZeppelin Contracts (last updated v5.0.0) (utils/structs/Checkpoints.sol)\\n// This file was procedurally generated from scripts/generate/templates/Checkpoints.js.\\n\\npragma solidity ^0.8.20;\\n\\nimport {Math} from \\\"../math/Math.sol\\\";\\n\\n/**\\n * @dev This library defines the `Trace*` struct, for checkpointing values as they change at different points in\\n * time, and later looking up past values by block number. See {Votes} as an example.\\n *\\n * To create a history of checkpoints define a variable type `Checkpoints.Trace*` in your contract, and store a new\\n * checkpoint for the current transaction block using the {push} function.\\n */\\nlibrary Checkpoints {\\n    /**\\n     * @dev A value was attempted to be inserted on a past checkpoint.\\n     */\\n    error CheckpointUnorderedInsertion();\\n\\n    struct Trace224 {\\n        Checkpoint224[] _checkpoints;\\n    }\\n\\n    struct Checkpoint224 {\\n        uint32 _key;\\n        uint224 _value;\\n    }\\n\\n    /**\\n     * @dev Pushes a (`key`, `value`) pair into a Trace224 so that it is stored as the checkpoint.\\n     *\\n     * Returns previous value and new value.\\n     *\\n     * IMPORTANT: Never accept `key` as a user input, since an arbitrary `type(uint32).max` key set will disable the\\n     * library.\\n     */\\n    function push(Trace224 storage self, uint32 key, uint224 value) internal returns (uint224, uint224) {\\n        return _insert(self._checkpoints, key, value);\\n    }\\n\\n    /**\\n     * @dev Returns the value in the first (oldest) checkpoint with key greater or equal than the search key, or zero if\\n     * there is none.\\n     */\\n    function lowerLookup(Trace224 storage self, uint32 key) internal view returns (uint224) {\\n        uint256 len = self._checkpoints.length;\\n        uint256 pos = _lowerBinaryLookup(self._checkpoints, key, 0, len);\\n        return pos == len ? 0 : _unsafeAccess(self._checkpoints, pos)._value;\\n    }\\n\\n    /**\\n     * @dev Returns the value in the last (most recent) checkpoint with key lower or equal than the search key, or zero\\n     * if there is none.\\n     */\\n    function upperLookup(Trace224 storage self, uint32 key) internal view returns (uint224) {\\n        uint256 len = self._checkpoints.length;\\n        uint256 pos = _upperBinaryLookup(self._checkpoints, key, 0, len);\\n        return pos == 0 ? 0 : _unsafeAccess(self._checkpoints, pos - 1)._value;\\n    }\\n\\n    /**\\n     * @dev Returns the value in the last (most recent) checkpoint with key lower or equal than the search key, or zero\\n     * if there is none.\\n     *\\n     * NOTE: This is a variant of {upperLookup} that is optimised to find \\\"recent\\\" checkpoint (checkpoints with high\\n     * keys).\\n     */\\n    function upperLookupRecent(Trace224 storage self, uint32 key) internal view returns (uint224) {\\n        uint256 len = self._checkpoints.length;\\n\\n        uint256 low = 0;\\n        uint256 high = len;\\n\\n        if (len > 5) {\\n            uint256 mid = len - Math.sqrt(len);\\n            if (key < _unsafeAccess(self._checkpoints, mid)._key) {\\n                high = mid;\\n            } else {\\n                low = mid + 1;\\n            }\\n        }\\n\\n        uint256 pos = _upperBinaryLookup(self._checkpoints, key, low, high);\\n\\n        return pos == 0 ? 0 : _unsafeAccess(self._checkpoints, pos - 1)._value;\\n    }\\n\\n    /**\\n     * @dev Returns the value in the most recent checkpoint, or zero if there are no checkpoints.\\n     */\\n    function latest(Trace224 storage self) internal view returns (uint224) {\\n        uint256 pos = self._checkpoints.length;\\n        return pos == 0 ? 0 : _unsafeAccess(self._checkpoints, pos - 1)._value;\\n    }\\n\\n    /**\\n     * @dev Returns whether there is a checkpoint in the structure (i.e. it is not empty), and if so the key and value\\n     * in the most recent checkpoint.\\n     */\\n    function latestCheckpoint(Trace224 storage self) internal view returns (bool exists, uint32 _key, uint224 _value) {\\n        uint256 pos = self._checkpoints.length;\\n        if (pos == 0) {\\n            return (false, 0, 0);\\n        } else {\\n            Checkpoint224 memory ckpt = _unsafeAccess(self._checkpoints, pos - 1);\\n            return (true, ckpt._key, ckpt._value);\\n        }\\n    }\\n\\n    /**\\n     * @dev Returns the number of checkpoint.\\n     */\\n    function length(Trace224 storage self) internal view returns (uint256) {\\n        return self._checkpoints.length;\\n    }\\n\\n    /**\\n     * @dev Returns checkpoint at given position.\\n     */\\n    function at(Trace224 storage self, uint32 pos) internal view returns (Checkpoint224 memory) {\\n        return self._checkpoints[pos];\\n    }\\n\\n    /**\\n     * @dev Pushes a (`key`, `value`) pair into an ordered list of checkpoints, either by inserting a new checkpoint,\\n     * or by updating the last one.\\n     */\\n    function _insert(Checkpoint224[] storage self, uint32 key, uint224 value) private returns (uint224, uint224) {\\n        uint256 pos = self.length;\\n\\n        if (pos > 0) {\\n            // Copying to memory is important here.\\n            Checkpoint224 memory last = _unsafeAccess(self, pos - 1);\\n\\n            // Checkpoint keys must be non-decreasing.\\n            if (last._key > key) {\\n                revert CheckpointUnorderedInsertion();\\n            }\\n\\n            // Update or push new checkpoint\\n            if (last._key == key) {\\n                _unsafeAccess(self, pos - 1)._value = value;\\n            } else {\\n                self.push(Checkpoint224({_key: key, _value: value}));\\n            }\\n            return (last._value, value);\\n        } else {\\n            self.push(Checkpoint224({_key: key, _value: value}));\\n            return (0, value);\\n        }\\n    }\\n\\n    /**\\n     * @dev Return the index of the last (most recent) checkpoint with key lower or equal than the search key, or `high`\\n     * if there is none. `low` and `high` define a section where to do the search, with inclusive `low` and exclusive\\n     * `high`.\\n     *\\n     * WARNING: `high` should not be greater than the array's length.\\n     */\\n    function _upperBinaryLookup(\\n        Checkpoint224[] storage self,\\n        uint32 key,\\n        uint256 low,\\n        uint256 high\\n    ) private view returns (uint256) {\\n        while (low < high) {\\n            uint256 mid = Math.average(low, high);\\n            if (_unsafeAccess(self, mid)._key > key) {\\n                high = mid;\\n            } else {\\n                low = mid + 1;\\n            }\\n        }\\n        return high;\\n    }\\n\\n    /**\\n     * @dev Return the index of the first (oldest) checkpoint with key is greater or equal than the search key, or\\n     * `high` if there is none. `low` and `high` define a section where to do the search, with inclusive `low` and\\n     * exclusive `high`.\\n     *\\n     * WARNING: `high` should not be greater than the array's length.\\n     */\\n    function _lowerBinaryLookup(\\n        Checkpoint224[] storage self,\\n        uint32 key,\\n        uint256 low,\\n        uint256 high\\n    ) private view returns (uint256) {\\n        while (low < high) {\\n            uint256 mid = Math.average(low, high);\\n            if (_unsafeAccess(self, mid)._key < key) {\\n                low = mid + 1;\\n            } else {\\n                high = mid;\\n            }\\n        }\\n        return high;\\n    }\\n\\n    /**\\n     * @dev Access an element of the array without performing bounds check. The position is assumed to be within bounds.\\n     */\\n    function _unsafeAccess(\\n        Checkpoint224[] storage self,\\n        uint256 pos\\n    ) private pure returns (Checkpoint224 storage result) {\\n        assembly {\\n            mstore(0, self.slot)\\n            result.slot := add(keccak256(0, 0x20), pos)\\n        }\\n    }\\n\\n    struct Trace208 {\\n        Checkpoint208[] _checkpoints;\\n    }\\n\\n    struct Checkpoint208 {\\n        uint48 _key;\\n        uint208 _value;\\n    }\\n\\n    /**\\n     * @dev Pushes a (`key`, `value`) pair into a Trace208 so that it is stored as the checkpoint.\\n     *\\n     * Returns previous value and new value.\\n     *\\n     * IMPORTANT: Never accept `key` as a user input, since an arbitrary `type(uint48).max` key set will disable the\\n     * library.\\n     */\\n    function push(Trace208 storage self, uint48 key, uint208 value) internal returns (uint208, uint208) {\\n        return _insert(self._checkpoints, key, value);\\n    }\\n\\n    /**\\n     * @dev Returns the value in the first (oldest) checkpoint with key greater or equal than the search key, or zero if\\n     * there is none.\\n     */\\n    function lowerLookup(Trace208 storage self, uint48 key) internal view returns (uint208) {\\n        uint256 len = self._checkpoints.length;\\n        uint256 pos = _lowerBinaryLookup(self._checkpoints, key, 0, len);\\n        return pos == len ? 0 : _unsafeAccess(self._checkpoints, pos)._value;\\n    }\\n\\n    /**\\n     * @dev Returns the value in the last (most recent) checkpoint with key lower or equal than the search key, or zero\\n     * if there is none.\\n     */\\n    function upperLookup(Trace208 storage self, uint48 key) internal view returns (uint208) {\\n        uint256 len = self._checkpoints.length;\\n        uint256 pos = _upperBinaryLookup(self._checkpoints, key, 0, len);\\n        return pos == 0 ? 0 : _unsafeAccess(self._checkpoints, pos - 1)._value;\\n    }\\n\\n    /**\\n     * @dev Returns the value in the last (most recent) checkpoint with key lower or equal than the search key, or zero\\n     * if there is none.\\n     *\\n     * NOTE: This is a variant of {upperLookup} that is optimised to find \\\"recent\\\" checkpoint (checkpoints with high\\n     * keys).\\n     */\\n    function upperLookupRecent(Trace208 storage self, uint48 key) internal view returns (uint208) {\\n        uint256 len = self._checkpoints.length;\\n\\n        uint256 low = 0;\\n        uint256 high = len;\\n\\n        if (len > 5) {\\n            uint256 mid = len - Math.sqrt(len);\\n            if (key < _unsafeAccess(self._checkpoints, mid)._key) {\\n                high = mid;\\n            } else {\\n                low = mid + 1;\\n            }\\n        }\\n\\n        uint256 pos = _upperBinaryLookup(self._checkpoints, key, low, high);\\n\\n        return pos == 0 ? 0 : _unsafeAccess(self._checkpoints, pos - 1)._value;\\n    }\\n\\n    /**\\n     * @dev Returns the value in the most recent checkpoint, or zero if there are no checkpoints.\\n     */\\n    function latest(Trace208 storage self) internal view returns (uint208) {\\n        uint256 pos = self._checkpoints.length;\\n        return pos == 0 ? 0 : _unsafeAccess(self._checkpoints, pos - 1)._value;\\n    }\\n\\n    /**\\n     * @dev Returns whether there is a checkpoint in the structure (i.e. it is not empty), and if so the key and value\\n     * in the most recent checkpoint.\\n     */\\n    function latestCheckpoint(Trace208 storage self) internal view returns (bool exists, uint48 _key, uint208 _value) {\\n        uint256 pos = self._checkpoints.length;\\n        if (pos == 0) {\\n            return (false, 0, 0);\\n        } else {\\n            Checkpoint208 memory ckpt = _unsafeAccess(self._checkpoints, pos - 1);\\n            return (true, ckpt._key, ckpt._value);\\n        }\\n    }\\n\\n    /**\\n     * @dev Returns the number of checkpoint.\\n     */\\n    function length(Trace208 storage self) internal view returns (uint256) {\\n        return self._checkpoints.length;\\n    }\\n\\n    /**\\n     * @dev Returns checkpoint at given position.\\n     */\\n    function at(Trace208 storage self, uint32 pos) internal view returns (Checkpoint208 memory) {\\n        return self._checkpoints[pos];\\n    }\\n\\n    /**\\n     * @dev Pushes a (`key`, `value`) pair into an ordered list of checkpoints, either by inserting a new checkpoint,\\n     * or by updating the last one.\\n     */\\n    function _insert(Checkpoint208[] storage self, uint48 key, uint208 value) private returns (uint208, uint208) {\\n        uint256 pos = self.length;\\n\\n        if (pos > 0) {\\n            // Copying to memory is important here.\\n            Checkpoint208 memory last = _unsafeAccess(self, pos - 1);\\n\\n            // Checkpoint keys must be non-decreasing.\\n            if (last._key > key) {\\n                revert CheckpointUnorderedInsertion();\\n            }\\n\\n            // Update or push new checkpoint\\n            if (last._key == key) {\\n                _unsafeAccess(self, pos - 1)._value = value;\\n            } else {\\n                self.push(Checkpoint208({_key: key, _value: value}));\\n            }\\n            return (last._value, value);\\n        } else {\\n            self.push(Checkpoint208({_key: key, _value: value}));\\n            return (0, value);\\n        }\\n    }\\n\\n    /**\\n     * @dev Return the index of the last (most recent) checkpoint with key lower or equal than the search key, or `high`\\n     * if there is none. `low` and `high` define a section where to do the search, with inclusive `low` and exclusive\\n     * `high`.\\n     *\\n     * WARNING: `high` should not be greater than the array's length.\\n     */\\n    function _upperBinaryLookup(\\n        Checkpoint208[] storage self,\\n        uint48 key,\\n        uint256 low,\\n        uint256 high\\n    ) private view returns (uint256) {\\n        while (low < high) {\\n            uint256 mid = Math.average(low, high);\\n            if (_unsafeAccess(self, mid)._key > key) {\\n                high = mid;\\n            } else {\\n                low = mid + 1;\\n            }\\n        }\\n        return high;\\n    }\\n\\n    /**\\n     * @dev Return the index of the first (oldest) checkpoint with key is greater or equal than the search key, or\\n     * `high` if there is none. `low` and `high` define a section where to do the search, with inclusive `low` and\\n     * exclusive `high`.\\n     *\\n     * WARNING: `high` should not be greater than the array's length.\\n     */\\n    function _lowerBinaryLookup(\\n        Checkpoint208[] storage self,\\n        uint48 key,\\n        uint256 low,\\n        uint256 high\\n    ) private view returns (uint256) {\\n        while (low < high) {\\n            uint256 mid = Math.average(low, high);\\n            if (_unsafeAccess(self, mid)._key < key) {\\n                low = mid + 1;\\n            } else {\\n                high = mid;\\n            }\\n        }\\n        return high;\\n    }\\n\\n    /**\\n     * @dev Access an element of the array without performing bounds check. The position is assumed to be within bounds.\\n     */\\n    function _unsafeAccess(\\n        Checkpoint208[] storage self,\\n        uint256 pos\\n    ) private pure returns (Checkpoint208 storage result) {\\n        assembly {\\n            mstore(0, self.slot)\\n            result.slot := add(keccak256(0, 0x20), pos)\\n        }\\n    }\\n\\n    struct Trace160 {\\n        Checkpoint160[] _checkpoints;\\n    }\\n\\n    struct Checkpoint160 {\\n        uint96 _key;\\n        uint160 _value;\\n    }\\n\\n    /**\\n     * @dev Pushes a (`key`, `value`) pair into a Trace160 so that it is stored as the checkpoint.\\n     *\\n     * Returns previous value and new value.\\n     *\\n     * IMPORTANT: Never accept `key` as a user input, since an arbitrary `type(uint96).max` key set will disable the\\n     * library.\\n     */\\n    function push(Trace160 storage self, uint96 key, uint160 value) internal returns (uint160, uint160) {\\n        return _insert(self._checkpoints, key, value);\\n    }\\n\\n    /**\\n     * @dev Returns the value in the first (oldest) checkpoint with key greater or equal than the search key, or zero if\\n     * there is none.\\n     */\\n    function lowerLookup(Trace160 storage self, uint96 key) internal view returns (uint160) {\\n        uint256 len = self._checkpoints.length;\\n        uint256 pos = _lowerBinaryLookup(self._checkpoints, key, 0, len);\\n        return pos == len ? 0 : _unsafeAccess(self._checkpoints, pos)._value;\\n    }\\n\\n    /**\\n     * @dev Returns the value in the last (most recent) checkpoint with key lower or equal than the search key, or zero\\n     * if there is none.\\n     */\\n    function upperLookup(Trace160 storage self, uint96 key) internal view returns (uint160) {\\n        uint256 len = self._checkpoints.length;\\n        uint256 pos = _upperBinaryLookup(self._checkpoints, key, 0, len);\\n        return pos == 0 ? 0 : _unsafeAccess(self._checkpoints, pos - 1)._value;\\n    }\\n\\n    /**\\n     * @dev Returns the value in the last (most recent) checkpoint with key lower or equal than the search key, or zero\\n     * if there is none.\\n     *\\n     * NOTE: This is a variant of {upperLookup} that is optimised to find \\\"recent\\\" checkpoint (checkpoints with high\\n     * keys).\\n     */\\n    function upperLookupRecent(Trace160 storage self, uint96 key) internal view returns (uint160) {\\n        uint256 len = self._checkpoints.length;\\n\\n        uint256 low = 0;\\n        uint256 high = len;\\n\\n        if (len > 5) {\\n            uint256 mid = len - Math.sqrt(len);\\n            if (key < _unsafeAccess(self._checkpoints, mid)._key) {\\n                high = mid;\\n            } else {\\n                low = mid + 1;\\n            }\\n        }\\n\\n        uint256 pos = _upperBinaryLookup(self._checkpoints, key, low, high);\\n\\n        return pos == 0 ? 0 : _unsafeAccess(self._checkpoints, pos - 1)._value;\\n    }\\n\\n    /**\\n     * @dev Returns the value in the most recent checkpoint, or zero if there are no checkpoints.\\n     */\\n    function latest(Trace160 storage self) internal view returns (uint160) {\\n        uint256 pos = self._checkpoints.length;\\n        return pos == 0 ? 0 : _unsafeAccess(self._checkpoints, pos - 1)._value;\\n    }\\n\\n    /**\\n     * @dev Returns whether there is a checkpoint in the structure (i.e. it is not empty), and if so the key and value\\n     * in the most recent checkpoint.\\n     */\\n    function latestCheckpoint(Trace160 storage self) internal view returns (bool exists, uint96 _key, uint160 _value) {\\n        uint256 pos = self._checkpoints.length;\\n        if (pos == 0) {\\n            return (false, 0, 0);\\n        } else {\\n            Checkpoint160 memory ckpt = _unsafeAccess(self._checkpoints, pos - 1);\\n            return (true, ckpt._key, ckpt._value);\\n        }\\n    }\\n\\n    /**\\n     * @dev Returns the number of checkpoint.\\n     */\\n    function length(Trace160 storage self) internal view returns (uint256) {\\n        return self._checkpoints.length;\\n    }\\n\\n    /**\\n     * @dev Returns checkpoint at given position.\\n     */\\n    function at(Trace160 storage self, uint32 pos) internal view returns (Checkpoint160 memory) {\\n        return self._checkpoints[pos];\\n    }\\n\\n    /**\\n     * @dev Pushes a (`key`, `value`) pair into an ordered list of checkpoints, either by inserting a new checkpoint,\\n     * or by updating the last one.\\n     */\\n    function _insert(Checkpoint160[] storage self, uint96 key, uint160 value) private returns (uint160, uint160) {\\n        uint256 pos = self.length;\\n\\n        if (pos > 0) {\\n            // Copying to memory is important here.\\n            Checkpoint160 memory last = _unsafeAccess(self, pos - 1);\\n\\n            // Checkpoint keys must be non-decreasing.\\n            if (last._key > key) {\\n                revert CheckpointUnorderedInsertion();\\n            }\\n\\n            // Update or push new checkpoint\\n            if (last._key == key) {\\n                _unsafeAccess(self, pos - 1)._value = value;\\n            } else {\\n                self.push(Checkpoint160({_key: key, _value: value}));\\n            }\\n            return (last._value, value);\\n        } else {\\n            self.push(Checkpoint160({_key: key, _value: value}));\\n            return (0, value);\\n        }\\n    }\\n\\n    /**\\n     * @dev Return the index of the last (most recent) checkpoint with key lower or equal than the search key, or `high`\\n     * if there is none. `low` and `high` define a section where to do the search, with inclusive `low` and exclusive\\n     * `high`.\\n     *\\n     * WARNING: `high` should not be greater than the array's length.\\n     */\\n    function _upperBinaryLookup(\\n        Checkpoint160[] storage self,\\n        uint96 key,\\n        uint256 low,\\n        uint256 high\\n    ) private view returns (uint256) {\\n        while (low < high) {\\n            uint256 mid = Math.average(low, high);\\n            if (_unsafeAccess(self, mid)._key > key) {\\n                high = mid;\\n            } else {\\n                low = mid + 1;\\n            }\\n        }\\n        return high;\\n    }\\n\\n    /**\\n     * @dev Return the index of the first (oldest) checkpoint with key is greater or equal than the search key, or\\n     * `high` if there is none. `low` and `high` define a section where to do the search, with inclusive `low` and\\n     * exclusive `high`.\\n     *\\n     * WARNING: `high` should not be greater than the array's length.\\n     */\\n    function _lowerBinaryLookup(\\n        Checkpoint160[] storage self,\\n        uint96 key,\\n        uint256 low,\\n        uint256 high\\n    ) private view returns (uint256) {\\n        while (low < high) {\\n            uint256 mid = Math.average(low, high);\\n            if (_unsafeAccess(self, mid)._key < key) {\\n                low = mid + 1;\\n            } else {\\n                high = mid;\\n            }\\n        }\\n        return high;\\n    }\\n\\n    /**\\n     * @dev Access an element of the array without performing bounds check. The position is assumed to be within bounds.\\n     */\\n    function _unsafeAccess(\\n        Checkpoint160[] storage self,\\n        uint256 pos\\n    ) private pure returns (Checkpoint160 storage result) {\\n        assembly {\\n            mstore(0, self.slot)\\n            result.slot := add(keccak256(0, 0x20), pos)\\n        }\\n    }\\n}\\n\"},\"@openzeppelin/contracts-upgradeable@5.0.0/governance/utils/VotesUpgradeable.sol\":{\"content\":\"// SPDX-License-Identifier: MIT\\n// OpenZeppelin Contracts (last updated v5.0.0) (governance/utils/Votes.sol)\\npragma solidity ^0.8.20;\\n\\nimport {IERC5805} from \\\"@openzeppelin/contracts/interfaces/IERC5805.sol\\\";\\nimport {ContextUpgradeable} from \\\"../../utils/ContextUpgradeable.sol\\\";\\nimport {NoncesUpgradeable} from \\\"../../utils/NoncesUpgradeable.sol\\\";\\nimport {EIP712Upgradeable} from \\\"../../utils/cryptography/EIP712Upgradeable.sol\\\";\\nimport {Checkpoints} from \\\"@openzeppelin/contracts/utils/structs/Checkpoints.sol\\\";\\nimport {SafeCast} from \\\"@openzeppelin/contracts/utils/math/SafeCast.sol\\\";\\nimport {ECDSA} from \\\"@openzeppelin/contracts/utils/cryptography/ECDSA.sol\\\";\\nimport {Time} from \\\"@openzeppelin/contracts/utils/types/Time.sol\\\";\\nimport {Initializable} from \\\"../../proxy/utils/Initializable.sol\\\";\\n\\n/**\\n * @dev This is a base abstract contract that tracks voting units, which are a measure of voting power that can be\\n * transferred, and provides a system of vote delegation, where an account can delegate its voting units to a sort of\\n * \\\"representative\\\" that will pool delegated voting units from different accounts and can then use it to vote in\\n * decisions. In fact, voting units _must_ be delegated in order to count as actual votes, and an account has to\\n * delegate those votes to itself if it wishes to participate in decisions and does not have a trusted representative.\\n *\\n * This contract is often combined with a token contract such that voting units correspond to token units. For an\\n * example, see {ERC721Votes}.\\n *\\n * The full history of delegate votes is tracked on-chain so that governance protocols can consider votes as distributed\\n * at a particular block number to protect against flash loans and double voting. The opt-in delegate system makes the\\n * cost of this history tracking optional.\\n *\\n * When using this module the derived contract must implement {_getVotingUnits} (for example, make it return\\n * {ERC721-balanceOf}), and can use {_transferVotingUnits} to track a change in the distribution of those units (in the\\n * previous example, it would be included in {ERC721-_update}).\\n */\\nabstract contract VotesUpgradeable is Initializable, ContextUpgradeable, EIP712Upgradeable, NoncesUpgradeable, IERC5805 {\\n    using Checkpoints for Checkpoints.Trace208;\\n\\n    bytes32 private constant DELEGATION_TYPEHASH =\\n        keccak256(\\\"Delegation(address delegatee,uint256 nonce,uint256 expiry)\\\");\\n\\n    /// @custom:storage-location erc7201:openzeppelin.storage.Votes\\n    struct VotesStorage {\\n        mapping(address account => address) _delegatee;\\n\\n        mapping(address delegatee => Checkpoints.Trace208) _delegateCheckpoints;\\n\\n        Checkpoints.Trace208 _totalCheckpoints;\\n    }\\n\\n    // keccak256(abi.encode(uint256(keccak256(\\\"openzeppelin.storage.Votes\\\")) - 1)) & ~bytes32(uint256(0xff))\\n    bytes32 private constant VotesStorageLocation = 0xe8b26c30fad74198956032a3533d903385d56dd795af560196f9c78d4af40d00;\\n\\n    function _getVotesStorage() private pure returns (VotesStorage storage $) {\\n        assembly {\\n            $.slot := VotesStorageLocation\\n        }\\n    }\\n\\n    /**\\n     * @dev The clock was incorrectly modified.\\n     */\\n    error ERC6372InconsistentClock();\\n\\n    /**\\n     * @dev Lookup to future votes is not available.\\n     */\\n    error ERC5805FutureLookup(uint256 timepoint, uint48 clock);\\n\\n    function __Votes_init() internal onlyInitializing {\\n    }\\n\\n    function __Votes_init_unchained() internal onlyInitializing {\\n    }\\n    /**\\n     * @dev Clock used for flagging checkpoints. Can be overridden to implement timestamp based\\n     * checkpoints (and voting), in which case {CLOCK_MODE} should be overridden as well to match.\\n     */\\n    function clock() public view virtual returns (uint48) {\\n        return Time.blockNumber();\\n    }\\n\\n    /**\\n     * @dev Machine-readable description of the clock as specified in EIP-6372.\\n     */\\n    // solhint-disable-next-line func-name-mixedcase\\n    function CLOCK_MODE() public view virtual returns (string memory) {\\n        // Check that the clock was not modified\\n        if (clock() != Time.blockNumber()) {\\n            revert ERC6372InconsistentClock();\\n        }\\n        return \\\"mode=blocknumber&from=default\\\";\\n    }\\n\\n    /**\\n     * @dev Returns the current amount of votes that `account` has.\\n     */\\n    function getVotes(address account) public view virtual returns (uint256) {\\n        VotesStorage storage $ = _getVotesStorage();\\n        return $._delegateCheckpoints[account].latest();\\n    }\\n\\n    /**\\n     * @dev Returns the amount of votes that `account` had at a specific moment in the past. If the `clock()` is\\n     * configured to use block numbers, this will return the value at the end of the corresponding block.\\n     *\\n     * Requirements:\\n     *\\n     * - `timepoint` must be in the past. If operating using block numbers, the block must be already mined.\\n     */\\n    function getPastVotes(address account, uint256 timepoint) public view virtual returns (uint256) {\\n        VotesStorage storage $ = _getVotesStorage();\\n        uint48 currentTimepoint = clock();\\n        if (timepoint >= currentTimepoint) {\\n            revert ERC5805FutureLookup(timepoint, currentTimepoint);\\n        }\\n        return $._delegateCheckpoints[account].upperLookupRecent(SafeCast.toUint48(timepoint));\\n    }\\n\\n    /**\\n     * @dev Returns the total supply of votes available at a specific moment in the past. If the `clock()` is\\n     * configured to use block numbers, this will return the value at the end of the corresponding block.\\n     *\\n     * NOTE: This value is the sum of all available votes, which is not necessarily the sum of all delegated votes.\\n     * Votes that have not been delegated are still part of total supply, even though they would not participate in a\\n     * vote.\\n     *\\n     * Requirements:\\n     *\\n     * - `timepoint` must be in the past. If operating using block numbers, the block must be already mined.\\n     */\\n    function getPastTotalSupply(uint256 timepoint) public view virtual returns (uint256) {\\n        VotesStorage storage $ = _getVotesStorage();\\n        uint48 currentTimepoint = clock();\\n        if (timepoint >= currentTimepoint) {\\n            revert ERC5805FutureLookup(timepoint, currentTimepoint);\\n        }\\n        return $._totalCheckpoints.upperLookupRecent(SafeCast.toUint48(timepoint));\\n    }\\n\\n    /**\\n     * @dev Returns the current total supply of votes.\\n     */\\n    function _getTotalSupply() internal view virtual returns (uint256) {\\n        VotesStorage storage $ = _getVotesStorage();\\n        return $._totalCheckpoints.latest();\\n    }\\n\\n    /**\\n     * @dev Returns the delegate that `account` has chosen.\\n     */\\n    function delegates(address account) public view virtual returns (address) {\\n        VotesStorage storage $ = _getVotesStorage();\\n        return $._delegatee[account];\\n    }\\n\\n    /**\\n     * @dev Delegates votes from the sender to `delegatee`.\\n     */\\n    function delegate(address delegatee) public virtual {\\n        address account = _msgSender();\\n        _delegate(account, delegatee);\\n    }\\n\\n    /**\\n     * @dev Delegates votes from signer to `delegatee`.\\n     */\\n    function delegateBySig(\\n        address delegatee,\\n        uint256 nonce,\\n        uint256 expiry,\\n        uint8 v,\\n        bytes32 r,\\n        bytes32 s\\n    ) public virtual {\\n        if (block.timestamp > expiry) {\\n            revert VotesExpiredSignature(expiry);\\n        }\\n        address signer = ECDSA.recover(\\n            _hashTypedDataV4(keccak256(abi.encode(DELEGATION_TYPEHASH, delegatee, nonce, expiry))),\\n            v,\\n            r,\\n            s\\n        );\\n        _useCheckedNonce(signer, nonce);\\n        _delegate(signer, delegatee);\\n    }\\n\\n    /**\\n     * @dev Delegate all of `account`'s voting units to `delegatee`.\\n     *\\n     * Emits events {IVotes-DelegateChanged} and {IVotes-DelegateVotesChanged}.\\n     */\\n    function _delegate(address account, address delegatee) internal virtual {\\n        VotesStorage storage $ = _getVotesStorage();\\n        address oldDelegate = delegates(account);\\n        $._delegatee[account] = delegatee;\\n\\n        emit DelegateChanged(account, oldDelegate, delegatee);\\n        _moveDelegateVotes(oldDelegate, delegatee, _getVotingUnits(account));\\n    }\\n\\n    /**\\n     * @dev Transfers, mints, or burns voting units. To register a mint, `from` should be zero. To register a burn, `to`\\n     * should be zero. Total supply of voting units will be adjusted with mints and burns.\\n     */\\n    function _transferVotingUnits(address from, address to, uint256 amount) internal virtual {\\n        VotesStorage storage $ = _getVotesStorage();\\n        if (from == address(0)) {\\n            _push($._totalCheckpoints, _add, SafeCast.toUint208(amount));\\n        }\\n        if (to == address(0)) {\\n            _push($._totalCheckpoints, _subtract, SafeCast.toUint208(amount));\\n        }\\n        _moveDelegateVotes(delegates(from), delegates(to), amount);\\n    }\\n\\n    /**\\n     * @dev Moves delegated votes from one delegate to another.\\n     */\\n    function _moveDelegateVotes(address from, address to, uint256 amount) private {\\n        VotesStorage storage $ = _getVotesStorage();\\n        if (from != to && amount > 0) {\\n            if (from != address(0)) {\\n                (uint256 oldValue, uint256 newValue) = _push(\\n                    $._delegateCheckpoints[from],\\n                    _subtract,\\n                    SafeCast.toUint208(amount)\\n                );\\n                emit DelegateVotesChanged(from, oldValue, newValue);\\n            }\\n            if (to != address(0)) {\\n                (uint256 oldValue, uint256 newValue) = _push(\\n                    $._delegateCheckpoints[to],\\n                    _add,\\n                    SafeCast.toUint208(amount)\\n                );\\n                emit DelegateVotesChanged(to, oldValue, newValue);\\n            }\\n        }\\n    }\\n\\n    /**\\n     * @dev Get number of checkpoints for `account`.\\n     */\\n    function _numCheckpoints(address account) internal view virtual returns (uint32) {\\n        VotesStorage storage $ = _getVotesStorage();\\n        return SafeCast.toUint32($._delegateCheckpoints[account].length());\\n    }\\n\\n    /**\\n     * @dev Get the `pos`-th checkpoint for `account`.\\n     */\\n    function _checkpoints(\\n        address account,\\n        uint32 pos\\n    ) internal view virtual returns (Checkpoints.Checkpoint208 memory) {\\n        VotesStorage storage $ = _getVotesStorage();\\n        return $._delegateCheckpoints[account].at(pos);\\n    }\\n\\n    function _push(\\n        Checkpoints.Trace208 storage store,\\n        function(uint208, uint208) view returns (uint208) op,\\n        uint208 delta\\n    ) private returns (uint208, uint208) {\\n        return store.push(clock(), op(store.latest(), delta));\\n    }\\n\\n    function _add(uint208 a, uint208 b) private pure returns (uint208) {\\n        return a + b;\\n    }\\n\\n    function _subtract(uint208 a, uint208 b) private pure returns (uint208) {\\n        return a - b;\\n    }\\n\\n    /**\\n     * @dev Must return the voting units held by an account.\\n     */\\n    function _getVotingUnits(address) internal view virtual returns (uint256);\\n}\\n\"},\"@openzeppelin/contracts-upgradeable@5.0.0/utils/NoncesUpgradeable.sol\":{\"content\":\"// SPDX-License-Identifier: MIT\\n// OpenZeppelin Contracts (last updated v5.0.0) (utils/Nonces.sol)\\npragma solidity ^0.8.20;\\nimport {Initializable} from \\\"../proxy/utils/Initializable.sol\\\";\\n\\n/**\\n * @dev Provides tracking nonces for addresses. Nonces will only increment.\\n */\\nabstract contract NoncesUpgradeable is Initializable {\\n    /**\\n     * @dev The nonce used for an `account` is not the expected current nonce.\\n     */\\n    error InvalidAccountNonce(address account, uint256 currentNonce);\\n\\n    /// @custom:storage-location erc7201:openzeppelin.storage.Nonces\\n    struct NoncesStorage {\\n        mapping(address account => uint256) _nonces;\\n    }\\n\\n    // keccak256(abi.encode(uint256(keccak256(\\\"openzeppelin.storage.Nonces\\\")) - 1)) & ~bytes32(uint256(0xff))\\n    bytes32 private constant NoncesStorageLocation = 0x5ab42ced628888259c08ac98db1eb0cf702fc1501344311d8b100cd1bfe4bb00;\\n\\n    function _getNoncesStorage() private pure returns (NoncesStorage storage $) {\\n        assembly {\\n            $.slot := NoncesStorageLocation\\n        }\\n    }\\n\\n    function __Nonces_init() internal onlyInitializing {\\n    }\\n\\n    function __Nonces_init_unchained() internal onlyInitializing {\\n    }\\n    /**\\n     * @dev Returns the next unused nonce for an address.\\n     */\\n    function nonces(address owner) public view virtual returns (uint256) {\\n        NoncesStorage storage $ = _getNoncesStorage();\\n        return $._nonces[owner];\\n    }\\n\\n    /**\\n     * @dev Consumes a nonce.\\n     *\\n     * Returns the current value and increments nonce.\\n     */\\n    function _useNonce(address owner) internal virtual returns (uint256) {\\n        NoncesStorage storage $ = _getNoncesStorage();\\n        // For each account, the nonce has an initial value of 0, can only be incremented by one, and cannot be\\n        // decremented or reset. This guarantees that the nonce never overflows.\\n        unchecked {\\n            // It is important to do x++ and not ++x here.\\n            return $._nonces[owner]++;\\n        }\\n    }\\n\\n    /**\\n     * @dev Same as {_useNonce} but checking that `nonce` is the next valid for `owner`.\\n     */\\n    function _useCheckedNonce(address owner, uint256 nonce) internal virtual {\\n        uint256 current = _useNonce(owner);\\n        if (nonce != current) {\\n            revert InvalidAccountNonce(owner, current);\\n        }\\n    }\\n}\\n\"},\"@openzeppelin/contracts-upgradeable@5.0.0/utils/cryptography/EIP712Upgradeable.sol\":{\"content\":\"// SPDX-License-Identifier: MIT\\n// OpenZeppelin Contracts (last updated v5.0.0) (utils/cryptography/EIP712.sol)\\n\\npragma solidity ^0.8.20;\\n\\nimport {MessageHashUtils} from \\\"@openzeppelin/contracts/utils/cryptography/MessageHashUtils.sol\\\";\\nimport {IERC5267} from \\\"@openzeppelin/contracts/interfaces/IERC5267.sol\\\";\\nimport {Initializable} from \\\"../../proxy/utils/Initializable.sol\\\";\\n\\n/**\\n * @dev https://eips.ethereum.org/EIPS/eip-712[EIP 712] is a standard for hashing and signing of typed structured data.\\n *\\n * The encoding scheme specified in the EIP requires a domain separator and a hash of the typed structured data, whose\\n * encoding is very generic and therefore its implementation in Solidity is not feasible, thus this contract\\n * does not implement the encoding itself. Protocols need to implement the type-specific encoding they need in order to\\n * produce the hash of their typed data using a combination of `abi.encode` and `keccak256`.\\n *\\n * This contract implements the EIP 712 domain separator ({_domainSeparatorV4}) that is used as part of the encoding\\n * scheme, and the final step of the encoding to obtain the message digest that is then signed via ECDSA\\n * ({_hashTypedDataV4}).\\n *\\n * The implementation of the domain separator was designed to be as efficient as possible while still properly updating\\n * the chain id to protect against replay attacks on an eventual fork of the chain.\\n *\\n * NOTE: This contract implements the version of the encoding known as \\\"v4\\\", as implemented by the JSON RPC method\\n * https://docs.metamask.io/guide/signing-data.html[`eth_signTypedDataV4` in MetaMask].\\n *\\n * NOTE: In the upgradeable version of this contract, the cached values will correspond to the address, and the domain\\n * separator of the implementation contract. This will cause the {_domainSeparatorV4} function to always rebuild the\\n * separator from the immutable values, which is cheaper than accessing a cached version in cold storage.\\n */\\nabstract contract EIP712Upgradeable is Initializable, IERC5267 {\\n    bytes32 private constant TYPE_HASH =\\n        keccak256(\\\"EIP712Domain(string name,string version,uint256 chainId,address verifyingContract)\\\");\\n\\n    /// @custom:storage-location erc7201:openzeppelin.storage.EIP712\\n    struct EIP712Storage {\\n        /// @custom:oz-renamed-from _HASHED_NAME\\n        bytes32 _hashedName;\\n        /// @custom:oz-renamed-from _HASHED_VERSION\\n        bytes32 _hashedVersion;\\n\\n        string _name;\\n        string _version;\\n    }\\n\\n    // keccak256(abi.encode(uint256(keccak256(\\\"openzeppelin.storage.EIP712\\\")) - 1)) & ~bytes32(uint256(0xff))\\n    bytes32 private constant EIP712StorageLocation = 0xa16a46d94261c7517cc8ff89f61c0ce93598e3c849801011dee649a6a557d100;\\n\\n    function _getEIP712Storage() private pure returns (EIP712Storage storage $) {\\n        assembly {\\n            $.slot := EIP712StorageLocation\\n        }\\n    }\\n\\n    /**\\n     * @dev Initializes the domain separator and parameter caches.\\n     *\\n     * The meaning of `name` and `version` is specified in\\n     * https://eips.ethereum.org/EIPS/eip-712#definition-of-domainseparator[EIP 712]:\\n     *\\n     * - `name`: the user readable name of the signing domain, i.e. the name of the DApp or the protocol.\\n     * - `version`: the current major version of the signing domain.\\n     *\\n     * NOTE: These parameters cannot be changed except through a xref:learn::upgrading-smart-contracts.adoc[smart\\n     * contract upgrade].\\n     */\\n    function __EIP712_init(string memory name, string memory version) internal onlyInitializing {\\n        __EIP712_init_unchained(name, version);\\n    }\\n\\n    function __EIP712_init_unchained(string memory name, string memory version) internal onlyInitializing {\\n        EIP712Storage storage $ = _getEIP712Storage();\\n        $._name = name;\\n        $._version = version;\\n\\n        // Reset prior values in storage if upgrading\\n        $._hashedName = 0;\\n        $._hashedVersion = 0;\\n    }\\n\\n    /**\\n     * @dev Returns the domain separator for the current chain.\\n     */\\n    function _domainSeparatorV4() internal view returns (bytes32) {\\n        return _buildDomainSeparator();\\n    }\\n\\n    function _buildDomainSeparator() private view returns (bytes32) {\\n        return keccak256(abi.encode(TYPE_HASH, _EIP712NameHash(), _EIP712VersionHash(), block.chainid, address(this)));\\n    }\\n\\n    /**\\n     * @dev Given an already https://eips.ethereum.org/EIPS/eip-712#definition-of-hashstruct[hashed struct], this\\n     * function returns the hash of the fully encoded EIP712 message for this domain.\\n     *\\n     * This hash can be used together with {ECDSA-recover} to obtain the signer of a message. For example:\\n     *\\n     * ```solidity\\n     * bytes32 digest = _hashTypedDataV4(keccak256(abi.encode(\\n     *     keccak256(\\\"Mail(address to,string contents)\\\"),\\n     *     mailTo,\\n     *     keccak256(bytes(mailContents))\\n     * )));\\n     * address signer = ECDSA.recover(digest, signature);\\n     * ```\\n     */\\n    function _hashTypedDataV4(bytes32 structHash) internal view virtual returns (bytes32) {\\n        return MessageHashUtils.toTypedDataHash(_domainSeparatorV4(), structHash);\\n    }\\n\\n    /**\\n     * @dev See {IERC-5267}.\\n     */\\n    function eip712Domain()\\n        public\\n        view\\n        virtual\\n        returns (\\n            bytes1 fields,\\n            string memory name,\\n            string memory version,\\n            uint256 chainId,\\n            address verifyingContract,\\n            bytes32 salt,\\n            uint256[] memory extensions\\n        )\\n    {\\n        EIP712Storage storage $ = _getEIP712Storage();\\n        // If the hashed name and version in storage are non-zero, the contract hasn't been properly initialized\\n        // and the EIP712 domain is not reliable, as it will be missing name and version.\\n        require($._hashedName == 0 && $._hashedVersion == 0, \\\"EIP712: Uninitialized\\\");\\n\\n        return (\\n            hex\\\"0f\\\", // 01111\\n            _EIP712Name(),\\n            _EIP712Version(),\\n            block.chainid,\\n            address(this),\\n            bytes32(0),\\n            new uint256[](0)\\n        );\\n    }\\n\\n    /**\\n     * @dev The name parameter for the EIP712 domain.\\n     *\\n     * NOTE: This function reads from storage by default, but can be redefined to return a constant value if gas costs\\n     * are a concern.\\n     */\\n    function _EIP712Name() internal view virtual returns (string memory) {\\n        EIP712Storage storage $ = _getEIP712Storage();\\n        return $._name;\\n    }\\n\\n    /**\\n     * @dev The version parameter for the EIP712 domain.\\n     *\\n     * NOTE: This function reads from storage by default, but can be redefined to return a constant value if gas costs\\n     * are a concern.\\n     */\\n    function _EIP712Version() internal view virtual returns (string memory) {\\n        EIP712Storage storage $ = _getEIP712Storage();\\n        return $._version;\\n    }\\n\\n    /**\\n     * @dev The hash of the name parameter for the EIP712 domain.\\n     *\\n     * NOTE: In previous versions this function was virtual. In this version you should override `_EIP712Name` instead.\\n     */\\n    function _EIP712NameHash() internal view returns (bytes32) {\\n        EIP712Storage storage $ = _getEIP712Storage();\\n        string memory name = _EIP712Name();\\n        if (bytes(name).length > 0) {\\n            return keccak256(bytes(name));\\n        } else {\\n            // If the name is empty, the contract may have been upgraded without initializing the new storage.\\n            // We return the name hash in storage if non-zero, otherwise we assume the name is empty by design.\\n            bytes32 hashedName = $._hashedName;\\n            if (hashedName != 0) {\\n                return hashedName;\\n            } else {\\n                return keccak256(\\\"\\\");\\n            }\\n        }\\n    }\\n\\n    /**\\n     * @dev The hash of the version parameter for the EIP712 domain.\\n     *\\n     * NOTE: In previous versions this function was virtual. In this version you should override `_EIP712Version` instead.\\n     */\\n    function _EIP712VersionHash() internal view returns (bytes32) {\\n        EIP712Storage storage $ = _getEIP712Storage();\\n        string memory version = _EIP712Version();\\n        if (bytes(version).length > 0) {\\n            return keccak256(bytes(version));\\n        } else {\\n            // If the version is empty, the contract may have been upgraded without initializing the new storage.\\n            // We return the version hash in storage if non-zero, otherwise we assume the version is empty by design.\\n            bytes32 hashedVersion = $._hashedVersion;\\n            if (hashedVersion != 0) {\\n                return hashedVersion;\\n            } else {\\n                return keccak256(\\\"\\\");\\n            }\\n        }\\n    }\\n}\\n\"},\"@openzeppelin/contracts/utils/cryptography/ECDSA.sol\":{\"content\":\"// SPDX-License-Identifier: MIT\\n// OpenZeppelin Contracts (last updated v5.0.0) (utils/cryptography/ECDSA.sol)\\n\\npragma solidity ^0.8.20;\\n\\n/**\\n * @dev Elliptic Curve Digital Signature Algorithm (ECDSA) operations.\\n *\\n * These functions can be used to verify that a message was signed by the holder\\n * of the private keys of a given address.\\n */\\nlibrary ECDSA {\\n    enum RecoverError {\\n        NoError,\\n        InvalidSignature,\\n        InvalidSignatureLength,\\n        InvalidSignatureS\\n    }\\n\\n    /**\\n     * @dev The signature derives the `address(0)`.\\n     */\\n    error ECDSAInvalidSignature();\\n\\n    /**\\n     * @dev The signature has an invalid length.\\n     */\\n    error ECDSAInvalidSignatureLength(uint256 length);\\n\\n    /**\\n     * @dev The signature has an S value that is in the upper half order.\\n     */\\n    error ECDSAInvalidSignatureS(bytes32 s);\\n\\n    /**\\n     * @dev Returns the address that signed a hashed message (`hash`) with `signature` or an error. This will not\\n     * return address(0) without also returning an error description. Errors are documented using an enum (error type)\\n     * and a bytes32 providing additional information about the error.\\n     *\\n     * If no error is returned, then the address can be used for verification purposes.\\n     *\\n     * The `ecrecover` EVM precompile allows for malleable (non-unique) signatures:\\n     * this function rejects them by requiring the `s` value to be in the lower\\n     * half order, and the `v` value to be either 27 or 28.\\n     *\\n     * IMPORTANT: `hash` _must_ be the result of a hash operation for the\\n     * verification to be secure: it is possible to craft signatures that\\n     * recover to arbitrary addresses for non-hashed data. A safe way to ensure\\n     * this is by receiving a hash of the original message (which may otherwise\\n     * be too long), and then calling {MessageHashUtils-toEthSignedMessageHash} on it.\\n     *\\n     * Documentation for signature generation:\\n     * - with https://web3js.readthedocs.io/en/v1.3.4/web3-eth-accounts.html#sign[Web3.js]\\n     * - with https://docs.ethers.io/v5/api/signer/#Signer-signMessage[ethers]\\n     */\\n    function tryRecover(bytes32 hash, bytes memory signature) internal pure returns (address, RecoverError, bytes32) {\\n        if (signature.length == 65) {\\n            bytes32 r;\\n            bytes32 s;\\n            uint8 v;\\n            // ecrecover takes the signature parameters, and the only way to get them\\n            // currently is to use assembly.\\n            /// @solidity memory-safe-assembly\\n            assembly {\\n                r := mload(add(signature, 0x20))\\n                s := mload(add(signature, 0x40))\\n                v := byte(0, mload(add(signature, 0x60)))\\n            }\\n            return tryRecover(hash, v, r, s);\\n        } else {\\n            return (address(0), RecoverError.InvalidSignatureLength, bytes32(signature.length));\\n        }\\n    }\\n\\n    /**\\n     * @dev Returns the address that signed a hashed message (`hash`) with\\n     * `signature`. This address can then be used for verification purposes.\\n     *\\n     * The `ecrecover` EVM precompile allows for malleable (non-unique) signatures:\\n     * this function rejects them by requiring the `s` value to be in the lower\\n     * half order, and the `v` value to be either 27 or 28.\\n     *\\n     * IMPORTANT: `hash` _must_ be the result of a hash operation for the\\n     * verification to be secure: it is possible to craft signatures that\\n     * recover to arbitrary addresses for non-hashed data. A safe way to ensure\\n     * this is by receiving a hash of the original message (which may otherwise\\n     * be too long), and then calling {MessageHashUtils-toEthSignedMessageHash} on it.\\n     */\\n    function recover(bytes32 hash, bytes memory signature) internal pure returns (address) {\\n        (address recovered, RecoverError error, bytes32 errorArg) = tryRecover(hash, signature);\\n        _throwError(error, errorArg);\\n        return recovered;\\n    }\\n\\n    /**\\n     * @dev Overload of {ECDSA-tryRecover} that receives the `r` and `vs` short-signature fields separately.\\n     *\\n     * See https://eips.ethereum.org/EIPS/eip-2098[EIP-2098 short signatures]\\n     */\\n    function tryRecover(bytes32 hash, bytes32 r, bytes32 vs) internal pure returns (address, RecoverError, bytes32) {\\n        unchecked {\\n            bytes32 s = vs & bytes32(0x7fffffffffffffffffffffffffffffffffffffffffffffffffffffffffffffff);\\n            // We do not check for an overflow here since the shift operation results in 0 or 1.\\n            uint8 v = uint8((uint256(vs) >> 255) + 27);\\n            return tryRecover(hash, v, r, s);\\n        }\\n    }\\n\\n    /**\\n     * @dev Overload of {ECDSA-recover} that receives the `r and `vs` short-signature fields separately.\\n     */\\n    function recover(bytes32 hash, bytes32 r, bytes32 vs) internal pure returns (address) {\\n        (address recovered, RecoverError error, bytes32 errorArg) = tryRecover(hash, r, vs);\\n        _throwError(error, errorArg);\\n        return recovered;\\n    }\\n\\n    /**\\n     * @dev Overload of {ECDSA-tryRecover} that receives the `v`,\\n     * `r` and `s` signature fields separately.\\n     */\\n    function tryRecover(\\n        bytes32 hash,\\n        uint8 v,\\n        bytes32 r,\\n        bytes32 s\\n    ) internal pure returns (address, RecoverError, bytes32) {\\n        // EIP-2 still allows signature malleability for ecrecover(). Remove this possibility and make the signature\\n        // unique. Appendix F in the Ethereum Yellow paper (https://ethereum.github.io/yellowpaper/paper.pdf), defines\\n        // the valid range for s in (301): 0 < s < secp256k1n  2 + 1, and for v in (302): v  {27, 28}. Most\\n        // signatures from current libraries generate a unique signature with an s-value in the lower half order.\\n        //\\n        // If your library generates malleable signatures, such as s-values in the upper range, calculate a new s-value\\n        // with 0xFFFFFFFFFFFFFFFFFFFFFFFFFFFFFFFEBAAEDCE6AF48A03BBFD25E8CD0364141 - s1 and flip v from 27 to 28 or\\n        // vice versa. If your library also generates signatures with 0/1 for v instead 27/28, add 27 to v to accept\\n        // these malleable signatures as well.\\n        if (uint256(s) > 0x7FFFFFFFFFFFFFFFFFFFFFFFFFFFFFFF5D576E7357A4501DDFE92F46681B20A0) {\\n            return (address(0), RecoverError.InvalidSignatureS, s);\\n        }\\n\\n        // If the signature is valid (and not malleable), return the signer address\\n        address signer = ecrecover(hash, v, r, s);\\n        if (signer == address(0)) {\\n            return (address(0), RecoverError.InvalidSignature, bytes32(0));\\n        }\\n\\n        return (signer, RecoverError.NoError, bytes32(0));\\n    }\\n\\n    /**\\n     * @dev Overload of {ECDSA-recover} that receives the `v`,\\n     * `r` and `s` signature fields separately.\\n     */\\n    function recover(bytes32 hash, uint8 v, bytes32 r, bytes32 s) internal pure returns (address) {\\n        (address recovered, RecoverError error, bytes32 errorArg) = tryRecover(hash, v, r, s);\\n        _throwError(error, errorArg);\\n        return recovered;\\n    }\\n\\n    /**\\n     * @dev Optionally reverts with the corresponding custom error according to the `error` argument provided.\\n     */\\n    function _throwError(RecoverError error, bytes32 errorArg) private pure {\\n        if (error == RecoverError.NoError) {\\n            return; // no error: do nothing\\n        } else if (error == RecoverError.InvalidSignature) {\\n            revert ECDSAInvalidSignature();\\n        } else if (error == RecoverError.InvalidSignatureLength) {\\n            revert ECDSAInvalidSignatureLength(uint256(errorArg));\\n        } else if (error == RecoverError.InvalidSignatureS) {\\n            revert ECDSAInvalidSignatureS(errorArg);\\n        }\\n    }\\n}\\n\"},\"@openzeppelin/contracts/token/ERC20/extensions/IERC20Permit.sol\":{\"content\":\"// SPDX-License-Identifier: MIT\\n// OpenZeppelin Contracts (last updated v5.0.0) (token/ERC20/extensions/IERC20Permit.sol)\\n\\npragma solidity ^0.8.20;\\n\\n/**\\n * @dev Interface of the ERC20 Permit extension allowing approvals to be made via signatures, as defined in\\n * https://eips.ethereum.org/EIPS/eip-2612[EIP-2612].\\n *\\n * Adds the {permit} method, which can be used to change an account's ERC20 allowance (see {IERC20-allowance}) by\\n * presenting a message signed by the account. By not relying on {IERC20-approve}, the token holder account doesn't\\n * need to send a transaction, and thus is not required to hold Ether at all.\\n *\\n * ==== Security Considerations\\n *\\n * There are two important considerations concerning the use of `permit`. The first is that a valid permit signature\\n * expresses an allowance, and it should not be assumed to convey additional meaning. In particular, it should not be\\n * considered as an intention to spend the allowance in any specific way. The second is that because permits have\\n * built-in replay protection and can be submitted by anyone, they can be frontrun. A protocol that uses permits should\\n * take this into consideration and allow a `permit` call to fail. Combining these two aspects, a pattern that may be\\n * generally recommended is:\\n *\\n * ```solidity\\n * function doThingWithPermit(..., uint256 value, uint256 deadline, uint8 v, bytes32 r, bytes32 s) public {\\n *     try token.permit(msg.sender, address(this), value, deadline, v, r, s) {} catch {}\\n *     doThing(..., value);\\n * }\\n *\\n * function doThing(..., uint256 value) public {\\n *     token.safeTransferFrom(msg.sender, address(this), value);\\n *     ...\\n * }\\n * ```\\n *\\n * Observe that: 1) `msg.sender` is used as the owner, leaving no ambiguity as to the signer intent, and 2) the use of\\n * `try/catch` allows the permit to fail and makes the code tolerant to frontrunning. (See also\\n * {SafeERC20-safeTransferFrom}).\\n *\\n * Additionally, note that smart contract wallets (such as Argent or Safe) are not able to produce permit signatures, so\\n * contracts should have entry points that don't rely on permit.\\n */\\ninterface IERC20Permit {\\n    /**\\n     * @dev Sets `value` as the allowance of `spender` over ``owner``'s tokens,\\n     * given ``owner``'s signed approval.\\n     *\\n     * IMPORTANT: The same issues {IERC20-approve} has related to transaction\\n     * ordering also apply here.\\n     *\\n     * Emits an {Approval} event.\\n     *\\n     * Requirements:\\n     *\\n     * - `spender` cannot be the zero address.\\n     * - `deadline` must be a timestamp in the future.\\n     * - `v`, `r` and `s` must be a valid `secp256k1` signature from `owner`\\n     * over the EIP712-formatted function arguments.\\n     * - the signature must use ``owner``'s current nonce (see {nonces}).\\n     *\\n     * For more information on the signature format, see the\\n     * https://eips.ethereum.org/EIPS/eip-2612#specification[relevant EIP\\n     * section].\\n     *\\n     * CAUTION: See Security Considerations above.\\n     */\\n    function permit(\\n        address owner,\\n        address spender,\\n        uint256 value,\\n        uint256 deadline,\\n        uint8 v,\\n        bytes32 r,\\n        bytes32 s\\n    ) external;\\n\\n    /**\\n     * @dev Returns the current nonce for `owner`. This value must be\\n     * included whenever a signature is generated for {permit}.\\n     *\\n     * Every successful call to {permit} increases ``owner``'s nonce by one. This\\n     * prevents a signature from being used multiple times.\\n     */\\n    function nonces(address owner) external view returns (uint256);\\n\\n    /**\\n     * @dev Returns the domain separator used in the encoding of the signature for {permit}, as defined by {EIP712}.\\n     */\\n    // solhint-disable-next-line func-name-mixedcase\\n    function DOMAIN_SEPARATOR() external view returns (bytes32);\\n}\\n\"},\"@openzeppelin/contracts-upgradeable@5.0.0/utils/PausableUpgradeable.sol\":{\"content\":\"// SPDX-License-Identifier: MIT\\n// OpenZeppelin Contracts (last updated v5.0.0) (utils/Pausable.sol)\\n\\npragma solidity ^0.8.20;\\n\\nimport {ContextUpgradeable} from \\\"../utils/ContextUpgradeable.sol\\\";\\nimport {Initializable} from \\\"../proxy/utils/Initializable.sol\\\";\\n\\n/**\\n * @dev Contract module which allows children to implement an emergency stop\\n * mechanism that can be triggered by an authorized account.\\n *\\n * This module is used through inheritance. It will make available the\\n * modifiers `whenNotPaused` and `whenPaused`, which can be applied to\\n * the functions of your contract. Note that they will not be pausable by\\n * simply including this module, only once the modifiers are put in place.\\n */\\nabstract contract PausableUpgradeable is Initializable, ContextUpgradeable {\\n    /// @custom:storage-location erc7201:openzeppelin.storage.Pausable\\n    struct PausableStorage {\\n        bool _paused;\\n    }\\n\\n    // keccak256(abi.encode(uint256(keccak256(\\\"openzeppelin.storage.Pausable\\\")) - 1)) & ~bytes32(uint256(0xff))\\n    bytes32 private constant PausableStorageLocation = 0xcd5ed15c6e187e77e9aee88184c21f4f2182ab5827cb3b7e07fbedcd63f03300;\\n\\n    function _getPausableStorage() private pure returns (PausableStorage storage $) {\\n        assembly {\\n            $.slot := PausableStorageLocation\\n        }\\n    }\\n\\n    /**\\n     * @dev Emitted when the pause is triggered by `account`.\\n     */\\n    event Paused(address account);\\n\\n    /**\\n     * @dev Emitted when the pause is lifted by `account`.\\n     */\\n    event Unpaused(address account);\\n\\n    /**\\n     * @dev The operation failed because the contract is paused.\\n     */\\n    error EnforcedPause();\\n\\n    /**\\n     * @dev The operation failed because the contract is not paused.\\n     */\\n    error ExpectedPause();\\n\\n    /**\\n     * @dev Initializes the contract in unpaused state.\\n     */\\n    function __Pausable_init() internal onlyInitializing {\\n        __Pausable_init_unchained();\\n    }\\n\\n    function __Pausable_init_unchained() internal onlyInitializing {\\n        PausableStorage storage $ = _getPausableStorage();\\n        $._paused = false;\\n    }\\n\\n    /**\\n     * @dev Modifier to make a function callable only when the contract is not paused.\\n     *\\n     * Requirements:\\n     *\\n     * - The contract must not be paused.\\n     */\\n    modifier whenNotPaused() {\\n        _requireNotPaused();\\n        _;\\n    }\\n\\n    /**\\n     * @dev Modifier to make a function callable only when the contract is paused.\\n     *\\n     * Requirements:\\n     *\\n     * - The contract must be paused.\\n     */\\n    modifier whenPaused() {\\n        _requirePaused();\\n        _;\\n    }\\n\\n    /**\\n     * @dev Returns true if the contract is paused, and false otherwise.\\n     */\\n    function paused() public view virtual returns (bool) {\\n        PausableStorage storage $ = _getPausableStorage();\\n        return $._paused;\\n    }\\n\\n    /**\\n     * @dev Throws if the contract is paused.\\n     */\\n    function _requireNotPaused() internal view virtual {\\n        if (paused()) {\\n            revert EnforcedPause();\\n        }\\n    }\\n\\n    /**\\n     * @dev Throws if the contract is not paused.\\n     */\\n    function _requirePaused() internal view virtual {\\n        if (!paused()) {\\n            revert ExpectedPause();\\n        }\\n    }\\n\\n    /**\\n     * @dev Triggers stopped state.\\n     *\\n     * Requirements:\\n     *\\n     * - The contract must not be paused.\\n     */\\n    function _pause() internal virtual whenNotPaused {\\n        PausableStorage storage $ = _getPausableStorage();\\n        $._paused = true;\\n        emit Paused(_msgSender());\\n    }\\n\\n    /**\\n     * @dev Returns to normal state.\\n     *\\n     * Requirements:\\n     *\\n     * - The contract must be paused.\\n     */\\n    function _unpause() internal virtual whenPaused {\\n        PausableStorage storage $ = _getPausableStorage();\\n        $._paused = false;\\n        emit Unpaused(_msgSender());\\n    }\\n}\\n\"},\"@openzeppelin/contracts/interfaces/IERC3156FlashLender.sol\":{\"content\":\"// SPDX-License-Identifier: MIT\\n// OpenZeppelin Contracts (last updated v5.0.0) (interfaces/IERC3156FlashLender.sol)\\n\\npragma solidity ^0.8.20;\\n\\nimport {IERC3156FlashBorrower} from \\\"./IERC3156FlashBorrower.sol\\\";\\n\\n/**\\n * @dev Interface of the ERC3156 FlashLender, as defined in\\n * https://eips.ethereum.org/EIPS/eip-3156[ERC-3156].\\n */\\ninterface IERC3156FlashLender {\\n    /**\\n     * @dev The amount of currency available to be lended.\\n     * @param token The loan currency.\\n     * @return The amount of `token` that can be borrowed.\\n     */\\n    function maxFlashLoan(address token) external view returns (uint256);\\n\\n    /**\\n     * @dev The fee to be charged for a given loan.\\n     * @param token The loan currency.\\n     * @param amount The amount of tokens lent.\\n     * @return The amount of `token` to be charged for the loan, on top of the returned principal.\\n     */\\n    function flashFee(address token, uint256 amount) external view returns (uint256);\\n\\n    /**\\n     * @dev Initiate a flash loan.\\n     * @param receiver The receiver of the tokens in the loan, and the receiver of the callback.\\n     * @param token The loan currency.\\n     * @param amount The amount of tokens lent.\\n     * @param data Arbitrary data structure, intended to contain user-defined parameters.\\n     */\\n    function flashLoan(\\n        IERC3156FlashBorrower receiver,\\n        address token,\\n        uint256 amount,\\n        bytes calldata data\\n    ) external returns (bool);\\n}\\n\"},\"@openzeppelin/contracts/interfaces/IERC3156FlashBorrower.sol\":{\"content\":\"// SPDX-License-Identifier: MIT\\n// OpenZeppelin Contracts (last updated v5.0.0) (interfaces/IERC3156FlashBorrower.sol)\\n\\npragma solidity ^0.8.20;\\n\\n/**\\n * @dev Interface of the ERC3156 FlashBorrower, as defined in\\n * https://eips.ethereum.org/EIPS/eip-3156[ERC-3156].\\n */\\ninterface IERC3156FlashBorrower {\\n    /**\\n     * @dev Receive a flash loan.\\n     * @param initiator The initiator of the loan.\\n     * @param token The loan currency.\\n     * @param amount The amount of tokens lent.\\n     * @param fee The additional amount of tokens to repay.\\n     * @param data Arbitrary data structure, intended to contain user-defined parameters.\\n     * @return The keccak256 hash of \\\"ERC3156FlashBorrower.onFlashLoan\\\"\\n     */\\n    function onFlashLoan(\\n        address initiator,\\n        address token,\\n        uint256 amount,\\n        uint256 fee,\\n        bytes calldata data\\n    ) external returns (bytes32);\\n}\\n\"},\"@openzeppelin/contracts-upgradeable@5.0.0/utils/ContextUpgradeable.sol\":{\"content\":\"// SPDX-License-Identifier: MIT\\n// OpenZeppelin Contracts (last updated v5.0.0) (utils/Context.sol)\\n\\npragma solidity ^0.8.20;\\nimport {Initializable} from \\\"../proxy/utils/Initializable.sol\\\";\\n\\n/**\\n * @dev Provides information about the current execution context, including the\\n * sender of the transaction and its data. While these are generally available\\n * via msg.sender and msg.data, they should not be accessed in such a direct\\n * manner, since when dealing with meta-transactions the account sending and\\n * paying for execution may not be the actual sender (as far as an application\\n * is concerned).\\n *\\n * This contract is only required for intermediate, library-like contracts.\\n */\\nabstract contract ContextUpgradeable is Initializable {\\n    function __Context_init() internal onlyInitializing {\\n    }\\n\\n    function __Context_init_unchained() internal onlyInitializing {\\n    }\\n    function _msgSender() internal view virtual returns (address) {\\n        return msg.sender;\\n    }\\n\\n    function _msgData() internal view virtual returns (bytes calldata) {\\n        return msg.data;\\n    }\\n}\\n\"},\"@openzeppelin/contracts/interfaces/draft-IERC6093.sol\":{\"content\":\"// SPDX-License-Identifier: MIT\\n// OpenZeppelin Contracts (last updated v5.0.0) (interfaces/draft-IERC6093.sol)\\npragma solidity ^0.8.20;\\n\\n/**\\n * @dev Standard ERC20 Errors\\n * Interface of the https://eips.ethereum.org/EIPS/eip-6093[ERC-6093] custom errors for ERC20 tokens.\\n */\\ninterface IERC20Errors {\\n    /**\\n     * @dev Indicates an error related to the current `balance` of a `sender`. Used in transfers.\\n     * @param sender Address whose tokens are being transferred.\\n     * @param balance Current balance for the interacting account.\\n     * @param needed Minimum amount required to perform a transfer.\\n     */\\n    error ERC20InsufficientBalance(address sender, uint256 balance, uint256 needed);\\n\\n    /**\\n     * @dev Indicates a failure with the token `sender`. Used in transfers.\\n     * @param sender Address whose tokens are being transferred.\\n     */\\n    error ERC20InvalidSender(address sender);\\n\\n    /**\\n     * @dev Indicates a failure with the token `receiver`. Used in transfers.\\n     * @param receiver Address to which tokens are being transferred.\\n     */\\n    error ERC20InvalidReceiver(address receiver);\\n\\n    /**\\n     * @dev Indicates a failure with the `spender`s `allowance`. Used in transfers.\\n     * @param spender Address that may be allowed to operate on tokens without being their owner.\\n     * @param allowance Amount of tokens a `spender` is allowed to operate with.\\n     * @param needed Minimum amount required to perform a transfer.\\n     */\\n    error ERC20InsufficientAllowance(address spender, uint256 allowance, uint256 needed);\\n\\n    /**\\n     * @dev Indicates a failure with the `approver` of a token to be approved. Used in approvals.\\n     * @param approver Address initiating an approval operation.\\n     */\\n    error ERC20InvalidApprover(address approver);\\n\\n    /**\\n     * @dev Indicates a failure with the `spender` to be approved. Used in approvals.\\n     * @param spender Address that may be allowed to operate on tokens without being their owner.\\n     */\\n    error ERC20InvalidSpender(address spender);\\n}\\n\\n/**\\n * @dev Standard ERC721 Errors\\n * Interface of the https://eips.ethereum.org/EIPS/eip-6093[ERC-6093] custom errors for ERC721 tokens.\\n */\\ninterface IERC721Errors {\\n    /**\\n     * @dev Indicates that an address can't be an owner. For example, `address(0)` is a forbidden owner in EIP-20.\\n     * Used in balance queries.\\n     * @param owner Address of the current owner of a token.\\n     */\\n    error ERC721InvalidOwner(address owner);\\n\\n    /**\\n     * @dev Indicates a `tokenId` whose `owner` is the zero address.\\n     * @param tokenId Identifier number of a token.\\n     */\\n    error ERC721NonexistentToken(uint256 tokenId);\\n\\n    /**\\n     * @dev Indicates an error related to the ownership over a particular token. Used in transfers.\\n     * @param sender Address whose tokens are being transferred.\\n     * @param tokenId Identifier number of a token.\\n     * @param owner Address of the current owner of a token.\\n     */\\n    error ERC721IncorrectOwner(address sender, uint256 tokenId, address owner);\\n\\n    /**\\n     * @dev Indicates a failure with the token `sender`. Used in transfers.\\n     * @param sender Address whose tokens are being transferred.\\n     */\\n    error ERC721InvalidSender(address sender);\\n\\n    /**\\n     * @dev Indicates a failure with the token `receiver`. Used in transfers.\\n     * @param receiver Address to which tokens are being transferred.\\n     */\\n    error ERC721InvalidReceiver(address receiver);\\n\\n    /**\\n     * @dev Indicates a failure with the `operator`s approval. Used in transfers.\\n     * @param operator Address that may be allowed to operate on tokens without being their owner.\\n     * @param tokenId Identifier number of a token.\\n     */\\n    error ERC721InsufficientApproval(address operator, uint256 tokenId);\\n\\n    /**\\n     * @dev Indicates a failure with the `approver` of a token to be approved. Used in approvals.\\n     * @param approver Address initiating an approval operation.\\n     */\\n    error ERC721InvalidApprover(address approver);\\n\\n    /**\\n     * @dev Indicates a failure with the `operator` to be approved. Used in approvals.\\n     * @param operator Address that may be allowed to operate on tokens without being their owner.\\n     */\\n    error ERC721InvalidOperator(address operator);\\n}\\n\\n/**\\n * @dev Standard ERC1155 Errors\\n * Interface of the https://eips.ethereum.org/EIPS/eip-6093[ERC-6093] custom errors for ERC1155 tokens.\\n */\\ninterface IERC1155Errors {\\n    /**\\n     * @dev Indicates an error related to the current `balance` of a `sender`. Used in transfers.\\n     * @param sender Address whose tokens are being transferred.\\n     * @param balance Current balance for the interacting account.\\n     * @param needed Minimum amount required to perform a transfer.\\n     * @param tokenId Identifier number of a token.\\n     */\\n    error ERC1155InsufficientBalance(address sender, uint256 balance, uint256 needed, uint256 tokenId);\\n\\n    /**\\n     * @dev Indicates a failure with the token `sender`. Used in transfers.\\n     * @param sender Address whose tokens are being transferred.\\n     */\\n    error ERC1155InvalidSender(address sender);\\n\\n    /**\\n     * @dev Indicates a failure with the token `receiver`. Used in transfers.\\n     * @param receiver Address to which tokens are being transferred.\\n     */\\n    error ERC1155InvalidReceiver(address receiver);\\n\\n    /**\\n     * @dev Indicates a failure with the `operator`s approval. Used in transfers.\\n     * @param operator Address that may be allowed to operate on tokens without being their owner.\\n     * @param owner Address of the current owner of a token.\\n     */\\n    error ERC1155MissingApprovalForAll(address operator, address owner);\\n\\n    /**\\n     * @dev Indicates a failure with the `approver` of a token to be approved. Used in approvals.\\n     * @param approver Address initiating an approval operation.\\n     */\\n    error ERC1155InvalidApprover(address approver);\\n\\n    /**\\n     * @dev Indicates a failure with the `operator` to be approved. Used in approvals.\\n     * @param operator Address that may be allowed to operate on tokens without being their owner.\\n     */\\n    error ERC1155InvalidOperator(address operator);\\n\\n    /**\\n     * @dev Indicates an array length mismatch between ids and values in a safeBatchTransferFrom operation.\\n     * Used in batch transfers.\\n     * @param idsLength Length of the array of token identifiers\\n     * @param valuesLength Length of the array of token amounts\\n     */\\n    error ERC1155InvalidArrayLength(uint256 idsLength, uint256 valuesLength);\\n}\\n\"},\"@openzeppelin/contracts/token/ERC20/extensions/IERC20Metadata.sol\":{\"content\":\"// SPDX-License-Identifier: MIT\\n// OpenZeppelin Contracts (last updated v5.0.0) (token/ERC20/extensions/IERC20Metadata.sol)\\n\\npragma solidity ^0.8.20;\\n\\nimport {IERC20} from \\\"../IERC20.sol\\\";\\n\\n/**\\n * @dev Interface for the optional metadata functions from the ERC20 standard.\\n */\\ninterface IERC20Metadata is IERC20 {\\n    /**\\n     * @dev Returns the name of the token.\\n     */\\n    function name() external view returns (string memory);\\n\\n    /**\\n     * @dev Returns the symbol of the token.\\n     */\\n    function symbol() external view returns (string memory);\\n\\n    /**\\n     * @dev Returns the decimals places of the token.\\n     */\\n    function decimals() external view returns (uint8);\\n}\\n\"},\"@openzeppelin/contracts/token/ERC20/IERC20.sol\":{\"content\":\"// SPDX-License-Identifier: MIT\\n// OpenZeppelin Contracts (last updated v5.0.0) (token/ERC20/IERC20.sol)\\n\\npragma solidity ^0.8.20;\\n\\n/**\\n * @dev Interface of the ERC20 standard as defined in the EIP.\\n */\\ninterface IERC20 {\\n    /**\\n     * @dev Emitted when `value` tokens are moved from one account (`from`) to\\n     * another (`to`).\\n     *\\n     * Note that `value` may be zero.\\n     */\\n    event Transfer(address indexed from, address indexed to, uint256 value);\\n\\n    /**\\n     * @dev Emitted when the allowance of a `spender` for an `owner` is set by\\n     * a call to {approve}. `value` is the new allowance.\\n     */\\n    event Approval(address indexed owner, address indexed spender, uint256 value);\\n\\n    /**\\n     * @dev Returns the value of tokens in existence.\\n     */\\n    function totalSupply() external view returns (uint256);\\n\\n    /**\\n     * @dev Returns the value of tokens owned by `account`.\\n     */\\n    function balanceOf(address account) external view returns (uint256);\\n\\n    /**\\n     * @dev Moves a `value` amount of tokens from the caller's account to `to`.\\n     *\\n     * Returns a boolean value indicating whether the operation succeeded.\\n     *\\n     * Emits a {Transfer} event.\\n     */\\n    function transfer(address to, uint256 value) external returns (bool);\\n\\n    /**\\n     * @dev Returns the remaining number of tokens that `spender` will be\\n     * allowed to spend on behalf of `owner` through {transferFrom}. This is\\n     * zero by default.\\n     *\\n     * This value changes when {approve} or {transferFrom} are called.\\n     */\\n    function allowance(address owner, address spender) external view returns (uint256);\\n\\n    /**\\n     * @dev Sets a `value` amount of tokens as the allowance of `spender` over the\\n     * caller's tokens.\\n     *\\n     * Returns a boolean value indicating whether the operation succeeded.\\n     *\\n     * IMPORTANT: Beware that changing an allowance with this method brings the risk\\n     * that someone may use both the old and the new allowance by unfortunate\\n     * transaction ordering. One possible solution to mitigate this race\\n     * condition is to first reduce the spender's allowance to 0 and set the\\n     * desired value afterwards:\\n     * https://github.com/ethereum/EIPs/issues/20#issuecomment-263524729\\n     *\\n     * Emits an {Approval} event.\\n     */\\n    function approve(address spender, uint256 value) external returns (bool);\\n\\n    /**\\n     * @dev Moves a `value` amount of tokens from `from` to `to` using the\\n     * allowance mechanism. `value` is then deducted from the caller's\\n     * allowance.\\n     *\\n     * Returns a boolean value indicating whether the operation succeeded.\\n     *\\n     * Emits a {Transfer} event.\\n     */\\n    function transferFrom(address from, address to, uint256 value) external returns (bool);\\n}\\n\"},\"@openzeppelin/contracts-upgradeable@5.0.0/utils/introspection/ERC165Upgradeable.sol\":{\"content\":\"// SPDX-License-Identifier: MIT\\n// OpenZeppelin Contracts (last updated v5.0.0) (utils/introspection/ERC165.sol)\\n\\npragma solidity ^0.8.20;\\n\\nimport {IERC165} from \\\"@openzeppelin/contracts/utils/introspection/IERC165.sol\\\";\\nimport {Initializable} from \\\"../../proxy/utils/Initializable.sol\\\";\\n\\n/**\\n * @dev Implementation of the {IERC165} interface.\\n *\\n * Contracts that want to implement ERC165 should inherit from this contract and override {supportsInterface} to check\\n * for the additional interface id that will be supported. For example:\\n *\\n * ```solidity\\n * function supportsInterface(bytes4 interfaceId) public view virtual override returns (bool) {\\n *     return interfaceId == type(MyInterface).interfaceId || super.supportsInterface(interfaceId);\\n * }\\n * ```\\n */\\nabstract contract ERC165Upgradeable is Initializable, IERC165 {\\n    function __ERC165_init() internal onlyInitializing {\\n    }\\n\\n    function __ERC165_init_unchained() internal onlyInitializing {\\n    }\\n    /**\\n     * @dev See {IERC165-supportsInterface}.\\n     */\\n    function supportsInterface(bytes4 interfaceId) public view virtual returns (bool) {\\n        return interfaceId == type(IERC165).interfaceId;\\n    }\\n}\\n\"},\"@openzeppelin/contracts/access/IAccessControl.sol\":{\"content\":\"// SPDX-License-Identifier: MIT\\n// OpenZeppelin Contracts (last updated v5.0.0) (access/IAccessControl.sol)\\n\\npragma solidity ^0.8.20;\\n\\n/**\\n * @dev External interface of AccessControl declared to support ERC165 detection.\\n */\\ninterface IAccessControl {\\n    /**\\n     * @dev The `account` is missing a role.\\n     */\\n    error AccessControlUnauthorizedAccount(address account, bytes32 neededRole);\\n\\n    /**\\n     * @dev The caller of a function is not the expected one.\\n     *\\n     * NOTE: Don't confuse with {AccessControlUnauthorizedAccount}.\\n     */\\n    error AccessControlBadConfirmation();\\n\\n    /**\\n     * @dev Emitted when `newAdminRole` is set as ``role``'s admin role, replacing `previousAdminRole`\\n     *\\n     * `DEFAULT_ADMIN_ROLE` is the starting admin for all roles, despite\\n     * {RoleAdminChanged} not being emitted signaling this.\\n     */\\n    event RoleAdminChanged(bytes32 indexed role, bytes32 indexed previousAdminRole, bytes32 indexed newAdminRole);\\n\\n    /**\\n     * @dev Emitted when `account` is granted `role`.\\n     *\\n     * `sender` is the account that originated the contract call, an admin role\\n     * bearer except when using {AccessControl-_setupRole}.\\n     */\\n    event RoleGranted(bytes32 indexed role, address indexed account, address indexed sender);\\n\\n    /**\\n     * @dev Emitted when `account` is revoked `role`.\\n     *\\n     * `sender` is the account that originated the contract call:\\n     *   - if using `revokeRole`, it is the admin role bearer\\n     *   - if using `renounceRole`, it is the role bearer (i.e. `account`)\\n     */\\n    event RoleRevoked(bytes32 indexed role, address indexed account, address indexed sender);\\n\\n    /**\\n     * @dev Returns `true` if `account` has been granted `role`.\\n     */\\n    function hasRole(bytes32 role, address account) external view returns (bool);\\n\\n    /**\\n     * @dev Returns the admin role that controls `role`. See {grantRole} and\\n     * {revokeRole}.\\n     *\\n     * To change a role's admin, use {AccessControl-_setRoleAdmin}.\\n     */\\n    function getRoleAdmin(bytes32 role) external view returns (bytes32);\\n\\n    /**\\n     * @dev Grants `role` to `account`.\\n     *\\n     * If `account` had not been already granted `role`, emits a {RoleGranted}\\n     * event.\\n     *\\n     * Requirements:\\n     *\\n     * - the caller must have ``role``'s admin role.\\n     */\\n    function grantRole(bytes32 role, address account) external;\\n\\n    /**\\n     * @dev Revokes `role` from `account`.\\n     *\\n     * If `account` had been granted `role`, emits a {RoleRevoked} event.\\n     *\\n     * Requirements:\\n     *\\n     * - the caller must have ``role``'s admin role.\\n     */\\n    function revokeRole(bytes32 role, address account) external;\\n\\n    /**\\n     * @dev Revokes `role` from the calling account.\\n     *\\n     * Roles are often managed via {grantRole} and {revokeRole}: this function's\\n     * purpose is to provide a mechanism for accounts to lose their privileges\\n     * if they are compromised (such as when a trusted device is misplaced).\\n     *\\n     * If the calling account had been granted `role`, emits a {RoleRevoked}\\n     * event.\\n     *\\n     * Requirements:\\n     *\\n     * - the caller must be `callerConfirmation`.\\n     */\\n    function renounceRole(bytes32 role, address callerConfirmation) external;\\n}\\n\"},\"@openzeppelin/contracts/utils/math/Math.sol\":{\"content\":\"// SPDX-License-Identifier: MIT\\n// OpenZeppelin Contracts (last updated v5.0.0) (utils/math/Math.sol)\\n\\npragma solidity ^0.8.20;\\n\\n/**\\n * @dev Standard math utilities missing in the Solidity language.\\n */\\nlibrary Math {\\n    /**\\n     * @dev Muldiv operation overflow.\\n     */\\n    error MathOverflowedMulDiv();\\n\\n    enum Rounding {\\n        Floor, // Toward negative infinity\\n        Ceil, // Toward positive infinity\\n        Trunc, // Toward zero\\n        Expand // Away from zero\\n    }\\n\\n    /**\\n     * @dev Returns the addition of two unsigned integers, with an overflow flag.\\n     */\\n    function tryAdd(uint256 a, uint256 b) internal pure returns (bool, uint256) {\\n        unchecked {\\n            uint256 c = a + b;\\n            if (c < a) return (false, 0);\\n            return (true, c);\\n        }\\n    }\\n\\n    /**\\n     * @dev Returns the subtraction of two unsigned integers, with an overflow flag.\\n     */\\n    function trySub(uint256 a, uint256 b) internal pure returns (bool, uint256) {\\n        unchecked {\\n            if (b > a) return (false, 0);\\n            return (true, a - b);\\n        }\\n    }\\n\\n    /**\\n     * @dev Returns the multiplication of two unsigned integers, with an overflow flag.\\n     */\\n    function tryMul(uint256 a, uint256 b) internal pure returns (bool, uint256) {\\n        unchecked {\\n            // Gas optimization: this is cheaper than requiring 'a' not being zero, but the\\n            // benefit is lost if 'b' is also tested.\\n            // See: https://github.com/OpenZeppelin/openzeppelin-contracts/pull/522\\n            if (a == 0) return (true, 0);\\n            uint256 c = a * b;\\n            if (c / a != b) return (false, 0);\\n            return (true, c);\\n        }\\n    }\\n\\n    /**\\n     * @dev Returns the division of two unsigned integers, with a division by zero flag.\\n     */\\n    function tryDiv(uint256 a, uint256 b) internal pure returns (bool, uint256) {\\n        unchecked {\\n            if (b == 0) return (false, 0);\\n            return (true, a / b);\\n        }\\n    }\\n\\n    /**\\n     * @dev Returns the remainder of dividing two unsigned integers, with a division by zero flag.\\n     */\\n    function tryMod(uint256 a, uint256 b) internal pure returns (bool, uint256) {\\n        unchecked {\\n            if (b == 0) return (false, 0);\\n            return (true, a % b);\\n        }\\n    }\\n\\n    /**\\n     * @dev Returns the largest of two numbers.\\n     */\\n    function max(uint256 a, uint256 b) internal pure returns (uint256) {\\n        return a > b ? a : b;\\n    }\\n\\n    /**\\n     * @dev Returns the smallest of two numbers.\\n     */\\n    function min(uint256 a, uint256 b) internal pure returns (uint256) {\\n        return a < b ? a : b;\\n    }\\n\\n    /**\\n     * @dev Returns the average of two numbers. The result is rounded towards\\n     * zero.\\n     */\\n    function average(uint256 a, uint256 b) internal pure returns (uint256) {\\n        // (a + b) / 2 can overflow.\\n        return (a & b) + (a ^ b) / 2;\\n    }\\n\\n    /**\\n     * @dev Returns the ceiling of the division of two numbers.\\n     *\\n     * This differs from standard division with `/` in that it rounds towards infinity instead\\n     * of rounding towards zero.\\n     */\\n    function ceilDiv(uint256 a, uint256 b) internal pure returns (uint256) {\\n        if (b == 0) {\\n            // Guarantee the same behavior as in a regular Solidity division.\\n            return a / b;\\n        }\\n\\n        // (a + b - 1) / b can overflow on addition, so we distribute.\\n        return a == 0 ? 0 : (a - 1) / b + 1;\\n    }\\n\\n    /**\\n     * @notice Calculates floor(x * y / denominator) with full precision. Throws if result overflows a uint256 or\\n     * denominator == 0.\\n     * @dev Original credit to Remco Bloemen under MIT license (https://xn--2-umb.com/21/muldiv) with further edits by\\n     * Uniswap Labs also under MIT license.\\n     */\\n    function mulDiv(uint256 x, uint256 y, uint256 denominator) internal pure returns (uint256 result) {\\n        unchecked {\\n            // 512-bit multiply [prod1 prod0] = x * y. Compute the product mod 2^256 and mod 2^256 - 1, then use\\n            // use the Chinese Remainder Theorem to reconstruct the 512 bit result. The result is stored in two 256\\n            // variables such that product = prod1 * 2^256 + prod0.\\n            uint256 prod0 = x * y; // Least significant 256 bits of the product\\n            uint256 prod1; // Most significant 256 bits of the product\\n            assembly {\\n                let mm := mulmod(x, y, not(0))\\n                prod1 := sub(sub(mm, prod0), lt(mm, prod0))\\n            }\\n\\n            // Handle non-overflow cases, 256 by 256 division.\\n            if (prod1 == 0) {\\n                // Solidity will revert if denominator == 0, unlike the div opcode on its own.\\n                // The surrounding unchecked block does not change this fact.\\n                // See https://docs.soliditylang.org/en/latest/control-structures.html#checked-or-unchecked-arithmetic.\\n                return prod0 / denominator;\\n            }\\n\\n            // Make sure the result is less than 2^256. Also prevents denominator == 0.\\n            if (denominator <= prod1) {\\n                revert MathOverflowedMulDiv();\\n            }\\n\\n            ///////////////////////////////////////////////\\n            // 512 by 256 division.\\n            ///////////////////////////////////////////////\\n\\n            // Make division exact by subtracting the remainder from [prod1 prod0].\\n            uint256 remainder;\\n            assembly {\\n                // Compute remainder using mulmod.\\n                remainder := mulmod(x, y, denominator)\\n\\n                // Subtract 256 bit number from 512 bit number.\\n                prod1 := sub(prod1, gt(remainder, prod0))\\n                prod0 := sub(prod0, remainder)\\n            }\\n\\n            // Factor powers of two out of denominator and compute largest power of two divisor of denominator.\\n            // Always >= 1. See https://cs.stackexchange.com/q/138556/92363.\\n\\n            uint256 twos = denominator & (0 - denominator);\\n            assembly {\\n                // Divide denominator by twos.\\n                denominator := div(denominator, twos)\\n\\n                // Divide [prod1 prod0] by twos.\\n                prod0 := div(prod0, twos)\\n\\n                // Flip twos such that it is 2^256 / twos. If twos is zero, then it becomes one.\\n                twos := add(div(sub(0, twos), twos), 1)\\n            }\\n\\n            // Shift in bits from prod1 into prod0.\\n            prod0 |= prod1 * twos;\\n\\n            // Invert denominator mod 2^256. Now that denominator is an odd number, it has an inverse modulo 2^256 such\\n            // that denominator * inv = 1 mod 2^256. Compute the inverse by starting with a seed that is correct for\\n            // four bits. That is, denominator * inv = 1 mod 2^4.\\n            uint256 inverse = (3 * denominator) ^ 2;\\n\\n            // Use the Newton-Raphson iteration to improve the precision. Thanks to Hensel's lifting lemma, this also\\n            // works in modular arithmetic, doubling the correct bits in each step.\\n            inverse *= 2 - denominator * inverse; // inverse mod 2^8\\n            inverse *= 2 - denominator * inverse; // inverse mod 2^16\\n            inverse *= 2 - denominator * inverse; // inverse mod 2^32\\n            inverse *= 2 - denominator * inverse; // inverse mod 2^64\\n            inverse *= 2 - denominator * inverse; // inverse mod 2^128\\n            inverse *= 2 - denominator * inverse; // inverse mod 2^256\\n\\n            // Because the division is now exact we can divide by multiplying with the modular inverse of denominator.\\n            // This will give us the correct result modulo 2^256. Since the preconditions guarantee that the outcome is\\n            // less than 2^256, this is the final result. We don't need to compute the high bits of the result and prod1\\n            // is no longer required.\\n            result = prod0 * inverse;\\n            return result;\\n        }\\n    }\\n\\n    /**\\n     * @notice Calculates x * y / denominator with full precision, following the selected rounding direction.\\n     */\\n    function mulDiv(uint256 x, uint256 y, uint256 denominator, Rounding rounding) internal pure returns (uint256) {\\n        uint256 result = mulDiv(x, y, denominator);\\n        if (unsignedRoundsUp(rounding) && mulmod(x, y, denominator) > 0) {\\n            result += 1;\\n        }\\n        return result;\\n    }\\n\\n    /**\\n     * @dev Returns the square root of a number. If the number is not a perfect square, the value is rounded\\n     * towards zero.\\n     *\\n     * Inspired by Henry S. Warren, Jr.'s \\\"Hacker's Delight\\\" (Chapter 11).\\n     */\\n    function sqrt(uint256 a) internal pure returns (uint256) {\\n        if (a == 0) {\\n            return 0;\\n        }\\n\\n        // For our first guess, we get the biggest power of 2 which is smaller than the square root of the target.\\n        //\\n        // We know that the \\\"msb\\\" (most significant bit) of our target number `a` is a power of 2 such that we have\\n        // `msb(a) <= a < 2*msb(a)`. This value can be written `msb(a)=2**k` with `k=log2(a)`.\\n        //\\n        // This can be rewritten `2**log2(a) <= a < 2**(log2(a) + 1)`\\n        //  `sqrt(2**k) <= sqrt(a) < sqrt(2**(k+1))`\\n        //  `2**(k/2) <= sqrt(a) < 2**((k+1)/2) <= 2**(k/2 + 1)`\\n        //\\n        // Consequently, `2**(log2(a) / 2)` is a good first approximation of `sqrt(a)` with at least 1 correct bit.\\n        uint256 result = 1 << (log2(a) >> 1);\\n\\n        // At this point `result` is an estimation with one bit of precision. We know the true value is a uint128,\\n        // since it is the square root of a uint256. Newton's method converges quadratically (precision doubles at\\n        // every iteration). We thus need at most 7 iteration to turn our partial result with one bit of precision\\n        // into the expected uint128 result.\\n        unchecked {\\n            result = (result + a / result) >> 1;\\n            result = (result + a / result) >> 1;\\n            result = (result + a / result) >> 1;\\n            result = (result + a / result) >> 1;\\n            result = (result + a / result) >> 1;\\n            result = (result + a / result) >> 1;\\n            result = (result + a / result) >> 1;\\n            return min(result, a / result);\\n        }\\n    }\\n\\n    /**\\n     * @notice Calculates sqrt(a), following the selected rounding direction.\\n     */\\n    function sqrt(uint256 a, Rounding rounding) internal pure returns (uint256) {\\n        unchecked {\\n            uint256 result = sqrt(a);\\n            return result + (unsignedRoundsUp(rounding) && result * result < a ? 1 : 0);\\n        }\\n    }\\n\\n    /**\\n     * @dev Return the log in base 2 of a positive value rounded towards zero.\\n     * Returns 0 if given 0.\\n     */\\n    function log2(uint256 value) internal pure returns (uint256) {\\n        uint256 result = 0;\\n        unchecked {\\n            if (value >> 128 > 0) {\\n                value >>= 128;\\n                result += 128;\\n            }\\n            if (value >> 64 > 0) {\\n                value >>= 64;\\n                result += 64;\\n            }\\n            if (value >> 32 > 0) {\\n                value >>= 32;\\n                result += 32;\\n            }\\n            if (value >> 16 > 0) {\\n                value >>= 16;\\n                result += 16;\\n            }\\n            if (value >> 8 > 0) {\\n                value >>= 8;\\n                result += 8;\\n            }\\n            if (value >> 4 > 0) {\\n                value >>= 4;\\n                result += 4;\\n            }\\n            if (value >> 2 > 0) {\\n                value >>= 2;\\n                result += 2;\\n            }\\n            if (value >> 1 > 0) {\\n                result += 1;\\n            }\\n        }\\n        return result;\\n    }\\n\\n    /**\\n     * @dev Return the log in base 2, following the selected rounding direction, of a positive value.\\n     * Returns 0 if given 0.\\n     */\\n    function log2(uint256 value, Rounding rounding) internal pure returns (uint256) {\\n        unchecked {\\n            uint256 result = log2(value);\\n            return result + (unsignedRoundsUp(rounding) && 1 << result < value ? 1 : 0);\\n        }\\n    }\\n\\n    /**\\n     * @dev Return the log in base 10 of a positive value rounded towards zero.\\n     * Returns 0 if given 0.\\n     */\\n    function log10(uint256 value) internal pure returns (uint256) {\\n        uint256 result = 0;\\n        unchecked {\\n            if (value >= 10 ** 64) {\\n                value /= 10 ** 64;\\n                result += 64;\\n            }\\n            if (value >= 10 ** 32) {\\n                value /= 10 ** 32;\\n                result += 32;\\n            }\\n            if (value >= 10 ** 16) {\\n                value /= 10 ** 16;\\n                result += 16;\\n            }\\n            if (value >= 10 ** 8) {\\n                value /= 10 ** 8;\\n                result += 8;\\n            }\\n            if (value >= 10 ** 4) {\\n                value /= 10 ** 4;\\n                result += 4;\\n            }\\n            if (value >= 10 ** 2) {\\n                value /= 10 ** 2;\\n                result += 2;\\n            }\\n            if (value >= 10 ** 1) {\\n                result += 1;\\n            }\\n        }\\n        return result;\\n    }\\n\\n    /**\\n     * @dev Return the log in base 10, following the selected rounding direction, of a positive value.\\n     * Returns 0 if given 0.\\n     */\\n    function log10(uint256 value, Rounding rounding) internal pure returns (uint256) {\\n        unchecked {\\n            uint256 result = log10(value);\\n            return result + (unsignedRoundsUp(rounding) && 10 ** result < value ? 1 : 0);\\n        }\\n    }\\n\\n    /**\\n     * @dev Return the log in base 256 of a positive value rounded towards zero.\\n     * Returns 0 if given 0.\\n     *\\n     * Adding one to the result gives the number of pairs of hex symbols needed to represent `value` as a hex string.\\n     */\\n    function log256(uint256 value) internal pure returns (uint256) {\\n        uint256 result = 0;\\n        unchecked {\\n            if (value >> 128 > 0) {\\n                value >>= 128;\\n                result += 16;\\n            }\\n            if (value >> 64 > 0) {\\n                value >>= 64;\\n                result += 8;\\n            }\\n            if (value >> 32 > 0) {\\n                value >>= 32;\\n                result += 4;\\n            }\\n            if (value >> 16 > 0) {\\n                value >>= 16;\\n                result += 2;\\n            }\\n            if (value >> 8 > 0) {\\n                result += 1;\\n            }\\n        }\\n        return result;\\n    }\\n\\n    /**\\n     * @dev Return the log in base 256, following the selected rounding direction, of a positive value.\\n     * Returns 0 if given 0.\\n     */\\n    function log256(uint256 value, Rounding rounding) internal pure returns (uint256) {\\n        unchecked {\\n            uint256 result = log256(value);\\n            return result + (unsignedRoundsUp(rounding) && 1 << (result << 3) < value ? 1 : 0);\\n        }\\n    }\\n\\n    /**\\n     * @dev Returns whether a provided rounding mode is considered rounding up for unsigned integers.\\n     */\\n    function unsignedRoundsUp(Rounding rounding) internal pure returns (bool) {\\n        return uint8(rounding) % 2 == 1;\\n    }\\n}\\n\"},\"@openzeppelin/contracts/utils/introspection/IERC165.sol\":{\"content\":\"// SPDX-License-Identifier: MIT\\n// OpenZeppelin Contracts (last updated v5.0.0) (utils/introspection/IERC165.sol)\\n\\npragma solidity ^0.8.20;\\n\\n/**\\n * @dev Interface of the ERC165 standard, as defined in the\\n * https://eips.ethereum.org/EIPS/eip-165[EIP].\\n *\\n * Implementers can declare support of contract interfaces, which can then be\\n * queried by others ({ERC165Checker}).\\n *\\n * For an implementation, see {ERC165}.\\n */\\ninterface IERC165 {\\n    /**\\n     * @dev Returns true if this contract implements the interface defined by\\n     * `interfaceId`. See the corresponding\\n     * https://eips.ethereum.org/EIPS/eip-165#how-interfaces-are-identified[EIP section]\\n     * to learn more about how these ids are created.\\n     *\\n     * This function call must use less than 30 000 gas.\\n     */\\n    function supportsInterface(bytes4 interfaceId) external view returns (bool);\\n}\\n\"},\"@openzeppelin/contracts/interfaces/IERC5267.sol\":{\"content\":\"// SPDX-License-Identifier: MIT\\n// OpenZeppelin Contracts (last updated v5.0.0) (interfaces/IERC5267.sol)\\n\\npragma solidity ^0.8.20;\\n\\ninterface IERC5267 {\\n    /**\\n     * @dev MAY be emitted to signal that the domain could have changed.\\n     */\\n    event EIP712DomainChanged();\\n\\n    /**\\n     * @dev returns the fields and values that describe the domain separator used by this contract for EIP-712\\n     * signature.\\n     */\\n    function eip712Domain()\\n        external\\n        view\\n        returns (\\n            bytes1 fields,\\n            string memory name,\\n            string memory version,\\n            uint256 chainId,\\n            address verifyingContract,\\n            bytes32 salt,\\n            uint256[] memory extensions\\n        );\\n}\\n\"},\"@openzeppelin/contracts/utils/cryptography/MessageHashUtils.sol\":{\"content\":\"// SPDX-License-Identifier: MIT\\n// OpenZeppelin Contracts (last updated v5.0.0) (utils/cryptography/MessageHashUtils.sol)\\n\\npragma solidity ^0.8.20;\\n\\nimport {Strings} from \\\"../Strings.sol\\\";\\n\\n/**\\n * @dev Signature message hash utilities for producing digests to be consumed by {ECDSA} recovery or signing.\\n *\\n * The library provides methods for generating a hash of a message that conforms to the\\n * https://eips.ethereum.org/EIPS/eip-191[EIP 191] and https://eips.ethereum.org/EIPS/eip-712[EIP 712]\\n * specifications.\\n */\\nlibrary MessageHashUtils {\\n    /**\\n     * @dev Returns the keccak256 digest of an EIP-191 signed data with version\\n     * `0x45` (`personal_sign` messages).\\n     *\\n     * The digest is calculated by prefixing a bytes32 `messageHash` with\\n     * `\\\"\\\\x19Ethereum Signed Message:\\\\n32\\\"` and hashing the result. It corresponds with the\\n     * hash signed when using the https://eth.wiki/json-rpc/API#eth_sign[`eth_sign`] JSON-RPC method.\\n     *\\n     * NOTE: The `messageHash` parameter is intended to be the result of hashing a raw message with\\n     * keccak256, although any bytes32 value can be safely used because the final digest will\\n     * be re-hashed.\\n     *\\n     * See {ECDSA-recover}.\\n     */\\n    function toEthSignedMessageHash(bytes32 messageHash) internal pure returns (bytes32 digest) {\\n        /// @solidity memory-safe-assembly\\n        assembly {\\n            mstore(0x00, \\\"\\\\x19Ethereum Signed Message:\\\\n32\\\") // 32 is the bytes-length of messageHash\\n            mstore(0x1c, messageHash) // 0x1c (28) is the length of the prefix\\n            digest := keccak256(0x00, 0x3c) // 0x3c is the length of the prefix (0x1c) + messageHash (0x20)\\n        }\\n    }\\n\\n    /**\\n     * @dev Returns the keccak256 digest of an EIP-191 signed data with version\\n     * `0x45` (`personal_sign` messages).\\n     *\\n     * The digest is calculated by prefixing an arbitrary `message` with\\n     * `\\\"\\\\x19Ethereum Signed Message:\\\\n\\\" + len(message)` and hashing the result. It corresponds with the\\n     * hash signed when using the https://eth.wiki/json-rpc/API#eth_sign[`eth_sign`] JSON-RPC method.\\n     *\\n     * See {ECDSA-recover}.\\n     */\\n    function toEthSignedMessageHash(bytes memory message) internal pure returns (bytes32) {\\n        return\\n            keccak256(bytes.concat(\\\"\\\\x19Ethereum Signed Message:\\\\n\\\", bytes(Strings.toString(message.length)), message));\\n    }\\n\\n    /**\\n     * @dev Returns the keccak256 digest of an EIP-191 signed data with version\\n     * `0x00` (data with intended validator).\\n     *\\n     * The digest is calculated by prefixing an arbitrary `data` with `\\\"\\\\x19\\\\x00\\\"` and the intended\\n     * `validator` address. Then hashing the result.\\n     *\\n     * See {ECDSA-recover}.\\n     */\\n    function toDataWithIntendedValidatorHash(address validator, bytes memory data) internal pure returns (bytes32) {\\n        return keccak256(abi.encodePacked(hex\\\"19_00\\\", validator, data));\\n    }\\n\\n    /**\\n     * @dev Returns the keccak256 digest of an EIP-712 typed data (EIP-191 version `0x01`).\\n     *\\n     * The digest is calculated from a `domainSeparator` and a `structHash`, by prefixing them with\\n     * `\\\\x19\\\\x01` and hashing the result. It corresponds to the hash signed by the\\n     * https://eips.ethereum.org/EIPS/eip-712[`eth_signTypedData`] JSON-RPC method as part of EIP-712.\\n     *\\n     * See {ECDSA-recover}.\\n     */\\n    function toTypedDataHash(bytes32 domainSeparator, bytes32 structHash) internal pure returns (bytes32 digest) {\\n        /// @solidity memory-safe-assembly\\n        assembly {\\n            let ptr := mload(0x40)\\n            mstore(ptr, hex\\\"19_01\\\")\\n            mstore(add(ptr, 0x02), domainSeparator)\\n            mstore(add(ptr, 0x22), structHash)\\n            digest := keccak256(ptr, 0x42)\\n        }\\n    }\\n}\\n\"},\"@openzeppelin/contracts/utils/types/Time.sol\":{\"content\":\"// SPDX-License-Identifier: MIT\\n// OpenZeppelin Contracts (last updated v5.0.0) (utils/types/Time.sol)\\n\\npragma solidity ^0.8.20;\\n\\nimport {Math} from \\\"../math/Math.sol\\\";\\nimport {SafeCast} from \\\"../math/SafeCast.sol\\\";\\n\\n/**\\n * @dev This library provides helpers for manipulating time-related objects.\\n *\\n * It uses the following types:\\n * - `uint48` for timepoints\\n * - `uint32` for durations\\n *\\n * While the library doesn't provide specific types for timepoints and duration, it does provide:\\n * - a `Delay` type to represent duration that can be programmed to change value automatically at a given point\\n * - additional helper functions\\n */\\nlibrary Time {\\n    using Time for *;\\n\\n    /**\\n     * @dev Get the block timestamp as a Timepoint.\\n     */\\n    function timestamp() internal view returns (uint48) {\\n        return SafeCast.toUint48(block.timestamp);\\n    }\\n\\n    /**\\n     * @dev Get the block number as a Timepoint.\\n     */\\n    function blockNumber() internal view returns (uint48) {\\n        return SafeCast.toUint48(block.number);\\n    }\\n\\n    // ==================================================== Delay =====================================================\\n    /**\\n     * @dev A `Delay` is a uint32 duration that can be programmed to change value automatically at a given point in the\\n     * future. The \\\"effect\\\" timepoint describes when the transitions happens from the \\\"old\\\" value to the \\\"new\\\" value.\\n     * This allows updating the delay applied to some operation while keeping some guarantees.\\n     *\\n     * In particular, the {update} function guarantees that if the delay is reduced, the old delay still applies for\\n     * some time. For example if the delay is currently 7 days to do an upgrade, the admin should not be able to set\\n     * the delay to 0 and upgrade immediately. If the admin wants to reduce the delay, the old delay (7 days) should\\n     * still apply for some time.\\n     *\\n     *\\n     * The `Delay` type is 112 bits long, and packs the following:\\n     *\\n     * ```\\n     *   | [uint48]: effect date (timepoint)\\n     *   |           | [uint32]: value before (duration)\\n     *                      [uint32]: value after (duration)\\n     * 0xAAAAAAAAAAAABBBBBBBBCCCCCCCC\\n     * ```\\n     *\\n     * NOTE: The {get} and {withUpdate} functions operate using timestamps. Block number based delays are not currently\\n     * supported.\\n     */\\n    type Delay is uint112;\\n\\n    /**\\n     * @dev Wrap a duration into a Delay to add the one-step \\\"update in the future\\\" feature\\n     */\\n    function toDelay(uint32 duration) internal pure returns (Delay) {\\n        return Delay.wrap(duration);\\n    }\\n\\n    /**\\n     * @dev Get the value at a given timepoint plus the pending value and effect timepoint if there is a scheduled\\n     * change after this timepoint. If the effect timepoint is 0, then the pending value should not be considered.\\n     */\\n    function _getFullAt(Delay self, uint48 timepoint) private pure returns (uint32, uint32, uint48) {\\n        (uint32 valueBefore, uint32 valueAfter, uint48 effect) = self.unpack();\\n        return effect <= timepoint ? (valueAfter, 0, 0) : (valueBefore, valueAfter, effect);\\n    }\\n\\n    /**\\n     * @dev Get the current value plus the pending value and effect timepoint if there is a scheduled change. If the\\n     * effect timepoint is 0, then the pending value should not be considered.\\n     */\\n    function getFull(Delay self) internal view returns (uint32, uint32, uint48) {\\n        return _getFullAt(self, timestamp());\\n    }\\n\\n    /**\\n     * @dev Get the current value.\\n     */\\n    function get(Delay self) internal view returns (uint32) {\\n        (uint32 delay, , ) = self.getFull();\\n        return delay;\\n    }\\n\\n    /**\\n     * @dev Update a Delay object so that it takes a new duration after a timepoint that is automatically computed to\\n     * enforce the old delay at the moment of the update. Returns the updated Delay object and the timestamp when the\\n     * new delay becomes effective.\\n     */\\n    function withUpdate(\\n        Delay self,\\n        uint32 newValue,\\n        uint32 minSetback\\n    ) internal view returns (Delay updatedDelay, uint48 effect) {\\n        uint32 value = self.get();\\n        uint32 setback = uint32(Math.max(minSetback, value > newValue ? value - newValue : 0));\\n        effect = timestamp() + setback;\\n        return (pack(value, newValue, effect), effect);\\n    }\\n\\n    /**\\n     * @dev Split a delay into its components: valueBefore, valueAfter and effect (transition timepoint).\\n     */\\n    function unpack(Delay self) internal pure returns (uint32 valueBefore, uint32 valueAfter, uint48 effect) {\\n        uint112 raw = Delay.unwrap(self);\\n\\n        valueAfter = uint32(raw);\\n        valueBefore = uint32(raw >> 32);\\n        effect = uint48(raw >> 64);\\n\\n        return (valueBefore, valueAfter, effect);\\n    }\\n\\n    /**\\n     * @dev pack the components into a Delay object.\\n     */\\n    function pack(uint32 valueBefore, uint32 valueAfter, uint48 effect) internal pure returns (Delay) {\\n        return Delay.wrap((uint112(effect) << 64) | (uint112(valueBefore) << 32) | uint112(valueAfter));\\n    }\\n}\\n\"},\"@openzeppelin/contracts/utils/math/SafeCast.sol\":{\"content\":\"// SPDX-License-Identifier: MIT\\n// OpenZeppelin Contracts (last updated v5.0.0) (utils/math/SafeCast.sol)\\n// This file was procedurally generated from scripts/generate/templates/SafeCast.js.\\n\\npragma solidity ^0.8.20;\\n\\n/**\\n * @dev Wrappers over Solidity's uintXX/intXX casting operators with added overflow\\n * checks.\\n *\\n * Downcasting from uint256/int256 in Solidity does not revert on overflow. This can\\n * easily result in undesired exploitation or bugs, since developers usually\\n * assume that overflows raise errors. `SafeCast` restores this intuition by\\n * reverting the transaction when such an operation overflows.\\n *\\n * Using this library instead of the unchecked operations eliminates an entire\\n * class of bugs, so it's recommended to use it always.\\n */\\nlibrary SafeCast {\\n    /**\\n     * @dev Value doesn't fit in an uint of `bits` size.\\n     */\\n    error SafeCastOverflowedUintDowncast(uint8 bits, uint256 value);\\n\\n    /**\\n     * @dev An int value doesn't fit in an uint of `bits` size.\\n     */\\n    error SafeCastOverflowedIntToUint(int256 value);\\n\\n    /**\\n     * @dev Value doesn't fit in an int of `bits` size.\\n     */\\n    error SafeCastOverflowedIntDowncast(uint8 bits, int256 value);\\n\\n    /**\\n     * @dev An uint value doesn't fit in an int of `bits` size.\\n     */\\n    error SafeCastOverflowedUintToInt(uint256 value);\\n\\n    /**\\n     * @dev Returns the downcasted uint248 from uint256, reverting on\\n     * overflow (when the input is greater than largest uint248).\\n     *\\n     * Counterpart to Solidity's `uint248` operator.\\n     *\\n     * Requirements:\\n     *\\n     * - input must fit into 248 bits\\n     */\\n    function toUint248(uint256 value) internal pure returns (uint248) {\\n        if (value > type(uint248).max) {\\n            revert SafeCastOverflowedUintDowncast(248, value);\\n        }\\n        return uint248(value);\\n    }\\n\\n    /**\\n     * @dev Returns the downcasted uint240 from uint256, reverting on\\n     * overflow (when the input is greater than largest uint240).\\n     *\\n     * Counterpart to Solidity's `uint240` operator.\\n     *\\n     * Requirements:\\n     *\\n     * - input must fit into 240 bits\\n     */\\n    function toUint240(uint256 value) internal pure returns (uint240) {\\n        if (value > type(uint240).max) {\\n            revert SafeCastOverflowedUintDowncast(240, value);\\n        }\\n        return uint240(value);\\n    }\\n\\n    /**\\n     * @dev Returns the downcasted uint232 from uint256, reverting on\\n     * overflow (when the input is greater than largest uint232).\\n     *\\n     * Counterpart to Solidity's `uint232` operator.\\n     *\\n     * Requirements:\\n     *\\n     * - input must fit into 232 bits\\n     */\\n    function toUint232(uint256 value) internal pure returns (uint232) {\\n        if (value > type(uint232).max) {\\n            revert SafeCastOverflowedUintDowncast(232, value);\\n        }\\n        return uint232(value);\\n    }\\n\\n    /**\\n     * @dev Returns the downcasted uint224 from uint256, reverting on\\n     * overflow (when the input is greater than largest uint224).\\n     *\\n     * Counterpart to Solidity's `uint224` operator.\\n     *\\n     * Requirements:\\n     *\\n     * - input must fit into 224 bits\\n     */\\n    function toUint224(uint256 value) internal pure returns (uint224) {\\n        if (value > type(uint224).max) {\\n            revert SafeCastOverflowedUintDowncast(224, value);\\n        }\\n        return uint224(value);\\n    }\\n\\n    /**\\n     * @dev Returns the downcasted uint216 from uint256, reverting on\\n     * overflow (when the input is greater than largest uint216).\\n     *\\n     * Counterpart to Solidity's `uint216` operator.\\n     *\\n     * Requirements:\\n     *\\n     * - input must fit into 216 bits\\n     */\\n    function toUint216(uint256 value) internal pure returns (uint216) {\\n        if (value > type(uint216).max) {\\n            revert SafeCastOverflowedUintDowncast(216, value);\\n        }\\n        return uint216(value);\\n    }\\n\\n    /**\\n     * @dev Returns the downcasted uint208 from uint256, reverting on\\n     * overflow (when the input is greater than largest uint208).\\n     *\\n     * Counterpart to Solidity's `uint208` operator.\\n     *\\n     * Requirements:\\n     *\\n     * - input must fit into 208 bits\\n     */\\n    function toUint208(uint256 value) internal pure returns (uint208) {\\n        if (value > type(uint208).max) {\\n            revert SafeCastOverflowedUintDowncast(208, value);\\n        }\\n        return uint208(value);\\n    }\\n\\n    /**\\n     * @dev Returns the downcasted uint200 from uint256, reverting on\\n     * overflow (when the input is greater than largest uint200).\\n     *\\n     * Counterpart to Solidity's `uint200` operator.\\n     *\\n     * Requirements:\\n     *\\n     * - input must fit into 200 bits\\n     */\\n    function toUint200(uint256 value) internal pure returns (uint200) {\\n        if (value > type(uint200).max) {\\n            revert SafeCastOverflowedUintDowncast(200, value);\\n        }\\n        return uint200(value);\\n    }\\n\\n    /**\\n     * @dev Returns the downcasted uint192 from uint256, reverting on\\n     * overflow (when the input is greater than largest uint192).\\n     *\\n     * Counterpart to Solidity's `uint192` operator.\\n     *\\n     * Requirements:\\n     *\\n     * - input must fit into 192 bits\\n     */\\n    function toUint192(uint256 value) internal pure returns (uint192) {\\n        if (value > type(uint192).max) {\\n            revert SafeCastOverflowedUintDowncast(192, value);\\n        }\\n        return uint192(value);\\n    }\\n\\n    /**\\n     * @dev Returns the downcasted uint184 from uint256, reverting on\\n     * overflow (when the input is greater than largest uint184).\\n     *\\n     * Counterpart to Solidity's `uint184` operator.\\n     *\\n     * Requirements:\\n     *\\n     * - input must fit into 184 bits\\n     */\\n    function toUint184(uint256 value) internal pure returns (uint184) {\\n        if (value > type(uint184).max) {\\n            revert SafeCastOverflowedUintDowncast(184, value);\\n        }\\n        return uint184(value);\\n    }\\n\\n    /**\\n     * @dev Returns the downcasted uint176 from uint256, reverting on\\n     * overflow (when the input is greater than largest uint176).\\n     *\\n     * Counterpart to Solidity's `uint176` operator.\\n     *\\n     * Requirements:\\n     *\\n     * - input must fit into 176 bits\\n     */\\n    function toUint176(uint256 value) internal pure returns (uint176) {\\n        if (value > type(uint176).max) {\\n            revert SafeCastOverflowedUintDowncast(176, value);\\n        }\\n        return uint176(value);\\n    }\\n\\n    /**\\n     * @dev Returns the downcasted uint168 from uint256, reverting on\\n     * overflow (when the input is greater than largest uint168).\\n     *\\n     * Counterpart to Solidity's `uint168` operator.\\n     *\\n     * Requirements:\\n     *\\n     * - input must fit into 168 bits\\n     */\\n    function toUint168(uint256 value) internal pure returns (uint168) {\\n        if (value > type(uint168).max) {\\n            revert SafeCastOverflowedUintDowncast(168, value);\\n        }\\n        return uint168(value);\\n    }\\n\\n    /**\\n     * @dev Returns the downcasted uint160 from uint256, reverting on\\n     * overflow (when the input is greater than largest uint160).\\n     *\\n     * Counterpart to Solidity's `uint160` operator.\\n     *\\n     * Requirements:\\n     *\\n     * - input must fit into 160 bits\\n     */\\n    function toUint160(uint256 value) internal pure returns (uint160) {\\n        if (value > type(uint160).max) {\\n            revert SafeCastOverflowedUintDowncast(160, value);\\n        }\\n        return uint160(value);\\n    }\\n\\n    /**\\n     * @dev Returns the downcasted uint152 from uint256, reverting on\\n     * overflow (when the input is greater than largest uint152).\\n     *\\n     * Counterpart to Solidity's `uint152` operator.\\n     *\\n     * Requirements:\\n     *\\n     * - input must fit into 152 bits\\n     */\\n    function toUint152(uint256 value) internal pure returns (uint152) {\\n        if (value > type(uint152).max) {\\n            revert SafeCastOverflowedUintDowncast(152, value);\\n        }\\n        return uint152(value);\\n    }\\n\\n    /**\\n     * @dev Returns the downcasted uint144 from uint256, reverting on\\n     * overflow (when the input is greater than largest uint144).\\n     *\\n     * Counterpart to Solidity's `uint144` operator.\\n     *\\n     * Requirements:\\n     *\\n     * - input must fit into 144 bits\\n     */\\n    function toUint144(uint256 value) internal pure returns (uint144) {\\n        if (value > type(uint144).max) {\\n            revert SafeCastOverflowedUintDowncast(144, value);\\n        }\\n        return uint144(value);\\n    }\\n\\n    /**\\n     * @dev Returns the downcasted uint136 from uint256, reverting on\\n     * overflow (when the input is greater than largest uint136).\\n     *\\n     * Counterpart to Solidity's `uint136` operator.\\n     *\\n     * Requirements:\\n     *\\n     * - input must fit into 136 bits\\n     */\\n    function toUint136(uint256 value) internal pure returns (uint136) {\\n        if (value > type(uint136).max) {\\n            revert SafeCastOverflowedUintDowncast(136, value);\\n        }\\n        return uint136(value);\\n    }\\n\\n    /**\\n     * @dev Returns the downcasted uint128 from uint256, reverting on\\n     * overflow (when the input is greater than largest uint128).\\n     *\\n     * Counterpart to Solidity's `uint128` operator.\\n     *\\n     * Requirements:\\n     *\\n     * - input must fit into 128 bits\\n     */\\n    function toUint128(uint256 value) internal pure returns (uint128) {\\n        if (value > type(uint128).max) {\\n            revert SafeCastOverflowedUintDowncast(128, value);\\n        }\\n        return uint128(value);\\n    }\\n\\n    /**\\n     * @dev Returns the downcasted uint120 from uint256, reverting on\\n     * overflow (when the input is greater than largest uint120).\\n     *\\n     * Counterpart to Solidity's `uint120` operator.\\n     *\\n     * Requirements:\\n     *\\n     * - input must fit into 120 bits\\n     */\\n    function toUint120(uint256 value) internal pure returns (uint120) {\\n        if (value > type(uint120).max) {\\n            revert SafeCastOverflowedUintDowncast(120, value);\\n        }\\n        return uint120(value);\\n    }\\n\\n    /**\\n     * @dev Returns the downcasted uint112 from uint256, reverting on\\n     * overflow (when the input is greater than largest uint112).\\n     *\\n     * Counterpart to Solidity's `uint112` operator.\\n     *\\n     * Requirements:\\n     *\\n     * - input must fit into 112 bits\\n     */\\n    function toUint112(uint256 value) internal pure returns (uint112) {\\n        if (value > type(uint112).max) {\\n            revert SafeCastOverflowedUintDowncast(112, value);\\n        }\\n        return uint112(value);\\n    }\\n\\n    /**\\n     * @dev Returns the downcasted uint104 from uint256, reverting on\\n     * overflow (when the input is greater than largest uint104).\\n     *\\n     * Counterpart to Solidity's `uint104` operator.\\n     *\\n     * Requirements:\\n     *\\n     * - input must fit into 104 bits\\n     */\\n    function toUint104(uint256 value) internal pure returns (uint104) {\\n        if (value > type(uint104).max) {\\n            revert SafeCastOverflowedUintDowncast(104, value);\\n        }\\n        return uint104(value);\\n    }\\n\\n    /**\\n     * @dev Returns the downcasted uint96 from uint256, reverting on\\n     * overflow (when the input is greater than largest uint96).\\n     *\\n     * Counterpart to Solidity's `uint96` operator.\\n     *\\n     * Requirements:\\n     *\\n     * - input must fit into 96 bits\\n     */\\n    function toUint96(uint256 value) internal pure returns (uint96) {\\n        if (value > type(uint96).max) {\\n            revert SafeCastOverflowedUintDowncast(96, value);\\n        }\\n        return uint96(value);\\n    }\\n\\n    /**\\n     * @dev Returns the downcasted uint88 from uint256, reverting on\\n     * overflow (when the input is greater than largest uint88).\\n     *\\n     * Counterpart to Solidity's `uint88` operator.\\n     *\\n     * Requirements:\\n     *\\n     * - input must fit into 88 bits\\n     */\\n    function toUint88(uint256 value) internal pure returns (uint88) {\\n        if (value > type(uint88).max) {\\n            revert SafeCastOverflowedUintDowncast(88, value);\\n        }\\n        return uint88(value);\\n    }\\n\\n    /**\\n     * @dev Returns the downcasted uint80 from uint256, reverting on\\n     * overflow (when the input is greater than largest uint80).\\n     *\\n     * Counterpart to Solidity's `uint80` operator.\\n     *\\n     * Requirements:\\n     *\\n     * - input must fit into 80 bits\\n     */\\n    function toUint80(uint256 value) internal pure returns (uint80) {\\n        if (value > type(uint80).max) {\\n            revert SafeCastOverflowedUintDowncast(80, value);\\n        }\\n        return uint80(value);\\n    }\\n\\n    /**\\n     * @dev Returns the downcasted uint72 from uint256, reverting on\\n     * overflow (when the input is greater than largest uint72).\\n     *\\n     * Counterpart to Solidity's `uint72` operator.\\n     *\\n     * Requirements:\\n     *\\n     * - input must fit into 72 bits\\n     */\\n    function toUint72(uint256 value) internal pure returns (uint72) {\\n        if (value > type(uint72).max) {\\n            revert SafeCastOverflowedUintDowncast(72, value);\\n        }\\n        return uint72(value);\\n    }\\n\\n    /**\\n     * @dev Returns the downcasted uint64 from uint256, reverting on\\n     * overflow (when the input is greater than largest uint64).\\n     *\\n     * Counterpart to Solidity's `uint64` operator.\\n     *\\n     * Requirements:\\n     *\\n     * - input must fit into 64 bits\\n     */\\n    function toUint64(uint256 value) internal pure returns (uint64) {\\n        if (value > type(uint64).max) {\\n            revert SafeCastOverflowedUintDowncast(64, value);\\n        }\\n        return uint64(value);\\n    }\\n\\n    /**\\n     * @dev Returns the downcasted uint56 from uint256, reverting on\\n     * overflow (when the input is greater than largest uint56).\\n     *\\n     * Counterpart to Solidity's `uint56` operator.\\n     *\\n     * Requirements:\\n     *\\n     * - input must fit into 56 bits\\n     */\\n    function toUint56(uint256 value) internal pure returns (uint56) {\\n        if (value > type(uint56).max) {\\n            revert SafeCastOverflowedUintDowncast(56, value);\\n        }\\n        return uint56(value);\\n    }\\n\\n    /**\\n     * @dev Returns the downcasted uint48 from uint256, reverting on\\n     * overflow (when the input is greater than largest uint48).\\n     *\\n     * Counterpart to Solidity's `uint48` operator.\\n     *\\n     * Requirements:\\n     *\\n     * - input must fit into 48 bits\\n     */\\n    function toUint48(uint256 value) internal pure returns (uint48) {\\n        if (value > type(uint48).max) {\\n            revert SafeCastOverflowedUintDowncast(48, value);\\n        }\\n        return uint48(value);\\n    }\\n\\n    /**\\n     * @dev Returns the downcasted uint40 from uint256, reverting on\\n     * overflow (when the input is greater than largest uint40).\\n     *\\n     * Counterpart to Solidity's `uint40` operator.\\n     *\\n     * Requirements:\\n     *\\n     * - input must fit into 40 bits\\n     */\\n    function toUint40(uint256 value) internal pure returns (uint40) {\\n        if (value > type(uint40).max) {\\n            revert SafeCastOverflowedUintDowncast(40, value);\\n        }\\n        return uint40(value);\\n    }\\n\\n    /**\\n     * @dev Returns the downcasted uint32 from uint256, reverting on\\n     * overflow (when the input is greater than largest uint32).\\n     *\\n     * Counterpart to Solidity's `uint32` operator.\\n     *\\n     * Requirements:\\n     *\\n     * - input must fit into 32 bits\\n     */\\n    function toUint32(uint256 value) internal pure returns (uint32) {\\n        if (value > type(uint32).max) {\\n            revert SafeCastOverflowedUintDowncast(32, value);\\n        }\\n        return uint32(value);\\n    }\\n\\n    /**\\n     * @dev Returns the downcasted uint24 from uint256, reverting on\\n     * overflow (when the input is greater than largest uint24).\\n     *\\n     * Counterpart to Solidity's `uint24` operator.\\n     *\\n     * Requirements:\\n     *\\n     * - input must fit into 24 bits\\n     */\\n    function toUint24(uint256 value) internal pure returns (uint24) {\\n        if (value > type(uint24).max) {\\n            revert SafeCastOverflowedUintDowncast(24, value);\\n        }\\n        return uint24(value);\\n    }\\n\\n    /**\\n     * @dev Returns the downcasted uint16 from uint256, reverting on\\n     * overflow (when the input is greater than largest uint16).\\n     *\\n     * Counterpart to Solidity's `uint16` operator.\\n     *\\n     * Requirements:\\n     *\\n     * - input must fit into 16 bits\\n     */\\n    function toUint16(uint256 value) internal pure returns (uint16) {\\n        if (value > type(uint16).max) {\\n            revert SafeCastOverflowedUintDowncast(16, value);\\n        }\\n        return uint16(value);\\n    }\\n\\n    /**\\n     * @dev Returns the downcasted uint8 from uint256, reverting on\\n     * overflow (when the input is greater than largest uint8).\\n     *\\n     * Counterpart to Solidity's `uint8` operator.\\n     *\\n     * Requirements:\\n     *\\n     * - input must fit into 8 bits\\n     */\\n    function toUint8(uint256 value) internal pure returns (uint8) {\\n        if (value > type(uint8).max) {\\n            revert SafeCastOverflowedUintDowncast(8, value);\\n        }\\n        return uint8(value);\\n    }\\n\\n    /**\\n     * @dev Converts a signed int256 into an unsigned uint256.\\n     *\\n     * Requirements:\\n     *\\n     * - input must be greater than or equal to 0.\\n     */\\n    function toUint256(int256 value) internal pure returns (uint256) {\\n        if (value < 0) {\\n            revert SafeCastOverflowedIntToUint(value);\\n        }\\n        return uint256(value);\\n    }\\n\\n    /**\\n     * @dev Returns the downcasted int248 from int256, reverting on\\n     * overflow (when the input is less than smallest int248 or\\n     * greater than largest int248).\\n     *\\n     * Counterpart to Solidity's `int248` operator.\\n     *\\n     * Requirements:\\n     *\\n     * - input must fit into 248 bits\\n     */\\n    function toInt248(int256 value) internal pure returns (int248 downcasted) {\\n        downcasted = int248(value);\\n        if (downcasted != value) {\\n            revert SafeCastOverflowedIntDowncast(248, value);\\n        }\\n    }\\n\\n    /**\\n     * @dev Returns the downcasted int240 from int256, reverting on\\n     * overflow (when the input is less than smallest int240 or\\n     * greater than largest int240).\\n     *\\n     * Counterpart to Solidity's `int240` operator.\\n     *\\n     * Requirements:\\n     *\\n     * - input must fit into 240 bits\\n     */\\n    function toInt240(int256 value) internal pure returns (int240 downcasted) {\\n        downcasted = int240(value);\\n        if (downcasted != value) {\\n            revert SafeCastOverflowedIntDowncast(240, value);\\n        }\\n    }\\n\\n    /**\\n     * @dev Returns the downcasted int232 from int256, reverting on\\n     * overflow (when the input is less than smallest int232 or\\n     * greater than largest int232).\\n     *\\n     * Counterpart to Solidity's `int232` operator.\\n     *\\n     * Requirements:\\n     *\\n     * - input must fit into 232 bits\\n     */\\n    function toInt232(int256 value) internal pure returns (int232 downcasted) {\\n        downcasted = int232(value);\\n        if (downcasted != value) {\\n            revert SafeCastOverflowedIntDowncast(232, value);\\n        }\\n    }\\n\\n    /**\\n     * @dev Returns the downcasted int224 from int256, reverting on\\n     * overflow (when the input is less than smallest int224 or\\n     * greater than largest int224).\\n     *\\n     * Counterpart to Solidity's `int224` operator.\\n     *\\n     * Requirements:\\n     *\\n     * - input must fit into 224 bits\\n     */\\n    function toInt224(int256 value) internal pure returns (int224 downcasted) {\\n        downcasted = int224(value);\\n        if (downcasted != value) {\\n            revert SafeCastOverflowedIntDowncast(224, value);\\n        }\\n    }\\n\\n    /**\\n     * @dev Returns the downcasted int216 from int256, reverting on\\n     * overflow (when the input is less than smallest int216 or\\n     * greater than largest int216).\\n     *\\n     * Counterpart to Solidity's `int216` operator.\\n     *\\n     * Requirements:\\n     *\\n     * - input must fit into 216 bits\\n     */\\n    function toInt216(int256 value) internal pure returns (int216 downcasted) {\\n        downcasted = int216(value);\\n        if (downcasted != value) {\\n            revert SafeCastOverflowedIntDowncast(216, value);\\n        }\\n    }\\n\\n    /**\\n     * @dev Returns the downcasted int208 from int256, reverting on\\n     * overflow (when the input is less than smallest int208 or\\n     * greater than largest int208).\\n     *\\n     * Counterpart to Solidity's `int208` operator.\\n     *\\n     * Requirements:\\n     *\\n     * - input must fit into 208 bits\\n     */\\n    function toInt208(int256 value) internal pure returns (int208 downcasted) {\\n        downcasted = int208(value);\\n        if (downcasted != value) {\\n            revert SafeCastOverflowedIntDowncast(208, value);\\n        }\\n    }\\n\\n    /**\\n     * @dev Returns the downcasted int200 from int256, reverting on\\n     * overflow (when the input is less than smallest int200 or\\n     * greater than largest int200).\\n     *\\n     * Counterpart to Solidity's `int200` operator.\\n     *\\n     * Requirements:\\n     *\\n     * - input must fit into 200 bits\\n     */\\n    function toInt200(int256 value) internal pure returns (int200 downcasted) {\\n        downcasted = int200(value);\\n        if (downcasted != value) {\\n            revert SafeCastOverflowedIntDowncast(200, value);\\n        }\\n    }\\n\\n    /**\\n     * @dev Returns the downcasted int192 from int256, reverting on\\n     * overflow (when the input is less than smallest int192 or\\n     * greater than largest int192).\\n     *\\n     * Counterpart to Solidity's `int192` operator.\\n     *\\n     * Requirements:\\n     *\\n     * - input must fit into 192 bits\\n     */\\n    function toInt192(int256 value) internal pure returns (int192 downcasted) {\\n        downcasted = int192(value);\\n        if (downcasted != value) {\\n            revert SafeCastOverflowedIntDowncast(192, value);\\n        }\\n    }\\n\\n    /**\\n     * @dev Returns the downcasted int184 from int256, reverting on\\n     * overflow (when the input is less than smallest int184 or\\n     * greater than largest int184).\\n     *\\n     * Counterpart to Solidity's `int184` operator.\\n     *\\n     * Requirements:\\n     *\\n     * - input must fit into 184 bits\\n     */\\n    function toInt184(int256 value) internal pure returns (int184 downcasted) {\\n        downcasted = int184(value);\\n        if (downcasted != value) {\\n            revert SafeCastOverflowedIntDowncast(184, value);\\n        }\\n    }\\n\\n    /**\\n     * @dev Returns the downcasted int176 from int256, reverting on\\n     * overflow (when the input is less than smallest int176 or\\n     * greater than largest int176).\\n     *\\n     * Counterpart to Solidity's `int176` operator.\\n     *\\n     * Requirements:\\n     *\\n     * - input must fit into 176 bits\\n     */\\n    function toInt176(int256 value) internal pure returns (int176 downcasted) {\\n        downcasted = int176(value);\\n        if (downcasted != value) {\\n            revert SafeCastOverflowedIntDowncast(176, value);\\n        }\\n    }\\n\\n    /**\\n     * @dev Returns the downcasted int168 from int256, reverting on\\n     * overflow (when the input is less than smallest int168 or\\n     * greater than largest int168).\\n     *\\n     * Counterpart to Solidity's `int168` operator.\\n     *\\n     * Requirements:\\n     *\\n     * - input must fit into 168 bits\\n     */\\n    function toInt168(int256 value) internal pure returns (int168 downcasted) {\\n        downcasted = int168(value);\\n        if (downcasted != value) {\\n            revert SafeCastOverflowedIntDowncast(168, value);\\n        }\\n    }\\n\\n    /**\\n     * @dev Returns the downcasted int160 from int256, reverting on\\n     * overflow (when the input is less than smallest int160 or\\n     * greater than largest int160).\\n     *\\n     * Counterpart to Solidity's `int160` operator.\\n     *\\n     * Requirements:\\n     *\\n     * - input must fit into 160 bits\\n     */\\n    function toInt160(int256 value) internal pure returns (int160 downcasted) {\\n        downcasted = int160(value);\\n        if (downcasted != value) {\\n            revert SafeCastOverflowedIntDowncast(160, value);\\n        }\\n    }\\n\\n    /**\\n     * @dev Returns the downcasted int152 from int256, reverting on\\n     * overflow (when the input is less than smallest int152 or\\n     * greater than largest int152).\\n     *\\n     * Counterpart to Solidity's `int152` operator.\\n     *\\n     * Requirements:\\n     *\\n     * - input must fit into 152 bits\\n     */\\n    function toInt152(int256 value) internal pure returns (int152 downcasted) {\\n        downcasted = int152(value);\\n        if (downcasted != value) {\\n            revert SafeCastOverflowedIntDowncast(152, value);\\n        }\\n    }\\n\\n    /**\\n     * @dev Returns the downcasted int144 from int256, reverting on\\n     * overflow (when the input is less than smallest int144 or\\n     * greater than largest int144).\\n     *\\n     * Counterpart to Solidity's `int144` operator.\\n     *\\n     * Requirements:\\n     *\\n     * - input must fit into 144 bits\\n     */\\n    function toInt144(int256 value) internal pure returns (int144 downcasted) {\\n        downcasted = int144(value);\\n        if (downcasted != value) {\\n            revert SafeCastOverflowedIntDowncast(144, value);\\n        }\\n    }\\n\\n    /**\\n     * @dev Returns the downcasted int136 from int256, reverting on\\n     * overflow (when the input is less than smallest int136 or\\n     * greater than largest int136).\\n     *\\n     * Counterpart to Solidity's `int136` operator.\\n     *\\n     * Requirements:\\n     *\\n     * - input must fit into 136 bits\\n     */\\n    function toInt136(int256 value) internal pure returns (int136 downcasted) {\\n        downcasted = int136(value);\\n        if (downcasted != value) {\\n            revert SafeCastOverflowedIntDowncast(136, value);\\n        }\\n    }\\n\\n    /**\\n     * @dev Returns the downcasted int128 from int256, reverting on\\n     * overflow (when the input is less than smallest int128 or\\n     * greater than largest int128).\\n     *\\n     * Counterpart to Solidity's `int128` operator.\\n     *\\n     * Requirements:\\n     *\\n     * - input must fit into 128 bits\\n     */\\n    function toInt128(int256 value) internal pure returns (int128 downcasted) {\\n        downcasted = int128(value);\\n        if (downcasted != value) {\\n            revert SafeCastOverflowedIntDowncast(128, value);\\n        }\\n    }\\n\\n    /**\\n     * @dev Returns the downcasted int120 from int256, reverting on\\n     * overflow (when the input is less than smallest int120 or\\n     * greater than largest int120).\\n     *\\n     * Counterpart to Solidity's `int120` operator.\\n     *\\n     * Requirements:\\n     *\\n     * - input must fit into 120 bits\\n     */\\n    function toInt120(int256 value) internal pure returns (int120 downcasted) {\\n        downcasted = int120(value);\\n        if (downcasted != value) {\\n            revert SafeCastOverflowedIntDowncast(120, value);\\n        }\\n    }\\n\\n    /**\\n     * @dev Returns the downcasted int112 from int256, reverting on\\n     * overflow (when the input is less than smallest int112 or\\n     * greater than largest int112).\\n     *\\n     * Counterpart to Solidity's `int112` operator.\\n     *\\n     * Requirements:\\n     *\\n     * - input must fit into 112 bits\\n     */\\n    function toInt112(int256 value) internal pure returns (int112 downcasted) {\\n        downcasted = int112(value);\\n        if (downcasted != value) {\\n            revert SafeCastOverflowedIntDowncast(112, value);\\n        }\\n    }\\n\\n    /**\\n     * @dev Returns the downcasted int104 from int256, reverting on\\n     * overflow (when the input is less than smallest int104 or\\n     * greater than largest int104).\\n     *\\n     * Counterpart to Solidity's `int104` operator.\\n     *\\n     * Requirements:\\n     *\\n     * - input must fit into 104 bits\\n     */\\n    function toInt104(int256 value) internal pure returns (int104 downcasted) {\\n        downcasted = int104(value);\\n        if (downcasted != value) {\\n            revert SafeCastOverflowedIntDowncast(104, value);\\n        }\\n    }\\n\\n    /**\\n     * @dev Returns the downcasted int96 from int256, reverting on\\n     * overflow (when the input is less than smallest int96 or\\n     * greater than largest int96).\\n     *\\n     * Counterpart to Solidity's `int96` operator.\\n     *\\n     * Requirements:\\n     *\\n     * - input must fit into 96 bits\\n     */\\n    function toInt96(int256 value) internal pure returns (int96 downcasted) {\\n        downcasted = int96(value);\\n        if (downcasted != value) {\\n            revert SafeCastOverflowedIntDowncast(96, value);\\n        }\\n    }\\n\\n    /**\\n     * @dev Returns the downcasted int88 from int256, reverting on\\n     * overflow (when the input is less than smallest int88 or\\n     * greater than largest int88).\\n     *\\n     * Counterpart to Solidity's `int88` operator.\\n     *\\n     * Requirements:\\n     *\\n     * - input must fit into 88 bits\\n     */\\n    function toInt88(int256 value) internal pure returns (int88 downcasted) {\\n        downcasted = int88(value);\\n        if (downcasted != value) {\\n            revert SafeCastOverflowedIntDowncast(88, value);\\n        }\\n    }\\n\\n    /**\\n     * @dev Returns the downcasted int80 from int256, reverting on\\n     * overflow (when the input is less than smallest int80 or\\n     * greater than largest int80).\\n     *\\n     * Counterpart to Solidity's `int80` operator.\\n     *\\n     * Requirements:\\n     *\\n     * - input must fit into 80 bits\\n     */\\n    function toInt80(int256 value) internal pure returns (int80 downcasted) {\\n        downcasted = int80(value);\\n        if (downcasted != value) {\\n            revert SafeCastOverflowedIntDowncast(80, value);\\n        }\\n    }\\n\\n    /**\\n     * @dev Returns the downcasted int72 from int256, reverting on\\n     * overflow (when the input is less than smallest int72 or\\n     * greater than largest int72).\\n     *\\n     * Counterpart to Solidity's `int72` operator.\\n     *\\n     * Requirements:\\n     *\\n     * - input must fit into 72 bits\\n     */\\n    function toInt72(int256 value) internal pure returns (int72 downcasted) {\\n        downcasted = int72(value);\\n        if (downcasted != value) {\\n            revert SafeCastOverflowedIntDowncast(72, value);\\n        }\\n    }\\n\\n    /**\\n     * @dev Returns the downcasted int64 from int256, reverting on\\n     * overflow (when the input is less than smallest int64 or\\n     * greater than largest int64).\\n     *\\n     * Counterpart to Solidity's `int64` operator.\\n     *\\n     * Requirements:\\n     *\\n     * - input must fit into 64 bits\\n     */\\n    function toInt64(int256 value) internal pure returns (int64 downcasted) {\\n        downcasted = int64(value);\\n        if (downcasted != value) {\\n            revert SafeCastOverflowedIntDowncast(64, value);\\n        }\\n    }\\n\\n    /**\\n     * @dev Returns the downcasted int56 from int256, reverting on\\n     * overflow (when the input is less than smallest int56 or\\n     * greater than largest int56).\\n     *\\n     * Counterpart to Solidity's `int56` operator.\\n     *\\n     * Requirements:\\n     *\\n     * - input must fit into 56 bits\\n     */\\n    function toInt56(int256 value) internal pure returns (int56 downcasted) {\\n        downcasted = int56(value);\\n        if (downcasted != value) {\\n            revert SafeCastOverflowedIntDowncast(56, value);\\n        }\\n    }\\n\\n    /**\\n     * @dev Returns the downcasted int48 from int256, reverting on\\n     * overflow (when the input is less than smallest int48 or\\n     * greater than largest int48).\\n     *\\n     * Counterpart to Solidity's `int48` operator.\\n     *\\n     * Requirements:\\n     *\\n     * - input must fit into 48 bits\\n     */\\n    function toInt48(int256 value) internal pure returns (int48 downcasted) {\\n        downcasted = int48(value);\\n        if (downcasted != value) {\\n            revert SafeCastOverflowedIntDowncast(48, value);\\n        }\\n    }\\n\\n    /**\\n     * @dev Returns the downcasted int40 from int256, reverting on\\n     * overflow (when the input is less than smallest int40 or\\n     * greater than largest int40).\\n     *\\n     * Counterpart to Solidity's `int40` operator.\\n     *\\n     * Requirements:\\n     *\\n     * - input must fit into 40 bits\\n     */\\n    function toInt40(int256 value) internal pure returns (int40 downcasted) {\\n        downcasted = int40(value);\\n        if (downcasted != value) {\\n            revert SafeCastOverflowedIntDowncast(40, value);\\n        }\\n    }\\n\\n    /**\\n     * @dev Returns the downcasted int32 from int256, reverting on\\n     * overflow (when the input is less than smallest int32 or\\n     * greater than largest int32).\\n     *\\n     * Counterpart to Solidity's `int32` operator.\\n     *\\n     * Requirements:\\n     *\\n     * - input must fit into 32 bits\\n     */\\n    function toInt32(int256 value) internal pure returns (int32 downcasted) {\\n        downcasted = int32(value);\\n        if (downcasted != value) {\\n            revert SafeCastOverflowedIntDowncast(32, value);\\n        }\\n    }\\n\\n    /**\\n     * @dev Returns the downcasted int24 from int256, reverting on\\n     * overflow (when the input is less than smallest int24 or\\n     * greater than largest int24).\\n     *\\n     * Counterpart to Solidity's `int24` operator.\\n     *\\n     * Requirements:\\n     *\\n     * - input must fit into 24 bits\\n     */\\n    function toInt24(int256 value) internal pure returns (int24 downcasted) {\\n        downcasted = int24(value);\\n        if (downcasted != value) {\\n            revert SafeCastOverflowedIntDowncast(24, value);\\n        }\\n    }\\n\\n    /**\\n     * @dev Returns the downcasted int16 from int256, reverting on\\n     * overflow (when the input is less than smallest int16 or\\n     * greater than largest int16).\\n     *\\n     * Counterpart to Solidity's `int16` operator.\\n     *\\n     * Requirements:\\n     *\\n     * - input must fit into 16 bits\\n     */\\n    function toInt16(int256 value) internal pure returns (int16 downcasted) {\\n        downcasted = int16(value);\\n        if (downcasted != value) {\\n            revert SafeCastOverflowedIntDowncast(16, value);\\n        }\\n    }\\n\\n    /**\\n     * @dev Returns the downcasted int8 from int256, reverting on\\n     * overflow (when the input is less than smallest int8 or\\n     * greater than largest int8).\\n     *\\n     * Counterpart to Solidity's `int8` operator.\\n     *\\n     * Requirements:\\n     *\\n     * - input must fit into 8 bits\\n     */\\n    function toInt8(int256 value) internal pure returns (int8 downcasted) {\\n        downcasted = int8(value);\\n        if (downcasted != value) {\\n            revert SafeCastOverflowedIntDowncast(8, value);\\n        }\\n    }\\n\\n    /**\\n     * @dev Converts an unsigned uint256 into a signed int256.\\n     *\\n     * Requirements:\\n     *\\n     * - input must be less than or equal to maxInt256.\\n     */\\n    function toInt256(uint256 value) internal pure returns (int256) {\\n        // Note: Unsafe cast below is okay because `type(int256).max` is guaranteed to be positive\\n        if (value > uint256(type(int256).max)) {\\n            revert SafeCastOverflowedUintToInt(value);\\n        }\\n        return int256(value);\\n    }\\n}\\n\"},\"@openzeppelin/contracts/interfaces/IERC5805.sol\":{\"content\":\"// SPDX-License-Identifier: MIT\\n// OpenZeppelin Contracts (last updated v5.0.0) (interfaces/IERC5805.sol)\\n\\npragma solidity ^0.8.20;\\n\\nimport {IVotes} from \\\"../governance/utils/IVotes.sol\\\";\\nimport {IERC6372} from \\\"./IERC6372.sol\\\";\\n\\ninterface IERC5805 is IERC6372, IVotes {}\\n\"},\"@openzeppelin/contracts/utils/Strings.sol\":{\"content\":\"// SPDX-License-Identifier: MIT\\n// OpenZeppelin Contracts (last updated v5.0.0) (utils/Strings.sol)\\n\\npragma solidity ^0.8.20;\\n\\nimport {Math} from \\\"./math/Math.sol\\\";\\nimport {SignedMath} from \\\"./math/SignedMath.sol\\\";\\n\\n/**\\n * @dev String operations.\\n */\\nlibrary Strings {\\n    bytes16 private constant HEX_DIGITS = \\\"0123456789abcdef\\\";\\n    uint8 private constant ADDRESS_LENGTH = 20;\\n\\n    /**\\n     * @dev The `value` string doesn't fit in the specified `length`.\\n     */\\n    error StringsInsufficientHexLength(uint256 value, uint256 length);\\n\\n    /**\\n     * @dev Converts a `uint256` to its ASCII `string` decimal representation.\\n     */\\n    function toString(uint256 value) internal pure returns (string memory) {\\n        unchecked {\\n            uint256 length = Math.log10(value) + 1;\\n            string memory buffer = new string(length);\\n            uint256 ptr;\\n            /// @solidity memory-safe-assembly\\n            assembly {\\n                ptr := add(buffer, add(32, length))\\n            }\\n            while (true) {\\n                ptr--;\\n                /// @solidity memory-safe-assembly\\n                assembly {\\n                    mstore8(ptr, byte(mod(value, 10), HEX_DIGITS))\\n                }\\n                value /= 10;\\n                if (value == 0) break;\\n            }\\n            return buffer;\\n        }\\n    }\\n\\n    /**\\n     * @dev Converts a `int256` to its ASCII `string` decimal representation.\\n     */\\n    function toStringSigned(int256 value) internal pure returns (string memory) {\\n        return string.concat(value < 0 ? \\\"-\\\" : \\\"\\\", toString(SignedMath.abs(value)));\\n    }\\n\\n    /**\\n     * @dev Converts a `uint256` to its ASCII `string` hexadecimal representation.\\n     */\\n    function toHexString(uint256 value) internal pure returns (string memory) {\\n        unchecked {\\n            return toHexString(value, Math.log256(value) + 1);\\n        }\\n    }\\n\\n    /**\\n     * @dev Converts a `uint256` to its ASCII `string` hexadecimal representation with fixed length.\\n     */\\n    function toHexString(uint256 value, uint256 length) internal pure returns (string memory) {\\n        uint256 localValue = value;\\n        bytes memory buffer = new bytes(2 * length + 2);\\n        buffer[0] = \\\"0\\\";\\n        buffer[1] = \\\"x\\\";\\n        for (uint256 i = 2 * length + 1; i > 1; --i) {\\n            buffer[i] = HEX_DIGITS[localValue & 0xf];\\n            localValue >>= 4;\\n        }\\n        if (localValue != 0) {\\n            revert StringsInsufficientHexLength(value, length);\\n        }\\n        return string(buffer);\\n    }\\n\\n    /**\\n     * @dev Converts an `address` with fixed length of 20 bytes to its not checksummed ASCII `string` hexadecimal\\n     * representation.\\n     */\\n    function toHexString(address addr) internal pure returns (string memory) {\\n        return toHexString(uint256(uint160(addr)), ADDRESS_LENGTH);\\n    }\\n\\n    /**\\n     * @dev Returns true if the two strings are equal.\\n     */\\n    function equal(string memory a, string memory b) internal pure returns (bool) {\\n        return bytes(a).length == bytes(b).length && keccak256(bytes(a)) == keccak256(bytes(b));\\n    }\\n}\\n\"},\"@openzeppelin/contracts/interfaces/IERC6372.sol\":{\"content\":\"// SPDX-License-Identifier: MIT\\n// OpenZeppelin Contracts (last updated v5.0.0) (interfaces/IERC6372.sol)\\n\\npragma solidity ^0.8.20;\\n\\ninterface IERC6372 {\\n    /**\\n     * @dev Clock used for flagging checkpoints. Can be overridden to implement timestamp based checkpoints (and voting).\\n     */\\n    function clock() external view returns (uint48);\\n\\n    /**\\n     * @dev Description of the clock\\n     */\\n    // solhint-disable-next-line func-name-mixedcase\\n    function CLOCK_MODE() external view returns (string memory);\\n}\\n\"},\"@openzeppelin/contracts/governance/utils/IVotes.sol\":{\"content\":\"// SPDX-License-Identifier: MIT\\n// OpenZeppelin Contracts (last updated v5.0.0) (governance/utils/IVotes.sol)\\npragma solidity ^0.8.20;\\n\\n/**\\n * @dev Common interface for {ERC20Votes}, {ERC721Votes}, and other {Votes}-enabled contracts.\\n */\\ninterface IVotes {\\n    /**\\n     * @dev The signature used has expired.\\n     */\\n    error VotesExpiredSignature(uint256 expiry);\\n\\n    /**\\n     * @dev Emitted when an account changes their delegate.\\n     */\\n    event DelegateChanged(address indexed delegator, address indexed fromDelegate, address indexed toDelegate);\\n\\n    /**\\n     * @dev Emitted when a token transfer or delegate change results in changes to a delegate's number of voting units.\\n     */\\n    event DelegateVotesChanged(address indexed delegate, uint256 previousVotes, uint256 newVotes);\\n\\n    /**\\n     * @dev Returns the current amount of votes that `account` has.\\n     */\\n    function getVotes(address account) external view returns (uint256);\\n\\n    /**\\n     * @dev Returns the amount of votes that `account` had at a specific moment in the past. If the `clock()` is\\n     * configured to use block numbers, this will return the value at the end of the corresponding block.\\n     */\\n    function getPastVotes(address account, uint256 timepoint) external view returns (uint256);\\n\\n    /**\\n     * @dev Returns the total supply of votes available at a specific moment in the past. If the `clock()` is\\n     * configured to use block numbers, this will return the value at the end of the corresponding block.\\n     *\\n     * NOTE: This value is the sum of all available votes, which is not necessarily the sum of all delegated votes.\\n     * Votes that have not been delegated are still part of total supply, even though they would not participate in a\\n     * vote.\\n     */\\n    function getPastTotalSupply(uint256 timepoint) external view returns (uint256);\\n\\n    /**\\n     * @dev Returns the delegate that `account` has chosen.\\n     */\\n    function delegates(address account) external view returns (address);\\n\\n    /**\\n     * @dev Delegates votes from the sender to `delegatee`.\\n     */\\n    function delegate(address delegatee) external;\\n\\n    /**\\n     * @dev Delegates votes from signer to `delegatee`.\\n     */\\n    function delegateBySig(address delegatee, uint256 nonce, uint256 expiry, uint8 v, bytes32 r, bytes32 s) external;\\n}\\n\"},\"@openzeppelin/contracts/utils/math/SignedMath.sol\":{\"content\":\"// SPDX-License-Identifier: MIT\\n// OpenZeppelin Contracts (last updated v5.0.0) (utils/math/SignedMath.sol)\\n\\npragma solidity ^0.8.20;\\n\\n/**\\n * @dev Standard signed math utilities missing in the Solidity language.\\n */\\nlibrary SignedMath {\\n    /**\\n     * @dev Returns the largest of two signed numbers.\\n     */\\n    function max(int256 a, int256 b) internal pure returns (int256) {\\n        return a > b ? a : b;\\n    }\\n\\n    /**\\n     * @dev Returns the smallest of two signed numbers.\\n     */\\n    function min(int256 a, int256 b) internal pure returns (int256) {\\n        return a < b ? a : b;\\n    }\\n\\n    /**\\n     * @dev Returns the average of two signed numbers without overflow.\\n     * The result is rounded towards zero.\\n     */\\n    function average(int256 a, int256 b) internal pure returns (int256) {\\n        // Formula from the book \\\"Hacker's Delight\\\"\\n        int256 x = (a & b) + ((a ^ b) >> 1);\\n        return x + (int256(uint256(x) >> 255) & (a ^ b));\\n    }\\n\\n    /**\\n     * @dev Returns the absolute unsigned value of a signed value.\\n     */\\n    function abs(int256 n) internal pure returns (uint256) {\\n        unchecked {\\n            // must be unchecked in order to support `n = type(int256).min`\\n            return uint256(n >= 0 ? n : -n);\\n        }\\n    }\\n}\\n\"}},\"settings\":{\"optimizer\":{\"enabled\":false,\"runs\":200},\"outputSelection\":{\"*\":{\"\":[\"ast\"],\"*\":[\"abi\",\"metadata\",\"devdoc\",\"userdoc\",\"storageLayout\",\"evm.legacyAssembly\",\"evm.bytecode\",\"evm.deployedBytecode\",\"evm.methodIdentifiers\",\"evm.gasEstimates\",\"evm.assembly\"]}},\"remappings\":[]}}",
	"name": "QAI",
	"bytecode": {
		"linkReferences": {},
		"object": "608060405234801562000010575f80fd5b50620000216200002760201b60201c565b62000191565b5f620000386200012b60201b60201c565b9050805f0160089054906101000a900460ff161562000083576040517ff92ee8a900000000000000000000000000000000000000000000000000000000815260040160405180910390fd5b67ffffffffffffffff8016815f015f9054906101000a900467ffffffffffffffff1667ffffffffffffffff1614620001285767ffffffffffffffff815f015f6101000a81548167ffffffffffffffff021916908367ffffffffffffffff1602179055507fc7f505b2f371ae2175ee4913f4499e1f2633a7b5936321eed1cdaeb6115181d267ffffffffffffffff6040516200011f919062000176565b60405180910390a15b50565b5f7ff0c57e16840df040f15088dc2f81fe391c3923bec73e23a9662efc9c229c6a00905090565b5f67ffffffffffffffff82169050919050565b620001708162000152565b82525050565b5f6020820190506200018b5f83018462000165565b92915050565b6154a1806200019f5f395ff3fe608060405234801561000f575f80fd5b506004361061025c575f3560e01c806370a0823111610144578063a217fddf116100c1578063d539139311610085578063d539139314610772578063d547741f14610790578063d9d98ce4146107ac578063dd62ed3e146107dc578063e63ab1e91461080c578063f1127ed81461082a5761025c565b8063a217fddf146106d0578063a9059cbb146106ee578063c0c53b8b1461071e578063c3cda5201461073a578063d505accf146107565761025c565b80638e539e8c116101085780638e539e8c1461060457806391d148541461063457806391ddadf41461066457806395d89b41146106825780639ab24eb0146106a05761025c565b806370a082311461055a57806379cc67901461058a5780637ecebe00146105a65780638456cb59146105d657806384b0196e146105e05761025c565b80633a46b1a8116101dd578063587cde1e116101a1578063587cde1e146104605780635c19a95c146104905780635c975abb146104ac5780635cffe9de146104ca578063613255ab146104fa5780636fcfff451461052a5761025c565b80633a46b1a8146103d05780633f4ba83a1461040057806340c10f191461040a57806342966c68146104265780634bf5d7e9146104425761025c565b8063248a9ca311610224578063248a9ca31461032c5780632f2ff15d1461035c578063313ce567146103785780633644e5151461039657806336568abe146103b45761025c565b806301ffc9a71461026057806306fdde0314610290578063095ea7b3146102ae57806318160ddd146102de57806323b872dd146102fc575b5f80fd5b61027a60048036038101906102759190613f46565b61085a565b6040516102879190613f8b565b60405180910390f35b6102986108d3565b6040516102a5919061402e565b60405180910390f35b6102c860048036038101906102c391906140db565b610971565b6040516102d59190613f8b565b60405180910390f35b6102e6610993565b6040516102f39190614128565b60405180910390f35b61031660048036038101906103119190614141565b6109aa565b6040516103239190613f8b565b60405180910390f35b610346600480360381019061034191906141c4565b6109d8565b60405161035391906141fe565b60405180910390f35b61037660048036038101906103719190614217565b610a02565b005b610380610a24565b60405161038d9190614270565b60405180910390f35b61039e610a2c565b6040516103ab91906141fe565b60405180910390f35b6103ce60048036038101906103c99190614217565b610a3a565b005b6103ea60048036038101906103e591906140db565b610ab5565b6040516103f79190614128565b60405180910390f35b610408610b99565b005b610424600480360381019061041f91906140db565b610bce565b005b610440600480360381019061043b9190614289565b610c07565b005b61044a610c1b565b604051610457919061402e565b60405180910390f35b61047a600480360381019061047591906142b4565b610caf565b60405161048791906142ee565b60405180910390f35b6104aa60048036038101906104a591906142b4565b610d21565b005b6104b4610d3a565b6040516104c19190613f8b565b60405180910390f35b6104e460048036038101906104df91906143a3565b610d5c565b6040516104f19190613f8b565b60405180910390f35b610514600480360381019061050f91906142b4565b610f51565b6040516105219190614128565b60405180910390f35b610544600480360381019061053f91906142b4565b610fc6565b6040516105519190614445565b60405180910390f35b610574600480360381019061056f91906142b4565b610fd7565b6040516105819190614128565b60405180910390f35b6105a4600480360381019061059f91906140db565b61102a565b005b6105c060048036038101906105bb91906142b4565b61104a565b6040516105cd9190614128565b60405180910390f35b6105de61105b565b005b6105e8611090565b6040516105fb979695949392919061454f565b60405180910390f35b61061e60048036038101906106199190614289565b611199565b60405161062b9190614128565b60405180910390f35b61064e60048036038101906106499190614217565b611241565b60405161065b9190613f8b565b60405180910390f35b61066c6112b2565b60405161067991906145f1565b60405180910390f35b61068a6112c0565b604051610697919061402e565b60405180910390f35b6106ba60048036038101906106b591906142b4565b61135e565b6040516106c79190614128565b60405180910390f35b6106d86113d5565b6040516106e591906141fe565b60405180910390f35b610708600480360381019061070391906140db565b6113db565b6040516107159190613f8b565b60405180910390f35b6107386004803603810190610733919061460a565b6113fd565b005b610754600480360381019061074f9190614684565b6116e0565b005b610770600480360381019061076b919061470d565b6117a5565b005b61077a6118ea565b60405161078791906141fe565b60405180910390f35b6107aa60048036038101906107a59190614217565b61190e565b005b6107c660048036038101906107c191906140db565b611930565b6040516107d39190614128565b60405180910390f35b6107f660048036038101906107f191906147aa565b6119b3565b6040516108039190614128565b60405180910390f35b610814611a43565b60405161082191906141fe565b60405180910390f35b610844600480360381019061083f9190614812565b611a67565b60405161085191906148c0565b60405180910390f35b5f7f7965db0b000000000000000000000000000000000000000000000000000000007bffffffffffffffffffffffffffffffffffffffffffffffffffffffff1916827bffffffffffffffffffffffffffffffffffffffffffffffffffffffff191614806108cc57506108cb82611a81565b5b9050919050565b60605f6108de611aea565b90508060030180546108ef90614906565b80601f016020809104026020016040519081016040528092919081815260200182805461091b90614906565b80156109665780601f1061093d57610100808354040283529160200191610966565b820191905f5260205f20905b81548152906001019060200180831161094957829003601f168201915b505050505091505090565b5f8061097b611b11565b9050610988818585611b18565b600191505092915050565b5f8061099d611aea565b9050806002015491505090565b5f806109b4611b11565b90506109c1858285611b2a565b6109cc858585611bbc565b60019150509392505050565b5f806109e2611cac565b9050805f015f8481526020019081526020015f2060010154915050919050565b610a0b826109d8565b610a1481611cd3565b610a1e8383611ce7565b50505050565b5f6012905090565b5f610a35611ddf565b905090565b610a42611b11565b73ffffffffffffffffffffffffffffffffffffffff168173ffffffffffffffffffffffffffffffffffffffff1614610aa6576040517f6697b23200000000000000000000000000000000000000000000000000000000815260040160405180910390fd5b610ab08282611ded565b505050565b5f80610abf611ee5565b90505f610aca6112b2565b90508065ffffffffffff168410610b1a5783816040517fecd3f81e000000000000000000000000000000000000000000000000000000008152600401610b11929190614936565b60405180910390fd5b610b73610b2685611f0c565b836001015f8873ffffffffffffffffffffffffffffffffffffffff1673ffffffffffffffffffffffffffffffffffffffff1681526020019081526020015f20611f6590919063ffffffff16565b79ffffffffffffffffffffffffffffffffffffffffffffffffffff169250505092915050565b7f65d7a28e3265b37a6474929f336521b332c1681b933f6cb9f3376673440d862a610bc381611cd3565b610bcb612052565b50565b7f9f2df0fed2c77648de5860a4cc508cd0818c85b8b8a1ab4ceeef8d981c8956a6610bf881611cd3565b610c0283836120c0565b505050565b610c18610c12611b11565b8261213f565b50565b6060610c256121be565b65ffffffffffff16610c356112b2565b65ffffffffffff1614610c74576040517f6ff0714000000000000000000000000000000000000000000000000000000000815260040160405180910390fd5b6040518060400160405280601d81526020017f6d6f64653d626c6f636b6e756d6265722666726f6d3d64656661756c74000000815250905090565b5f80610cb9611ee5565b9050805f015f8473ffffffffffffffffffffffffffffffffffffffff1673ffffffffffffffffffffffffffffffffffffffff1681526020019081526020015f205f9054906101000a900473ffffffffffffffffffffffffffffffffffffffff16915050919050565b5f610d2a611b11565b9050610d3681836121cd565b5050565b5f80610d446122ea565b9050805f015f9054906101000a900460ff1691505090565b5f80610d6786610f51565b905080851115610dae57806040517ffd9a7609000000000000000000000000000000000000000000000000000000008152600401610da59190614128565b60405180910390fd5b5f610db98787611930565b9050610dc588876120c0565b7f439148f0bbc682ca079e46d6e2c2f0c1e3b820f1a291b069d8882abf8cf18dd98873ffffffffffffffffffffffffffffffffffffffff166323e30c8b610e0a611b11565b8a8a868b8b6040518763ffffffff1660e01b8152600401610e30969594939291906149a7565b6020604051808303815f875af1158015610e4c573d5f803e3d5ffd5b505050506040513d601f19601f82011682018060405250810190610e709190614a15565b14610eb257876040517f678c5b00000000000000000000000000000000000000000000000000000000008152600401610ea991906142ee565b60405180910390fd5b5f610ebb612311565b9050610ed38930848a610ece9190614a6d565b611b2a565b5f821480610f0c57505f73ffffffffffffffffffffffffffffffffffffffff168173ffffffffffffffffffffffffffffffffffffffff16145b15610f2b57610f26898389610f219190614a6d565b61213f565b610f41565b610f35898861213f565b610f40898284611bbc565b5b6001935050505095945050505050565b5f3073ffffffffffffffffffffffffffffffffffffffff168273ffffffffffffffffffffffffffffffffffffffff1614610f8b575f610fbf565b610f93610993565b7fffffffffffffffffffffffffffffffffffffffffffffffffffffffffffffffff610fbe9190614aa0565b5b9050919050565b5f610fd082612315565b9050919050565b5f80610fe1611aea565b9050805f015f8473ffffffffffffffffffffffffffffffffffffffff1673ffffffffffffffffffffffffffffffffffffffff1681526020019081526020015f2054915050919050565b61103c82611036611b11565b83611b2a565b611046828261213f565b5050565b5f61105482612378565b9050919050565b7f65d7a28e3265b37a6474929f336521b332c1681b933f6cb9f3376673440d862a61108581611cd3565b61108d612389565b50565b5f6060805f805f60605f6110a26123f8565b90505f801b815f01541480156110bd57505f801b8160010154145b6110fc576040517f08c379a00000000000000000000000000000000000000000000000000000000081526004016110f390614b1d565b60405180910390fd5b61110461241f565b61110c6124bd565b46305f801b5f67ffffffffffffffff81111561112b5761112a614b3b565b5b6040519080825280602002602001820160405280156111595781602001602082028036833780820191505090505b507f0f0000000000000000000000000000000000000000000000000000000000000095949392919097509750975097509750975097505090919293949596565b5f806111a3611ee5565b90505f6111ae6112b2565b90508065ffffffffffff1684106111fe5783816040517fecd3f81e0000000000000000000000000000000000000000000000000000000081526004016111f5929190614936565b60405180910390fd5b61121c61120a85611f0c565b83600201611f6590919063ffffffff16565b79ffffffffffffffffffffffffffffffffffffffffffffffffffff1692505050919050565b5f8061124b611cac565b9050805f015f8581526020019081526020015f205f015f8473ffffffffffffffffffffffffffffffffffffffff1673ffffffffffffffffffffffffffffffffffffffff1681526020019081526020015f205f9054906101000a900460ff1691505092915050565b5f6112bb6121be565b905090565b60605f6112cb611aea565b90508060040180546112dc90614906565b80601f016020809104026020016040519081016040528092919081815260200182805461130890614906565b80156113535780601f1061132a57610100808354040283529160200191611353565b820191905f5260205f20905b81548152906001019060200180831161133657829003601f168201915b505050505091505090565b5f80611368611ee5565b90506113b1816001015f8573ffffffffffffffffffffffffffffffffffffffff1673ffffffffffffffffffffffffffffffffffffffff1681526020019081526020015f2061255b565b79ffffffffffffffffffffffffffffffffffffffffffffffffffff16915050919050565b5f801b81565b5f806113e5611b11565b90506113f2818585611bbc565b600191505092915050565b5f6114066125bd565b90505f815f0160089054906101000a900460ff161590505f825f015f9054906101000a900467ffffffffffffffff1690505f808267ffffffffffffffff1614801561144e5750825b90505f60018367ffffffffffffffff1614801561148157505f3073ffffffffffffffffffffffffffffffffffffffff163b145b90508115801561148f575080155b156114c6576040517ff92ee8a900000000000000000000000000000000000000000000000000000000815260040160405180910390fd5b6001855f015f6101000a81548167ffffffffffffffff021916908367ffffffffffffffff1602179055508315611513576001855f0160086101000a81548160ff0219169083151502179055505b6115876040518060400160405280600381526020017f51414900000000000000000000000000000000000000000000000000000000008152506040518060400160405280600281526020017f41490000000000000000000000000000000000000000000000000000000000008152506125e4565b61158f6125fa565b611597612604565b61159f612616565b6115dd6040518060400160405280600381526020017f5141490000000000000000000000000000000000000000000000000000000000815250612620565b6115e561266a565b6115ed612674565b6115f95f801b89611ce7565b506116247f65d7a28e3265b37a6474929f336521b332c1681b933f6cb9f3376673440d862a88611ce7565b5061165133611631610a24565b600a61163d9190614c97565b6308f0d18061164c9190614ce1565b6120c0565b61167b7f9f2df0fed2c77648de5860a4cc508cd0818c85b8b8a1ab4ceeef8d981c8956a687611ce7565b5083156116d6575f855f0160086101000a81548160ff0219169083151502179055507fc7f505b2f371ae2175ee4913f4499e1f2633a7b5936321eed1cdaeb6115181d260016040516116cd9190614d77565b60405180910390a15b5050505050505050565b8342111561172557836040517f4683af0e00000000000000000000000000000000000000000000000000000000815260040161171c9190614128565b60405180910390fd5b5f61178661177e7fe48329057bfd03d55e49b547132e39cffd9c1820ad7b9d4c5307691425d15adf8989896040516020016117639493929190614d90565b6040516020818303038152906040528051906020012061267e565b858585612697565b905061179281876126c5565b61179c81886121cd565b50505050505050565b834211156117ea57836040517f627913020000000000000000000000000000000000000000000000000000000081526004016117e19190614128565b60405180910390fd5b5f7f6e71edae12b1b97f4d1f60370fef10105fa2faae0126114a169c64845d6126c98888886118188c61271c565b8960405160200161182e96959493929190614dd3565b6040516020818303038152906040528051906020012090505f6118508261267e565b90505f61185f82878787612697565b90508973ffffffffffffffffffffffffffffffffffffffff168173ffffffffffffffffffffffffffffffffffffffff16146118d357808a6040517f4b800e460000000000000000000000000000000000000000000000000000000081526004016118ca929190614e32565b60405180910390fd5b6118de8a8a8a611b18565b50505050505050505050565b7f9f2df0fed2c77648de5860a4cc508cd0818c85b8b8a1ab4ceeef8d981c8956a681565b611917826109d8565b61192081611cd3565b61192a8383611ded565b50505050565b5f3073ffffffffffffffffffffffffffffffffffffffff168373ffffffffffffffffffffffffffffffffffffffff16146119a157826040517fb5a7db9200000000000000000000000000000000000000000000000000000000815260040161199891906142ee565b60405180910390fd5b6119ab838361277c565b905092915050565b5f806119bd611aea565b9050806001015f8573ffffffffffffffffffffffffffffffffffffffff1673ffffffffffffffffffffffffffffffffffffffff1681526020019081526020015f205f8473ffffffffffffffffffffffffffffffffffffffff1673ffffffffffffffffffffffffffffffffffffffff1681526020019081526020015f205491505092915050565b7f65d7a28e3265b37a6474929f336521b332c1681b933f6cb9f3376673440d862a81565b611a6f613ead565b611a798383612783565b905092915050565b5f7f01ffc9a7000000000000000000000000000000000000000000000000000000007bffffffffffffffffffffffffffffffffffffffffffffffffffffffff1916827bffffffffffffffffffffffffffffffffffffffffffffffffffffffff1916149050919050565b5f7f52c63247e1f47db19d5ce0460030c497f067ca4cebf71ba98eeadabe20bace00905090565b5f33905090565b611b2583838360016127f0565b505050565b5f611b3584846119b3565b90507fffffffffffffffffffffffffffffffffffffffffffffffffffffffffffffffff8114611bb65781811015611ba7578281836040517ffb8f41b2000000000000000000000000000000000000000000000000000000008152600401611b9e93929190614e59565b60405180910390fd5b611bb584848484035f6127f0565b5b50505050565b5f73ffffffffffffffffffffffffffffffffffffffff168373ffffffffffffffffffffffffffffffffffffffff1603611c2c575f6040517f96c6fd1e000000000000000000000000000000000000000000000000000000008152600401611c2391906142ee565b60405180910390fd5b5f73ffffffffffffffffffffffffffffffffffffffff168273ffffffffffffffffffffffffffffffffffffffff1603611c9c575f6040517fec442f05000000000000000000000000000000000000000000000000000000008152600401611c9391906142ee565b60405180910390fd5b611ca78383836129cd565b505050565b5f7f02dd7bc7dec4dceedda775e58dd541e08a116c6c53815c0bd028192f7b626800905090565b611ce481611cdf611b11565b6129dd565b50565b5f80611cf1611cac565b9050611cfd8484611241565b611dd4576001815f015f8681526020019081526020015f205f015f8573ffffffffffffffffffffffffffffffffffffffff1673ffffffffffffffffffffffffffffffffffffffff1681526020019081526020015f205f6101000a81548160ff021916908315150217905550611d70611b11565b73ffffffffffffffffffffffffffffffffffffffff168373ffffffffffffffffffffffffffffffffffffffff16857f2f8788117e7eff1d82e926ec794901d17c78024a50270940304540a733656f0d60405160405180910390a46001915050611dd9565b5f9150505b92915050565b5f611de8612a2e565b905090565b5f80611df7611cac565b9050611e038484611241565b15611eda575f815f015f8681526020019081526020015f205f015f8573ffffffffffffffffffffffffffffffffffffffff1673ffffffffffffffffffffffffffffffffffffffff1681526020019081526020015f205f6101000a81548160ff021916908315150217905550611e76611b11565b73ffffffffffffffffffffffffffffffffffffffff168373ffffffffffffffffffffffffffffffffffffffff16857ff6391f5c32d9c69d2a47ea670b442974b53935d1edc7fd64eb21e047a839171b60405160405180910390a46001915050611edf565b5f9150505b92915050565b5f7fe8b26c30fad74198956032a3533d903385d56dd795af560196f9c78d4af40d00905090565b5f65ffffffffffff8016821115611f5d576030826040517f6dfcc650000000000000000000000000000000000000000000000000000000008152600401611f54929190614ec7565b60405180910390fd5b819050919050565b5f80835f018054905090505f808290506005831115611fe6575f611f8884612a91565b84611f939190614aa0565b9050611fa1875f0182612b87565b5f015f9054906101000a900465ffffffffffff1665ffffffffffff168665ffffffffffff161015611fd457809150611fe4565b600181611fe19190614a6d565b92505b505b5f611ff5875f01878585612b99565b90505f811461204457612016875f016001836120119190614aa0565b612b87565b5f0160069054906101000a900479ffffffffffffffffffffffffffffffffffffffffffffffffffff16612046565b5f5b94505050505092915050565b61205a612c0e565b5f6120636122ea565b90505f815f015f6101000a81548160ff0219169083151502179055507f5db9ee0a495bf2e6ff9c91a7834c1ba4fdd244a5e8aa4e537bd38aeae4b073aa6120a8611b11565b6040516120b591906142ee565b60405180910390a150565b5f73ffffffffffffffffffffffffffffffffffffffff168273ffffffffffffffffffffffffffffffffffffffff1603612130575f6040517fec442f0500000000000000000000000000000000000000000000000000000000815260040161212791906142ee565b60405180910390fd5b61213b5f83836129cd565b5050565b5f73ffffffffffffffffffffffffffffffffffffffff168273ffffffffffffffffffffffffffffffffffffffff16036121af575f6040517f96c6fd1e0000000000000000000000000000000000000000000000000000000081526004016121a691906142ee565b60405180910390fd5b6121ba825f836129cd565b5050565b5f6121c843611f0c565b905090565b5f6121d6611ee5565b90505f6121e284610caf565b905082825f015f8673ffffffffffffffffffffffffffffffffffffffff1673ffffffffffffffffffffffffffffffffffffffff1681526020019081526020015f205f6101000a81548173ffffffffffffffffffffffffffffffffffffffff021916908373ffffffffffffffffffffffffffffffffffffffff1602179055508273ffffffffffffffffffffffffffffffffffffffff168173ffffffffffffffffffffffffffffffffffffffff168573ffffffffffffffffffffffffffffffffffffffff167f3134e8a2e6d97e929a7e54011ea5485d7d196dd5f0ba4d4ef95803e8e3fc257f60405160405180910390a46122e481846122df87612c4e565b612c5f565b50505050565b5f7fcd5ed15c6e187e77e9aee88184c21f4f2182ab5827cb3b7e07fbedcd63f03300905090565b5f90565b5f8061231f611ee5565b905061237061236b826001015f8673ffffffffffffffffffffffffffffffffffffffff1673ffffffffffffffffffffffffffffffffffffffff1681526020019081526020015f20612edf565b612eee565b915050919050565b5f61238282612f45565b9050919050565b612391612f98565b5f61239a6122ea565b90506001815f015f6101000a81548160ff0219169083151502179055507f62e78cea01bee320cd4e420270b5ea74000d11b0c9f74754ebdbfc544b05a2586123e0611b11565b6040516123ed91906142ee565b60405180910390a150565b5f7fa16a46d94261c7517cc8ff89f61c0ce93598e3c849801011dee649a6a557d100905090565b60605f61242a6123f8565b905080600201805461243b90614906565b80601f016020809104026020016040519081016040528092919081815260200182805461246790614906565b80156124b25780601f10612489576101008083540402835291602001916124b2565b820191905f5260205f20905b81548152906001019060200180831161249557829003601f168201915b505050505091505090565b60605f6124c86123f8565b90508060030180546124d990614906565b80601f016020809104026020016040519081016040528092919081815260200182805461250590614906565b80156125505780601f1061252757610100808354040283529160200191612550565b820191905f5260205f20905b81548152906001019060200180831161253357829003601f168201915b505050505091505090565b5f80825f018054905090505f81146125b357612585835f016001836125809190614aa0565b612b87565b5f0160069054906101000a900479ffffffffffffffffffffffffffffffffffffffffffffffffffff166125b5565b5f5b915050919050565b5f7ff0c57e16840df040f15088dc2f81fe391c3923bec73e23a9662efc9c229c6a00905090565b6125ec612fd9565b6125f68282613019565b5050565b612602612fd9565b565b61260c612fd9565b612614613055565b565b61261e612fd9565b565b612628612fd9565b612667816040518060400160405280600181526020017f3100000000000000000000000000000000000000000000000000000000000000815250613085565b50565b612672612fd9565b565b61267c612fd9565b565b5f61269061268a611ddf565b836130d6565b9050919050565b5f805f806126a788888888613116565b9250925092506126b782826131fd565b829350505050949350505050565b5f6126cf8361271c565b90508082146127175782816040517f752d88c000000000000000000000000000000000000000000000000000000000815260040161270e929190614eee565b60405180910390fd5b505050565b5f8061272661335f565b9050805f015f8473ffffffffffffffffffffffffffffffffffffffff1673ffffffffffffffffffffffffffffffffffffffff1681526020019081526020015f205f81548092919060010191905055915050919050565b5f92915050565b61278b613ead565b5f612794611ee5565b90506127e783826001015f8773ffffffffffffffffffffffffffffffffffffffff1673ffffffffffffffffffffffffffffffffffffffff1681526020019081526020015f2061338690919063ffffffff16565b91505092915050565b5f6127f9611aea565b90505f73ffffffffffffffffffffffffffffffffffffffff168573ffffffffffffffffffffffffffffffffffffffff160361286b575f6040517fe602df0500000000000000000000000000000000000000000000000000000000815260040161286291906142ee565b60405180910390fd5b5f73ffffffffffffffffffffffffffffffffffffffff168473ffffffffffffffffffffffffffffffffffffffff16036128db575f6040517f94280d620000000000000000000000000000000000000000000000000000000081526004016128d291906142ee565b60405180910390fd5b82816001015f8773ffffffffffffffffffffffffffffffffffffffff1673ffffffffffffffffffffffffffffffffffffffff1681526020019081526020015f205f8673ffffffffffffffffffffffffffffffffffffffff1673ffffffffffffffffffffffffffffffffffffffff1681526020019081526020015f208190555081156129c6578373ffffffffffffffffffffffffffffffffffffffff168573ffffffffffffffffffffffffffffffffffffffff167f8c5be1e5ebec7d5bd14f71427d1e84f3dd0314c0f7b2291e5b200ac8c7c3b925856040516129bd9190614128565b60405180910390a35b5050505050565b6129d8838383613455565b505050565b6129e78282611241565b612a2a5780826040517fe2517d3f000000000000000000000000000000000000000000000000000000008152600401612a21929190614f15565b60405180910390fd5b5050565b5f7f8b73c3c69bb8fe3d512ecc4cf759cc79239f7b179b0ffacaa9a75d522b39400f612a58613503565b612a60613579565b4630604051602001612a76959493929190614f3c565b60405160208183030381529060405280519060200120905090565b5f808203612aa1575f9050612b82565b5f6001612aad846135f0565b901c6001901b90506001818481612ac757612ac6614f8d565b5b048201901c90506001818481612ae057612adf614f8d565b5b048201901c90506001818481612af957612af8614f8d565b5b048201901c90506001818481612b1257612b11614f8d565b5b048201901c90506001818481612b2b57612b2a614f8d565b5b048201901c90506001818481612b4457612b43614f8d565b5b048201901c90506001818481612b5d57612b5c614f8d565b5b048201901c9050612b7e81828581612b7857612b77614f8d565b5b046136c7565b9150505b919050565b5f825f528160205f2001905092915050565b5f5b81831015612c03575f612bae84846136df565b90508465ffffffffffff16612bc38783612b87565b5f015f9054906101000a900465ffffffffffff1665ffffffffffff161115612bed57809250612bfd565b600181612bfa9190614a6d565b93505b50612b9b565b819050949350505050565b612c16610d3a565b612c4c576040517f8dfc202b00000000000000000000000000000000000000000000000000000000815260040160405180910390fd5b565b5f612c5882610fd7565b9050919050565b5f612c68611ee5565b90508273ffffffffffffffffffffffffffffffffffffffff168473ffffffffffffffffffffffffffffffffffffffff1614158015612ca557505f82115b15612ed9575f73ffffffffffffffffffffffffffffffffffffffff168473ffffffffffffffffffffffffffffffffffffffff1614612dc1575f80612d32836001015f8873ffffffffffffffffffffffffffffffffffffffff1673ffffffffffffffffffffffffffffffffffffffff1681526020019081526020015f20613704612d2d87613719565b613786565b79ffffffffffffffffffffffffffffffffffffffffffffffffffff16915079ffffffffffffffffffffffffffffffffffffffffffffffffffff1691508573ffffffffffffffffffffffffffffffffffffffff167fdec2bacdd2f05b59de34da9b523dff8be42e5e38e818c82fdb0bae774387a7248383604051612db6929190614fba565b60405180910390a250505b5f73ffffffffffffffffffffffffffffffffffffffff168373ffffffffffffffffffffffffffffffffffffffff1614612ed8575f80612e49836001015f8773ffffffffffffffffffffffffffffffffffffffff1673ffffffffffffffffffffffffffffffffffffffff1681526020019081526020015f206137c5612e4487613719565b613786565b79ffffffffffffffffffffffffffffffffffffffffffffffffffff16915079ffffffffffffffffffffffffffffffffffffffffffffffffffff1691508473ffffffffffffffffffffffffffffffffffffffff167fdec2bacdd2f05b59de34da9b523dff8be42e5e38e818c82fdb0bae774387a7248383604051612ecd929190614fba565b60405180910390a250505b5b50505050565b5f815f01805490509050919050565b5f63ffffffff8016821115612f3d576020826040517f6dfcc650000000000000000000000000000000000000000000000000000000008152600401612f3492919061501a565b60405180910390fd5b819050919050565b5f80612f4f61335f565b9050805f015f8473ffffffffffffffffffffffffffffffffffffffff1673ffffffffffffffffffffffffffffffffffffffff1681526020019081526020015f2054915050919050565b612fa0610d3a565b15612fd7576040517fd93c066500000000000000000000000000000000000000000000000000000000815260040160405180910390fd5b565b612fe16137da565b613017576040517fd7e6bcf800000000000000000000000000000000000000000000000000000000815260040160405180910390fd5b565b613021612fd9565b5f61302a611aea565b90508281600301908161303d91906151d5565b508181600401908161304f91906151d5565b50505050565b61305d612fd9565b5f6130666122ea565b90505f815f015f6101000a81548160ff02191690831515021790555050565b61308d612fd9565b5f6130966123f8565b9050828160020190816130a991906151d5565b50818160030190816130bb91906151d5565b505f801b815f01819055505f801b8160010181905550505050565b5f6040517f190100000000000000000000000000000000000000000000000000000000000081528360028201528260228201526042812091505092915050565b5f805f7f7fffffffffffffffffffffffffffffff5d576e7357a4501ddfe92f46681b20a0845f1c1115613152575f6003859250925092506131f3565b5f6001888888886040515f815260200160405260405161317594939291906152a4565b6020604051602081039080840390855afa158015613195573d5f803e3d5ffd5b5050506020604051035190505f73ffffffffffffffffffffffffffffffffffffffff168173ffffffffffffffffffffffffffffffffffffffff16036131e6575f60015f801b935093509350506131f3565b805f805f1b935093509350505b9450945094915050565b5f60038111156132105761320f6152e7565b5b826003811115613223576132226152e7565b5b031561335b576001600381111561323d5761323c6152e7565b5b8260038111156132505761324f6152e7565b5b03613287576040517ff645eedf00000000000000000000000000000000000000000000000000000000815260040160405180910390fd5b6002600381111561329b5761329a6152e7565b5b8260038111156132ae576132ad6152e7565b5b036132f257805f1c6040517ffce698f70000000000000000000000000000000000000000000000000000000081526004016132e99190614128565b60405180910390fd5b600380811115613305576133046152e7565b5b826003811115613318576133176152e7565b5b0361335a57806040517fd78bce0c00000000000000000000000000000000000000000000000000000000815260040161335191906141fe565b60405180910390fd5b5b5050565b5f7f5ab42ced628888259c08ac98db1eb0cf702fc1501344311d8b100cd1bfe4bb00905090565b61338e613ead565b825f018263ffffffff16815481106133a9576133a8615314565b5b905f5260205f20016040518060400160405290815f82015f9054906101000a900465ffffffffffff1665ffffffffffff1665ffffffffffff1681526020015f820160069054906101000a900479ffffffffffffffffffffffffffffffffffffffffffffffffffff1679ffffffffffffffffffffffffffffffffffffffffffffffffffff1679ffffffffffffffffffffffffffffffffffffffffffffffffffff1681525050905092915050565b6134608383836137f8565b5f73ffffffffffffffffffffffffffffffffffffffff168373ffffffffffffffffffffffffffffffffffffffff16036134f3575f61349c610993565b90505f6134a7613810565b9050808211156134f05781816040517f1cb15d260000000000000000000000000000000000000000000000000000000081526004016134e7929190614fba565b60405180910390fd5b50505b6134fe838383613833565b505050565b5f8061350d6123f8565b90505f61351861241f565b90505f8151111561353457808051906020012092505050613576565b5f825f015490505f801b811461354f57809350505050613576565b7fc5d2460186f7233c927e7db2dcc703c0e500b653ca82273b7bfad8045d85a47093505050505b90565b5f806135836123f8565b90505f61358e6124bd565b90505f815111156135aa578080519060200120925050506135ed565b5f826001015490505f801b81146135c6578093505050506135ed565b7fc5d2460186f7233c927e7db2dcc703c0e500b653ca82273b7bfad8045d85a47093505050505b90565b5f805f90505f608084901c111561360f57608083901c92506080810190505b5f604084901c111561362957604083901c92506040810190505b5f602084901c111561364357602083901c92506020810190505b5f601084901c111561365d57601083901c92506010810190505b5f600884901c111561367757600883901c92506008810190505b5f600484901c111561369157600483901c92506004810190505b5f600284901c11156136ab57600283901c92506002810190505b5f600184901c11156136be576001810190505b80915050919050565b5f8183106136d557816136d7565b825b905092915050565b5f60028284186136ef9190615341565b8284166136fc9190614a6d565b905092915050565b5f81836137119190615371565b905092915050565b5f79ffffffffffffffffffffffffffffffffffffffffffffffffffff801682111561377e5760d0826040517f6dfcc6500000000000000000000000000000000000000000000000000000000081526004016137759291906153f7565b60405180910390fd5b819050919050565b5f806137b96137936112b2565b6137a961379f8861255b565b868863ffffffff16565b876138fb9092919063ffffffff16565b91509150935093915050565b5f81836137d2919061541e565b905092915050565b5f6137e36125bd565b5f0160089054906101000a900460ff16905090565b613800612f98565b61380b838383613916565b505050565b5f79ffffffffffffffffffffffffffffffffffffffffffffffffffff8016905090565b5f61383c611ee5565b90505f73ffffffffffffffffffffffffffffffffffffffff168473ffffffffffffffffffffffffffffffffffffffff160361388c57613889816002016137c561388485613719565b613786565b50505b5f73ffffffffffffffffffffffffffffffffffffffff168373ffffffffffffffffffffffffffffffffffffffff16036138da576138d7816002016137046138d285613719565b613786565b50505b6138f56138e685610caf565b6138ef85610caf565b84612c5f565b50505050565b5f8061390a855f018585613b45565b91509150935093915050565b5f61391f611aea565b90505f73ffffffffffffffffffffffffffffffffffffffff168473ffffffffffffffffffffffffffffffffffffffff16036139735781816002015f8282546139679190614a6d565b92505081905550613a45565b5f815f015f8673ffffffffffffffffffffffffffffffffffffffff1673ffffffffffffffffffffffffffffffffffffffff1681526020019081526020015f20549050828110156139fe578481846040517fe450d38c0000000000000000000000000000000000000000000000000000000081526004016139f593929190614e59565b60405180910390fd5b828103825f015f8773ffffffffffffffffffffffffffffffffffffffff1673ffffffffffffffffffffffffffffffffffffffff1681526020019081526020015f2081905550505b5f73ffffffffffffffffffffffffffffffffffffffff168373ffffffffffffffffffffffffffffffffffffffff1603613a8e5781816002015f8282540392505081905550613ada565b81815f015f8573ffffffffffffffffffffffffffffffffffffffff1673ffffffffffffffffffffffffffffffffffffffff1681526020019081526020015f205f82825401925050819055505b8273ffffffffffffffffffffffffffffffffffffffff168473ffffffffffffffffffffffffffffffffffffffff167fddf252ad1be2c89b69c2b068fc378daa952ba7f163c4a11628f55a4df523b3ef84604051613b379190614128565b60405180910390a350505050565b5f805f858054905090505f811115613dc5575f613b6e87600184613b699190614aa0565b612b87565b6040518060400160405290815f82015f9054906101000a900465ffffffffffff1665ffffffffffff1665ffffffffffff1681526020015f820160069054906101000a900479ffffffffffffffffffffffffffffffffffffffffffffffffffff1679ffffffffffffffffffffffffffffffffffffffffffffffffffff1679ffffffffffffffffffffffffffffffffffffffffffffffffffff168152505090508565ffffffffffff16815f015165ffffffffffff161115613c59576040517f2520601d00000000000000000000000000000000000000000000000000000000815260040160405180910390fd5b8565ffffffffffff16815f015165ffffffffffff1603613cdb5784613c8a88600185613c859190614aa0565b612b87565b5f0160066101000a81548179ffffffffffffffffffffffffffffffffffffffffffffffffffff021916908379ffffffffffffffffffffffffffffffffffffffffffffffffffff160217905550613db4565b8660405180604001604052808865ffffffffffff1681526020018779ffffffffffffffffffffffffffffffffffffffffffffffffffff16815250908060018154018082558091505060019003905f5260205f20015f909190919091505f820151815f015f6101000a81548165ffffffffffff021916908365ffffffffffff1602179055506020820151815f0160066101000a81548179ffffffffffffffffffffffffffffffffffffffffffffffffffff021916908379ffffffffffffffffffffffffffffffffffffffffffffffffffff16021790555050505b806020015185935093505050613ea5565b8560405180604001604052808765ffffffffffff1681526020018679ffffffffffffffffffffffffffffffffffffffffffffffffffff16815250908060018154018082558091505060019003905f5260205f20015f909190919091505f820151815f015f6101000a81548165ffffffffffff021916908365ffffffffffff1602179055506020820151815f0160066101000a81548179ffffffffffffffffffffffffffffffffffffffffffffffffffff021916908379ffffffffffffffffffffffffffffffffffffffffffffffffffff16021790555050505f8492509250505b935093915050565b60405180604001604052805f65ffffffffffff1681526020015f79ffffffffffffffffffffffffffffffffffffffffffffffffffff1681525090565b5f80fd5b5f80fd5b5f7fffffffff0000000000000000000000000000000000000000000000000000000082169050919050565b613f2581613ef1565b8114613f2f575f80fd5b50565b5f81359050613f4081613f1c565b92915050565b5f60208284031215613f5b57613f5a613ee9565b5b5f613f6884828501613f32565b91505092915050565b5f8115159050919050565b613f8581613f71565b82525050565b5f602082019050613f9e5f830184613f7c565b92915050565b5f81519050919050565b5f82825260208201905092915050565b5f5b83811015613fdb578082015181840152602081019050613fc0565b5f8484015250505050565b5f601f19601f8301169050919050565b5f61400082613fa4565b61400a8185613fae565b935061401a818560208601613fbe565b61402381613fe6565b840191505092915050565b5f6020820190508181035f8301526140468184613ff6565b905092915050565b5f73ffffffffffffffffffffffffffffffffffffffff82169050919050565b5f6140778261404e565b9050919050565b6140878161406d565b8114614091575f80fd5b50565b5f813590506140a28161407e565b92915050565b5f819050919050565b6140ba816140a8565b81146140c4575f80fd5b50565b5f813590506140d5816140b1565b92915050565b5f80604083850312156140f1576140f0613ee9565b5b5f6140fe85828601614094565b925050602061410f858286016140c7565b9150509250929050565b614122816140a8565b82525050565b5f60208201905061413b5f830184614119565b92915050565b5f805f6060848603121561415857614157613ee9565b5b5f61416586828701614094565b935050602061417686828701614094565b9250506040614187868287016140c7565b9150509250925092565b5f819050919050565b6141a381614191565b81146141ad575f80fd5b50565b5f813590506141be8161419a565b92915050565b5f602082840312156141d9576141d8613ee9565b5b5f6141e6848285016141b0565b91505092915050565b6141f881614191565b82525050565b5f6020820190506142115f8301846141ef565b92915050565b5f806040838503121561422d5761422c613ee9565b5b5f61423a858286016141b0565b925050602061424b85828601614094565b9150509250929050565b5f60ff82169050919050565b61426a81614255565b82525050565b5f6020820190506142835f830184614261565b92915050565b5f6020828403121561429e5761429d613ee9565b5b5f6142ab848285016140c7565b91505092915050565b5f602082840312156142c9576142c8613ee9565b5b5f6142d684828501614094565b91505092915050565b6142e88161406d565b82525050565b5f6020820190506143015f8301846142df565b92915050565b5f6143118261406d565b9050919050565b61432181614307565b811461432b575f80fd5b50565b5f8135905061433c81614318565b92915050565b5f80fd5b5f80fd5b5f80fd5b5f8083601f84011261436357614362614342565b5b8235905067ffffffffffffffff8111156143805761437f614346565b5b60208301915083600182028301111561439c5761439b61434a565b5b9250929050565b5f805f805f608086880312156143bc576143bb613ee9565b5b5f6143c98882890161432e565b95505060206143da88828901614094565b94505060406143eb888289016140c7565b935050606086013567ffffffffffffffff81111561440c5761440b613eed565b5b6144188882890161434e565b92509250509295509295909350565b5f63ffffffff82169050919050565b61443f81614427565b82525050565b5f6020820190506144585f830184614436565b92915050565b5f7fff0000000000000000000000000000000000000000000000000000000000000082169050919050565b6144928161445e565b82525050565b5f81519050919050565b5f82825260208201905092915050565b5f819050602082019050919050565b6144ca816140a8565b82525050565b5f6144db83836144c1565b60208301905092915050565b5f602082019050919050565b5f6144fd82614498565b61450781856144a2565b9350614512836144b2565b805f5b8381101561454257815161452988826144d0565b9750614534836144e7565b925050600181019050614515565b5085935050505092915050565b5f60e0820190506145625f83018a614489565b81810360208301526145748189613ff6565b905081810360408301526145888188613ff6565b90506145976060830187614119565b6145a460808301866142df565b6145b160a08301856141ef565b81810360c08301526145c381846144f3565b905098975050505050505050565b5f65ffffffffffff82169050919050565b6145eb816145d1565b82525050565b5f6020820190506146045f8301846145e2565b92915050565b5f805f6060848603121561462157614620613ee9565b5b5f61462e86828701614094565b935050602061463f86828701614094565b925050604061465086828701614094565b9150509250925092565b61466381614255565b811461466d575f80fd5b50565b5f8135905061467e8161465a565b92915050565b5f805f805f8060c0878903121561469e5761469d613ee9565b5b5f6146ab89828a01614094565b96505060206146bc89828a016140c7565b95505060406146cd89828a016140c7565b94505060606146de89828a01614670565b93505060806146ef89828a016141b0565b92505060a061470089828a016141b0565b9150509295509295509295565b5f805f805f805f60e0888a03121561472857614727613ee9565b5b5f6147358a828b01614094565b97505060206147468a828b01614094565b96505060406147578a828b016140c7565b95505060606147688a828b016140c7565b94505060806147798a828b01614670565b93505060a061478a8a828b016141b0565b92505060c061479b8a828b016141b0565b91505092959891949750929550565b5f80604083850312156147c0576147bf613ee9565b5b5f6147cd85828601614094565b92505060206147de85828601614094565b9150509250929050565b6147f181614427565b81146147fb575f80fd5b50565b5f8135905061480c816147e8565b92915050565b5f806040838503121561482857614827613ee9565b5b5f61483585828601614094565b9250506020614846858286016147fe565b9150509250929050565b614859816145d1565b82525050565b5f79ffffffffffffffffffffffffffffffffffffffffffffffffffff82169050919050565b61488d8161485f565b82525050565b604082015f8201516148a75f850182614850565b5060208201516148ba6020850182614884565b50505050565b5f6040820190506148d35f830184614893565b92915050565b7f4e487b71000000000000000000000000000000000000000000000000000000005f52602260045260245ffd5b5f600282049050600182168061491d57607f821691505b6020821081036149305761492f6148d9565b5b50919050565b5f6040820190506149495f830185614119565b61495660208301846145e2565b9392505050565b5f82825260208201905092915050565b828183375f83830152505050565b5f614986838561495d565b935061499383858461496d565b61499c83613fe6565b840190509392505050565b5f60a0820190506149ba5f8301896142df565b6149c760208301886142df565b6149d46040830187614119565b6149e16060830186614119565b81810360808301526149f481848661497b565b9050979650505050505050565b5f81519050614a0f8161419a565b92915050565b5f60208284031215614a2a57614a29613ee9565b5b5f614a3784828501614a01565b91505092915050565b7f4e487b71000000000000000000000000000000000000000000000000000000005f52601160045260245ffd5b5f614a77826140a8565b9150614a82836140a8565b9250828201905080821115614a9a57614a99614a40565b5b92915050565b5f614aaa826140a8565b9150614ab5836140a8565b9250828203905081811115614acd57614acc614a40565b5b92915050565b7f4549503731323a20556e696e697469616c697a656400000000000000000000005f82015250565b5f614b07601583613fae565b9150614b1282614ad3565b602082019050919050565b5f6020820190508181035f830152614b3481614afb565b9050919050565b7f4e487b71000000000000000000000000000000000000000000000000000000005f52604160045260245ffd5b5f8160011c9050919050565b5f808291508390505b6001851115614bbd57808604811115614b9957614b98614a40565b5b6001851615614ba85780820291505b8081029050614bb685614b68565b9450614b7d565b94509492505050565b5f82614bd55760019050614c90565b81614be2575f9050614c90565b8160018114614bf85760028114614c0257614c31565b6001915050614c90565b60ff841115614c1457614c13614a40565b5b8360020a915084821115614c2b57614c2a614a40565b5b50614c90565b5060208310610133831016604e8410600b8410161715614c665782820a905083811115614c6157614c60614a40565b5b614c90565b614c738484846001614b74565b92509050818404811115614c8a57614c89614a40565b5b81810290505b9392505050565b5f614ca1826140a8565b9150614cac83614255565b9250614cd97fffffffffffffffffffffffffffffffffffffffffffffffffffffffffffffffff8484614bc6565b905092915050565b5f614ceb826140a8565b9150614cf6836140a8565b9250828202614d04816140a8565b91508282048414831517614d1b57614d1a614a40565b5b5092915050565b5f819050919050565b5f67ffffffffffffffff82169050919050565b5f819050919050565b5f614d61614d5c614d5784614d22565b614d3e565b614d2b565b9050919050565b614d7181614d47565b82525050565b5f602082019050614d8a5f830184614d68565b92915050565b5f608082019050614da35f8301876141ef565b614db060208301866142df565b614dbd6040830185614119565b614dca6060830184614119565b95945050505050565b5f60c082019050614de65f8301896141ef565b614df360208301886142df565b614e0060408301876142df565b614e0d6060830186614119565b614e1a6080830185614119565b614e2760a0830184614119565b979650505050505050565b5f604082019050614e455f8301856142df565b614e5260208301846142df565b9392505050565b5f606082019050614e6c5f8301866142df565b614e796020830185614119565b614e866040830184614119565b949350505050565b5f819050919050565b5f614eb1614eac614ea784614e8e565b614d3e565b614255565b9050919050565b614ec181614e97565b82525050565b5f604082019050614eda5f830185614eb8565b614ee76020830184614119565b9392505050565b5f604082019050614f015f8301856142df565b614f0e6020830184614119565b9392505050565b5f604082019050614f285f8301856142df565b614f3560208301846141ef565b9392505050565b5f60a082019050614f4f5f8301886141ef565b614f5c60208301876141ef565b614f6960408301866141ef565b614f766060830185614119565b614f8360808301846142df565b9695505050505050565b7f4e487b71000000000000000000000000000000000000000000000000000000005f52601260045260245ffd5b5f604082019050614fcd5f830185614119565b614fda6020830184614119565b9392505050565b5f819050919050565b5f615004614fff614ffa84614fe1565b614d3e565b614255565b9050919050565b61501481614fea565b82525050565b5f60408201905061502d5f83018561500b565b61503a6020830184614119565b9392505050565b5f819050815f5260205f209050919050565b5f6020601f8301049050919050565b5f82821b905092915050565b5f6008830261509d7fffffffffffffffffffffffffffffffffffffffffffffffffffffffffffffffff82615062565b6150a78683615062565b95508019841693508086168417925050509392505050565b5f6150d96150d46150cf846140a8565b614d3e565b6140a8565b9050919050565b5f819050919050565b6150f2836150bf565b6151066150fe826150e0565b84845461506e565b825550505050565b5f90565b61511a61510e565b6151258184846150e9565b505050565b5b818110156151485761513d5f82615112565b60018101905061512b565b5050565b601f82111561518d5761515e81615041565b61516784615053565b81016020851015615176578190505b61518a61518285615053565b83018261512a565b50505b505050565b5f82821c905092915050565b5f6151ad5f1984600802615192565b1980831691505092915050565b5f6151c5838361519e565b9150826002028217905092915050565b6151de82613fa4565b67ffffffffffffffff8111156151f7576151f6614b3b565b5b6152018254614906565b61520c82828561514c565b5f60209050601f83116001811461523d575f841561522b578287015190505b61523585826151ba565b86555061529c565b601f19841661524b86615041565b5f5b828110156152725784890151825560018201915060208501945060208101905061524d565b8683101561528f578489015161528b601f89168261519e565b8355505b6001600288020188555050505b505050505050565b5f6080820190506152b75f8301876141ef565b6152c46020830186614261565b6152d160408301856141ef565b6152de60608301846141ef565b95945050505050565b7f4e487b71000000000000000000000000000000000000000000000000000000005f52602160045260245ffd5b7f4e487b71000000000000000000000000000000000000000000000000000000005f52603260045260245ffd5b5f61534b826140a8565b9150615356836140a8565b92508261536657615365614f8d565b5b828204905092915050565b5f61537b8261485f565b91506153868361485f565b9250828203905079ffffffffffffffffffffffffffffffffffffffffffffffffffff8111156153b8576153b7614a40565b5b92915050565b5f819050919050565b5f6153e16153dc6153d7846153be565b614d3e565b614255565b9050919050565b6153f1816153c7565b82525050565b5f60408201905061540a5f8301856153e8565b6154176020830184614119565b9392505050565b5f6154288261485f565b91506154338361485f565b9250828201905079ffffffffffffffffffffffffffffffffffffffffffffffffffff81111561546557615464614a40565b5b9291505056fea26469706673582212201d8b65a2ec096dc421c353b6894af3daaacaaa44c36cb40fc07cf4f29b40d0c464736f6c63430008160033",
		"opcodes": "PUSH1 0x80 PUSH1 0x40 MSTORE CALLVALUE DUP1 ISZERO PUSH3 0x10 JUMPI PUSH0 DUP1 REVERT JUMPDEST POP PUSH3 0x21 PUSH3 0x27 PUSH1 0x20 SHL PUSH1 0x20 SHR JUMP JUMPDEST PUSH3 0x191 JUMP JUMPDEST PUSH0 PUSH3 0x38 PUSH3 0x12B PUSH1 0x20 SHL PUSH1 0x20 SHR JUMP JUMPDEST SWAP1 POP DUP1 PUSH0 ADD PUSH1 0x8 SWAP1 SLOAD SWAP1 PUSH2 0x100 EXP SWAP1 DIV PUSH1 0xFF AND ISZERO PUSH3 0x83 JUMPI PUSH1 0x40 MLOAD PUSH32 0xF92EE8A900000000000000000000000000000000000000000000000000000000 DUP2 MSTORE PUSH1 0x4 ADD PUSH1 0x40 MLOAD DUP1 SWAP2 SUB SWAP1 REVERT JUMPDEST PUSH8 0xFFFFFFFFFFFFFFFF DUP1 AND DUP2 PUSH0 ADD PUSH0 SWAP1 SLOAD SWAP1 PUSH2 0x100 EXP SWAP1 DIV PUSH8 0xFFFFFFFFFFFFFFFF AND PUSH8 0xFFFFFFFFFFFFFFFF AND EQ PUSH3 0x128 JUMPI PUSH8 0xFFFFFFFFFFFFFFFF DUP2 PUSH0 ADD PUSH0 PUSH2 0x100 EXP DUP2 SLOAD DUP2 PUSH8 0xFFFFFFFFFFFFFFFF MUL NOT AND SWAP1 DUP4 PUSH8 0xFFFFFFFFFFFFFFFF AND MUL OR SWAP1 SSTORE POP PUSH32 0xC7F505B2F371AE2175EE4913F4499E1F2633A7B5936321EED1CDAEB6115181D2 PUSH8 0xFFFFFFFFFFFFFFFF PUSH1 0x40 MLOAD PUSH3 0x11F SWAP2 SWAP1 PUSH3 0x176 JUMP JUMPDEST PUSH1 0x40 MLOAD DUP1 SWAP2 SUB SWAP1 LOG1 JUMPDEST POP JUMP JUMPDEST PUSH0 PUSH32 0xF0C57E16840DF040F15088DC2F81FE391C3923BEC73E23A9662EFC9C229C6A00 SWAP1 POP SWAP1 JUMP JUMPDEST PUSH0 PUSH8 0xFFFFFFFFFFFFFFFF DUP3 AND SWAP1 POP SWAP2 SWAP1 POP JUMP JUMPDEST PUSH3 0x170 DUP2 PUSH3 0x152 JUMP JUMPDEST DUP3 MSTORE POP POP JUMP JUMPDEST PUSH0 PUSH1 0x20 DUP3 ADD SWAP1 POP PUSH3 0x18B PUSH0 DUP4 ADD DUP5 PUSH3 0x165 JUMP JUMPDEST SWAP3 SWAP2 POP POP JUMP JUMPDEST PUSH2 0x54A1 DUP1 PUSH3 0x19F PUSH0 CODECOPY PUSH0 RETURN INVALID PUSH1 0x80 PUSH1 0x40 MSTORE CALLVALUE DUP1 ISZERO PUSH2 0xF JUMPI PUSH0 DUP1 REVERT JUMPDEST POP PUSH1 0x4 CALLDATASIZE LT PUSH2 0x25C JUMPI PUSH0 CALLDATALOAD PUSH1 0xE0 SHR DUP1 PUSH4 0x70A08231 GT PUSH2 0x144 JUMPI DUP1 PUSH4 0xA217FDDF GT PUSH2 0xC1 JUMPI DUP1 PUSH4 0xD5391393 GT PUSH2 0x85 JUMPI DUP1 PUSH4 0xD5391393 EQ PUSH2 0x772 JUMPI DUP1 PUSH4 0xD547741F EQ PUSH2 0x790 JUMPI DUP1 PUSH4 0xD9D98CE4 EQ PUSH2 0x7AC JUMPI DUP1 PUSH4 0xDD62ED3E EQ PUSH2 0x7DC JUMPI DUP1 PUSH4 0xE63AB1E9 EQ PUSH2 0x80C JUMPI DUP1 PUSH4 0xF1127ED8 EQ PUSH2 0x82A JUMPI PUSH2 0x25C JUMP JUMPDEST DUP1 PUSH4 0xA217FDDF EQ PUSH2 0x6D0 JUMPI DUP1 PUSH4 0xA9059CBB EQ PUSH2 0x6EE JUMPI DUP1 PUSH4 0xC0C53B8B EQ PUSH2 0x71E JUMPI DUP1 PUSH4 0xC3CDA520 EQ PUSH2 0x73A JUMPI DUP1 PUSH4 0xD505ACCF EQ PUSH2 0x756 JUMPI PUSH2 0x25C JUMP JUMPDEST DUP1 PUSH4 0x8E539E8C GT PUSH2 0x108 JUMPI DUP1 PUSH4 0x8E539E8C EQ PUSH2 0x604 JUMPI DUP1 PUSH4 0x91D14854 EQ PUSH2 0x634 JUMPI DUP1 PUSH4 0x91DDADF4 EQ PUSH2 0x664 JUMPI DUP1 PUSH4 0x95D89B41 EQ PUSH2 0x682 JUMPI DUP1 PUSH4 0x9AB24EB0 EQ PUSH2 0x6A0 JUMPI PUSH2 0x25C JUMP JUMPDEST DUP1 PUSH4 0x70A08231 EQ PUSH2 0x55A JUMPI DUP1 PUSH4 0x79CC6790 EQ PUSH2 0x58A JUMPI DUP1 PUSH4 0x7ECEBE00 EQ PUSH2 0x5A6 JUMPI DUP1 PUSH4 0x8456CB59 EQ PUSH2 0x5D6 JUMPI DUP1 PUSH4 0x84B0196E EQ PUSH2 0x5E0 JUMPI PUSH2 0x25C JUMP JUMPDEST DUP1 PUSH4 0x3A46B1A8 GT PUSH2 0x1DD JUMPI DUP1 PUSH4 0x587CDE1E GT PUSH2 0x1A1 JUMPI DUP1 PUSH4 0x587CDE1E EQ PUSH2 0x460 JUMPI DUP1 PUSH4 0x5C19A95C EQ PUSH2 0x490 JUMPI DUP1 PUSH4 0x5C975ABB EQ PUSH2 0x4AC JUMPI DUP1 PUSH4 0x5CFFE9DE EQ PUSH2 0x4CA JUMPI DUP1 PUSH4 0x613255AB EQ PUSH2 0x4FA JUMPI DUP1 PUSH4 0x6FCFFF45 EQ PUSH2 0x52A JUMPI PUSH2 0x25C JUMP JUMPDEST DUP1 PUSH4 0x3A46B1A8 EQ PUSH2 0x3D0 JUMPI DUP1 PUSH4 0x3F4BA83A EQ PUSH2 0x400 JUMPI DUP1 PUSH4 0x40C10F19 EQ PUSH2 0x40A JUMPI DUP1 PUSH4 0x42966C68 EQ PUSH2 0x426 JUMPI DUP1 PUSH4 0x4BF5D7E9 EQ PUSH2 0x442 JUMPI PUSH2 0x25C JUMP JUMPDEST DUP1 PUSH4 0x248A9CA3 GT PUSH2 0x224 JUMPI DUP1 PUSH4 0x248A9CA3 EQ PUSH2 0x32C JUMPI DUP1 PUSH4 0x2F2FF15D EQ PUSH2 0x35C JUMPI DUP1 PUSH4 0x313CE567 EQ PUSH2 0x378 JUMPI DUP1 PUSH4 0x3644E515 EQ PUSH2 0x396 JUMPI DUP1 PUSH4 0x36568ABE EQ PUSH2 0x3B4 JUMPI PUSH2 0x25C JUMP JUMPDEST DUP1 PUSH4 0x1FFC9A7 EQ PUSH2 0x260 JUMPI DUP1 PUSH4 0x6FDDE03 EQ PUSH2 0x290 JUMPI DUP1 PUSH4 0x95EA7B3 EQ PUSH2 0x2AE JUMPI DUP1 PUSH4 0x18160DDD EQ PUSH2 0x2DE JUMPI DUP1 PUSH4 0x23B872DD EQ PUSH2 0x2FC JUMPI JUMPDEST PUSH0 DUP1 REVERT JUMPDEST PUSH2 0x27A PUSH1 0x4 DUP1 CALLDATASIZE SUB DUP2 ADD SWAP1 PUSH2 0x275 SWAP2 SWAP1 PUSH2 0x3F46 JUMP JUMPDEST PUSH2 0x85A JUMP JUMPDEST PUSH1 0x40 MLOAD PUSH2 0x287 SWAP2 SWAP1 PUSH2 0x3F8B JUMP JUMPDEST PUSH1 0x40 MLOAD DUP1 SWAP2 SUB SWAP1 RETURN JUMPDEST PUSH2 0x298 PUSH2 0x8D3 JUMP JUMPDEST PUSH1 0x40 MLOAD PUSH2 0x2A5 SWAP2 SWAP1 PUSH2 0x402E JUMP JUMPDEST PUSH1 0x40 MLOAD DUP1 SWAP2 SUB SWAP1 RETURN JUMPDEST PUSH2 0x2C8 PUSH1 0x4 DUP1 CALLDATASIZE SUB DUP2 ADD SWAP1 PUSH2 0x2C3 SWAP2 SWAP1 PUSH2 0x40DB JUMP JUMPDEST PUSH2 0x971 JUMP JUMPDEST PUSH1 0x40 MLOAD PUSH2 0x2D5 SWAP2 SWAP1 PUSH2 0x3F8B JUMP JUMPDEST PUSH1 0x40 MLOAD DUP1 SWAP2 SUB SWAP1 RETURN JUMPDEST PUSH2 0x2E6 PUSH2 0x993 JUMP JUMPDEST PUSH1 0x40 MLOAD PUSH2 0x2F3 SWAP2 SWAP1 PUSH2 0x4128 JUMP JUMPDEST PUSH1 0x40 MLOAD DUP1 SWAP2 SUB SWAP1 RETURN JUMPDEST PUSH2 0x316 PUSH1 0x4 DUP1 CALLDATASIZE SUB DUP2 ADD SWAP1 PUSH2 0x311 SWAP2 SWAP1 PUSH2 0x4141 JUMP JUMPDEST PUSH2 0x9AA JUMP JUMPDEST PUSH1 0x40 MLOAD PUSH2 0x323 SWAP2 SWAP1 PUSH2 0x3F8B JUMP JUMPDEST PUSH1 0x40 MLOAD DUP1 SWAP2 SUB SWAP1 RETURN JUMPDEST PUSH2 0x346 PUSH1 0x4 DUP1 CALLDATASIZE SUB DUP2 ADD SWAP1 PUSH2 0x341 SWAP2 SWAP1 PUSH2 0x41C4 JUMP JUMPDEST PUSH2 0x9D8 JUMP JUMPDEST PUSH1 0x40 MLOAD PUSH2 0x353 SWAP2 SWAP1 PUSH2 0x41FE JUMP JUMPDEST PUSH1 0x40 MLOAD DUP1 SWAP2 SUB SWAP1 RETURN JUMPDEST PUSH2 0x376 PUSH1 0x4 DUP1 CALLDATASIZE SUB DUP2 ADD SWAP1 PUSH2 0x371 SWAP2 SWAP1 PUSH2 0x4217 JUMP JUMPDEST PUSH2 0xA02 JUMP JUMPDEST STOP JUMPDEST PUSH2 0x380 PUSH2 0xA24 JUMP JUMPDEST PUSH1 0x40 MLOAD PUSH2 0x38D SWAP2 SWAP1 PUSH2 0x4270 JUMP JUMPDEST PUSH1 0x40 MLOAD DUP1 SWAP2 SUB SWAP1 RETURN JUMPDEST PUSH2 0x39E PUSH2 0xA2C JUMP JUMPDEST PUSH1 0x40 MLOAD PUSH2 0x3AB SWAP2 SWAP1 PUSH2 0x41FE JUMP JUMPDEST PUSH1 0x40 MLOAD DUP1 SWAP2 SUB SWAP1 RETURN JUMPDEST PUSH2 0x3CE PUSH1 0x4 DUP1 CALLDATASIZE SUB DUP2 ADD SWAP1 PUSH2 0x3C9 SWAP2 SWAP1 PUSH2 0x4217 JUMP JUMPDEST PUSH2 0xA3A JUMP JUMPDEST STOP JUMPDEST PUSH2 0x3EA PUSH1 0x4 DUP1 CALLDATASIZE SUB DUP2 ADD SWAP1 PUSH2 0x3E5 SWAP2 SWAP1 PUSH2 0x40DB JUMP JUMPDEST PUSH2 0xAB5 JUMP JUMPDEST PUSH1 0x40 MLOAD PUSH2 0x3F7 SWAP2 SWAP1 PUSH2 0x4128 JUMP JUMPDEST PUSH1 0x40 MLOAD DUP1 SWAP2 SUB SWAP1 RETURN JUMPDEST PUSH2 0x408 PUSH2 0xB99 JUMP JUMPDEST STOP JUMPDEST PUSH2 0x424 PUSH1 0x4 DUP1 CALLDATASIZE SUB DUP2 ADD SWAP1 PUSH2 0x41F SWAP2 SWAP1 PUSH2 0x40DB JUMP JUMPDEST PUSH2 0xBCE JUMP JUMPDEST STOP JUMPDEST PUSH2 0x440 PUSH1 0x4 DUP1 CALLDATASIZE SUB DUP2 ADD SWAP1 PUSH2 0x43B SWAP2 SWAP1 PUSH2 0x4289 JUMP JUMPDEST PUSH2 0xC07 JUMP JUMPDEST STOP JUMPDEST PUSH2 0x44A PUSH2 0xC1B JUMP JUMPDEST PUSH1 0x40 MLOAD PUSH2 0x457 SWAP2 SWAP1 PUSH2 0x402E JUMP JUMPDEST PUSH1 0x40 MLOAD DUP1 SWAP2 SUB SWAP1 RETURN JUMPDEST PUSH2 0x47A PUSH1 0x4 DUP1 CALLDATASIZE SUB DUP2 ADD SWAP1 PUSH2 0x475 SWAP2 SWAP1 PUSH2 0x42B4 JUMP JUMPDEST PUSH2 0xCAF JUMP JUMPDEST PUSH1 0x40 MLOAD PUSH2 0x487 SWAP2 SWAP1 PUSH2 0x42EE JUMP JUMPDEST PUSH1 0x40 MLOAD DUP1 SWAP2 SUB SWAP1 RETURN JUMPDEST PUSH2 0x4AA PUSH1 0x4 DUP1 CALLDATASIZE SUB DUP2 ADD SWAP1 PUSH2 0x4A5 SWAP2 SWAP1 PUSH2 0x42B4 JUMP JUMPDEST PUSH2 0xD21 JUMP JUMPDEST STOP JUMPDEST PUSH2 0x4B4 PUSH2 0xD3A JUMP JUMPDEST PUSH1 0x40 MLOAD PUSH2 0x4C1 SWAP2 SWAP1 PUSH2 0x3F8B JUMP JUMPDEST PUSH1 0x40 MLOAD DUP1 SWAP2 SUB SWAP1 RETURN JUMPDEST PUSH2 0x4E4 PUSH1 0x4 DUP1 CALLDATASIZE SUB DUP2 ADD SWAP1 PUSH2 0x4DF SWAP2 SWAP1 PUSH2 0x43A3 JUMP JUMPDEST PUSH2 0xD5C JUMP JUMPDEST PUSH1 0x40 MLOAD PUSH2 0x4F1 SWAP2 SWAP1 PUSH2 0x3F8B JUMP JUMPDEST PUSH1 0x40 MLOAD DUP1 SWAP2 SUB SWAP1 RETURN JUMPDEST PUSH2 0x514 PUSH1 0x4 DUP1 CALLDATASIZE SUB DUP2 ADD SWAP1 PUSH2 0x50F SWAP2 SWAP1 PUSH2 0x42B4 JUMP JUMPDEST PUSH2 0xF51 JUMP JUMPDEST PUSH1 0x40 MLOAD PUSH2 0x521 SWAP2 SWAP1 PUSH2 0x4128 JUMP JUMPDEST PUSH1 0x40 MLOAD DUP1 SWAP2 SUB SWAP1 RETURN JUMPDEST PUSH2 0x544 PUSH1 0x4 DUP1 CALLDATASIZE SUB DUP2 ADD SWAP1 PUSH2 0x53F SWAP2 SWAP1 PUSH2 0x42B4 JUMP JUMPDEST PUSH2 0xFC6 JUMP JUMPDEST PUSH1 0x40 MLOAD PUSH2 0x551 SWAP2 SWAP1 PUSH2 0x4445 JUMP JUMPDEST PUSH1 0x40 MLOAD DUP1 SWAP2 SUB SWAP1 RETURN JUMPDEST PUSH2 0x574 PUSH1 0x4 DUP1 CALLDATASIZE SUB DUP2 ADD SWAP1 PUSH2 0x56F SWAP2 SWAP1 PUSH2 0x42B4 JUMP JUMPDEST PUSH2 0xFD7 JUMP JUMPDEST PUSH1 0x40 MLOAD PUSH2 0x581 SWAP2 SWAP1 PUSH2 0x4128 JUMP JUMPDEST PUSH1 0x40 MLOAD DUP1 SWAP2 SUB SWAP1 RETURN JUMPDEST PUSH2 0x5A4 PUSH1 0x4 DUP1 CALLDATASIZE SUB DUP2 ADD SWAP1 PUSH2 0x59F SWAP2 SWAP1 PUSH2 0x40DB JUMP JUMPDEST PUSH2 0x102A JUMP JUMPDEST STOP JUMPDEST PUSH2 0x5C0 PUSH1 0x4 DUP1 CALLDATASIZE SUB DUP2 ADD SWAP1 PUSH2 0x5BB SWAP2 SWAP1 PUSH2 0x42B4 JUMP JUMPDEST PUSH2 0x104A JUMP JUMPDEST PUSH1 0x40 MLOAD PUSH2 0x5CD SWAP2 SWAP1 PUSH2 0x4128 JUMP JUMPDEST PUSH1 0x40 MLOAD DUP1 SWAP2 SUB SWAP1 RETURN JUMPDEST PUSH2 0x5DE PUSH2 0x105B JUMP JUMPDEST STOP JUMPDEST PUSH2 0x5E8 PUSH2 0x1090 JUMP JUMPDEST PUSH1 0x40 MLOAD PUSH2 0x5FB SWAP8 SWAP7 SWAP6 SWAP5 SWAP4 SWAP3 SWAP2 SWAP1 PUSH2 0x454F JUMP JUMPDEST PUSH1 0x40 MLOAD DUP1 SWAP2 SUB SWAP1 RETURN JUMPDEST PUSH2 0x61E PUSH1 0x4 DUP1 CALLDATASIZE SUB DUP2 ADD SWAP1 PUSH2 0x619 SWAP2 SWAP1 PUSH2 0x4289 JUMP JUMPDEST PUSH2 0x1199 JUMP JUMPDEST PUSH1 0x40 MLOAD PUSH2 0x62B SWAP2 SWAP1 PUSH2 0x4128 JUMP JUMPDEST PUSH1 0x40 MLOAD DUP1 SWAP2 SUB SWAP1 RETURN JUMPDEST PUSH2 0x64E PUSH1 0x4 DUP1 CALLDATASIZE SUB DUP2 ADD SWAP1 PUSH2 0x649 SWAP2 SWAP1 PUSH2 0x4217 JUMP JUMPDEST PUSH2 0x1241 JUMP JUMPDEST PUSH1 0x40 MLOAD PUSH2 0x65B SWAP2 SWAP1 PUSH2 0x3F8B JUMP JUMPDEST PUSH1 0x40 MLOAD DUP1 SWAP2 SUB SWAP1 RETURN JUMPDEST PUSH2 0x66C PUSH2 0x12B2 JUMP JUMPDEST PUSH1 0x40 MLOAD PUSH2 0x679 SWAP2 SWAP1 PUSH2 0x45F1 JUMP JUMPDEST PUSH1 0x40 MLOAD DUP1 SWAP2 SUB SWAP1 RETURN JUMPDEST PUSH2 0x68A PUSH2 0x12C0 JUMP JUMPDEST PUSH1 0x40 MLOAD PUSH2 0x697 SWAP2 SWAP1 PUSH2 0x402E JUMP JUMPDEST PUSH1 0x40 MLOAD DUP1 SWAP2 SUB SWAP1 RETURN JUMPDEST PUSH2 0x6BA PUSH1 0x4 DUP1 CALLDATASIZE SUB DUP2 ADD SWAP1 PUSH2 0x6B5 SWAP2 SWAP1 PUSH2 0x42B4 JUMP JUMPDEST PUSH2 0x135E JUMP JUMPDEST PUSH1 0x40 MLOAD PUSH2 0x6C7 SWAP2 SWAP1 PUSH2 0x4128 JUMP JUMPDEST PUSH1 0x40 MLOAD DUP1 SWAP2 SUB SWAP1 RETURN JUMPDEST PUSH2 0x6D8 PUSH2 0x13D5 JUMP JUMPDEST PUSH1 0x40 MLOAD PUSH2 0x6E5 SWAP2 SWAP1 PUSH2 0x41FE JUMP JUMPDEST PUSH1 0x40 MLOAD DUP1 SWAP2 SUB SWAP1 RETURN JUMPDEST PUSH2 0x708 PUSH1 0x4 DUP1 CALLDATASIZE SUB DUP2 ADD SWAP1 PUSH2 0x703 SWAP2 SWAP1 PUSH2 0x40DB JUMP JUMPDEST PUSH2 0x13DB JUMP JUMPDEST PUSH1 0x40 MLOAD PUSH2 0x715 SWAP2 SWAP1 PUSH2 0x3F8B JUMP JUMPDEST PUSH1 0x40 MLOAD DUP1 SWAP2 SUB SWAP1 RETURN JUMPDEST PUSH2 0x738 PUSH1 0x4 DUP1 CALLDATASIZE SUB DUP2 ADD SWAP1 PUSH2 0x733 SWAP2 SWAP1 PUSH2 0x460A JUMP JUMPDEST PUSH2 0x13FD JUMP JUMPDEST STOP JUMPDEST PUSH2 0x754 PUSH1 0x4 DUP1 CALLDATASIZE SUB DUP2 ADD SWAP1 PUSH2 0x74F SWAP2 SWAP1 PUSH2 0x4684 JUMP JUMPDEST PUSH2 0x16E0 JUMP JUMPDEST STOP JUMPDEST PUSH2 0x770 PUSH1 0x4 DUP1 CALLDATASIZE SUB DUP2 ADD SWAP1 PUSH2 0x76B SWAP2 SWAP1 PUSH2 0x470D JUMP JUMPDEST PUSH2 0x17A5 JUMP JUMPDEST STOP JUMPDEST PUSH2 0x77A PUSH2 0x18EA JUMP JUMPDEST PUSH1 0x40 MLOAD PUSH2 0x787 SWAP2 SWAP1 PUSH2 0x41FE JUMP JUMPDEST PUSH1 0x40 MLOAD DUP1 SWAP2 SUB SWAP1 RETURN JUMPDEST PUSH2 0x7AA PUSH1 0x4 DUP1 CALLDATASIZE SUB DUP2 ADD SWAP1 PUSH2 0x7A5 SWAP2 SWAP1 PUSH2 0x4217 JUMP JUMPDEST PUSH2 0x190E JUMP JUMPDEST STOP JUMPDEST PUSH2 0x7C6 PUSH1 0x4 DUP1 CALLDATASIZE SUB DUP2 ADD SWAP1 PUSH2 0x7C1 SWAP2 SWAP1 PUSH2 0x40DB JUMP JUMPDEST PUSH2 0x1930 JUMP JUMPDEST PUSH1 0x40 MLOAD PUSH2 0x7D3 SWAP2 SWAP1 PUSH2 0x4128 JUMP JUMPDEST PUSH1 0x40 MLOAD DUP1 SWAP2 SUB SWAP1 RETURN JUMPDEST PUSH2 0x7F6 PUSH1 0x4 DUP1 CALLDATASIZE SUB DUP2 ADD SWAP1 PUSH2 0x7F1 SWAP2 SWAP1 PUSH2 0x47AA JUMP JUMPDEST PUSH2 0x19B3 JUMP JUMPDEST PUSH1 0x40 MLOAD PUSH2 0x803 SWAP2 SWAP1 PUSH2 0x4128 JUMP JUMPDEST PUSH1 0x40 MLOAD DUP1 SWAP2 SUB SWAP1 RETURN JUMPDEST PUSH2 0x814 PUSH2 0x1A43 JUMP JUMPDEST PUSH1 0x40 MLOAD PUSH2 0x821 SWAP2 SWAP1 PUSH2 0x41FE JUMP JUMPDEST PUSH1 0x40 MLOAD DUP1 SWAP2 SUB SWAP1 RETURN JUMPDEST PUSH2 0x844 PUSH1 0x4 DUP1 CALLDATASIZE SUB DUP2 ADD SWAP1 PUSH2 0x83F SWAP2 SWAP1 PUSH2 0x4812 JUMP JUMPDEST PUSH2 0x1A67 JUMP JUMPDEST PUSH1 0x40 MLOAD PUSH2 0x851 SWAP2 SWAP1 PUSH2 0x48C0 JUMP JUMPDEST PUSH1 0x40 MLOAD DUP1 SWAP2 SUB SWAP1 RETURN JUMPDEST PUSH0 PUSH32 0x7965DB0B00000000000000000000000000000000000000000000000000000000 PUSH28 0xFFFFFFFFFFFFFFFFFFFFFFFFFFFFFFFFFFFFFFFFFFFFFFFFFFFFFFFF NOT AND DUP3 PUSH28 0xFFFFFFFFFFFFFFFFFFFFFFFFFFFFFFFFFFFFFFFFFFFFFFFFFFFFFFFF NOT AND EQ DUP1 PUSH2 0x8CC JUMPI POP PUSH2 0x8CB DUP3 PUSH2 0x1A81 JUMP JUMPDEST JUMPDEST SWAP1 POP SWAP2 SWAP1 POP JUMP JUMPDEST PUSH1 0x60 PUSH0 PUSH2 0x8DE PUSH2 0x1AEA JUMP JUMPDEST SWAP1 POP DUP1 PUSH1 0x3 ADD DUP1 SLOAD PUSH2 0x8EF SWAP1 PUSH2 0x4906 JUMP JUMPDEST DUP1 PUSH1 0x1F ADD PUSH1 0x20 DUP1 SWAP2 DIV MUL PUSH1 0x20 ADD PUSH1 0x40 MLOAD SWAP1 DUP2 ADD PUSH1 0x40 MSTORE DUP1 SWAP3 SWAP2 SWAP1 DUP2 DUP2 MSTORE PUSH1 0x20 ADD DUP3 DUP1 SLOAD PUSH2 0x91B SWAP1 PUSH2 0x4906 JUMP JUMPDEST DUP1 ISZERO PUSH2 0x966 JUMPI DUP1 PUSH1 0x1F LT PUSH2 0x93D JUMPI PUSH2 0x100 DUP1 DUP4 SLOAD DIV MUL DUP4 MSTORE SWAP2 PUSH1 0x20 ADD SWAP2 PUSH2 0x966 JUMP JUMPDEST DUP3 ADD SWAP2 SWAP1 PUSH0 MSTORE PUSH1 0x20 PUSH0 KECCAK256 SWAP1 JUMPDEST DUP2 SLOAD DUP2 MSTORE SWAP1 PUSH1 0x1 ADD SWAP1 PUSH1 0x20 ADD DUP1 DUP4 GT PUSH2 0x949 JUMPI DUP3 SWAP1 SUB PUSH1 0x1F AND DUP3 ADD SWAP2 JUMPDEST POP POP POP POP POP SWAP2 POP POP SWAP1 JUMP JUMPDEST PUSH0 DUP1 PUSH2 0x97B PUSH2 0x1B11 JUMP JUMPDEST SWAP1 POP PUSH2 0x988 DUP2 DUP6 DUP6 PUSH2 0x1B18 JUMP JUMPDEST PUSH1 0x1 SWAP2 POP POP SWAP3 SWAP2 POP POP JUMP JUMPDEST PUSH0 DUP1 PUSH2 0x99D PUSH2 0x1AEA JUMP JUMPDEST SWAP1 POP DUP1 PUSH1 0x2 ADD SLOAD SWAP2 POP POP SWAP1 JUMP JUMPDEST PUSH0 DUP1 PUSH2 0x9B4 PUSH2 0x1B11 JUMP JUMPDEST SWAP1 POP PUSH2 0x9C1 DUP6 DUP3 DUP6 PUSH2 0x1B2A JUMP JUMPDEST PUSH2 0x9CC DUP6 DUP6 DUP6 PUSH2 0x1BBC JUMP JUMPDEST PUSH1 0x1 SWAP2 POP POP SWAP4 SWAP3 POP POP POP JUMP JUMPDEST PUSH0 DUP1 PUSH2 0x9E2 PUSH2 0x1CAC JUMP JUMPDEST SWAP1 POP DUP1 PUSH0 ADD PUSH0 DUP5 DUP2 MSTORE PUSH1 0x20 ADD SWAP1 DUP2 MSTORE PUSH1 0x20 ADD PUSH0 KECCAK256 PUSH1 0x1 ADD SLOAD SWAP2 POP POP SWAP2 SWAP1 POP JUMP JUMPDEST PUSH2 0xA0B DUP3 PUSH2 0x9D8 JUMP JUMPDEST PUSH2 0xA14 DUP2 PUSH2 0x1CD3 JUMP JUMPDEST PUSH2 0xA1E DUP4 DUP4 PUSH2 0x1CE7 JUMP JUMPDEST POP POP POP POP JUMP JUMPDEST PUSH0 PUSH1 0x12 SWAP1 POP SWAP1 JUMP JUMPDEST PUSH0 PUSH2 0xA35 PUSH2 0x1DDF JUMP JUMPDEST SWAP1 POP SWAP1 JUMP JUMPDEST PUSH2 0xA42 PUSH2 0x1B11 JUMP JUMPDEST PUSH20 0xFFFFFFFFFFFFFFFFFFFFFFFFFFFFFFFFFFFFFFFF AND DUP2 PUSH20 0xFFFFFFFFFFFFFFFFFFFFFFFFFFFFFFFFFFFFFFFF AND EQ PUSH2 0xAA6 JUMPI PUSH1 0x40 MLOAD PUSH32 0x6697B23200000000000000000000000000000000000000000000000000000000 DUP2 MSTORE PUSH1 0x4 ADD PUSH1 0x40 MLOAD DUP1 SWAP2 SUB SWAP1 REVERT JUMPDEST PUSH2 0xAB0 DUP3 DUP3 PUSH2 0x1DED JUMP JUMPDEST POP POP POP JUMP JUMPDEST PUSH0 DUP1 PUSH2 0xABF PUSH2 0x1EE5 JUMP JUMPDEST SWAP1 POP PUSH0 PUSH2 0xACA PUSH2 0x12B2 JUMP JUMPDEST SWAP1 POP DUP1 PUSH6 0xFFFFFFFFFFFF AND DUP5 LT PUSH2 0xB1A JUMPI DUP4 DUP2 PUSH1 0x40 MLOAD PUSH32 0xECD3F81E00000000000000000000000000000000000000000000000000000000 DUP2 MSTORE PUSH1 0x4 ADD PUSH2 0xB11 SWAP3 SWAP2 SWAP1 PUSH2 0x4936 JUMP JUMPDEST PUSH1 0x40 MLOAD DUP1 SWAP2 SUB SWAP1 REVERT JUMPDEST PUSH2 0xB73 PUSH2 0xB26 DUP6 PUSH2 0x1F0C JUMP JUMPDEST DUP4 PUSH1 0x1 ADD PUSH0 DUP9 PUSH20 0xFFFFFFFFFFFFFFFFFFFFFFFFFFFFFFFFFFFFFFFF AND PUSH20 0xFFFFFFFFFFFFFFFFFFFFFFFFFFFFFFFFFFFFFFFF AND DUP2 MSTORE PUSH1 0x20 ADD SWAP1 DUP2 MSTORE PUSH1 0x20 ADD PUSH0 KECCAK256 PUSH2 0x1F65 SWAP1 SWAP2 SWAP1 PUSH4 0xFFFFFFFF AND JUMP JUMPDEST PUSH26 0xFFFFFFFFFFFFFFFFFFFFFFFFFFFFFFFFFFFFFFFFFFFFFFFFFFFF AND SWAP3 POP POP POP SWAP3 SWAP2 POP POP JUMP JUMPDEST PUSH32 0x65D7A28E3265B37A6474929F336521B332C1681B933F6CB9F3376673440D862A PUSH2 0xBC3 DUP2 PUSH2 0x1CD3 JUMP JUMPDEST PUSH2 0xBCB PUSH2 0x2052 JUMP JUMPDEST POP JUMP JUMPDEST PUSH32 0x9F2DF0FED2C77648DE5860A4CC508CD0818C85B8B8A1AB4CEEEF8D981C8956A6 PUSH2 0xBF8 DUP2 PUSH2 0x1CD3 JUMP JUMPDEST PUSH2 0xC02 DUP4 DUP4 PUSH2 0x20C0 JUMP JUMPDEST POP POP POP JUMP JUMPDEST PUSH2 0xC18 PUSH2 0xC12 PUSH2 0x1B11 JUMP JUMPDEST DUP3 PUSH2 0x213F JUMP JUMPDEST POP JUMP JUMPDEST PUSH1 0x60 PUSH2 0xC25 PUSH2 0x21BE JUMP JUMPDEST PUSH6 0xFFFFFFFFFFFF AND PUSH2 0xC35 PUSH2 0x12B2 JUMP JUMPDEST PUSH6 0xFFFFFFFFFFFF AND EQ PUSH2 0xC74 JUMPI PUSH1 0x40 MLOAD PUSH32 0x6FF0714000000000000000000000000000000000000000000000000000000000 DUP2 MSTORE PUSH1 0x4 ADD PUSH1 0x40 MLOAD DUP1 SWAP2 SUB SWAP1 REVERT JUMPDEST PUSH1 0x40 MLOAD DUP1 PUSH1 0x40 ADD PUSH1 0x40 MSTORE DUP1 PUSH1 0x1D DUP2 MSTORE PUSH1 0x20 ADD PUSH32 0x6D6F64653D626C6F636B6E756D6265722666726F6D3D64656661756C74000000 DUP2 MSTORE POP SWAP1 POP SWAP1 JUMP JUMPDEST PUSH0 DUP1 PUSH2 0xCB9 PUSH2 0x1EE5 JUMP JUMPDEST SWAP1 POP DUP1 PUSH0 ADD PUSH0 DUP5 PUSH20 0xFFFFFFFFFFFFFFFFFFFFFFFFFFFFFFFFFFFFFFFF AND PUSH20 0xFFFFFFFFFFFFFFFFFFFFFFFFFFFFFFFFFFFFFFFF AND DUP2 MSTORE PUSH1 0x20 ADD SWAP1 DUP2 MSTORE PUSH1 0x20 ADD PUSH0 KECCAK256 PUSH0 SWAP1 SLOAD SWAP1 PUSH2 0x100 EXP SWAP1 DIV PUSH20 0xFFFFFFFFFFFFFFFFFFFFFFFFFFFFFFFFFFFFFFFF AND SWAP2 POP POP SWAP2 SWAP1 POP JUMP JUMPDEST PUSH0 PUSH2 0xD2A PUSH2 0x1B11 JUMP JUMPDEST SWAP1 POP PUSH2 0xD36 DUP2 DUP4 PUSH2 0x21CD JUMP JUMPDEST POP POP JUMP JUMPDEST PUSH0 DUP1 PUSH2 0xD44 PUSH2 0x22EA JUMP JUMPDEST SWAP1 POP DUP1 PUSH0 ADD PUSH0 SWAP1 SLOAD SWAP1 PUSH2 0x100 EXP SWAP1 DIV PUSH1 0xFF AND SWAP2 POP POP SWAP1 JUMP JUMPDEST PUSH0 DUP1 PUSH2 0xD67 DUP7 PUSH2 0xF51 JUMP JUMPDEST SWAP1 POP DUP1 DUP6 GT ISZERO PUSH2 0xDAE JUMPI DUP1 PUSH1 0x40 MLOAD PUSH32 0xFD9A760900000000000000000000000000000000000000000000000000000000 DUP2 MSTORE PUSH1 0x4 ADD PUSH2 0xDA5 SWAP2 SWAP1 PUSH2 0x4128 JUMP JUMPDEST PUSH1 0x40 MLOAD DUP1 SWAP2 SUB SWAP1 REVERT JUMPDEST PUSH0 PUSH2 0xDB9 DUP8 DUP8 PUSH2 0x1930 JUMP JUMPDEST SWAP1 POP PUSH2 0xDC5 DUP9 DUP8 PUSH2 0x20C0 JUMP JUMPDEST PUSH32 0x439148F0BBC682CA079E46D6E2C2F0C1E3B820F1A291B069D8882ABF8CF18DD9 DUP9 PUSH20 0xFFFFFFFFFFFFFFFFFFFFFFFFFFFFFFFFFFFFFFFF AND PUSH4 0x23E30C8B PUSH2 0xE0A PUSH2 0x1B11 JUMP JUMPDEST DUP11 DUP11 DUP7 DUP12 DUP12 PUSH1 0x40 MLOAD DUP8 PUSH4 0xFFFFFFFF AND PUSH1 0xE0 SHL DUP2 MSTORE PUSH1 0x4 ADD PUSH2 0xE30 SWAP7 SWAP6 SWAP5 SWAP4 SWAP3 SWAP2 SWAP1 PUSH2 0x49A7 JUMP JUMPDEST PUSH1 0x20 PUSH1 0x40 MLOAD DUP1 DUP4 SUB DUP2 PUSH0 DUP8 GAS CALL ISZERO DUP1 ISZERO PUSH2 0xE4C JUMPI RETURNDATASIZE PUSH0 DUP1 RETURNDATACOPY RETURNDATASIZE PUSH0 REVERT JUMPDEST POP POP POP POP PUSH1 0x40 MLOAD RETURNDATASIZE PUSH1 0x1F NOT PUSH1 0x1F DUP3 ADD AND DUP3 ADD DUP1 PUSH1 0x40 MSTORE POP DUP2 ADD SWAP1 PUSH2 0xE70 SWAP2 SWAP1 PUSH2 0x4A15 JUMP JUMPDEST EQ PUSH2 0xEB2 JUMPI DUP8 PUSH1 0x40 MLOAD PUSH32 0x678C5B0000000000000000000000000000000000000000000000000000000000 DUP2 MSTORE PUSH1 0x4 ADD PUSH2 0xEA9 SWAP2 SWAP1 PUSH2 0x42EE JUMP JUMPDEST PUSH1 0x40 MLOAD DUP1 SWAP2 SUB SWAP1 REVERT JUMPDEST PUSH0 PUSH2 0xEBB PUSH2 0x2311 JUMP JUMPDEST SWAP1 POP PUSH2 0xED3 DUP10 ADDRESS DUP5 DUP11 PUSH2 0xECE SWAP2 SWAP1 PUSH2 0x4A6D JUMP JUMPDEST PUSH2 0x1B2A JUMP JUMPDEST PUSH0 DUP3 EQ DUP1 PUSH2 0xF0C JUMPI POP PUSH0 PUSH20 0xFFFFFFFFFFFFFFFFFFFFFFFFFFFFFFFFFFFFFFFF AND DUP2 PUSH20 0xFFFFFFFFFFFFFFFFFFFFFFFFFFFFFFFFFFFFFFFF AND EQ JUMPDEST ISZERO PUSH2 0xF2B JUMPI PUSH2 0xF26 DUP10 DUP4 DUP10 PUSH2 0xF21 SWAP2 SWAP1 PUSH2 0x4A6D JUMP JUMPDEST PUSH2 0x213F JUMP JUMPDEST PUSH2 0xF41 JUMP JUMPDEST PUSH2 0xF35 DUP10 DUP9 PUSH2 0x213F JUMP JUMPDEST PUSH2 0xF40 DUP10 DUP3 DUP5 PUSH2 0x1BBC JUMP JUMPDEST JUMPDEST PUSH1 0x1 SWAP4 POP POP POP POP SWAP6 SWAP5 POP POP POP POP POP JUMP JUMPDEST PUSH0 ADDRESS PUSH20 0xFFFFFFFFFFFFFFFFFFFFFFFFFFFFFFFFFFFFFFFF AND DUP3 PUSH20 0xFFFFFFFFFFFFFFFFFFFFFFFFFFFFFFFFFFFFFFFF AND EQ PUSH2 0xF8B JUMPI PUSH0 PUSH2 0xFBF JUMP JUMPDEST PUSH2 0xF93 PUSH2 0x993 JUMP JUMPDEST PUSH32 0xFFFFFFFFFFFFFFFFFFFFFFFFFFFFFFFFFFFFFFFFFFFFFFFFFFFFFFFFFFFFFFFF PUSH2 0xFBE SWAP2 SWAP1 PUSH2 0x4AA0 JUMP JUMPDEST JUMPDEST SWAP1 POP SWAP2 SWAP1 POP JUMP JUMPDEST PUSH0 PUSH2 0xFD0 DUP3 PUSH2 0x2315 JUMP JUMPDEST SWAP1 POP SWAP2 SWAP1 POP JUMP JUMPDEST PUSH0 DUP1 PUSH2 0xFE1 PUSH2 0x1AEA JUMP JUMPDEST SWAP1 POP DUP1 PUSH0 ADD PUSH0 DUP5 PUSH20 0xFFFFFFFFFFFFFFFFFFFFFFFFFFFFFFFFFFFFFFFF AND PUSH20 0xFFFFFFFFFFFFFFFFFFFFFFFFFFFFFFFFFFFFFFFF AND DUP2 MSTORE PUSH1 0x20 ADD SWAP1 DUP2 MSTORE PUSH1 0x20 ADD PUSH0 KECCAK256 SLOAD SWAP2 POP POP SWAP2 SWAP1 POP JUMP JUMPDEST PUSH2 0x103C DUP3 PUSH2 0x1036 PUSH2 0x1B11 JUMP JUMPDEST DUP4 PUSH2 0x1B2A JUMP JUMPDEST PUSH2 0x1046 DUP3 DUP3 PUSH2 0x213F JUMP JUMPDEST POP POP JUMP JUMPDEST PUSH0 PUSH2 0x1054 DUP3 PUSH2 0x2378 JUMP JUMPDEST SWAP1 POP SWAP2 SWAP1 POP JUMP JUMPDEST PUSH32 0x65D7A28E3265B37A6474929F336521B332C1681B933F6CB9F3376673440D862A PUSH2 0x1085 DUP2 PUSH2 0x1CD3 JUMP JUMPDEST PUSH2 0x108D PUSH2 0x2389 JUMP JUMPDEST POP JUMP JUMPDEST PUSH0 PUSH1 0x60 DUP1 PUSH0 DUP1 PUSH0 PUSH1 0x60 PUSH0 PUSH2 0x10A2 PUSH2 0x23F8 JUMP JUMPDEST SWAP1 POP PUSH0 DUP1 SHL DUP2 PUSH0 ADD SLOAD EQ DUP1 ISZERO PUSH2 0x10BD JUMPI POP PUSH0 DUP1 SHL DUP2 PUSH1 0x1 ADD SLOAD EQ JUMPDEST PUSH2 0x10FC JUMPI PUSH1 0x40 MLOAD PUSH32 0x8C379A000000000000000000000000000000000000000000000000000000000 DUP2 MSTORE PUSH1 0x4 ADD PUSH2 0x10F3 SWAP1 PUSH2 0x4B1D JUMP JUMPDEST PUSH1 0x40 MLOAD DUP1 SWAP2 SUB SWAP1 REVERT JUMPDEST PUSH2 0x1104 PUSH2 0x241F JUMP JUMPDEST PUSH2 0x110C PUSH2 0x24BD JUMP JUMPDEST CHAINID ADDRESS PUSH0 DUP1 SHL PUSH0 PUSH8 0xFFFFFFFFFFFFFFFF DUP2 GT ISZERO PUSH2 0x112B JUMPI PUSH2 0x112A PUSH2 0x4B3B JUMP JUMPDEST JUMPDEST PUSH1 0x40 MLOAD SWAP1 DUP1 DUP3 MSTORE DUP1 PUSH1 0x20 MUL PUSH1 0x20 ADD DUP3 ADD PUSH1 0x40 MSTORE DUP1 ISZERO PUSH2 0x1159 JUMPI DUP2 PUSH1 0x20 ADD PUSH1 0x20 DUP3 MUL DUP1 CALLDATASIZE DUP4 CALLDATACOPY DUP1 DUP3 ADD SWAP2 POP POP SWAP1 POP JUMPDEST POP PUSH32 0xF00000000000000000000000000000000000000000000000000000000000000 SWAP6 SWAP5 SWAP4 SWAP3 SWAP2 SWAP1 SWAP8 POP SWAP8 POP SWAP8 POP SWAP8 POP SWAP8 POP SWAP8 POP SWAP8 POP POP SWAP1 SWAP2 SWAP3 SWAP4 SWAP5 SWAP6 SWAP7 JUMP JUMPDEST PUSH0 DUP1 PUSH2 0x11A3 PUSH2 0x1EE5 JUMP JUMPDEST SWAP1 POP PUSH0 PUSH2 0x11AE PUSH2 0x12B2 JUMP JUMPDEST SWAP1 POP DUP1 PUSH6 0xFFFFFFFFFFFF AND DUP5 LT PUSH2 0x11FE JUMPI DUP4 DUP2 PUSH1 0x40 MLOAD PUSH32 0xECD3F81E00000000000000000000000000000000000000000000000000000000 DUP2 MSTORE PUSH1 0x4 ADD PUSH2 0x11F5 SWAP3 SWAP2 SWAP1 PUSH2 0x4936 JUMP JUMPDEST PUSH1 0x40 MLOAD DUP1 SWAP2 SUB SWAP1 REVERT JUMPDEST PUSH2 0x121C PUSH2 0x120A DUP6 PUSH2 0x1F0C JUMP JUMPDEST DUP4 PUSH1 0x2 ADD PUSH2 0x1F65 SWAP1 SWAP2 SWAP1 PUSH4 0xFFFFFFFF AND JUMP JUMPDEST PUSH26 0xFFFFFFFFFFFFFFFFFFFFFFFFFFFFFFFFFFFFFFFFFFFFFFFFFFFF AND SWAP3 POP POP POP SWAP2 SWAP1 POP JUMP JUMPDEST PUSH0 DUP1 PUSH2 0x124B PUSH2 0x1CAC JUMP JUMPDEST SWAP1 POP DUP1 PUSH0 ADD PUSH0 DUP6 DUP2 MSTORE PUSH1 0x20 ADD SWAP1 DUP2 MSTORE PUSH1 0x20 ADD PUSH0 KECCAK256 PUSH0 ADD PUSH0 DUP5 PUSH20 0xFFFFFFFFFFFFFFFFFFFFFFFFFFFFFFFFFFFFFFFF AND PUSH20 0xFFFFFFFFFFFFFFFFFFFFFFFFFFFFFFFFFFFFFFFF AND DUP2 MSTORE PUSH1 0x20 ADD SWAP1 DUP2 MSTORE PUSH1 0x20 ADD PUSH0 KECCAK256 PUSH0 SWAP1 SLOAD SWAP1 PUSH2 0x100 EXP SWAP1 DIV PUSH1 0xFF AND SWAP2 POP POP SWAP3 SWAP2 POP POP JUMP JUMPDEST PUSH0 PUSH2 0x12BB PUSH2 0x21BE JUMP JUMPDEST SWAP1 POP SWAP1 JUMP JUMPDEST PUSH1 0x60 PUSH0 PUSH2 0x12CB PUSH2 0x1AEA JUMP JUMPDEST SWAP1 POP DUP1 PUSH1 0x4 ADD DUP1 SLOAD PUSH2 0x12DC SWAP1 PUSH2 0x4906 JUMP JUMPDEST DUP1 PUSH1 0x1F ADD PUSH1 0x20 DUP1 SWAP2 DIV MUL PUSH1 0x20 ADD PUSH1 0x40 MLOAD SWAP1 DUP2 ADD PUSH1 0x40 MSTORE DUP1 SWAP3 SWAP2 SWAP1 DUP2 DUP2 MSTORE PUSH1 0x20 ADD DUP3 DUP1 SLOAD PUSH2 0x1308 SWAP1 PUSH2 0x4906 JUMP JUMPDEST DUP1 ISZERO PUSH2 0x1353 JUMPI DUP1 PUSH1 0x1F LT PUSH2 0x132A JUMPI PUSH2 0x100 DUP1 DUP4 SLOAD DIV MUL DUP4 MSTORE SWAP2 PUSH1 0x20 ADD SWAP2 PUSH2 0x1353 JUMP JUMPDEST DUP3 ADD SWAP2 SWAP1 PUSH0 MSTORE PUSH1 0x20 PUSH0 KECCAK256 SWAP1 JUMPDEST DUP2 SLOAD DUP2 MSTORE SWAP1 PUSH1 0x1 ADD SWAP1 PUSH1 0x20 ADD DUP1 DUP4 GT PUSH2 0x1336 JUMPI DUP3 SWAP1 SUB PUSH1 0x1F AND DUP3 ADD SWAP2 JUMPDEST POP POP POP POP POP SWAP2 POP POP SWAP1 JUMP JUMPDEST PUSH0 DUP1 PUSH2 0x1368 PUSH2 0x1EE5 JUMP JUMPDEST SWAP1 POP PUSH2 0x13B1 DUP2 PUSH1 0x1 ADD PUSH0 DUP6 PUSH20 0xFFFFFFFFFFFFFFFFFFFFFFFFFFFFFFFFFFFFFFFF AND PUSH20 0xFFFFFFFFFFFFFFFFFFFFFFFFFFFFFFFFFFFFFFFF AND DUP2 MSTORE PUSH1 0x20 ADD SWAP1 DUP2 MSTORE PUSH1 0x20 ADD PUSH0 KECCAK256 PUSH2 0x255B JUMP JUMPDEST PUSH26 0xFFFFFFFFFFFFFFFFFFFFFFFFFFFFFFFFFFFFFFFFFFFFFFFFFFFF AND SWAP2 POP POP SWAP2 SWAP1 POP JUMP JUMPDEST PUSH0 DUP1 SHL DUP2 JUMP JUMPDEST PUSH0 DUP1 PUSH2 0x13E5 PUSH2 0x1B11 JUMP JUMPDEST SWAP1 POP PUSH2 0x13F2 DUP2 DUP6 DUP6 PUSH2 0x1BBC JUMP JUMPDEST PUSH1 0x1 SWAP2 POP POP SWAP3 SWAP2 POP POP JUMP JUMPDEST PUSH0 PUSH2 0x1406 PUSH2 0x25BD JUMP JUMPDEST SWAP1 POP PUSH0 DUP2 PUSH0 ADD PUSH1 0x8 SWAP1 SLOAD SWAP1 PUSH2 0x100 EXP SWAP1 DIV PUSH1 0xFF AND ISZERO SWAP1 POP PUSH0 DUP3 PUSH0 ADD PUSH0 SWAP1 SLOAD SWAP1 PUSH2 0x100 EXP SWAP1 DIV PUSH8 0xFFFFFFFFFFFFFFFF AND SWAP1 POP PUSH0 DUP1 DUP3 PUSH8 0xFFFFFFFFFFFFFFFF AND EQ DUP1 ISZERO PUSH2 0x144E JUMPI POP DUP3 JUMPDEST SWAP1 POP PUSH0 PUSH1 0x1 DUP4 PUSH8 0xFFFFFFFFFFFFFFFF AND EQ DUP1 ISZERO PUSH2 0x1481 JUMPI POP PUSH0 ADDRESS PUSH20 0xFFFFFFFFFFFFFFFFFFFFFFFFFFFFFFFFFFFFFFFF AND EXTCODESIZE EQ JUMPDEST SWAP1 POP DUP2 ISZERO DUP1 ISZERO PUSH2 0x148F JUMPI POP DUP1 ISZERO JUMPDEST ISZERO PUSH2 0x14C6 JUMPI PUSH1 0x40 MLOAD PUSH32 0xF92EE8A900000000000000000000000000000000000000000000000000000000 DUP2 MSTORE PUSH1 0x4 ADD PUSH1 0x40 MLOAD DUP1 SWAP2 SUB SWAP1 REVERT JUMPDEST PUSH1 0x1 DUP6 PUSH0 ADD PUSH0 PUSH2 0x100 EXP DUP2 SLOAD DUP2 PUSH8 0xFFFFFFFFFFFFFFFF MUL NOT AND SWAP1 DUP4 PUSH8 0xFFFFFFFFFFFFFFFF AND MUL OR SWAP1 SSTORE POP DUP4 ISZERO PUSH2 0x1513 JUMPI PUSH1 0x1 DUP6 PUSH0 ADD PUSH1 0x8 PUSH2 0x100 EXP DUP2 SLOAD DUP2 PUSH1 0xFF MUL NOT AND SWAP1 DUP4 ISZERO ISZERO MUL OR SWAP1 SSTORE POP JUMPDEST PUSH2 0x1587 PUSH1 0x40 MLOAD DUP1 PUSH1 0x40 ADD PUSH1 0x40 MSTORE DUP1 PUSH1 0x3 DUP2 MSTORE PUSH1 0x20 ADD PUSH32 0x5141490000000000000000000000000000000000000000000000000000000000 DUP2 MSTORE POP PUSH1 0x40 MLOAD DUP1 PUSH1 0x40 ADD PUSH1 0x40 MSTORE DUP1 PUSH1 0x2 DUP2 MSTORE PUSH1 0x20 ADD PUSH32 0x4149000000000000000000000000000000000000000000000000000000000000 DUP2 MSTORE POP PUSH2 0x25E4 JUMP JUMPDEST PUSH2 0x158F PUSH2 0x25FA JUMP JUMPDEST PUSH2 0x1597 PUSH2 0x2604 JUMP JUMPDEST PUSH2 0x159F PUSH2 0x2616 JUMP JUMPDEST PUSH2 0x15DD PUSH1 0x40 MLOAD DUP1 PUSH1 0x40 ADD PUSH1 0x40 MSTORE DUP1 PUSH1 0x3 DUP2 MSTORE PUSH1 0x20 ADD PUSH32 0x5141490000000000000000000000000000000000000000000000000000000000 DUP2 MSTORE POP PUSH2 0x2620 JUMP JUMPDEST PUSH2 0x15E5 PUSH2 0x266A JUMP JUMPDEST PUSH2 0x15ED PUSH2 0x2674 JUMP JUMPDEST PUSH2 0x15F9 PUSH0 DUP1 SHL DUP10 PUSH2 0x1CE7 JUMP JUMPDEST POP PUSH2 0x1624 PUSH32 0x65D7A28E3265B37A6474929F336521B332C1681B933F6CB9F3376673440D862A DUP9 PUSH2 0x1CE7 JUMP JUMPDEST POP PUSH2 0x1651 CALLER PUSH2 0x1631 PUSH2 0xA24 JUMP JUMPDEST PUSH1 0xA PUSH2 0x163D SWAP2 SWAP1 PUSH2 0x4C97 JUMP JUMPDEST PUSH4 0x8F0D180 PUSH2 0x164C SWAP2 SWAP1 PUSH2 0x4CE1 JUMP JUMPDEST PUSH2 0x20C0 JUMP JUMPDEST PUSH2 0x167B PUSH32 0x9F2DF0FED2C77648DE5860A4CC508CD0818C85B8B8A1AB4CEEEF8D981C8956A6 DUP8 PUSH2 0x1CE7 JUMP JUMPDEST POP DUP4 ISZERO PUSH2 0x16D6 JUMPI PUSH0 DUP6 PUSH0 ADD PUSH1 0x8 PUSH2 0x100 EXP DUP2 SLOAD DUP2 PUSH1 0xFF MUL NOT AND SWAP1 DUP4 ISZERO ISZERO MUL OR SWAP1 SSTORE POP PUSH32 0xC7F505B2F371AE2175EE4913F4499E1F2633A7B5936321EED1CDAEB6115181D2 PUSH1 0x1 PUSH1 0x40 MLOAD PUSH2 0x16CD SWAP2 SWAP1 PUSH2 0x4D77 JUMP JUMPDEST PUSH1 0x40 MLOAD DUP1 SWAP2 SUB SWAP1 LOG1 JUMPDEST POP POP POP POP POP POP POP POP JUMP JUMPDEST DUP4 TIMESTAMP GT ISZERO PUSH2 0x1725 JUMPI DUP4 PUSH1 0x40 MLOAD PUSH32 0x4683AF0E00000000000000000000000000000000000000000000000000000000 DUP2 MSTORE PUSH1 0x4 ADD PUSH2 0x171C SWAP2 SWAP1 PUSH2 0x4128 JUMP JUMPDEST PUSH1 0x40 MLOAD DUP1 SWAP2 SUB SWAP1 REVERT JUMPDEST PUSH0 PUSH2 0x1786 PUSH2 0x177E PUSH32 0xE48329057BFD03D55E49B547132E39CFFD9C1820AD7B9D4C5307691425D15ADF DUP10 DUP10 DUP10 PUSH1 0x40 MLOAD PUSH1 0x20 ADD PUSH2 0x1763 SWAP5 SWAP4 SWAP3 SWAP2 SWAP1 PUSH2 0x4D90 JUMP JUMPDEST PUSH1 0x40 MLOAD PUSH1 0x20 DUP2 DUP4 SUB SUB DUP2 MSTORE SWAP1 PUSH1 0x40 MSTORE DUP1 MLOAD SWAP1 PUSH1 0x20 ADD KECCAK256 PUSH2 0x267E JUMP JUMPDEST DUP6 DUP6 DUP6 PUSH2 0x2697 JUMP JUMPDEST SWAP1 POP PUSH2 0x1792 DUP2 DUP8 PUSH2 0x26C5 JUMP JUMPDEST PUSH2 0x179C DUP2 DUP9 PUSH2 0x21CD JUMP JUMPDEST POP POP POP POP POP POP POP JUMP JUMPDEST DUP4 TIMESTAMP GT ISZERO PUSH2 0x17EA JUMPI DUP4 PUSH1 0x40 MLOAD PUSH32 0x6279130200000000000000000000000000000000000000000000000000000000 DUP2 MSTORE PUSH1 0x4 ADD PUSH2 0x17E1 SWAP2 SWAP1 PUSH2 0x4128 JUMP JUMPDEST PUSH1 0x40 MLOAD DUP1 SWAP2 SUB SWAP1 REVERT JUMPDEST PUSH0 PUSH32 0x6E71EDAE12B1B97F4D1F60370FEF10105FA2FAAE0126114A169C64845D6126C9 DUP9 DUP9 DUP9 PUSH2 0x1818 DUP13 PUSH2 0x271C JUMP JUMPDEST DUP10 PUSH1 0x40 MLOAD PUSH1 0x20 ADD PUSH2 0x182E SWAP7 SWAP6 SWAP5 SWAP4 SWAP3 SWAP2 SWAP1 PUSH2 0x4DD3 JUMP JUMPDEST PUSH1 0x40 MLOAD PUSH1 0x20 DUP2 DUP4 SUB SUB DUP2 MSTORE SWAP1 PUSH1 0x40 MSTORE DUP1 MLOAD SWAP1 PUSH1 0x20 ADD KECCAK256 SWAP1 POP PUSH0 PUSH2 0x1850 DUP3 PUSH2 0x267E JUMP JUMPDEST SWAP1 POP PUSH0 PUSH2 0x185F DUP3 DUP8 DUP8 DUP8 PUSH2 0x2697 JUMP JUMPDEST SWAP1 POP DUP10 PUSH20 0xFFFFFFFFFFFFFFFFFFFFFFFFFFFFFFFFFFFFFFFF AND DUP2 PUSH20 0xFFFFFFFFFFFFFFFFFFFFFFFFFFFFFFFFFFFFFFFF AND EQ PUSH2 0x18D3 JUMPI DUP1 DUP11 PUSH1 0x40 MLOAD PUSH32 0x4B800E4600000000000000000000000000000000000000000000000000000000 DUP2 MSTORE PUSH1 0x4 ADD PUSH2 0x18CA SWAP3 SWAP2 SWAP1 PUSH2 0x4E32 JUMP JUMPDEST PUSH1 0x40 MLOAD DUP1 SWAP2 SUB SWAP1 REVERT JUMPDEST PUSH2 0x18DE DUP11 DUP11 DUP11 PUSH2 0x1B18 JUMP JUMPDEST POP POP POP POP POP POP POP POP POP POP JUMP JUMPDEST PUSH32 0x9F2DF0FED2C77648DE5860A4CC508CD0818C85B8B8A1AB4CEEEF8D981C8956A6 DUP2 JUMP JUMPDEST PUSH2 0x1917 DUP3 PUSH2 0x9D8 JUMP JUMPDEST PUSH2 0x1920 DUP2 PUSH2 0x1CD3 JUMP JUMPDEST PUSH2 0x192A DUP4 DUP4 PUSH2 0x1DED JUMP JUMPDEST POP POP POP POP JUMP JUMPDEST PUSH0 ADDRESS PUSH20 0xFFFFFFFFFFFFFFFFFFFFFFFFFFFFFFFFFFFFFFFF AND DUP4 PUSH20 0xFFFFFFFFFFFFFFFFFFFFFFFFFFFFFFFFFFFFFFFF AND EQ PUSH2 0x19A1 JUMPI DUP3 PUSH1 0x40 MLOAD PUSH32 0xB5A7DB9200000000000000000000000000000000000000000000000000000000 DUP2 MSTORE PUSH1 0x4 ADD PUSH2 0x1998 SWAP2 SWAP1 PUSH2 0x42EE JUMP JUMPDEST PUSH1 0x40 MLOAD DUP1 SWAP2 SUB SWAP1 REVERT JUMPDEST PUSH2 0x19AB DUP4 DUP4 PUSH2 0x277C JUMP JUMPDEST SWAP1 POP SWAP3 SWAP2 POP POP JUMP JUMPDEST PUSH0 DUP1 PUSH2 0x19BD PUSH2 0x1AEA JUMP JUMPDEST SWAP1 POP DUP1 PUSH1 0x1 ADD PUSH0 DUP6 PUSH20 0xFFFFFFFFFFFFFFFFFFFFFFFFFFFFFFFFFFFFFFFF AND PUSH20 0xFFFFFFFFFFFFFFFFFFFFFFFFFFFFFFFFFFFFFFFF AND DUP2 MSTORE PUSH1 0x20 ADD SWAP1 DUP2 MSTORE PUSH1 0x20 ADD PUSH0 KECCAK256 PUSH0 DUP5 PUSH20 0xFFFFFFFFFFFFFFFFFFFFFFFFFFFFFFFFFFFFFFFF AND PUSH20 0xFFFFFFFFFFFFFFFFFFFFFFFFFFFFFFFFFFFFFFFF AND DUP2 MSTORE PUSH1 0x20 ADD SWAP1 DUP2 MSTORE PUSH1 0x20 ADD PUSH0 KECCAK256 SLOAD SWAP2 POP POP SWAP3 SWAP2 POP POP JUMP JUMPDEST PUSH32 0x65D7A28E3265B37A6474929F336521B332C1681B933F6CB9F3376673440D862A DUP2 JUMP JUMPDEST PUSH2 0x1A6F PUSH2 0x3EAD JUMP JUMPDEST PUSH2 0x1A79 DUP4 DUP4 PUSH2 0x2783 JUMP JUMPDEST SWAP1 POP SWAP3 SWAP2 POP POP JUMP JUMPDEST PUSH0 PUSH32 0x1FFC9A700000000000000000000000000000000000000000000000000000000 PUSH28 0xFFFFFFFFFFFFFFFFFFFFFFFFFFFFFFFFFFFFFFFFFFFFFFFFFFFFFFFF NOT AND DUP3 PUSH28 0xFFFFFFFFFFFFFFFFFFFFFFFFFFFFFFFFFFFFFFFFFFFFFFFFFFFFFFFF NOT AND EQ SWAP1 POP SWAP2 SWAP1 POP JUMP JUMPDEST PUSH0 PUSH32 0x52C63247E1F47DB19D5CE0460030C497F067CA4CEBF71BA98EEADABE20BACE00 SWAP1 POP SWAP1 JUMP JUMPDEST PUSH0 CALLER SWAP1 POP SWAP1 JUMP JUMPDEST PUSH2 0x1B25 DUP4 DUP4 DUP4 PUSH1 0x1 PUSH2 0x27F0 JUMP JUMPDEST POP POP POP JUMP JUMPDEST PUSH0 PUSH2 0x1B35 DUP5 DUP5 PUSH2 0x19B3 JUMP JUMPDEST SWAP1 POP PUSH32 0xFFFFFFFFFFFFFFFFFFFFFFFFFFFFFFFFFFFFFFFFFFFFFFFFFFFFFFFFFFFFFFFF DUP2 EQ PUSH2 0x1BB6 JUMPI DUP2 DUP2 LT ISZERO PUSH2 0x1BA7 JUMPI DUP3 DUP2 DUP4 PUSH1 0x40 MLOAD PUSH32 0xFB8F41B200000000000000000000000000000000000000000000000000000000 DUP2 MSTORE PUSH1 0x4 ADD PUSH2 0x1B9E SWAP4 SWAP3 SWAP2 SWAP1 PUSH2 0x4E59 JUMP JUMPDEST PUSH1 0x40 MLOAD DUP1 SWAP2 SUB SWAP1 REVERT JUMPDEST PUSH2 0x1BB5 DUP5 DUP5 DUP5 DUP5 SUB PUSH0 PUSH2 0x27F0 JUMP JUMPDEST JUMPDEST POP POP POP POP JUMP JUMPDEST PUSH0 PUSH20 0xFFFFFFFFFFFFFFFFFFFFFFFFFFFFFFFFFFFFFFFF AND DUP4 PUSH20 0xFFFFFFFFFFFFFFFFFFFFFFFFFFFFFFFFFFFFFFFF AND SUB PUSH2 0x1C2C JUMPI PUSH0 PUSH1 0x40 MLOAD PUSH32 0x96C6FD1E00000000000000000000000000000000000000000000000000000000 DUP2 MSTORE PUSH1 0x4 ADD PUSH2 0x1C23 SWAP2 SWAP1 PUSH2 0x42EE JUMP JUMPDEST PUSH1 0x40 MLOAD DUP1 SWAP2 SUB SWAP1 REVERT JUMPDEST PUSH0 PUSH20 0xFFFFFFFFFFFFFFFFFFFFFFFFFFFFFFFFFFFFFFFF AND DUP3 PUSH20 0xFFFFFFFFFFFFFFFFFFFFFFFFFFFFFFFFFFFFFFFF AND SUB PUSH2 0x1C9C JUMPI PUSH0 PUSH1 0x40 MLOAD PUSH32 0xEC442F0500000000000000000000000000000000000000000000000000000000 DUP2 MSTORE PUSH1 0x4 ADD PUSH2 0x1C93 SWAP2 SWAP1 PUSH2 0x42EE JUMP JUMPDEST PUSH1 0x40 MLOAD DUP1 SWAP2 SUB SWAP1 REVERT JUMPDEST PUSH2 0x1CA7 DUP4 DUP4 DUP4 PUSH2 0x29CD JUMP JUMPDEST POP POP POP JUMP JUMPDEST PUSH0 PUSH32 0x2DD7BC7DEC4DCEEDDA775E58DD541E08A116C6C53815C0BD028192F7B626800 SWAP1 POP SWAP1 JUMP JUMPDEST PUSH2 0x1CE4 DUP2 PUSH2 0x1CDF PUSH2 0x1B11 JUMP JUMPDEST PUSH2 0x29DD JUMP JUMPDEST POP JUMP JUMPDEST PUSH0 DUP1 PUSH2 0x1CF1 PUSH2 0x1CAC JUMP JUMPDEST SWAP1 POP PUSH2 0x1CFD DUP5 DUP5 PUSH2 0x1241 JUMP JUMPDEST PUSH2 0x1DD4 JUMPI PUSH1 0x1 DUP2 PUSH0 ADD PUSH0 DUP7 DUP2 MSTORE PUSH1 0x20 ADD SWAP1 DUP2 MSTORE PUSH1 0x20 ADD PUSH0 KECCAK256 PUSH0 ADD PUSH0 DUP6 PUSH20 0xFFFFFFFFFFFFFFFFFFFFFFFFFFFFFFFFFFFFFFFF AND PUSH20 0xFFFFFFFFFFFFFFFFFFFFFFFFFFFFFFFFFFFFFFFF AND DUP2 MSTORE PUSH1 0x20 ADD SWAP1 DUP2 MSTORE PUSH1 0x20 ADD PUSH0 KECCAK256 PUSH0 PUSH2 0x100 EXP DUP2 SLOAD DUP2 PUSH1 0xFF MUL NOT AND SWAP1 DUP4 ISZERO ISZERO MUL OR SWAP1 SSTORE POP PUSH2 0x1D70 PUSH2 0x1B11 JUMP JUMPDEST PUSH20 0xFFFFFFFFFFFFFFFFFFFFFFFFFFFFFFFFFFFFFFFF AND DUP4 PUSH20 0xFFFFFFFFFFFFFFFFFFFFFFFFFFFFFFFFFFFFFFFF AND DUP6 PUSH32 0x2F8788117E7EFF1D82E926EC794901D17C78024A50270940304540A733656F0D PUSH1 0x40 MLOAD PUSH1 0x40 MLOAD DUP1 SWAP2 SUB SWAP1 LOG4 PUSH1 0x1 SWAP2 POP POP PUSH2 0x1DD9 JUMP JUMPDEST PUSH0 SWAP2 POP POP JUMPDEST SWAP3 SWAP2 POP POP JUMP JUMPDEST PUSH0 PUSH2 0x1DE8 PUSH2 0x2A2E JUMP JUMPDEST SWAP1 POP SWAP1 JUMP JUMPDEST PUSH0 DUP1 PUSH2 0x1DF7 PUSH2 0x1CAC JUMP JUMPDEST SWAP1 POP PUSH2 0x1E03 DUP5 DUP5 PUSH2 0x1241 JUMP JUMPDEST ISZERO PUSH2 0x1EDA JUMPI PUSH0 DUP2 PUSH0 ADD PUSH0 DUP7 DUP2 MSTORE PUSH1 0x20 ADD SWAP1 DUP2 MSTORE PUSH1 0x20 ADD PUSH0 KECCAK256 PUSH0 ADD PUSH0 DUP6 PUSH20 0xFFFFFFFFFFFFFFFFFFFFFFFFFFFFFFFFFFFFFFFF AND PUSH20 0xFFFFFFFFFFFFFFFFFFFFFFFFFFFFFFFFFFFFFFFF AND DUP2 MSTORE PUSH1 0x20 ADD SWAP1 DUP2 MSTORE PUSH1 0x20 ADD PUSH0 KECCAK256 PUSH0 PUSH2 0x100 EXP DUP2 SLOAD DUP2 PUSH1 0xFF MUL NOT AND SWAP1 DUP4 ISZERO ISZERO MUL OR SWAP1 SSTORE POP PUSH2 0x1E76 PUSH2 0x1B11 JUMP JUMPDEST PUSH20 0xFFFFFFFFFFFFFFFFFFFFFFFFFFFFFFFFFFFFFFFF AND DUP4 PUSH20 0xFFFFFFFFFFFFFFFFFFFFFFFFFFFFFFFFFFFFFFFF AND DUP6 PUSH32 0xF6391F5C32D9C69D2A47EA670B442974B53935D1EDC7FD64EB21E047A839171B PUSH1 0x40 MLOAD PUSH1 0x40 MLOAD DUP1 SWAP2 SUB SWAP1 LOG4 PUSH1 0x1 SWAP2 POP POP PUSH2 0x1EDF JUMP JUMPDEST PUSH0 SWAP2 POP POP JUMPDEST SWAP3 SWAP2 POP POP JUMP JUMPDEST PUSH0 PUSH32 0xE8B26C30FAD74198956032A3533D903385D56DD795AF560196F9C78D4AF40D00 SWAP1 POP SWAP1 JUMP JUMPDEST PUSH0 PUSH6 0xFFFFFFFFFFFF DUP1 AND DUP3 GT ISZERO PUSH2 0x1F5D JUMPI PUSH1 0x30 DUP3 PUSH1 0x40 MLOAD PUSH32 0x6DFCC65000000000000000000000000000000000000000000000000000000000 DUP2 MSTORE PUSH1 0x4 ADD PUSH2 0x1F54 SWAP3 SWAP2 SWAP1 PUSH2 0x4EC7 JUMP JUMPDEST PUSH1 0x40 MLOAD DUP1 SWAP2 SUB SWAP1 REVERT JUMPDEST DUP2 SWAP1 POP SWAP2 SWAP1 POP JUMP JUMPDEST PUSH0 DUP1 DUP4 PUSH0 ADD DUP1 SLOAD SWAP1 POP SWAP1 POP PUSH0 DUP1 DUP3 SWAP1 POP PUSH1 0x5 DUP4 GT ISZERO PUSH2 0x1FE6 JUMPI PUSH0 PUSH2 0x1F88 DUP5 PUSH2 0x2A91 JUMP JUMPDEST DUP5 PUSH2 0x1F93 SWAP2 SWAP1 PUSH2 0x4AA0 JUMP JUMPDEST SWAP1 POP PUSH2 0x1FA1 DUP8 PUSH0 ADD DUP3 PUSH2 0x2B87 JUMP JUMPDEST PUSH0 ADD PUSH0 SWAP1 SLOAD SWAP1 PUSH2 0x100 EXP SWAP1 DIV PUSH6 0xFFFFFFFFFFFF AND PUSH6 0xFFFFFFFFFFFF AND DUP7 PUSH6 0xFFFFFFFFFFFF AND LT ISZERO PUSH2 0x1FD4 JUMPI DUP1 SWAP2 POP PUSH2 0x1FE4 JUMP JUMPDEST PUSH1 0x1 DUP2 PUSH2 0x1FE1 SWAP2 SWAP1 PUSH2 0x4A6D JUMP JUMPDEST SWAP3 POP JUMPDEST POP JUMPDEST PUSH0 PUSH2 0x1FF5 DUP8 PUSH0 ADD DUP8 DUP6 DUP6 PUSH2 0x2B99 JUMP JUMPDEST SWAP1 POP PUSH0 DUP2 EQ PUSH2 0x2044 JUMPI PUSH2 0x2016 DUP8 PUSH0 ADD PUSH1 0x1 DUP4 PUSH2 0x2011 SWAP2 SWAP1 PUSH2 0x4AA0 JUMP JUMPDEST PUSH2 0x2B87 JUMP JUMPDEST PUSH0 ADD PUSH1 0x6 SWAP1 SLOAD SWAP1 PUSH2 0x100 EXP SWAP1 DIV PUSH26 0xFFFFFFFFFFFFFFFFFFFFFFFFFFFFFFFFFFFFFFFFFFFFFFFFFFFF AND PUSH2 0x2046 JUMP JUMPDEST PUSH0 JUMPDEST SWAP5 POP POP POP POP POP SWAP3 SWAP2 POP POP JUMP JUMPDEST PUSH2 0x205A PUSH2 0x2C0E JUMP JUMPDEST PUSH0 PUSH2 0x2063 PUSH2 0x22EA JUMP JUMPDEST SWAP1 POP PUSH0 DUP2 PUSH0 ADD PUSH0 PUSH2 0x100 EXP DUP2 SLOAD DUP2 PUSH1 0xFF MUL NOT AND SWAP1 DUP4 ISZERO ISZERO MUL OR SWAP1 SSTORE POP PUSH32 0x5DB9EE0A495BF2E6FF9C91A7834C1BA4FDD244A5E8AA4E537BD38AEAE4B073AA PUSH2 0x20A8 PUSH2 0x1B11 JUMP JUMPDEST PUSH1 0x40 MLOAD PUSH2 0x20B5 SWAP2 SWAP1 PUSH2 0x42EE JUMP JUMPDEST PUSH1 0x40 MLOAD DUP1 SWAP2 SUB SWAP1 LOG1 POP JUMP JUMPDEST PUSH0 PUSH20 0xFFFFFFFFFFFFFFFFFFFFFFFFFFFFFFFFFFFFFFFF AND DUP3 PUSH20 0xFFFFFFFFFFFFFFFFFFFFFFFFFFFFFFFFFFFFFFFF AND SUB PUSH2 0x2130 JUMPI PUSH0 PUSH1 0x40 MLOAD PUSH32 0xEC442F0500000000000000000000000000000000000000000000000000000000 DUP2 MSTORE PUSH1 0x4 ADD PUSH2 0x2127 SWAP2 SWAP1 PUSH2 0x42EE JUMP JUMPDEST PUSH1 0x40 MLOAD DUP1 SWAP2 SUB SWAP1 REVERT JUMPDEST PUSH2 0x213B PUSH0 DUP4 DUP4 PUSH2 0x29CD JUMP JUMPDEST POP POP JUMP JUMPDEST PUSH0 PUSH20 0xFFFFFFFFFFFFFFFFFFFFFFFFFFFFFFFFFFFFFFFF AND DUP3 PUSH20 0xFFFFFFFFFFFFFFFFFFFFFFFFFFFFFFFFFFFFFFFF AND SUB PUSH2 0x21AF JUMPI PUSH0 PUSH1 0x40 MLOAD PUSH32 0x96C6FD1E00000000000000000000000000000000000000000000000000000000 DUP2 MSTORE PUSH1 0x4 ADD PUSH2 0x21A6 SWAP2 SWAP1 PUSH2 0x42EE JUMP JUMPDEST PUSH1 0x40 MLOAD DUP1 SWAP2 SUB SWAP1 REVERT JUMPDEST PUSH2 0x21BA DUP3 PUSH0 DUP4 PUSH2 0x29CD JUMP JUMPDEST POP POP JUMP JUMPDEST PUSH0 PUSH2 0x21C8 NUMBER PUSH2 0x1F0C JUMP JUMPDEST SWAP1 POP SWAP1 JUMP JUMPDEST PUSH0 PUSH2 0x21D6 PUSH2 0x1EE5 JUMP JUMPDEST SWAP1 POP PUSH0 PUSH2 0x21E2 DUP5 PUSH2 0xCAF JUMP JUMPDEST SWAP1 POP DUP3 DUP3 PUSH0 ADD PUSH0 DUP7 PUSH20 0xFFFFFFFFFFFFFFFFFFFFFFFFFFFFFFFFFFFFFFFF AND PUSH20 0xFFFFFFFFFFFFFFFFFFFFFFFFFFFFFFFFFFFFFFFF AND DUP2 MSTORE PUSH1 0x20 ADD SWAP1 DUP2 MSTORE PUSH1 0x20 ADD PUSH0 KECCAK256 PUSH0 PUSH2 0x100 EXP DUP2 SLOAD DUP2 PUSH20 0xFFFFFFFFFFFFFFFFFFFFFFFFFFFFFFFFFFFFFFFF MUL NOT AND SWAP1 DUP4 PUSH20 0xFFFFFFFFFFFFFFFFFFFFFFFFFFFFFFFFFFFFFFFF AND MUL OR SWAP1 SSTORE POP DUP3 PUSH20 0xFFFFFFFFFFFFFFFFFFFFFFFFFFFFFFFFFFFFFFFF AND DUP2 PUSH20 0xFFFFFFFFFFFFFFFFFFFFFFFFFFFFFFFFFFFFFFFF AND DUP6 PUSH20 0xFFFFFFFFFFFFFFFFFFFFFFFFFFFFFFFFFFFFFFFF AND PUSH32 0x3134E8A2E6D97E929A7E54011EA5485D7D196DD5F0BA4D4EF95803E8E3FC257F PUSH1 0x40 MLOAD PUSH1 0x40 MLOAD DUP1 SWAP2 SUB SWAP1 LOG4 PUSH2 0x22E4 DUP2 DUP5 PUSH2 0x22DF DUP8 PUSH2 0x2C4E JUMP JUMPDEST PUSH2 0x2C5F JUMP JUMPDEST POP POP POP POP JUMP JUMPDEST PUSH0 PUSH32 0xCD5ED15C6E187E77E9AEE88184C21F4F2182AB5827CB3B7E07FBEDCD63F03300 SWAP1 POP SWAP1 JUMP JUMPDEST PUSH0 SWAP1 JUMP JUMPDEST PUSH0 DUP1 PUSH2 0x231F PUSH2 0x1EE5 JUMP JUMPDEST SWAP1 POP PUSH2 0x2370 PUSH2 0x236B DUP3 PUSH1 0x1 ADD PUSH0 DUP7 PUSH20 0xFFFFFFFFFFFFFFFFFFFFFFFFFFFFFFFFFFFFFFFF AND PUSH20 0xFFFFFFFFFFFFFFFFFFFFFFFFFFFFFFFFFFFFFFFF AND DUP2 MSTORE PUSH1 0x20 ADD SWAP1 DUP2 MSTORE PUSH1 0x20 ADD PUSH0 KECCAK256 PUSH2 0x2EDF JUMP JUMPDEST PUSH2 0x2EEE JUMP JUMPDEST SWAP2 POP POP SWAP2 SWAP1 POP JUMP JUMPDEST PUSH0 PUSH2 0x2382 DUP3 PUSH2 0x2F45 JUMP JUMPDEST SWAP1 POP SWAP2 SWAP1 POP JUMP JUMPDEST PUSH2 0x2391 PUSH2 0x2F98 JUMP JUMPDEST PUSH0 PUSH2 0x239A PUSH2 0x22EA JUMP JUMPDEST SWAP1 POP PUSH1 0x1 DUP2 PUSH0 ADD PUSH0 PUSH2 0x100 EXP DUP2 SLOAD DUP2 PUSH1 0xFF MUL NOT AND SWAP1 DUP4 ISZERO ISZERO MUL OR SWAP1 SSTORE POP PUSH32 0x62E78CEA01BEE320CD4E420270B5EA74000D11B0C9F74754EBDBFC544B05A258 PUSH2 0x23E0 PUSH2 0x1B11 JUMP JUMPDEST PUSH1 0x40 MLOAD PUSH2 0x23ED SWAP2 SWAP1 PUSH2 0x42EE JUMP JUMPDEST PUSH1 0x40 MLOAD DUP1 SWAP2 SUB SWAP1 LOG1 POP JUMP JUMPDEST PUSH0 PUSH32 0xA16A46D94261C7517CC8FF89F61C0CE93598E3C849801011DEE649A6A557D100 SWAP1 POP SWAP1 JUMP JUMPDEST PUSH1 0x60 PUSH0 PUSH2 0x242A PUSH2 0x23F8 JUMP JUMPDEST SWAP1 POP DUP1 PUSH1 0x2 ADD DUP1 SLOAD PUSH2 0x243B SWAP1 PUSH2 0x4906 JUMP JUMPDEST DUP1 PUSH1 0x1F ADD PUSH1 0x20 DUP1 SWAP2 DIV MUL PUSH1 0x20 ADD PUSH1 0x40 MLOAD SWAP1 DUP2 ADD PUSH1 0x40 MSTORE DUP1 SWAP3 SWAP2 SWAP1 DUP2 DUP2 MSTORE PUSH1 0x20 ADD DUP3 DUP1 SLOAD PUSH2 0x2467 SWAP1 PUSH2 0x4906 JUMP JUMPDEST DUP1 ISZERO PUSH2 0x24B2 JUMPI DUP1 PUSH1 0x1F LT PUSH2 0x2489 JUMPI PUSH2 0x100 DUP1 DUP4 SLOAD DIV MUL DUP4 MSTORE SWAP2 PUSH1 0x20 ADD SWAP2 PUSH2 0x24B2 JUMP JUMPDEST DUP3 ADD SWAP2 SWAP1 PUSH0 MSTORE PUSH1 0x20 PUSH0 KECCAK256 SWAP1 JUMPDEST DUP2 SLOAD DUP2 MSTORE SWAP1 PUSH1 0x1 ADD SWAP1 PUSH1 0x20 ADD DUP1 DUP4 GT PUSH2 0x2495 JUMPI DUP3 SWAP1 SUB PUSH1 0x1F AND DUP3 ADD SWAP2 JUMPDEST POP POP POP POP POP SWAP2 POP POP SWAP1 JUMP JUMPDEST PUSH1 0x60 PUSH0 PUSH2 0x24C8 PUSH2 0x23F8 JUMP JUMPDEST SWAP1 POP DUP1 PUSH1 0x3 ADD DUP1 SLOAD PUSH2 0x24D9 SWAP1 PUSH2 0x4906 JUMP JUMPDEST DUP1 PUSH1 0x1F ADD PUSH1 0x20 DUP1 SWAP2 DIV MUL PUSH1 0x20 ADD PUSH1 0x40 MLOAD SWAP1 DUP2 ADD PUSH1 0x40 MSTORE DUP1 SWAP3 SWAP2 SWAP1 DUP2 DUP2 MSTORE PUSH1 0x20 ADD DUP3 DUP1 SLOAD PUSH2 0x2505 SWAP1 PUSH2 0x4906 JUMP JUMPDEST DUP1 ISZERO PUSH2 0x2550 JUMPI DUP1 PUSH1 0x1F LT PUSH2 0x2527 JUMPI PUSH2 0x100 DUP1 DUP4 SLOAD DIV MUL DUP4 MSTORE SWAP2 PUSH1 0x20 ADD SWAP2 PUSH2 0x2550 JUMP JUMPDEST DUP3 ADD SWAP2 SWAP1 PUSH0 MSTORE PUSH1 0x20 PUSH0 KECCAK256 SWAP1 JUMPDEST DUP2 SLOAD DUP2 MSTORE SWAP1 PUSH1 0x1 ADD SWAP1 PUSH1 0x20 ADD DUP1 DUP4 GT PUSH2 0x2533 JUMPI DUP3 SWAP1 SUB PUSH1 0x1F AND DUP3 ADD SWAP2 JUMPDEST POP POP POP POP POP SWAP2 POP POP SWAP1 JUMP JUMPDEST PUSH0 DUP1 DUP3 PUSH0 ADD DUP1 SLOAD SWAP1 POP SWAP1 POP PUSH0 DUP2 EQ PUSH2 0x25B3 JUMPI PUSH2 0x2585 DUP4 PUSH0 ADD PUSH1 0x1 DUP4 PUSH2 0x2580 SWAP2 SWAP1 PUSH2 0x4AA0 JUMP JUMPDEST PUSH2 0x2B87 JUMP JUMPDEST PUSH0 ADD PUSH1 0x6 SWAP1 SLOAD SWAP1 PUSH2 0x100 EXP SWAP1 DIV PUSH26 0xFFFFFFFFFFFFFFFFFFFFFFFFFFFFFFFFFFFFFFFFFFFFFFFFFFFF AND PUSH2 0x25B5 JUMP JUMPDEST PUSH0 JUMPDEST SWAP2 POP POP SWAP2 SWAP1 POP JUMP JUMPDEST PUSH0 PUSH32 0xF0C57E16840DF040F15088DC2F81FE391C3923BEC73E23A9662EFC9C229C6A00 SWAP1 POP SWAP1 JUMP JUMPDEST PUSH2 0x25EC PUSH2 0x2FD9 JUMP JUMPDEST PUSH2 0x25F6 DUP3 DUP3 PUSH2 0x3019 JUMP JUMPDEST POP POP JUMP JUMPDEST PUSH2 0x2602 PUSH2 0x2FD9 JUMP JUMPDEST JUMP JUMPDEST PUSH2 0x260C PUSH2 0x2FD9 JUMP JUMPDEST PUSH2 0x2614 PUSH2 0x3055 JUMP JUMPDEST JUMP JUMPDEST PUSH2 0x261E PUSH2 0x2FD9 JUMP JUMPDEST JUMP JUMPDEST PUSH2 0x2628 PUSH2 0x2FD9 JUMP JUMPDEST PUSH2 0x2667 DUP2 PUSH1 0x40 MLOAD DUP1 PUSH1 0x40 ADD PUSH1 0x40 MSTORE DUP1 PUSH1 0x1 DUP2 MSTORE PUSH1 0x20 ADD PUSH32 0x3100000000000000000000000000000000000000000000000000000000000000 DUP2 MSTORE POP PUSH2 0x3085 JUMP JUMPDEST POP JUMP JUMPDEST PUSH2 0x2672 PUSH2 0x2FD9 JUMP JUMPDEST JUMP JUMPDEST PUSH2 0x267C PUSH2 0x2FD9 JUMP JUMPDEST JUMP JUMPDEST PUSH0 PUSH2 0x2690 PUSH2 0x268A PUSH2 0x1DDF JUMP JUMPDEST DUP4 PUSH2 0x30D6 JUMP JUMPDEST SWAP1 POP SWAP2 SWAP1 POP JUMP JUMPDEST PUSH0 DUP1 PUSH0 DUP1 PUSH2 0x26A7 DUP9 DUP9 DUP9 DUP9 PUSH2 0x3116 JUMP JUMPDEST SWAP3 POP SWAP3 POP SWAP3 POP PUSH2 0x26B7 DUP3 DUP3 PUSH2 0x31FD JUMP JUMPDEST DUP3 SWAP4 POP POP POP POP SWAP5 SWAP4 POP POP POP POP JUMP JUMPDEST PUSH0 PUSH2 0x26CF DUP4 PUSH2 0x271C JUMP JUMPDEST SWAP1 POP DUP1 DUP3 EQ PUSH2 0x2717 JUMPI DUP3 DUP2 PUSH1 0x40 MLOAD PUSH32 0x752D88C000000000000000000000000000000000000000000000000000000000 DUP2 MSTORE PUSH1 0x4 ADD PUSH2 0x270E SWAP3 SWAP2 SWAP1 PUSH2 0x4EEE JUMP JUMPDEST PUSH1 0x40 MLOAD DUP1 SWAP2 SUB SWAP1 REVERT JUMPDEST POP POP POP JUMP JUMPDEST PUSH0 DUP1 PUSH2 0x2726 PUSH2 0x335F JUMP JUMPDEST SWAP1 POP DUP1 PUSH0 ADD PUSH0 DUP5 PUSH20 0xFFFFFFFFFFFFFFFFFFFFFFFFFFFFFFFFFFFFFFFF AND PUSH20 0xFFFFFFFFFFFFFFFFFFFFFFFFFFFFFFFFFFFFFFFF AND DUP2 MSTORE PUSH1 0x20 ADD SWAP1 DUP2 MSTORE PUSH1 0x20 ADD PUSH0 KECCAK256 PUSH0 DUP2 SLOAD DUP1 SWAP3 SWAP2 SWAP1 PUSH1 0x1 ADD SWAP2 SWAP1 POP SSTORE SWAP2 POP POP SWAP2 SWAP1 POP JUMP JUMPDEST PUSH0 SWAP3 SWAP2 POP POP JUMP JUMPDEST PUSH2 0x278B PUSH2 0x3EAD JUMP JUMPDEST PUSH0 PUSH2 0x2794 PUSH2 0x1EE5 JUMP JUMPDEST SWAP1 POP PUSH2 0x27E7 DUP4 DUP3 PUSH1 0x1 ADD PUSH0 DUP8 PUSH20 0xFFFFFFFFFFFFFFFFFFFFFFFFFFFFFFFFFFFFFFFF AND PUSH20 0xFFFFFFFFFFFFFFFFFFFFFFFFFFFFFFFFFFFFFFFF AND DUP2 MSTORE PUSH1 0x20 ADD SWAP1 DUP2 MSTORE PUSH1 0x20 ADD PUSH0 KECCAK256 PUSH2 0x3386 SWAP1 SWAP2 SWAP1 PUSH4 0xFFFFFFFF AND JUMP JUMPDEST SWAP2 POP POP SWAP3 SWAP2 POP POP JUMP JUMPDEST PUSH0 PUSH2 0x27F9 PUSH2 0x1AEA JUMP JUMPDEST SWAP1 POP PUSH0 PUSH20 0xFFFFFFFFFFFFFFFFFFFFFFFFFFFFFFFFFFFFFFFF AND DUP6 PUSH20 0xFFFFFFFFFFFFFFFFFFFFFFFFFFFFFFFFFFFFFFFF AND SUB PUSH2 0x286B JUMPI PUSH0 PUSH1 0x40 MLOAD PUSH32 0xE602DF0500000000000000000000000000000000000000000000000000000000 DUP2 MSTORE PUSH1 0x4 ADD PUSH2 0x2862 SWAP2 SWAP1 PUSH2 0x42EE JUMP JUMPDEST PUSH1 0x40 MLOAD DUP1 SWAP2 SUB SWAP1 REVERT JUMPDEST PUSH0 PUSH20 0xFFFFFFFFFFFFFFFFFFFFFFFFFFFFFFFFFFFFFFFF AND DUP5 PUSH20 0xFFFFFFFFFFFFFFFFFFFFFFFFFFFFFFFFFFFFFFFF AND SUB PUSH2 0x28DB JUMPI PUSH0 PUSH1 0x40 MLOAD PUSH32 0x94280D6200000000000000000000000000000000000000000000000000000000 DUP2 MSTORE PUSH1 0x4 ADD PUSH2 0x28D2 SWAP2 SWAP1 PUSH2 0x42EE JUMP JUMPDEST PUSH1 0x40 MLOAD DUP1 SWAP2 SUB SWAP1 REVERT JUMPDEST DUP3 DUP2 PUSH1 0x1 ADD PUSH0 DUP8 PUSH20 0xFFFFFFFFFFFFFFFFFFFFFFFFFFFFFFFFFFFFFFFF AND PUSH20 0xFFFFFFFFFFFFFFFFFFFFFFFFFFFFFFFFFFFFFFFF AND DUP2 MSTORE PUSH1 0x20 ADD SWAP1 DUP2 MSTORE PUSH1 0x20 ADD PUSH0 KECCAK256 PUSH0 DUP7 PUSH20 0xFFFFFFFFFFFFFFFFFFFFFFFFFFFFFFFFFFFFFFFF AND PUSH20 0xFFFFFFFFFFFFFFFFFFFFFFFFFFFFFFFFFFFFFFFF AND DUP2 MSTORE PUSH1 0x20 ADD SWAP1 DUP2 MSTORE PUSH1 0x20 ADD PUSH0 KECCAK256 DUP2 SWAP1 SSTORE POP DUP2 ISZERO PUSH2 0x29C6 JUMPI DUP4 PUSH20 0xFFFFFFFFFFFFFFFFFFFFFFFFFFFFFFFFFFFFFFFF AND DUP6 PUSH20 0xFFFFFFFFFFFFFFFFFFFFFFFFFFFFFFFFFFFFFFFF AND PUSH32 0x8C5BE1E5EBEC7D5BD14F71427D1E84F3DD0314C0F7B2291E5B200AC8C7C3B925 DUP6 PUSH1 0x40 MLOAD PUSH2 0x29BD SWAP2 SWAP1 PUSH2 0x4128 JUMP JUMPDEST PUSH1 0x40 MLOAD DUP1 SWAP2 SUB SWAP1 LOG3 JUMPDEST POP POP POP POP POP JUMP JUMPDEST PUSH2 0x29D8 DUP4 DUP4 DUP4 PUSH2 0x3455 JUMP JUMPDEST POP POP POP JUMP JUMPDEST PUSH2 0x29E7 DUP3 DUP3 PUSH2 0x1241 JUMP JUMPDEST PUSH2 0x2A2A JUMPI DUP1 DUP3 PUSH1 0x40 MLOAD PUSH32 0xE2517D3F00000000000000000000000000000000000000000000000000000000 DUP2 MSTORE PUSH1 0x4 ADD PUSH2 0x2A21 SWAP3 SWAP2 SWAP1 PUSH2 0x4F15 JUMP JUMPDEST PUSH1 0x40 MLOAD DUP1 SWAP2 SUB SWAP1 REVERT JUMPDEST POP POP JUMP JUMPDEST PUSH0 PUSH32 0x8B73C3C69BB8FE3D512ECC4CF759CC79239F7B179B0FFACAA9A75D522B39400F PUSH2 0x2A58 PUSH2 0x3503 JUMP JUMPDEST PUSH2 0x2A60 PUSH2 0x3579 JUMP JUMPDEST CHAINID ADDRESS PUSH1 0x40 MLOAD PUSH1 0x20 ADD PUSH2 0x2A76 SWAP6 SWAP5 SWAP4 SWAP3 SWAP2 SWAP1 PUSH2 0x4F3C JUMP JUMPDEST PUSH1 0x40 MLOAD PUSH1 0x20 DUP2 DUP4 SUB SUB DUP2 MSTORE SWAP1 PUSH1 0x40 MSTORE DUP1 MLOAD SWAP1 PUSH1 0x20 ADD KECCAK256 SWAP1 POP SWAP1 JUMP JUMPDEST PUSH0 DUP1 DUP3 SUB PUSH2 0x2AA1 JUMPI PUSH0 SWAP1 POP PUSH2 0x2B82 JUMP JUMPDEST PUSH0 PUSH1 0x1 PUSH2 0x2AAD DUP5 PUSH2 0x35F0 JUMP JUMPDEST SWAP1 SHR PUSH1 0x1 SWAP1 SHL SWAP1 POP PUSH1 0x1 DUP2 DUP5 DUP2 PUSH2 0x2AC7 JUMPI PUSH2 0x2AC6 PUSH2 0x4F8D JUMP JUMPDEST JUMPDEST DIV DUP3 ADD SWAP1 SHR SWAP1 POP PUSH1 0x1 DUP2 DUP5 DUP2 PUSH2 0x2AE0 JUMPI PUSH2 0x2ADF PUSH2 0x4F8D JUMP JUMPDEST JUMPDEST DIV DUP3 ADD SWAP1 SHR SWAP1 POP PUSH1 0x1 DUP2 DUP5 DUP2 PUSH2 0x2AF9 JUMPI PUSH2 0x2AF8 PUSH2 0x4F8D JUMP JUMPDEST JUMPDEST DIV DUP3 ADD SWAP1 SHR SWAP1 POP PUSH1 0x1 DUP2 DUP5 DUP2 PUSH2 0x2B12 JUMPI PUSH2 0x2B11 PUSH2 0x4F8D JUMP JUMPDEST JUMPDEST DIV DUP3 ADD SWAP1 SHR SWAP1 POP PUSH1 0x1 DUP2 DUP5 DUP2 PUSH2 0x2B2B JUMPI PUSH2 0x2B2A PUSH2 0x4F8D JUMP JUMPDEST JUMPDEST DIV DUP3 ADD SWAP1 SHR SWAP1 POP PUSH1 0x1 DUP2 DUP5 DUP2 PUSH2 0x2B44 JUMPI PUSH2 0x2B43 PUSH2 0x4F8D JUMP JUMPDEST JUMPDEST DIV DUP3 ADD SWAP1 SHR SWAP1 POP PUSH1 0x1 DUP2 DUP5 DUP2 PUSH2 0x2B5D JUMPI PUSH2 0x2B5C PUSH2 0x4F8D JUMP JUMPDEST JUMPDEST DIV DUP3 ADD SWAP1 SHR SWAP1 POP PUSH2 0x2B7E DUP2 DUP3 DUP6 DUP2 PUSH2 0x2B78 JUMPI PUSH2 0x2B77 PUSH2 0x4F8D JUMP JUMPDEST JUMPDEST DIV PUSH2 0x36C7 JUMP JUMPDEST SWAP2 POP POP JUMPDEST SWAP2 SWAP1 POP JUMP JUMPDEST PUSH0 DUP3 PUSH0 MSTORE DUP2 PUSH1 0x20 PUSH0 KECCAK256 ADD SWAP1 POP SWAP3 SWAP2 POP POP JUMP JUMPDEST PUSH0 JUMPDEST DUP2 DUP4 LT ISZERO PUSH2 0x2C03 JUMPI PUSH0 PUSH2 0x2BAE DUP5 DUP5 PUSH2 0x36DF JUMP JUMPDEST SWAP1 POP DUP5 PUSH6 0xFFFFFFFFFFFF AND PUSH2 0x2BC3 DUP8 DUP4 PUSH2 0x2B87 JUMP JUMPDEST PUSH0 ADD PUSH0 SWAP1 SLOAD SWAP1 PUSH2 0x100 EXP SWAP1 DIV PUSH6 0xFFFFFFFFFFFF AND PUSH6 0xFFFFFFFFFFFF AND GT ISZERO PUSH2 0x2BED JUMPI DUP1 SWAP3 POP PUSH2 0x2BFD JUMP JUMPDEST PUSH1 0x1 DUP2 PUSH2 0x2BFA SWAP2 SWAP1 PUSH2 0x4A6D JUMP JUMPDEST SWAP4 POP JUMPDEST POP PUSH2 0x2B9B JUMP JUMPDEST DUP2 SWAP1 POP SWAP5 SWAP4 POP POP POP POP JUMP JUMPDEST PUSH2 0x2C16 PUSH2 0xD3A JUMP JUMPDEST PUSH2 0x2C4C JUMPI PUSH1 0x40 MLOAD PUSH32 0x8DFC202B00000000000000000000000000000000000000000000000000000000 DUP2 MSTORE PUSH1 0x4 ADD PUSH1 0x40 MLOAD DUP1 SWAP2 SUB SWAP1 REVERT JUMPDEST JUMP JUMPDEST PUSH0 PUSH2 0x2C58 DUP3 PUSH2 0xFD7 JUMP JUMPDEST SWAP1 POP SWAP2 SWAP1 POP JUMP JUMPDEST PUSH0 PUSH2 0x2C68 PUSH2 0x1EE5 JUMP JUMPDEST SWAP1 POP DUP3 PUSH20 0xFFFFFFFFFFFFFFFFFFFFFFFFFFFFFFFFFFFFFFFF AND DUP5 PUSH20 0xFFFFFFFFFFFFFFFFFFFFFFFFFFFFFFFFFFFFFFFF AND EQ ISZERO DUP1 ISZERO PUSH2 0x2CA5 JUMPI POP PUSH0 DUP3 GT JUMPDEST ISZERO PUSH2 0x2ED9 JUMPI PUSH0 PUSH20 0xFFFFFFFFFFFFFFFFFFFFFFFFFFFFFFFFFFFFFFFF AND DUP5 PUSH20 0xFFFFFFFFFFFFFFFFFFFFFFFFFFFFFFFFFFFFFFFF AND EQ PUSH2 0x2DC1 JUMPI PUSH0 DUP1 PUSH2 0x2D32 DUP4 PUSH1 0x1 ADD PUSH0 DUP9 PUSH20 0xFFFFFFFFFFFFFFFFFFFFFFFFFFFFFFFFFFFFFFFF AND PUSH20 0xFFFFFFFFFFFFFFFFFFFFFFFFFFFFFFFFFFFFFFFF AND DUP2 MSTORE PUSH1 0x20 ADD SWAP1 DUP2 MSTORE PUSH1 0x20 ADD PUSH0 KECCAK256 PUSH2 0x3704 PUSH2 0x2D2D DUP8 PUSH2 0x3719 JUMP JUMPDEST PUSH2 0x3786 JUMP JUMPDEST PUSH26 0xFFFFFFFFFFFFFFFFFFFFFFFFFFFFFFFFFFFFFFFFFFFFFFFFFFFF AND SWAP2 POP PUSH26 0xFFFFFFFFFFFFFFFFFFFFFFFFFFFFFFFFFFFFFFFFFFFFFFFFFFFF AND SWAP2 POP DUP6 PUSH20 0xFFFFFFFFFFFFFFFFFFFFFFFFFFFFFFFFFFFFFFFF AND PUSH32 0xDEC2BACDD2F05B59DE34DA9B523DFF8BE42E5E38E818C82FDB0BAE774387A724 DUP4 DUP4 PUSH1 0x40 MLOAD PUSH2 0x2DB6 SWAP3 SWAP2 SWAP1 PUSH2 0x4FBA JUMP JUMPDEST PUSH1 0x40 MLOAD DUP1 SWAP2 SUB SWAP1 LOG2 POP POP JUMPDEST PUSH0 PUSH20 0xFFFFFFFFFFFFFFFFFFFFFFFFFFFFFFFFFFFFFFFF AND DUP4 PUSH20 0xFFFFFFFFFFFFFFFFFFFFFFFFFFFFFFFFFFFFFFFF AND EQ PUSH2 0x2ED8 JUMPI PUSH0 DUP1 PUSH2 0x2E49 DUP4 PUSH1 0x1 ADD PUSH0 DUP8 PUSH20 0xFFFFFFFFFFFFFFFFFFFFFFFFFFFFFFFFFFFFFFFF AND PUSH20 0xFFFFFFFFFFFFFFFFFFFFFFFFFFFFFFFFFFFFFFFF AND DUP2 MSTORE PUSH1 0x20 ADD SWAP1 DUP2 MSTORE PUSH1 0x20 ADD PUSH0 KECCAK256 PUSH2 0x37C5 PUSH2 0x2E44 DUP8 PUSH2 0x3719 JUMP JUMPDEST PUSH2 0x3786 JUMP JUMPDEST PUSH26 0xFFFFFFFFFFFFFFFFFFFFFFFFFFFFFFFFFFFFFFFFFFFFFFFFFFFF AND SWAP2 POP PUSH26 0xFFFFFFFFFFFFFFFFFFFFFFFFFFFFFFFFFFFFFFFFFFFFFFFFFFFF AND SWAP2 POP DUP5 PUSH20 0xFFFFFFFFFFFFFFFFFFFFFFFFFFFFFFFFFFFFFFFF AND PUSH32 0xDEC2BACDD2F05B59DE34DA9B523DFF8BE42E5E38E818C82FDB0BAE774387A724 DUP4 DUP4 PUSH1 0x40 MLOAD PUSH2 0x2ECD SWAP3 SWAP2 SWAP1 PUSH2 0x4FBA JUMP JUMPDEST PUSH1 0x40 MLOAD DUP1 SWAP2 SUB SWAP1 LOG2 POP POP JUMPDEST JUMPDEST POP POP POP POP JUMP JUMPDEST PUSH0 DUP2 PUSH0 ADD DUP1 SLOAD SWAP1 POP SWAP1 POP SWAP2 SWAP1 POP JUMP JUMPDEST PUSH0 PUSH4 0xFFFFFFFF DUP1 AND DUP3 GT ISZERO PUSH2 0x2F3D JUMPI PUSH1 0x20 DUP3 PUSH1 0x40 MLOAD PUSH32 0x6DFCC65000000000000000000000000000000000000000000000000000000000 DUP2 MSTORE PUSH1 0x4 ADD PUSH2 0x2F34 SWAP3 SWAP2 SWAP1 PUSH2 0x501A JUMP JUMPDEST PUSH1 0x40 MLOAD DUP1 SWAP2 SUB SWAP1 REVERT JUMPDEST DUP2 SWAP1 POP SWAP2 SWAP1 POP JUMP JUMPDEST PUSH0 DUP1 PUSH2 0x2F4F PUSH2 0x335F JUMP JUMPDEST SWAP1 POP DUP1 PUSH0 ADD PUSH0 DUP5 PUSH20 0xFFFFFFFFFFFFFFFFFFFFFFFFFFFFFFFFFFFFFFFF AND PUSH20 0xFFFFFFFFFFFFFFFFFFFFFFFFFFFFFFFFFFFFFFFF AND DUP2 MSTORE PUSH1 0x20 ADD SWAP1 DUP2 MSTORE PUSH1 0x20 ADD PUSH0 KECCAK256 SLOAD SWAP2 POP POP SWAP2 SWAP1 POP JUMP JUMPDEST PUSH2 0x2FA0 PUSH2 0xD3A JUMP JUMPDEST ISZERO PUSH2 0x2FD7 JUMPI PUSH1 0x40 MLOAD PUSH32 0xD93C066500000000000000000000000000000000000000000000000000000000 DUP2 MSTORE PUSH1 0x4 ADD PUSH1 0x40 MLOAD DUP1 SWAP2 SUB SWAP1 REVERT JUMPDEST JUMP JUMPDEST PUSH2 0x2FE1 PUSH2 0x37DA JUMP JUMPDEST PUSH2 0x3017 JUMPI PUSH1 0x40 MLOAD PUSH32 0xD7E6BCF800000000000000000000000000000000000000000000000000000000 DUP2 MSTORE PUSH1 0x4 ADD PUSH1 0x40 MLOAD DUP1 SWAP2 SUB SWAP1 REVERT JUMPDEST JUMP JUMPDEST PUSH2 0x3021 PUSH2 0x2FD9 JUMP JUMPDEST PUSH0 PUSH2 0x302A PUSH2 0x1AEA JUMP JUMPDEST SWAP1 POP DUP3 DUP2 PUSH1 0x3 ADD SWAP1 DUP2 PUSH2 0x303D SWAP2 SWAP1 PUSH2 0x51D5 JUMP JUMPDEST POP DUP2 DUP2 PUSH1 0x4 ADD SWAP1 DUP2 PUSH2 0x304F SWAP2 SWAP1 PUSH2 0x51D5 JUMP JUMPDEST POP POP POP POP JUMP JUMPDEST PUSH2 0x305D PUSH2 0x2FD9 JUMP JUMPDEST PUSH0 PUSH2 0x3066 PUSH2 0x22EA JUMP JUMPDEST SWAP1 POP PUSH0 DUP2 PUSH0 ADD PUSH0 PUSH2 0x100 EXP DUP2 SLOAD DUP2 PUSH1 0xFF MUL NOT AND SWAP1 DUP4 ISZERO ISZERO MUL OR SWAP1 SSTORE POP POP JUMP JUMPDEST PUSH2 0x308D PUSH2 0x2FD9 JUMP JUMPDEST PUSH0 PUSH2 0x3096 PUSH2 0x23F8 JUMP JUMPDEST SWAP1 POP DUP3 DUP2 PUSH1 0x2 ADD SWAP1 DUP2 PUSH2 0x30A9 SWAP2 SWAP1 PUSH2 0x51D5 JUMP JUMPDEST POP DUP2 DUP2 PUSH1 0x3 ADD SWAP1 DUP2 PUSH2 0x30BB SWAP2 SWAP1 PUSH2 0x51D5 JUMP JUMPDEST POP PUSH0 DUP1 SHL DUP2 PUSH0 ADD DUP2 SWAP1 SSTORE POP PUSH0 DUP1 SHL DUP2 PUSH1 0x1 ADD DUP2 SWAP1 SSTORE POP POP POP POP JUMP JUMPDEST PUSH0 PUSH1 0x40 MLOAD PUSH32 0x1901000000000000000000000000000000000000000000000000000000000000 DUP2 MSTORE DUP4 PUSH1 0x2 DUP3 ADD MSTORE DUP3 PUSH1 0x22 DUP3 ADD MSTORE PUSH1 0x42 DUP2 KECCAK256 SWAP2 POP POP SWAP3 SWAP2 POP POP JUMP JUMPDEST PUSH0 DUP1 PUSH0 PUSH32 0x7FFFFFFFFFFFFFFFFFFFFFFFFFFFFFFF5D576E7357A4501DDFE92F46681B20A0 DUP5 PUSH0 SHR GT ISZERO PUSH2 0x3152 JUMPI PUSH0 PUSH1 0x3 DUP6 SWAP3 POP SWAP3 POP SWAP3 POP PUSH2 0x31F3 JUMP JUMPDEST PUSH0 PUSH1 0x1 DUP9 DUP9 DUP9 DUP9 PUSH1 0x40 MLOAD PUSH0 DUP2 MSTORE PUSH1 0x20 ADD PUSH1 0x40 MSTORE PUSH1 0x40 MLOAD PUSH2 0x3175 SWAP5 SWAP4 SWAP3 SWAP2 SWAP1 PUSH2 0x52A4 JUMP JUMPDEST PUSH1 0x20 PUSH1 0x40 MLOAD PUSH1 0x20 DUP2 SUB SWAP1 DUP1 DUP5 SUB SWAP1 DUP6 GAS STATICCALL ISZERO DUP1 ISZERO PUSH2 0x3195 JUMPI RETURNDATASIZE PUSH0 DUP1 RETURNDATACOPY RETURNDATASIZE PUSH0 REVERT JUMPDEST POP POP POP PUSH1 0x20 PUSH1 0x40 MLOAD SUB MLOAD SWAP1 POP PUSH0 PUSH20 0xFFFFFFFFFFFFFFFFFFFFFFFFFFFFFFFFFFFFFFFF AND DUP2 PUSH20 0xFFFFFFFFFFFFFFFFFFFFFFFFFFFFFFFFFFFFFFFF AND SUB PUSH2 0x31E6 JUMPI PUSH0 PUSH1 0x1 PUSH0 DUP1 SHL SWAP4 POP SWAP4 POP SWAP4 POP POP PUSH2 0x31F3 JUMP JUMPDEST DUP1 PUSH0 DUP1 PUSH0 SHL SWAP4 POP SWAP4 POP SWAP4 POP POP JUMPDEST SWAP5 POP SWAP5 POP SWAP5 SWAP2 POP POP JUMP JUMPDEST PUSH0 PUSH1 0x3 DUP2 GT ISZERO PUSH2 0x3210 JUMPI PUSH2 0x320F PUSH2 0x52E7 JUMP JUMPDEST JUMPDEST DUP3 PUSH1 0x3 DUP2 GT ISZERO PUSH2 0x3223 JUMPI PUSH2 0x3222 PUSH2 0x52E7 JUMP JUMPDEST JUMPDEST SUB ISZERO PUSH2 0x335B JUMPI PUSH1 0x1 PUSH1 0x3 DUP2 GT ISZERO PUSH2 0x323D JUMPI PUSH2 0x323C PUSH2 0x52E7 JUMP JUMPDEST JUMPDEST DUP3 PUSH1 0x3 DUP2 GT ISZERO PUSH2 0x3250 JUMPI PUSH2 0x324F PUSH2 0x52E7 JUMP JUMPDEST JUMPDEST SUB PUSH2 0x3287 JUMPI PUSH1 0x40 MLOAD PUSH32 0xF645EEDF00000000000000000000000000000000000000000000000000000000 DUP2 MSTORE PUSH1 0x4 ADD PUSH1 0x40 MLOAD DUP1 SWAP2 SUB SWAP1 REVERT JUMPDEST PUSH1 0x2 PUSH1 0x3 DUP2 GT ISZERO PUSH2 0x329B JUMPI PUSH2 0x329A PUSH2 0x52E7 JUMP JUMPDEST JUMPDEST DUP3 PUSH1 0x3 DUP2 GT ISZERO PUSH2 0x32AE JUMPI PUSH2 0x32AD PUSH2 0x52E7 JUMP JUMPDEST JUMPDEST SUB PUSH2 0x32F2 JUMPI DUP1 PUSH0 SHR PUSH1 0x40 MLOAD PUSH32 0xFCE698F700000000000000000000000000000000000000000000000000000000 DUP2 MSTORE PUSH1 0x4 ADD PUSH2 0x32E9 SWAP2 SWAP1 PUSH2 0x4128 JUMP JUMPDEST PUSH1 0x40 MLOAD DUP1 SWAP2 SUB SWAP1 REVERT JUMPDEST PUSH1 0x3 DUP1 DUP2 GT ISZERO PUSH2 0x3305 JUMPI PUSH2 0x3304 PUSH2 0x52E7 JUMP JUMPDEST JUMPDEST DUP3 PUSH1 0x3 DUP2 GT ISZERO PUSH2 0x3318 JUMPI PUSH2 0x3317 PUSH2 0x52E7 JUMP JUMPDEST JUMPDEST SUB PUSH2 0x335A JUMPI DUP1 PUSH1 0x40 MLOAD PUSH32 0xD78BCE0C00000000000000000000000000000000000000000000000000000000 DUP2 MSTORE PUSH1 0x4 ADD PUSH2 0x3351 SWAP2 SWAP1 PUSH2 0x41FE JUMP JUMPDEST PUSH1 0x40 MLOAD DUP1 SWAP2 SUB SWAP1 REVERT JUMPDEST JUMPDEST POP POP JUMP JUMPDEST PUSH0 PUSH32 0x5AB42CED628888259C08AC98DB1EB0CF702FC1501344311D8B100CD1BFE4BB00 SWAP1 POP SWAP1 JUMP JUMPDEST PUSH2 0x338E PUSH2 0x3EAD JUMP JUMPDEST DUP3 PUSH0 ADD DUP3 PUSH4 0xFFFFFFFF AND DUP2 SLOAD DUP2 LT PUSH2 0x33A9 JUMPI PUSH2 0x33A8 PUSH2 0x5314 JUMP JUMPDEST JUMPDEST SWAP1 PUSH0 MSTORE PUSH1 0x20 PUSH0 KECCAK256 ADD PUSH1 0x40 MLOAD DUP1 PUSH1 0x40 ADD PUSH1 0x40 MSTORE SWAP1 DUP2 PUSH0 DUP3 ADD PUSH0 SWAP1 SLOAD SWAP1 PUSH2 0x100 EXP SWAP1 DIV PUSH6 0xFFFFFFFFFFFF AND PUSH6 0xFFFFFFFFFFFF AND PUSH6 0xFFFFFFFFFFFF AND DUP2 MSTORE PUSH1 0x20 ADD PUSH0 DUP3 ADD PUSH1 0x6 SWAP1 SLOAD SWAP1 PUSH2 0x100 EXP SWAP1 DIV PUSH26 0xFFFFFFFFFFFFFFFFFFFFFFFFFFFFFFFFFFFFFFFFFFFFFFFFFFFF AND PUSH26 0xFFFFFFFFFFFFFFFFFFFFFFFFFFFFFFFFFFFFFFFFFFFFFFFFFFFF AND PUSH26 0xFFFFFFFFFFFFFFFFFFFFFFFFFFFFFFFFFFFFFFFFFFFFFFFFFFFF AND DUP2 MSTORE POP POP SWAP1 POP SWAP3 SWAP2 POP POP JUMP JUMPDEST PUSH2 0x3460 DUP4 DUP4 DUP4 PUSH2 0x37F8 JUMP JUMPDEST PUSH0 PUSH20 0xFFFFFFFFFFFFFFFFFFFFFFFFFFFFFFFFFFFFFFFF AND DUP4 PUSH20 0xFFFFFFFFFFFFFFFFFFFFFFFFFFFFFFFFFFFFFFFF AND SUB PUSH2 0x34F3 JUMPI PUSH0 PUSH2 0x349C PUSH2 0x993 JUMP JUMPDEST SWAP1 POP PUSH0 PUSH2 0x34A7 PUSH2 0x3810 JUMP JUMPDEST SWAP1 POP DUP1 DUP3 GT ISZERO PUSH2 0x34F0 JUMPI DUP2 DUP2 PUSH1 0x40 MLOAD PUSH32 0x1CB15D2600000000000000000000000000000000000000000000000000000000 DUP2 MSTORE PUSH1 0x4 ADD PUSH2 0x34E7 SWAP3 SWAP2 SWAP1 PUSH2 0x4FBA JUMP JUMPDEST PUSH1 0x40 MLOAD DUP1 SWAP2 SUB SWAP1 REVERT JUMPDEST POP POP JUMPDEST PUSH2 0x34FE DUP4 DUP4 DUP4 PUSH2 0x3833 JUMP JUMPDEST POP POP POP JUMP JUMPDEST PUSH0 DUP1 PUSH2 0x350D PUSH2 0x23F8 JUMP JUMPDEST SWAP1 POP PUSH0 PUSH2 0x3518 PUSH2 0x241F JUMP JUMPDEST SWAP1 POP PUSH0 DUP2 MLOAD GT ISZERO PUSH2 0x3534 JUMPI DUP1 DUP1 MLOAD SWAP1 PUSH1 0x20 ADD KECCAK256 SWAP3 POP POP POP PUSH2 0x3576 JUMP JUMPDEST PUSH0 DUP3 PUSH0 ADD SLOAD SWAP1 POP PUSH0 DUP1 SHL DUP2 EQ PUSH2 0x354F JUMPI DUP1 SWAP4 POP POP POP POP PUSH2 0x3576 JUMP JUMPDEST PUSH32 0xC5D2460186F7233C927E7DB2DCC703C0E500B653CA82273B7BFAD8045D85A470 SWAP4 POP POP POP POP JUMPDEST SWAP1 JUMP JUMPDEST PUSH0 DUP1 PUSH2 0x3583 PUSH2 0x23F8 JUMP JUMPDEST SWAP1 POP PUSH0 PUSH2 0x358E PUSH2 0x24BD JUMP JUMPDEST SWAP1 POP PUSH0 DUP2 MLOAD GT ISZERO PUSH2 0x35AA JUMPI DUP1 DUP1 MLOAD SWAP1 PUSH1 0x20 ADD KECCAK256 SWAP3 POP POP POP PUSH2 0x35ED JUMP JUMPDEST PUSH0 DUP3 PUSH1 0x1 ADD SLOAD SWAP1 POP PUSH0 DUP1 SHL DUP2 EQ PUSH2 0x35C6 JUMPI DUP1 SWAP4 POP POP POP POP PUSH2 0x35ED JUMP JUMPDEST PUSH32 0xC5D2460186F7233C927E7DB2DCC703C0E500B653CA82273B7BFAD8045D85A470 SWAP4 POP POP POP POP JUMPDEST SWAP1 JUMP JUMPDEST PUSH0 DUP1 PUSH0 SWAP1 POP PUSH0 PUSH1 0x80 DUP5 SWAP1 SHR GT ISZERO PUSH2 0x360F JUMPI PUSH1 0x80 DUP4 SWAP1 SHR SWAP3 POP PUSH1 0x80 DUP2 ADD SWAP1 POP JUMPDEST PUSH0 PUSH1 0x40 DUP5 SWAP1 SHR GT ISZERO PUSH2 0x3629 JUMPI PUSH1 0x40 DUP4 SWAP1 SHR SWAP3 POP PUSH1 0x40 DUP2 ADD SWAP1 POP JUMPDEST PUSH0 PUSH1 0x20 DUP5 SWAP1 SHR GT ISZERO PUSH2 0x3643 JUMPI PUSH1 0x20 DUP4 SWAP1 SHR SWAP3 POP PUSH1 0x20 DUP2 ADD SWAP1 POP JUMPDEST PUSH0 PUSH1 0x10 DUP5 SWAP1 SHR GT ISZERO PUSH2 0x365D JUMPI PUSH1 0x10 DUP4 SWAP1 SHR SWAP3 POP PUSH1 0x10 DUP2 ADD SWAP1 POP JUMPDEST PUSH0 PUSH1 0x8 DUP5 SWAP1 SHR GT ISZERO PUSH2 0x3677 JUMPI PUSH1 0x8 DUP4 SWAP1 SHR SWAP3 POP PUSH1 0x8 DUP2 ADD SWAP1 POP JUMPDEST PUSH0 PUSH1 0x4 DUP5 SWAP1 SHR GT ISZERO PUSH2 0x3691 JUMPI PUSH1 0x4 DUP4 SWAP1 SHR SWAP3 POP PUSH1 0x4 DUP2 ADD SWAP1 POP JUMPDEST PUSH0 PUSH1 0x2 DUP5 SWAP1 SHR GT ISZERO PUSH2 0x36AB JUMPI PUSH1 0x2 DUP4 SWAP1 SHR SWAP3 POP PUSH1 0x2 DUP2 ADD SWAP1 POP JUMPDEST PUSH0 PUSH1 0x1 DUP5 SWAP1 SHR GT ISZERO PUSH2 0x36BE JUMPI PUSH1 0x1 DUP2 ADD SWAP1 POP JUMPDEST DUP1 SWAP2 POP POP SWAP2 SWAP1 POP JUMP JUMPDEST PUSH0 DUP2 DUP4 LT PUSH2 0x36D5 JUMPI DUP2 PUSH2 0x36D7 JUMP JUMPDEST DUP3 JUMPDEST SWAP1 POP SWAP3 SWAP2 POP POP JUMP JUMPDEST PUSH0 PUSH1 0x2 DUP3 DUP5 XOR PUSH2 0x36EF SWAP2 SWAP1 PUSH2 0x5341 JUMP JUMPDEST DUP3 DUP5 AND PUSH2 0x36FC SWAP2 SWAP1 PUSH2 0x4A6D JUMP JUMPDEST SWAP1 POP SWAP3 SWAP2 POP POP JUMP JUMPDEST PUSH0 DUP2 DUP4 PUSH2 0x3711 SWAP2 SWAP1 PUSH2 0x5371 JUMP JUMPDEST SWAP1 POP SWAP3 SWAP2 POP POP JUMP JUMPDEST PUSH0 PUSH26 0xFFFFFFFFFFFFFFFFFFFFFFFFFFFFFFFFFFFFFFFFFFFFFFFFFFFF DUP1 AND DUP3 GT ISZERO PUSH2 0x377E JUMPI PUSH1 0xD0 DUP3 PUSH1 0x40 MLOAD PUSH32 0x6DFCC65000000000000000000000000000000000000000000000000000000000 DUP2 MSTORE PUSH1 0x4 ADD PUSH2 0x3775 SWAP3 SWAP2 SWAP1 PUSH2 0x53F7 JUMP JUMPDEST PUSH1 0x40 MLOAD DUP1 SWAP2 SUB SWAP1 REVERT JUMPDEST DUP2 SWAP1 POP SWAP2 SWAP1 POP JUMP JUMPDEST PUSH0 DUP1 PUSH2 0x37B9 PUSH2 0x3793 PUSH2 0x12B2 JUMP JUMPDEST PUSH2 0x37A9 PUSH2 0x379F DUP9 PUSH2 0x255B JUMP JUMPDEST DUP7 DUP9 PUSH4 0xFFFFFFFF AND JUMP JUMPDEST DUP8 PUSH2 0x38FB SWAP1 SWAP3 SWAP2 SWAP1 PUSH4 0xFFFFFFFF AND JUMP JUMPDEST SWAP2 POP SWAP2 POP SWAP4 POP SWAP4 SWAP2 POP POP JUMP JUMPDEST PUSH0 DUP2 DUP4 PUSH2 0x37D2 SWAP2 SWAP1 PUSH2 0x541E JUMP JUMPDEST SWAP1 POP SWAP3 SWAP2 POP POP JUMP JUMPDEST PUSH0 PUSH2 0x37E3 PUSH2 0x25BD JUMP JUMPDEST PUSH0 ADD PUSH1 0x8 SWAP1 SLOAD SWAP1 PUSH2 0x100 EXP SWAP1 DIV PUSH1 0xFF AND SWAP1 POP SWAP1 JUMP JUMPDEST PUSH2 0x3800 PUSH2 0x2F98 JUMP JUMPDEST PUSH2 0x380B DUP4 DUP4 DUP4 PUSH2 0x3916 JUMP JUMPDEST POP POP POP JUMP JUMPDEST PUSH0 PUSH26 0xFFFFFFFFFFFFFFFFFFFFFFFFFFFFFFFFFFFFFFFFFFFFFFFFFFFF DUP1 AND SWAP1 POP SWAP1 JUMP JUMPDEST PUSH0 PUSH2 0x383C PUSH2 0x1EE5 JUMP JUMPDEST SWAP1 POP PUSH0 PUSH20 0xFFFFFFFFFFFFFFFFFFFFFFFFFFFFFFFFFFFFFFFF AND DUP5 PUSH20 0xFFFFFFFFFFFFFFFFFFFFFFFFFFFFFFFFFFFFFFFF AND SUB PUSH2 0x388C JUMPI PUSH2 0x3889 DUP2 PUSH1 0x2 ADD PUSH2 0x37C5 PUSH2 0x3884 DUP6 PUSH2 0x3719 JUMP JUMPDEST PUSH2 0x3786 JUMP JUMPDEST POP POP JUMPDEST PUSH0 PUSH20 0xFFFFFFFFFFFFFFFFFFFFFFFFFFFFFFFFFFFFFFFF AND DUP4 PUSH20 0xFFFFFFFFFFFFFFFFFFFFFFFFFFFFFFFFFFFFFFFF AND SUB PUSH2 0x38DA JUMPI PUSH2 0x38D7 DUP2 PUSH1 0x2 ADD PUSH2 0x3704 PUSH2 0x38D2 DUP6 PUSH2 0x3719 JUMP JUMPDEST PUSH2 0x3786 JUMP JUMPDEST POP POP JUMPDEST PUSH2 0x38F5 PUSH2 0x38E6 DUP6 PUSH2 0xCAF JUMP JUMPDEST PUSH2 0x38EF DUP6 PUSH2 0xCAF JUMP JUMPDEST DUP5 PUSH2 0x2C5F JUMP JUMPDEST POP POP POP POP JUMP JUMPDEST PUSH0 DUP1 PUSH2 0x390A DUP6 PUSH0 ADD DUP6 DUP6 PUSH2 0x3B45 JUMP JUMPDEST SWAP2 POP SWAP2 POP SWAP4 POP SWAP4 SWAP2 POP POP JUMP JUMPDEST PUSH0 PUSH2 0x391F PUSH2 0x1AEA JUMP JUMPDEST SWAP1 POP PUSH0 PUSH20 0xFFFFFFFFFFFFFFFFFFFFFFFFFFFFFFFFFFFFFFFF AND DUP5 PUSH20 0xFFFFFFFFFFFFFFFFFFFFFFFFFFFFFFFFFFFFFFFF AND SUB PUSH2 0x3973 JUMPI DUP2 DUP2 PUSH1 0x2 ADD PUSH0 DUP3 DUP3 SLOAD PUSH2 0x3967 SWAP2 SWAP1 PUSH2 0x4A6D JUMP JUMPDEST SWAP3 POP POP DUP2 SWAP1 SSTORE POP PUSH2 0x3A45 JUMP JUMPDEST PUSH0 DUP2 PUSH0 ADD PUSH0 DUP7 PUSH20 0xFFFFFFFFFFFFFFFFFFFFFFFFFFFFFFFFFFFFFFFF AND PUSH20 0xFFFFFFFFFFFFFFFFFFFFFFFFFFFFFFFFFFFFFFFF AND DUP2 MSTORE PUSH1 0x20 ADD SWAP1 DUP2 MSTORE PUSH1 0x20 ADD PUSH0 KECCAK256 SLOAD SWAP1 POP DUP3 DUP2 LT ISZERO PUSH2 0x39FE JUMPI DUP5 DUP2 DUP5 PUSH1 0x40 MLOAD PUSH32 0xE450D38C00000000000000000000000000000000000000000000000000000000 DUP2 MSTORE PUSH1 0x4 ADD PUSH2 0x39F5 SWAP4 SWAP3 SWAP2 SWAP1 PUSH2 0x4E59 JUMP JUMPDEST PUSH1 0x40 MLOAD DUP1 SWAP2 SUB SWAP1 REVERT JUMPDEST DUP3 DUP2 SUB DUP3 PUSH0 ADD PUSH0 DUP8 PUSH20 0xFFFFFFFFFFFFFFFFFFFFFFFFFFFFFFFFFFFFFFFF AND PUSH20 0xFFFFFFFFFFFFFFFFFFFFFFFFFFFFFFFFFFFFFFFF AND DUP2 MSTORE PUSH1 0x20 ADD SWAP1 DUP2 MSTORE PUSH1 0x20 ADD PUSH0 KECCAK256 DUP2 SWAP1 SSTORE POP POP JUMPDEST PUSH0 PUSH20 0xFFFFFFFFFFFFFFFFFFFFFFFFFFFFFFFFFFFFFFFF AND DUP4 PUSH20 0xFFFFFFFFFFFFFFFFFFFFFFFFFFFFFFFFFFFFFFFF AND SUB PUSH2 0x3A8E JUMPI DUP2 DUP2 PUSH1 0x2 ADD PUSH0 DUP3 DUP3 SLOAD SUB SWAP3 POP POP DUP2 SWAP1 SSTORE POP PUSH2 0x3ADA JUMP JUMPDEST DUP2 DUP2 PUSH0 ADD PUSH0 DUP6 PUSH20 0xFFFFFFFFFFFFFFFFFFFFFFFFFFFFFFFFFFFFFFFF AND PUSH20 0xFFFFFFFFFFFFFFFFFFFFFFFFFFFFFFFFFFFFFFFF AND DUP2 MSTORE PUSH1 0x20 ADD SWAP1 DUP2 MSTORE PUSH1 0x20 ADD PUSH0 KECCAK256 PUSH0 DUP3 DUP3 SLOAD ADD SWAP3 POP POP DUP2 SWAP1 SSTORE POP JUMPDEST DUP3 PUSH20 0xFFFFFFFFFFFFFFFFFFFFFFFFFFFFFFFFFFFFFFFF AND DUP5 PUSH20 0xFFFFFFFFFFFFFFFFFFFFFFFFFFFFFFFFFFFFFFFF AND PUSH32 0xDDF252AD1BE2C89B69C2B068FC378DAA952BA7F163C4A11628F55A4DF523B3EF DUP5 PUSH1 0x40 MLOAD PUSH2 0x3B37 SWAP2 SWAP1 PUSH2 0x4128 JUMP JUMPDEST PUSH1 0x40 MLOAD DUP1 SWAP2 SUB SWAP1 LOG3 POP POP POP POP JUMP JUMPDEST PUSH0 DUP1 PUSH0 DUP6 DUP1 SLOAD SWAP1 POP SWAP1 POP PUSH0 DUP2 GT ISZERO PUSH2 0x3DC5 JUMPI PUSH0 PUSH2 0x3B6E DUP8 PUSH1 0x1 DUP5 PUSH2 0x3B69 SWAP2 SWAP1 PUSH2 0x4AA0 JUMP JUMPDEST PUSH2 0x2B87 JUMP JUMPDEST PUSH1 0x40 MLOAD DUP1 PUSH1 0x40 ADD PUSH1 0x40 MSTORE SWAP1 DUP2 PUSH0 DUP3 ADD PUSH0 SWAP1 SLOAD SWAP1 PUSH2 0x100 EXP SWAP1 DIV PUSH6 0xFFFFFFFFFFFF AND PUSH6 0xFFFFFFFFFFFF AND PUSH6 0xFFFFFFFFFFFF AND DUP2 MSTORE PUSH1 0x20 ADD PUSH0 DUP3 ADD PUSH1 0x6 SWAP1 SLOAD SWAP1 PUSH2 0x100 EXP SWAP1 DIV PUSH26 0xFFFFFFFFFFFFFFFFFFFFFFFFFFFFFFFFFFFFFFFFFFFFFFFFFFFF AND PUSH26 0xFFFFFFFFFFFFFFFFFFFFFFFFFFFFFFFFFFFFFFFFFFFFFFFFFFFF AND PUSH26 0xFFFFFFFFFFFFFFFFFFFFFFFFFFFFFFFFFFFFFFFFFFFFFFFFFFFF AND DUP2 MSTORE POP POP SWAP1 POP DUP6 PUSH6 0xFFFFFFFFFFFF AND DUP2 PUSH0 ADD MLOAD PUSH6 0xFFFFFFFFFFFF AND GT ISZERO PUSH2 0x3C59 JUMPI PUSH1 0x40 MLOAD PUSH32 0x2520601D00000000000000000000000000000000000000000000000000000000 DUP2 MSTORE PUSH1 0x4 ADD PUSH1 0x40 MLOAD DUP1 SWAP2 SUB SWAP1 REVERT JUMPDEST DUP6 PUSH6 0xFFFFFFFFFFFF AND DUP2 PUSH0 ADD MLOAD PUSH6 0xFFFFFFFFFFFF AND SUB PUSH2 0x3CDB JUMPI DUP5 PUSH2 0x3C8A DUP9 PUSH1 0x1 DUP6 PUSH2 0x3C85 SWAP2 SWAP1 PUSH2 0x4AA0 JUMP JUMPDEST PUSH2 0x2B87 JUMP JUMPDEST PUSH0 ADD PUSH1 0x6 PUSH2 0x100 EXP DUP2 SLOAD DUP2 PUSH26 0xFFFFFFFFFFFFFFFFFFFFFFFFFFFFFFFFFFFFFFFFFFFFFFFFFFFF MUL NOT AND SWAP1 DUP4 PUSH26 0xFFFFFFFFFFFFFFFFFFFFFFFFFFFFFFFFFFFFFFFFFFFFFFFFFFFF AND MUL OR SWAP1 SSTORE POP PUSH2 0x3DB4 JUMP JUMPDEST DUP7 PUSH1 0x40 MLOAD DUP1 PUSH1 0x40 ADD PUSH1 0x40 MSTORE DUP1 DUP9 PUSH6 0xFFFFFFFFFFFF AND DUP2 MSTORE PUSH1 0x20 ADD DUP8 PUSH26 0xFFFFFFFFFFFFFFFFFFFFFFFFFFFFFFFFFFFFFFFFFFFFFFFFFFFF AND DUP2 MSTORE POP SWAP1 DUP1 PUSH1 0x1 DUP2 SLOAD ADD DUP1 DUP3 SSTORE DUP1 SWAP2 POP POP PUSH1 0x1 SWAP1 SUB SWAP1 PUSH0 MSTORE PUSH1 0x20 PUSH0 KECCAK256 ADD PUSH0 SWAP1 SWAP2 SWAP1 SWAP2 SWAP1 SWAP2 POP PUSH0 DUP3 ADD MLOAD DUP2 PUSH0 ADD PUSH0 PUSH2 0x100 EXP DUP2 SLOAD DUP2 PUSH6 0xFFFFFFFFFFFF MUL NOT AND SWAP1 DUP4 PUSH6 0xFFFFFFFFFFFF AND MUL OR SWAP1 SSTORE POP PUSH1 0x20 DUP3 ADD MLOAD DUP2 PUSH0 ADD PUSH1 0x6 PUSH2 0x100 EXP DUP2 SLOAD DUP2 PUSH26 0xFFFFFFFFFFFFFFFFFFFFFFFFFFFFFFFFFFFFFFFFFFFFFFFFFFFF MUL NOT AND SWAP1 DUP4 PUSH26 0xFFFFFFFFFFFFFFFFFFFFFFFFFFFFFFFFFFFFFFFFFFFFFFFFFFFF AND MUL OR SWAP1 SSTORE POP POP POP JUMPDEST DUP1 PUSH1 0x20 ADD MLOAD DUP6 SWAP4 POP SWAP4 POP POP POP PUSH2 0x3EA5 JUMP JUMPDEST DUP6 PUSH1 0x40 MLOAD DUP1 PUSH1 0x40 ADD PUSH1 0x40 MSTORE DUP1 DUP8 PUSH6 0xFFFFFFFFFFFF AND DUP2 MSTORE PUSH1 0x20 ADD DUP7 PUSH26 0xFFFFFFFFFFFFFFFFFFFFFFFFFFFFFFFFFFFFFFFFFFFFFFFFFFFF AND DUP2 MSTORE POP SWAP1 DUP1 PUSH1 0x1 DUP2 SLOAD ADD DUP1 DUP3 SSTORE DUP1 SWAP2 POP POP PUSH1 0x1 SWAP1 SUB SWAP1 PUSH0 MSTORE PUSH1 0x20 PUSH0 KECCAK256 ADD PUSH0 SWAP1 SWAP2 SWAP1 SWAP2 SWAP1 SWAP2 POP PUSH0 DUP3 ADD MLOAD DUP2 PUSH0 ADD PUSH0 PUSH2 0x100 EXP DUP2 SLOAD DUP2 PUSH6 0xFFFFFFFFFFFF MUL NOT AND SWAP1 DUP4 PUSH6 0xFFFFFFFFFFFF AND MUL OR SWAP1 SSTORE POP PUSH1 0x20 DUP3 ADD MLOAD DUP2 PUSH0 ADD PUSH1 0x6 PUSH2 0x100 EXP DUP2 SLOAD DUP2 PUSH26 0xFFFFFFFFFFFFFFFFFFFFFFFFFFFFFFFFFFFFFFFFFFFFFFFFFFFF MUL NOT AND SWAP1 DUP4 PUSH26 0xFFFFFFFFFFFFFFFFFFFFFFFFFFFFFFFFFFFFFFFFFFFFFFFFFFFF AND MUL OR SWAP1 SSTORE POP POP POP PUSH0 DUP5 SWAP3 POP SWAP3 POP POP JUMPDEST SWAP4 POP SWAP4 SWAP2 POP POP JUMP JUMPDEST PUSH1 0x40 MLOAD DUP1 PUSH1 0x40 ADD PUSH1 0x40 MSTORE DUP1 PUSH0 PUSH6 0xFFFFFFFFFFFF AND DUP2 MSTORE PUSH1 0x20 ADD PUSH0 PUSH26 0xFFFFFFFFFFFFFFFFFFFFFFFFFFFFFFFFFFFFFFFFFFFFFFFFFFFF AND DUP2 MSTORE POP SWAP1 JUMP JUMPDEST PUSH0 DUP1 REVERT JUMPDEST PUSH0 DUP1 REVERT JUMPDEST PUSH0 PUSH32 0xFFFFFFFF00000000000000000000000000000000000000000000000000000000 DUP3 AND SWAP1 POP SWAP2 SWAP1 POP JUMP JUMPDEST PUSH2 0x3F25 DUP2 PUSH2 0x3EF1 JUMP JUMPDEST DUP2 EQ PUSH2 0x3F2F JUMPI PUSH0 DUP1 REVERT JUMPDEST POP JUMP JUMPDEST PUSH0 DUP2 CALLDATALOAD SWAP1 POP PUSH2 0x3F40 DUP2 PUSH2 0x3F1C JUMP JUMPDEST SWAP3 SWAP2 POP POP JUMP JUMPDEST PUSH0 PUSH1 0x20 DUP3 DUP5 SUB SLT ISZERO PUSH2 0x3F5B JUMPI PUSH2 0x3F5A PUSH2 0x3EE9 JUMP JUMPDEST JUMPDEST PUSH0 PUSH2 0x3F68 DUP5 DUP3 DUP6 ADD PUSH2 0x3F32 JUMP JUMPDEST SWAP2 POP POP SWAP3 SWAP2 POP POP JUMP JUMPDEST PUSH0 DUP2 ISZERO ISZERO SWAP1 POP SWAP2 SWAP1 POP JUMP JUMPDEST PUSH2 0x3F85 DUP2 PUSH2 0x3F71 JUMP JUMPDEST DUP3 MSTORE POP POP JUMP JUMPDEST PUSH0 PUSH1 0x20 DUP3 ADD SWAP1 POP PUSH2 0x3F9E PUSH0 DUP4 ADD DUP5 PUSH2 0x3F7C JUMP JUMPDEST SWAP3 SWAP2 POP POP JUMP JUMPDEST PUSH0 DUP2 MLOAD SWAP1 POP SWAP2 SWAP1 POP JUMP JUMPDEST PUSH0 DUP3 DUP3 MSTORE PUSH1 0x20 DUP3 ADD SWAP1 POP SWAP3 SWAP2 POP POP JUMP JUMPDEST PUSH0 JUMPDEST DUP4 DUP2 LT ISZERO PUSH2 0x3FDB JUMPI DUP1 DUP3 ADD MLOAD DUP2 DUP5 ADD MSTORE PUSH1 0x20 DUP2 ADD SWAP1 POP PUSH2 0x3FC0 JUMP JUMPDEST PUSH0 DUP5 DUP5 ADD MSTORE POP POP POP POP JUMP JUMPDEST PUSH0 PUSH1 0x1F NOT PUSH1 0x1F DUP4 ADD AND SWAP1 POP SWAP2 SWAP1 POP JUMP JUMPDEST PUSH0 PUSH2 0x4000 DUP3 PUSH2 0x3FA4 JUMP JUMPDEST PUSH2 0x400A DUP2 DUP6 PUSH2 0x3FAE JUMP JUMPDEST SWAP4 POP PUSH2 0x401A DUP2 DUP6 PUSH1 0x20 DUP7 ADD PUSH2 0x3FBE JUMP JUMPDEST PUSH2 0x4023 DUP2 PUSH2 0x3FE6 JUMP JUMPDEST DUP5 ADD SWAP2 POP POP SWAP3 SWAP2 POP POP JUMP JUMPDEST PUSH0 PUSH1 0x20 DUP3 ADD SWAP1 POP DUP2 DUP2 SUB PUSH0 DUP4 ADD MSTORE PUSH2 0x4046 DUP2 DUP5 PUSH2 0x3FF6 JUMP JUMPDEST SWAP1 POP SWAP3 SWAP2 POP POP JUMP JUMPDEST PUSH0 PUSH20 0xFFFFFFFFFFFFFFFFFFFFFFFFFFFFFFFFFFFFFFFF DUP3 AND SWAP1 POP SWAP2 SWAP1 POP JUMP JUMPDEST PUSH0 PUSH2 0x4077 DUP3 PUSH2 0x404E JUMP JUMPDEST SWAP1 POP SWAP2 SWAP1 POP JUMP JUMPDEST PUSH2 0x4087 DUP2 PUSH2 0x406D JUMP JUMPDEST DUP2 EQ PUSH2 0x4091 JUMPI PUSH0 DUP1 REVERT JUMPDEST POP JUMP JUMPDEST PUSH0 DUP2 CALLDATALOAD SWAP1 POP PUSH2 0x40A2 DUP2 PUSH2 0x407E JUMP JUMPDEST SWAP3 SWAP2 POP POP JUMP JUMPDEST PUSH0 DUP2 SWAP1 POP SWAP2 SWAP1 POP JUMP JUMPDEST PUSH2 0x40BA DUP2 PUSH2 0x40A8 JUMP JUMPDEST DUP2 EQ PUSH2 0x40C4 JUMPI PUSH0 DUP1 REVERT JUMPDEST POP JUMP JUMPDEST PUSH0 DUP2 CALLDATALOAD SWAP1 POP PUSH2 0x40D5 DUP2 PUSH2 0x40B1 JUMP JUMPDEST SWAP3 SWAP2 POP POP JUMP JUMPDEST PUSH0 DUP1 PUSH1 0x40 DUP4 DUP6 SUB SLT ISZERO PUSH2 0x40F1 JUMPI PUSH2 0x40F0 PUSH2 0x3EE9 JUMP JUMPDEST JUMPDEST PUSH0 PUSH2 0x40FE DUP6 DUP3 DUP7 ADD PUSH2 0x4094 JUMP JUMPDEST SWAP3 POP POP PUSH1 0x20 PUSH2 0x410F DUP6 DUP3 DUP7 ADD PUSH2 0x40C7 JUMP JUMPDEST SWAP2 POP POP SWAP3 POP SWAP3 SWAP1 POP JUMP JUMPDEST PUSH2 0x4122 DUP2 PUSH2 0x40A8 JUMP JUMPDEST DUP3 MSTORE POP POP JUMP JUMPDEST PUSH0 PUSH1 0x20 DUP3 ADD SWAP1 POP PUSH2 0x413B PUSH0 DUP4 ADD DUP5 PUSH2 0x4119 JUMP JUMPDEST SWAP3 SWAP2 POP POP JUMP JUMPDEST PUSH0 DUP1 PUSH0 PUSH1 0x60 DUP5 DUP7 SUB SLT ISZERO PUSH2 0x4158 JUMPI PUSH2 0x4157 PUSH2 0x3EE9 JUMP JUMPDEST JUMPDEST PUSH0 PUSH2 0x4165 DUP7 DUP3 DUP8 ADD PUSH2 0x4094 JUMP JUMPDEST SWAP4 POP POP PUSH1 0x20 PUSH2 0x4176 DUP7 DUP3 DUP8 ADD PUSH2 0x4094 JUMP JUMPDEST SWAP3 POP POP PUSH1 0x40 PUSH2 0x4187 DUP7 DUP3 DUP8 ADD PUSH2 0x40C7 JUMP JUMPDEST SWAP2 POP POP SWAP3 POP SWAP3 POP SWAP3 JUMP JUMPDEST PUSH0 DUP2 SWAP1 POP SWAP2 SWAP1 POP JUMP JUMPDEST PUSH2 0x41A3 DUP2 PUSH2 0x4191 JUMP JUMPDEST DUP2 EQ PUSH2 0x41AD JUMPI PUSH0 DUP1 REVERT JUMPDEST POP JUMP JUMPDEST PUSH0 DUP2 CALLDATALOAD SWAP1 POP PUSH2 0x41BE DUP2 PUSH2 0x419A JUMP JUMPDEST SWAP3 SWAP2 POP POP JUMP JUMPDEST PUSH0 PUSH1 0x20 DUP3 DUP5 SUB SLT ISZERO PUSH2 0x41D9 JUMPI PUSH2 0x41D8 PUSH2 0x3EE9 JUMP JUMPDEST JUMPDEST PUSH0 PUSH2 0x41E6 DUP5 DUP3 DUP6 ADD PUSH2 0x41B0 JUMP JUMPDEST SWAP2 POP POP SWAP3 SWAP2 POP POP JUMP JUMPDEST PUSH2 0x41F8 DUP2 PUSH2 0x4191 JUMP JUMPDEST DUP3 MSTORE POP POP JUMP JUMPDEST PUSH0 PUSH1 0x20 DUP3 ADD SWAP1 POP PUSH2 0x4211 PUSH0 DUP4 ADD DUP5 PUSH2 0x41EF JUMP JUMPDEST SWAP3 SWAP2 POP POP JUMP JUMPDEST PUSH0 DUP1 PUSH1 0x40 DUP4 DUP6 SUB SLT ISZERO PUSH2 0x422D JUMPI PUSH2 0x422C PUSH2 0x3EE9 JUMP JUMPDEST JUMPDEST PUSH0 PUSH2 0x423A DUP6 DUP3 DUP7 ADD PUSH2 0x41B0 JUMP JUMPDEST SWAP3 POP POP PUSH1 0x20 PUSH2 0x424B DUP6 DUP3 DUP7 ADD PUSH2 0x4094 JUMP JUMPDEST SWAP2 POP POP SWAP3 POP SWAP3 SWAP1 POP JUMP JUMPDEST PUSH0 PUSH1 0xFF DUP3 AND SWAP1 POP SWAP2 SWAP1 POP JUMP JUMPDEST PUSH2 0x426A DUP2 PUSH2 0x4255 JUMP JUMPDEST DUP3 MSTORE POP POP JUMP JUMPDEST PUSH0 PUSH1 0x20 DUP3 ADD SWAP1 POP PUSH2 0x4283 PUSH0 DUP4 ADD DUP5 PUSH2 0x4261 JUMP JUMPDEST SWAP3 SWAP2 POP POP JUMP JUMPDEST PUSH0 PUSH1 0x20 DUP3 DUP5 SUB SLT ISZERO PUSH2 0x429E JUMPI PUSH2 0x429D PUSH2 0x3EE9 JUMP JUMPDEST JUMPDEST PUSH0 PUSH2 0x42AB DUP5 DUP3 DUP6 ADD PUSH2 0x40C7 JUMP JUMPDEST SWAP2 POP POP SWAP3 SWAP2 POP POP JUMP JUMPDEST PUSH0 PUSH1 0x20 DUP3 DUP5 SUB SLT ISZERO PUSH2 0x42C9 JUMPI PUSH2 0x42C8 PUSH2 0x3EE9 JUMP JUMPDEST JUMPDEST PUSH0 PUSH2 0x42D6 DUP5 DUP3 DUP6 ADD PUSH2 0x4094 JUMP JUMPDEST SWAP2 POP POP SWAP3 SWAP2 POP POP JUMP JUMPDEST PUSH2 0x42E8 DUP2 PUSH2 0x406D JUMP JUMPDEST DUP3 MSTORE POP POP JUMP JUMPDEST PUSH0 PUSH1 0x20 DUP3 ADD SWAP1 POP PUSH2 0x4301 PUSH0 DUP4 ADD DUP5 PUSH2 0x42DF JUMP JUMPDEST SWAP3 SWAP2 POP POP JUMP JUMPDEST PUSH0 PUSH2 0x4311 DUP3 PUSH2 0x406D JUMP JUMPDEST SWAP1 POP SWAP2 SWAP1 POP JUMP JUMPDEST PUSH2 0x4321 DUP2 PUSH2 0x4307 JUMP JUMPDEST DUP2 EQ PUSH2 0x432B JUMPI PUSH0 DUP1 REVERT JUMPDEST POP JUMP JUMPDEST PUSH0 DUP2 CALLDATALOAD SWAP1 POP PUSH2 0x433C DUP2 PUSH2 0x4318 JUMP JUMPDEST SWAP3 SWAP2 POP POP JUMP JUMPDEST PUSH0 DUP1 REVERT JUMPDEST PUSH0 DUP1 REVERT JUMPDEST PUSH0 DUP1 REVERT JUMPDEST PUSH0 DUP1 DUP4 PUSH1 0x1F DUP5 ADD SLT PUSH2 0x4363 JUMPI PUSH2 0x4362 PUSH2 0x4342 JUMP JUMPDEST JUMPDEST DUP3 CALLDATALOAD SWAP1 POP PUSH8 0xFFFFFFFFFFFFFFFF DUP2 GT ISZERO PUSH2 0x4380 JUMPI PUSH2 0x437F PUSH2 0x4346 JUMP JUMPDEST JUMPDEST PUSH1 0x20 DUP4 ADD SWAP2 POP DUP4 PUSH1 0x1 DUP3 MUL DUP4 ADD GT ISZERO PUSH2 0x439C JUMPI PUSH2 0x439B PUSH2 0x434A JUMP JUMPDEST JUMPDEST SWAP3 POP SWAP3 SWAP1 POP JUMP JUMPDEST PUSH0 DUP1 PUSH0 DUP1 PUSH0 PUSH1 0x80 DUP7 DUP9 SUB SLT ISZERO PUSH2 0x43BC JUMPI PUSH2 0x43BB PUSH2 0x3EE9 JUMP JUMPDEST JUMPDEST PUSH0 PUSH2 0x43C9 DUP9 DUP3 DUP10 ADD PUSH2 0x432E JUMP JUMPDEST SWAP6 POP POP PUSH1 0x20 PUSH2 0x43DA DUP9 DUP3 DUP10 ADD PUSH2 0x4094 JUMP JUMPDEST SWAP5 POP POP PUSH1 0x40 PUSH2 0x43EB DUP9 DUP3 DUP10 ADD PUSH2 0x40C7 JUMP JUMPDEST SWAP4 POP POP PUSH1 0x60 DUP7 ADD CALLDATALOAD PUSH8 0xFFFFFFFFFFFFFFFF DUP2 GT ISZERO PUSH2 0x440C JUMPI PUSH2 0x440B PUSH2 0x3EED JUMP JUMPDEST JUMPDEST PUSH2 0x4418 DUP9 DUP3 DUP10 ADD PUSH2 0x434E JUMP JUMPDEST SWAP3 POP SWAP3 POP POP SWAP3 SWAP6 POP SWAP3 SWAP6 SWAP1 SWAP4 POP JUMP JUMPDEST PUSH0 PUSH4 0xFFFFFFFF DUP3 AND SWAP1 POP SWAP2 SWAP1 POP JUMP JUMPDEST PUSH2 0x443F DUP2 PUSH2 0x4427 JUMP JUMPDEST DUP3 MSTORE POP POP JUMP JUMPDEST PUSH0 PUSH1 0x20 DUP3 ADD SWAP1 POP PUSH2 0x4458 PUSH0 DUP4 ADD DUP5 PUSH2 0x4436 JUMP JUMPDEST SWAP3 SWAP2 POP POP JUMP JUMPDEST PUSH0 PUSH32 0xFF00000000000000000000000000000000000000000000000000000000000000 DUP3 AND SWAP1 POP SWAP2 SWAP1 POP JUMP JUMPDEST PUSH2 0x4492 DUP2 PUSH2 0x445E JUMP JUMPDEST DUP3 MSTORE POP POP JUMP JUMPDEST PUSH0 DUP2 MLOAD SWAP1 POP SWAP2 SWAP1 POP JUMP JUMPDEST PUSH0 DUP3 DUP3 MSTORE PUSH1 0x20 DUP3 ADD SWAP1 POP SWAP3 SWAP2 POP POP JUMP JUMPDEST PUSH0 DUP2 SWAP1 POP PUSH1 0x20 DUP3 ADD SWAP1 POP SWAP2 SWAP1 POP JUMP JUMPDEST PUSH2 0x44CA DUP2 PUSH2 0x40A8 JUMP JUMPDEST DUP3 MSTORE POP POP JUMP JUMPDEST PUSH0 PUSH2 0x44DB DUP4 DUP4 PUSH2 0x44C1 JUMP JUMPDEST PUSH1 0x20 DUP4 ADD SWAP1 POP SWAP3 SWAP2 POP POP JUMP JUMPDEST PUSH0 PUSH1 0x20 DUP3 ADD SWAP1 POP SWAP2 SWAP1 POP JUMP JUMPDEST PUSH0 PUSH2 0x44FD DUP3 PUSH2 0x4498 JUMP JUMPDEST PUSH2 0x4507 DUP2 DUP6 PUSH2 0x44A2 JUMP JUMPDEST SWAP4 POP PUSH2 0x4512 DUP4 PUSH2 0x44B2 JUMP JUMPDEST DUP1 PUSH0 JUMPDEST DUP4 DUP2 LT ISZERO PUSH2 0x4542 JUMPI DUP2 MLOAD PUSH2 0x4529 DUP9 DUP3 PUSH2 0x44D0 JUMP JUMPDEST SWAP8 POP PUSH2 0x4534 DUP4 PUSH2 0x44E7 JUMP JUMPDEST SWAP3 POP POP PUSH1 0x1 DUP2 ADD SWAP1 POP PUSH2 0x4515 JUMP JUMPDEST POP DUP6 SWAP4 POP POP POP POP SWAP3 SWAP2 POP POP JUMP JUMPDEST PUSH0 PUSH1 0xE0 DUP3 ADD SWAP1 POP PUSH2 0x4562 PUSH0 DUP4 ADD DUP11 PUSH2 0x4489 JUMP JUMPDEST DUP2 DUP2 SUB PUSH1 0x20 DUP4 ADD MSTORE PUSH2 0x4574 DUP2 DUP10 PUSH2 0x3FF6 JUMP JUMPDEST SWAP1 POP DUP2 DUP2 SUB PUSH1 0x40 DUP4 ADD MSTORE PUSH2 0x4588 DUP2 DUP9 PUSH2 0x3FF6 JUMP JUMPDEST SWAP1 POP PUSH2 0x4597 PUSH1 0x60 DUP4 ADD DUP8 PUSH2 0x4119 JUMP JUMPDEST PUSH2 0x45A4 PUSH1 0x80 DUP4 ADD DUP7 PUSH2 0x42DF JUMP JUMPDEST PUSH2 0x45B1 PUSH1 0xA0 DUP4 ADD DUP6 PUSH2 0x41EF JUMP JUMPDEST DUP2 DUP2 SUB PUSH1 0xC0 DUP4 ADD MSTORE PUSH2 0x45C3 DUP2 DUP5 PUSH2 0x44F3 JUMP JUMPDEST SWAP1 POP SWAP9 SWAP8 POP POP POP POP POP POP POP POP JUMP JUMPDEST PUSH0 PUSH6 0xFFFFFFFFFFFF DUP3 AND SWAP1 POP SWAP2 SWAP1 POP JUMP JUMPDEST PUSH2 0x45EB DUP2 PUSH2 0x45D1 JUMP JUMPDEST DUP3 MSTORE POP POP JUMP JUMPDEST PUSH0 PUSH1 0x20 DUP3 ADD SWAP1 POP PUSH2 0x4604 PUSH0 DUP4 ADD DUP5 PUSH2 0x45E2 JUMP JUMPDEST SWAP3 SWAP2 POP POP JUMP JUMPDEST PUSH0 DUP1 PUSH0 PUSH1 0x60 DUP5 DUP7 SUB SLT ISZERO PUSH2 0x4621 JUMPI PUSH2 0x4620 PUSH2 0x3EE9 JUMP JUMPDEST JUMPDEST PUSH0 PUSH2 0x462E DUP7 DUP3 DUP8 ADD PUSH2 0x4094 JUMP JUMPDEST SWAP4 POP POP PUSH1 0x20 PUSH2 0x463F DUP7 DUP3 DUP8 ADD PUSH2 0x4094 JUMP JUMPDEST SWAP3 POP POP PUSH1 0x40 PUSH2 0x4650 DUP7 DUP3 DUP8 ADD PUSH2 0x4094 JUMP JUMPDEST SWAP2 POP POP SWAP3 POP SWAP3 POP SWAP3 JUMP JUMPDEST PUSH2 0x4663 DUP2 PUSH2 0x4255 JUMP JUMPDEST DUP2 EQ PUSH2 0x466D JUMPI PUSH0 DUP1 REVERT JUMPDEST POP JUMP JUMPDEST PUSH0 DUP2 CALLDATALOAD SWAP1 POP PUSH2 0x467E DUP2 PUSH2 0x465A JUMP JUMPDEST SWAP3 SWAP2 POP POP JUMP JUMPDEST PUSH0 DUP1 PUSH0 DUP1 PUSH0 DUP1 PUSH1 0xC0 DUP8 DUP10 SUB SLT ISZERO PUSH2 0x469E JUMPI PUSH2 0x469D PUSH2 0x3EE9 JUMP JUMPDEST JUMPDEST PUSH0 PUSH2 0x46AB DUP10 DUP3 DUP11 ADD PUSH2 0x4094 JUMP JUMPDEST SWAP7 POP POP PUSH1 0x20 PUSH2 0x46BC DUP10 DUP3 DUP11 ADD PUSH2 0x40C7 JUMP JUMPDEST SWAP6 POP POP PUSH1 0x40 PUSH2 0x46CD DUP10 DUP3 DUP11 ADD PUSH2 0x40C7 JUMP JUMPDEST SWAP5 POP POP PUSH1 0x60 PUSH2 0x46DE DUP10 DUP3 DUP11 ADD PUSH2 0x4670 JUMP JUMPDEST SWAP4 POP POP PUSH1 0x80 PUSH2 0x46EF DUP10 DUP3 DUP11 ADD PUSH2 0x41B0 JUMP JUMPDEST SWAP3 POP POP PUSH1 0xA0 PUSH2 0x4700 DUP10 DUP3 DUP11 ADD PUSH2 0x41B0 JUMP JUMPDEST SWAP2 POP POP SWAP3 SWAP6 POP SWAP3 SWAP6 POP SWAP3 SWAP6 JUMP JUMPDEST PUSH0 DUP1 PUSH0 DUP1 PUSH0 DUP1 PUSH0 PUSH1 0xE0 DUP9 DUP11 SUB SLT ISZERO PUSH2 0x4728 JUMPI PUSH2 0x4727 PUSH2 0x3EE9 JUMP JUMPDEST JUMPDEST PUSH0 PUSH2 0x4735 DUP11 DUP3 DUP12 ADD PUSH2 0x4094 JUMP JUMPDEST SWAP8 POP POP PUSH1 0x20 PUSH2 0x4746 DUP11 DUP3 DUP12 ADD PUSH2 0x4094 JUMP JUMPDEST SWAP7 POP POP PUSH1 0x40 PUSH2 0x4757 DUP11 DUP3 DUP12 ADD PUSH2 0x40C7 JUMP JUMPDEST SWAP6 POP POP PUSH1 0x60 PUSH2 0x4768 DUP11 DUP3 DUP12 ADD PUSH2 0x40C7 JUMP JUMPDEST SWAP5 POP POP PUSH1 0x80 PUSH2 0x4779 DUP11 DUP3 DUP12 ADD PUSH2 0x4670 JUMP JUMPDEST SWAP4 POP POP PUSH1 0xA0 PUSH2 0x478A DUP11 DUP3 DUP12 ADD PUSH2 0x41B0 JUMP JUMPDEST SWAP3 POP POP PUSH1 0xC0 PUSH2 0x479B DUP11 DUP3 DUP12 ADD PUSH2 0x41B0 JUMP JUMPDEST SWAP2 POP POP SWAP3 SWAP6 SWAP9 SWAP2 SWAP5 SWAP8 POP SWAP3 SWAP6 POP JUMP JUMPDEST PUSH0 DUP1 PUSH1 0x40 DUP4 DUP6 SUB SLT ISZERO PUSH2 0x47C0 JUMPI PUSH2 0x47BF PUSH2 0x3EE9 JUMP JUMPDEST JUMPDEST PUSH0 PUSH2 0x47CD DUP6 DUP3 DUP7 ADD PUSH2 0x4094 JUMP JUMPDEST SWAP3 POP POP PUSH1 0x20 PUSH2 0x47DE DUP6 DUP3 DUP7 ADD PUSH2 0x4094 JUMP JUMPDEST SWAP2 POP POP SWAP3 POP SWAP3 SWAP1 POP JUMP JUMPDEST PUSH2 0x47F1 DUP2 PUSH2 0x4427 JUMP JUMPDEST DUP2 EQ PUSH2 0x47FB JUMPI PUSH0 DUP1 REVERT JUMPDEST POP JUMP JUMPDEST PUSH0 DUP2 CALLDATALOAD SWAP1 POP PUSH2 0x480C DUP2 PUSH2 0x47E8 JUMP JUMPDEST SWAP3 SWAP2 POP POP JUMP JUMPDEST PUSH0 DUP1 PUSH1 0x40 DUP4 DUP6 SUB SLT ISZERO PUSH2 0x4828 JUMPI PUSH2 0x4827 PUSH2 0x3EE9 JUMP JUMPDEST JUMPDEST PUSH0 PUSH2 0x4835 DUP6 DUP3 DUP7 ADD PUSH2 0x4094 JUMP JUMPDEST SWAP3 POP POP PUSH1 0x20 PUSH2 0x4846 DUP6 DUP3 DUP7 ADD PUSH2 0x47FE JUMP JUMPDEST SWAP2 POP POP SWAP3 POP SWAP3 SWAP1 POP JUMP JUMPDEST PUSH2 0x4859 DUP2 PUSH2 0x45D1 JUMP JUMPDEST DUP3 MSTORE POP POP JUMP JUMPDEST PUSH0 PUSH26 0xFFFFFFFFFFFFFFFFFFFFFFFFFFFFFFFFFFFFFFFFFFFFFFFFFFFF DUP3 AND SWAP1 POP SWAP2 SWAP1 POP JUMP JUMPDEST PUSH2 0x488D DUP2 PUSH2 0x485F JUMP JUMPDEST DUP3 MSTORE POP POP JUMP JUMPDEST PUSH1 0x40 DUP3 ADD PUSH0 DUP3 ADD MLOAD PUSH2 0x48A7 PUSH0 DUP6 ADD DUP3 PUSH2 0x4850 JUMP JUMPDEST POP PUSH1 0x20 DUP3 ADD MLOAD PUSH2 0x48BA PUSH1 0x20 DUP6 ADD DUP3 PUSH2 0x4884 JUMP JUMPDEST POP POP POP POP JUMP JUMPDEST PUSH0 PUSH1 0x40 DUP3 ADD SWAP1 POP PUSH2 0x48D3 PUSH0 DUP4 ADD DUP5 PUSH2 0x4893 JUMP JUMPDEST SWAP3 SWAP2 POP POP JUMP JUMPDEST PUSH32 0x4E487B7100000000000000000000000000000000000000000000000000000000 PUSH0 MSTORE PUSH1 0x22 PUSH1 0x4 MSTORE PUSH1 0x24 PUSH0 REVERT JUMPDEST PUSH0 PUSH1 0x2 DUP3 DIV SWAP1 POP PUSH1 0x1 DUP3 AND DUP1 PUSH2 0x491D JUMPI PUSH1 0x7F DUP3 AND SWAP2 POP JUMPDEST PUSH1 0x20 DUP3 LT DUP2 SUB PUSH2 0x4930 JUMPI PUSH2 0x492F PUSH2 0x48D9 JUMP JUMPDEST JUMPDEST POP SWAP2 SWAP1 POP JUMP JUMPDEST PUSH0 PUSH1 0x40 DUP3 ADD SWAP1 POP PUSH2 0x4949 PUSH0 DUP4 ADD DUP6 PUSH2 0x4119 JUMP JUMPDEST PUSH2 0x4956 PUSH1 0x20 DUP4 ADD DUP5 PUSH2 0x45E2 JUMP JUMPDEST SWAP4 SWAP3 POP POP POP JUMP JUMPDEST PUSH0 DUP3 DUP3 MSTORE PUSH1 0x20 DUP3 ADD SWAP1 POP SWAP3 SWAP2 POP POP JUMP JUMPDEST DUP3 DUP2 DUP4 CALLDATACOPY PUSH0 DUP4 DUP4 ADD MSTORE POP POP POP JUMP JUMPDEST PUSH0 PUSH2 0x4986 DUP4 DUP6 PUSH2 0x495D JUMP JUMPDEST SWAP4 POP PUSH2 0x4993 DUP4 DUP6 DUP5 PUSH2 0x496D JUMP JUMPDEST PUSH2 0x499C DUP4 PUSH2 0x3FE6 JUMP JUMPDEST DUP5 ADD SWAP1 POP SWAP4 SWAP3 POP POP POP JUMP JUMPDEST PUSH0 PUSH1 0xA0 DUP3 ADD SWAP1 POP PUSH2 0x49BA PUSH0 DUP4 ADD DUP10 PUSH2 0x42DF JUMP JUMPDEST PUSH2 0x49C7 PUSH1 0x20 DUP4 ADD DUP9 PUSH2 0x42DF JUMP JUMPDEST PUSH2 0x49D4 PUSH1 0x40 DUP4 ADD DUP8 PUSH2 0x4119 JUMP JUMPDEST PUSH2 0x49E1 PUSH1 0x60 DUP4 ADD DUP7 PUSH2 0x4119 JUMP JUMPDEST DUP2 DUP2 SUB PUSH1 0x80 DUP4 ADD MSTORE PUSH2 0x49F4 DUP2 DUP5 DUP7 PUSH2 0x497B JUMP JUMPDEST SWAP1 POP SWAP8 SWAP7 POP POP POP POP POP POP POP JUMP JUMPDEST PUSH0 DUP2 MLOAD SWAP1 POP PUSH2 0x4A0F DUP2 PUSH2 0x419A JUMP JUMPDEST SWAP3 SWAP2 POP POP JUMP JUMPDEST PUSH0 PUSH1 0x20 DUP3 DUP5 SUB SLT ISZERO PUSH2 0x4A2A JUMPI PUSH2 0x4A29 PUSH2 0x3EE9 JUMP JUMPDEST JUMPDEST PUSH0 PUSH2 0x4A37 DUP5 DUP3 DUP6 ADD PUSH2 0x4A01 JUMP JUMPDEST SWAP2 POP POP SWAP3 SWAP2 POP POP JUMP JUMPDEST PUSH32 0x4E487B7100000000000000000000000000000000000000000000000000000000 PUSH0 MSTORE PUSH1 0x11 PUSH1 0x4 MSTORE PUSH1 0x24 PUSH0 REVERT JUMPDEST PUSH0 PUSH2 0x4A77 DUP3 PUSH2 0x40A8 JUMP JUMPDEST SWAP2 POP PUSH2 0x4A82 DUP4 PUSH2 0x40A8 JUMP JUMPDEST SWAP3 POP DUP3 DUP3 ADD SWAP1 POP DUP1 DUP3 GT ISZERO PUSH2 0x4A9A JUMPI PUSH2 0x4A99 PUSH2 0x4A40 JUMP JUMPDEST JUMPDEST SWAP3 SWAP2 POP POP JUMP JUMPDEST PUSH0 PUSH2 0x4AAA DUP3 PUSH2 0x40A8 JUMP JUMPDEST SWAP2 POP PUSH2 0x4AB5 DUP4 PUSH2 0x40A8 JUMP JUMPDEST SWAP3 POP DUP3 DUP3 SUB SWAP1 POP DUP2 DUP2 GT ISZERO PUSH2 0x4ACD JUMPI PUSH2 0x4ACC PUSH2 0x4A40 JUMP JUMPDEST JUMPDEST SWAP3 SWAP2 POP POP JUMP JUMPDEST PUSH32 0x4549503731323A20556E696E697469616C697A65640000000000000000000000 PUSH0 DUP3 ADD MSTORE POP JUMP JUMPDEST PUSH0 PUSH2 0x4B07 PUSH1 0x15 DUP4 PUSH2 0x3FAE JUMP JUMPDEST SWAP2 POP PUSH2 0x4B12 DUP3 PUSH2 0x4AD3 JUMP JUMPDEST PUSH1 0x20 DUP3 ADD SWAP1 POP SWAP2 SWAP1 POP JUMP JUMPDEST PUSH0 PUSH1 0x20 DUP3 ADD SWAP1 POP DUP2 DUP2 SUB PUSH0 DUP4 ADD MSTORE PUSH2 0x4B34 DUP2 PUSH2 0x4AFB JUMP JUMPDEST SWAP1 POP SWAP2 SWAP1 POP JUMP JUMPDEST PUSH32 0x4E487B7100000000000000000000000000000000000000000000000000000000 PUSH0 MSTORE PUSH1 0x41 PUSH1 0x4 MSTORE PUSH1 0x24 PUSH0 REVERT JUMPDEST PUSH0 DUP2 PUSH1 0x1 SHR SWAP1 POP SWAP2 SWAP1 POP JUMP JUMPDEST PUSH0 DUP1 DUP3 SWAP2 POP DUP4 SWAP1 POP JUMPDEST PUSH1 0x1 DUP6 GT ISZERO PUSH2 0x4BBD JUMPI DUP1 DUP7 DIV DUP2 GT ISZERO PUSH2 0x4B99 JUMPI PUSH2 0x4B98 PUSH2 0x4A40 JUMP JUMPDEST JUMPDEST PUSH1 0x1 DUP6 AND ISZERO PUSH2 0x4BA8 JUMPI DUP1 DUP3 MUL SWAP2 POP JUMPDEST DUP1 DUP2 MUL SWAP1 POP PUSH2 0x4BB6 DUP6 PUSH2 0x4B68 JUMP JUMPDEST SWAP5 POP PUSH2 0x4B7D JUMP JUMPDEST SWAP5 POP SWAP5 SWAP3 POP POP POP JUMP JUMPDEST PUSH0 DUP3 PUSH2 0x4BD5 JUMPI PUSH1 0x1 SWAP1 POP PUSH2 0x4C90 JUMP JUMPDEST DUP2 PUSH2 0x4BE2 JUMPI PUSH0 SWAP1 POP PUSH2 0x4C90 JUMP JUMPDEST DUP2 PUSH1 0x1 DUP2 EQ PUSH2 0x4BF8 JUMPI PUSH1 0x2 DUP2 EQ PUSH2 0x4C02 JUMPI PUSH2 0x4C31 JUMP JUMPDEST PUSH1 0x1 SWAP2 POP POP PUSH2 0x4C90 JUMP JUMPDEST PUSH1 0xFF DUP5 GT ISZERO PUSH2 0x4C14 JUMPI PUSH2 0x4C13 PUSH2 0x4A40 JUMP JUMPDEST JUMPDEST DUP4 PUSH1 0x2 EXP SWAP2 POP DUP5 DUP3 GT ISZERO PUSH2 0x4C2B JUMPI PUSH2 0x4C2A PUSH2 0x4A40 JUMP JUMPDEST JUMPDEST POP PUSH2 0x4C90 JUMP JUMPDEST POP PUSH1 0x20 DUP4 LT PUSH2 0x133 DUP4 LT AND PUSH1 0x4E DUP5 LT PUSH1 0xB DUP5 LT AND OR ISZERO PUSH2 0x4C66 JUMPI DUP3 DUP3 EXP SWAP1 POP DUP4 DUP2 GT ISZERO PUSH2 0x4C61 JUMPI PUSH2 0x4C60 PUSH2 0x4A40 JUMP JUMPDEST JUMPDEST PUSH2 0x4C90 JUMP JUMPDEST PUSH2 0x4C73 DUP5 DUP5 DUP5 PUSH1 0x1 PUSH2 0x4B74 JUMP JUMPDEST SWAP3 POP SWAP1 POP DUP2 DUP5 DIV DUP2 GT ISZERO PUSH2 0x4C8A JUMPI PUSH2 0x4C89 PUSH2 0x4A40 JUMP JUMPDEST JUMPDEST DUP2 DUP2 MUL SWAP1 POP JUMPDEST SWAP4 SWAP3 POP POP POP JUMP JUMPDEST PUSH0 PUSH2 0x4CA1 DUP3 PUSH2 0x40A8 JUMP JUMPDEST SWAP2 POP PUSH2 0x4CAC DUP4 PUSH2 0x4255 JUMP JUMPDEST SWAP3 POP PUSH2 0x4CD9 PUSH32 0xFFFFFFFFFFFFFFFFFFFFFFFFFFFFFFFFFFFFFFFFFFFFFFFFFFFFFFFFFFFFFFFF DUP5 DUP5 PUSH2 0x4BC6 JUMP JUMPDEST SWAP1 POP SWAP3 SWAP2 POP POP JUMP JUMPDEST PUSH0 PUSH2 0x4CEB DUP3 PUSH2 0x40A8 JUMP JUMPDEST SWAP2 POP PUSH2 0x4CF6 DUP4 PUSH2 0x40A8 JUMP JUMPDEST SWAP3 POP DUP3 DUP3 MUL PUSH2 0x4D04 DUP2 PUSH2 0x40A8 JUMP JUMPDEST SWAP2 POP DUP3 DUP3 DIV DUP5 EQ DUP4 ISZERO OR PUSH2 0x4D1B JUMPI PUSH2 0x4D1A PUSH2 0x4A40 JUMP JUMPDEST JUMPDEST POP SWAP3 SWAP2 POP POP JUMP JUMPDEST PUSH0 DUP2 SWAP1 POP SWAP2 SWAP1 POP JUMP JUMPDEST PUSH0 PUSH8 0xFFFFFFFFFFFFFFFF DUP3 AND SWAP1 POP SWAP2 SWAP1 POP JUMP JUMPDEST PUSH0 DUP2 SWAP1 POP SWAP2 SWAP1 POP JUMP JUMPDEST PUSH0 PUSH2 0x4D61 PUSH2 0x4D5C PUSH2 0x4D57 DUP5 PUSH2 0x4D22 JUMP JUMPDEST PUSH2 0x4D3E JUMP JUMPDEST PUSH2 0x4D2B JUMP JUMPDEST SWAP1 POP SWAP2 SWAP1 POP JUMP JUMPDEST PUSH2 0x4D71 DUP2 PUSH2 0x4D47 JUMP JUMPDEST DUP3 MSTORE POP POP JUMP JUMPDEST PUSH0 PUSH1 0x20 DUP3 ADD SWAP1 POP PUSH2 0x4D8A PUSH0 DUP4 ADD DUP5 PUSH2 0x4D68 JUMP JUMPDEST SWAP3 SWAP2 POP POP JUMP JUMPDEST PUSH0 PUSH1 0x80 DUP3 ADD SWAP1 POP PUSH2 0x4DA3 PUSH0 DUP4 ADD DUP8 PUSH2 0x41EF JUMP JUMPDEST PUSH2 0x4DB0 PUSH1 0x20 DUP4 ADD DUP7 PUSH2 0x42DF JUMP JUMPDEST PUSH2 0x4DBD PUSH1 0x40 DUP4 ADD DUP6 PUSH2 0x4119 JUMP JUMPDEST PUSH2 0x4DCA PUSH1 0x60 DUP4 ADD DUP5 PUSH2 0x4119 JUMP JUMPDEST SWAP6 SWAP5 POP POP POP POP POP JUMP JUMPDEST PUSH0 PUSH1 0xC0 DUP3 ADD SWAP1 POP PUSH2 0x4DE6 PUSH0 DUP4 ADD DUP10 PUSH2 0x41EF JUMP JUMPDEST PUSH2 0x4DF3 PUSH1 0x20 DUP4 ADD DUP9 PUSH2 0x42DF JUMP JUMPDEST PUSH2 0x4E00 PUSH1 0x40 DUP4 ADD DUP8 PUSH2 0x42DF JUMP JUMPDEST PUSH2 0x4E0D PUSH1 0x60 DUP4 ADD DUP7 PUSH2 0x4119 JUMP JUMPDEST PUSH2 0x4E1A PUSH1 0x80 DUP4 ADD DUP6 PUSH2 0x4119 JUMP JUMPDEST PUSH2 0x4E27 PUSH1 0xA0 DUP4 ADD DUP5 PUSH2 0x4119 JUMP JUMPDEST SWAP8 SWAP7 POP POP POP POP POP POP POP JUMP JUMPDEST PUSH0 PUSH1 0x40 DUP3 ADD SWAP1 POP PUSH2 0x4E45 PUSH0 DUP4 ADD DUP6 PUSH2 0x42DF JUMP JUMPDEST PUSH2 0x4E52 PUSH1 0x20 DUP4 ADD DUP5 PUSH2 0x42DF JUMP JUMPDEST SWAP4 SWAP3 POP POP POP JUMP JUMPDEST PUSH0 PUSH1 0x60 DUP3 ADD SWAP1 POP PUSH2 0x4E6C PUSH0 DUP4 ADD DUP7 PUSH2 0x42DF JUMP JUMPDEST PUSH2 0x4E79 PUSH1 0x20 DUP4 ADD DUP6 PUSH2 0x4119 JUMP JUMPDEST PUSH2 0x4E86 PUSH1 0x40 DUP4 ADD DUP5 PUSH2 0x4119 JUMP JUMPDEST SWAP5 SWAP4 POP POP POP POP JUMP JUMPDEST PUSH0 DUP2 SWAP1 POP SWAP2 SWAP1 POP JUMP JUMPDEST PUSH0 PUSH2 0x4EB1 PUSH2 0x4EAC PUSH2 0x4EA7 DUP5 PUSH2 0x4E8E JUMP JUMPDEST PUSH2 0x4D3E JUMP JUMPDEST PUSH2 0x4255 JUMP JUMPDEST SWAP1 POP SWAP2 SWAP1 POP JUMP JUMPDEST PUSH2 0x4EC1 DUP2 PUSH2 0x4E97 JUMP JUMPDEST DUP3 MSTORE POP POP JUMP JUMPDEST PUSH0 PUSH1 0x40 DUP3 ADD SWAP1 POP PUSH2 0x4EDA PUSH0 DUP4 ADD DUP6 PUSH2 0x4EB8 JUMP JUMPDEST PUSH2 0x4EE7 PUSH1 0x20 DUP4 ADD DUP5 PUSH2 0x4119 JUMP JUMPDEST SWAP4 SWAP3 POP POP POP JUMP JUMPDEST PUSH0 PUSH1 0x40 DUP3 ADD SWAP1 POP PUSH2 0x4F01 PUSH0 DUP4 ADD DUP6 PUSH2 0x42DF JUMP JUMPDEST PUSH2 0x4F0E PUSH1 0x20 DUP4 ADD DUP5 PUSH2 0x4119 JUMP JUMPDEST SWAP4 SWAP3 POP POP POP JUMP JUMPDEST PUSH0 PUSH1 0x40 DUP3 ADD SWAP1 POP PUSH2 0x4F28 PUSH0 DUP4 ADD DUP6 PUSH2 0x42DF JUMP JUMPDEST PUSH2 0x4F35 PUSH1 0x20 DUP4 ADD DUP5 PUSH2 0x41EF JUMP JUMPDEST SWAP4 SWAP3 POP POP POP JUMP JUMPDEST PUSH0 PUSH1 0xA0 DUP3 ADD SWAP1 POP PUSH2 0x4F4F PUSH0 DUP4 ADD DUP9 PUSH2 0x41EF JUMP JUMPDEST PUSH2 0x4F5C PUSH1 0x20 DUP4 ADD DUP8 PUSH2 0x41EF JUMP JUMPDEST PUSH2 0x4F69 PUSH1 0x40 DUP4 ADD DUP7 PUSH2 0x41EF JUMP JUMPDEST PUSH2 0x4F76 PUSH1 0x60 DUP4 ADD DUP6 PUSH2 0x4119 JUMP JUMPDEST PUSH2 0x4F83 PUSH1 0x80 DUP4 ADD DUP5 PUSH2 0x42DF JUMP JUMPDEST SWAP7 SWAP6 POP POP POP POP POP POP JUMP JUMPDEST PUSH32 0x4E487B7100000000000000000000000000000000000000000000000000000000 PUSH0 MSTORE PUSH1 0x12 PUSH1 0x4 MSTORE PUSH1 0x24 PUSH0 REVERT JUMPDEST PUSH0 PUSH1 0x40 DUP3 ADD SWAP1 POP PUSH2 0x4FCD PUSH0 DUP4 ADD DUP6 PUSH2 0x4119 JUMP JUMPDEST PUSH2 0x4FDA PUSH1 0x20 DUP4 ADD DUP5 PUSH2 0x4119 JUMP JUMPDEST SWAP4 SWAP3 POP POP POP JUMP JUMPDEST PUSH0 DUP2 SWAP1 POP SWAP2 SWAP1 POP JUMP JUMPDEST PUSH0 PUSH2 0x5004 PUSH2 0x4FFF PUSH2 0x4FFA DUP5 PUSH2 0x4FE1 JUMP JUMPDEST PUSH2 0x4D3E JUMP JUMPDEST PUSH2 0x4255 JUMP JUMPDEST SWAP1 POP SWAP2 SWAP1 POP JUMP JUMPDEST PUSH2 0x5014 DUP2 PUSH2 0x4FEA JUMP JUMPDEST DUP3 MSTORE POP POP JUMP JUMPDEST PUSH0 PUSH1 0x40 DUP3 ADD SWAP1 POP PUSH2 0x502D PUSH0 DUP4 ADD DUP6 PUSH2 0x500B JUMP JUMPDEST PUSH2 0x503A PUSH1 0x20 DUP4 ADD DUP5 PUSH2 0x4119 JUMP JUMPDEST SWAP4 SWAP3 POP POP POP JUMP JUMPDEST PUSH0 DUP2 SWAP1 POP DUP2 PUSH0 MSTORE PUSH1 0x20 PUSH0 KECCAK256 SWAP1 POP SWAP2 SWAP1 POP JUMP JUMPDEST PUSH0 PUSH1 0x20 PUSH1 0x1F DUP4 ADD DIV SWAP1 POP SWAP2 SWAP1 POP JUMP JUMPDEST PUSH0 DUP3 DUP3 SHL SWAP1 POP SWAP3 SWAP2 POP POP JUMP JUMPDEST PUSH0 PUSH1 0x8 DUP4 MUL PUSH2 0x509D PUSH32 0xFFFFFFFFFFFFFFFFFFFFFFFFFFFFFFFFFFFFFFFFFFFFFFFFFFFFFFFFFFFFFFFF DUP3 PUSH2 0x5062 JUMP JUMPDEST PUSH2 0x50A7 DUP7 DUP4 PUSH2 0x5062 JUMP JUMPDEST SWAP6 POP DUP1 NOT DUP5 AND SWAP4 POP DUP1 DUP7 AND DUP5 OR SWAP3 POP POP POP SWAP4 SWAP3 POP POP POP JUMP JUMPDEST PUSH0 PUSH2 0x50D9 PUSH2 0x50D4 PUSH2 0x50CF DUP5 PUSH2 0x40A8 JUMP JUMPDEST PUSH2 0x4D3E JUMP JUMPDEST PUSH2 0x40A8 JUMP JUMPDEST SWAP1 POP SWAP2 SWAP1 POP JUMP JUMPDEST PUSH0 DUP2 SWAP1 POP SWAP2 SWAP1 POP JUMP JUMPDEST PUSH2 0x50F2 DUP4 PUSH2 0x50BF JUMP JUMPDEST PUSH2 0x5106 PUSH2 0x50FE DUP3 PUSH2 0x50E0 JUMP JUMPDEST DUP5 DUP5 SLOAD PUSH2 0x506E JUMP JUMPDEST DUP3 SSTORE POP POP POP POP JUMP JUMPDEST PUSH0 SWAP1 JUMP JUMPDEST PUSH2 0x511A PUSH2 0x510E JUMP JUMPDEST PUSH2 0x5125 DUP2 DUP5 DUP5 PUSH2 0x50E9 JUMP JUMPDEST POP POP POP JUMP JUMPDEST JUMPDEST DUP2 DUP2 LT ISZERO PUSH2 0x5148 JUMPI PUSH2 0x513D PUSH0 DUP3 PUSH2 0x5112 JUMP JUMPDEST PUSH1 0x1 DUP2 ADD SWAP1 POP PUSH2 0x512B JUMP JUMPDEST POP POP JUMP JUMPDEST PUSH1 0x1F DUP3 GT ISZERO PUSH2 0x518D JUMPI PUSH2 0x515E DUP2 PUSH2 0x5041 JUMP JUMPDEST PUSH2 0x5167 DUP5 PUSH2 0x5053 JUMP JUMPDEST DUP2 ADD PUSH1 0x20 DUP6 LT ISZERO PUSH2 0x5176 JUMPI DUP2 SWAP1 POP JUMPDEST PUSH2 0x518A PUSH2 0x5182 DUP6 PUSH2 0x5053 JUMP JUMPDEST DUP4 ADD DUP3 PUSH2 0x512A JUMP JUMPDEST POP POP JUMPDEST POP POP POP JUMP JUMPDEST PUSH0 DUP3 DUP3 SHR SWAP1 POP SWAP3 SWAP2 POP POP JUMP JUMPDEST PUSH0 PUSH2 0x51AD PUSH0 NOT DUP5 PUSH1 0x8 MUL PUSH2 0x5192 JUMP JUMPDEST NOT DUP1 DUP4 AND SWAP2 POP POP SWAP3 SWAP2 POP POP JUMP JUMPDEST PUSH0 PUSH2 0x51C5 DUP4 DUP4 PUSH2 0x519E JUMP JUMPDEST SWAP2 POP DUP3 PUSH1 0x2 MUL DUP3 OR SWAP1 POP SWAP3 SWAP2 POP POP JUMP JUMPDEST PUSH2 0x51DE DUP3 PUSH2 0x3FA4 JUMP JUMPDEST PUSH8 0xFFFFFFFFFFFFFFFF DUP2 GT ISZERO PUSH2 0x51F7 JUMPI PUSH2 0x51F6 PUSH2 0x4B3B JUMP JUMPDEST JUMPDEST PUSH2 0x5201 DUP3 SLOAD PUSH2 0x4906 JUMP JUMPDEST PUSH2 0x520C DUP3 DUP3 DUP6 PUSH2 0x514C JUMP JUMPDEST PUSH0 PUSH1 0x20 SWAP1 POP PUSH1 0x1F DUP4 GT PUSH1 0x1 DUP2 EQ PUSH2 0x523D JUMPI PUSH0 DUP5 ISZERO PUSH2 0x522B JUMPI DUP3 DUP8 ADD MLOAD SWAP1 POP JUMPDEST PUSH2 0x5235 DUP6 DUP3 PUSH2 0x51BA JUMP JUMPDEST DUP7 SSTORE POP PUSH2 0x529C JUMP JUMPDEST PUSH1 0x1F NOT DUP5 AND PUSH2 0x524B DUP7 PUSH2 0x5041 JUMP JUMPDEST PUSH0 JUMPDEST DUP3 DUP2 LT ISZERO PUSH2 0x5272 JUMPI DUP5 DUP10 ADD MLOAD DUP3 SSTORE PUSH1 0x1 DUP3 ADD SWAP2 POP PUSH1 0x20 DUP6 ADD SWAP5 POP PUSH1 0x20 DUP2 ADD SWAP1 POP PUSH2 0x524D JUMP JUMPDEST DUP7 DUP4 LT ISZERO PUSH2 0x528F JUMPI DUP5 DUP10 ADD MLOAD PUSH2 0x528B PUSH1 0x1F DUP10 AND DUP3 PUSH2 0x519E JUMP JUMPDEST DUP4 SSTORE POP JUMPDEST PUSH1 0x1 PUSH1 0x2 DUP9 MUL ADD DUP9 SSTORE POP POP POP JUMPDEST POP POP POP POP POP POP JUMP JUMPDEST PUSH0 PUSH1 0x80 DUP3 ADD SWAP1 POP PUSH2 0x52B7 PUSH0 DUP4 ADD DUP8 PUSH2 0x41EF JUMP JUMPDEST PUSH2 0x52C4 PUSH1 0x20 DUP4 ADD DUP7 PUSH2 0x4261 JUMP JUMPDEST PUSH2 0x52D1 PUSH1 0x40 DUP4 ADD DUP6 PUSH2 0x41EF JUMP JUMPDEST PUSH2 0x52DE PUSH1 0x60 DUP4 ADD DUP5 PUSH2 0x41EF JUMP JUMPDEST SWAP6 SWAP5 POP POP POP POP POP JUMP JUMPDEST PUSH32 0x4E487B7100000000000000000000000000000000000000000000000000000000 PUSH0 MSTORE PUSH1 0x21 PUSH1 0x4 MSTORE PUSH1 0x24 PUSH0 REVERT JUMPDEST PUSH32 0x4E487B7100000000000000000000000000000000000000000000000000000000 PUSH0 MSTORE PUSH1 0x32 PUSH1 0x4 MSTORE PUSH1 0x24 PUSH0 REVERT JUMPDEST PUSH0 PUSH2 0x534B DUP3 PUSH2 0x40A8 JUMP JUMPDEST SWAP2 POP PUSH2 0x5356 DUP4 PUSH2 0x40A8 JUMP JUMPDEST SWAP3 POP DUP3 PUSH2 0x5366 JUMPI PUSH2 0x5365 PUSH2 0x4F8D JUMP JUMPDEST JUMPDEST DUP3 DUP3 DIV SWAP1 POP SWAP3 SWAP2 POP POP JUMP JUMPDEST PUSH0 PUSH2 0x537B DUP3 PUSH2 0x485F JUMP JUMPDEST SWAP2 POP PUSH2 0x5386 DUP4 PUSH2 0x485F JUMP JUMPDEST SWAP3 POP DUP3 DUP3 SUB SWAP1 POP PUSH26 0xFFFFFFFFFFFFFFFFFFFFFFFFFFFFFFFFFFFFFFFFFFFFFFFFFFFF DUP2 GT ISZERO PUSH2 0x53B8 JUMPI PUSH2 0x53B7 PUSH2 0x4A40 JUMP JUMPDEST JUMPDEST SWAP3 SWAP2 POP POP JUMP JUMPDEST PUSH0 DUP2 SWAP1 POP SWAP2 SWAP1 POP JUMP JUMPDEST PUSH0 PUSH2 0x53E1 PUSH2 0x53DC PUSH2 0x53D7 DUP5 PUSH2 0x53BE JUMP JUMPDEST PUSH2 0x4D3E JUMP JUMPDEST PUSH2 0x4255 JUMP JUMPDEST SWAP1 POP SWAP2 SWAP1 POP JUMP JUMPDEST PUSH2 0x53F1 DUP2 PUSH2 0x53C7 JUMP JUMPDEST DUP3 MSTORE POP POP JUMP JUMPDEST PUSH0 PUSH1 0x40 DUP3 ADD SWAP1 POP PUSH2 0x540A PUSH0 DUP4 ADD DUP6 PUSH2 0x53E8 JUMP JUMPDEST PUSH2 0x5417 PUSH1 0x20 DUP4 ADD DUP5 PUSH2 0x4119 JUMP JUMPDEST SWAP4 SWAP3 POP POP POP JUMP JUMPDEST PUSH0 PUSH2 0x5428 DUP3 PUSH2 0x485F JUMP JUMPDEST SWAP2 POP PUSH2 0x5433 DUP4 PUSH2 0x485F JUMP JUMPDEST SWAP3 POP DUP3 DUP3 ADD SWAP1 POP PUSH26 0xFFFFFFFFFFFFFFFFFFFFFFFFFFFFFFFFFFFFFFFFFFFFFFFFFFFF DUP2 GT ISZERO PUSH2 0x5465 JUMPI PUSH2 0x5464 PUSH2 0x4A40 JUMP JUMPDEST JUMPDEST SWAP3 SWAP2 POP POP JUMP INVALID LOG2 PUSH5 0x6970667358 0x22 SLT KECCAK256 SAR DUP12 PUSH6 0xA2EC096DC421 0xC3 MSTORE8 0xB6 DUP10 0x4A RETURN 0xDA 0xAA 0xCA 0xAA PREVRANDAO 0xC3 PUSH13 0xB40FC07CF4F29B40D0C464736F PUSH13 0x63430008160033000000000000 "
	},
	"abi": [
		{
			"inputs": [],
			"stateMutability": "nonpayable",
			"type": "constructor"
		},
		{
			"inputs": [],
			"name": "AccessControlBadConfirmation",
			"type": "error"
		},
		{
			"inputs": [
				{
					"internalType": "address",
					"name": "account",
					"type": "address"
				},
				{
					"internalType": "bytes32",
					"name": "neededRole",
					"type": "bytes32"
				}
			],
			"name": "AccessControlUnauthorizedAccount",
			"type": "error"
		},
		{
			"inputs": [],
			"name": "CheckpointUnorderedInsertion",
			"type": "error"
		},
		{
			"inputs": [],
			"name": "ECDSAInvalidSignature",
			"type": "error"
		},
		{
			"inputs": [
				{
					"internalType": "uint256",
					"name": "length",
					"type": "uint256"
				}
			],
			"name": "ECDSAInvalidSignatureLength",
			"type": "error"
		},
		{
			"inputs": [
				{
					"internalType": "bytes32",
					"name": "s",
					"type": "bytes32"
				}
			],
			"name": "ECDSAInvalidSignatureS",
			"type": "error"
		},
		{
			"inputs": [
				{
					"internalType": "uint256",
					"name": "increasedSupply",
					"type": "uint256"
				},
				{
					"internalType": "uint256",
					"name": "cap",
					"type": "uint256"
				}
			],
			"name": "ERC20ExceededSafeSupply",
			"type": "error"
		},
		{
			"inputs": [
				{
					"internalType": "address",
					"name": "spender",
					"type": "address"
				},
				{
					"internalType": "uint256",
					"name": "allowance",
					"type": "uint256"
				},
				{
					"internalType": "uint256",
					"name": "needed",
					"type": "uint256"
				}
			],
			"name": "ERC20InsufficientAllowance",
			"type": "error"
		},
		{
			"inputs": [
				{
					"internalType": "address",
					"name": "sender",
					"type": "address"
				},
				{
					"internalType": "uint256",
					"name": "balance",
					"type": "uint256"
				},
				{
					"internalType": "uint256",
					"name": "needed",
					"type": "uint256"
				}
			],
			"name": "ERC20InsufficientBalance",
			"type": "error"
		},
		{
			"inputs": [
				{
					"internalType": "address",
					"name": "approver",
					"type": "address"
				}
			],
			"name": "ERC20InvalidApprover",
			"type": "error"
		},
		{
			"inputs": [
				{
					"internalType": "address",
					"name": "receiver",
					"type": "address"
				}
			],
			"name": "ERC20InvalidReceiver",
			"type": "error"
		},
		{
			"inputs": [
				{
					"internalType": "address",
					"name": "sender",
					"type": "address"
				}
			],
			"name": "ERC20InvalidSender",
			"type": "error"
		},
		{
			"inputs": [
				{
					"internalType": "address",
					"name": "spender",
					"type": "address"
				}
			],
			"name": "ERC20InvalidSpender",
			"type": "error"
		},
		{
			"inputs": [
				{
					"internalType": "uint256",
					"name": "deadline",
					"type": "uint256"
				}
			],
			"name": "ERC2612ExpiredSignature",
			"type": "error"
		},
		{
			"inputs": [
				{
					"internalType": "address",
					"name": "signer",
					"type": "address"
				},
				{
					"internalType": "address",
					"name": "owner",
					"type": "address"
				}
			],
			"name": "ERC2612InvalidSigner",
			"type": "error"
		},
		{
			"inputs": [
				{
					"internalType": "uint256",
					"name": "maxLoan",
					"type": "uint256"
				}
			],
			"name": "ERC3156ExceededMaxLoan",
			"type": "error"
		},
		{
			"inputs": [
				{
					"internalType": "address",
					"name": "receiver",
					"type": "address"
				}
			],
			"name": "ERC3156InvalidReceiver",
			"type": "error"
		},
		{
			"inputs": [
				{
					"internalType": "address",
					"name": "token",
					"type": "address"
				}
			],
			"name": "ERC3156UnsupportedToken",
			"type": "error"
		},
		{
			"inputs": [
				{
					"internalType": "uint256",
					"name": "timepoint",
					"type": "uint256"
				},
				{
					"internalType": "uint48",
					"name": "clock",
					"type": "uint48"
				}
			],
			"name": "ERC5805FutureLookup",
			"type": "error"
		},
		{
			"inputs": [],
			"name": "ERC6372InconsistentClock",
			"type": "error"
		},
		{
			"inputs": [],
			"name": "EnforcedPause",
			"type": "error"
		},
		{
			"inputs": [],
			"name": "ExpectedPause",
			"type": "error"
		},
		{
			"inputs": [
				{
					"internalType": "address",
					"name": "account",
					"type": "address"
				},
				{
					"internalType": "uint256",
					"name": "currentNonce",
					"type": "uint256"
				}
			],
			"name": "InvalidAccountNonce",
			"type": "error"
		},
		{
			"inputs": [],
			"name": "InvalidInitialization",
			"type": "error"
		},
		{
			"inputs": [],
			"name": "NotInitializing",
			"type": "error"
		},
		{
			"inputs": [
				{
					"internalType": "uint8",
					"name": "bits",
					"type": "uint8"
				},
				{
					"internalType": "uint256",
					"name": "value",
					"type": "uint256"
				}
			],
			"name": "SafeCastOverflowedUintDowncast",
			"type": "error"
		},
		{
			"inputs": [
				{
					"internalType": "uint256",
					"name": "expiry",
					"type": "uint256"
				}
			],
			"name": "VotesExpiredSignature",
			"type": "error"
		},
		{
			"anonymous": false,
			"inputs": [
				{
					"indexed": true,
					"internalType": "address",
					"name": "owner",
					"type": "address"
				},
				{
					"indexed": true,
					"internalType": "address",
					"name": "spender",
					"type": "address"
				},
				{
					"indexed": false,
					"internalType": "uint256",
					"name": "value",
					"type": "uint256"
				}
			],
			"name": "Approval",
			"type": "event"
		},
		{
			"anonymous": false,
			"inputs": [
				{
					"indexed": true,
					"internalType": "address",
					"name": "delegator",
					"type": "address"
				},
				{
					"indexed": true,
					"internalType": "address",
					"name": "fromDelegate",
					"type": "address"
				},
				{
					"indexed": true,
					"internalType": "address",
					"name": "toDelegate",
					"type": "address"
				}
			],
			"name": "DelegateChanged",
			"type": "event"
		},
		{
			"anonymous": false,
			"inputs": [
				{
					"indexed": true,
					"internalType": "address",
					"name": "delegate",
					"type": "address"
				},
				{
					"indexed": false,
					"internalType": "uint256",
					"name": "previousVotes",
					"type": "uint256"
				},
				{
					"indexed": false,
					"internalType": "uint256",
					"name": "newVotes",
					"type": "uint256"
				}
			],
			"name": "DelegateVotesChanged",
			"type": "event"
		},
		{
			"anonymous": false,
			"inputs": [],
			"name": "EIP712DomainChanged",
			"type": "event"
		},
		{
			"anonymous": false,
			"inputs": [
				{
					"indexed": false,
					"internalType": "uint64",
					"name": "version",
					"type": "uint64"
				}
			],
			"name": "Initialized",
			"type": "event"
		},
		{
			"anonymous": false,
			"inputs": [
				{
					"indexed": false,
					"internalType": "address",
					"name": "account",
					"type": "address"
				}
			],
			"name": "Paused",
			"type": "event"
		},
		{
			"anonymous": false,
			"inputs": [
				{
					"indexed": true,
					"internalType": "bytes32",
					"name": "role",
					"type": "bytes32"
				},
				{
					"indexed": true,
					"internalType": "bytes32",
					"name": "previousAdminRole",
					"type": "bytes32"
				},
				{
					"indexed": true,
					"internalType": "bytes32",
					"name": "newAdminRole",
					"type": "bytes32"
				}
			],
			"name": "RoleAdminChanged",
			"type": "event"
		},
		{
			"anonymous": false,
			"inputs": [
				{
					"indexed": true,
					"internalType": "bytes32",
					"name": "role",
					"type": "bytes32"
				},
				{
					"indexed": true,
					"internalType": "address",
					"name": "account",
					"type": "address"
				},
				{
					"indexed": true,
					"internalType": "address",
					"name": "sender",
					"type": "address"
				}
			],
			"name": "RoleGranted",
			"type": "event"
		},
		{
			"anonymous": false,
			"inputs": [
				{
					"indexed": true,
					"internalType": "bytes32",
					"name": "role",
					"type": "bytes32"
				},
				{
					"indexed": true,
					"internalType": "address",
					"name": "account",
					"type": "address"
				},
				{
					"indexed": true,
					"internalType": "address",
					"name": "sender",
					"type": "address"
				}
			],
			"name": "RoleRevoked",
			"type": "event"
		},
		{
			"anonymous": false,
			"inputs": [
				{
					"indexed": true,
					"internalType": "address",
					"name": "from",
					"type": "address"
				},
				{
					"indexed": true,
					"internalType": "address",
					"name": "to",
					"type": "address"
				},
				{
					"indexed": false,
					"internalType": "uint256",
					"name": "value",
					"type": "uint256"
				}
			],
			"name": "Transfer",
			"type": "event"
		},
		{
			"anonymous": false,
			"inputs": [
				{
					"indexed": false,
					"internalType": "address",
					"name": "account",
					"type": "address"
				}
			],
			"name": "Unpaused",
			"type": "event"
		},
		{
			"inputs": [],
			"name": "CLOCK_MODE",
			"outputs": [
				{
					"internalType": "string",
					"name": "",
					"type": "string"
				}
			],
			"stateMutability": "view",
			"type": "function"
		},
		{
			"inputs": [],
			"name": "DEFAULT_ADMIN_ROLE",
			"outputs": [
				{
					"internalType": "bytes32",
					"name": "",
					"type": "bytes32"
				}
			],
			"stateMutability": "view",
			"type": "function"
		},
		{
			"inputs": [],
			"name": "DOMAIN_SEPARATOR",
			"outputs": [
				{
					"internalType": "bytes32",
					"name": "",
					"type": "bytes32"
				}
			],
			"stateMutability": "view",
			"type": "function"
		},
		{
			"inputs": [],
			"name": "MINTER_ROLE",
			"outputs": [
				{
					"internalType": "bytes32",
					"name": "",
					"type": "bytes32"
				}
			],
			"stateMutability": "view",
			"type": "function"
		},
		{
			"inputs": [],
			"name": "PAUSER_ROLE",
			"outputs": [
				{
					"internalType": "bytes32",
					"name": "",
					"type": "bytes32"
				}
			],
			"stateMutability": "view",
			"type": "function"
		},
		{
			"inputs": [
				{
					"internalType": "address",
					"name": "owner",
					"type": "address"
				},
				{
					"internalType": "address",
					"name": "spender",
					"type": "address"
				}
			],
			"name": "allowance",
			"outputs": [
				{
					"internalType": "uint256",
					"name": "",
					"type": "uint256"
				}
			],
			"stateMutability": "view",
			"type": "function"
		},
		{
			"inputs": [
				{
					"internalType": "address",
					"name": "spender",
					"type": "address"
				},
				{
					"internalType": "uint256",
					"name": "value",
					"type": "uint256"
				}
			],
			"name": "approve",
			"outputs": [
				{
					"internalType": "bool",
					"name": "",
					"type": "bool"
				}
			],
			"stateMutability": "nonpayable",
			"type": "function"
		},
		{
			"inputs": [
				{
					"internalType": "address",
					"name": "account",
					"type": "address"
				}
			],
			"name": "balanceOf",
			"outputs": [
				{
					"internalType": "uint256",
					"name": "",
					"type": "uint256"
				}
			],
			"stateMutability": "view",
			"type": "function"
		},
		{
			"inputs": [
				{
					"internalType": "uint256",
					"name": "value",
					"type": "uint256"
				}
			],
			"name": "burn",
			"outputs": [],
			"stateMutability": "nonpayable",
			"type": "function"
		},
		{
			"inputs": [
				{
					"internalType": "address",
					"name": "account",
					"type": "address"
				},
				{
					"internalType": "uint256",
					"name": "value",
					"type": "uint256"
				}
			],
			"name": "burnFrom",
			"outputs": [],
			"stateMutability": "nonpayable",
			"type": "function"
		},
		{
			"inputs": [
				{
					"internalType": "address",
					"name": "account",
					"type": "address"
				},
				{
					"internalType": "uint32",
					"name": "pos",
					"type": "uint32"
				}
			],
			"name": "checkpoints",
			"outputs": [
				{
					"components": [
						{
							"internalType": "uint48",
							"name": "_key",
							"type": "uint48"
						},
						{
							"internalType": "uint208",
							"name": "_value",
							"type": "uint208"
						}
					],
					"internalType": "struct Checkpoints.Checkpoint208",
					"name": "",
					"type": "tuple"
				}
			],
			"stateMutability": "view",
			"type": "function"
		},
		{
			"inputs": [],
			"name": "clock",
			"outputs": [
				{
					"internalType": "uint48",
					"name": "",
					"type": "uint48"
				}
			],
			"stateMutability": "view",
			"type": "function"
		},
		{
			"inputs": [],
			"name": "decimals",
			"outputs": [
				{
					"internalType": "uint8",
					"name": "",
					"type": "uint8"
				}
			],
			"stateMutability": "view",
			"type": "function"
		},
		{
			"inputs": [
				{
					"internalType": "address",
					"name": "delegatee",
					"type": "address"
				}
			],
			"name": "delegate",
			"outputs": [],
			"stateMutability": "nonpayable",
			"type": "function"
		},
		{
			"inputs": [
				{
					"internalType": "address",
					"name": "delegatee",
					"type": "address"
				},
				{
					"internalType": "uint256",
					"name": "nonce",
					"type": "uint256"
				},
				{
					"internalType": "uint256",
					"name": "expiry",
					"type": "uint256"
				},
				{
					"internalType": "uint8",
					"name": "v",
					"type": "uint8"
				},
				{
					"internalType": "bytes32",
					"name": "r",
					"type": "bytes32"
				},
				{
					"internalType": "bytes32",
					"name": "s",
					"type": "bytes32"
				}
			],
			"name": "delegateBySig",
			"outputs": [],
			"stateMutability": "nonpayable",
			"type": "function"
		},
		{
			"inputs": [
				{
					"internalType": "address",
					"name": "account",
					"type": "address"
				}
			],
			"name": "delegates",
			"outputs": [
				{
					"internalType": "address",
					"name": "",
					"type": "address"
				}
			],
			"stateMutability": "view",
			"type": "function"
		},
		{
			"inputs": [],
			"name": "eip712Domain",
			"outputs": [
				{
					"internalType": "bytes1",
					"name": "fields",
					"type": "bytes1"
				},
				{
					"internalType": "string",
					"name": "name",
					"type": "string"
				},
				{
					"internalType": "string",
					"name": "version",
					"type": "string"
				},
				{
					"internalType": "uint256",
					"name": "chainId",
					"type": "uint256"
				},
				{
					"internalType": "address",
					"name": "verifyingContract",
					"type": "address"
				},
				{
					"internalType": "bytes32",
					"name": "salt",
					"type": "bytes32"
				},
				{
					"internalType": "uint256[]",
					"name": "extensions",
					"type": "uint256[]"
				}
			],
			"stateMutability": "view",
			"type": "function"
		},
		{
			"inputs": [
				{
					"internalType": "address",
					"name": "token",
					"type": "address"
				},
				{
					"internalType": "uint256",
					"name": "value",
					"type": "uint256"
				}
			],
			"name": "flashFee",
			"outputs": [
				{
					"internalType": "uint256",
					"name": "",
					"type": "uint256"
				}
			],
			"stateMutability": "view",
			"type": "function"
		},
		{
			"inputs": [
				{
					"internalType": "contract IERC3156FlashBorrower",
					"name": "receiver",
					"type": "address"
				},
				{
					"internalType": "address",
					"name": "token",
					"type": "address"
				},
				{
					"internalType": "uint256",
					"name": "value",
					"type": "uint256"
				},
				{
					"internalType": "bytes",
					"name": "data",
					"type": "bytes"
				}
			],
			"name": "flashLoan",
			"outputs": [
				{
					"internalType": "bool",
					"name": "",
					"type": "bool"
				}
			],
			"stateMutability": "nonpayable",
			"type": "function"
		},
		{
			"inputs": [
				{
					"internalType": "uint256",
					"name": "timepoint",
					"type": "uint256"
				}
			],
			"name": "getPastTotalSupply",
			"outputs": [
				{
					"internalType": "uint256",
					"name": "",
					"type": "uint256"
				}
			],
			"stateMutability": "view",
			"type": "function"
		},
		{
			"inputs": [
				{
					"internalType": "address",
					"name": "account",
					"type": "address"
				},
				{
					"internalType": "uint256",
					"name": "timepoint",
					"type": "uint256"
				}
			],
			"name": "getPastVotes",
			"outputs": [
				{
					"internalType": "uint256",
					"name": "",
					"type": "uint256"
				}
			],
			"stateMutability": "view",
			"type": "function"
		},
		{
			"inputs": [
				{
					"internalType": "bytes32",
					"name": "role",
					"type": "bytes32"
				}
			],
			"name": "getRoleAdmin",
			"outputs": [
				{
					"internalType": "bytes32",
					"name": "",
					"type": "bytes32"
				}
			],
			"stateMutability": "view",
			"type": "function"
		},
		{
			"inputs": [
				{
					"internalType": "address",
					"name": "account",
					"type": "address"
				}
			],
			"name": "getVotes",
			"outputs": [
				{
					"internalType": "uint256",
					"name": "",
					"type": "uint256"
				}
			],
			"stateMutability": "view",
			"type": "function"
		},
		{
			"inputs": [
				{
					"internalType": "bytes32",
					"name": "role",
					"type": "bytes32"
				},
				{
					"internalType": "address",
					"name": "account",
					"type": "address"
				}
			],
			"name": "grantRole",
			"outputs": [],
			"stateMutability": "nonpayable",
			"type": "function"
		},
		{
			"inputs": [
				{
					"internalType": "bytes32",
					"name": "role",
					"type": "bytes32"
				},
				{
					"internalType": "address",
					"name": "account",
					"type": "address"
				}
			],
			"name": "hasRole",
			"outputs": [
				{
					"internalType": "bool",
					"name": "",
					"type": "bool"
				}
			],
			"stateMutability": "view",
			"type": "function"
		},
		{
			"inputs": [
				{
					"internalType": "address",
					"name": "defaultAdmin",
					"type": "address"
				},
				{
					"internalType": "address",
					"name": "pauser",
					"type": "address"
				},
				{
					"internalType": "address",
					"name": "minter",
					"type": "address"
				}
			],
			"name": "initialize",
			"outputs": [],
			"stateMutability": "nonpayable",
			"type": "function"
		},
		{
			"inputs": [
				{
					"internalType": "address",
					"name": "token",
					"type": "address"
				}
			],
			"name": "maxFlashLoan",
			"outputs": [
				{
					"internalType": "uint256",
					"name": "",
					"type": "uint256"
				}
			],
			"stateMutability": "view",
			"type": "function"
		},
		{
			"inputs": [
				{
					"internalType": "address",
					"name": "to",
					"type": "address"
				},
				{
					"internalType": "uint256",
					"name": "amount",
					"type": "uint256"
				}
			],
			"name": "mint",
			"outputs": [],
			"stateMutability": "nonpayable",
			"type": "function"
		},
		{
			"inputs": [],
			"name": "name",
			"outputs": [
				{
					"internalType": "string",
					"name": "",
					"type": "string"
				}
			],
			"stateMutability": "view",
			"type": "function"
		},
		{
			"inputs": [
				{
					"internalType": "address",
					"name": "owner",
					"type": "address"
				}
			],
			"name": "nonces",
			"outputs": [
				{
					"internalType": "uint256",
					"name": "",
					"type": "uint256"
				}
			],
			"stateMutability": "view",
			"type": "function"
		},
		{
			"inputs": [
				{
					"internalType": "address",
					"name": "account",
					"type": "address"
				}
			],
			"name": "numCheckpoints",
			"outputs": [
				{
					"internalType": "uint32",
					"name": "",
					"type": "uint32"
				}
			],
			"stateMutability": "view",
			"type": "function"
		},
		{
			"inputs": [],
			"name": "pause",
			"outputs": [],
			"stateMutability": "nonpayable",
			"type": "function"
		},
		{
			"inputs": [],
			"name": "paused",
			"outputs": [
				{
					"internalType": "bool",
					"name": "",
					"type": "bool"
				}
			],
			"stateMutability": "view",
			"type": "function"
		},
		{
			"inputs": [
				{
					"internalType": "address",
					"name": "owner",
					"type": "address"
				},
				{
					"internalType": "address",
					"name": "spender",
					"type": "address"
				},
				{
					"internalType": "uint256",
					"name": "value",
					"type": "uint256"
				},
				{
					"internalType": "uint256",
					"name": "deadline",
					"type": "uint256"
				},
				{
					"internalType": "uint8",
					"name": "v",
					"type": "uint8"
				},
				{
					"internalType": "bytes32",
					"name": "r",
					"type": "bytes32"
				},
				{
					"internalType": "bytes32",
					"name": "s",
					"type": "bytes32"
				}
			],
			"name": "permit",
			"outputs": [],
			"stateMutability": "nonpayable",
			"type": "function"
		},
		{
			"inputs": [
				{
					"internalType": "bytes32",
					"name": "role",
					"type": "bytes32"
				},
				{
					"internalType": "address",
					"name": "callerConfirmation",
					"type": "address"
				}
			],
			"name": "renounceRole",
			"outputs": [],
			"stateMutability": "nonpayable",
			"type": "function"
		},
		{
			"inputs": [
				{
					"internalType": "bytes32",
					"name": "role",
					"type": "bytes32"
				},
				{
					"internalType": "address",
					"name": "account",
					"type": "address"
				}
			],
			"name": "revokeRole",
			"outputs": [],
			"stateMutability": "nonpayable",
			"type": "function"
		},
		{
			"inputs": [
				{
					"internalType": "bytes4",
					"name": "interfaceId",
					"type": "bytes4"
				}
			],
			"name": "supportsInterface",
			"outputs": [
				{
					"internalType": "bool",
					"name": "",
					"type": "bool"
				}
			],
			"stateMutability": "view",
			"type": "function"
		},
		{
			"inputs": [],
			"name": "symbol",
			"outputs": [
				{
					"internalType": "string",
					"name": "",
					"type": "string"
				}
			],
			"stateMutability": "view",
			"type": "function"
		},
		{
			"inputs": [],
			"name": "totalSupply",
			"outputs": [
				{
					"internalType": "uint256",
					"name": "",
					"type": "uint256"
				}
			],
			"stateMutability": "view",
			"type": "function"
		},
		{
			"inputs": [
				{
					"internalType": "address",
					"name": "to",
					"type": "address"
				},
				{
					"internalType": "uint256",
					"name": "value",
					"type": "uint256"
				}
			],
			"name": "transfer",
			"outputs": [
				{
					"internalType": "bool",
					"name": "",
					"type": "bool"
				}
			],
			"stateMutability": "nonpayable",
			"type": "function"
		},
		{
			"inputs": [
				{
					"internalType": "address",
					"name": "from",
					"type": "address"
				},
				{
					"internalType": "address",
					"name": "to",
					"type": "address"
				},
				{
					"internalType": "uint256",
					"name": "value",
					"type": "uint256"
				}
			],
			"name": "transferFrom",
			"outputs": [
				{
					"internalType": "bool",
					"name": "",
					"type": "bool"
				}
			],
			"stateMutability": "nonpayable",
			"type": "function"
		},
		{
			"inputs": [],
			"name": "unpause",
			"outputs": [],
			"stateMutability": "nonpayable",
			"type": "function"
		}
	],
	"storageLayout": {
		"storage": [],
		"types": null
	},
	"web3Deploy": "var qaiContract = new web3.eth.Contract([{\"inputs\":[],\"stateMutability\":\"nonpayable\",\"type\":\"constructor\"},{\"inputs\":[],\"name\":\"AccessControlBadConfirmation\",\"type\":\"error\"},{\"inputs\":[{\"internalType\":\"address\",\"name\":\"account\",\"type\":\"address\"},{\"internalType\":\"bytes32\",\"name\":\"neededRole\",\"type\":\"bytes32\"}],\"name\":\"AccessControlUnauthorizedAccount\",\"type\":\"error\"},{\"inputs\":[],\"name\":\"CheckpointUnorderedInsertion\",\"type\":\"error\"},{\"inputs\":[],\"name\":\"ECDSAInvalidSignature\",\"type\":\"error\"},{\"inputs\":[{\"internalType\":\"uint256\",\"name\":\"length\",\"type\":\"uint256\"}],\"name\":\"ECDSAInvalidSignatureLength\",\"type\":\"error\"},{\"inputs\":[{\"internalType\":\"bytes32\",\"name\":\"s\",\"type\":\"bytes32\"}],\"name\":\"ECDSAInvalidSignatureS\",\"type\":\"error\"},{\"inputs\":[{\"internalType\":\"uint256\",\"name\":\"increasedSupply\",\"type\":\"uint256\"},{\"internalType\":\"uint256\",\"name\":\"cap\",\"type\":\"uint256\"}],\"name\":\"ERC20ExceededSafeSupply\",\"type\":\"error\"},{\"inputs\":[{\"internalType\":\"address\",\"name\":\"spender\",\"type\":\"address\"},{\"internalType\":\"uint256\",\"name\":\"allowance\",\"type\":\"uint256\"},{\"internalType\":\"uint256\",\"name\":\"needed\",\"type\":\"uint256\"}],\"name\":\"ERC20InsufficientAllowance\",\"type\":\"error\"},{\"inputs\":[{\"internalType\":\"address\",\"name\":\"sender\",\"type\":\"address\"},{\"internalType\":\"uint256\",\"name\":\"balance\",\"type\":\"uint256\"},{\"internalType\":\"uint256\",\"name\":\"needed\",\"type\":\"uint256\"}],\"name\":\"ERC20InsufficientBalance\",\"type\":\"error\"},{\"inputs\":[{\"internalType\":\"address\",\"name\":\"approver\",\"type\":\"address\"}],\"name\":\"ERC20InvalidApprover\",\"type\":\"error\"},{\"inputs\":[{\"internalType\":\"address\",\"name\":\"receiver\",\"type\":\"address\"}],\"name\":\"ERC20InvalidReceiver\",\"type\":\"error\"},{\"inputs\":[{\"internalType\":\"address\",\"name\":\"sender\",\"type\":\"address\"}],\"name\":\"ERC20InvalidSender\",\"type\":\"error\"},{\"inputs\":[{\"internalType\":\"address\",\"name\":\"spender\",\"type\":\"address\"}],\"name\":\"ERC20InvalidSpender\",\"type\":\"error\"},{\"inputs\":[{\"internalType\":\"uint256\",\"name\":\"deadline\",\"type\":\"uint256\"}],\"name\":\"ERC2612ExpiredSignature\",\"type\":\"error\"},{\"inputs\":[{\"internalType\":\"address\",\"name\":\"signer\",\"type\":\"address\"},{\"internalType\":\"address\",\"name\":\"owner\",\"type\":\"address\"}],\"name\":\"ERC2612InvalidSigner\",\"type\":\"error\"},{\"inputs\":[{\"internalType\":\"uint256\",\"name\":\"maxLoan\",\"type\":\"uint256\"}],\"name\":\"ERC3156ExceededMaxLoan\",\"type\":\"error\"},{\"inputs\":[{\"internalType\":\"address\",\"name\":\"receiver\",\"type\":\"address\"}],\"name\":\"ERC3156InvalidReceiver\",\"type\":\"error\"},{\"inputs\":[{\"internalType\":\"address\",\"name\":\"token\",\"type\":\"address\"}],\"name\":\"ERC3156UnsupportedToken\",\"type\":\"error\"},{\"inputs\":[{\"internalType\":\"uint256\",\"name\":\"timepoint\",\"type\":\"uint256\"},{\"internalType\":\"uint48\",\"name\":\"clock\",\"type\":\"uint48\"}],\"name\":\"ERC5805FutureLookup\",\"type\":\"error\"},{\"inputs\":[],\"name\":\"ERC6372InconsistentClock\",\"type\":\"error\"},{\"inputs\":[],\"name\":\"EnforcedPause\",\"type\":\"error\"},{\"inputs\":[],\"name\":\"ExpectedPause\",\"type\":\"error\"},{\"inputs\":[{\"internalType\":\"address\",\"name\":\"account\",\"type\":\"address\"},{\"internalType\":\"uint256\",\"name\":\"currentNonce\",\"type\":\"uint256\"}],\"name\":\"InvalidAccountNonce\",\"type\":\"error\"},{\"inputs\":[],\"name\":\"InvalidInitialization\",\"type\":\"error\"},{\"inputs\":[],\"name\":\"NotInitializing\",\"type\":\"error\"},{\"inputs\":[{\"internalType\":\"uint8\",\"name\":\"bits\",\"type\":\"uint8\"},{\"internalType\":\"uint256\",\"name\":\"value\",\"type\":\"uint256\"}],\"name\":\"SafeCastOverflowedUintDowncast\",\"type\":\"error\"},{\"inputs\":[{\"internalType\":\"uint256\",\"name\":\"expiry\",\"type\":\"uint256\"}],\"name\":\"VotesExpiredSignature\",\"type\":\"error\"},{\"anonymous\":false,\"inputs\":[{\"indexed\":true,\"internalType\":\"address\",\"name\":\"owner\",\"type\":\"address\"},{\"indexed\":true,\"internalType\":\"address\",\"name\":\"spender\",\"type\":\"address\"},{\"indexed\":false,\"internalType\":\"uint256\",\"name\":\"value\",\"type\":\"uint256\"}],\"name\":\"Approval\",\"type\":\"event\"},{\"anonymous\":false,\"inputs\":[{\"indexed\":true,\"internalType\":\"address\",\"name\":\"delegator\",\"type\":\"address\"},{\"indexed\":true,\"internalType\":\"address\",\"name\":\"fromDelegate\",\"type\":\"address\"},{\"indexed\":true,\"internalType\":\"address\",\"name\":\"toDelegate\",\"type\":\"address\"}],\"name\":\"DelegateChanged\",\"type\":\"event\"},{\"anonymous\":false,\"inputs\":[{\"indexed\":true,\"internalType\":\"address\",\"name\":\"delegate\",\"type\":\"address\"},{\"indexed\":false,\"internalType\":\"uint256\",\"name\":\"previousVotes\",\"type\":\"uint256\"},{\"indexed\":false,\"internalType\":\"uint256\",\"name\":\"newVotes\",\"type\":\"uint256\"}],\"name\":\"DelegateVotesChanged\",\"type\":\"event\"},{\"anonymous\":false,\"inputs\":[],\"name\":\"EIP712DomainChanged\",\"type\":\"event\"},{\"anonymous\":false,\"inputs\":[{\"indexed\":false,\"internalType\":\"uint64\",\"name\":\"version\",\"type\":\"uint64\"}],\"name\":\"Initialized\",\"type\":\"event\"},{\"anonymous\":false,\"inputs\":[{\"indexed\":false,\"internalType\":\"address\",\"name\":\"account\",\"type\":\"address\"}],\"name\":\"Paused\",\"type\":\"event\"},{\"anonymous\":false,\"inputs\":[{\"indexed\":true,\"internalType\":\"bytes32\",\"name\":\"role\",\"type\":\"bytes32\"},{\"indexed\":true,\"internalType\":\"bytes32\",\"name\":\"previousAdminRole\",\"type\":\"bytes32\"},{\"indexed\":true,\"internalType\":\"bytes32\",\"name\":\"newAdminRole\",\"type\":\"bytes32\"}],\"name\":\"RoleAdminChanged\",\"type\":\"event\"},{\"anonymous\":false,\"inputs\":[{\"indexed\":true,\"internalType\":\"bytes32\",\"name\":\"role\",\"type\":\"bytes32\"},{\"indexed\":true,\"internalType\":\"address\",\"name\":\"account\",\"type\":\"address\"},{\"indexed\":true,\"internalType\":\"address\",\"name\":\"sender\",\"type\":\"address\"}],\"name\":\"RoleGranted\",\"type\":\"event\"},{\"anonymous\":false,\"inputs\":[{\"indexed\":true,\"internalType\":\"bytes32\",\"name\":\"role\",\"type\":\"bytes32\"},{\"indexed\":true,\"internalType\":\"address\",\"name\":\"account\",\"type\":\"address\"},{\"indexed\":true,\"internalType\":\"address\",\"name\":\"sender\",\"type\":\"address\"}],\"name\":\"RoleRevoked\",\"type\":\"event\"},{\"anonymous\":false,\"inputs\":[{\"indexed\":true,\"internalType\":\"address\",\"name\":\"from\",\"type\":\"address\"},{\"indexed\":true,\"internalType\":\"address\",\"name\":\"to\",\"type\":\"address\"},{\"indexed\":false,\"internalType\":\"uint256\",\"name\":\"value\",\"type\":\"uint256\"}],\"name\":\"Transfer\",\"type\":\"event\"},{\"anonymous\":false,\"inputs\":[{\"indexed\":false,\"internalType\":\"address\",\"name\":\"account\",\"type\":\"address\"}],\"name\":\"Unpaused\",\"type\":\"event\"},{\"inputs\":[],\"name\":\"CLOCK_MODE\",\"outputs\":[{\"internalType\":\"string\",\"name\":\"\",\"type\":\"string\"}],\"stateMutability\":\"view\",\"type\":\"function\"},{\"inputs\":[],\"name\":\"DEFAULT_ADMIN_ROLE\",\"outputs\":[{\"internalType\":\"bytes32\",\"name\":\"\",\"type\":\"bytes32\"}],\"stateMutability\":\"view\",\"type\":\"function\"},{\"inputs\":[],\"name\":\"DOMAIN_SEPARATOR\",\"outputs\":[{\"internalType\":\"bytes32\",\"name\":\"\",\"type\":\"bytes32\"}],\"stateMutability\":\"view\",\"type\":\"function\"},{\"inputs\":[],\"name\":\"MINTER_ROLE\",\"outputs\":[{\"internalType\":\"bytes32\",\"name\":\"\",\"type\":\"bytes32\"}],\"stateMutability\":\"view\",\"type\":\"function\"},{\"inputs\":[],\"name\":\"PAUSER_ROLE\",\"outputs\":[{\"internalType\":\"bytes32\",\"name\":\"\",\"type\":\"bytes32\"}],\"stateMutability\":\"view\",\"type\":\"function\"},{\"inputs\":[{\"internalType\":\"address\",\"name\":\"owner\",\"type\":\"address\"},{\"internalType\":\"address\",\"name\":\"spender\",\"type\":\"address\"}],\"name\":\"allowance\",\"outputs\":[{\"internalType\":\"uint256\",\"name\":\"\",\"type\":\"uint256\"}],\"stateMutability\":\"view\",\"type\":\"function\"},{\"inputs\":[{\"internalType\":\"address\",\"name\":\"spender\",\"type\":\"address\"},{\"internalType\":\"uint256\",\"name\":\"value\",\"type\":\"uint256\"}],\"name\":\"approve\",\"outputs\":[{\"internalType\":\"bool\",\"name\":\"\",\"type\":\"bool\"}],\"stateMutability\":\"nonpayable\",\"type\":\"function\"},{\"inputs\":[{\"internalType\":\"address\",\"name\":\"account\",\"type\":\"address\"}],\"name\":\"balanceOf\",\"outputs\":[{\"internalType\":\"uint256\",\"name\":\"\",\"type\":\"uint256\"}],\"stateMutability\":\"view\",\"type\":\"function\"},{\"inputs\":[{\"internalType\":\"uint256\",\"name\":\"value\",\"type\":\"uint256\"}],\"name\":\"burn\",\"outputs\":[],\"stateMutability\":\"nonpayable\",\"type\":\"function\"},{\"inputs\":[{\"internalType\":\"address\",\"name\":\"account\",\"type\":\"address\"},{\"internalType\":\"uint256\",\"name\":\"value\",\"type\":\"uint256\"}],\"name\":\"burnFrom\",\"outputs\":[],\"stateMutability\":\"nonpayable\",\"type\":\"function\"},{\"inputs\":[{\"internalType\":\"address\",\"name\":\"account\",\"type\":\"address\"},{\"internalType\":\"uint32\",\"name\":\"pos\",\"type\":\"uint32\"}],\"name\":\"checkpoints\",\"outputs\":[{\"components\":[{\"internalType\":\"uint48\",\"name\":\"_key\",\"type\":\"uint48\"},{\"internalType\":\"uint208\",\"name\":\"_value\",\"type\":\"uint208\"}],\"internalType\":\"struct Checkpoints.Checkpoint208\",\"name\":\"\",\"type\":\"tuple\"}],\"stateMutability\":\"view\",\"type\":\"function\"},{\"inputs\":[],\"name\":\"clock\",\"outputs\":[{\"internalType\":\"uint48\",\"name\":\"\",\"type\":\"uint48\"}],\"stateMutability\":\"view\",\"type\":\"function\"},{\"inputs\":[],\"name\":\"decimals\",\"outputs\":[{\"internalType\":\"uint8\",\"name\":\"\",\"type\":\"uint8\"}],\"stateMutability\":\"view\",\"type\":\"function\"},{\"inputs\":[{\"internalType\":\"address\",\"name\":\"delegatee\",\"type\":\"address\"}],\"name\":\"delegate\",\"outputs\":[],\"stateMutability\":\"nonpayable\",\"type\":\"function\"},{\"inputs\":[{\"internalType\":\"address\",\"name\":\"delegatee\",\"type\":\"address\"},{\"internalType\":\"uint256\",\"name\":\"nonce\",\"type\":\"uint256\"},{\"internalType\":\"uint256\",\"name\":\"expiry\",\"type\":\"uint256\"},{\"internalType\":\"uint8\",\"name\":\"v\",\"type\":\"uint8\"},{\"internalType\":\"bytes32\",\"name\":\"r\",\"type\":\"bytes32\"},{\"internalType\":\"bytes32\",\"name\":\"s\",\"type\":\"bytes32\"}],\"name\":\"delegateBySig\",\"outputs\":[],\"stateMutability\":\"nonpayable\",\"type\":\"function\"},{\"inputs\":[{\"internalType\":\"address\",\"name\":\"account\",\"type\":\"address\"}],\"name\":\"delegates\",\"outputs\":[{\"internalType\":\"address\",\"name\":\"\",\"type\":\"address\"}],\"stateMutability\":\"view\",\"type\":\"function\"},{\"inputs\":[],\"name\":\"eip712Domain\",\"outputs\":[{\"internalType\":\"bytes1\",\"name\":\"fields\",\"type\":\"bytes1\"},{\"internalType\":\"string\",\"name\":\"name\",\"type\":\"string\"},{\"internalType\":\"string\",\"name\":\"version\",\"type\":\"string\"},{\"internalType\":\"uint256\",\"name\":\"chainId\",\"type\":\"uint256\"},{\"internalType\":\"address\",\"name\":\"verifyingContract\",\"type\":\"address\"},{\"internalType\":\"bytes32\",\"name\":\"salt\",\"type\":\"bytes32\"},{\"internalType\":\"uint256[]\",\"name\":\"extensions\",\"type\":\"uint256[]\"}],\"stateMutability\":\"view\",\"type\":\"function\"},{\"inputs\":[{\"internalType\":\"address\",\"name\":\"token\",\"type\":\"address\"},{\"internalType\":\"uint256\",\"name\":\"value\",\"type\":\"uint256\"}],\"name\":\"flashFee\",\"outputs\":[{\"internalType\":\"uint256\",\"name\":\"\",\"type\":\"uint256\"}],\"stateMutability\":\"view\",\"type\":\"function\"},{\"inputs\":[{\"internalType\":\"contract IERC3156FlashBorrower\",\"name\":\"receiver\",\"type\":\"address\"},{\"internalType\":\"address\",\"name\":\"token\",\"type\":\"address\"},{\"internalType\":\"uint256\",\"name\":\"value\",\"type\":\"uint256\"},{\"internalType\":\"bytes\",\"name\":\"data\",\"type\":\"bytes\"}],\"name\":\"flashLoan\",\"outputs\":[{\"internalType\":\"bool\",\"name\":\"\",\"type\":\"bool\"}],\"stateMutability\":\"nonpayable\",\"type\":\"function\"},{\"inputs\":[{\"internalType\":\"uint256\",\"name\":\"timepoint\",\"type\":\"uint256\"}],\"name\":\"getPastTotalSupply\",\"outputs\":[{\"internalType\":\"uint256\",\"name\":\"\",\"type\":\"uint256\"}],\"stateMutability\":\"view\",\"type\":\"function\"},{\"inputs\":[{\"internalType\":\"address\",\"name\":\"account\",\"type\":\"address\"},{\"internalType\":\"uint256\",\"name\":\"timepoint\",\"type\":\"uint256\"}],\"name\":\"getPastVotes\",\"outputs\":[{\"internalType\":\"uint256\",\"name\":\"\",\"type\":\"uint256\"}],\"stateMutability\":\"view\",\"type\":\"function\"},{\"inputs\":[{\"internalType\":\"bytes32\",\"name\":\"role\",\"type\":\"bytes32\"}],\"name\":\"getRoleAdmin\",\"outputs\":[{\"internalType\":\"bytes32\",\"name\":\"\",\"type\":\"bytes32\"}],\"stateMutability\":\"view\",\"type\":\"function\"},{\"inputs\":[{\"internalType\":\"address\",\"name\":\"account\",\"type\":\"address\"}],\"name\":\"getVotes\",\"outputs\":[{\"internalType\":\"uint256\",\"name\":\"\",\"type\":\"uint256\"}],\"stateMutability\":\"view\",\"type\":\"function\"},{\"inputs\":[{\"internalType\":\"bytes32\",\"name\":\"role\",\"type\":\"bytes32\"},{\"internalType\":\"address\",\"name\":\"account\",\"type\":\"address\"}],\"name\":\"grantRole\",\"outputs\":[],\"stateMutability\":\"nonpayable\",\"type\":\"function\"},{\"inputs\":[{\"internalType\":\"bytes32\",\"name\":\"role\",\"type\":\"bytes32\"},{\"internalType\":\"address\",\"name\":\"account\",\"type\":\"address\"}],\"name\":\"hasRole\",\"outputs\":[{\"internalType\":\"bool\",\"name\":\"\",\"type\":\"bool\"}],\"stateMutability\":\"view\",\"type\":\"function\"},{\"inputs\":[{\"internalType\":\"address\",\"name\":\"defaultAdmin\",\"type\":\"address\"},{\"internalType\":\"address\",\"name\":\"pauser\",\"type\":\"address\"},{\"internalType\":\"address\",\"name\":\"minter\",\"type\":\"address\"}],\"name\":\"initialize\",\"outputs\":[],\"stateMutability\":\"nonpayable\",\"type\":\"function\"},{\"inputs\":[{\"internalType\":\"address\",\"name\":\"token\",\"type\":\"address\"}],\"name\":\"maxFlashLoan\",\"outputs\":[{\"internalType\":\"uint256\",\"name\":\"\",\"type\":\"uint256\"}],\"stateMutability\":\"view\",\"type\":\"function\"},{\"inputs\":[{\"internalType\":\"address\",\"name\":\"to\",\"type\":\"address\"},{\"internalType\":\"uint256\",\"name\":\"amount\",\"type\":\"uint256\"}],\"name\":\"mint\",\"outputs\":[],\"stateMutability\":\"nonpayable\",\"type\":\"function\"},{\"inputs\":[],\"name\":\"name\",\"outputs\":[{\"internalType\":\"string\",\"name\":\"\",\"type\":\"string\"}],\"stateMutability\":\"view\",\"type\":\"function\"},{\"inputs\":[{\"internalType\":\"address\",\"name\":\"owner\",\"type\":\"address\"}],\"name\":\"nonces\",\"outputs\":[{\"internalType\":\"uint256\",\"name\":\"\",\"type\":\"uint256\"}],\"stateMutability\":\"view\",\"type\":\"function\"},{\"inputs\":[{\"internalType\":\"address\",\"name\":\"account\",\"type\":\"address\"}],\"name\":\"numCheckpoints\",\"outputs\":[{\"internalType\":\"uint32\",\"name\":\"\",\"type\":\"uint32\"}],\"stateMutability\":\"view\",\"type\":\"function\"},{\"inputs\":[],\"name\":\"pause\",\"outputs\":[],\"stateMutability\":\"nonpayable\",\"type\":\"function\"},{\"inputs\":[],\"name\":\"paused\",\"outputs\":[{\"internalType\":\"bool\",\"name\":\"\",\"type\":\"bool\"}],\"stateMutability\":\"view\",\"type\":\"function\"},{\"inputs\":[{\"internalType\":\"address\",\"name\":\"owner\",\"type\":\"address\"},{\"internalType\":\"address\",\"name\":\"spender\",\"type\":\"address\"},{\"internalType\":\"uint256\",\"name\":\"value\",\"type\":\"uint256\"},{\"internalType\":\"uint256\",\"name\":\"deadline\",\"type\":\"uint256\"},{\"internalType\":\"uint8\",\"name\":\"v\",\"type\":\"uint8\"},{\"internalType\":\"bytes32\",\"name\":\"r\",\"type\":\"bytes32\"},{\"internalType\":\"bytes32\",\"name\":\"s\",\"type\":\"bytes32\"}],\"name\":\"permit\",\"outputs\":[],\"stateMutability\":\"nonpayable\",\"type\":\"function\"},{\"inputs\":[{\"internalType\":\"bytes32\",\"name\":\"role\",\"type\":\"bytes32\"},{\"internalType\":\"address\",\"name\":\"callerConfirmation\",\"type\":\"address\"}],\"name\":\"renounceRole\",\"outputs\":[],\"stateMutability\":\"nonpayable\",\"type\":\"function\"},{\"inputs\":[{\"internalType\":\"bytes32\",\"name\":\"role\",\"type\":\"bytes32\"},{\"internalType\":\"address\",\"name\":\"account\",\"type\":\"address\"}],\"name\":\"revokeRole\",\"outputs\":[],\"stateMutability\":\"nonpayable\",\"type\":\"function\"},{\"inputs\":[{\"internalType\":\"bytes4\",\"name\":\"interfaceId\",\"type\":\"bytes4\"}],\"name\":\"supportsInterface\",\"outputs\":[{\"internalType\":\"bool\",\"name\":\"\",\"type\":\"bool\"}],\"stateMutability\":\"view\",\"type\":\"function\"},{\"inputs\":[],\"name\":\"symbol\",\"outputs\":[{\"internalType\":\"string\",\"name\":\"\",\"type\":\"string\"}],\"stateMutability\":\"view\",\"type\":\"function\"},{\"inputs\":[],\"name\":\"totalSupply\",\"outputs\":[{\"internalType\":\"uint256\",\"name\":\"\",\"type\":\"uint256\"}],\"stateMutability\":\"view\",\"type\":\"function\"},{\"inputs\":[{\"internalType\":\"address\",\"name\":\"to\",\"type\":\"address\"},{\"internalType\":\"uint256\",\"name\":\"value\",\"type\":\"uint256\"}],\"name\":\"transfer\",\"outputs\":[{\"internalType\":\"bool\",\"name\":\"\",\"type\":\"bool\"}],\"stateMutability\":\"nonpayable\",\"type\":\"function\"},{\"inputs\":[{\"internalType\":\"address\",\"name\":\"from\",\"type\":\"address\"},{\"internalType\":\"address\",\"name\":\"to\",\"type\":\"address\"},{\"internalType\":\"uint256\",\"name\":\"value\",\"type\":\"uint256\"}],\"name\":\"transferFrom\",\"outputs\":[{\"internalType\":\"bool\",\"name\":\"\",\"type\":\"bool\"}],\"stateMutability\":\"nonpayable\",\"type\":\"function\"},{\"inputs\":[],\"name\":\"unpause\",\"outputs\":[],\"stateMutability\":\"nonpayable\",\"type\":\"function\"}]);\nvar qai = qaiContract.deploy({\n     data: '0x608060405234801562000010575f80fd5b50620000216200002760201b60201c565b62000191565b5f620000386200012b60201b60201c565b9050805f0160089054906101000a900460ff161562000083576040517ff92ee8a900000000000000000000000000000000000000000000000000000000815260040160405180910390fd5b67ffffffffffffffff8016815f015f9054906101000a900467ffffffffffffffff1667ffffffffffffffff1614620001285767ffffffffffffffff815f015f6101000a81548167ffffffffffffffff021916908367ffffffffffffffff1602179055507fc7f505b2f371ae2175ee4913f4499e1f2633a7b5936321eed1cdaeb6115181d267ffffffffffffffff6040516200011f919062000176565b60405180910390a15b50565b5f7ff0c57e16840df040f15088dc2f81fe391c3923bec73e23a9662efc9c229c6a00905090565b5f67ffffffffffffffff82169050919050565b620001708162000152565b82525050565b5f6020820190506200018b5f83018462000165565b92915050565b6154a1806200019f5f395ff3fe608060405234801561000f575f80fd5b506004361061025c575f3560e01c806370a0823111610144578063a217fddf116100c1578063d539139311610085578063d539139314610772578063d547741f14610790578063d9d98ce4146107ac578063dd62ed3e146107dc578063e63ab1e91461080c578063f1127ed81461082a5761025c565b8063a217fddf146106d0578063a9059cbb146106ee578063c0c53b8b1461071e578063c3cda5201461073a578063d505accf146107565761025c565b80638e539e8c116101085780638e539e8c1461060457806391d148541461063457806391ddadf41461066457806395d89b41146106825780639ab24eb0146106a05761025c565b806370a082311461055a57806379cc67901461058a5780637ecebe00146105a65780638456cb59146105d657806384b0196e146105e05761025c565b80633a46b1a8116101dd578063587cde1e116101a1578063587cde1e146104605780635c19a95c146104905780635c975abb146104ac5780635cffe9de146104ca578063613255ab146104fa5780636fcfff451461052a5761025c565b80633a46b1a8146103d05780633f4ba83a1461040057806340c10f191461040a57806342966c68146104265780634bf5d7e9146104425761025c565b8063248a9ca311610224578063248a9ca31461032c5780632f2ff15d1461035c578063313ce567146103785780633644e5151461039657806336568abe146103b45761025c565b806301ffc9a71461026057806306fdde0314610290578063095ea7b3146102ae57806318160ddd146102de57806323b872dd146102fc575b5f80fd5b61027a60048036038101906102759190613f46565b61085a565b6040516102879190613f8b565b60405180910390f35b6102986108d3565b6040516102a5919061402e565b60405180910390f35b6102c860048036038101906102c391906140db565b610971565b6040516102d59190613f8b565b60405180910390f35b6102e6610993565b6040516102f39190614128565b60405180910390f35b61031660048036038101906103119190614141565b6109aa565b6040516103239190613f8b565b60405180910390f35b610346600480360381019061034191906141c4565b6109d8565b60405161035391906141fe565b60405180910390f35b61037660048036038101906103719190614217565b610a02565b005b610380610a24565b60405161038d9190614270565b60405180910390f35b61039e610a2c565b6040516103ab91906141fe565b60405180910390f35b6103ce60048036038101906103c99190614217565b610a3a565b005b6103ea60048036038101906103e591906140db565b610ab5565b6040516103f79190614128565b60405180910390f35b610408610b99565b005b610424600480360381019061041f91906140db565b610bce565b005b610440600480360381019061043b9190614289565b610c07565b005b61044a610c1b565b604051610457919061402e565b60405180910390f35b61047a600480360381019061047591906142b4565b610caf565b60405161048791906142ee565b60405180910390f35b6104aa60048036038101906104a591906142b4565b610d21565b005b6104b4610d3a565b6040516104c19190613f8b565b60405180910390f35b6104e460048036038101906104df91906143a3565b610d5c565b6040516104f19190613f8b565b60405180910390f35b610514600480360381019061050f91906142b4565b610f51565b6040516105219190614128565b60405180910390f35b610544600480360381019061053f91906142b4565b610fc6565b6040516105519190614445565b60405180910390f35b610574600480360381019061056f91906142b4565b610fd7565b6040516105819190614128565b60405180910390f35b6105a4600480360381019061059f91906140db565b61102a565b005b6105c060048036038101906105bb91906142b4565b61104a565b6040516105cd9190614128565b60405180910390f35b6105de61105b565b005b6105e8611090565b6040516105fb979695949392919061454f565b60405180910390f35b61061e60048036038101906106199190614289565b611199565b60405161062b9190614128565b60405180910390f35b61064e60048036038101906106499190614217565b611241565b60405161065b9190613f8b565b60405180910390f35b61066c6112b2565b60405161067991906145f1565b60405180910390f35b61068a6112c0565b604051610697919061402e565b60405180910390f35b6106ba60048036038101906106b591906142b4565b61135e565b6040516106c79190614128565b60405180910390f35b6106d86113d5565b6040516106e591906141fe565b60405180910390f35b610708600480360381019061070391906140db565b6113db565b6040516107159190613f8b565b60405180910390f35b6107386004803603810190610733919061460a565b6113fd565b005b610754600480360381019061074f9190614684565b6116e0565b005b610770600480360381019061076b919061470d565b6117a5565b005b61077a6118ea565b60405161078791906141fe565b60405180910390f35b6107aa60048036038101906107a59190614217565b61190e565b005b6107c660048036038101906107c191906140db565b611930565b6040516107d39190614128565b60405180910390f35b6107f660048036038101906107f191906147aa565b6119b3565b6040516108039190614128565b60405180910390f35b610814611a43565b60405161082191906141fe565b60405180910390f35b610844600480360381019061083f9190614812565b611a67565b60405161085191906148c0565b60405180910390f35b5f7f7965db0b000000000000000000000000000000000000000000000000000000007bffffffffffffffffffffffffffffffffffffffffffffffffffffffff1916827bffffffffffffffffffffffffffffffffffffffffffffffffffffffff191614806108cc57506108cb82611a81565b5b9050919050565b60605f6108de611aea565b90508060030180546108ef90614906565b80601f016020809104026020016040519081016040528092919081815260200182805461091b90614906565b80156109665780601f1061093d57610100808354040283529160200191610966565b820191905f5260205f20905b81548152906001019060200180831161094957829003601f168201915b505050505091505090565b5f8061097b611b11565b9050610988818585611b18565b600191505092915050565b5f8061099d611aea565b9050806002015491505090565b5f806109b4611b11565b90506109c1858285611b2a565b6109cc858585611bbc565b60019150509392505050565b5f806109e2611cac565b9050805f015f8481526020019081526020015f2060010154915050919050565b610a0b826109d8565b610a1481611cd3565b610a1e8383611ce7565b50505050565b5f6012905090565b5f610a35611ddf565b905090565b610a42611b11565b73ffffffffffffffffffffffffffffffffffffffff168173ffffffffffffffffffffffffffffffffffffffff1614610aa6576040517f6697b23200000000000000000000000000000000000000000000000000000000815260040160405180910390fd5b610ab08282611ded565b505050565b5f80610abf611ee5565b90505f610aca6112b2565b90508065ffffffffffff168410610b1a5783816040517fecd3f81e000000000000000000000000000000000000000000000000000000008152600401610b11929190614936565b60405180910390fd5b610b73610b2685611f0c565b836001015f8873ffffffffffffffffffffffffffffffffffffffff1673ffffffffffffffffffffffffffffffffffffffff1681526020019081526020015f20611f6590919063ffffffff16565b79ffffffffffffffffffffffffffffffffffffffffffffffffffff169250505092915050565b7f65d7a28e3265b37a6474929f336521b332c1681b933f6cb9f3376673440d862a610bc381611cd3565b610bcb612052565b50565b7f9f2df0fed2c77648de5860a4cc508cd0818c85b8b8a1ab4ceeef8d981c8956a6610bf881611cd3565b610c0283836120c0565b505050565b610c18610c12611b11565b8261213f565b50565b6060610c256121be565b65ffffffffffff16610c356112b2565b65ffffffffffff1614610c74576040517f6ff0714000000000000000000000000000000000000000000000000000000000815260040160405180910390fd5b6040518060400160405280601d81526020017f6d6f64653d626c6f636b6e756d6265722666726f6d3d64656661756c74000000815250905090565b5f80610cb9611ee5565b9050805f015f8473ffffffffffffffffffffffffffffffffffffffff1673ffffffffffffffffffffffffffffffffffffffff1681526020019081526020015f205f9054906101000a900473ffffffffffffffffffffffffffffffffffffffff16915050919050565b5f610d2a611b11565b9050610d3681836121cd565b5050565b5f80610d446122ea565b9050805f015f9054906101000a900460ff1691505090565b5f80610d6786610f51565b905080851115610dae57806040517ffd9a7609000000000000000000000000000000000000000000000000000000008152600401610da59190614128565b60405180910390fd5b5f610db98787611930565b9050610dc588876120c0565b7f439148f0bbc682ca079e46d6e2c2f0c1e3b820f1a291b069d8882abf8cf18dd98873ffffffffffffffffffffffffffffffffffffffff166323e30c8b610e0a611b11565b8a8a868b8b6040518763ffffffff1660e01b8152600401610e30969594939291906149a7565b6020604051808303815f875af1158015610e4c573d5f803e3d5ffd5b505050506040513d601f19601f82011682018060405250810190610e709190614a15565b14610eb257876040517f678c5b00000000000000000000000000000000000000000000000000000000008152600401610ea991906142ee565b60405180910390fd5b5f610ebb612311565b9050610ed38930848a610ece9190614a6d565b611b2a565b5f821480610f0c57505f73ffffffffffffffffffffffffffffffffffffffff168173ffffffffffffffffffffffffffffffffffffffff16145b15610f2b57610f26898389610f219190614a6d565b61213f565b610f41565b610f35898861213f565b610f40898284611bbc565b5b6001935050505095945050505050565b5f3073ffffffffffffffffffffffffffffffffffffffff168273ffffffffffffffffffffffffffffffffffffffff1614610f8b575f610fbf565b610f93610993565b7fffffffffffffffffffffffffffffffffffffffffffffffffffffffffffffffff610fbe9190614aa0565b5b9050919050565b5f610fd082612315565b9050919050565b5f80610fe1611aea565b9050805f015f8473ffffffffffffffffffffffffffffffffffffffff1673ffffffffffffffffffffffffffffffffffffffff1681526020019081526020015f2054915050919050565b61103c82611036611b11565b83611b2a565b611046828261213f565b5050565b5f61105482612378565b9050919050565b7f65d7a28e3265b37a6474929f336521b332c1681b933f6cb9f3376673440d862a61108581611cd3565b61108d612389565b50565b5f6060805f805f60605f6110a26123f8565b90505f801b815f01541480156110bd57505f801b8160010154145b6110fc576040517f08c379a00000000000000000000000000000000000000000000000000000000081526004016110f390614b1d565b60405180910390fd5b61110461241f565b61110c6124bd565b46305f801b5f67ffffffffffffffff81111561112b5761112a614b3b565b5b6040519080825280602002602001820160405280156111595781602001602082028036833780820191505090505b507f0f0000000000000000000000000000000000000000000000000000000000000095949392919097509750975097509750975097505090919293949596565b5f806111a3611ee5565b90505f6111ae6112b2565b90508065ffffffffffff1684106111fe5783816040517fecd3f81e0000000000000000000000000000000000000000000000000000000081526004016111f5929190614936565b60405180910390fd5b61121c61120a85611f0c565b83600201611f6590919063ffffffff16565b79ffffffffffffffffffffffffffffffffffffffffffffffffffff1692505050919050565b5f8061124b611cac565b9050805f015f8581526020019081526020015f205f015f8473ffffffffffffffffffffffffffffffffffffffff1673ffffffffffffffffffffffffffffffffffffffff1681526020019081526020015f205f9054906101000a900460ff1691505092915050565b5f6112bb6121be565b905090565b60605f6112cb611aea565b90508060040180546112dc90614906565b80601f016020809104026020016040519081016040528092919081815260200182805461130890614906565b80156113535780601f1061132a57610100808354040283529160200191611353565b820191905f5260205f20905b81548152906001019060200180831161133657829003601f168201915b505050505091505090565b5f80611368611ee5565b90506113b1816001015f8573ffffffffffffffffffffffffffffffffffffffff1673ffffffffffffffffffffffffffffffffffffffff1681526020019081526020015f2061255b565b79ffffffffffffffffffffffffffffffffffffffffffffffffffff16915050919050565b5f801b81565b5f806113e5611b11565b90506113f2818585611bbc565b600191505092915050565b5f6114066125bd565b90505f815f0160089054906101000a900460ff161590505f825f015f9054906101000a900467ffffffffffffffff1690505f808267ffffffffffffffff1614801561144e5750825b90505f60018367ffffffffffffffff1614801561148157505f3073ffffffffffffffffffffffffffffffffffffffff163b145b90508115801561148f575080155b156114c6576040517ff92ee8a900000000000000000000000000000000000000000000000000000000815260040160405180910390fd5b6001855f015f6101000a81548167ffffffffffffffff021916908367ffffffffffffffff1602179055508315611513576001855f0160086101000a81548160ff0219169083151502179055505b6115876040518060400160405280600381526020017f51414900000000000000000000000000000000000000000000000000000000008152506040518060400160405280600281526020017f41490000000000000000000000000000000000000000000000000000000000008152506125e4565b61158f6125fa565b611597612604565b61159f612616565b6115dd6040518060400160405280600381526020017f5141490000000000000000000000000000000000000000000000000000000000815250612620565b6115e561266a565b6115ed612674565b6115f95f801b89611ce7565b506116247f65d7a28e3265b37a6474929f336521b332c1681b933f6cb9f3376673440d862a88611ce7565b5061165133611631610a24565b600a61163d9190614c97565b6308f0d18061164c9190614ce1565b6120c0565b61167b7f9f2df0fed2c77648de5860a4cc508cd0818c85b8b8a1ab4ceeef8d981c8956a687611ce7565b5083156116d6575f855f0160086101000a81548160ff0219169083151502179055507fc7f505b2f371ae2175ee4913f4499e1f2633a7b5936321eed1cdaeb6115181d260016040516116cd9190614d77565b60405180910390a15b5050505050505050565b8342111561172557836040517f4683af0e00000000000000000000000000000000000000000000000000000000815260040161171c9190614128565b60405180910390fd5b5f61178661177e7fe48329057bfd03d55e49b547132e39cffd9c1820ad7b9d4c5307691425d15adf8989896040516020016117639493929190614d90565b6040516020818303038152906040528051906020012061267e565b858585612697565b905061179281876126c5565b61179c81886121cd565b50505050505050565b834211156117ea57836040517f627913020000000000000000000000000000000000000000000000000000000081526004016117e19190614128565b60405180910390fd5b5f7f6e71edae12b1b97f4d1f60370fef10105fa2faae0126114a169c64845d6126c98888886118188c61271c565b8960405160200161182e96959493929190614dd3565b6040516020818303038152906040528051906020012090505f6118508261267e565b90505f61185f82878787612697565b90508973ffffffffffffffffffffffffffffffffffffffff168173ffffffffffffffffffffffffffffffffffffffff16146118d357808a6040517f4b800e460000000000000000000000000000000000000000000000000000000081526004016118ca929190614e32565b60405180910390fd5b6118de8a8a8a611b18565b50505050505050505050565b7f9f2df0fed2c77648de5860a4cc508cd0818c85b8b8a1ab4ceeef8d981c8956a681565b611917826109d8565b61192081611cd3565b61192a8383611ded565b50505050565b5f3073ffffffffffffffffffffffffffffffffffffffff168373ffffffffffffffffffffffffffffffffffffffff16146119a157826040517fb5a7db9200000000000000000000000000000000000000000000000000000000815260040161199891906142ee565b60405180910390fd5b6119ab838361277c565b905092915050565b5f806119bd611aea565b9050806001015f8573ffffffffffffffffffffffffffffffffffffffff1673ffffffffffffffffffffffffffffffffffffffff1681526020019081526020015f205f8473ffffffffffffffffffffffffffffffffffffffff1673ffffffffffffffffffffffffffffffffffffffff1681526020019081526020015f205491505092915050565b7f65d7a28e3265b37a6474929f336521b332c1681b933f6cb9f3376673440d862a81565b611a6f613ead565b611a798383612783565b905092915050565b5f7f01ffc9a7000000000000000000000000000000000000000000000000000000007bffffffffffffffffffffffffffffffffffffffffffffffffffffffff1916827bffffffffffffffffffffffffffffffffffffffffffffffffffffffff1916149050919050565b5f7f52c63247e1f47db19d5ce0460030c497f067ca4cebf71ba98eeadabe20bace00905090565b5f33905090565b611b2583838360016127f0565b505050565b5f611b3584846119b3565b90507fffffffffffffffffffffffffffffffffffffffffffffffffffffffffffffffff8114611bb65781811015611ba7578281836040517ffb8f41b2000000000000000000000000000000000000000000000000000000008152600401611b9e93929190614e59565b60405180910390fd5b611bb584848484035f6127f0565b5b50505050565b5f73ffffffffffffffffffffffffffffffffffffffff168373ffffffffffffffffffffffffffffffffffffffff1603611c2c575f6040517f96c6fd1e000000000000000000000000000000000000000000000000000000008152600401611c2391906142ee565b60405180910390fd5b5f73ffffffffffffffffffffffffffffffffffffffff168273ffffffffffffffffffffffffffffffffffffffff1603611c9c575f6040517fec442f05000000000000000000000000000000000000000000000000000000008152600401611c9391906142ee565b60405180910390fd5b611ca78383836129cd565b505050565b5f7f02dd7bc7dec4dceedda775e58dd541e08a116c6c53815c0bd028192f7b626800905090565b611ce481611cdf611b11565b6129dd565b50565b5f80611cf1611cac565b9050611cfd8484611241565b611dd4576001815f015f8681526020019081526020015f205f015f8573ffffffffffffffffffffffffffffffffffffffff1673ffffffffffffffffffffffffffffffffffffffff1681526020019081526020015f205f6101000a81548160ff021916908315150217905550611d70611b11565b73ffffffffffffffffffffffffffffffffffffffff168373ffffffffffffffffffffffffffffffffffffffff16857f2f8788117e7eff1d82e926ec794901d17c78024a50270940304540a733656f0d60405160405180910390a46001915050611dd9565b5f9150505b92915050565b5f611de8612a2e565b905090565b5f80611df7611cac565b9050611e038484611241565b15611eda575f815f015f8681526020019081526020015f205f015f8573ffffffffffffffffffffffffffffffffffffffff1673ffffffffffffffffffffffffffffffffffffffff1681526020019081526020015f205f6101000a81548160ff021916908315150217905550611e76611b11565b73ffffffffffffffffffffffffffffffffffffffff168373ffffffffffffffffffffffffffffffffffffffff16857ff6391f5c32d9c69d2a47ea670b442974b53935d1edc7fd64eb21e047a839171b60405160405180910390a46001915050611edf565b5f9150505b92915050565b5f7fe8b26c30fad74198956032a3533d903385d56dd795af560196f9c78d4af40d00905090565b5f65ffffffffffff8016821115611f5d576030826040517f6dfcc650000000000000000000000000000000000000000000000000000000008152600401611f54929190614ec7565b60405180910390fd5b819050919050565b5f80835f018054905090505f808290506005831115611fe6575f611f8884612a91565b84611f939190614aa0565b9050611fa1875f0182612b87565b5f015f9054906101000a900465ffffffffffff1665ffffffffffff168665ffffffffffff161015611fd457809150611fe4565b600181611fe19190614a6d565b92505b505b5f611ff5875f01878585612b99565b90505f811461204457612016875f016001836120119190614aa0565b612b87565b5f0160069054906101000a900479ffffffffffffffffffffffffffffffffffffffffffffffffffff16612046565b5f5b94505050505092915050565b61205a612c0e565b5f6120636122ea565b90505f815f015f6101000a81548160ff0219169083151502179055507f5db9ee0a495bf2e6ff9c91a7834c1ba4fdd244a5e8aa4e537bd38aeae4b073aa6120a8611b11565b6040516120b591906142ee565b60405180910390a150565b5f73ffffffffffffffffffffffffffffffffffffffff168273ffffffffffffffffffffffffffffffffffffffff1603612130575f6040517fec442f0500000000000000000000000000000000000000000000000000000000815260040161212791906142ee565b60405180910390fd5b61213b5f83836129cd565b5050565b5f73ffffffffffffffffffffffffffffffffffffffff168273ffffffffffffffffffffffffffffffffffffffff16036121af575f6040517f96c6fd1e0000000000000000000000000000000000000000000000000000000081526004016121a691906142ee565b60405180910390fd5b6121ba825f836129cd565b5050565b5f6121c843611f0c565b905090565b5f6121d6611ee5565b90505f6121e284610caf565b905082825f015f8673ffffffffffffffffffffffffffffffffffffffff1673ffffffffffffffffffffffffffffffffffffffff1681526020019081526020015f205f6101000a81548173ffffffffffffffffffffffffffffffffffffffff021916908373ffffffffffffffffffffffffffffffffffffffff1602179055508273ffffffffffffffffffffffffffffffffffffffff168173ffffffffffffffffffffffffffffffffffffffff168573ffffffffffffffffffffffffffffffffffffffff167f3134e8a2e6d97e929a7e54011ea5485d7d196dd5f0ba4d4ef95803e8e3fc257f60405160405180910390a46122e481846122df87612c4e565b612c5f565b50505050565b5f7fcd5ed15c6e187e77e9aee88184c21f4f2182ab5827cb3b7e07fbedcd63f03300905090565b5f90565b5f8061231f611ee5565b905061237061236b826001015f8673ffffffffffffffffffffffffffffffffffffffff1673ffffffffffffffffffffffffffffffffffffffff1681526020019081526020015f20612edf565b612eee565b915050919050565b5f61238282612f45565b9050919050565b612391612f98565b5f61239a6122ea565b90506001815f015f6101000a81548160ff0219169083151502179055507f62e78cea01bee320cd4e420270b5ea74000d11b0c9f74754ebdbfc544b05a2586123e0611b11565b6040516123ed91906142ee565b60405180910390a150565b5f7fa16a46d94261c7517cc8ff89f61c0ce93598e3c849801011dee649a6a557d100905090565b60605f61242a6123f8565b905080600201805461243b90614906565b80601f016020809104026020016040519081016040528092919081815260200182805461246790614906565b80156124b25780601f10612489576101008083540402835291602001916124b2565b820191905f5260205f20905b81548152906001019060200180831161249557829003601f168201915b505050505091505090565b60605f6124c86123f8565b90508060030180546124d990614906565b80601f016020809104026020016040519081016040528092919081815260200182805461250590614906565b80156125505780601f1061252757610100808354040283529160200191612550565b820191905f5260205f20905b81548152906001019060200180831161253357829003601f168201915b505050505091505090565b5f80825f018054905090505f81146125b357612585835f016001836125809190614aa0565b612b87565b5f0160069054906101000a900479ffffffffffffffffffffffffffffffffffffffffffffffffffff166125b5565b5f5b915050919050565b5f7ff0c57e16840df040f15088dc2f81fe391c3923bec73e23a9662efc9c229c6a00905090565b6125ec612fd9565b6125f68282613019565b5050565b612602612fd9565b565b61260c612fd9565b612614613055565b565b61261e612fd9565b565b612628612fd9565b612667816040518060400160405280600181526020017f3100000000000000000000000000000000000000000000000000000000000000815250613085565b50565b612672612fd9565b565b61267c612fd9565b565b5f61269061268a611ddf565b836130d6565b9050919050565b5f805f806126a788888888613116565b9250925092506126b782826131fd565b829350505050949350505050565b5f6126cf8361271c565b90508082146127175782816040517f752d88c000000000000000000000000000000000000000000000000000000000815260040161270e929190614eee565b60405180910390fd5b505050565b5f8061272661335f565b9050805f015f8473ffffffffffffffffffffffffffffffffffffffff1673ffffffffffffffffffffffffffffffffffffffff1681526020019081526020015f205f81548092919060010191905055915050919050565b5f92915050565b61278b613ead565b5f612794611ee5565b90506127e783826001015f8773ffffffffffffffffffffffffffffffffffffffff1673ffffffffffffffffffffffffffffffffffffffff1681526020019081526020015f2061338690919063ffffffff16565b91505092915050565b5f6127f9611aea565b90505f73ffffffffffffffffffffffffffffffffffffffff168573ffffffffffffffffffffffffffffffffffffffff160361286b575f6040517fe602df0500000000000000000000000000000000000000000000000000000000815260040161286291906142ee565b60405180910390fd5b5f73ffffffffffffffffffffffffffffffffffffffff168473ffffffffffffffffffffffffffffffffffffffff16036128db575f6040517f94280d620000000000000000000000000000000000000000000000000000000081526004016128d291906142ee565b60405180910390fd5b82816001015f8773ffffffffffffffffffffffffffffffffffffffff1673ffffffffffffffffffffffffffffffffffffffff1681526020019081526020015f205f8673ffffffffffffffffffffffffffffffffffffffff1673ffffffffffffffffffffffffffffffffffffffff1681526020019081526020015f208190555081156129c6578373ffffffffffffffffffffffffffffffffffffffff168573ffffffffffffffffffffffffffffffffffffffff167f8c5be1e5ebec7d5bd14f71427d1e84f3dd0314c0f7b2291e5b200ac8c7c3b925856040516129bd9190614128565b60405180910390a35b5050505050565b6129d8838383613455565b505050565b6129e78282611241565b612a2a5780826040517fe2517d3f000000000000000000000000000000000000000000000000000000008152600401612a21929190614f15565b60405180910390fd5b5050565b5f7f8b73c3c69bb8fe3d512ecc4cf759cc79239f7b179b0ffacaa9a75d522b39400f612a58613503565b612a60613579565b4630604051602001612a76959493929190614f3c565b60405160208183030381529060405280519060200120905090565b5f808203612aa1575f9050612b82565b5f6001612aad846135f0565b901c6001901b90506001818481612ac757612ac6614f8d565b5b048201901c90506001818481612ae057612adf614f8d565b5b048201901c90506001818481612af957612af8614f8d565b5b048201901c90506001818481612b1257612b11614f8d565b5b048201901c90506001818481612b2b57612b2a614f8d565b5b048201901c90506001818481612b4457612b43614f8d565b5b048201901c90506001818481612b5d57612b5c614f8d565b5b048201901c9050612b7e81828581612b7857612b77614f8d565b5b046136c7565b9150505b919050565b5f825f528160205f2001905092915050565b5f5b81831015612c03575f612bae84846136df565b90508465ffffffffffff16612bc38783612b87565b5f015f9054906101000a900465ffffffffffff1665ffffffffffff161115612bed57809250612bfd565b600181612bfa9190614a6d565b93505b50612b9b565b819050949350505050565b612c16610d3a565b612c4c576040517f8dfc202b00000000000000000000000000000000000000000000000000000000815260040160405180910390fd5b565b5f612c5882610fd7565b9050919050565b5f612c68611ee5565b90508273ffffffffffffffffffffffffffffffffffffffff168473ffffffffffffffffffffffffffffffffffffffff1614158015612ca557505f82115b15612ed9575f73ffffffffffffffffffffffffffffffffffffffff168473ffffffffffffffffffffffffffffffffffffffff1614612dc1575f80612d32836001015f8873ffffffffffffffffffffffffffffffffffffffff1673ffffffffffffffffffffffffffffffffffffffff1681526020019081526020015f20613704612d2d87613719565b613786565b79ffffffffffffffffffffffffffffffffffffffffffffffffffff16915079ffffffffffffffffffffffffffffffffffffffffffffffffffff1691508573ffffffffffffffffffffffffffffffffffffffff167fdec2bacdd2f05b59de34da9b523dff8be42e5e38e818c82fdb0bae774387a7248383604051612db6929190614fba565b60405180910390a250505b5f73ffffffffffffffffffffffffffffffffffffffff168373ffffffffffffffffffffffffffffffffffffffff1614612ed8575f80612e49836001015f8773ffffffffffffffffffffffffffffffffffffffff1673ffffffffffffffffffffffffffffffffffffffff1681526020019081526020015f206137c5612e4487613719565b613786565b79ffffffffffffffffffffffffffffffffffffffffffffffffffff16915079ffffffffffffffffffffffffffffffffffffffffffffffffffff1691508473ffffffffffffffffffffffffffffffffffffffff167fdec2bacdd2f05b59de34da9b523dff8be42e5e38e818c82fdb0bae774387a7248383604051612ecd929190614fba565b60405180910390a250505b5b50505050565b5f815f01805490509050919050565b5f63ffffffff8016821115612f3d576020826040517f6dfcc650000000000000000000000000000000000000000000000000000000008152600401612f3492919061501a565b60405180910390fd5b819050919050565b5f80612f4f61335f565b9050805f015f8473ffffffffffffffffffffffffffffffffffffffff1673ffffffffffffffffffffffffffffffffffffffff1681526020019081526020015f2054915050919050565b612fa0610d3a565b15612fd7576040517fd93c066500000000000000000000000000000000000000000000000000000000815260040160405180910390fd5b565b612fe16137da565b613017576040517fd7e6bcf800000000000000000000000000000000000000000000000000000000815260040160405180910390fd5b565b613021612fd9565b5f61302a611aea565b90508281600301908161303d91906151d5565b508181600401908161304f91906151d5565b50505050565b61305d612fd9565b5f6130666122ea565b90505f815f015f6101000a81548160ff02191690831515021790555050565b61308d612fd9565b5f6130966123f8565b9050828160020190816130a991906151d5565b50818160030190816130bb91906151d5565b505f801b815f01819055505f801b8160010181905550505050565b5f6040517f190100000000000000000000000000000000000000000000000000000000000081528360028201528260228201526042812091505092915050565b5f805f7f7fffffffffffffffffffffffffffffff5d576e7357a4501ddfe92f46681b20a0845f1c1115613152575f6003859250925092506131f3565b5f6001888888886040515f815260200160405260405161317594939291906152a4565b6020604051602081039080840390855afa158015613195573d5f803e3d5ffd5b5050506020604051035190505f73ffffffffffffffffffffffffffffffffffffffff168173ffffffffffffffffffffffffffffffffffffffff16036131e6575f60015f801b935093509350506131f3565b805f805f1b935093509350505b9450945094915050565b5f60038111156132105761320f6152e7565b5b826003811115613223576132226152e7565b5b031561335b576001600381111561323d5761323c6152e7565b5b8260038111156132505761324f6152e7565b5b03613287576040517ff645eedf00000000000000000000000000000000000000000000000000000000815260040160405180910390fd5b6002600381111561329b5761329a6152e7565b5b8260038111156132ae576132ad6152e7565b5b036132f257805f1c6040517ffce698f70000000000000000000000000000000000000000000000000000000081526004016132e99190614128565b60405180910390fd5b600380811115613305576133046152e7565b5b826003811115613318576133176152e7565b5b0361335a57806040517fd78bce0c00000000000000000000000000000000000000000000000000000000815260040161335191906141fe565b60405180910390fd5b5b5050565b5f7f5ab42ced628888259c08ac98db1eb0cf702fc1501344311d8b100cd1bfe4bb00905090565b61338e613ead565b825f018263ffffffff16815481106133a9576133a8615314565b5b905f5260205f20016040518060400160405290815f82015f9054906101000a900465ffffffffffff1665ffffffffffff1665ffffffffffff1681526020015f820160069054906101000a900479ffffffffffffffffffffffffffffffffffffffffffffffffffff1679ffffffffffffffffffffffffffffffffffffffffffffffffffff1679ffffffffffffffffffffffffffffffffffffffffffffffffffff1681525050905092915050565b6134608383836137f8565b5f73ffffffffffffffffffffffffffffffffffffffff168373ffffffffffffffffffffffffffffffffffffffff16036134f3575f61349c610993565b90505f6134a7613810565b9050808211156134f05781816040517f1cb15d260000000000000000000000000000000000000000000000000000000081526004016134e7929190614fba565b60405180910390fd5b50505b6134fe838383613833565b505050565b5f8061350d6123f8565b90505f61351861241f565b90505f8151111561353457808051906020012092505050613576565b5f825f015490505f801b811461354f57809350505050613576565b7fc5d2460186f7233c927e7db2dcc703c0e500b653ca82273b7bfad8045d85a47093505050505b90565b5f806135836123f8565b90505f61358e6124bd565b90505f815111156135aa578080519060200120925050506135ed565b5f826001015490505f801b81146135c6578093505050506135ed565b7fc5d2460186f7233c927e7db2dcc703c0e500b653ca82273b7bfad8045d85a47093505050505b90565b5f805f90505f608084901c111561360f57608083901c92506080810190505b5f604084901c111561362957604083901c92506040810190505b5f602084901c111561364357602083901c92506020810190505b5f601084901c111561365d57601083901c92506010810190505b5f600884901c111561367757600883901c92506008810190505b5f600484901c111561369157600483901c92506004810190505b5f600284901c11156136ab57600283901c92506002810190505b5f600184901c11156136be576001810190505b80915050919050565b5f8183106136d557816136d7565b825b905092915050565b5f60028284186136ef9190615341565b8284166136fc9190614a6d565b905092915050565b5f81836137119190615371565b905092915050565b5f79ffffffffffffffffffffffffffffffffffffffffffffffffffff801682111561377e5760d0826040517f6dfcc6500000000000000000000000000000000000000000000000000000000081526004016137759291906153f7565b60405180910390fd5b819050919050565b5f806137b96137936112b2565b6137a961379f8861255b565b868863ffffffff16565b876138fb9092919063ffffffff16565b91509150935093915050565b5f81836137d2919061541e565b905092915050565b5f6137e36125bd565b5f0160089054906101000a900460ff16905090565b613800612f98565b61380b838383613916565b505050565b5f79ffffffffffffffffffffffffffffffffffffffffffffffffffff8016905090565b5f61383c611ee5565b90505f73ffffffffffffffffffffffffffffffffffffffff168473ffffffffffffffffffffffffffffffffffffffff160361388c57613889816002016137c561388485613719565b613786565b50505b5f73ffffffffffffffffffffffffffffffffffffffff168373ffffffffffffffffffffffffffffffffffffffff16036138da576138d7816002016137046138d285613719565b613786565b50505b6138f56138e685610caf565b6138ef85610caf565b84612c5f565b50505050565b5f8061390a855f018585613b45565b91509150935093915050565b5f61391f611aea565b90505f73ffffffffffffffffffffffffffffffffffffffff168473ffffffffffffffffffffffffffffffffffffffff16036139735781816002015f8282546139679190614a6d565b92505081905550613a45565b5f815f015f8673ffffffffffffffffffffffffffffffffffffffff1673ffffffffffffffffffffffffffffffffffffffff1681526020019081526020015f20549050828110156139fe578481846040517fe450d38c0000000000000000000000000000000000000000000000000000000081526004016139f593929190614e59565b60405180910390fd5b828103825f015f8773ffffffffffffffffffffffffffffffffffffffff1673ffffffffffffffffffffffffffffffffffffffff1681526020019081526020015f2081905550505b5f73ffffffffffffffffffffffffffffffffffffffff168373ffffffffffffffffffffffffffffffffffffffff1603613a8e5781816002015f8282540392505081905550613ada565b81815f015f8573ffffffffffffffffffffffffffffffffffffffff1673ffffffffffffffffffffffffffffffffffffffff1681526020019081526020015f205f82825401925050819055505b8273ffffffffffffffffffffffffffffffffffffffff168473ffffffffffffffffffffffffffffffffffffffff167fddf252ad1be2c89b69c2b068fc378daa952ba7f163c4a11628f55a4df523b3ef84604051613b379190614128565b60405180910390a350505050565b5f805f858054905090505f811115613dc5575f613b6e87600184613b699190614aa0565b612b87565b6040518060400160405290815f82015f9054906101000a900465ffffffffffff1665ffffffffffff1665ffffffffffff1681526020015f820160069054906101000a900479ffffffffffffffffffffffffffffffffffffffffffffffffffff1679ffffffffffffffffffffffffffffffffffffffffffffffffffff1679ffffffffffffffffffffffffffffffffffffffffffffffffffff168152505090508565ffffffffffff16815f015165ffffffffffff161115613c59576040517f2520601d00000000000000000000000000000000000000000000000000000000815260040160405180910390fd5b8565ffffffffffff16815f015165ffffffffffff1603613cdb5784613c8a88600185613c859190614aa0565b612b87565b5f0160066101000a81548179ffffffffffffffffffffffffffffffffffffffffffffffffffff021916908379ffffffffffffffffffffffffffffffffffffffffffffffffffff160217905550613db4565b8660405180604001604052808865ffffffffffff1681526020018779ffffffffffffffffffffffffffffffffffffffffffffffffffff16815250908060018154018082558091505060019003905f5260205f20015f909190919091505f820151815f015f6101000a81548165ffffffffffff021916908365ffffffffffff1602179055506020820151815f0160066101000a81548179ffffffffffffffffffffffffffffffffffffffffffffffffffff021916908379ffffffffffffffffffffffffffffffffffffffffffffffffffff16021790555050505b806020015185935093505050613ea5565b8560405180604001604052808765ffffffffffff1681526020018679ffffffffffffffffffffffffffffffffffffffffffffffffffff16815250908060018154018082558091505060019003905f5260205f20015f909190919091505f820151815f015f6101000a81548165ffffffffffff021916908365ffffffffffff1602179055506020820151815f0160066101000a81548179ffffffffffffffffffffffffffffffffffffffffffffffffffff021916908379ffffffffffffffffffffffffffffffffffffffffffffffffffff16021790555050505f8492509250505b935093915050565b60405180604001604052805f65ffffffffffff1681526020015f79ffffffffffffffffffffffffffffffffffffffffffffffffffff1681525090565b5f80fd5b5f80fd5b5f7fffffffff0000000000000000000000000000000000000000000000000000000082169050919050565b613f2581613ef1565b8114613f2f575f80fd5b50565b5f81359050613f4081613f1c565b92915050565b5f60208284031215613f5b57613f5a613ee9565b5b5f613f6884828501613f32565b91505092915050565b5f8115159050919050565b613f8581613f71565b82525050565b5f602082019050613f9e5f830184613f7c565b92915050565b5f81519050919050565b5f82825260208201905092915050565b5f5b83811015613fdb578082015181840152602081019050613fc0565b5f8484015250505050565b5f601f19601f8301169050919050565b5f61400082613fa4565b61400a8185613fae565b935061401a818560208601613fbe565b61402381613fe6565b840191505092915050565b5f6020820190508181035f8301526140468184613ff6565b905092915050565b5f73ffffffffffffffffffffffffffffffffffffffff82169050919050565b5f6140778261404e565b9050919050565b6140878161406d565b8114614091575f80fd5b50565b5f813590506140a28161407e565b92915050565b5f819050919050565b6140ba816140a8565b81146140c4575f80fd5b50565b5f813590506140d5816140b1565b92915050565b5f80604083850312156140f1576140f0613ee9565b5b5f6140fe85828601614094565b925050602061410f858286016140c7565b9150509250929050565b614122816140a8565b82525050565b5f60208201905061413b5f830184614119565b92915050565b5f805f6060848603121561415857614157613ee9565b5b5f61416586828701614094565b935050602061417686828701614094565b9250506040614187868287016140c7565b9150509250925092565b5f819050919050565b6141a381614191565b81146141ad575f80fd5b50565b5f813590506141be8161419a565b92915050565b5f602082840312156141d9576141d8613ee9565b5b5f6141e6848285016141b0565b91505092915050565b6141f881614191565b82525050565b5f6020820190506142115f8301846141ef565b92915050565b5f806040838503121561422d5761422c613ee9565b5b5f61423a858286016141b0565b925050602061424b85828601614094565b9150509250929050565b5f60ff82169050919050565b61426a81614255565b82525050565b5f6020820190506142835f830184614261565b92915050565b5f6020828403121561429e5761429d613ee9565b5b5f6142ab848285016140c7565b91505092915050565b5f602082840312156142c9576142c8613ee9565b5b5f6142d684828501614094565b91505092915050565b6142e88161406d565b82525050565b5f6020820190506143015f8301846142df565b92915050565b5f6143118261406d565b9050919050565b61432181614307565b811461432b575f80fd5b50565b5f8135905061433c81614318565b92915050565b5f80fd5b5f80fd5b5f80fd5b5f8083601f84011261436357614362614342565b5b8235905067ffffffffffffffff8111156143805761437f614346565b5b60208301915083600182028301111561439c5761439b61434a565b5b9250929050565b5f805f805f608086880312156143bc576143bb613ee9565b5b5f6143c98882890161432e565b95505060206143da88828901614094565b94505060406143eb888289016140c7565b935050606086013567ffffffffffffffff81111561440c5761440b613eed565b5b6144188882890161434e565b92509250509295509295909350565b5f63ffffffff82169050919050565b61443f81614427565b82525050565b5f6020820190506144585f830184614436565b92915050565b5f7fff0000000000000000000000000000000000000000000000000000000000000082169050919050565b6144928161445e565b82525050565b5f81519050919050565b5f82825260208201905092915050565b5f819050602082019050919050565b6144ca816140a8565b82525050565b5f6144db83836144c1565b60208301905092915050565b5f602082019050919050565b5f6144fd82614498565b61450781856144a2565b9350614512836144b2565b805f5b8381101561454257815161452988826144d0565b9750614534836144e7565b925050600181019050614515565b5085935050505092915050565b5f60e0820190506145625f83018a614489565b81810360208301526145748189613ff6565b905081810360408301526145888188613ff6565b90506145976060830187614119565b6145a460808301866142df565b6145b160a08301856141ef565b81810360c08301526145c381846144f3565b905098975050505050505050565b5f65ffffffffffff82169050919050565b6145eb816145d1565b82525050565b5f6020820190506146045f8301846145e2565b92915050565b5f805f6060848603121561462157614620613ee9565b5b5f61462e86828701614094565b935050602061463f86828701614094565b925050604061465086828701614094565b9150509250925092565b61466381614255565b811461466d575f80fd5b50565b5f8135905061467e8161465a565b92915050565b5f805f805f8060c0878903121561469e5761469d613ee9565b5b5f6146ab89828a01614094565b96505060206146bc89828a016140c7565b95505060406146cd89828a016140c7565b94505060606146de89828a01614670565b93505060806146ef89828a016141b0565b92505060a061470089828a016141b0565b9150509295509295509295565b5f805f805f805f60e0888a03121561472857614727613ee9565b5b5f6147358a828b01614094565b97505060206147468a828b01614094565b96505060406147578a828b016140c7565b95505060606147688a828b016140c7565b94505060806147798a828b01614670565b93505060a061478a8a828b016141b0565b92505060c061479b8a828b016141b0565b91505092959891949750929550565b5f80604083850312156147c0576147bf613ee9565b5b5f6147cd85828601614094565b92505060206147de85828601614094565b9150509250929050565b6147f181614427565b81146147fb575f80fd5b50565b5f8135905061480c816147e8565b92915050565b5f806040838503121561482857614827613ee9565b5b5f61483585828601614094565b9250506020614846858286016147fe565b9150509250929050565b614859816145d1565b82525050565b5f79ffffffffffffffffffffffffffffffffffffffffffffffffffff82169050919050565b61488d8161485f565b82525050565b604082015f8201516148a75f850182614850565b5060208201516148ba6020850182614884565b50505050565b5f6040820190506148d35f830184614893565b92915050565b7f4e487b71000000000000000000000000000000000000000000000000000000005f52602260045260245ffd5b5f600282049050600182168061491d57607f821691505b6020821081036149305761492f6148d9565b5b50919050565b5f6040820190506149495f830185614119565b61495660208301846145e2565b9392505050565b5f82825260208201905092915050565b828183375f83830152505050565b5f614986838561495d565b935061499383858461496d565b61499c83613fe6565b840190509392505050565b5f60a0820190506149ba5f8301896142df565b6149c760208301886142df565b6149d46040830187614119565b6149e16060830186614119565b81810360808301526149f481848661497b565b9050979650505050505050565b5f81519050614a0f8161419a565b92915050565b5f60208284031215614a2a57614a29613ee9565b5b5f614a3784828501614a01565b91505092915050565b7f4e487b71000000000000000000000000000000000000000000000000000000005f52601160045260245ffd5b5f614a77826140a8565b9150614a82836140a8565b9250828201905080821115614a9a57614a99614a40565b5b92915050565b5f614aaa826140a8565b9150614ab5836140a8565b9250828203905081811115614acd57614acc614a40565b5b92915050565b7f4549503731323a20556e696e697469616c697a656400000000000000000000005f82015250565b5f614b07601583613fae565b9150614b1282614ad3565b602082019050919050565b5f6020820190508181035f830152614b3481614afb565b9050919050565b7f4e487b71000000000000000000000000000000000000000000000000000000005f52604160045260245ffd5b5f8160011c9050919050565b5f808291508390505b6001851115614bbd57808604811115614b9957614b98614a40565b5b6001851615614ba85780820291505b8081029050614bb685614b68565b9450614b7d565b94509492505050565b5f82614bd55760019050614c90565b81614be2575f9050614c90565b8160018114614bf85760028114614c0257614c31565b6001915050614c90565b60ff841115614c1457614c13614a40565b5b8360020a915084821115614c2b57614c2a614a40565b5b50614c90565b5060208310610133831016604e8410600b8410161715614c665782820a905083811115614c6157614c60614a40565b5b614c90565b614c738484846001614b74565b92509050818404811115614c8a57614c89614a40565b5b81810290505b9392505050565b5f614ca1826140a8565b9150614cac83614255565b9250614cd97fffffffffffffffffffffffffffffffffffffffffffffffffffffffffffffffff8484614bc6565b905092915050565b5f614ceb826140a8565b9150614cf6836140a8565b9250828202614d04816140a8565b91508282048414831517614d1b57614d1a614a40565b5b5092915050565b5f819050919050565b5f67ffffffffffffffff82169050919050565b5f819050919050565b5f614d61614d5c614d5784614d22565b614d3e565b614d2b565b9050919050565b614d7181614d47565b82525050565b5f602082019050614d8a5f830184614d68565b92915050565b5f608082019050614da35f8301876141ef565b614db060208301866142df565b614dbd6040830185614119565b614dca6060830184614119565b95945050505050565b5f60c082019050614de65f8301896141ef565b614df360208301886142df565b614e0060408301876142df565b614e0d6060830186614119565b614e1a6080830185614119565b614e2760a0830184614119565b979650505050505050565b5f604082019050614e455f8301856142df565b614e5260208301846142df565b9392505050565b5f606082019050614e6c5f8301866142df565b614e796020830185614119565b614e866040830184614119565b949350505050565b5f819050919050565b5f614eb1614eac614ea784614e8e565b614d3e565b614255565b9050919050565b614ec181614e97565b82525050565b5f604082019050614eda5f830185614eb8565b614ee76020830184614119565b9392505050565b5f604082019050614f015f8301856142df565b614f0e6020830184614119565b9392505050565b5f604082019050614f285f8301856142df565b614f3560208301846141ef565b9392505050565b5f60a082019050614f4f5f8301886141ef565b614f5c60208301876141ef565b614f6960408301866141ef565b614f766060830185614119565b614f8360808301846142df565b9695505050505050565b7f4e487b71000000000000000000000000000000000000000000000000000000005f52601260045260245ffd5b5f604082019050614fcd5f830185614119565b614fda6020830184614119565b9392505050565b5f819050919050565b5f615004614fff614ffa84614fe1565b614d3e565b614255565b9050919050565b61501481614fea565b82525050565b5f60408201905061502d5f83018561500b565b61503a6020830184614119565b9392505050565b5f819050815f5260205f209050919050565b5f6020601f8301049050919050565b5f82821b905092915050565b5f6008830261509d7fffffffffffffffffffffffffffffffffffffffffffffffffffffffffffffffff82615062565b6150a78683615062565b95508019841693508086168417925050509392505050565b5f6150d96150d46150cf846140a8565b614d3e565b6140a8565b9050919050565b5f819050919050565b6150f2836150bf565b6151066150fe826150e0565b84845461506e565b825550505050565b5f90565b61511a61510e565b6151258184846150e9565b505050565b5b818110156151485761513d5f82615112565b60018101905061512b565b5050565b601f82111561518d5761515e81615041565b61516784615053565b81016020851015615176578190505b61518a61518285615053565b83018261512a565b50505b505050565b5f82821c905092915050565b5f6151ad5f1984600802615192565b1980831691505092915050565b5f6151c5838361519e565b9150826002028217905092915050565b6151de82613fa4565b67ffffffffffffffff8111156151f7576151f6614b3b565b5b6152018254614906565b61520c82828561514c565b5f60209050601f83116001811461523d575f841561522b578287015190505b61523585826151ba565b86555061529c565b601f19841661524b86615041565b5f5b828110156152725784890151825560018201915060208501945060208101905061524d565b8683101561528f578489015161528b601f89168261519e565b8355505b6001600288020188555050505b505050505050565b5f6080820190506152b75f8301876141ef565b6152c46020830186614261565b6152d160408301856141ef565b6152de60608301846141ef565b95945050505050565b7f4e487b71000000000000000000000000000000000000000000000000000000005f52602160045260245ffd5b7f4e487b71000000000000000000000000000000000000000000000000000000005f52603260045260245ffd5b5f61534b826140a8565b9150615356836140a8565b92508261536657615365614f8d565b5b828204905092915050565b5f61537b8261485f565b91506153868361485f565b9250828203905079ffffffffffffffffffffffffffffffffffffffffffffffffffff8111156153b8576153b7614a40565b5b92915050565b5f819050919050565b5f6153e16153dc6153d7846153be565b614d3e565b614255565b9050919050565b6153f1816153c7565b82525050565b5f60408201905061540a5f8301856153e8565b6154176020830184614119565b9392505050565b5f6154288261485f565b91506154338361485f565b9250828201905079ffffffffffffffffffffffffffffffffffffffffffffffffffff81111561546557615464614a40565b5b9291505056fea26469706673582212201d8b65a2ec096dc421c353b6894af3daaacaaa44c36cb40fc07cf4f29b40d0c464736f6c63430008160033', \n     arguments: [\n     ]\n}).send({\n     from: web3.eth.accounts[0], \n     gas: '4700000'\n   }, function (e, contract){\n    console.log(e, contract);\n    if (typeof contract.address !== 'undefined') {\n         console.log('Contract mined! address: ' + contract.address + ' transactionHash: ' + contract.transactionHash);\n    }\n })",
	"functionHashes": {
		"4bf5d7e9": "CLOCK_MODE()",
		"a217fddf": "DEFAULT_ADMIN_ROLE()",
		"3644e515": "DOMAIN_SEPARATOR()",
		"d5391393": "MINTER_ROLE()",
		"e63ab1e9": "PAUSER_ROLE()",
		"dd62ed3e": "allowance(address,address)",
		"095ea7b3": "approve(address,uint256)",
		"70a08231": "balanceOf(address)",
		"42966c68": "burn(uint256)",
		"79cc6790": "burnFrom(address,uint256)",
		"f1127ed8": "checkpoints(address,uint32)",
		"91ddadf4": "clock()",
		"313ce567": "decimals()",
		"5c19a95c": "delegate(address)",
		"c3cda520": "delegateBySig(address,uint256,uint256,uint8,bytes32,bytes32)",
		"587cde1e": "delegates(address)",
		"84b0196e": "eip712Domain()",
		"d9d98ce4": "flashFee(address,uint256)",
		"5cffe9de": "flashLoan(address,address,uint256,bytes)",
		"8e539e8c": "getPastTotalSupply(uint256)",
		"3a46b1a8": "getPastVotes(address,uint256)",
		"248a9ca3": "getRoleAdmin(bytes32)",
		"9ab24eb0": "getVotes(address)",
		"2f2ff15d": "grantRole(bytes32,address)",
		"91d14854": "hasRole(bytes32,address)",
		"c0c53b8b": "initialize(address,address,address)",
		"613255ab": "maxFlashLoan(address)",
		"40c10f19": "mint(address,uint256)",
		"06fdde03": "name()",
		"7ecebe00": "nonces(address)",
		"6fcfff45": "numCheckpoints(address)",
		"8456cb59": "pause()",
		"5c975abb": "paused()",
		"d505accf": "permit(address,address,uint256,uint256,uint8,bytes32,bytes32)",
		"36568abe": "renounceRole(bytes32,address)",
		"d547741f": "revokeRole(bytes32,address)",
		"01ffc9a7": "supportsInterface(bytes4)",
		"95d89b41": "symbol()",
		"18160ddd": "totalSupply()",
		"a9059cbb": "transfer(address,uint256)",
		"23b872dd": "transferFrom(address,address,uint256)",
		"3f4ba83a": "unpause()"
	},
	"gasEstimates": {
		"Creation": {
			"codeDepositCost": "4333000",
			"executionCost": "infinite",
			"totalCost": "infinite"
		},
		"External": {
			"CLOCK_MODE()": "infinite",
			"DEFAULT_ADMIN_ROLE()": "375",
			"DOMAIN_SEPARATOR()": "infinite",
			"MINTER_ROLE()": "369",
			"PAUSER_ROLE()": "457",
			"allowance(address,address)": "infinite",
			"approve(address,uint256)": "infinite",
			"balanceOf(address)": "2927",
			"burn(uint256)": "infinite",
			"burnFrom(address,uint256)": "infinite",
			"checkpoints(address,uint32)": "infinite",
			"clock()": "723",
			"decimals()": "428",
			"delegate(address)": "infinite",
			"delegateBySig(address,uint256,uint256,uint8,bytes32,bytes32)": "infinite",
			"delegates(address)": "infinite",
			"eip712Domain()": "infinite",
			"flashFee(address,uint256)": "infinite",
			"flashLoan(address,address,uint256,bytes)": "infinite",
			"getPastTotalSupply(uint256)": "infinite",
			"getPastVotes(address,uint256)": "infinite",
			"getRoleAdmin(bytes32)": "infinite",
			"getVotes(address)": "infinite",
			"grantRole(bytes32,address)": "infinite",
			"hasRole(bytes32,address)": "3241",
			"initialize(address,address,address)": "infinite",
			"maxFlashLoan(address)": "infinite",
			"mint(address,uint256)": "infinite",
			"name()": "infinite",
			"nonces(address)": "3055",
			"numCheckpoints(address)": "3391",
			"pause()": "infinite",
			"paused()": "2614",
			"permit(address,address,uint256,uint256,uint8,bytes32,bytes32)": "infinite",
			"renounceRole(bytes32,address)": "infinite",
			"revokeRole(bytes32,address)": "infinite",
			"supportsInterface(bytes4)": "764",
			"symbol()": "infinite",
			"totalSupply()": "2598",
			"transfer(address,uint256)": "infinite",
			"transferFrom(address,address,uint256)": "infinite",
			"unpause()": "infinite"
		},
		"Internal": {
			"_update(address,address,uint256)": "infinite"
		}
	},
	"devdoc": {
		"custom:security-contact": "zelena130293@gmail.com",
		"errors": {
			"AccessControlBadConfirmation()": [
				{
					"details": "The caller of a function is not the expected one. NOTE: Don't confuse with {AccessControlUnauthorizedAccount}."
				}
			],
			"AccessControlUnauthorizedAccount(address,bytes32)": [
				{
					"details": "The `account` is missing a role."
				}
			],
			"CheckpointUnorderedInsertion()": [
				{
					"details": "A value was attempted to be inserted on a past checkpoint."
				}
			],
			"ECDSAInvalidSignature()": [
				{
					"details": "The signature derives the `address(0)`."
				}
			],
			"ECDSAInvalidSignatureLength(uint256)": [
				{
					"details": "The signature has an invalid length."
				}
			],
			"ECDSAInvalidSignatureS(bytes32)": [
				{
					"details": "The signature has an S value that is in the upper half order."
				}
			],
			"ERC20ExceededSafeSupply(uint256,uint256)": [
				{
					"details": "Total supply cap has been exceeded, introducing a risk of votes overflowing."
				}
			],
			"ERC20InsufficientAllowance(address,uint256,uint256)": [
				{
					"details": "Indicates a failure with the `spender`s `allowance`. Used in transfers.",
					"params": {
						"allowance": "Amount of tokens a `spender` is allowed to operate with.",
						"needed": "Minimum amount required to perform a transfer.",
						"spender": "Address that may be allowed to operate on tokens without being their owner."
					}
				}
			],
			"ERC20InsufficientBalance(address,uint256,uint256)": [
				{
					"details": "Indicates an error related to the current `balance` of a `sender`. Used in transfers.",
					"params": {
						"balance": "Current balance for the interacting account.",
						"needed": "Minimum amount required to perform a transfer.",
						"sender": "Address whose tokens are being transferred."
					}
				}
			],
			"ERC20InvalidApprover(address)": [
				{
					"details": "Indicates a failure with the `approver` of a token to be approved. Used in approvals.",
					"params": {
						"approver": "Address initiating an approval operation."
					}
				}
			],
			"ERC20InvalidReceiver(address)": [
				{
					"details": "Indicates a failure with the token `receiver`. Used in transfers.",
					"params": {
						"receiver": "Address to which tokens are being transferred."
					}
				}
			],
			"ERC20InvalidSender(address)": [
				{
					"details": "Indicates a failure with the token `sender`. Used in transfers.",
					"params": {
						"sender": "Address whose tokens are being transferred."
					}
				}
			],
			"ERC20InvalidSpender(address)": [
				{
					"details": "Indicates a failure with the `spender` to be approved. Used in approvals.",
					"params": {
						"spender": "Address that may be allowed to operate on tokens without being their owner."
					}
				}
			],
			"ERC2612ExpiredSignature(uint256)": [
				{
					"details": "Permit deadline has expired."
				}
			],
			"ERC2612InvalidSigner(address,address)": [
				{
					"details": "Mismatched signature."
				}
			],
			"ERC3156ExceededMaxLoan(uint256)": [
				{
					"details": "The requested loan exceeds the max loan value for `token`."
				}
			],
			"ERC3156InvalidReceiver(address)": [
				{
					"details": "The receiver of a flashloan is not a valid {onFlashLoan} implementer."
				}
			],
			"ERC3156UnsupportedToken(address)": [
				{
					"details": "The loan token is not valid."
				}
			],
			"ERC5805FutureLookup(uint256,uint48)": [
				{
					"details": "Lookup to future votes is not available."
				}
			],
			"ERC6372InconsistentClock()": [
				{
					"details": "The clock was incorrectly modified."
				}
			],
			"EnforcedPause()": [
				{
					"details": "The operation failed because the contract is paused."
				}
			],
			"ExpectedPause()": [
				{
					"details": "The operation failed because the contract is not paused."
				}
			],
			"InvalidAccountNonce(address,uint256)": [
				{
					"details": "The nonce used for an `account` is not the expected current nonce."
				}
			],
			"InvalidInitialization()": [
				{
					"details": "The contract is already initialized."
				}
			],
			"NotInitializing()": [
				{
					"details": "The contract is not initializing."
				}
			],
			"SafeCastOverflowedUintDowncast(uint8,uint256)": [
				{
					"details": "Value doesn't fit in an uint of `bits` size."
				}
			],
			"VotesExpiredSignature(uint256)": [
				{
					"details": "The signature used has expired."
				}
			]
		},
		"events": {
			"Approval(address,address,uint256)": {
				"details": "Emitted when the allowance of a `spender` for an `owner` is set by a call to {approve}. `value` is the new allowance."
			},
			"DelegateChanged(address,address,address)": {
				"details": "Emitted when an account changes their delegate."
			},
			"DelegateVotesChanged(address,uint256,uint256)": {
				"details": "Emitted when a token transfer or delegate change results in changes to a delegate's number of voting units."
			},
			"EIP712DomainChanged()": {
				"details": "MAY be emitted to signal that the domain could have changed."
			},
			"Initialized(uint64)": {
				"details": "Triggered when the contract has been initialized or reinitialized."
			},
			"Paused(address)": {
				"details": "Emitted when the pause is triggered by `account`."
			},
			"RoleAdminChanged(bytes32,bytes32,bytes32)": {
				"details": "Emitted when `newAdminRole` is set as ``role``'s admin role, replacing `previousAdminRole` `DEFAULT_ADMIN_ROLE` is the starting admin for all roles, despite {RoleAdminChanged} not being emitted signaling this."
			},
			"RoleGranted(bytes32,address,address)": {
				"details": "Emitted when `account` is granted `role`. `sender` is the account that originated the contract call, an admin role bearer except when using {AccessControl-_setupRole}."
			},
			"RoleRevoked(bytes32,address,address)": {
				"details": "Emitted when `account` is revoked `role`. `sender` is the account that originated the contract call:   - if using `revokeRole`, it is the admin role bearer   - if using `renounceRole`, it is the role bearer (i.e. `account`)"
			},
			"Transfer(address,address,uint256)": {
				"details": "Emitted when `value` tokens are moved from one account (`from`) to another (`to`). Note that `value` may be zero."
			},
			"Unpaused(address)": {
				"details": "Emitted when the pause is lifted by `account`."
			}
		},
		"kind": "dev",
		"methods": {
			"CLOCK_MODE()": {
				"details": "Machine-readable description of the clock as specified in EIP-6372."
			},
			"DOMAIN_SEPARATOR()": {
				"details": "Returns the domain separator used in the encoding of the signature for {permit}, as defined by {EIP712}."
			},
			"allowance(address,address)": {
				"details": "See {IERC20-allowance}."
			},
			"approve(address,uint256)": {
				"details": "See {IERC20-approve}. NOTE: If `value` is the maximum `uint256`, the allowance is not updated on `transferFrom`. This is semantically equivalent to an infinite approval. Requirements: - `spender` cannot be the zero address."
			},
			"balanceOf(address)": {
				"details": "See {IERC20-balanceOf}."
			},
			"burn(uint256)": {
				"details": "Destroys a `value` amount of tokens from the caller. See {ERC20-_burn}."
			},
			"burnFrom(address,uint256)": {
				"details": "Destroys a `value` amount of tokens from `account`, deducting from the caller's allowance. See {ERC20-_burn} and {ERC20-allowance}. Requirements: - the caller must have allowance for ``accounts``'s tokens of at least `value`."
			},
			"checkpoints(address,uint32)": {
				"details": "Get the `pos`-th checkpoint for `account`."
			},
			"clock()": {
				"details": "Clock used for flagging checkpoints. Can be overridden to implement timestamp based checkpoints (and voting), in which case {CLOCK_MODE} should be overridden as well to match."
			},
			"constructor": {
				"custom:oz-upgrades-unsafe-allow": "constructor"
			},
			"decimals()": {
				"details": "Returns the number of decimals used to get its user representation. For example, if `decimals` equals `2`, a balance of `505` tokens should be displayed to a user as `5.05` (`505 / 10 ** 2`). Tokens usually opt for a value of 18, imitating the relationship between Ether and Wei. This is the default value returned by this function, unless it's overridden. NOTE: This information is only used for _display_ purposes: it in no way affects any of the arithmetic of the contract, including {IERC20-balanceOf} and {IERC20-transfer}."
			},
			"delegate(address)": {
				"details": "Delegates votes from the sender to `delegatee`."
			},
			"delegateBySig(address,uint256,uint256,uint8,bytes32,bytes32)": {
				"details": "Delegates votes from signer to `delegatee`."
			},
			"delegates(address)": {
				"details": "Returns the delegate that `account` has chosen."
			},
			"eip712Domain()": {
				"details": "See {IERC-5267}."
			},
			"flashFee(address,uint256)": {
				"details": "Returns the fee applied when doing flash loans. This function calls the {_flashFee} function which returns the fee applied when doing flash loans.",
				"params": {
					"token": "The token to be flash loaned.",
					"value": "The amount of tokens to be loaned."
				},
				"returns": {
					"_0": "The fees applied to the corresponding flash loan."
				}
			},
			"flashLoan(address,address,uint256,bytes)": {
				"details": "Performs a flash loan. New tokens are minted and sent to the `receiver`, who is required to implement the {IERC3156FlashBorrower} interface. By the end of the flash loan, the receiver is expected to own value + fee tokens and have them approved back to the token contract itself so they can be burned.",
				"params": {
					"data": "An arbitrary datafield that is passed to the receiver.",
					"receiver": "The receiver of the flash loan. Should implement the {IERC3156FlashBorrower-onFlashLoan} interface.",
					"token": "The token to be flash loaned. Only `address(this)` is supported.",
					"value": "The amount of tokens to be loaned."
				},
				"returns": {
					"_0": "`true` if the flash loan was successful."
				}
			},
			"getPastTotalSupply(uint256)": {
				"details": "Returns the total supply of votes available at a specific moment in the past. If the `clock()` is configured to use block numbers, this will return the value at the end of the corresponding block. NOTE: This value is the sum of all available votes, which is not necessarily the sum of all delegated votes. Votes that have not been delegated are still part of total supply, even though they would not participate in a vote. Requirements: - `timepoint` must be in the past. If operating using block numbers, the block must be already mined."
			},
			"getPastVotes(address,uint256)": {
				"details": "Returns the amount of votes that `account` had at a specific moment in the past. If the `clock()` is configured to use block numbers, this will return the value at the end of the corresponding block. Requirements: - `timepoint` must be in the past. If operating using block numbers, the block must be already mined."
			},
			"getRoleAdmin(bytes32)": {
				"details": "Returns the admin role that controls `role`. See {grantRole} and {revokeRole}. To change a role's admin, use {_setRoleAdmin}."
			},
			"getVotes(address)": {
				"details": "Returns the current amount of votes that `account` has."
			},
			"grantRole(bytes32,address)": {
				"details": "Grants `role` to `account`. If `account` had not been already granted `role`, emits a {RoleGranted} event. Requirements: - the caller must have ``role``'s admin role. May emit a {RoleGranted} event."
			},
			"hasRole(bytes32,address)": {
				"details": "Returns `true` if `account` has been granted `role`."
			},
			"maxFlashLoan(address)": {
				"details": "Returns the maximum amount of tokens available for loan.",
				"params": {
					"token": "The address of the token that is requested."
				},
				"returns": {
					"_0": "The amount of token that can be loaned. NOTE: This function does not consider any form of supply cap, so in case it's used in a token with a cap like {ERC20Capped}, make sure to override this function to integrate the cap instead of `type(uint256).max`."
				}
			},
			"name()": {
				"details": "Returns the name of the token."
			},
			"numCheckpoints(address)": {
				"details": "Get number of checkpoints for `account`."
			},
			"paused()": {
				"details": "Returns true if the contract is paused, and false otherwise."
			},
			"permit(address,address,uint256,uint256,uint8,bytes32,bytes32)": {
				"details": "Sets `value` as the allowance of `spender` over ``owner``'s tokens, given ``owner``'s signed approval. IMPORTANT: The same issues {IERC20-approve} has related to transaction ordering also apply here. Emits an {Approval} event. Requirements: - `spender` cannot be the zero address. - `deadline` must be a timestamp in the future. - `v`, `r` and `s` must be a valid `secp256k1` signature from `owner` over the EIP712-formatted function arguments. - the signature must use ``owner``'s current nonce (see {nonces}). For more information on the signature format, see the https://eips.ethereum.org/EIPS/eip-2612#specification[relevant EIP section]. CAUTION: See Security Considerations above."
			},
			"renounceRole(bytes32,address)": {
				"details": "Revokes `role` from the calling account. Roles are often managed via {grantRole} and {revokeRole}: this function's purpose is to provide a mechanism for accounts to lose their privileges if they are compromised (such as when a trusted device is misplaced). If the calling account had been revoked `role`, emits a {RoleRevoked} event. Requirements: - the caller must be `callerConfirmation`. May emit a {RoleRevoked} event."
			},
			"revokeRole(bytes32,address)": {
				"details": "Revokes `role` from `account`. If `account` had been granted `role`, emits a {RoleRevoked} event. Requirements: - the caller must have ``role``'s admin role. May emit a {RoleRevoked} event."
			},
			"supportsInterface(bytes4)": {
				"details": "See {IERC165-supportsInterface}."
			},
			"symbol()": {
				"details": "Returns the symbol of the token, usually a shorter version of the name."
			},
			"totalSupply()": {
				"details": "See {IERC20-totalSupply}."
			},
			"transfer(address,uint256)": {
				"details": "See {IERC20-transfer}. Requirements: - `to` cannot be the zero address. - the caller must have a balance of at least `value`."
			},
			"transferFrom(address,address,uint256)": {
				"details": "See {IERC20-transferFrom}. Emits an {Approval} event indicating the updated allowance. This is not required by the EIP. See the note at the beginning of {ERC20}. NOTE: Does not update the allowance if the current allowance is the maximum `uint256`. Requirements: - `from` and `to` cannot be the zero address. - `from` must have a balance of at least `value`. - the caller must have allowance for ``from``'s tokens of at least `value`."
			}
		},
		"version": 1
	},
	"userdoc": {
		"kind": "user",
		"methods": {},
		"version": 1
	},
	"Runtime Bytecode": {
		"immutableReferences": {},
		"linkReferences": {},
		"object": "608060405234801561000f575f80fd5b506004361061025c575f3560e01c806370a0823111610144578063a217fddf116100c1578063d539139311610085578063d539139314610772578063d547741f14610790578063d9d98ce4146107ac578063dd62ed3e146107dc578063e63ab1e91461080c578063f1127ed81461082a5761025c565b8063a217fddf146106d0578063a9059cbb146106ee578063c0c53b8b1461071e578063c3cda5201461073a578063d505accf146107565761025c565b80638e539e8c116101085780638e539e8c1461060457806391d148541461063457806391ddadf41461066457806395d89b41146106825780639ab24eb0146106a05761025c565b806370a082311461055a57806379cc67901461058a5780637ecebe00146105a65780638456cb59146105d657806384b0196e146105e05761025c565b80633a46b1a8116101dd578063587cde1e116101a1578063587cde1e146104605780635c19a95c146104905780635c975abb146104ac5780635cffe9de146104ca578063613255ab146104fa5780636fcfff451461052a5761025c565b80633a46b1a8146103d05780633f4ba83a1461040057806340c10f191461040a57806342966c68146104265780634bf5d7e9146104425761025c565b8063248a9ca311610224578063248a9ca31461032c5780632f2ff15d1461035c578063313ce567146103785780633644e5151461039657806336568abe146103b45761025c565b806301ffc9a71461026057806306fdde0314610290578063095ea7b3146102ae57806318160ddd146102de57806323b872dd146102fc575b5f80fd5b61027a60048036038101906102759190613f46565b61085a565b6040516102879190613f8b565b60405180910390f35b6102986108d3565b6040516102a5919061402e565b60405180910390f35b6102c860048036038101906102c391906140db565b610971565b6040516102d59190613f8b565b60405180910390f35b6102e6610993565b6040516102f39190614128565b60405180910390f35b61031660048036038101906103119190614141565b6109aa565b6040516103239190613f8b565b60405180910390f35b610346600480360381019061034191906141c4565b6109d8565b60405161035391906141fe565b60405180910390f35b61037660048036038101906103719190614217565b610a02565b005b610380610a24565b60405161038d9190614270565b60405180910390f35b61039e610a2c565b6040516103ab91906141fe565b60405180910390f35b6103ce60048036038101906103c99190614217565b610a3a565b005b6103ea60048036038101906103e591906140db565b610ab5565b6040516103f79190614128565b60405180910390f35b610408610b99565b005b610424600480360381019061041f91906140db565b610bce565b005b610440600480360381019061043b9190614289565b610c07565b005b61044a610c1b565b604051610457919061402e565b60405180910390f35b61047a600480360381019061047591906142b4565b610caf565b60405161048791906142ee565b60405180910390f35b6104aa60048036038101906104a591906142b4565b610d21565b005b6104b4610d3a565b6040516104c19190613f8b565b60405180910390f35b6104e460048036038101906104df91906143a3565b610d5c565b6040516104f19190613f8b565b60405180910390f35b610514600480360381019061050f91906142b4565b610f51565b6040516105219190614128565b60405180910390f35b610544600480360381019061053f91906142b4565b610fc6565b6040516105519190614445565b60405180910390f35b610574600480360381019061056f91906142b4565b610fd7565b6040516105819190614128565b60405180910390f35b6105a4600480360381019061059f91906140db565b61102a565b005b6105c060048036038101906105bb91906142b4565b61104a565b6040516105cd9190614128565b60405180910390f35b6105de61105b565b005b6105e8611090565b6040516105fb979695949392919061454f565b60405180910390f35b61061e60048036038101906106199190614289565b611199565b60405161062b9190614128565b60405180910390f35b61064e60048036038101906106499190614217565b611241565b60405161065b9190613f8b565b60405180910390f35b61066c6112b2565b60405161067991906145f1565b60405180910390f35b61068a6112c0565b604051610697919061402e565b60405180910390f35b6106ba60048036038101906106b591906142b4565b61135e565b6040516106c79190614128565b60405180910390f35b6106d86113d5565b6040516106e591906141fe565b60405180910390f35b610708600480360381019061070391906140db565b6113db565b6040516107159190613f8b565b60405180910390f35b6107386004803603810190610733919061460a565b6113fd565b005b610754600480360381019061074f9190614684565b6116e0565b005b610770600480360381019061076b919061470d565b6117a5565b005b61077a6118ea565b60405161078791906141fe565b60405180910390f35b6107aa60048036038101906107a59190614217565b61190e565b005b6107c660048036038101906107c191906140db565b611930565b6040516107d39190614128565b60405180910390f35b6107f660048036038101906107f191906147aa565b6119b3565b6040516108039190614128565b60405180910390f35b610814611a43565b60405161082191906141fe565b60405180910390f35b610844600480360381019061083f9190614812565b611a67565b60405161085191906148c0565b60405180910390f35b5f7f7965db0b000000000000000000000000000000000000000000000000000000007bffffffffffffffffffffffffffffffffffffffffffffffffffffffff1916827bffffffffffffffffffffffffffffffffffffffffffffffffffffffff191614806108cc57506108cb82611a81565b5b9050919050565b60605f6108de611aea565b90508060030180546108ef90614906565b80601f016020809104026020016040519081016040528092919081815260200182805461091b90614906565b80156109665780601f1061093d57610100808354040283529160200191610966565b820191905f5260205f20905b81548152906001019060200180831161094957829003601f168201915b505050505091505090565b5f8061097b611b11565b9050610988818585611b18565b600191505092915050565b5f8061099d611aea565b9050806002015491505090565b5f806109b4611b11565b90506109c1858285611b2a565b6109cc858585611bbc565b60019150509392505050565b5f806109e2611cac565b9050805f015f8481526020019081526020015f2060010154915050919050565b610a0b826109d8565b610a1481611cd3565b610a1e8383611ce7565b50505050565b5f6012905090565b5f610a35611ddf565b905090565b610a42611b11565b73ffffffffffffffffffffffffffffffffffffffff168173ffffffffffffffffffffffffffffffffffffffff1614610aa6576040517f6697b23200000000000000000000000000000000000000000000000000000000815260040160405180910390fd5b610ab08282611ded565b505050565b5f80610abf611ee5565b90505f610aca6112b2565b90508065ffffffffffff168410610b1a5783816040517fecd3f81e000000000000000000000000000000000000000000000000000000008152600401610b11929190614936565b60405180910390fd5b610b73610b2685611f0c565b836001015f8873ffffffffffffffffffffffffffffffffffffffff1673ffffffffffffffffffffffffffffffffffffffff1681526020019081526020015f20611f6590919063ffffffff16565b79ffffffffffffffffffffffffffffffffffffffffffffffffffff169250505092915050565b7f65d7a28e3265b37a6474929f336521b332c1681b933f6cb9f3376673440d862a610bc381611cd3565b610bcb612052565b50565b7f9f2df0fed2c77648de5860a4cc508cd0818c85b8b8a1ab4ceeef8d981c8956a6610bf881611cd3565b610c0283836120c0565b505050565b610c18610c12611b11565b8261213f565b50565b6060610c256121be565b65ffffffffffff16610c356112b2565b65ffffffffffff1614610c74576040517f6ff0714000000000000000000000000000000000000000000000000000000000815260040160405180910390fd5b6040518060400160405280601d81526020017f6d6f64653d626c6f636b6e756d6265722666726f6d3d64656661756c74000000815250905090565b5f80610cb9611ee5565b9050805f015f8473ffffffffffffffffffffffffffffffffffffffff1673ffffffffffffffffffffffffffffffffffffffff1681526020019081526020015f205f9054906101000a900473ffffffffffffffffffffffffffffffffffffffff16915050919050565b5f610d2a611b11565b9050610d3681836121cd565b5050565b5f80610d446122ea565b9050805f015f9054906101000a900460ff1691505090565b5f80610d6786610f51565b905080851115610dae57806040517ffd9a7609000000000000000000000000000000000000000000000000000000008152600401610da59190614128565b60405180910390fd5b5f610db98787611930565b9050610dc588876120c0565b7f439148f0bbc682ca079e46d6e2c2f0c1e3b820f1a291b069d8882abf8cf18dd98873ffffffffffffffffffffffffffffffffffffffff166323e30c8b610e0a611b11565b8a8a868b8b6040518763ffffffff1660e01b8152600401610e30969594939291906149a7565b6020604051808303815f875af1158015610e4c573d5f803e3d5ffd5b505050506040513d601f19601f82011682018060405250810190610e709190614a15565b14610eb257876040517f678c5b00000000000000000000000000000000000000000000000000000000008152600401610ea991906142ee565b60405180910390fd5b5f610ebb612311565b9050610ed38930848a610ece9190614a6d565b611b2a565b5f821480610f0c57505f73ffffffffffffffffffffffffffffffffffffffff168173ffffffffffffffffffffffffffffffffffffffff16145b15610f2b57610f26898389610f219190614a6d565b61213f565b610f41565b610f35898861213f565b610f40898284611bbc565b5b6001935050505095945050505050565b5f3073ffffffffffffffffffffffffffffffffffffffff168273ffffffffffffffffffffffffffffffffffffffff1614610f8b575f610fbf565b610f93610993565b7fffffffffffffffffffffffffffffffffffffffffffffffffffffffffffffffff610fbe9190614aa0565b5b9050919050565b5f610fd082612315565b9050919050565b5f80610fe1611aea565b9050805f015f8473ffffffffffffffffffffffffffffffffffffffff1673ffffffffffffffffffffffffffffffffffffffff1681526020019081526020015f2054915050919050565b61103c82611036611b11565b83611b2a565b611046828261213f565b5050565b5f61105482612378565b9050919050565b7f65d7a28e3265b37a6474929f336521b332c1681b933f6cb9f3376673440d862a61108581611cd3565b61108d612389565b50565b5f6060805f805f60605f6110a26123f8565b90505f801b815f01541480156110bd57505f801b8160010154145b6110fc576040517f08c379a00000000000000000000000000000000000000000000000000000000081526004016110f390614b1d565b60405180910390fd5b61110461241f565b61110c6124bd565b46305f801b5f67ffffffffffffffff81111561112b5761112a614b3b565b5b6040519080825280602002602001820160405280156111595781602001602082028036833780820191505090505b507f0f0000000000000000000000000000000000000000000000000000000000000095949392919097509750975097509750975097505090919293949596565b5f806111a3611ee5565b90505f6111ae6112b2565b90508065ffffffffffff1684106111fe5783816040517fecd3f81e0000000000000000000000000000000000000000000000000000000081526004016111f5929190614936565b60405180910390fd5b61121c61120a85611f0c565b83600201611f6590919063ffffffff16565b79ffffffffffffffffffffffffffffffffffffffffffffffffffff1692505050919050565b5f8061124b611cac565b9050805f015f8581526020019081526020015f205f015f8473ffffffffffffffffffffffffffffffffffffffff1673ffffffffffffffffffffffffffffffffffffffff1681526020019081526020015f205f9054906101000a900460ff1691505092915050565b5f6112bb6121be565b905090565b60605f6112cb611aea565b90508060040180546112dc90614906565b80601f016020809104026020016040519081016040528092919081815260200182805461130890614906565b80156113535780601f1061132a57610100808354040283529160200191611353565b820191905f5260205f20905b81548152906001019060200180831161133657829003601f168201915b505050505091505090565b5f80611368611ee5565b90506113b1816001015f8573ffffffffffffffffffffffffffffffffffffffff1673ffffffffffffffffffffffffffffffffffffffff1681526020019081526020015f2061255b565b79ffffffffffffffffffffffffffffffffffffffffffffffffffff16915050919050565b5f801b81565b5f806113e5611b11565b90506113f2818585611bbc565b600191505092915050565b5f6114066125bd565b90505f815f0160089054906101000a900460ff161590505f825f015f9054906101000a900467ffffffffffffffff1690505f808267ffffffffffffffff1614801561144e5750825b90505f60018367ffffffffffffffff1614801561148157505f3073ffffffffffffffffffffffffffffffffffffffff163b145b90508115801561148f575080155b156114c6576040517ff92ee8a900000000000000000000000000000000000000000000000000000000815260040160405180910390fd5b6001855f015f6101000a81548167ffffffffffffffff021916908367ffffffffffffffff1602179055508315611513576001855f0160086101000a81548160ff0219169083151502179055505b6115876040518060400160405280600381526020017f51414900000000000000000000000000000000000000000000000000000000008152506040518060400160405280600281526020017f41490000000000000000000000000000000000000000000000000000000000008152506125e4565b61158f6125fa565b611597612604565b61159f612616565b6115dd6040518060400160405280600381526020017f5141490000000000000000000000000000000000000000000000000000000000815250612620565b6115e561266a565b6115ed612674565b6115f95f801b89611ce7565b506116247f65d7a28e3265b37a6474929f336521b332c1681b933f6cb9f3376673440d862a88611ce7565b5061165133611631610a24565b600a61163d9190614c97565b6308f0d18061164c9190614ce1565b6120c0565b61167b7f9f2df0fed2c77648de5860a4cc508cd0818c85b8b8a1ab4ceeef8d981c8956a687611ce7565b5083156116d6575f855f0160086101000a81548160ff0219169083151502179055507fc7f505b2f371ae2175ee4913f4499e1f2633a7b5936321eed1cdaeb6115181d260016040516116cd9190614d77565b60405180910390a15b5050505050505050565b8342111561172557836040517f4683af0e00000000000000000000000000000000000000000000000000000000815260040161171c9190614128565b60405180910390fd5b5f61178661177e7fe48329057bfd03d55e49b547132e39cffd9c1820ad7b9d4c5307691425d15adf8989896040516020016117639493929190614d90565b6040516020818303038152906040528051906020012061267e565b858585612697565b905061179281876126c5565b61179c81886121cd565b50505050505050565b834211156117ea57836040517f627913020000000000000000000000000000000000000000000000000000000081526004016117e19190614128565b60405180910390fd5b5f7f6e71edae12b1b97f4d1f60370fef10105fa2faae0126114a169c64845d6126c98888886118188c61271c565b8960405160200161182e96959493929190614dd3565b6040516020818303038152906040528051906020012090505f6118508261267e565b90505f61185f82878787612697565b90508973ffffffffffffffffffffffffffffffffffffffff168173ffffffffffffffffffffffffffffffffffffffff16146118d357808a6040517f4b800e460000000000000000000000000000000000000000000000000000000081526004016118ca929190614e32565b60405180910390fd5b6118de8a8a8a611b18565b50505050505050505050565b7f9f2df0fed2c77648de5860a4cc508cd0818c85b8b8a1ab4ceeef8d981c8956a681565b611917826109d8565b61192081611cd3565b61192a8383611ded565b50505050565b5f3073ffffffffffffffffffffffffffffffffffffffff168373ffffffffffffffffffffffffffffffffffffffff16146119a157826040517fb5a7db9200000000000000000000000000000000000000000000000000000000815260040161199891906142ee565b60405180910390fd5b6119ab838361277c565b905092915050565b5f806119bd611aea565b9050806001015f8573ffffffffffffffffffffffffffffffffffffffff1673ffffffffffffffffffffffffffffffffffffffff1681526020019081526020015f205f8473ffffffffffffffffffffffffffffffffffffffff1673ffffffffffffffffffffffffffffffffffffffff1681526020019081526020015f205491505092915050565b7f65d7a28e3265b37a6474929f336521b332c1681b933f6cb9f3376673440d862a81565b611a6f613ead565b611a798383612783565b905092915050565b5f7f01ffc9a7000000000000000000000000000000000000000000000000000000007bffffffffffffffffffffffffffffffffffffffffffffffffffffffff1916827bffffffffffffffffffffffffffffffffffffffffffffffffffffffff1916149050919050565b5f7f52c63247e1f47db19d5ce0460030c497f067ca4cebf71ba98eeadabe20bace00905090565b5f33905090565b611b2583838360016127f0565b505050565b5f611b3584846119b3565b90507fffffffffffffffffffffffffffffffffffffffffffffffffffffffffffffffff8114611bb65781811015611ba7578281836040517ffb8f41b2000000000000000000000000000000000000000000000000000000008152600401611b9e93929190614e59565b60405180910390fd5b611bb584848484035f6127f0565b5b50505050565b5f73ffffffffffffffffffffffffffffffffffffffff168373ffffffffffffffffffffffffffffffffffffffff1603611c2c575f6040517f96c6fd1e000000000000000000000000000000000000000000000000000000008152600401611c2391906142ee565b60405180910390fd5b5f73ffffffffffffffffffffffffffffffffffffffff168273ffffffffffffffffffffffffffffffffffffffff1603611c9c575f6040517fec442f05000000000000000000000000000000000000000000000000000000008152600401611c9391906142ee565b60405180910390fd5b611ca78383836129cd565b505050565b5f7f02dd7bc7dec4dceedda775e58dd541e08a116c6c53815c0bd028192f7b626800905090565b611ce481611cdf611b11565b6129dd565b50565b5f80611cf1611cac565b9050611cfd8484611241565b611dd4576001815f015f8681526020019081526020015f205f015f8573ffffffffffffffffffffffffffffffffffffffff1673ffffffffffffffffffffffffffffffffffffffff1681526020019081526020015f205f6101000a81548160ff021916908315150217905550611d70611b11565b73ffffffffffffffffffffffffffffffffffffffff168373ffffffffffffffffffffffffffffffffffffffff16857f2f8788117e7eff1d82e926ec794901d17c78024a50270940304540a733656f0d60405160405180910390a46001915050611dd9565b5f9150505b92915050565b5f611de8612a2e565b905090565b5f80611df7611cac565b9050611e038484611241565b15611eda575f815f015f8681526020019081526020015f205f015f8573ffffffffffffffffffffffffffffffffffffffff1673ffffffffffffffffffffffffffffffffffffffff1681526020019081526020015f205f6101000a81548160ff021916908315150217905550611e76611b11565b73ffffffffffffffffffffffffffffffffffffffff168373ffffffffffffffffffffffffffffffffffffffff16857ff6391f5c32d9c69d2a47ea670b442974b53935d1edc7fd64eb21e047a839171b60405160405180910390a46001915050611edf565b5f9150505b92915050565b5f7fe8b26c30fad74198956032a3533d903385d56dd795af560196f9c78d4af40d00905090565b5f65ffffffffffff8016821115611f5d576030826040517f6dfcc650000000000000000000000000000000000000000000000000000000008152600401611f54929190614ec7565b60405180910390fd5b819050919050565b5f80835f018054905090505f808290506005831115611fe6575f611f8884612a91565b84611f939190614aa0565b9050611fa1875f0182612b87565b5f015f9054906101000a900465ffffffffffff1665ffffffffffff168665ffffffffffff161015611fd457809150611fe4565b600181611fe19190614a6d565b92505b505b5f611ff5875f01878585612b99565b90505f811461204457612016875f016001836120119190614aa0565b612b87565b5f0160069054906101000a900479ffffffffffffffffffffffffffffffffffffffffffffffffffff16612046565b5f5b94505050505092915050565b61205a612c0e565b5f6120636122ea565b90505f815f015f6101000a81548160ff0219169083151502179055507f5db9ee0a495bf2e6ff9c91a7834c1ba4fdd244a5e8aa4e537bd38aeae4b073aa6120a8611b11565b6040516120b591906142ee565b60405180910390a150565b5f73ffffffffffffffffffffffffffffffffffffffff168273ffffffffffffffffffffffffffffffffffffffff1603612130575f6040517fec442f0500000000000000000000000000000000000000000000000000000000815260040161212791906142ee565b60405180910390fd5b61213b5f83836129cd565b5050565b5f73ffffffffffffffffffffffffffffffffffffffff168273ffffffffffffffffffffffffffffffffffffffff16036121af575f6040517f96c6fd1e0000000000000000000000000000000000000000000000000000000081526004016121a691906142ee565b60405180910390fd5b6121ba825f836129cd565b5050565b5f6121c843611f0c565b905090565b5f6121d6611ee5565b90505f6121e284610caf565b905082825f015f8673ffffffffffffffffffffffffffffffffffffffff1673ffffffffffffffffffffffffffffffffffffffff1681526020019081526020015f205f6101000a81548173ffffffffffffffffffffffffffffffffffffffff021916908373ffffffffffffffffffffffffffffffffffffffff1602179055508273ffffffffffffffffffffffffffffffffffffffff168173ffffffffffffffffffffffffffffffffffffffff168573ffffffffffffffffffffffffffffffffffffffff167f3134e8a2e6d97e929a7e54011ea5485d7d196dd5f0ba4d4ef95803e8e3fc257f60405160405180910390a46122e481846122df87612c4e565b612c5f565b50505050565b5f7fcd5ed15c6e187e77e9aee88184c21f4f2182ab5827cb3b7e07fbedcd63f03300905090565b5f90565b5f8061231f611ee5565b905061237061236b826001015f8673ffffffffffffffffffffffffffffffffffffffff1673ffffffffffffffffffffffffffffffffffffffff1681526020019081526020015f20612edf565b612eee565b915050919050565b5f61238282612f45565b9050919050565b612391612f98565b5f61239a6122ea565b90506001815f015f6101000a81548160ff0219169083151502179055507f62e78cea01bee320cd4e420270b5ea74000d11b0c9f74754ebdbfc544b05a2586123e0611b11565b6040516123ed91906142ee565b60405180910390a150565b5f7fa16a46d94261c7517cc8ff89f61c0ce93598e3c849801011dee649a6a557d100905090565b60605f61242a6123f8565b905080600201805461243b90614906565b80601f016020809104026020016040519081016040528092919081815260200182805461246790614906565b80156124b25780601f10612489576101008083540402835291602001916124b2565b820191905f5260205f20905b81548152906001019060200180831161249557829003601f168201915b505050505091505090565b60605f6124c86123f8565b90508060030180546124d990614906565b80601f016020809104026020016040519081016040528092919081815260200182805461250590614906565b80156125505780601f1061252757610100808354040283529160200191612550565b820191905f5260205f20905b81548152906001019060200180831161253357829003601f168201915b505050505091505090565b5f80825f018054905090505f81146125b357612585835f016001836125809190614aa0565b612b87565b5f0160069054906101000a900479ffffffffffffffffffffffffffffffffffffffffffffffffffff166125b5565b5f5b915050919050565b5f7ff0c57e16840df040f15088dc2f81fe391c3923bec73e23a9662efc9c229c6a00905090565b6125ec612fd9565b6125f68282613019565b5050565b612602612fd9565b565b61260c612fd9565b612614613055565b565b61261e612fd9565b565b612628612fd9565b612667816040518060400160405280600181526020017f3100000000000000000000000000000000000000000000000000000000000000815250613085565b50565b612672612fd9565b565b61267c612fd9565b565b5f61269061268a611ddf565b836130d6565b9050919050565b5f805f806126a788888888613116565b9250925092506126b782826131fd565b829350505050949350505050565b5f6126cf8361271c565b90508082146127175782816040517f752d88c000000000000000000000000000000000000000000000000000000000815260040161270e929190614eee565b60405180910390fd5b505050565b5f8061272661335f565b9050805f015f8473ffffffffffffffffffffffffffffffffffffffff1673ffffffffffffffffffffffffffffffffffffffff1681526020019081526020015f205f81548092919060010191905055915050919050565b5f92915050565b61278b613ead565b5f612794611ee5565b90506127e783826001015f8773ffffffffffffffffffffffffffffffffffffffff1673ffffffffffffffffffffffffffffffffffffffff1681526020019081526020015f2061338690919063ffffffff16565b91505092915050565b5f6127f9611aea565b90505f73ffffffffffffffffffffffffffffffffffffffff168573ffffffffffffffffffffffffffffffffffffffff160361286b575f6040517fe602df0500000000000000000000000000000000000000000000000000000000815260040161286291906142ee565b60405180910390fd5b5f73ffffffffffffffffffffffffffffffffffffffff168473ffffffffffffffffffffffffffffffffffffffff16036128db575f6040517f94280d620000000000000000000000000000000000000000000000000000000081526004016128d291906142ee565b60405180910390fd5b82816001015f8773ffffffffffffffffffffffffffffffffffffffff1673ffffffffffffffffffffffffffffffffffffffff1681526020019081526020015f205f8673ffffffffffffffffffffffffffffffffffffffff1673ffffffffffffffffffffffffffffffffffffffff1681526020019081526020015f208190555081156129c6578373ffffffffffffffffffffffffffffffffffffffff168573ffffffffffffffffffffffffffffffffffffffff167f8c5be1e5ebec7d5bd14f71427d1e84f3dd0314c0f7b2291e5b200ac8c7c3b925856040516129bd9190614128565b60405180910390a35b5050505050565b6129d8838383613455565b505050565b6129e78282611241565b612a2a5780826040517fe2517d3f000000000000000000000000000000000000000000000000000000008152600401612a21929190614f15565b60405180910390fd5b5050565b5f7f8b73c3c69bb8fe3d512ecc4cf759cc79239f7b179b0ffacaa9a75d522b39400f612a58613503565b612a60613579565b4630604051602001612a76959493929190614f3c565b60405160208183030381529060405280519060200120905090565b5f808203612aa1575f9050612b82565b5f6001612aad846135f0565b901c6001901b90506001818481612ac757612ac6614f8d565b5b048201901c90506001818481612ae057612adf614f8d565b5b048201901c90506001818481612af957612af8614f8d565b5b048201901c90506001818481612b1257612b11614f8d565b5b048201901c90506001818481612b2b57612b2a614f8d565b5b048201901c90506001818481612b4457612b43614f8d565b5b048201901c90506001818481612b5d57612b5c614f8d565b5b048201901c9050612b7e81828581612b7857612b77614f8d565b5b046136c7565b9150505b919050565b5f825f528160205f2001905092915050565b5f5b81831015612c03575f612bae84846136df565b90508465ffffffffffff16612bc38783612b87565b5f015f9054906101000a900465ffffffffffff1665ffffffffffff161115612bed57809250612bfd565b600181612bfa9190614a6d565b93505b50612b9b565b819050949350505050565b612c16610d3a565b612c4c576040517f8dfc202b00000000000000000000000000000000000000000000000000000000815260040160405180910390fd5b565b5f612c5882610fd7565b9050919050565b5f612c68611ee5565b90508273ffffffffffffffffffffffffffffffffffffffff168473ffffffffffffffffffffffffffffffffffffffff1614158015612ca557505f82115b15612ed9575f73ffffffffffffffffffffffffffffffffffffffff168473ffffffffffffffffffffffffffffffffffffffff1614612dc1575f80612d32836001015f8873ffffffffffffffffffffffffffffffffffffffff1673ffffffffffffffffffffffffffffffffffffffff1681526020019081526020015f20613704612d2d87613719565b613786565b79ffffffffffffffffffffffffffffffffffffffffffffffffffff16915079ffffffffffffffffffffffffffffffffffffffffffffffffffff1691508573ffffffffffffffffffffffffffffffffffffffff167fdec2bacdd2f05b59de34da9b523dff8be42e5e38e818c82fdb0bae774387a7248383604051612db6929190614fba565b60405180910390a250505b5f73ffffffffffffffffffffffffffffffffffffffff168373ffffffffffffffffffffffffffffffffffffffff1614612ed8575f80612e49836001015f8773ffffffffffffffffffffffffffffffffffffffff1673ffffffffffffffffffffffffffffffffffffffff1681526020019081526020015f206137c5612e4487613719565b613786565b79ffffffffffffffffffffffffffffffffffffffffffffffffffff16915079ffffffffffffffffffffffffffffffffffffffffffffffffffff1691508473ffffffffffffffffffffffffffffffffffffffff167fdec2bacdd2f05b59de34da9b523dff8be42e5e38e818c82fdb0bae774387a7248383604051612ecd929190614fba565b60405180910390a250505b5b50505050565b5f815f01805490509050919050565b5f63ffffffff8016821115612f3d576020826040517f6dfcc650000000000000000000000000000000000000000000000000000000008152600401612f3492919061501a565b60405180910390fd5b819050919050565b5f80612f4f61335f565b9050805f015f8473ffffffffffffffffffffffffffffffffffffffff1673ffffffffffffffffffffffffffffffffffffffff1681526020019081526020015f2054915050919050565b612fa0610d3a565b15612fd7576040517fd93c066500000000000000000000000000000000000000000000000000000000815260040160405180910390fd5b565b612fe16137da565b613017576040517fd7e6bcf800000000000000000000000000000000000000000000000000000000815260040160405180910390fd5b565b613021612fd9565b5f61302a611aea565b90508281600301908161303d91906151d5565b508181600401908161304f91906151d5565b50505050565b61305d612fd9565b5f6130666122ea565b90505f815f015f6101000a81548160ff02191690831515021790555050565b61308d612fd9565b5f6130966123f8565b9050828160020190816130a991906151d5565b50818160030190816130bb91906151d5565b505f801b815f01819055505f801b8160010181905550505050565b5f6040517f190100000000000000000000000000000000000000000000000000000000000081528360028201528260228201526042812091505092915050565b5f805f7f7fffffffffffffffffffffffffffffff5d576e7357a4501ddfe92f46681b20a0845f1c1115613152575f6003859250925092506131f3565b5f6001888888886040515f815260200160405260405161317594939291906152a4565b6020604051602081039080840390855afa158015613195573d5f803e3d5ffd5b5050506020604051035190505f73ffffffffffffffffffffffffffffffffffffffff168173ffffffffffffffffffffffffffffffffffffffff16036131e6575f60015f801b935093509350506131f3565b805f805f1b935093509350505b9450945094915050565b5f60038111156132105761320f6152e7565b5b826003811115613223576132226152e7565b5b031561335b576001600381111561323d5761323c6152e7565b5b8260038111156132505761324f6152e7565b5b03613287576040517ff645eedf00000000000000000000000000000000000000000000000000000000815260040160405180910390fd5b6002600381111561329b5761329a6152e7565b5b8260038111156132ae576132ad6152e7565b5b036132f257805f1c6040517ffce698f70000000000000000000000000000000000000000000000000000000081526004016132e99190614128565b60405180910390fd5b600380811115613305576133046152e7565b5b826003811115613318576133176152e7565b5b0361335a57806040517fd78bce0c00000000000000000000000000000000000000000000000000000000815260040161335191906141fe565b60405180910390fd5b5b5050565b5f7f5ab42ced628888259c08ac98db1eb0cf702fc1501344311d8b100cd1bfe4bb00905090565b61338e613ead565b825f018263ffffffff16815481106133a9576133a8615314565b5b905f5260205f20016040518060400160405290815f82015f9054906101000a900465ffffffffffff1665ffffffffffff1665ffffffffffff1681526020015f820160069054906101000a900479ffffffffffffffffffffffffffffffffffffffffffffffffffff1679ffffffffffffffffffffffffffffffffffffffffffffffffffff1679ffffffffffffffffffffffffffffffffffffffffffffffffffff1681525050905092915050565b6134608383836137f8565b5f73ffffffffffffffffffffffffffffffffffffffff168373ffffffffffffffffffffffffffffffffffffffff16036134f3575f61349c610993565b90505f6134a7613810565b9050808211156134f05781816040517f1cb15d260000000000000000000000000000000000000000000000000000000081526004016134e7929190614fba565b60405180910390fd5b50505b6134fe838383613833565b505050565b5f8061350d6123f8565b90505f61351861241f565b90505f8151111561353457808051906020012092505050613576565b5f825f015490505f801b811461354f57809350505050613576565b7fc5d2460186f7233c927e7db2dcc703c0e500b653ca82273b7bfad8045d85a47093505050505b90565b5f806135836123f8565b90505f61358e6124bd565b90505f815111156135aa578080519060200120925050506135ed565b5f826001015490505f801b81146135c6578093505050506135ed565b7fc5d2460186f7233c927e7db2dcc703c0e500b653ca82273b7bfad8045d85a47093505050505b90565b5f805f90505f608084901c111561360f57608083901c92506080810190505b5f604084901c111561362957604083901c92506040810190505b5f602084901c111561364357602083901c92506020810190505b5f601084901c111561365d57601083901c92506010810190505b5f600884901c111561367757600883901c92506008810190505b5f600484901c111561369157600483901c92506004810190505b5f600284901c11156136ab57600283901c92506002810190505b5f600184901c11156136be576001810190505b80915050919050565b5f8183106136d557816136d7565b825b905092915050565b5f60028284186136ef9190615341565b8284166136fc9190614a6d565b905092915050565b5f81836137119190615371565b905092915050565b5f79ffffffffffffffffffffffffffffffffffffffffffffffffffff801682111561377e5760d0826040517f6dfcc6500000000000000000000000000000000000000000000000000000000081526004016137759291906153f7565b60405180910390fd5b819050919050565b5f806137b96137936112b2565b6137a961379f8861255b565b868863ffffffff16565b876138fb9092919063ffffffff16565b91509150935093915050565b5f81836137d2919061541e565b905092915050565b5f6137e36125bd565b5f0160089054906101000a900460ff16905090565b613800612f98565b61380b838383613916565b505050565b5f79ffffffffffffffffffffffffffffffffffffffffffffffffffff8016905090565b5f61383c611ee5565b90505f73ffffffffffffffffffffffffffffffffffffffff168473ffffffffffffffffffffffffffffffffffffffff160361388c57613889816002016137c561388485613719565b613786565b50505b5f73ffffffffffffffffffffffffffffffffffffffff168373ffffffffffffffffffffffffffffffffffffffff16036138da576138d7816002016137046138d285613719565b613786565b50505b6138f56138e685610caf565b6138ef85610caf565b84612c5f565b50505050565b5f8061390a855f018585613b45565b91509150935093915050565b5f61391f611aea565b90505f73ffffffffffffffffffffffffffffffffffffffff168473ffffffffffffffffffffffffffffffffffffffff16036139735781816002015f8282546139679190614a6d565b92505081905550613a45565b5f815f015f8673ffffffffffffffffffffffffffffffffffffffff1673ffffffffffffffffffffffffffffffffffffffff1681526020019081526020015f20549050828110156139fe578481846040517fe450d38c0000000000000000000000000000000000000000000000000000000081526004016139f593929190614e59565b60405180910390fd5b828103825f015f8773ffffffffffffffffffffffffffffffffffffffff1673ffffffffffffffffffffffffffffffffffffffff1681526020019081526020015f2081905550505b5f73ffffffffffffffffffffffffffffffffffffffff168373ffffffffffffffffffffffffffffffffffffffff1603613a8e5781816002015f8282540392505081905550613ada565b81815f015f8573ffffffffffffffffffffffffffffffffffffffff1673ffffffffffffffffffffffffffffffffffffffff1681526020019081526020015f205f82825401925050819055505b8273ffffffffffffffffffffffffffffffffffffffff168473ffffffffffffffffffffffffffffffffffffffff167fddf252ad1be2c89b69c2b068fc378daa952ba7f163c4a11628f55a4df523b3ef84604051613b379190614128565b60405180910390a350505050565b5f805f858054905090505f811115613dc5575f613b6e87600184613b699190614aa0565b612b87565b6040518060400160405290815f82015f9054906101000a900465ffffffffffff1665ffffffffffff1665ffffffffffff1681526020015f820160069054906101000a900479ffffffffffffffffffffffffffffffffffffffffffffffffffff1679ffffffffffffffffffffffffffffffffffffffffffffffffffff1679ffffffffffffffffffffffffffffffffffffffffffffffffffff168152505090508565ffffffffffff16815f015165ffffffffffff161115613c59576040517f2520601d00000000000000000000000000000000000000000000000000000000815260040160405180910390fd5b8565ffffffffffff16815f015165ffffffffffff1603613cdb5784613c8a88600185613c859190614aa0565b612b87565b5f0160066101000a81548179ffffffffffffffffffffffffffffffffffffffffffffffffffff021916908379ffffffffffffffffffffffffffffffffffffffffffffffffffff160217905550613db4565b8660405180604001604052808865ffffffffffff1681526020018779ffffffffffffffffffffffffffffffffffffffffffffffffffff16815250908060018154018082558091505060019003905f5260205f20015f909190919091505f820151815f015f6101000a81548165ffffffffffff021916908365ffffffffffff1602179055506020820151815f0160066101000a81548179ffffffffffffffffffffffffffffffffffffffffffffffffffff021916908379ffffffffffffffffffffffffffffffffffffffffffffffffffff16021790555050505b806020015185935093505050613ea5565b8560405180604001604052808765ffffffffffff1681526020018679ffffffffffffffffffffffffffffffffffffffffffffffffffff16815250908060018154018082558091505060019003905f5260205f20015f909190919091505f820151815f015f6101000a81548165ffffffffffff021916908365ffffffffffff1602179055506020820151815f0160066101000a81548179ffffffffffffffffffffffffffffffffffffffffffffffffffff021916908379ffffffffffffffffffffffffffffffffffffffffffffffffffff16021790555050505f8492509250505b935093915050565b60405180604001604052805f65ffffffffffff1681526020015f79ffffffffffffffffffffffffffffffffffffffffffffffffffff1681525090565b5f80fd5b5f80fd5b5f7fffffffff0000000000000000000000000000000000000000000000000000000082169050919050565b613f2581613ef1565b8114613f2f575f80fd5b50565b5f81359050613f4081613f1c565b92915050565b5f60208284031215613f5b57613f5a613ee9565b5b5f613f6884828501613f32565b91505092915050565b5f8115159050919050565b613f8581613f71565b82525050565b5f602082019050613f9e5f830184613f7c565b92915050565b5f81519050919050565b5f82825260208201905092915050565b5f5b83811015613fdb578082015181840152602081019050613fc0565b5f8484015250505050565b5f601f19601f8301169050919050565b5f61400082613fa4565b61400a8185613fae565b935061401a818560208601613fbe565b61402381613fe6565b840191505092915050565b5f6020820190508181035f8301526140468184613ff6565b905092915050565b5f73ffffffffffffffffffffffffffffffffffffffff82169050919050565b5f6140778261404e565b9050919050565b6140878161406d565b8114614091575f80fd5b50565b5f813590506140a28161407e565b92915050565b5f819050919050565b6140ba816140a8565b81146140c4575f80fd5b50565b5f813590506140d5816140b1565b92915050565b5f80604083850312156140f1576140f0613ee9565b5b5f6140fe85828601614094565b925050602061410f858286016140c7565b9150509250929050565b614122816140a8565b82525050565b5f60208201905061413b5f830184614119565b92915050565b5f805f6060848603121561415857614157613ee9565b5b5f61416586828701614094565b935050602061417686828701614094565b9250506040614187868287016140c7565b9150509250925092565b5f819050919050565b6141a381614191565b81146141ad575f80fd5b50565b5f813590506141be8161419a565b92915050565b5f602082840312156141d9576141d8613ee9565b5b5f6141e6848285016141b0565b91505092915050565b6141f881614191565b82525050565b5f6020820190506142115f8301846141ef565b92915050565b5f806040838503121561422d5761422c613ee9565b5b5f61423a858286016141b0565b925050602061424b85828601614094565b9150509250929050565b5f60ff82169050919050565b61426a81614255565b82525050565b5f6020820190506142835f830184614261565b92915050565b5f6020828403121561429e5761429d613ee9565b5b5f6142ab848285016140c7565b91505092915050565b5f602082840312156142c9576142c8613ee9565b5b5f6142d684828501614094565b91505092915050565b6142e88161406d565b82525050565b5f6020820190506143015f8301846142df565b92915050565b5f6143118261406d565b9050919050565b61432181614307565b811461432b575f80fd5b50565b5f8135905061433c81614318565b92915050565b5f80fd5b5f80fd5b5f80fd5b5f8083601f84011261436357614362614342565b5b8235905067ffffffffffffffff8111156143805761437f614346565b5b60208301915083600182028301111561439c5761439b61434a565b5b9250929050565b5f805f805f608086880312156143bc576143bb613ee9565b5b5f6143c98882890161432e565b95505060206143da88828901614094565b94505060406143eb888289016140c7565b935050606086013567ffffffffffffffff81111561440c5761440b613eed565b5b6144188882890161434e565b92509250509295509295909350565b5f63ffffffff82169050919050565b61443f81614427565b82525050565b5f6020820190506144585f830184614436565b92915050565b5f7fff0000000000000000000000000000000000000000000000000000000000000082169050919050565b6144928161445e565b82525050565b5f81519050919050565b5f82825260208201905092915050565b5f819050602082019050919050565b6144ca816140a8565b82525050565b5f6144db83836144c1565b60208301905092915050565b5f602082019050919050565b5f6144fd82614498565b61450781856144a2565b9350614512836144b2565b805f5b8381101561454257815161452988826144d0565b9750614534836144e7565b925050600181019050614515565b5085935050505092915050565b5f60e0820190506145625f83018a614489565b81810360208301526145748189613ff6565b905081810360408301526145888188613ff6565b90506145976060830187614119565b6145a460808301866142df565b6145b160a08301856141ef565b81810360c08301526145c381846144f3565b905098975050505050505050565b5f65ffffffffffff82169050919050565b6145eb816145d1565b82525050565b5f6020820190506146045f8301846145e2565b92915050565b5f805f6060848603121561462157614620613ee9565b5b5f61462e86828701614094565b935050602061463f86828701614094565b925050604061465086828701614094565b9150509250925092565b61466381614255565b811461466d575f80fd5b50565b5f8135905061467e8161465a565b92915050565b5f805f805f8060c0878903121561469e5761469d613ee9565b5b5f6146ab89828a01614094565b96505060206146bc89828a016140c7565b95505060406146cd89828a016140c7565b94505060606146de89828a01614670565b93505060806146ef89828a016141b0565b92505060a061470089828a016141b0565b9150509295509295509295565b5f805f805f805f60e0888a03121561472857614727613ee9565b5b5f6147358a828b01614094565b97505060206147468a828b01614094565b96505060406147578a828b016140c7565b95505060606147688a828b016140c7565b94505060806147798a828b01614670565b93505060a061478a8a828b016141b0565b92505060c061479b8a828b016141b0565b91505092959891949750929550565b5f80604083850312156147c0576147bf613ee9565b5b5f6147cd85828601614094565b92505060206147de85828601614094565b9150509250929050565b6147f181614427565b81146147fb575f80fd5b50565b5f8135905061480c816147e8565b92915050565b5f806040838503121561482857614827613ee9565b5b5f61483585828601614094565b9250506020614846858286016147fe565b9150509250929050565b614859816145d1565b82525050565b5f79ffffffffffffffffffffffffffffffffffffffffffffffffffff82169050919050565b61488d8161485f565b82525050565b604082015f8201516148a75f850182614850565b5060208201516148ba6020850182614884565b50505050565b5f6040820190506148d35f830184614893565b92915050565b7f4e487b71000000000000000000000000000000000000000000000000000000005f52602260045260245ffd5b5f600282049050600182168061491d57607f821691505b6020821081036149305761492f6148d9565b5b50919050565b5f6040820190506149495f830185614119565b61495660208301846145e2565b9392505050565b5f82825260208201905092915050565b828183375f83830152505050565b5f614986838561495d565b935061499383858461496d565b61499c83613fe6565b840190509392505050565b5f60a0820190506149ba5f8301896142df565b6149c760208301886142df565b6149d46040830187614119565b6149e16060830186614119565b81810360808301526149f481848661497b565b9050979650505050505050565b5f81519050614a0f8161419a565b92915050565b5f60208284031215614a2a57614a29613ee9565b5b5f614a3784828501614a01565b91505092915050565b7f4e487b71000000000000000000000000000000000000000000000000000000005f52601160045260245ffd5b5f614a77826140a8565b9150614a82836140a8565b9250828201905080821115614a9a57614a99614a40565b5b92915050565b5f614aaa826140a8565b9150614ab5836140a8565b9250828203905081811115614acd57614acc614a40565b5b92915050565b7f4549503731323a20556e696e697469616c697a656400000000000000000000005f82015250565b5f614b07601583613fae565b9150614b1282614ad3565b602082019050919050565b5f6020820190508181035f830152614b3481614afb565b9050919050565b7f4e487b71000000000000000000000000000000000000000000000000000000005f52604160045260245ffd5b5f8160011c9050919050565b5f808291508390505b6001851115614bbd57808604811115614b9957614b98614a40565b5b6001851615614ba85780820291505b8081029050614bb685614b68565b9450614b7d565b94509492505050565b5f82614bd55760019050614c90565b81614be2575f9050614c90565b8160018114614bf85760028114614c0257614c31565b6001915050614c90565b60ff841115614c1457614c13614a40565b5b8360020a915084821115614c2b57614c2a614a40565b5b50614c90565b5060208310610133831016604e8410600b8410161715614c665782820a905083811115614c6157614c60614a40565b5b614c90565b614c738484846001614b74565b92509050818404811115614c8a57614c89614a40565b5b81810290505b9392505050565b5f614ca1826140a8565b9150614cac83614255565b9250614cd97fffffffffffffffffffffffffffffffffffffffffffffffffffffffffffffffff8484614bc6565b905092915050565b5f614ceb826140a8565b9150614cf6836140a8565b9250828202614d04816140a8565b91508282048414831517614d1b57614d1a614a40565b5b5092915050565b5f819050919050565b5f67ffffffffffffffff82169050919050565b5f819050919050565b5f614d61614d5c614d5784614d22565b614d3e565b614d2b565b9050919050565b614d7181614d47565b82525050565b5f602082019050614d8a5f830184614d68565b92915050565b5f608082019050614da35f8301876141ef565b614db060208301866142df565b614dbd6040830185614119565b614dca6060830184614119565b95945050505050565b5f60c082019050614de65f8301896141ef565b614df360208301886142df565b614e0060408301876142df565b614e0d6060830186614119565b614e1a6080830185614119565b614e2760a0830184614119565b979650505050505050565b5f604082019050614e455f8301856142df565b614e5260208301846142df565b9392505050565b5f606082019050614e6c5f8301866142df565b614e796020830185614119565b614e866040830184614119565b949350505050565b5f819050919050565b5f614eb1614eac614ea784614e8e565b614d3e565b614255565b9050919050565b614ec181614e97565b82525050565b5f604082019050614eda5f830185614eb8565b614ee76020830184614119565b9392505050565b5f604082019050614f015f8301856142df565b614f0e6020830184614119565b9392505050565b5f604082019050614f285f8301856142df565b614f3560208301846141ef565b9392505050565b5f60a082019050614f4f5f8301886141ef565b614f5c60208301876141ef565b614f6960408301866141ef565b614f766060830185614119565b614f8360808301846142df565b9695505050505050565b7f4e487b71000000000000000000000000000000000000000000000000000000005f52601260045260245ffd5b5f604082019050614fcd5f830185614119565b614fda6020830184614119565b9392505050565b5f819050919050565b5f615004614fff614ffa84614fe1565b614d3e565b614255565b9050919050565b61501481614fea565b82525050565b5f60408201905061502d5f83018561500b565b61503a6020830184614119565b9392505050565b5f819050815f5260205f209050919050565b5f6020601f8301049050919050565b5f82821b905092915050565b5f6008830261509d7fffffffffffffffffffffffffffffffffffffffffffffffffffffffffffffffff82615062565b6150a78683615062565b95508019841693508086168417925050509392505050565b5f6150d96150d46150cf846140a8565b614d3e565b6140a8565b9050919050565b5f819050919050565b6150f2836150bf565b6151066150fe826150e0565b84845461506e565b825550505050565b5f90565b61511a61510e565b6151258184846150e9565b505050565b5b818110156151485761513d5f82615112565b60018101905061512b565b5050565b601f82111561518d5761515e81615041565b61516784615053565b81016020851015615176578190505b61518a61518285615053565b83018261512a565b50505b505050565b5f82821c905092915050565b5f6151ad5f1984600802615192565b1980831691505092915050565b5f6151c5838361519e565b9150826002028217905092915050565b6151de82613fa4565b67ffffffffffffffff8111156151f7576151f6614b3b565b5b6152018254614906565b61520c82828561514c565b5f60209050601f83116001811461523d575f841561522b578287015190505b61523585826151ba565b86555061529c565b601f19841661524b86615041565b5f5b828110156152725784890151825560018201915060208501945060208101905061524d565b8683101561528f578489015161528b601f89168261519e565b8355505b6001600288020188555050505b505050505050565b5f6080820190506152b75f8301876141ef565b6152c46020830186614261565b6152d160408301856141ef565b6152de60608301846141ef565b95945050505050565b7f4e487b71000000000000000000000000000000000000000000000000000000005f52602160045260245ffd5b7f4e487b71000000000000000000000000000000000000000000000000000000005f52603260045260245ffd5b5f61534b826140a8565b9150615356836140a8565b92508261536657615365614f8d565b5b828204905092915050565b5f61537b8261485f565b91506153868361485f565b9250828203905079ffffffffffffffffffffffffffffffffffffffffffffffffffff8111156153b8576153b7614a40565b5b92915050565b5f819050919050565b5f6153e16153dc6153d7846153be565b614d3e565b614255565b9050919050565b6153f1816153c7565b82525050565b5f60408201905061540a5f8301856153e8565b6154176020830184614119565b9392505050565b5f6154288261485f565b91506154338361485f565b9250828201905079ffffffffffffffffffffffffffffffffffffffffffffffffffff81111561546557615464614a40565b5b9291505056fea26469706673582212201d8b65a2ec096dc421c353b6894af3daaacaaa44c36cb40fc07cf4f29b40d0c464736f6c63430008160033",
		"opcodes": "PUSH1 0x80 PUSH1 0x40 MSTORE CALLVALUE DUP1 ISZERO PUSH2 0xF JUMPI PUSH0 DUP1 REVERT JUMPDEST POP PUSH1 0x4 CALLDATASIZE LT PUSH2 0x25C JUMPI PUSH0 CALLDATALOAD PUSH1 0xE0 SHR DUP1 PUSH4 0x70A08231 GT PUSH2 0x144 JUMPI DUP1 PUSH4 0xA217FDDF GT PUSH2 0xC1 JUMPI DUP1 PUSH4 0xD5391393 GT PUSH2 0x85 JUMPI DUP1 PUSH4 0xD5391393 EQ PUSH2 0x772 JUMPI DUP1 PUSH4 0xD547741F EQ PUSH2 0x790 JUMPI DUP1 PUSH4 0xD9D98CE4 EQ PUSH2 0x7AC JUMPI DUP1 PUSH4 0xDD62ED3E EQ PUSH2 0x7DC JUMPI DUP1 PUSH4 0xE63AB1E9 EQ PUSH2 0x80C JUMPI DUP1 PUSH4 0xF1127ED8 EQ PUSH2 0x82A JUMPI PUSH2 0x25C JUMP JUMPDEST DUP1 PUSH4 0xA217FDDF EQ PUSH2 0x6D0 JUMPI DUP1 PUSH4 0xA9059CBB EQ PUSH2 0x6EE JUMPI DUP1 PUSH4 0xC0C53B8B EQ PUSH2 0x71E JUMPI DUP1 PUSH4 0xC3CDA520 EQ PUSH2 0x73A JUMPI DUP1 PUSH4 0xD505ACCF EQ PUSH2 0x756 JUMPI PUSH2 0x25C JUMP JUMPDEST DUP1 PUSH4 0x8E539E8C GT PUSH2 0x108 JUMPI DUP1 PUSH4 0x8E539E8C EQ PUSH2 0x604 JUMPI DUP1 PUSH4 0x91D14854 EQ PUSH2 0x634 JUMPI DUP1 PUSH4 0x91DDADF4 EQ PUSH2 0x664 JUMPI DUP1 PUSH4 0x95D89B41 EQ PUSH2 0x682 JUMPI DUP1 PUSH4 0x9AB24EB0 EQ PUSH2 0x6A0 JUMPI PUSH2 0x25C JUMP JUMPDEST DUP1 PUSH4 0x70A08231 EQ PUSH2 0x55A JUMPI DUP1 PUSH4 0x79CC6790 EQ PUSH2 0x58A JUMPI DUP1 PUSH4 0x7ECEBE00 EQ PUSH2 0x5A6 JUMPI DUP1 PUSH4 0x8456CB59 EQ PUSH2 0x5D6 JUMPI DUP1 PUSH4 0x84B0196E EQ PUSH2 0x5E0 JUMPI PUSH2 0x25C JUMP JUMPDEST DUP1 PUSH4 0x3A46B1A8 GT PUSH2 0x1DD JUMPI DUP1 PUSH4 0x587CDE1E GT PUSH2 0x1A1 JUMPI DUP1 PUSH4 0x587CDE1E EQ PUSH2 0x460 JUMPI DUP1 PUSH4 0x5C19A95C EQ PUSH2 0x490 JUMPI DUP1 PUSH4 0x5C975ABB EQ PUSH2 0x4AC JUMPI DUP1 PUSH4 0x5CFFE9DE EQ PUSH2 0x4CA JUMPI DUP1 PUSH4 0x613255AB EQ PUSH2 0x4FA JUMPI DUP1 PUSH4 0x6FCFFF45 EQ PUSH2 0x52A JUMPI PUSH2 0x25C JUMP JUMPDEST DUP1 PUSH4 0x3A46B1A8 EQ PUSH2 0x3D0 JUMPI DUP1 PUSH4 0x3F4BA83A EQ PUSH2 0x400 JUMPI DUP1 PUSH4 0x40C10F19 EQ PUSH2 0x40A JUMPI DUP1 PUSH4 0x42966C68 EQ PUSH2 0x426 JUMPI DUP1 PUSH4 0x4BF5D7E9 EQ PUSH2 0x442 JUMPI PUSH2 0x25C JUMP JUMPDEST DUP1 PUSH4 0x248A9CA3 GT PUSH2 0x224 JUMPI DUP1 PUSH4 0x248A9CA3 EQ PUSH2 0x32C JUMPI DUP1 PUSH4 0x2F2FF15D EQ PUSH2 0x35C JUMPI DUP1 PUSH4 0x313CE567 EQ PUSH2 0x378 JUMPI DUP1 PUSH4 0x3644E515 EQ PUSH2 0x396 JUMPI DUP1 PUSH4 0x36568ABE EQ PUSH2 0x3B4 JUMPI PUSH2 0x25C JUMP JUMPDEST DUP1 PUSH4 0x1FFC9A7 EQ PUSH2 0x260 JUMPI DUP1 PUSH4 0x6FDDE03 EQ PUSH2 0x290 JUMPI DUP1 PUSH4 0x95EA7B3 EQ PUSH2 0x2AE JUMPI DUP1 PUSH4 0x18160DDD EQ PUSH2 0x2DE JUMPI DUP1 PUSH4 0x23B872DD EQ PUSH2 0x2FC JUMPI JUMPDEST PUSH0 DUP1 REVERT JUMPDEST PUSH2 0x27A PUSH1 0x4 DUP1 CALLDATASIZE SUB DUP2 ADD SWAP1 PUSH2 0x275 SWAP2 SWAP1 PUSH2 0x3F46 JUMP JUMPDEST PUSH2 0x85A JUMP JUMPDEST PUSH1 0x40 MLOAD PUSH2 0x287 SWAP2 SWAP1 PUSH2 0x3F8B JUMP JUMPDEST PUSH1 0x40 MLOAD DUP1 SWAP2 SUB SWAP1 RETURN JUMPDEST PUSH2 0x298 PUSH2 0x8D3 JUMP JUMPDEST PUSH1 0x40 MLOAD PUSH2 0x2A5 SWAP2 SWAP1 PUSH2 0x402E JUMP JUMPDEST PUSH1 0x40 MLOAD DUP1 SWAP2 SUB SWAP1 RETURN JUMPDEST PUSH2 0x2C8 PUSH1 0x4 DUP1 CALLDATASIZE SUB DUP2 ADD SWAP1 PUSH2 0x2C3 SWAP2 SWAP1 PUSH2 0x40DB JUMP JUMPDEST PUSH2 0x971 JUMP JUMPDEST PUSH1 0x40 MLOAD PUSH2 0x2D5 SWAP2 SWAP1 PUSH2 0x3F8B JUMP JUMPDEST PUSH1 0x40 MLOAD DUP1 SWAP2 SUB SWAP1 RETURN JUMPDEST PUSH2 0x2E6 PUSH2 0x993 JUMP JUMPDEST PUSH1 0x40 MLOAD PUSH2 0x2F3 SWAP2 SWAP1 PUSH2 0x4128 JUMP JUMPDEST PUSH1 0x40 MLOAD DUP1 SWAP2 SUB SWAP1 RETURN JUMPDEST PUSH2 0x316 PUSH1 0x4 DUP1 CALLDATASIZE SUB DUP2 ADD SWAP1 PUSH2 0x311 SWAP2 SWAP1 PUSH2 0x4141 JUMP JUMPDEST PUSH2 0x9AA JUMP JUMPDEST PUSH1 0x40 MLOAD PUSH2 0x323 SWAP2 SWAP1 PUSH2 0x3F8B JUMP JUMPDEST PUSH1 0x40 MLOAD DUP1 SWAP2 SUB SWAP1 RETURN JUMPDEST PUSH2 0x346 PUSH1 0x4 DUP1 CALLDATASIZE SUB DUP2 ADD SWAP1 PUSH2 0x341 SWAP2 SWAP1 PUSH2 0x41C4 JUMP JUMPDEST PUSH2 0x9D8 JUMP JUMPDEST PUSH1 0x40 MLOAD PUSH2 0x353 SWAP2 SWAP1 PUSH2 0x41FE JUMP JUMPDEST PUSH1 0x40 MLOAD DUP1 SWAP2 SUB SWAP1 RETURN JUMPDEST PUSH2 0x376 PUSH1 0x4 DUP1 CALLDATASIZE SUB DUP2 ADD SWAP1 PUSH2 0x371 SWAP2 SWAP1 PUSH2 0x4217 JUMP JUMPDEST PUSH2 0xA02 JUMP JUMPDEST STOP JUMPDEST PUSH2 0x380 PUSH2 0xA24 JUMP JUMPDEST PUSH1 0x40 MLOAD PUSH2 0x38D SWAP2 SWAP1 PUSH2 0x4270 JUMP JUMPDEST PUSH1 0x40 MLOAD DUP1 SWAP2 SUB SWAP1 RETURN JUMPDEST PUSH2 0x39E PUSH2 0xA2C JUMP JUMPDEST PUSH1 0x40 MLOAD PUSH2 0x3AB SWAP2 SWAP1 PUSH2 0x41FE JUMP JUMPDEST PUSH1 0x40 MLOAD DUP1 SWAP2 SUB SWAP1 RETURN JUMPDEST PUSH2 0x3CE PUSH1 0x4 DUP1 CALLDATASIZE SUB DUP2 ADD SWAP1 PUSH2 0x3C9 SWAP2 SWAP1 PUSH2 0x4217 JUMP JUMPDEST PUSH2 0xA3A JUMP JUMPDEST STOP JUMPDEST PUSH2 0x3EA PUSH1 0x4 DUP1 CALLDATASIZE SUB DUP2 ADD SWAP1 PUSH2 0x3E5 SWAP2 SWAP1 PUSH2 0x40DB JUMP JUMPDEST PUSH2 0xAB5 JUMP JUMPDEST PUSH1 0x40 MLOAD PUSH2 0x3F7 SWAP2 SWAP1 PUSH2 0x4128 JUMP JUMPDEST PUSH1 0x40 MLOAD DUP1 SWAP2 SUB SWAP1 RETURN JUMPDEST PUSH2 0x408 PUSH2 0xB99 JUMP JUMPDEST STOP JUMPDEST PUSH2 0x424 PUSH1 0x4 DUP1 CALLDATASIZE SUB DUP2 ADD SWAP1 PUSH2 0x41F SWAP2 SWAP1 PUSH2 0x40DB JUMP JUMPDEST PUSH2 0xBCE JUMP JUMPDEST STOP JUMPDEST PUSH2 0x440 PUSH1 0x4 DUP1 CALLDATASIZE SUB DUP2 ADD SWAP1 PUSH2 0x43B SWAP2 SWAP1 PUSH2 0x4289 JUMP JUMPDEST PUSH2 0xC07 JUMP JUMPDEST STOP JUMPDEST PUSH2 0x44A PUSH2 0xC1B JUMP JUMPDEST PUSH1 0x40 MLOAD PUSH2 0x457 SWAP2 SWAP1 PUSH2 0x402E JUMP JUMPDEST PUSH1 0x40 MLOAD DUP1 SWAP2 SUB SWAP1 RETURN JUMPDEST PUSH2 0x47A PUSH1 0x4 DUP1 CALLDATASIZE SUB DUP2 ADD SWAP1 PUSH2 0x475 SWAP2 SWAP1 PUSH2 0x42B4 JUMP JUMPDEST PUSH2 0xCAF JUMP JUMPDEST PUSH1 0x40 MLOAD PUSH2 0x487 SWAP2 SWAP1 PUSH2 0x42EE JUMP JUMPDEST PUSH1 0x40 MLOAD DUP1 SWAP2 SUB SWAP1 RETURN JUMPDEST PUSH2 0x4AA PUSH1 0x4 DUP1 CALLDATASIZE SUB DUP2 ADD SWAP1 PUSH2 0x4A5 SWAP2 SWAP1 PUSH2 0x42B4 JUMP JUMPDEST PUSH2 0xD21 JUMP JUMPDEST STOP JUMPDEST PUSH2 0x4B4 PUSH2 0xD3A JUMP JUMPDEST PUSH1 0x40 MLOAD PUSH2 0x4C1 SWAP2 SWAP1 PUSH2 0x3F8B JUMP JUMPDEST PUSH1 0x40 MLOAD DUP1 SWAP2 SUB SWAP1 RETURN JUMPDEST PUSH2 0x4E4 PUSH1 0x4 DUP1 CALLDATASIZE SUB DUP2 ADD SWAP1 PUSH2 0x4DF SWAP2 SWAP1 PUSH2 0x43A3 JUMP JUMPDEST PUSH2 0xD5C JUMP JUMPDEST PUSH1 0x40 MLOAD PUSH2 0x4F1 SWAP2 SWAP1 PUSH2 0x3F8B JUMP JUMPDEST PUSH1 0x40 MLOAD DUP1 SWAP2 SUB SWAP1 RETURN JUMPDEST PUSH2 0x514 PUSH1 0x4 DUP1 CALLDATASIZE SUB DUP2 ADD SWAP1 PUSH2 0x50F SWAP2 SWAP1 PUSH2 0x42B4 JUMP JUMPDEST PUSH2 0xF51 JUMP JUMPDEST PUSH1 0x40 MLOAD PUSH2 0x521 SWAP2 SWAP1 PUSH2 0x4128 JUMP JUMPDEST PUSH1 0x40 MLOAD DUP1 SWAP2 SUB SWAP1 RETURN JUMPDEST PUSH2 0x544 PUSH1 0x4 DUP1 CALLDATASIZE SUB DUP2 ADD SWAP1 PUSH2 0x53F SWAP2 SWAP1 PUSH2 0x42B4 JUMP JUMPDEST PUSH2 0xFC6 JUMP JUMPDEST PUSH1 0x40 MLOAD PUSH2 0x551 SWAP2 SWAP1 PUSH2 0x4445 JUMP JUMPDEST PUSH1 0x40 MLOAD DUP1 SWAP2 SUB SWAP1 RETURN JUMPDEST PUSH2 0x574 PUSH1 0x4 DUP1 CALLDATASIZE SUB DUP2 ADD SWAP1 PUSH2 0x56F SWAP2 SWAP1 PUSH2 0x42B4 JUMP JUMPDEST PUSH2 0xFD7 JUMP JUMPDEST PUSH1 0x40 MLOAD PUSH2 0x581 SWAP2 SWAP1 PUSH2 0x4128 JUMP JUMPDEST PUSH1 0x40 MLOAD DUP1 SWAP2 SUB SWAP1 RETURN JUMPDEST PUSH2 0x5A4 PUSH1 0x4 DUP1 CALLDATASIZE SUB DUP2 ADD SWAP1 PUSH2 0x59F SWAP2 SWAP1 PUSH2 0x40DB JUMP JUMPDEST PUSH2 0x102A JUMP JUMPDEST STOP JUMPDEST PUSH2 0x5C0 PUSH1 0x4 DUP1 CALLDATASIZE SUB DUP2 ADD SWAP1 PUSH2 0x5BB SWAP2 SWAP1 PUSH2 0x42B4 JUMP JUMPDEST PUSH2 0x104A JUMP JUMPDEST PUSH1 0x40 MLOAD PUSH2 0x5CD SWAP2 SWAP1 PUSH2 0x4128 JUMP JUMPDEST PUSH1 0x40 MLOAD DUP1 SWAP2 SUB SWAP1 RETURN JUMPDEST PUSH2 0x5DE PUSH2 0x105B JUMP JUMPDEST STOP JUMPDEST PUSH2 0x5E8 PUSH2 0x1090 JUMP JUMPDEST PUSH1 0x40 MLOAD PUSH2 0x5FB SWAP8 SWAP7 SWAP6 SWAP5 SWAP4 SWAP3 SWAP2 SWAP1 PUSH2 0x454F JUMP JUMPDEST PUSH1 0x40 MLOAD DUP1 SWAP2 SUB SWAP1 RETURN JUMPDEST PUSH2 0x61E PUSH1 0x4 DUP1 CALLDATASIZE SUB DUP2 ADD SWAP1 PUSH2 0x619 SWAP2 SWAP1 PUSH2 0x4289 JUMP JUMPDEST PUSH2 0x1199 JUMP JUMPDEST PUSH1 0x40 MLOAD PUSH2 0x62B SWAP2 SWAP1 PUSH2 0x4128 JUMP JUMPDEST PUSH1 0x40 MLOAD DUP1 SWAP2 SUB SWAP1 RETURN JUMPDEST PUSH2 0x64E PUSH1 0x4 DUP1 CALLDATASIZE SUB DUP2 ADD SWAP1 PUSH2 0x649 SWAP2 SWAP1 PUSH2 0x4217 JUMP JUMPDEST PUSH2 0x1241 JUMP JUMPDEST PUSH1 0x40 MLOAD PUSH2 0x65B SWAP2 SWAP1 PUSH2 0x3F8B JUMP JUMPDEST PUSH1 0x40 MLOAD DUP1 SWAP2 SUB SWAP1 RETURN JUMPDEST PUSH2 0x66C PUSH2 0x12B2 JUMP JUMPDEST PUSH1 0x40 MLOAD PUSH2 0x679 SWAP2 SWAP1 PUSH2 0x45F1 JUMP JUMPDEST PUSH1 0x40 MLOAD DUP1 SWAP2 SUB SWAP1 RETURN JUMPDEST PUSH2 0x68A PUSH2 0x12C0 JUMP JUMPDEST PUSH1 0x40 MLOAD PUSH2 0x697 SWAP2 SWAP1 PUSH2 0x402E JUMP JUMPDEST PUSH1 0x40 MLOAD DUP1 SWAP2 SUB SWAP1 RETURN JUMPDEST PUSH2 0x6BA PUSH1 0x4 DUP1 CALLDATASIZE SUB DUP2 ADD SWAP1 PUSH2 0x6B5 SWAP2 SWAP1 PUSH2 0x42B4 JUMP JUMPDEST PUSH2 0x135E JUMP JUMPDEST PUSH1 0x40 MLOAD PUSH2 0x6C7 SWAP2 SWAP1 PUSH2 0x4128 JUMP JUMPDEST PUSH1 0x40 MLOAD DUP1 SWAP2 SUB SWAP1 RETURN JUMPDEST PUSH2 0x6D8 PUSH2 0x13D5 JUMP JUMPDEST PUSH1 0x40 MLOAD PUSH2 0x6E5 SWAP2 SWAP1 PUSH2 0x41FE JUMP JUMPDEST PUSH1 0x40 MLOAD DUP1 SWAP2 SUB SWAP1 RETURN JUMPDEST PUSH2 0x708 PUSH1 0x4 DUP1 CALLDATASIZE SUB DUP2 ADD SWAP1 PUSH2 0x703 SWAP2 SWAP1 PUSH2 0x40DB JUMP JUMPDEST PUSH2 0x13DB JUMP JUMPDEST PUSH1 0x40 MLOAD PUSH2 0x715 SWAP2 SWAP1 PUSH2 0x3F8B JUMP JUMPDEST PUSH1 0x40 MLOAD DUP1 SWAP2 SUB SWAP1 RETURN JUMPDEST PUSH2 0x738 PUSH1 0x4 DUP1 CALLDATASIZE SUB DUP2 ADD SWAP1 PUSH2 0x733 SWAP2 SWAP1 PUSH2 0x460A JUMP JUMPDEST PUSH2 0x13FD JUMP JUMPDEST STOP JUMPDEST PUSH2 0x754 PUSH1 0x4 DUP1 CALLDATASIZE SUB DUP2 ADD SWAP1 PUSH2 0x74F SWAP2 SWAP1 PUSH2 0x4684 JUMP JUMPDEST PUSH2 0x16E0 JUMP JUMPDEST STOP JUMPDEST PUSH2 0x770 PUSH1 0x4 DUP1 CALLDATASIZE SUB DUP2 ADD SWAP1 PUSH2 0x76B SWAP2 SWAP1 PUSH2 0x470D JUMP JUMPDEST PUSH2 0x17A5 JUMP JUMPDEST STOP JUMPDEST PUSH2 0x77A PUSH2 0x18EA JUMP JUMPDEST PUSH1 0x40 MLOAD PUSH2 0x787 SWAP2 SWAP1 PUSH2 0x41FE JUMP JUMPDEST PUSH1 0x40 MLOAD DUP1 SWAP2 SUB SWAP1 RETURN JUMPDEST PUSH2 0x7AA PUSH1 0x4 DUP1 CALLDATASIZE SUB DUP2 ADD SWAP1 PUSH2 0x7A5 SWAP2 SWAP1 PUSH2 0x4217 JUMP JUMPDEST PUSH2 0x190E JUMP JUMPDEST STOP JUMPDEST PUSH2 0x7C6 PUSH1 0x4 DUP1 CALLDATASIZE SUB DUP2 ADD SWAP1 PUSH2 0x7C1 SWAP2 SWAP1 PUSH2 0x40DB JUMP JUMPDEST PUSH2 0x1930 JUMP JUMPDEST PUSH1 0x40 MLOAD PUSH2 0x7D3 SWAP2 SWAP1 PUSH2 0x4128 JUMP JUMPDEST PUSH1 0x40 MLOAD DUP1 SWAP2 SUB SWAP1 RETURN JUMPDEST PUSH2 0x7F6 PUSH1 0x4 DUP1 CALLDATASIZE SUB DUP2 ADD SWAP1 PUSH2 0x7F1 SWAP2 SWAP1 PUSH2 0x47AA JUMP JUMPDEST PUSH2 0x19B3 JUMP JUMPDEST PUSH1 0x40 MLOAD PUSH2 0x803 SWAP2 SWAP1 PUSH2 0x4128 JUMP JUMPDEST PUSH1 0x40 MLOAD DUP1 SWAP2 SUB SWAP1 RETURN JUMPDEST PUSH2 0x814 PUSH2 0x1A43 JUMP JUMPDEST PUSH1 0x40 MLOAD PUSH2 0x821 SWAP2 SWAP1 PUSH2 0x41FE JUMP JUMPDEST PUSH1 0x40 MLOAD DUP1 SWAP2 SUB SWAP1 RETURN JUMPDEST PUSH2 0x844 PUSH1 0x4 DUP1 CALLDATASIZE SUB DUP2 ADD SWAP1 PUSH2 0x83F SWAP2 SWAP1 PUSH2 0x4812 JUMP JUMPDEST PUSH2 0x1A67 JUMP JUMPDEST PUSH1 0x40 MLOAD PUSH2 0x851 SWAP2 SWAP1 PUSH2 0x48C0 JUMP JUMPDEST PUSH1 0x40 MLOAD DUP1 SWAP2 SUB SWAP1 RETURN JUMPDEST PUSH0 PUSH32 0x7965DB0B00000000000000000000000000000000000000000000000000000000 PUSH28 0xFFFFFFFFFFFFFFFFFFFFFFFFFFFFFFFFFFFFFFFFFFFFFFFFFFFFFFFF NOT AND DUP3 PUSH28 0xFFFFFFFFFFFFFFFFFFFFFFFFFFFFFFFFFFFFFFFFFFFFFFFFFFFFFFFF NOT AND EQ DUP1 PUSH2 0x8CC JUMPI POP PUSH2 0x8CB DUP3 PUSH2 0x1A81 JUMP JUMPDEST JUMPDEST SWAP1 POP SWAP2 SWAP1 POP JUMP JUMPDEST PUSH1 0x60 PUSH0 PUSH2 0x8DE PUSH2 0x1AEA JUMP JUMPDEST SWAP1 POP DUP1 PUSH1 0x3 ADD DUP1 SLOAD PUSH2 0x8EF SWAP1 PUSH2 0x4906 JUMP JUMPDEST DUP1 PUSH1 0x1F ADD PUSH1 0x20 DUP1 SWAP2 DIV MUL PUSH1 0x20 ADD PUSH1 0x40 MLOAD SWAP1 DUP2 ADD PUSH1 0x40 MSTORE DUP1 SWAP3 SWAP2 SWAP1 DUP2 DUP2 MSTORE PUSH1 0x20 ADD DUP3 DUP1 SLOAD PUSH2 0x91B SWAP1 PUSH2 0x4906 JUMP JUMPDEST DUP1 ISZERO PUSH2 0x966 JUMPI DUP1 PUSH1 0x1F LT PUSH2 0x93D JUMPI PUSH2 0x100 DUP1 DUP4 SLOAD DIV MUL DUP4 MSTORE SWAP2 PUSH1 0x20 ADD SWAP2 PUSH2 0x966 JUMP JUMPDEST DUP3 ADD SWAP2 SWAP1 PUSH0 MSTORE PUSH1 0x20 PUSH0 KECCAK256 SWAP1 JUMPDEST DUP2 SLOAD DUP2 MSTORE SWAP1 PUSH1 0x1 ADD SWAP1 PUSH1 0x20 ADD DUP1 DUP4 GT PUSH2 0x949 JUMPI DUP3 SWAP1 SUB PUSH1 0x1F AND DUP3 ADD SWAP2 JUMPDEST POP POP POP POP POP SWAP2 POP POP SWAP1 JUMP JUMPDEST PUSH0 DUP1 PUSH2 0x97B PUSH2 0x1B11 JUMP JUMPDEST SWAP1 POP PUSH2 0x988 DUP2 DUP6 DUP6 PUSH2 0x1B18 JUMP JUMPDEST PUSH1 0x1 SWAP2 POP POP SWAP3 SWAP2 POP POP JUMP JUMPDEST PUSH0 DUP1 PUSH2 0x99D PUSH2 0x1AEA JUMP JUMPDEST SWAP1 POP DUP1 PUSH1 0x2 ADD SLOAD SWAP2 POP POP SWAP1 JUMP JUMPDEST PUSH0 DUP1 PUSH2 0x9B4 PUSH2 0x1B11 JUMP JUMPDEST SWAP1 POP PUSH2 0x9C1 DUP6 DUP3 DUP6 PUSH2 0x1B2A JUMP JUMPDEST PUSH2 0x9CC DUP6 DUP6 DUP6 PUSH2 0x1BBC JUMP JUMPDEST PUSH1 0x1 SWAP2 POP POP SWAP4 SWAP3 POP POP POP JUMP JUMPDEST PUSH0 DUP1 PUSH2 0x9E2 PUSH2 0x1CAC JUMP JUMPDEST SWAP1 POP DUP1 PUSH0 ADD PUSH0 DUP5 DUP2 MSTORE PUSH1 0x20 ADD SWAP1 DUP2 MSTORE PUSH1 0x20 ADD PUSH0 KECCAK256 PUSH1 0x1 ADD SLOAD SWAP2 POP POP SWAP2 SWAP1 POP JUMP JUMPDEST PUSH2 0xA0B DUP3 PUSH2 0x9D8 JUMP JUMPDEST PUSH2 0xA14 DUP2 PUSH2 0x1CD3 JUMP JUMPDEST PUSH2 0xA1E DUP4 DUP4 PUSH2 0x1CE7 JUMP JUMPDEST POP POP POP POP JUMP JUMPDEST PUSH0 PUSH1 0x12 SWAP1 POP SWAP1 JUMP JUMPDEST PUSH0 PUSH2 0xA35 PUSH2 0x1DDF JUMP JUMPDEST SWAP1 POP SWAP1 JUMP JUMPDEST PUSH2 0xA42 PUSH2 0x1B11 JUMP JUMPDEST PUSH20 0xFFFFFFFFFFFFFFFFFFFFFFFFFFFFFFFFFFFFFFFF AND DUP2 PUSH20 0xFFFFFFFFFFFFFFFFFFFFFFFFFFFFFFFFFFFFFFFF AND EQ PUSH2 0xAA6 JUMPI PUSH1 0x40 MLOAD PUSH32 0x6697B23200000000000000000000000000000000000000000000000000000000 DUP2 MSTORE PUSH1 0x4 ADD PUSH1 0x40 MLOAD DUP1 SWAP2 SUB SWAP1 REVERT JUMPDEST PUSH2 0xAB0 DUP3 DUP3 PUSH2 0x1DED JUMP JUMPDEST POP POP POP JUMP JUMPDEST PUSH0 DUP1 PUSH2 0xABF PUSH2 0x1EE5 JUMP JUMPDEST SWAP1 POP PUSH0 PUSH2 0xACA PUSH2 0x12B2 JUMP JUMPDEST SWAP1 POP DUP1 PUSH6 0xFFFFFFFFFFFF AND DUP5 LT PUSH2 0xB1A JUMPI DUP4 DUP2 PUSH1 0x40 MLOAD PUSH32 0xECD3F81E00000000000000000000000000000000000000000000000000000000 DUP2 MSTORE PUSH1 0x4 ADD PUSH2 0xB11 SWAP3 SWAP2 SWAP1 PUSH2 0x4936 JUMP JUMPDEST PUSH1 0x40 MLOAD DUP1 SWAP2 SUB SWAP1 REVERT JUMPDEST PUSH2 0xB73 PUSH2 0xB26 DUP6 PUSH2 0x1F0C JUMP JUMPDEST DUP4 PUSH1 0x1 ADD PUSH0 DUP9 PUSH20 0xFFFFFFFFFFFFFFFFFFFFFFFFFFFFFFFFFFFFFFFF AND PUSH20 0xFFFFFFFFFFFFFFFFFFFFFFFFFFFFFFFFFFFFFFFF AND DUP2 MSTORE PUSH1 0x20 ADD SWAP1 DUP2 MSTORE PUSH1 0x20 ADD PUSH0 KECCAK256 PUSH2 0x1F65 SWAP1 SWAP2 SWAP1 PUSH4 0xFFFFFFFF AND JUMP JUMPDEST PUSH26 0xFFFFFFFFFFFFFFFFFFFFFFFFFFFFFFFFFFFFFFFFFFFFFFFFFFFF AND SWAP3 POP POP POP SWAP3 SWAP2 POP POP JUMP JUMPDEST PUSH32 0x65D7A28E3265B37A6474929F336521B332C1681B933F6CB9F3376673440D862A PUSH2 0xBC3 DUP2 PUSH2 0x1CD3 JUMP JUMPDEST PUSH2 0xBCB PUSH2 0x2052 JUMP JUMPDEST POP JUMP JUMPDEST PUSH32 0x9F2DF0FED2C77648DE5860A4CC508CD0818C85B8B8A1AB4CEEEF8D981C8956A6 PUSH2 0xBF8 DUP2 PUSH2 0x1CD3 JUMP JUMPDEST PUSH2 0xC02 DUP4 DUP4 PUSH2 0x20C0 JUMP JUMPDEST POP POP POP JUMP JUMPDEST PUSH2 0xC18 PUSH2 0xC12 PUSH2 0x1B11 JUMP JUMPDEST DUP3 PUSH2 0x213F JUMP JUMPDEST POP JUMP JUMPDEST PUSH1 0x60 PUSH2 0xC25 PUSH2 0x21BE JUMP JUMPDEST PUSH6 0xFFFFFFFFFFFF AND PUSH2 0xC35 PUSH2 0x12B2 JUMP JUMPDEST PUSH6 0xFFFFFFFFFFFF AND EQ PUSH2 0xC74 JUMPI PUSH1 0x40 MLOAD PUSH32 0x6FF0714000000000000000000000000000000000000000000000000000000000 DUP2 MSTORE PUSH1 0x4 ADD PUSH1 0x40 MLOAD DUP1 SWAP2 SUB SWAP1 REVERT JUMPDEST PUSH1 0x40 MLOAD DUP1 PUSH1 0x40 ADD PUSH1 0x40 MSTORE DUP1 PUSH1 0x1D DUP2 MSTORE PUSH1 0x20 ADD PUSH32 0x6D6F64653D626C6F636B6E756D6265722666726F6D3D64656661756C74000000 DUP2 MSTORE POP SWAP1 POP SWAP1 JUMP JUMPDEST PUSH0 DUP1 PUSH2 0xCB9 PUSH2 0x1EE5 JUMP JUMPDEST SWAP1 POP DUP1 PUSH0 ADD PUSH0 DUP5 PUSH20 0xFFFFFFFFFFFFFFFFFFFFFFFFFFFFFFFFFFFFFFFF AND PUSH20 0xFFFFFFFFFFFFFFFFFFFFFFFFFFFFFFFFFFFFFFFF AND DUP2 MSTORE PUSH1 0x20 ADD SWAP1 DUP2 MSTORE PUSH1 0x20 ADD PUSH0 KECCAK256 PUSH0 SWAP1 SLOAD SWAP1 PUSH2 0x100 EXP SWAP1 DIV PUSH20 0xFFFFFFFFFFFFFFFFFFFFFFFFFFFFFFFFFFFFFFFF AND SWAP2 POP POP SWAP2 SWAP1 POP JUMP JUMPDEST PUSH0 PUSH2 0xD2A PUSH2 0x1B11 JUMP JUMPDEST SWAP1 POP PUSH2 0xD36 DUP2 DUP4 PUSH2 0x21CD JUMP JUMPDEST POP POP JUMP JUMPDEST PUSH0 DUP1 PUSH2 0xD44 PUSH2 0x22EA JUMP JUMPDEST SWAP1 POP DUP1 PUSH0 ADD PUSH0 SWAP1 SLOAD SWAP1 PUSH2 0x100 EXP SWAP1 DIV PUSH1 0xFF AND SWAP2 POP POP SWAP1 JUMP JUMPDEST PUSH0 DUP1 PUSH2 0xD67 DUP7 PUSH2 0xF51 JUMP JUMPDEST SWAP1 POP DUP1 DUP6 GT ISZERO PUSH2 0xDAE JUMPI DUP1 PUSH1 0x40 MLOAD PUSH32 0xFD9A760900000000000000000000000000000000000000000000000000000000 DUP2 MSTORE PUSH1 0x4 ADD PUSH2 0xDA5 SWAP2 SWAP1 PUSH2 0x4128 JUMP JUMPDEST PUSH1 0x40 MLOAD DUP1 SWAP2 SUB SWAP1 REVERT JUMPDEST PUSH0 PUSH2 0xDB9 DUP8 DUP8 PUSH2 0x1930 JUMP JUMPDEST SWAP1 POP PUSH2 0xDC5 DUP9 DUP8 PUSH2 0x20C0 JUMP JUMPDEST PUSH32 0x439148F0BBC682CA079E46D6E2C2F0C1E3B820F1A291B069D8882ABF8CF18DD9 DUP9 PUSH20 0xFFFFFFFFFFFFFFFFFFFFFFFFFFFFFFFFFFFFFFFF AND PUSH4 0x23E30C8B PUSH2 0xE0A PUSH2 0x1B11 JUMP JUMPDEST DUP11 DUP11 DUP7 DUP12 DUP12 PUSH1 0x40 MLOAD DUP8 PUSH4 0xFFFFFFFF AND PUSH1 0xE0 SHL DUP2 MSTORE PUSH1 0x4 ADD PUSH2 0xE30 SWAP7 SWAP6 SWAP5 SWAP4 SWAP3 SWAP2 SWAP1 PUSH2 0x49A7 JUMP JUMPDEST PUSH1 0x20 PUSH1 0x40 MLOAD DUP1 DUP4 SUB DUP2 PUSH0 DUP8 GAS CALL ISZERO DUP1 ISZERO PUSH2 0xE4C JUMPI RETURNDATASIZE PUSH0 DUP1 RETURNDATACOPY RETURNDATASIZE PUSH0 REVERT JUMPDEST POP POP POP POP PUSH1 0x40 MLOAD RETURNDATASIZE PUSH1 0x1F NOT PUSH1 0x1F DUP3 ADD AND DUP3 ADD DUP1 PUSH1 0x40 MSTORE POP DUP2 ADD SWAP1 PUSH2 0xE70 SWAP2 SWAP1 PUSH2 0x4A15 JUMP JUMPDEST EQ PUSH2 0xEB2 JUMPI DUP8 PUSH1 0x40 MLOAD PUSH32 0x678C5B0000000000000000000000000000000000000000000000000000000000 DUP2 MSTORE PUSH1 0x4 ADD PUSH2 0xEA9 SWAP2 SWAP1 PUSH2 0x42EE JUMP JUMPDEST PUSH1 0x40 MLOAD DUP1 SWAP2 SUB SWAP1 REVERT JUMPDEST PUSH0 PUSH2 0xEBB PUSH2 0x2311 JUMP JUMPDEST SWAP1 POP PUSH2 0xED3 DUP10 ADDRESS DUP5 DUP11 PUSH2 0xECE SWAP2 SWAP1 PUSH2 0x4A6D JUMP JUMPDEST PUSH2 0x1B2A JUMP JUMPDEST PUSH0 DUP3 EQ DUP1 PUSH2 0xF0C JUMPI POP PUSH0 PUSH20 0xFFFFFFFFFFFFFFFFFFFFFFFFFFFFFFFFFFFFFFFF AND DUP2 PUSH20 0xFFFFFFFFFFFFFFFFFFFFFFFFFFFFFFFFFFFFFFFF AND EQ JUMPDEST ISZERO PUSH2 0xF2B JUMPI PUSH2 0xF26 DUP10 DUP4 DUP10 PUSH2 0xF21 SWAP2 SWAP1 PUSH2 0x4A6D JUMP JUMPDEST PUSH2 0x213F JUMP JUMPDEST PUSH2 0xF41 JUMP JUMPDEST PUSH2 0xF35 DUP10 DUP9 PUSH2 0x213F JUMP JUMPDEST PUSH2 0xF40 DUP10 DUP3 DUP5 PUSH2 0x1BBC JUMP JUMPDEST JUMPDEST PUSH1 0x1 SWAP4 POP POP POP POP SWAP6 SWAP5 POP POP POP POP POP JUMP JUMPDEST PUSH0 ADDRESS PUSH20 0xFFFFFFFFFFFFFFFFFFFFFFFFFFFFFFFFFFFFFFFF AND DUP3 PUSH20 0xFFFFFFFFFFFFFFFFFFFFFFFFFFFFFFFFFFFFFFFF AND EQ PUSH2 0xF8B JUMPI PUSH0 PUSH2 0xFBF JUMP JUMPDEST PUSH2 0xF93 PUSH2 0x993 JUMP JUMPDEST PUSH32 0xFFFFFFFFFFFFFFFFFFFFFFFFFFFFFFFFFFFFFFFFFFFFFFFFFFFFFFFFFFFFFFFF PUSH2 0xFBE SWAP2 SWAP1 PUSH2 0x4AA0 JUMP JUMPDEST JUMPDEST SWAP1 POP SWAP2 SWAP1 POP JUMP JUMPDEST PUSH0 PUSH2 0xFD0 DUP3 PUSH2 0x2315 JUMP JUMPDEST SWAP1 POP SWAP2 SWAP1 POP JUMP JUMPDEST PUSH0 DUP1 PUSH2 0xFE1 PUSH2 0x1AEA JUMP JUMPDEST SWAP1 POP DUP1 PUSH0 ADD PUSH0 DUP5 PUSH20 0xFFFFFFFFFFFFFFFFFFFFFFFFFFFFFFFFFFFFFFFF AND PUSH20 0xFFFFFFFFFFFFFFFFFFFFFFFFFFFFFFFFFFFFFFFF AND DUP2 MSTORE PUSH1 0x20 ADD SWAP1 DUP2 MSTORE PUSH1 0x20 ADD PUSH0 KECCAK256 SLOAD SWAP2 POP POP SWAP2 SWAP1 POP JUMP JUMPDEST PUSH2 0x103C DUP3 PUSH2 0x1036 PUSH2 0x1B11 JUMP JUMPDEST DUP4 PUSH2 0x1B2A JUMP JUMPDEST PUSH2 0x1046 DUP3 DUP3 PUSH2 0x213F JUMP JUMPDEST POP POP JUMP JUMPDEST PUSH0 PUSH2 0x1054 DUP3 PUSH2 0x2378 JUMP JUMPDEST SWAP1 POP SWAP2 SWAP1 POP JUMP JUMPDEST PUSH32 0x65D7A28E3265B37A6474929F336521B332C1681B933F6CB9F3376673440D862A PUSH2 0x1085 DUP2 PUSH2 0x1CD3 JUMP JUMPDEST PUSH2 0x108D PUSH2 0x2389 JUMP JUMPDEST POP JUMP JUMPDEST PUSH0 PUSH1 0x60 DUP1 PUSH0 DUP1 PUSH0 PUSH1 0x60 PUSH0 PUSH2 0x10A2 PUSH2 0x23F8 JUMP JUMPDEST SWAP1 POP PUSH0 DUP1 SHL DUP2 PUSH0 ADD SLOAD EQ DUP1 ISZERO PUSH2 0x10BD JUMPI POP PUSH0 DUP1 SHL DUP2 PUSH1 0x1 ADD SLOAD EQ JUMPDEST PUSH2 0x10FC JUMPI PUSH1 0x40 MLOAD PUSH32 0x8C379A000000000000000000000000000000000000000000000000000000000 DUP2 MSTORE PUSH1 0x4 ADD PUSH2 0x10F3 SWAP1 PUSH2 0x4B1D JUMP JUMPDEST PUSH1 0x40 MLOAD DUP1 SWAP2 SUB SWAP1 REVERT JUMPDEST PUSH2 0x1104 PUSH2 0x241F JUMP JUMPDEST PUSH2 0x110C PUSH2 0x24BD JUMP JUMPDEST CHAINID ADDRESS PUSH0 DUP1 SHL PUSH0 PUSH8 0xFFFFFFFFFFFFFFFF DUP2 GT ISZERO PUSH2 0x112B JUMPI PUSH2 0x112A PUSH2 0x4B3B JUMP JUMPDEST JUMPDEST PUSH1 0x40 MLOAD SWAP1 DUP1 DUP3 MSTORE DUP1 PUSH1 0x20 MUL PUSH1 0x20 ADD DUP3 ADD PUSH1 0x40 MSTORE DUP1 ISZERO PUSH2 0x1159 JUMPI DUP2 PUSH1 0x20 ADD PUSH1 0x20 DUP3 MUL DUP1 CALLDATASIZE DUP4 CALLDATACOPY DUP1 DUP3 ADD SWAP2 POP POP SWAP1 POP JUMPDEST POP PUSH32 0xF00000000000000000000000000000000000000000000000000000000000000 SWAP6 SWAP5 SWAP4 SWAP3 SWAP2 SWAP1 SWAP8 POP SWAP8 POP SWAP8 POP SWAP8 POP SWAP8 POP SWAP8 POP SWAP8 POP POP SWAP1 SWAP2 SWAP3 SWAP4 SWAP5 SWAP6 SWAP7 JUMP JUMPDEST PUSH0 DUP1 PUSH2 0x11A3 PUSH2 0x1EE5 JUMP JUMPDEST SWAP1 POP PUSH0 PUSH2 0x11AE PUSH2 0x12B2 JUMP JUMPDEST SWAP1 POP DUP1 PUSH6 0xFFFFFFFFFFFF AND DUP5 LT PUSH2 0x11FE JUMPI DUP4 DUP2 PUSH1 0x40 MLOAD PUSH32 0xECD3F81E00000000000000000000000000000000000000000000000000000000 DUP2 MSTORE PUSH1 0x4 ADD PUSH2 0x11F5 SWAP3 SWAP2 SWAP1 PUSH2 0x4936 JUMP JUMPDEST PUSH1 0x40 MLOAD DUP1 SWAP2 SUB SWAP1 REVERT JUMPDEST PUSH2 0x121C PUSH2 0x120A DUP6 PUSH2 0x1F0C JUMP JUMPDEST DUP4 PUSH1 0x2 ADD PUSH2 0x1F65 SWAP1 SWAP2 SWAP1 PUSH4 0xFFFFFFFF AND JUMP JUMPDEST PUSH26 0xFFFFFFFFFFFFFFFFFFFFFFFFFFFFFFFFFFFFFFFFFFFFFFFFFFFF AND SWAP3 POP POP POP SWAP2 SWAP1 POP JUMP JUMPDEST PUSH0 DUP1 PUSH2 0x124B PUSH2 0x1CAC JUMP JUMPDEST SWAP1 POP DUP1 PUSH0 ADD PUSH0 DUP6 DUP2 MSTORE PUSH1 0x20 ADD SWAP1 DUP2 MSTORE PUSH1 0x20 ADD PUSH0 KECCAK256 PUSH0 ADD PUSH0 DUP5 PUSH20 0xFFFFFFFFFFFFFFFFFFFFFFFFFFFFFFFFFFFFFFFF AND PUSH20 0xFFFFFFFFFFFFFFFFFFFFFFFFFFFFFFFFFFFFFFFF AND DUP2 MSTORE PUSH1 0x20 ADD SWAP1 DUP2 MSTORE PUSH1 0x20 ADD PUSH0 KECCAK256 PUSH0 SWAP1 SLOAD SWAP1 PUSH2 0x100 EXP SWAP1 DIV PUSH1 0xFF AND SWAP2 POP POP SWAP3 SWAP2 POP POP JUMP JUMPDEST PUSH0 PUSH2 0x12BB PUSH2 0x21BE JUMP JUMPDEST SWAP1 POP SWAP1 JUMP JUMPDEST PUSH1 0x60 PUSH0 PUSH2 0x12CB PUSH2 0x1AEA JUMP JUMPDEST SWAP1 POP DUP1 PUSH1 0x4 ADD DUP1 SLOAD PUSH2 0x12DC SWAP1 PUSH2 0x4906 JUMP JUMPDEST DUP1 PUSH1 0x1F ADD PUSH1 0x20 DUP1 SWAP2 DIV MUL PUSH1 0x20 ADD PUSH1 0x40 MLOAD SWAP1 DUP2 ADD PUSH1 0x40 MSTORE DUP1 SWAP3 SWAP2 SWAP1 DUP2 DUP2 MSTORE PUSH1 0x20 ADD DUP3 DUP1 SLOAD PUSH2 0x1308 SWAP1 PUSH2 0x4906 JUMP JUMPDEST DUP1 ISZERO PUSH2 0x1353 JUMPI DUP1 PUSH1 0x1F LT PUSH2 0x132A JUMPI PUSH2 0x100 DUP1 DUP4 SLOAD DIV MUL DUP4 MSTORE SWAP2 PUSH1 0x20 ADD SWAP2 PUSH2 0x1353 JUMP JUMPDEST DUP3 ADD SWAP2 SWAP1 PUSH0 MSTORE PUSH1 0x20 PUSH0 KECCAK256 SWAP1 JUMPDEST DUP2 SLOAD DUP2 MSTORE SWAP1 PUSH1 0x1 ADD SWAP1 PUSH1 0x20 ADD DUP1 DUP4 GT PUSH2 0x1336 JUMPI DUP3 SWAP1 SUB PUSH1 0x1F AND DUP3 ADD SWAP2 JUMPDEST POP POP POP POP POP SWAP2 POP POP SWAP1 JUMP JUMPDEST PUSH0 DUP1 PUSH2 0x1368 PUSH2 0x1EE5 JUMP JUMPDEST SWAP1 POP PUSH2 0x13B1 DUP2 PUSH1 0x1 ADD PUSH0 DUP6 PUSH20 0xFFFFFFFFFFFFFFFFFFFFFFFFFFFFFFFFFFFFFFFF AND PUSH20 0xFFFFFFFFFFFFFFFFFFFFFFFFFFFFFFFFFFFFFFFF AND DUP2 MSTORE PUSH1 0x20 ADD SWAP1 DUP2 MSTORE PUSH1 0x20 ADD PUSH0 KECCAK256 PUSH2 0x255B JUMP JUMPDEST PUSH26 0xFFFFFFFFFFFFFFFFFFFFFFFFFFFFFFFFFFFFFFFFFFFFFFFFFFFF AND SWAP2 POP POP SWAP2 SWAP1 POP JUMP JUMPDEST PUSH0 DUP1 SHL DUP2 JUMP JUMPDEST PUSH0 DUP1 PUSH2 0x13E5 PUSH2 0x1B11 JUMP JUMPDEST SWAP1 POP PUSH2 0x13F2 DUP2 DUP6 DUP6 PUSH2 0x1BBC JUMP JUMPDEST PUSH1 0x1 SWAP2 POP POP SWAP3 SWAP2 POP POP JUMP JUMPDEST PUSH0 PUSH2 0x1406 PUSH2 0x25BD JUMP JUMPDEST SWAP1 POP PUSH0 DUP2 PUSH0 ADD PUSH1 0x8 SWAP1 SLOAD SWAP1 PUSH2 0x100 EXP SWAP1 DIV PUSH1 0xFF AND ISZERO SWAP1 POP PUSH0 DUP3 PUSH0 ADD PUSH0 SWAP1 SLOAD SWAP1 PUSH2 0x100 EXP SWAP1 DIV PUSH8 0xFFFFFFFFFFFFFFFF AND SWAP1 POP PUSH0 DUP1 DUP3 PUSH8 0xFFFFFFFFFFFFFFFF AND EQ DUP1 ISZERO PUSH2 0x144E JUMPI POP DUP3 JUMPDEST SWAP1 POP PUSH0 PUSH1 0x1 DUP4 PUSH8 0xFFFFFFFFFFFFFFFF AND EQ DUP1 ISZERO PUSH2 0x1481 JUMPI POP PUSH0 ADDRESS PUSH20 0xFFFFFFFFFFFFFFFFFFFFFFFFFFFFFFFFFFFFFFFF AND EXTCODESIZE EQ JUMPDEST SWAP1 POP DUP2 ISZERO DUP1 ISZERO PUSH2 0x148F JUMPI POP DUP1 ISZERO JUMPDEST ISZERO PUSH2 0x14C6 JUMPI PUSH1 0x40 MLOAD PUSH32 0xF92EE8A900000000000000000000000000000000000000000000000000000000 DUP2 MSTORE PUSH1 0x4 ADD PUSH1 0x40 MLOAD DUP1 SWAP2 SUB SWAP1 REVERT JUMPDEST PUSH1 0x1 DUP6 PUSH0 ADD PUSH0 PUSH2 0x100 EXP DUP2 SLOAD DUP2 PUSH8 0xFFFFFFFFFFFFFFFF MUL NOT AND SWAP1 DUP4 PUSH8 0xFFFFFFFFFFFFFFFF AND MUL OR SWAP1 SSTORE POP DUP4 ISZERO PUSH2 0x1513 JUMPI PUSH1 0x1 DUP6 PUSH0 ADD PUSH1 0x8 PUSH2 0x100 EXP DUP2 SLOAD DUP2 PUSH1 0xFF MUL NOT AND SWAP1 DUP4 ISZERO ISZERO MUL OR SWAP1 SSTORE POP JUMPDEST PUSH2 0x1587 PUSH1 0x40 MLOAD DUP1 PUSH1 0x40 ADD PUSH1 0x40 MSTORE DUP1 PUSH1 0x3 DUP2 MSTORE PUSH1 0x20 ADD PUSH32 0x5141490000000000000000000000000000000000000000000000000000000000 DUP2 MSTORE POP PUSH1 0x40 MLOAD DUP1 PUSH1 0x40 ADD PUSH1 0x40 MSTORE DUP1 PUSH1 0x2 DUP2 MSTORE PUSH1 0x20 ADD PUSH32 0x4149000000000000000000000000000000000000000000000000000000000000 DUP2 MSTORE POP PUSH2 0x25E4 JUMP JUMPDEST PUSH2 0x158F PUSH2 0x25FA JUMP JUMPDEST PUSH2 0x1597 PUSH2 0x2604 JUMP JUMPDEST PUSH2 0x159F PUSH2 0x2616 JUMP JUMPDEST PUSH2 0x15DD PUSH1 0x40 MLOAD DUP1 PUSH1 0x40 ADD PUSH1 0x40 MSTORE DUP1 PUSH1 0x3 DUP2 MSTORE PUSH1 0x20 ADD PUSH32 0x5141490000000000000000000000000000000000000000000000000000000000 DUP2 MSTORE POP PUSH2 0x2620 JUMP JUMPDEST PUSH2 0x15E5 PUSH2 0x266A JUMP JUMPDEST PUSH2 0x15ED PUSH2 0x2674 JUMP JUMPDEST PUSH2 0x15F9 PUSH0 DUP1 SHL DUP10 PUSH2 0x1CE7 JUMP JUMPDEST POP PUSH2 0x1624 PUSH32 0x65D7A28E3265B37A6474929F336521B332C1681B933F6CB9F3376673440D862A DUP9 PUSH2 0x1CE7 JUMP JUMPDEST POP PUSH2 0x1651 CALLER PUSH2 0x1631 PUSH2 0xA24 JUMP JUMPDEST PUSH1 0xA PUSH2 0x163D SWAP2 SWAP1 PUSH2 0x4C97 JUMP JUMPDEST PUSH4 0x8F0D180 PUSH2 0x164C SWAP2 SWAP1 PUSH2 0x4CE1 JUMP JUMPDEST PUSH2 0x20C0 JUMP JUMPDEST PUSH2 0x167B PUSH32 0x9F2DF0FED2C77648DE5860A4CC508CD0818C85B8B8A1AB4CEEEF8D981C8956A6 DUP8 PUSH2 0x1CE7 JUMP JUMPDEST POP DUP4 ISZERO PUSH2 0x16D6 JUMPI PUSH0 DUP6 PUSH0 ADD PUSH1 0x8 PUSH2 0x100 EXP DUP2 SLOAD DUP2 PUSH1 0xFF MUL NOT AND SWAP1 DUP4 ISZERO ISZERO MUL OR SWAP1 SSTORE POP PUSH32 0xC7F505B2F371AE2175EE4913F4499E1F2633A7B5936321EED1CDAEB6115181D2 PUSH1 0x1 PUSH1 0x40 MLOAD PUSH2 0x16CD SWAP2 SWAP1 PUSH2 0x4D77 JUMP JUMPDEST PUSH1 0x40 MLOAD DUP1 SWAP2 SUB SWAP1 LOG1 JUMPDEST POP POP POP POP POP POP POP POP JUMP JUMPDEST DUP4 TIMESTAMP GT ISZERO PUSH2 0x1725 JUMPI DUP4 PUSH1 0x40 MLOAD PUSH32 0x4683AF0E00000000000000000000000000000000000000000000000000000000 DUP2 MSTORE PUSH1 0x4 ADD PUSH2 0x171C SWAP2 SWAP1 PUSH2 0x4128 JUMP JUMPDEST PUSH1 0x40 MLOAD DUP1 SWAP2 SUB SWAP1 REVERT JUMPDEST PUSH0 PUSH2 0x1786 PUSH2 0x177E PUSH32 0xE48329057BFD03D55E49B547132E39CFFD9C1820AD7B9D4C5307691425D15ADF DUP10 DUP10 DUP10 PUSH1 0x40 MLOAD PUSH1 0x20 ADD PUSH2 0x1763 SWAP5 SWAP4 SWAP3 SWAP2 SWAP1 PUSH2 0x4D90 JUMP JUMPDEST PUSH1 0x40 MLOAD PUSH1 0x20 DUP2 DUP4 SUB SUB DUP2 MSTORE SWAP1 PUSH1 0x40 MSTORE DUP1 MLOAD SWAP1 PUSH1 0x20 ADD KECCAK256 PUSH2 0x267E JUMP JUMPDEST DUP6 DUP6 DUP6 PUSH2 0x2697 JUMP JUMPDEST SWAP1 POP PUSH2 0x1792 DUP2 DUP8 PUSH2 0x26C5 JUMP JUMPDEST PUSH2 0x179C DUP2 DUP9 PUSH2 0x21CD JUMP JUMPDEST POP POP POP POP POP POP POP JUMP JUMPDEST DUP4 TIMESTAMP GT ISZERO PUSH2 0x17EA JUMPI DUP4 PUSH1 0x40 MLOAD PUSH32 0x6279130200000000000000000000000000000000000000000000000000000000 DUP2 MSTORE PUSH1 0x4 ADD PUSH2 0x17E1 SWAP2 SWAP1 PUSH2 0x4128 JUMP JUMPDEST PUSH1 0x40 MLOAD DUP1 SWAP2 SUB SWAP1 REVERT JUMPDEST PUSH0 PUSH32 0x6E71EDAE12B1B97F4D1F60370FEF10105FA2FAAE0126114A169C64845D6126C9 DUP9 DUP9 DUP9 PUSH2 0x1818 DUP13 PUSH2 0x271C JUMP JUMPDEST DUP10 PUSH1 0x40 MLOAD PUSH1 0x20 ADD PUSH2 0x182E SWAP7 SWAP6 SWAP5 SWAP4 SWAP3 SWAP2 SWAP1 PUSH2 0x4DD3 JUMP JUMPDEST PUSH1 0x40 MLOAD PUSH1 0x20 DUP2 DUP4 SUB SUB DUP2 MSTORE SWAP1 PUSH1 0x40 MSTORE DUP1 MLOAD SWAP1 PUSH1 0x20 ADD KECCAK256 SWAP1 POP PUSH0 PUSH2 0x1850 DUP3 PUSH2 0x267E JUMP JUMPDEST SWAP1 POP PUSH0 PUSH2 0x185F DUP3 DUP8 DUP8 DUP8 PUSH2 0x2697 JUMP JUMPDEST SWAP1 POP DUP10 PUSH20 0xFFFFFFFFFFFFFFFFFFFFFFFFFFFFFFFFFFFFFFFF AND DUP2 PUSH20 0xFFFFFFFFFFFFFFFFFFFFFFFFFFFFFFFFFFFFFFFF AND EQ PUSH2 0x18D3 JUMPI DUP1 DUP11 PUSH1 0x40 MLOAD PUSH32 0x4B800E4600000000000000000000000000000000000000000000000000000000 DUP2 MSTORE PUSH1 0x4 ADD PUSH2 0x18CA SWAP3 SWAP2 SWAP1 PUSH2 0x4E32 JUMP JUMPDEST PUSH1 0x40 MLOAD DUP1 SWAP2 SUB SWAP1 REVERT JUMPDEST PUSH2 0x18DE DUP11 DUP11 DUP11 PUSH2 0x1B18 JUMP JUMPDEST POP POP POP POP POP POP POP POP POP POP JUMP JUMPDEST PUSH32 0x9F2DF0FED2C77648DE5860A4CC508CD0818C85B8B8A1AB4CEEEF8D981C8956A6 DUP2 JUMP JUMPDEST PUSH2 0x1917 DUP3 PUSH2 0x9D8 JUMP JUMPDEST PUSH2 0x1920 DUP2 PUSH2 0x1CD3 JUMP JUMPDEST PUSH2 0x192A DUP4 DUP4 PUSH2 0x1DED JUMP JUMPDEST POP POP POP POP JUMP JUMPDEST PUSH0 ADDRESS PUSH20 0xFFFFFFFFFFFFFFFFFFFFFFFFFFFFFFFFFFFFFFFF AND DUP4 PUSH20 0xFFFFFFFFFFFFFFFFFFFFFFFFFFFFFFFFFFFFFFFF AND EQ PUSH2 0x19A1 JUMPI DUP3 PUSH1 0x40 MLOAD PUSH32 0xB5A7DB9200000000000000000000000000000000000000000000000000000000 DUP2 MSTORE PUSH1 0x4 ADD PUSH2 0x1998 SWAP2 SWAP1 PUSH2 0x42EE JUMP JUMPDEST PUSH1 0x40 MLOAD DUP1 SWAP2 SUB SWAP1 REVERT JUMPDEST PUSH2 0x19AB DUP4 DUP4 PUSH2 0x277C JUMP JUMPDEST SWAP1 POP SWAP3 SWAP2 POP POP JUMP JUMPDEST PUSH0 DUP1 PUSH2 0x19BD PUSH2 0x1AEA JUMP JUMPDEST SWAP1 POP DUP1 PUSH1 0x1 ADD PUSH0 DUP6 PUSH20 0xFFFFFFFFFFFFFFFFFFFFFFFFFFFFFFFFFFFFFFFF AND PUSH20 0xFFFFFFFFFFFFFFFFFFFFFFFFFFFFFFFFFFFFFFFF AND DUP2 MSTORE PUSH1 0x20 ADD SWAP1 DUP2 MSTORE PUSH1 0x20 ADD PUSH0 KECCAK256 PUSH0 DUP5 PUSH20 0xFFFFFFFFFFFFFFFFFFFFFFFFFFFFFFFFFFFFFFFF AND PUSH20 0xFFFFFFFFFFFFFFFFFFFFFFFFFFFFFFFFFFFFFFFF AND DUP2 MSTORE PUSH1 0x20 ADD SWAP1 DUP2 MSTORE PUSH1 0x20 ADD PUSH0 KECCAK256 SLOAD SWAP2 POP POP SWAP3 SWAP2 POP POP JUMP JUMPDEST PUSH32 0x65D7A28E3265B37A6474929F336521B332C1681B933F6CB9F3376673440D862A DUP2 JUMP JUMPDEST PUSH2 0x1A6F PUSH2 0x3EAD JUMP JUMPDEST PUSH2 0x1A79 DUP4 DUP4 PUSH2 0x2783 JUMP JUMPDEST SWAP1 POP SWAP3 SWAP2 POP POP JUMP JUMPDEST PUSH0 PUSH32 0x1FFC9A700000000000000000000000000000000000000000000000000000000 PUSH28 0xFFFFFFFFFFFFFFFFFFFFFFFFFFFFFFFFFFFFFFFFFFFFFFFFFFFFFFFF NOT AND DUP3 PUSH28 0xFFFFFFFFFFFFFFFFFFFFFFFFFFFFFFFFFFFFFFFFFFFFFFFFFFFFFFFF NOT AND EQ SWAP1 POP SWAP2 SWAP1 POP JUMP JUMPDEST PUSH0 PUSH32 0x52C63247E1F47DB19D5CE0460030C497F067CA4CEBF71BA98EEADABE20BACE00 SWAP1 POP SWAP1 JUMP JUMPDEST PUSH0 CALLER SWAP1 POP SWAP1 JUMP JUMPDEST PUSH2 0x1B25 DUP4 DUP4 DUP4 PUSH1 0x1 PUSH2 0x27F0 JUMP JUMPDEST POP POP POP JUMP JUMPDEST PUSH0 PUSH2 0x1B35 DUP5 DUP5 PUSH2 0x19B3 JUMP JUMPDEST SWAP1 POP PUSH32 0xFFFFFFFFFFFFFFFFFFFFFFFFFFFFFFFFFFFFFFFFFFFFFFFFFFFFFFFFFFFFFFFF DUP2 EQ PUSH2 0x1BB6 JUMPI DUP2 DUP2 LT ISZERO PUSH2 0x1BA7 JUMPI DUP3 DUP2 DUP4 PUSH1 0x40 MLOAD PUSH32 0xFB8F41B200000000000000000000000000000000000000000000000000000000 DUP2 MSTORE PUSH1 0x4 ADD PUSH2 0x1B9E SWAP4 SWAP3 SWAP2 SWAP1 PUSH2 0x4E59 JUMP JUMPDEST PUSH1 0x40 MLOAD DUP1 SWAP2 SUB SWAP1 REVERT JUMPDEST PUSH2 0x1BB5 DUP5 DUP5 DUP5 DUP5 SUB PUSH0 PUSH2 0x27F0 JUMP JUMPDEST JUMPDEST POP POP POP POP JUMP JUMPDEST PUSH0 PUSH20 0xFFFFFFFFFFFFFFFFFFFFFFFFFFFFFFFFFFFFFFFF AND DUP4 PUSH20 0xFFFFFFFFFFFFFFFFFFFFFFFFFFFFFFFFFFFFFFFF AND SUB PUSH2 0x1C2C JUMPI PUSH0 PUSH1 0x40 MLOAD PUSH32 0x96C6FD1E00000000000000000000000000000000000000000000000000000000 DUP2 MSTORE PUSH1 0x4 ADD PUSH2 0x1C23 SWAP2 SWAP1 PUSH2 0x42EE JUMP JUMPDEST PUSH1 0x40 MLOAD DUP1 SWAP2 SUB SWAP1 REVERT JUMPDEST PUSH0 PUSH20 0xFFFFFFFFFFFFFFFFFFFFFFFFFFFFFFFFFFFFFFFF AND DUP3 PUSH20 0xFFFFFFFFFFFFFFFFFFFFFFFFFFFFFFFFFFFFFFFF AND SUB PUSH2 0x1C9C JUMPI PUSH0 PUSH1 0x40 MLOAD PUSH32 0xEC442F0500000000000000000000000000000000000000000000000000000000 DUP2 MSTORE PUSH1 0x4 ADD PUSH2 0x1C93 SWAP2 SWAP1 PUSH2 0x42EE JUMP JUMPDEST PUSH1 0x40 MLOAD DUP1 SWAP2 SUB SWAP1 REVERT JUMPDEST PUSH2 0x1CA7 DUP4 DUP4 DUP4 PUSH2 0x29CD JUMP JUMPDEST POP POP POP JUMP JUMPDEST PUSH0 PUSH32 0x2DD7BC7DEC4DCEEDDA775E58DD541E08A116C6C53815C0BD028192F7B626800 SWAP1 POP SWAP1 JUMP JUMPDEST PUSH2 0x1CE4 DUP2 PUSH2 0x1CDF PUSH2 0x1B11 JUMP JUMPDEST PUSH2 0x29DD JUMP JUMPDEST POP JUMP JUMPDEST PUSH0 DUP1 PUSH2 0x1CF1 PUSH2 0x1CAC JUMP JUMPDEST SWAP1 POP PUSH2 0x1CFD DUP5 DUP5 PUSH2 0x1241 JUMP JUMPDEST PUSH2 0x1DD4 JUMPI PUSH1 0x1 DUP2 PUSH0 ADD PUSH0 DUP7 DUP2 MSTORE PUSH1 0x20 ADD SWAP1 DUP2 MSTORE PUSH1 0x20 ADD PUSH0 KECCAK256 PUSH0 ADD PUSH0 DUP6 PUSH20 0xFFFFFFFFFFFFFFFFFFFFFFFFFFFFFFFFFFFFFFFF AND PUSH20 0xFFFFFFFFFFFFFFFFFFFFFFFFFFFFFFFFFFFFFFFF AND DUP2 MSTORE PUSH1 0x20 ADD SWAP1 DUP2 MSTORE PUSH1 0x20 ADD PUSH0 KECCAK256 PUSH0 PUSH2 0x100 EXP DUP2 SLOAD DUP2 PUSH1 0xFF MUL NOT AND SWAP1 DUP4 ISZERO ISZERO MUL OR SWAP1 SSTORE POP PUSH2 0x1D70 PUSH2 0x1B11 JUMP JUMPDEST PUSH20 0xFFFFFFFFFFFFFFFFFFFFFFFFFFFFFFFFFFFFFFFF AND DUP4 PUSH20 0xFFFFFFFFFFFFFFFFFFFFFFFFFFFFFFFFFFFFFFFF AND DUP6 PUSH32 0x2F8788117E7EFF1D82E926EC794901D17C78024A50270940304540A733656F0D PUSH1 0x40 MLOAD PUSH1 0x40 MLOAD DUP1 SWAP2 SUB SWAP1 LOG4 PUSH1 0x1 SWAP2 POP POP PUSH2 0x1DD9 JUMP JUMPDEST PUSH0 SWAP2 POP POP JUMPDEST SWAP3 SWAP2 POP POP JUMP JUMPDEST PUSH0 PUSH2 0x1DE8 PUSH2 0x2A2E JUMP JUMPDEST SWAP1 POP SWAP1 JUMP JUMPDEST PUSH0 DUP1 PUSH2 0x1DF7 PUSH2 0x1CAC JUMP JUMPDEST SWAP1 POP PUSH2 0x1E03 DUP5 DUP5 PUSH2 0x1241 JUMP JUMPDEST ISZERO PUSH2 0x1EDA JUMPI PUSH0 DUP2 PUSH0 ADD PUSH0 DUP7 DUP2 MSTORE PUSH1 0x20 ADD SWAP1 DUP2 MSTORE PUSH1 0x20 ADD PUSH0 KECCAK256 PUSH0 ADD PUSH0 DUP6 PUSH20 0xFFFFFFFFFFFFFFFFFFFFFFFFFFFFFFFFFFFFFFFF AND PUSH20 0xFFFFFFFFFFFFFFFFFFFFFFFFFFFFFFFFFFFFFFFF AND DUP2 MSTORE PUSH1 0x20 ADD SWAP1 DUP2 MSTORE PUSH1 0x20 ADD PUSH0 KECCAK256 PUSH0 PUSH2 0x100 EXP DUP2 SLOAD DUP2 PUSH1 0xFF MUL NOT AND SWAP1 DUP4 ISZERO ISZERO MUL OR SWAP1 SSTORE POP PUSH2 0x1E76 PUSH2 0x1B11 JUMP JUMPDEST PUSH20 0xFFFFFFFFFFFFFFFFFFFFFFFFFFFFFFFFFFFFFFFF AND DUP4 PUSH20 0xFFFFFFFFFFFFFFFFFFFFFFFFFFFFFFFFFFFFFFFF AND DUP6 PUSH32 0xF6391F5C32D9C69D2A47EA670B442974B53935D1EDC7FD64EB21E047A839171B PUSH1 0x40 MLOAD PUSH1 0x40 MLOAD DUP1 SWAP2 SUB SWAP1 LOG4 PUSH1 0x1 SWAP2 POP POP PUSH2 0x1EDF JUMP JUMPDEST PUSH0 SWAP2 POP POP JUMPDEST SWAP3 SWAP2 POP POP JUMP JUMPDEST PUSH0 PUSH32 0xE8B26C30FAD74198956032A3533D903385D56DD795AF560196F9C78D4AF40D00 SWAP1 POP SWAP1 JUMP JUMPDEST PUSH0 PUSH6 0xFFFFFFFFFFFF DUP1 AND DUP3 GT ISZERO PUSH2 0x1F5D JUMPI PUSH1 0x30 DUP3 PUSH1 0x40 MLOAD PUSH32 0x6DFCC65000000000000000000000000000000000000000000000000000000000 DUP2 MSTORE PUSH1 0x4 ADD PUSH2 0x1F54 SWAP3 SWAP2 SWAP1 PUSH2 0x4EC7 JUMP JUMPDEST PUSH1 0x40 MLOAD DUP1 SWAP2 SUB SWAP1 REVERT JUMPDEST DUP2 SWAP1 POP SWAP2 SWAP1 POP JUMP JUMPDEST PUSH0 DUP1 DUP4 PUSH0 ADD DUP1 SLOAD SWAP1 POP SWAP1 POP PUSH0 DUP1 DUP3 SWAP1 POP PUSH1 0x5 DUP4 GT ISZERO PUSH2 0x1FE6 JUMPI PUSH0 PUSH2 0x1F88 DUP5 PUSH2 0x2A91 JUMP JUMPDEST DUP5 PUSH2 0x1F93 SWAP2 SWAP1 PUSH2 0x4AA0 JUMP JUMPDEST SWAP1 POP PUSH2 0x1FA1 DUP8 PUSH0 ADD DUP3 PUSH2 0x2B87 JUMP JUMPDEST PUSH0 ADD PUSH0 SWAP1 SLOAD SWAP1 PUSH2 0x100 EXP SWAP1 DIV PUSH6 0xFFFFFFFFFFFF AND PUSH6 0xFFFFFFFFFFFF AND DUP7 PUSH6 0xFFFFFFFFFFFF AND LT ISZERO PUSH2 0x1FD4 JUMPI DUP1 SWAP2 POP PUSH2 0x1FE4 JUMP JUMPDEST PUSH1 0x1 DUP2 PUSH2 0x1FE1 SWAP2 SWAP1 PUSH2 0x4A6D JUMP JUMPDEST SWAP3 POP JUMPDEST POP JUMPDEST PUSH0 PUSH2 0x1FF5 DUP8 PUSH0 ADD DUP8 DUP6 DUP6 PUSH2 0x2B99 JUMP JUMPDEST SWAP1 POP PUSH0 DUP2 EQ PUSH2 0x2044 JUMPI PUSH2 0x2016 DUP8 PUSH0 ADD PUSH1 0x1 DUP4 PUSH2 0x2011 SWAP2 SWAP1 PUSH2 0x4AA0 JUMP JUMPDEST PUSH2 0x2B87 JUMP JUMPDEST PUSH0 ADD PUSH1 0x6 SWAP1 SLOAD SWAP1 PUSH2 0x100 EXP SWAP1 DIV PUSH26 0xFFFFFFFFFFFFFFFFFFFFFFFFFFFFFFFFFFFFFFFFFFFFFFFFFFFF AND PUSH2 0x2046 JUMP JUMPDEST PUSH0 JUMPDEST SWAP5 POP POP POP POP POP SWAP3 SWAP2 POP POP JUMP JUMPDEST PUSH2 0x205A PUSH2 0x2C0E JUMP JUMPDEST PUSH0 PUSH2 0x2063 PUSH2 0x22EA JUMP JUMPDEST SWAP1 POP PUSH0 DUP2 PUSH0 ADD PUSH0 PUSH2 0x100 EXP DUP2 SLOAD DUP2 PUSH1 0xFF MUL NOT AND SWAP1 DUP4 ISZERO ISZERO MUL OR SWAP1 SSTORE POP PUSH32 0x5DB9EE0A495BF2E6FF9C91A7834C1BA4FDD244A5E8AA4E537BD38AEAE4B073AA PUSH2 0x20A8 PUSH2 0x1B11 JUMP JUMPDEST PUSH1 0x40 MLOAD PUSH2 0x20B5 SWAP2 SWAP1 PUSH2 0x42EE JUMP JUMPDEST PUSH1 0x40 MLOAD DUP1 SWAP2 SUB SWAP1 LOG1 POP JUMP JUMPDEST PUSH0 PUSH20 0xFFFFFFFFFFFFFFFFFFFFFFFFFFFFFFFFFFFFFFFF AND DUP3 PUSH20 0xFFFFFFFFFFFFFFFFFFFFFFFFFFFFFFFFFFFFFFFF AND SUB PUSH2 0x2130 JUMPI PUSH0 PUSH1 0x40 MLOAD PUSH32 0xEC442F0500000000000000000000000000000000000000000000000000000000 DUP2 MSTORE PUSH1 0x4 ADD PUSH2 0x2127 SWAP2 SWAP1 PUSH2 0x42EE JUMP JUMPDEST PUSH1 0x40 MLOAD DUP1 SWAP2 SUB SWAP1 REVERT JUMPDEST PUSH2 0x213B PUSH0 DUP4 DUP4 PUSH2 0x29CD JUMP JUMPDEST POP POP JUMP JUMPDEST PUSH0 PUSH20 0xFFFFFFFFFFFFFFFFFFFFFFFFFFFFFFFFFFFFFFFF AND DUP3 PUSH20 0xFFFFFFFFFFFFFFFFFFFFFFFFFFFFFFFFFFFFFFFF AND SUB PUSH2 0x21AF JUMPI PUSH0 PUSH1 0x40 MLOAD PUSH32 0x96C6FD1E00000000000000000000000000000000000000000000000000000000 DUP2 MSTORE PUSH1 0x4 ADD PUSH2 0x21A6 SWAP2 SWAP1 PUSH2 0x42EE JUMP JUMPDEST PUSH1 0x40 MLOAD DUP1 SWAP2 SUB SWAP1 REVERT JUMPDEST PUSH2 0x21BA DUP3 PUSH0 DUP4 PUSH2 0x29CD JUMP JUMPDEST POP POP JUMP JUMPDEST PUSH0 PUSH2 0x21C8 NUMBER PUSH2 0x1F0C JUMP JUMPDEST SWAP1 POP SWAP1 JUMP JUMPDEST PUSH0 PUSH2 0x21D6 PUSH2 0x1EE5 JUMP JUMPDEST SWAP1 POP PUSH0 PUSH2 0x21E2 DUP5 PUSH2 0xCAF JUMP JUMPDEST SWAP1 POP DUP3 DUP3 PUSH0 ADD PUSH0 DUP7 PUSH20 0xFFFFFFFFFFFFFFFFFFFFFFFFFFFFFFFFFFFFFFFF AND PUSH20 0xFFFFFFFFFFFFFFFFFFFFFFFFFFFFFFFFFFFFFFFF AND DUP2 MSTORE PUSH1 0x20 ADD SWAP1 DUP2 MSTORE PUSH1 0x20 ADD PUSH0 KECCAK256 PUSH0 PUSH2 0x100 EXP DUP2 SLOAD DUP2 PUSH20 0xFFFFFFFFFFFFFFFFFFFFFFFFFFFFFFFFFFFFFFFF MUL NOT AND SWAP1 DUP4 PUSH20 0xFFFFFFFFFFFFFFFFFFFFFFFFFFFFFFFFFFFFFFFF AND MUL OR SWAP1 SSTORE POP DUP3 PUSH20 0xFFFFFFFFFFFFFFFFFFFFFFFFFFFFFFFFFFFFFFFF AND DUP2 PUSH20 0xFFFFFFFFFFFFFFFFFFFFFFFFFFFFFFFFFFFFFFFF AND DUP6 PUSH20 0xFFFFFFFFFFFFFFFFFFFFFFFFFFFFFFFFFFFFFFFF AND PUSH32 0x3134E8A2E6D97E929A7E54011EA5485D7D196DD5F0BA4D4EF95803E8E3FC257F PUSH1 0x40 MLOAD PUSH1 0x40 MLOAD DUP1 SWAP2 SUB SWAP1 LOG4 PUSH2 0x22E4 DUP2 DUP5 PUSH2 0x22DF DUP8 PUSH2 0x2C4E JUMP JUMPDEST PUSH2 0x2C5F JUMP JUMPDEST POP POP POP POP JUMP JUMPDEST PUSH0 PUSH32 0xCD5ED15C6E187E77E9AEE88184C21F4F2182AB5827CB3B7E07FBEDCD63F03300 SWAP1 POP SWAP1 JUMP JUMPDEST PUSH0 SWAP1 JUMP JUMPDEST PUSH0 DUP1 PUSH2 0x231F PUSH2 0x1EE5 JUMP JUMPDEST SWAP1 POP PUSH2 0x2370 PUSH2 0x236B DUP3 PUSH1 0x1 ADD PUSH0 DUP7 PUSH20 0xFFFFFFFFFFFFFFFFFFFFFFFFFFFFFFFFFFFFFFFF AND PUSH20 0xFFFFFFFFFFFFFFFFFFFFFFFFFFFFFFFFFFFFFFFF AND DUP2 MSTORE PUSH1 0x20 ADD SWAP1 DUP2 MSTORE PUSH1 0x20 ADD PUSH0 KECCAK256 PUSH2 0x2EDF JUMP JUMPDEST PUSH2 0x2EEE JUMP JUMPDEST SWAP2 POP POP SWAP2 SWAP1 POP JUMP JUMPDEST PUSH0 PUSH2 0x2382 DUP3 PUSH2 0x2F45 JUMP JUMPDEST SWAP1 POP SWAP2 SWAP1 POP JUMP JUMPDEST PUSH2 0x2391 PUSH2 0x2F98 JUMP JUMPDEST PUSH0 PUSH2 0x239A PUSH2 0x22EA JUMP JUMPDEST SWAP1 POP PUSH1 0x1 DUP2 PUSH0 ADD PUSH0 PUSH2 0x100 EXP DUP2 SLOAD DUP2 PUSH1 0xFF MUL NOT AND SWAP1 DUP4 ISZERO ISZERO MUL OR SWAP1 SSTORE POP PUSH32 0x62E78CEA01BEE320CD4E420270B5EA74000D11B0C9F74754EBDBFC544B05A258 PUSH2 0x23E0 PUSH2 0x1B11 JUMP JUMPDEST PUSH1 0x40 MLOAD PUSH2 0x23ED SWAP2 SWAP1 PUSH2 0x42EE JUMP JUMPDEST PUSH1 0x40 MLOAD DUP1 SWAP2 SUB SWAP1 LOG1 POP JUMP JUMPDEST PUSH0 PUSH32 0xA16A46D94261C7517CC8FF89F61C0CE93598E3C849801011DEE649A6A557D100 SWAP1 POP SWAP1 JUMP JUMPDEST PUSH1 0x60 PUSH0 PUSH2 0x242A PUSH2 0x23F8 JUMP JUMPDEST SWAP1 POP DUP1 PUSH1 0x2 ADD DUP1 SLOAD PUSH2 0x243B SWAP1 PUSH2 0x4906 JUMP JUMPDEST DUP1 PUSH1 0x1F ADD PUSH1 0x20 DUP1 SWAP2 DIV MUL PUSH1 0x20 ADD PUSH1 0x40 MLOAD SWAP1 DUP2 ADD PUSH1 0x40 MSTORE DUP1 SWAP3 SWAP2 SWAP1 DUP2 DUP2 MSTORE PUSH1 0x20 ADD DUP3 DUP1 SLOAD PUSH2 0x2467 SWAP1 PUSH2 0x4906 JUMP JUMPDEST DUP1 ISZERO PUSH2 0x24B2 JUMPI DUP1 PUSH1 0x1F LT PUSH2 0x2489 JUMPI PUSH2 0x100 DUP1 DUP4 SLOAD DIV MUL DUP4 MSTORE SWAP2 PUSH1 0x20 ADD SWAP2 PUSH2 0x24B2 JUMP JUMPDEST DUP3 ADD SWAP2 SWAP1 PUSH0 MSTORE PUSH1 0x20 PUSH0 KECCAK256 SWAP1 JUMPDEST DUP2 SLOAD DUP2 MSTORE SWAP1 PUSH1 0x1 ADD SWAP1 PUSH1 0x20 ADD DUP1 DUP4 GT PUSH2 0x2495 JUMPI DUP3 SWAP1 SUB PUSH1 0x1F AND DUP3 ADD SWAP2 JUMPDEST POP POP POP POP POP SWAP2 POP POP SWAP1 JUMP JUMPDEST PUSH1 0x60 PUSH0 PUSH2 0x24C8 PUSH2 0x23F8 JUMP JUMPDEST SWAP1 POP DUP1 PUSH1 0x3 ADD DUP1 SLOAD PUSH2 0x24D9 SWAP1 PUSH2 0x4906 JUMP JUMPDEST DUP1 PUSH1 0x1F ADD PUSH1 0x20 DUP1 SWAP2 DIV MUL PUSH1 0x20 ADD PUSH1 0x40 MLOAD SWAP1 DUP2 ADD PUSH1 0x40 MSTORE DUP1 SWAP3 SWAP2 SWAP1 DUP2 DUP2 MSTORE PUSH1 0x20 ADD DUP3 DUP1 SLOAD PUSH2 0x2505 SWAP1 PUSH2 0x4906 JUMP JUMPDEST DUP1 ISZERO PUSH2 0x2550 JUMPI DUP1 PUSH1 0x1F LT PUSH2 0x2527 JUMPI PUSH2 0x100 DUP1 DUP4 SLOAD DIV MUL DUP4 MSTORE SWAP2 PUSH1 0x20 ADD SWAP2 PUSH2 0x2550 JUMP JUMPDEST DUP3 ADD SWAP2 SWAP1 PUSH0 MSTORE PUSH1 0x20 PUSH0 KECCAK256 SWAP1 JUMPDEST DUP2 SLOAD DUP2 MSTORE SWAP1 PUSH1 0x1 ADD SWAP1 PUSH1 0x20 ADD DUP1 DUP4 GT PUSH2 0x2533 JUMPI DUP3 SWAP1 SUB PUSH1 0x1F AND DUP3 ADD SWAP2 JUMPDEST POP POP POP POP POP SWAP2 POP POP SWAP1 JUMP JUMPDEST PUSH0 DUP1 DUP3 PUSH0 ADD DUP1 SLOAD SWAP1 POP SWAP1 POP PUSH0 DUP2 EQ PUSH2 0x25B3 JUMPI PUSH2 0x2585 DUP4 PUSH0 ADD PUSH1 0x1 DUP4 PUSH2 0x2580 SWAP2 SWAP1 PUSH2 0x4AA0 JUMP JUMPDEST PUSH2 0x2B87 JUMP JUMPDEST PUSH0 ADD PUSH1 0x6 SWAP1 SLOAD SWAP1 PUSH2 0x100 EXP SWAP1 DIV PUSH26 0xFFFFFFFFFFFFFFFFFFFFFFFFFFFFFFFFFFFFFFFFFFFFFFFFFFFF AND PUSH2 0x25B5 JUMP JUMPDEST PUSH0 JUMPDEST SWAP2 POP POP SWAP2 SWAP1 POP JUMP JUMPDEST PUSH0 PUSH32 0xF0C57E16840DF040F15088DC2F81FE391C3923BEC73E23A9662EFC9C229C6A00 SWAP1 POP SWAP1 JUMP JUMPDEST PUSH2 0x25EC PUSH2 0x2FD9 JUMP JUMPDEST PUSH2 0x25F6 DUP3 DUP3 PUSH2 0x3019 JUMP JUMPDEST POP POP JUMP JUMPDEST PUSH2 0x2602 PUSH2 0x2FD9 JUMP JUMPDEST JUMP JUMPDEST PUSH2 0x260C PUSH2 0x2FD9 JUMP JUMPDEST PUSH2 0x2614 PUSH2 0x3055 JUMP JUMPDEST JUMP JUMPDEST PUSH2 0x261E PUSH2 0x2FD9 JUMP JUMPDEST JUMP JUMPDEST PUSH2 0x2628 PUSH2 0x2FD9 JUMP JUMPDEST PUSH2 0x2667 DUP2 PUSH1 0x40 MLOAD DUP1 PUSH1 0x40 ADD PUSH1 0x40 MSTORE DUP1 PUSH1 0x1 DUP2 MSTORE PUSH1 0x20 ADD PUSH32 0x3100000000000000000000000000000000000000000000000000000000000000 DUP2 MSTORE POP PUSH2 0x3085 JUMP JUMPDEST POP JUMP JUMPDEST PUSH2 0x2672 PUSH2 0x2FD9 JUMP JUMPDEST JUMP JUMPDEST PUSH2 0x267C PUSH2 0x2FD9 JUMP JUMPDEST JUMP JUMPDEST PUSH0 PUSH2 0x2690 PUSH2 0x268A PUSH2 0x1DDF JUMP JUMPDEST DUP4 PUSH2 0x30D6 JUMP JUMPDEST SWAP1 POP SWAP2 SWAP1 POP JUMP JUMPDEST PUSH0 DUP1 PUSH0 DUP1 PUSH2 0x26A7 DUP9 DUP9 DUP9 DUP9 PUSH2 0x3116 JUMP JUMPDEST SWAP3 POP SWAP3 POP SWAP3 POP PUSH2 0x26B7 DUP3 DUP3 PUSH2 0x31FD JUMP JUMPDEST DUP3 SWAP4 POP POP POP POP SWAP5 SWAP4 POP POP POP POP JUMP JUMPDEST PUSH0 PUSH2 0x26CF DUP4 PUSH2 0x271C JUMP JUMPDEST SWAP1 POP DUP1 DUP3 EQ PUSH2 0x2717 JUMPI DUP3 DUP2 PUSH1 0x40 MLOAD PUSH32 0x752D88C000000000000000000000000000000000000000000000000000000000 DUP2 MSTORE PUSH1 0x4 ADD PUSH2 0x270E SWAP3 SWAP2 SWAP1 PUSH2 0x4EEE JUMP JUMPDEST PUSH1 0x40 MLOAD DUP1 SWAP2 SUB SWAP1 REVERT JUMPDEST POP POP POP JUMP JUMPDEST PUSH0 DUP1 PUSH2 0x2726 PUSH2 0x335F JUMP JUMPDEST SWAP1 POP DUP1 PUSH0 ADD PUSH0 DUP5 PUSH20 0xFFFFFFFFFFFFFFFFFFFFFFFFFFFFFFFFFFFFFFFF AND PUSH20 0xFFFFFFFFFFFFFFFFFFFFFFFFFFFFFFFFFFFFFFFF AND DUP2 MSTORE PUSH1 0x20 ADD SWAP1 DUP2 MSTORE PUSH1 0x20 ADD PUSH0 KECCAK256 PUSH0 DUP2 SLOAD DUP1 SWAP3 SWAP2 SWAP1 PUSH1 0x1 ADD SWAP2 SWAP1 POP SSTORE SWAP2 POP POP SWAP2 SWAP1 POP JUMP JUMPDEST PUSH0 SWAP3 SWAP2 POP POP JUMP JUMPDEST PUSH2 0x278B PUSH2 0x3EAD JUMP JUMPDEST PUSH0 PUSH2 0x2794 PUSH2 0x1EE5 JUMP JUMPDEST SWAP1 POP PUSH2 0x27E7 DUP4 DUP3 PUSH1 0x1 ADD PUSH0 DUP8 PUSH20 0xFFFFFFFFFFFFFFFFFFFFFFFFFFFFFFFFFFFFFFFF AND PUSH20 0xFFFFFFFFFFFFFFFFFFFFFFFFFFFFFFFFFFFFFFFF AND DUP2 MSTORE PUSH1 0x20 ADD SWAP1 DUP2 MSTORE PUSH1 0x20 ADD PUSH0 KECCAK256 PUSH2 0x3386 SWAP1 SWAP2 SWAP1 PUSH4 0xFFFFFFFF AND JUMP JUMPDEST SWAP2 POP POP SWAP3 SWAP2 POP POP JUMP JUMPDEST PUSH0 PUSH2 0x27F9 PUSH2 0x1AEA JUMP JUMPDEST SWAP1 POP PUSH0 PUSH20 0xFFFFFFFFFFFFFFFFFFFFFFFFFFFFFFFFFFFFFFFF AND DUP6 PUSH20 0xFFFFFFFFFFFFFFFFFFFFFFFFFFFFFFFFFFFFFFFF AND SUB PUSH2 0x286B JUMPI PUSH0 PUSH1 0x40 MLOAD PUSH32 0xE602DF0500000000000000000000000000000000000000000000000000000000 DUP2 MSTORE PUSH1 0x4 ADD PUSH2 0x2862 SWAP2 SWAP1 PUSH2 0x42EE JUMP JUMPDEST PUSH1 0x40 MLOAD DUP1 SWAP2 SUB SWAP1 REVERT JUMPDEST PUSH0 PUSH20 0xFFFFFFFFFFFFFFFFFFFFFFFFFFFFFFFFFFFFFFFF AND DUP5 PUSH20 0xFFFFFFFFFFFFFFFFFFFFFFFFFFFFFFFFFFFFFFFF AND SUB PUSH2 0x28DB JUMPI PUSH0 PUSH1 0x40 MLOAD PUSH32 0x94280D6200000000000000000000000000000000000000000000000000000000 DUP2 MSTORE PUSH1 0x4 ADD PUSH2 0x28D2 SWAP2 SWAP1 PUSH2 0x42EE JUMP JUMPDEST PUSH1 0x40 MLOAD DUP1 SWAP2 SUB SWAP1 REVERT JUMPDEST DUP3 DUP2 PUSH1 0x1 ADD PUSH0 DUP8 PUSH20 0xFFFFFFFFFFFFFFFFFFFFFFFFFFFFFFFFFFFFFFFF AND PUSH20 0xFFFFFFFFFFFFFFFFFFFFFFFFFFFFFFFFFFFFFFFF AND DUP2 MSTORE PUSH1 0x20 ADD SWAP1 DUP2 MSTORE PUSH1 0x20 ADD PUSH0 KECCAK256 PUSH0 DUP7 PUSH20 0xFFFFFFFFFFFFFFFFFFFFFFFFFFFFFFFFFFFFFFFF AND PUSH20 0xFFFFFFFFFFFFFFFFFFFFFFFFFFFFFFFFFFFFFFFF AND DUP2 MSTORE PUSH1 0x20 ADD SWAP1 DUP2 MSTORE PUSH1 0x20 ADD PUSH0 KECCAK256 DUP2 SWAP1 SSTORE POP DUP2 ISZERO PUSH2 0x29C6 JUMPI DUP4 PUSH20 0xFFFFFFFFFFFFFFFFFFFFFFFFFFFFFFFFFFFFFFFF AND DUP6 PUSH20 0xFFFFFFFFFFFFFFFFFFFFFFFFFFFFFFFFFFFFFFFF AND PUSH32 0x8C5BE1E5EBEC7D5BD14F71427D1E84F3DD0314C0F7B2291E5B200AC8C7C3B925 DUP6 PUSH1 0x40 MLOAD PUSH2 0x29BD SWAP2 SWAP1 PUSH2 0x4128 JUMP JUMPDEST PUSH1 0x40 MLOAD DUP1 SWAP2 SUB SWAP1 LOG3 JUMPDEST POP POP POP POP POP JUMP JUMPDEST PUSH2 0x29D8 DUP4 DUP4 DUP4 PUSH2 0x3455 JUMP JUMPDEST POP POP POP JUMP JUMPDEST PUSH2 0x29E7 DUP3 DUP3 PUSH2 0x1241 JUMP JUMPDEST PUSH2 0x2A2A JUMPI DUP1 DUP3 PUSH1 0x40 MLOAD PUSH32 0xE2517D3F00000000000000000000000000000000000000000000000000000000 DUP2 MSTORE PUSH1 0x4 ADD PUSH2 0x2A21 SWAP3 SWAP2 SWAP1 PUSH2 0x4F15 JUMP JUMPDEST PUSH1 0x40 MLOAD DUP1 SWAP2 SUB SWAP1 REVERT JUMPDEST POP POP JUMP JUMPDEST PUSH0 PUSH32 0x8B73C3C69BB8FE3D512ECC4CF759CC79239F7B179B0FFACAA9A75D522B39400F PUSH2 0x2A58 PUSH2 0x3503 JUMP JUMPDEST PUSH2 0x2A60 PUSH2 0x3579 JUMP JUMPDEST CHAINID ADDRESS PUSH1 0x40 MLOAD PUSH1 0x20 ADD PUSH2 0x2A76 SWAP6 SWAP5 SWAP4 SWAP3 SWAP2 SWAP1 PUSH2 0x4F3C JUMP JUMPDEST PUSH1 0x40 MLOAD PUSH1 0x20 DUP2 DUP4 SUB SUB DUP2 MSTORE SWAP1 PUSH1 0x40 MSTORE DUP1 MLOAD SWAP1 PUSH1 0x20 ADD KECCAK256 SWAP1 POP SWAP1 JUMP JUMPDEST PUSH0 DUP1 DUP3 SUB PUSH2 0x2AA1 JUMPI PUSH0 SWAP1 POP PUSH2 0x2B82 JUMP JUMPDEST PUSH0 PUSH1 0x1 PUSH2 0x2AAD DUP5 PUSH2 0x35F0 JUMP JUMPDEST SWAP1 SHR PUSH1 0x1 SWAP1 SHL SWAP1 POP PUSH1 0x1 DUP2 DUP5 DUP2 PUSH2 0x2AC7 JUMPI PUSH2 0x2AC6 PUSH2 0x4F8D JUMP JUMPDEST JUMPDEST DIV DUP3 ADD SWAP1 SHR SWAP1 POP PUSH1 0x1 DUP2 DUP5 DUP2 PUSH2 0x2AE0 JUMPI PUSH2 0x2ADF PUSH2 0x4F8D JUMP JUMPDEST JUMPDEST DIV DUP3 ADD SWAP1 SHR SWAP1 POP PUSH1 0x1 DUP2 DUP5 DUP2 PUSH2 0x2AF9 JUMPI PUSH2 0x2AF8 PUSH2 0x4F8D JUMP JUMPDEST JUMPDEST DIV DUP3 ADD SWAP1 SHR SWAP1 POP PUSH1 0x1 DUP2 DUP5 DUP2 PUSH2 0x2B12 JUMPI PUSH2 0x2B11 PUSH2 0x4F8D JUMP JUMPDEST JUMPDEST DIV DUP3 ADD SWAP1 SHR SWAP1 POP PUSH1 0x1 DUP2 DUP5 DUP2 PUSH2 0x2B2B JUMPI PUSH2 0x2B2A PUSH2 0x4F8D JUMP JUMPDEST JUMPDEST DIV DUP3 ADD SWAP1 SHR SWAP1 POP PUSH1 0x1 DUP2 DUP5 DUP2 PUSH2 0x2B44 JUMPI PUSH2 0x2B43 PUSH2 0x4F8D JUMP JUMPDEST JUMPDEST DIV DUP3 ADD SWAP1 SHR SWAP1 POP PUSH1 0x1 DUP2 DUP5 DUP2 PUSH2 0x2B5D JUMPI PUSH2 0x2B5C PUSH2 0x4F8D JUMP JUMPDEST JUMPDEST DIV DUP3 ADD SWAP1 SHR SWAP1 POP PUSH2 0x2B7E DUP2 DUP3 DUP6 DUP2 PUSH2 0x2B78 JUMPI PUSH2 0x2B77 PUSH2 0x4F8D JUMP JUMPDEST JUMPDEST DIV PUSH2 0x36C7 JUMP JUMPDEST SWAP2 POP POP JUMPDEST SWAP2 SWAP1 POP JUMP JUMPDEST PUSH0 DUP3 PUSH0 MSTORE DUP2 PUSH1 0x20 PUSH0 KECCAK256 ADD SWAP1 POP SWAP3 SWAP2 POP POP JUMP JUMPDEST PUSH0 JUMPDEST DUP2 DUP4 LT ISZERO PUSH2 0x2C03 JUMPI PUSH0 PUSH2 0x2BAE DUP5 DUP5 PUSH2 0x36DF JUMP JUMPDEST SWAP1 POP DUP5 PUSH6 0xFFFFFFFFFFFF AND PUSH2 0x2BC3 DUP8 DUP4 PUSH2 0x2B87 JUMP JUMPDEST PUSH0 ADD PUSH0 SWAP1 SLOAD SWAP1 PUSH2 0x100 EXP SWAP1 DIV PUSH6 0xFFFFFFFFFFFF AND PUSH6 0xFFFFFFFFFFFF AND GT ISZERO PUSH2 0x2BED JUMPI DUP1 SWAP3 POP PUSH2 0x2BFD JUMP JUMPDEST PUSH1 0x1 DUP2 PUSH2 0x2BFA SWAP2 SWAP1 PUSH2 0x4A6D JUMP JUMPDEST SWAP4 POP JUMPDEST POP PUSH2 0x2B9B JUMP JUMPDEST DUP2 SWAP1 POP SWAP5 SWAP4 POP POP POP POP JUMP JUMPDEST PUSH2 0x2C16 PUSH2 0xD3A JUMP JUMPDEST PUSH2 0x2C4C JUMPI PUSH1 0x40 MLOAD PUSH32 0x8DFC202B00000000000000000000000000000000000000000000000000000000 DUP2 MSTORE PUSH1 0x4 ADD PUSH1 0x40 MLOAD DUP1 SWAP2 SUB SWAP1 REVERT JUMPDEST JUMP JUMPDEST PUSH0 PUSH2 0x2C58 DUP3 PUSH2 0xFD7 JUMP JUMPDEST SWAP1 POP SWAP2 SWAP1 POP JUMP JUMPDEST PUSH0 PUSH2 0x2C68 PUSH2 0x1EE5 JUMP JUMPDEST SWAP1 POP DUP3 PUSH20 0xFFFFFFFFFFFFFFFFFFFFFFFFFFFFFFFFFFFFFFFF AND DUP5 PUSH20 0xFFFFFFFFFFFFFFFFFFFFFFFFFFFFFFFFFFFFFFFF AND EQ ISZERO DUP1 ISZERO PUSH2 0x2CA5 JUMPI POP PUSH0 DUP3 GT JUMPDEST ISZERO PUSH2 0x2ED9 JUMPI PUSH0 PUSH20 0xFFFFFFFFFFFFFFFFFFFFFFFFFFFFFFFFFFFFFFFF AND DUP5 PUSH20 0xFFFFFFFFFFFFFFFFFFFFFFFFFFFFFFFFFFFFFFFF AND EQ PUSH2 0x2DC1 JUMPI PUSH0 DUP1 PUSH2 0x2D32 DUP4 PUSH1 0x1 ADD PUSH0 DUP9 PUSH20 0xFFFFFFFFFFFFFFFFFFFFFFFFFFFFFFFFFFFFFFFF AND PUSH20 0xFFFFFFFFFFFFFFFFFFFFFFFFFFFFFFFFFFFFFFFF AND DUP2 MSTORE PUSH1 0x20 ADD SWAP1 DUP2 MSTORE PUSH1 0x20 ADD PUSH0 KECCAK256 PUSH2 0x3704 PUSH2 0x2D2D DUP8 PUSH2 0x3719 JUMP JUMPDEST PUSH2 0x3786 JUMP JUMPDEST PUSH26 0xFFFFFFFFFFFFFFFFFFFFFFFFFFFFFFFFFFFFFFFFFFFFFFFFFFFF AND SWAP2 POP PUSH26 0xFFFFFFFFFFFFFFFFFFFFFFFFFFFFFFFFFFFFFFFFFFFFFFFFFFFF AND SWAP2 POP DUP6 PUSH20 0xFFFFFFFFFFFFFFFFFFFFFFFFFFFFFFFFFFFFFFFF AND PUSH32 0xDEC2BACDD2F05B59DE34DA9B523DFF8BE42E5E38E818C82FDB0BAE774387A724 DUP4 DUP4 PUSH1 0x40 MLOAD PUSH2 0x2DB6 SWAP3 SWAP2 SWAP1 PUSH2 0x4FBA JUMP JUMPDEST PUSH1 0x40 MLOAD DUP1 SWAP2 SUB SWAP1 LOG2 POP POP JUMPDEST PUSH0 PUSH20 0xFFFFFFFFFFFFFFFFFFFFFFFFFFFFFFFFFFFFFFFF AND DUP4 PUSH20 0xFFFFFFFFFFFFFFFFFFFFFFFFFFFFFFFFFFFFFFFF AND EQ PUSH2 0x2ED8 JUMPI PUSH0 DUP1 PUSH2 0x2E49 DUP4 PUSH1 0x1 ADD PUSH0 DUP8 PUSH20 0xFFFFFFFFFFFFFFFFFFFFFFFFFFFFFFFFFFFFFFFF AND PUSH20 0xFFFFFFFFFFFFFFFFFFFFFFFFFFFFFFFFFFFFFFFF AND DUP2 MSTORE PUSH1 0x20 ADD SWAP1 DUP2 MSTORE PUSH1 0x20 ADD PUSH0 KECCAK256 PUSH2 0x37C5 PUSH2 0x2E44 DUP8 PUSH2 0x3719 JUMP JUMPDEST PUSH2 0x3786 JUMP JUMPDEST PUSH26 0xFFFFFFFFFFFFFFFFFFFFFFFFFFFFFFFFFFFFFFFFFFFFFFFFFFFF AND SWAP2 POP PUSH26 0xFFFFFFFFFFFFFFFFFFFFFFFFFFFFFFFFFFFFFFFFFFFFFFFFFFFF AND SWAP2 POP DUP5 PUSH20 0xFFFFFFFFFFFFFFFFFFFFFFFFFFFFFFFFFFFFFFFF AND PUSH32 0xDEC2BACDD2F05B59DE34DA9B523DFF8BE42E5E38E818C82FDB0BAE774387A724 DUP4 DUP4 PUSH1 0x40 MLOAD PUSH2 0x2ECD SWAP3 SWAP2 SWAP1 PUSH2 0x4FBA JUMP JUMPDEST PUSH1 0x40 MLOAD DUP1 SWAP2 SUB SWAP1 LOG2 POP POP JUMPDEST JUMPDEST POP POP POP POP JUMP JUMPDEST PUSH0 DUP2 PUSH0 ADD DUP1 SLOAD SWAP1 POP SWAP1 POP SWAP2 SWAP1 POP JUMP JUMPDEST PUSH0 PUSH4 0xFFFFFFFF DUP1 AND DUP3 GT ISZERO PUSH2 0x2F3D JUMPI PUSH1 0x20 DUP3 PUSH1 0x40 MLOAD PUSH32 0x6DFCC65000000000000000000000000000000000000000000000000000000000 DUP2 MSTORE PUSH1 0x4 ADD PUSH2 0x2F34 SWAP3 SWAP2 SWAP1 PUSH2 0x501A JUMP JUMPDEST PUSH1 0x40 MLOAD DUP1 SWAP2 SUB SWAP1 REVERT JUMPDEST DUP2 SWAP1 POP SWAP2 SWAP1 POP JUMP JUMPDEST PUSH0 DUP1 PUSH2 0x2F4F PUSH2 0x335F JUMP JUMPDEST SWAP1 POP DUP1 PUSH0 ADD PUSH0 DUP5 PUSH20 0xFFFFFFFFFFFFFFFFFFFFFFFFFFFFFFFFFFFFFFFF AND PUSH20 0xFFFFFFFFFFFFFFFFFFFFFFFFFFFFFFFFFFFFFFFF AND DUP2 MSTORE PUSH1 0x20 ADD SWAP1 DUP2 MSTORE PUSH1 0x20 ADD PUSH0 KECCAK256 SLOAD SWAP2 POP POP SWAP2 SWAP1 POP JUMP JUMPDEST PUSH2 0x2FA0 PUSH2 0xD3A JUMP JUMPDEST ISZERO PUSH2 0x2FD7 JUMPI PUSH1 0x40 MLOAD PUSH32 0xD93C066500000000000000000000000000000000000000000000000000000000 DUP2 MSTORE PUSH1 0x4 ADD PUSH1 0x40 MLOAD DUP1 SWAP2 SUB SWAP1 REVERT JUMPDEST JUMP JUMPDEST PUSH2 0x2FE1 PUSH2 0x37DA JUMP JUMPDEST PUSH2 0x3017 JUMPI PUSH1 0x40 MLOAD PUSH32 0xD7E6BCF800000000000000000000000000000000000000000000000000000000 DUP2 MSTORE PUSH1 0x4 ADD PUSH1 0x40 MLOAD DUP1 SWAP2 SUB SWAP1 REVERT JUMPDEST JUMP JUMPDEST PUSH2 0x3021 PUSH2 0x2FD9 JUMP JUMPDEST PUSH0 PUSH2 0x302A PUSH2 0x1AEA JUMP JUMPDEST SWAP1 POP DUP3 DUP2 PUSH1 0x3 ADD SWAP1 DUP2 PUSH2 0x303D SWAP2 SWAP1 PUSH2 0x51D5 JUMP JUMPDEST POP DUP2 DUP2 PUSH1 0x4 ADD SWAP1 DUP2 PUSH2 0x304F SWAP2 SWAP1 PUSH2 0x51D5 JUMP JUMPDEST POP POP POP POP JUMP JUMPDEST PUSH2 0x305D PUSH2 0x2FD9 JUMP JUMPDEST PUSH0 PUSH2 0x3066 PUSH2 0x22EA JUMP JUMPDEST SWAP1 POP PUSH0 DUP2 PUSH0 ADD PUSH0 PUSH2 0x100 EXP DUP2 SLOAD DUP2 PUSH1 0xFF MUL NOT AND SWAP1 DUP4 ISZERO ISZERO MUL OR SWAP1 SSTORE POP POP JUMP JUMPDEST PUSH2 0x308D PUSH2 0x2FD9 JUMP JUMPDEST PUSH0 PUSH2 0x3096 PUSH2 0x23F8 JUMP JUMPDEST SWAP1 POP DUP3 DUP2 PUSH1 0x2 ADD SWAP1 DUP2 PUSH2 0x30A9 SWAP2 SWAP1 PUSH2 0x51D5 JUMP JUMPDEST POP DUP2 DUP2 PUSH1 0x3 ADD SWAP1 DUP2 PUSH2 0x30BB SWAP2 SWAP1 PUSH2 0x51D5 JUMP JUMPDEST POP PUSH0 DUP1 SHL DUP2 PUSH0 ADD DUP2 SWAP1 SSTORE POP PUSH0 DUP1 SHL DUP2 PUSH1 0x1 ADD DUP2 SWAP1 SSTORE POP POP POP POP JUMP JUMPDEST PUSH0 PUSH1 0x40 MLOAD PUSH32 0x1901000000000000000000000000000000000000000000000000000000000000 DUP2 MSTORE DUP4 PUSH1 0x2 DUP3 ADD MSTORE DUP3 PUSH1 0x22 DUP3 ADD MSTORE PUSH1 0x42 DUP2 KECCAK256 SWAP2 POP POP SWAP3 SWAP2 POP POP JUMP JUMPDEST PUSH0 DUP1 PUSH0 PUSH32 0x7FFFFFFFFFFFFFFFFFFFFFFFFFFFFFFF5D576E7357A4501DDFE92F46681B20A0 DUP5 PUSH0 SHR GT ISZERO PUSH2 0x3152 JUMPI PUSH0 PUSH1 0x3 DUP6 SWAP3 POP SWAP3 POP SWAP3 POP PUSH2 0x31F3 JUMP JUMPDEST PUSH0 PUSH1 0x1 DUP9 DUP9 DUP9 DUP9 PUSH1 0x40 MLOAD PUSH0 DUP2 MSTORE PUSH1 0x20 ADD PUSH1 0x40 MSTORE PUSH1 0x40 MLOAD PUSH2 0x3175 SWAP5 SWAP4 SWAP3 SWAP2 SWAP1 PUSH2 0x52A4 JUMP JUMPDEST PUSH1 0x20 PUSH1 0x40 MLOAD PUSH1 0x20 DUP2 SUB SWAP1 DUP1 DUP5 SUB SWAP1 DUP6 GAS STATICCALL ISZERO DUP1 ISZERO PUSH2 0x3195 JUMPI RETURNDATASIZE PUSH0 DUP1 RETURNDATACOPY RETURNDATASIZE PUSH0 REVERT JUMPDEST POP POP POP PUSH1 0x20 PUSH1 0x40 MLOAD SUB MLOAD SWAP1 POP PUSH0 PUSH20 0xFFFFFFFFFFFFFFFFFFFFFFFFFFFFFFFFFFFFFFFF AND DUP2 PUSH20 0xFFFFFFFFFFFFFFFFFFFFFFFFFFFFFFFFFFFFFFFF AND SUB PUSH2 0x31E6 JUMPI PUSH0 PUSH1 0x1 PUSH0 DUP1 SHL SWAP4 POP SWAP4 POP SWAP4 POP POP PUSH2 0x31F3 JUMP JUMPDEST DUP1 PUSH0 DUP1 PUSH0 SHL SWAP4 POP SWAP4 POP SWAP4 POP POP JUMPDEST SWAP5 POP SWAP5 POP SWAP5 SWAP2 POP POP JUMP JUMPDEST PUSH0 PUSH1 0x3 DUP2 GT ISZERO PUSH2 0x3210 JUMPI PUSH2 0x320F PUSH2 0x52E7 JUMP JUMPDEST JUMPDEST DUP3 PUSH1 0x3 DUP2 GT ISZERO PUSH2 0x3223 JUMPI PUSH2 0x3222 PUSH2 0x52E7 JUMP JUMPDEST JUMPDEST SUB ISZERO PUSH2 0x335B JUMPI PUSH1 0x1 PUSH1 0x3 DUP2 GT ISZERO PUSH2 0x323D JUMPI PUSH2 0x323C PUSH2 0x52E7 JUMP JUMPDEST JUMPDEST DUP3 PUSH1 0x3 DUP2 GT ISZERO PUSH2 0x3250 JUMPI PUSH2 0x324F PUSH2 0x52E7 JUMP JUMPDEST JUMPDEST SUB PUSH2 0x3287 JUMPI PUSH1 0x40 MLOAD PUSH32 0xF645EEDF00000000000000000000000000000000000000000000000000000000 DUP2 MSTORE PUSH1 0x4 ADD PUSH1 0x40 MLOAD DUP1 SWAP2 SUB SWAP1 REVERT JUMPDEST PUSH1 0x2 PUSH1 0x3 DUP2 GT ISZERO PUSH2 0x329B JUMPI PUSH2 0x329A PUSH2 0x52E7 JUMP JUMPDEST JUMPDEST DUP3 PUSH1 0x3 DUP2 GT ISZERO PUSH2 0x32AE JUMPI PUSH2 0x32AD PUSH2 0x52E7 JUMP JUMPDEST JUMPDEST SUB PUSH2 0x32F2 JUMPI DUP1 PUSH0 SHR PUSH1 0x40 MLOAD PUSH32 0xFCE698F700000000000000000000000000000000000000000000000000000000 DUP2 MSTORE PUSH1 0x4 ADD PUSH2 0x32E9 SWAP2 SWAP1 PUSH2 0x4128 JUMP JUMPDEST PUSH1 0x40 MLOAD DUP1 SWAP2 SUB SWAP1 REVERT JUMPDEST PUSH1 0x3 DUP1 DUP2 GT ISZERO PUSH2 0x3305 JUMPI PUSH2 0x3304 PUSH2 0x52E7 JUMP JUMPDEST JUMPDEST DUP3 PUSH1 0x3 DUP2 GT ISZERO PUSH2 0x3318 JUMPI PUSH2 0x3317 PUSH2 0x52E7 JUMP JUMPDEST JUMPDEST SUB PUSH2 0x335A JUMPI DUP1 PUSH1 0x40 MLOAD PUSH32 0xD78BCE0C00000000000000000000000000000000000000000000000000000000 DUP2 MSTORE PUSH1 0x4 ADD PUSH2 0x3351 SWAP2 SWAP1 PUSH2 0x41FE JUMP JUMPDEST PUSH1 0x40 MLOAD DUP1 SWAP2 SUB SWAP1 REVERT JUMPDEST JUMPDEST POP POP JUMP JUMPDEST PUSH0 PUSH32 0x5AB42CED628888259C08AC98DB1EB0CF702FC1501344311D8B100CD1BFE4BB00 SWAP1 POP SWAP1 JUMP JUMPDEST PUSH2 0x338E PUSH2 0x3EAD JUMP JUMPDEST DUP3 PUSH0 ADD DUP3 PUSH4 0xFFFFFFFF AND DUP2 SLOAD DUP2 LT PUSH2 0x33A9 JUMPI PUSH2 0x33A8 PUSH2 0x5314 JUMP JUMPDEST JUMPDEST SWAP1 PUSH0 MSTORE PUSH1 0x20 PUSH0 KECCAK256 ADD PUSH1 0x40 MLOAD DUP1 PUSH1 0x40 ADD PUSH1 0x40 MSTORE SWAP1 DUP2 PUSH0 DUP3 ADD PUSH0 SWAP1 SLOAD SWAP1 PUSH2 0x100 EXP SWAP1 DIV PUSH6 0xFFFFFFFFFFFF AND PUSH6 0xFFFFFFFFFFFF AND PUSH6 0xFFFFFFFFFFFF AND DUP2 MSTORE PUSH1 0x20 ADD PUSH0 DUP3 ADD PUSH1 0x6 SWAP1 SLOAD SWAP1 PUSH2 0x100 EXP SWAP1 DIV PUSH26 0xFFFFFFFFFFFFFFFFFFFFFFFFFFFFFFFFFFFFFFFFFFFFFFFFFFFF AND PUSH26 0xFFFFFFFFFFFFFFFFFFFFFFFFFFFFFFFFFFFFFFFFFFFFFFFFFFFF AND PUSH26 0xFFFFFFFFFFFFFFFFFFFFFFFFFFFFFFFFFFFFFFFFFFFFFFFFFFFF AND DUP2 MSTORE POP POP SWAP1 POP SWAP3 SWAP2 POP POP JUMP JUMPDEST PUSH2 0x3460 DUP4 DUP4 DUP4 PUSH2 0x37F8 JUMP JUMPDEST PUSH0 PUSH20 0xFFFFFFFFFFFFFFFFFFFFFFFFFFFFFFFFFFFFFFFF AND DUP4 PUSH20 0xFFFFFFFFFFFFFFFFFFFFFFFFFFFFFFFFFFFFFFFF AND SUB PUSH2 0x34F3 JUMPI PUSH0 PUSH2 0x349C PUSH2 0x993 JUMP JUMPDEST SWAP1 POP PUSH0 PUSH2 0x34A7 PUSH2 0x3810 JUMP JUMPDEST SWAP1 POP DUP1 DUP3 GT ISZERO PUSH2 0x34F0 JUMPI DUP2 DUP2 PUSH1 0x40 MLOAD PUSH32 0x1CB15D2600000000000000000000000000000000000000000000000000000000 DUP2 MSTORE PUSH1 0x4 ADD PUSH2 0x34E7 SWAP3 SWAP2 SWAP1 PUSH2 0x4FBA JUMP JUMPDEST PUSH1 0x40 MLOAD DUP1 SWAP2 SUB SWAP1 REVERT JUMPDEST POP POP JUMPDEST PUSH2 0x34FE DUP4 DUP4 DUP4 PUSH2 0x3833 JUMP JUMPDEST POP POP POP JUMP JUMPDEST PUSH0 DUP1 PUSH2 0x350D PUSH2 0x23F8 JUMP JUMPDEST SWAP1 POP PUSH0 PUSH2 0x3518 PUSH2 0x241F JUMP JUMPDEST SWAP1 POP PUSH0 DUP2 MLOAD GT ISZERO PUSH2 0x3534 JUMPI DUP1 DUP1 MLOAD SWAP1 PUSH1 0x20 ADD KECCAK256 SWAP3 POP POP POP PUSH2 0x3576 JUMP JUMPDEST PUSH0 DUP3 PUSH0 ADD SLOAD SWAP1 POP PUSH0 DUP1 SHL DUP2 EQ PUSH2 0x354F JUMPI DUP1 SWAP4 POP POP POP POP PUSH2 0x3576 JUMP JUMPDEST PUSH32 0xC5D2460186F7233C927E7DB2DCC703C0E500B653CA82273B7BFAD8045D85A470 SWAP4 POP POP POP POP JUMPDEST SWAP1 JUMP JUMPDEST PUSH0 DUP1 PUSH2 0x3583 PUSH2 0x23F8 JUMP JUMPDEST SWAP1 POP PUSH0 PUSH2 0x358E PUSH2 0x24BD JUMP JUMPDEST SWAP1 POP PUSH0 DUP2 MLOAD GT ISZERO PUSH2 0x35AA JUMPI DUP1 DUP1 MLOAD SWAP1 PUSH1 0x20 ADD KECCAK256 SWAP3 POP POP POP PUSH2 0x35ED JUMP JUMPDEST PUSH0 DUP3 PUSH1 0x1 ADD SLOAD SWAP1 POP PUSH0 DUP1 SHL DUP2 EQ PUSH2 0x35C6 JUMPI DUP1 SWAP4 POP POP POP POP PUSH2 0x35ED JUMP JUMPDEST PUSH32 0xC5D2460186F7233C927E7DB2DCC703C0E500B653CA82273B7BFAD8045D85A470 SWAP4 POP POP POP POP JUMPDEST SWAP1 JUMP JUMPDEST PUSH0 DUP1 PUSH0 SWAP1 POP PUSH0 PUSH1 0x80 DUP5 SWAP1 SHR GT ISZERO PUSH2 0x360F JUMPI PUSH1 0x80 DUP4 SWAP1 SHR SWAP3 POP PUSH1 0x80 DUP2 ADD SWAP1 POP JUMPDEST PUSH0 PUSH1 0x40 DUP5 SWAP1 SHR GT ISZERO PUSH2 0x3629 JUMPI PUSH1 0x40 DUP4 SWAP1 SHR SWAP3 POP PUSH1 0x40 DUP2 ADD SWAP1 POP JUMPDEST PUSH0 PUSH1 0x20 DUP5 SWAP1 SHR GT ISZERO PUSH2 0x3643 JUMPI PUSH1 0x20 DUP4 SWAP1 SHR SWAP3 POP PUSH1 0x20 DUP2 ADD SWAP1 POP JUMPDEST PUSH0 PUSH1 0x10 DUP5 SWAP1 SHR GT ISZERO PUSH2 0x365D JUMPI PUSH1 0x10 DUP4 SWAP1 SHR SWAP3 POP PUSH1 0x10 DUP2 ADD SWAP1 POP JUMPDEST PUSH0 PUSH1 0x8 DUP5 SWAP1 SHR GT ISZERO PUSH2 0x3677 JUMPI PUSH1 0x8 DUP4 SWAP1 SHR SWAP3 POP PUSH1 0x8 DUP2 ADD SWAP1 POP JUMPDEST PUSH0 PUSH1 0x4 DUP5 SWAP1 SHR GT ISZERO PUSH2 0x3691 JUMPI PUSH1 0x4 DUP4 SWAP1 SHR SWAP3 POP PUSH1 0x4 DUP2 ADD SWAP1 POP JUMPDEST PUSH0 PUSH1 0x2 DUP5 SWAP1 SHR GT ISZERO PUSH2 0x36AB JUMPI PUSH1 0x2 DUP4 SWAP1 SHR SWAP3 POP PUSH1 0x2 DUP2 ADD SWAP1 POP JUMPDEST PUSH0 PUSH1 0x1 DUP5 SWAP1 SHR GT ISZERO PUSH2 0x36BE JUMPI PUSH1 0x1 DUP2 ADD SWAP1 POP JUMPDEST DUP1 SWAP2 POP POP SWAP2 SWAP1 POP JUMP JUMPDEST PUSH0 DUP2 DUP4 LT PUSH2 0x36D5 JUMPI DUP2 PUSH2 0x36D7 JUMP JUMPDEST DUP3 JUMPDEST SWAP1 POP SWAP3 SWAP2 POP POP JUMP JUMPDEST PUSH0 PUSH1 0x2 DUP3 DUP5 XOR PUSH2 0x36EF SWAP2 SWAP1 PUSH2 0x5341 JUMP JUMPDEST DUP3 DUP5 AND PUSH2 0x36FC SWAP2 SWAP1 PUSH2 0x4A6D JUMP JUMPDEST SWAP1 POP SWAP3 SWAP2 POP POP JUMP JUMPDEST PUSH0 DUP2 DUP4 PUSH2 0x3711 SWAP2 SWAP1 PUSH2 0x5371 JUMP JUMPDEST SWAP1 POP SWAP3 SWAP2 POP POP JUMP JUMPDEST PUSH0 PUSH26 0xFFFFFFFFFFFFFFFFFFFFFFFFFFFFFFFFFFFFFFFFFFFFFFFFFFFF DUP1 AND DUP3 GT ISZERO PUSH2 0x377E JUMPI PUSH1 0xD0 DUP3 PUSH1 0x40 MLOAD PUSH32 0x6DFCC65000000000000000000000000000000000000000000000000000000000 DUP2 MSTORE PUSH1 0x4 ADD PUSH2 0x3775 SWAP3 SWAP2 SWAP1 PUSH2 0x53F7 JUMP JUMPDEST PUSH1 0x40 MLOAD DUP1 SWAP2 SUB SWAP1 REVERT JUMPDEST DUP2 SWAP1 POP SWAP2 SWAP1 POP JUMP JUMPDEST PUSH0 DUP1 PUSH2 0x37B9 PUSH2 0x3793 PUSH2 0x12B2 JUMP JUMPDEST PUSH2 0x37A9 PUSH2 0x379F DUP9 PUSH2 0x255B JUMP JUMPDEST DUP7 DUP9 PUSH4 0xFFFFFFFF AND JUMP JUMPDEST DUP8 PUSH2 0x38FB SWAP1 SWAP3 SWAP2 SWAP1 PUSH4 0xFFFFFFFF AND JUMP JUMPDEST SWAP2 POP SWAP2 POP SWAP4 POP SWAP4 SWAP2 POP POP JUMP JUMPDEST PUSH0 DUP2 DUP4 PUSH2 0x37D2 SWAP2 SWAP1 PUSH2 0x541E JUMP JUMPDEST SWAP1 POP SWAP3 SWAP2 POP POP JUMP JUMPDEST PUSH0 PUSH2 0x37E3 PUSH2 0x25BD JUMP JUMPDEST PUSH0 ADD PUSH1 0x8 SWAP1 SLOAD SWAP1 PUSH2 0x100 EXP SWAP1 DIV PUSH1 0xFF AND SWAP1 POP SWAP1 JUMP JUMPDEST PUSH2 0x3800 PUSH2 0x2F98 JUMP JUMPDEST PUSH2 0x380B DUP4 DUP4 DUP4 PUSH2 0x3916 JUMP JUMPDEST POP POP POP JUMP JUMPDEST PUSH0 PUSH26 0xFFFFFFFFFFFFFFFFFFFFFFFFFFFFFFFFFFFFFFFFFFFFFFFFFFFF DUP1 AND SWAP1 POP SWAP1 JUMP JUMPDEST PUSH0 PUSH2 0x383C PUSH2 0x1EE5 JUMP JUMPDEST SWAP1 POP PUSH0 PUSH20 0xFFFFFFFFFFFFFFFFFFFFFFFFFFFFFFFFFFFFFFFF AND DUP5 PUSH20 0xFFFFFFFFFFFFFFFFFFFFFFFFFFFFFFFFFFFFFFFF AND SUB PUSH2 0x388C JUMPI PUSH2 0x3889 DUP2 PUSH1 0x2 ADD PUSH2 0x37C5 PUSH2 0x3884 DUP6 PUSH2 0x3719 JUMP JUMPDEST PUSH2 0x3786 JUMP JUMPDEST POP POP JUMPDEST PUSH0 PUSH20 0xFFFFFFFFFFFFFFFFFFFFFFFFFFFFFFFFFFFFFFFF AND DUP4 PUSH20 0xFFFFFFFFFFFFFFFFFFFFFFFFFFFFFFFFFFFFFFFF AND SUB PUSH2 0x38DA JUMPI PUSH2 0x38D7 DUP2 PUSH1 0x2 ADD PUSH2 0x3704 PUSH2 0x38D2 DUP6 PUSH2 0x3719 JUMP JUMPDEST PUSH2 0x3786 JUMP JUMPDEST POP POP JUMPDEST PUSH2 0x38F5 PUSH2 0x38E6 DUP6 PUSH2 0xCAF JUMP JUMPDEST PUSH2 0x38EF DUP6 PUSH2 0xCAF JUMP JUMPDEST DUP5 PUSH2 0x2C5F JUMP JUMPDEST POP POP POP POP JUMP JUMPDEST PUSH0 DUP1 PUSH2 0x390A DUP6 PUSH0 ADD DUP6 DUP6 PUSH2 0x3B45 JUMP JUMPDEST SWAP2 POP SWAP2 POP SWAP4 POP SWAP4 SWAP2 POP POP JUMP JUMPDEST PUSH0 PUSH2 0x391F PUSH2 0x1AEA JUMP JUMPDEST SWAP1 POP PUSH0 PUSH20 0xFFFFFFFFFFFFFFFFFFFFFFFFFFFFFFFFFFFFFFFF AND DUP5 PUSH20 0xFFFFFFFFFFFFFFFFFFFFFFFFFFFFFFFFFFFFFFFF AND SUB PUSH2 0x3973 JUMPI DUP2 DUP2 PUSH1 0x2 ADD PUSH0 DUP3 DUP3 SLOAD PUSH2 0x3967 SWAP2 SWAP1 PUSH2 0x4A6D JUMP JUMPDEST SWAP3 POP POP DUP2 SWAP1 SSTORE POP PUSH2 0x3A45 JUMP JUMPDEST PUSH0 DUP2 PUSH0 ADD PUSH0 DUP7 PUSH20 0xFFFFFFFFFFFFFFFFFFFFFFFFFFFFFFFFFFFFFFFF AND PUSH20 0xFFFFFFFFFFFFFFFFFFFFFFFFFFFFFFFFFFFFFFFF AND DUP2 MSTORE PUSH1 0x20 ADD SWAP1 DUP2 MSTORE PUSH1 0x20 ADD PUSH0 KECCAK256 SLOAD SWAP1 POP DUP3 DUP2 LT ISZERO PUSH2 0x39FE JUMPI DUP5 DUP2 DUP5 PUSH1 0x40 MLOAD PUSH32 0xE450D38C00000000000000000000000000000000000000000000000000000000 DUP2 MSTORE PUSH1 0x4 ADD PUSH2 0x39F5 SWAP4 SWAP3 SWAP2 SWAP1 PUSH2 0x4E59 JUMP JUMPDEST PUSH1 0x40 MLOAD DUP1 SWAP2 SUB SWAP1 REVERT JUMPDEST DUP3 DUP2 SUB DUP3 PUSH0 ADD PUSH0 DUP8 PUSH20 0xFFFFFFFFFFFFFFFFFFFFFFFFFFFFFFFFFFFFFFFF AND PUSH20 0xFFFFFFFFFFFFFFFFFFFFFFFFFFFFFFFFFFFFFFFF AND DUP2 MSTORE PUSH1 0x20 ADD SWAP1 DUP2 MSTORE PUSH1 0x20 ADD PUSH0 KECCAK256 DUP2 SWAP1 SSTORE POP POP JUMPDEST PUSH0 PUSH20 0xFFFFFFFFFFFFFFFFFFFFFFFFFFFFFFFFFFFFFFFF AND DUP4 PUSH20 0xFFFFFFFFFFFFFFFFFFFFFFFFFFFFFFFFFFFFFFFF AND SUB PUSH2 0x3A8E JUMPI DUP2 DUP2 PUSH1 0x2 ADD PUSH0 DUP3 DUP3 SLOAD SUB SWAP3 POP POP DUP2 SWAP1 SSTORE POP PUSH2 0x3ADA JUMP JUMPDEST DUP2 DUP2 PUSH0 ADD PUSH0 DUP6 PUSH20 0xFFFFFFFFFFFFFFFFFFFFFFFFFFFFFFFFFFFFFFFF AND PUSH20 0xFFFFFFFFFFFFFFFFFFFFFFFFFFFFFFFFFFFFFFFF AND DUP2 MSTORE PUSH1 0x20 ADD SWAP1 DUP2 MSTORE PUSH1 0x20 ADD PUSH0 KECCAK256 PUSH0 DUP3 DUP3 SLOAD ADD SWAP3 POP POP DUP2 SWAP1 SSTORE POP JUMPDEST DUP3 PUSH20 0xFFFFFFFFFFFFFFFFFFFFFFFFFFFFFFFFFFFFFFFF AND DUP5 PUSH20 0xFFFFFFFFFFFFFFFFFFFFFFFFFFFFFFFFFFFFFFFF AND PUSH32 0xDDF252AD1BE2C89B69C2B068FC378DAA952BA7F163C4A11628F55A4DF523B3EF DUP5 PUSH1 0x40 MLOAD PUSH2 0x3B37 SWAP2 SWAP1 PUSH2 0x4128 JUMP JUMPDEST PUSH1 0x40 MLOAD DUP1 SWAP2 SUB SWAP1 LOG3 POP POP POP POP JUMP JUMPDEST PUSH0 DUP1 PUSH0 DUP6 DUP1 SLOAD SWAP1 POP SWAP1 POP PUSH0 DUP2 GT ISZERO PUSH2 0x3DC5 JUMPI PUSH0 PUSH2 0x3B6E DUP8 PUSH1 0x1 DUP5 PUSH2 0x3B69 SWAP2 SWAP1 PUSH2 0x4AA0 JUMP JUMPDEST PUSH2 0x2B87 JUMP JUMPDEST PUSH1 0x40 MLOAD DUP1 PUSH1 0x40 ADD PUSH1 0x40 MSTORE SWAP1 DUP2 PUSH0 DUP3 ADD PUSH0 SWAP1 SLOAD SWAP1 PUSH2 0x100 EXP SWAP1 DIV PUSH6 0xFFFFFFFFFFFF AND PUSH6 0xFFFFFFFFFFFF AND PUSH6 0xFFFFFFFFFFFF AND DUP2 MSTORE PUSH1 0x20 ADD PUSH0 DUP3 ADD PUSH1 0x6 SWAP1 SLOAD SWAP1 PUSH2 0x100 EXP SWAP1 DIV PUSH26 0xFFFFFFFFFFFFFFFFFFFFFFFFFFFFFFFFFFFFFFFFFFFFFFFFFFFF AND PUSH26 0xFFFFFFFFFFFFFFFFFFFFFFFFFFFFFFFFFFFFFFFFFFFFFFFFFFFF AND PUSH26 0xFFFFFFFFFFFFFFFFFFFFFFFFFFFFFFFFFFFFFFFFFFFFFFFFFFFF AND DUP2 MSTORE POP POP SWAP1 POP DUP6 PUSH6 0xFFFFFFFFFFFF AND DUP2 PUSH0 ADD MLOAD PUSH6 0xFFFFFFFFFFFF AND GT ISZERO PUSH2 0x3C59 JUMPI PUSH1 0x40 MLOAD PUSH32 0x2520601D00000000000000000000000000000000000000000000000000000000 DUP2 MSTORE PUSH1 0x4 ADD PUSH1 0x40 MLOAD DUP1 SWAP2 SUB SWAP1 REVERT JUMPDEST DUP6 PUSH6 0xFFFFFFFFFFFF AND DUP2 PUSH0 ADD MLOAD PUSH6 0xFFFFFFFFFFFF AND SUB PUSH2 0x3CDB JUMPI DUP5 PUSH2 0x3C8A DUP9 PUSH1 0x1 DUP6 PUSH2 0x3C85 SWAP2 SWAP1 PUSH2 0x4AA0 JUMP JUMPDEST PUSH2 0x2B87 JUMP JUMPDEST PUSH0 ADD PUSH1 0x6 PUSH2 0x100 EXP DUP2 SLOAD DUP2 PUSH26 0xFFFFFFFFFFFFFFFFFFFFFFFFFFFFFFFFFFFFFFFFFFFFFFFFFFFF MUL NOT AND SWAP1 DUP4 PUSH26 0xFFFFFFFFFFFFFFFFFFFFFFFFFFFFFFFFFFFFFFFFFFFFFFFFFFFF AND MUL OR SWAP1 SSTORE POP PUSH2 0x3DB4 JUMP JUMPDEST DUP7 PUSH1 0x40 MLOAD DUP1 PUSH1 0x40 ADD PUSH1 0x40 MSTORE DUP1 DUP9 PUSH6 0xFFFFFFFFFFFF AND DUP2 MSTORE PUSH1 0x20 ADD DUP8 PUSH26 0xFFFFFFFFFFFFFFFFFFFFFFFFFFFFFFFFFFFFFFFFFFFFFFFFFFFF AND DUP2 MSTORE POP SWAP1 DUP1 PUSH1 0x1 DUP2 SLOAD ADD DUP1 DUP3 SSTORE DUP1 SWAP2 POP POP PUSH1 0x1 SWAP1 SUB SWAP1 PUSH0 MSTORE PUSH1 0x20 PUSH0 KECCAK256 ADD PUSH0 SWAP1 SWAP2 SWAP1 SWAP2 SWAP1 SWAP2 POP PUSH0 DUP3 ADD MLOAD DUP2 PUSH0 ADD PUSH0 PUSH2 0x100 EXP DUP2 SLOAD DUP2 PUSH6 0xFFFFFFFFFFFF MUL NOT AND SWAP1 DUP4 PUSH6 0xFFFFFFFFFFFF AND MUL OR SWAP1 SSTORE POP PUSH1 0x20 DUP3 ADD MLOAD DUP2 PUSH0 ADD PUSH1 0x6 PUSH2 0x100 EXP DUP2 SLOAD DUP2 PUSH26 0xFFFFFFFFFFFFFFFFFFFFFFFFFFFFFFFFFFFFFFFFFFFFFFFFFFFF MUL NOT AND SWAP1 DUP4 PUSH26 0xFFFFFFFFFFFFFFFFFFFFFFFFFFFFFFFFFFFFFFFFFFFFFFFFFFFF AND MUL OR SWAP1 SSTORE POP POP POP JUMPDEST DUP1 PUSH1 0x20 ADD MLOAD DUP6 SWAP4 POP SWAP4 POP POP POP PUSH2 0x3EA5 JUMP JUMPDEST DUP6 PUSH1 0x40 MLOAD DUP1 PUSH1 0x40 ADD PUSH1 0x40 MSTORE DUP1 DUP8 PUSH6 0xFFFFFFFFFFFF AND DUP2 MSTORE PUSH1 0x20 ADD DUP7 PUSH26 0xFFFFFFFFFFFFFFFFFFFFFFFFFFFFFFFFFFFFFFFFFFFFFFFFFFFF AND DUP2 MSTORE POP SWAP1 DUP1 PUSH1 0x1 DUP2 SLOAD ADD DUP1 DUP3 SSTORE DUP1 SWAP2 POP POP PUSH1 0x1 SWAP1 SUB SWAP1 PUSH0 MSTORE PUSH1 0x20 PUSH0 KECCAK256 ADD PUSH0 SWAP1 SWAP2 SWAP1 SWAP2 SWAP1 SWAP2 POP PUSH0 DUP3 ADD MLOAD DUP2 PUSH0 ADD PUSH0 PUSH2 0x100 EXP DUP2 SLOAD DUP2 PUSH6 0xFFFFFFFFFFFF MUL NOT AND SWAP1 DUP4 PUSH6 0xFFFFFFFFFFFF AND MUL OR SWAP1 SSTORE POP PUSH1 0x20 DUP3 ADD MLOAD DUP2 PUSH0 ADD PUSH1 0x6 PUSH2 0x100 EXP DUP2 SLOAD DUP2 PUSH26 0xFFFFFFFFFFFFFFFFFFFFFFFFFFFFFFFFFFFFFFFFFFFFFFFFFFFF MUL NOT AND SWAP1 DUP4 PUSH26 0xFFFFFFFFFFFFFFFFFFFFFFFFFFFFFFFFFFFFFFFFFFFFFFFFFFFF AND MUL OR SWAP1 SSTORE POP POP POP PUSH0 DUP5 SWAP3 POP SWAP3 POP POP JUMPDEST SWAP4 POP SWAP4 SWAP2 POP POP JUMP JUMPDEST PUSH1 0x40 MLOAD DUP1 PUSH1 0x40 ADD PUSH1 0x40 MSTORE DUP1 PUSH0 PUSH6 0xFFFFFFFFFFFF AND DUP2 MSTORE PUSH1 0x20 ADD PUSH0 PUSH26 0xFFFFFFFFFFFFFFFFFFFFFFFFFFFFFFFFFFFFFFFFFFFFFFFFFFFF AND DUP2 MSTORE POP SWAP1 JUMP JUMPDEST PUSH0 DUP1 REVERT JUMPDEST PUSH0 DUP1 REVERT JUMPDEST PUSH0 PUSH32 0xFFFFFFFF00000000000000000000000000000000000000000000000000000000 DUP3 AND SWAP1 POP SWAP2 SWAP1 POP JUMP JUMPDEST PUSH2 0x3F25 DUP2 PUSH2 0x3EF1 JUMP JUMPDEST DUP2 EQ PUSH2 0x3F2F JUMPI PUSH0 DUP1 REVERT JUMPDEST POP JUMP JUMPDEST PUSH0 DUP2 CALLDATALOAD SWAP1 POP PUSH2 0x3F40 DUP2 PUSH2 0x3F1C JUMP JUMPDEST SWAP3 SWAP2 POP POP JUMP JUMPDEST PUSH0 PUSH1 0x20 DUP3 DUP5 SUB SLT ISZERO PUSH2 0x3F5B JUMPI PUSH2 0x3F5A PUSH2 0x3EE9 JUMP JUMPDEST JUMPDEST PUSH0 PUSH2 0x3F68 DUP5 DUP3 DUP6 ADD PUSH2 0x3F32 JUMP JUMPDEST SWAP2 POP POP SWAP3 SWAP2 POP POP JUMP JUMPDEST PUSH0 DUP2 ISZERO ISZERO SWAP1 POP SWAP2 SWAP1 POP JUMP JUMPDEST PUSH2 0x3F85 DUP2 PUSH2 0x3F71 JUMP JUMPDEST DUP3 MSTORE POP POP JUMP JUMPDEST PUSH0 PUSH1 0x20 DUP3 ADD SWAP1 POP PUSH2 0x3F9E PUSH0 DUP4 ADD DUP5 PUSH2 0x3F7C JUMP JUMPDEST SWAP3 SWAP2 POP POP JUMP JUMPDEST PUSH0 DUP2 MLOAD SWAP1 POP SWAP2 SWAP1 POP JUMP JUMPDEST PUSH0 DUP3 DUP3 MSTORE PUSH1 0x20 DUP3 ADD SWAP1 POP SWAP3 SWAP2 POP POP JUMP JUMPDEST PUSH0 JUMPDEST DUP4 DUP2 LT ISZERO PUSH2 0x3FDB JUMPI DUP1 DUP3 ADD MLOAD DUP2 DUP5 ADD MSTORE PUSH1 0x20 DUP2 ADD SWAP1 POP PUSH2 0x3FC0 JUMP JUMPDEST PUSH0 DUP5 DUP5 ADD MSTORE POP POP POP POP JUMP JUMPDEST PUSH0 PUSH1 0x1F NOT PUSH1 0x1F DUP4 ADD AND SWAP1 POP SWAP2 SWAP1 POP JUMP JUMPDEST PUSH0 PUSH2 0x4000 DUP3 PUSH2 0x3FA4 JUMP JUMPDEST PUSH2 0x400A DUP2 DUP6 PUSH2 0x3FAE JUMP JUMPDEST SWAP4 POP PUSH2 0x401A DUP2 DUP6 PUSH1 0x20 DUP7 ADD PUSH2 0x3FBE JUMP JUMPDEST PUSH2 0x4023 DUP2 PUSH2 0x3FE6 JUMP JUMPDEST DUP5 ADD SWAP2 POP POP SWAP3 SWAP2 POP POP JUMP JUMPDEST PUSH0 PUSH1 0x20 DUP3 ADD SWAP1 POP DUP2 DUP2 SUB PUSH0 DUP4 ADD MSTORE PUSH2 0x4046 DUP2 DUP5 PUSH2 0x3FF6 JUMP JUMPDEST SWAP1 POP SWAP3 SWAP2 POP POP JUMP JUMPDEST PUSH0 PUSH20 0xFFFFFFFFFFFFFFFFFFFFFFFFFFFFFFFFFFFFFFFF DUP3 AND SWAP1 POP SWAP2 SWAP1 POP JUMP JUMPDEST PUSH0 PUSH2 0x4077 DUP3 PUSH2 0x404E JUMP JUMPDEST SWAP1 POP SWAP2 SWAP1 POP JUMP JUMPDEST PUSH2 0x4087 DUP2 PUSH2 0x406D JUMP JUMPDEST DUP2 EQ PUSH2 0x4091 JUMPI PUSH0 DUP1 REVERT JUMPDEST POP JUMP JUMPDEST PUSH0 DUP2 CALLDATALOAD SWAP1 POP PUSH2 0x40A2 DUP2 PUSH2 0x407E JUMP JUMPDEST SWAP3 SWAP2 POP POP JUMP JUMPDEST PUSH0 DUP2 SWAP1 POP SWAP2 SWAP1 POP JUMP JUMPDEST PUSH2 0x40BA DUP2 PUSH2 0x40A8 JUMP JUMPDEST DUP2 EQ PUSH2 0x40C4 JUMPI PUSH0 DUP1 REVERT JUMPDEST POP JUMP JUMPDEST PUSH0 DUP2 CALLDATALOAD SWAP1 POP PUSH2 0x40D5 DUP2 PUSH2 0x40B1 JUMP JUMPDEST SWAP3 SWAP2 POP POP JUMP JUMPDEST PUSH0 DUP1 PUSH1 0x40 DUP4 DUP6 SUB SLT ISZERO PUSH2 0x40F1 JUMPI PUSH2 0x40F0 PUSH2 0x3EE9 JUMP JUMPDEST JUMPDEST PUSH0 PUSH2 0x40FE DUP6 DUP3 DUP7 ADD PUSH2 0x4094 JUMP JUMPDEST SWAP3 POP POP PUSH1 0x20 PUSH2 0x410F DUP6 DUP3 DUP7 ADD PUSH2 0x40C7 JUMP JUMPDEST SWAP2 POP POP SWAP3 POP SWAP3 SWAP1 POP JUMP JUMPDEST PUSH2 0x4122 DUP2 PUSH2 0x40A8 JUMP JUMPDEST DUP3 MSTORE POP POP JUMP JUMPDEST PUSH0 PUSH1 0x20 DUP3 ADD SWAP1 POP PUSH2 0x413B PUSH0 DUP4 ADD DUP5 PUSH2 0x4119 JUMP JUMPDEST SWAP3 SWAP2 POP POP JUMP JUMPDEST PUSH0 DUP1 PUSH0 PUSH1 0x60 DUP5 DUP7 SUB SLT ISZERO PUSH2 0x4158 JUMPI PUSH2 0x4157 PUSH2 0x3EE9 JUMP JUMPDEST JUMPDEST PUSH0 PUSH2 0x4165 DUP7 DUP3 DUP8 ADD PUSH2 0x4094 JUMP JUMPDEST SWAP4 POP POP PUSH1 0x20 PUSH2 0x4176 DUP7 DUP3 DUP8 ADD PUSH2 0x4094 JUMP JUMPDEST SWAP3 POP POP PUSH1 0x40 PUSH2 0x4187 DUP7 DUP3 DUP8 ADD PUSH2 0x40C7 JUMP JUMPDEST SWAP2 POP POP SWAP3 POP SWAP3 POP SWAP3 JUMP JUMPDEST PUSH0 DUP2 SWAP1 POP SWAP2 SWAP1 POP JUMP JUMPDEST PUSH2 0x41A3 DUP2 PUSH2 0x4191 JUMP JUMPDEST DUP2 EQ PUSH2 0x41AD JUMPI PUSH0 DUP1 REVERT JUMPDEST POP JUMP JUMPDEST PUSH0 DUP2 CALLDATALOAD SWAP1 POP PUSH2 0x41BE DUP2 PUSH2 0x419A JUMP JUMPDEST SWAP3 SWAP2 POP POP JUMP JUMPDEST PUSH0 PUSH1 0x20 DUP3 DUP5 SUB SLT ISZERO PUSH2 0x41D9 JUMPI PUSH2 0x41D8 PUSH2 0x3EE9 JUMP JUMPDEST JUMPDEST PUSH0 PUSH2 0x41E6 DUP5 DUP3 DUP6 ADD PUSH2 0x41B0 JUMP JUMPDEST SWAP2 POP POP SWAP3 SWAP2 POP POP JUMP JUMPDEST PUSH2 0x41F8 DUP2 PUSH2 0x4191 JUMP JUMPDEST DUP3 MSTORE POP POP JUMP JUMPDEST PUSH0 PUSH1 0x20 DUP3 ADD SWAP1 POP PUSH2 0x4211 PUSH0 DUP4 ADD DUP5 PUSH2 0x41EF JUMP JUMPDEST SWAP3 SWAP2 POP POP JUMP JUMPDEST PUSH0 DUP1 PUSH1 0x40 DUP4 DUP6 SUB SLT ISZERO PUSH2 0x422D JUMPI PUSH2 0x422C PUSH2 0x3EE9 JUMP JUMPDEST JUMPDEST PUSH0 PUSH2 0x423A DUP6 DUP3 DUP7 ADD PUSH2 0x41B0 JUMP JUMPDEST SWAP3 POP POP PUSH1 0x20 PUSH2 0x424B DUP6 DUP3 DUP7 ADD PUSH2 0x4094 JUMP JUMPDEST SWAP2 POP POP SWAP3 POP SWAP3 SWAP1 POP JUMP JUMPDEST PUSH0 PUSH1 0xFF DUP3 AND SWAP1 POP SWAP2 SWAP1 POP JUMP JUMPDEST PUSH2 0x426A DUP2 PUSH2 0x4255 JUMP JUMPDEST DUP3 MSTORE POP POP JUMP JUMPDEST PUSH0 PUSH1 0x20 DUP3 ADD SWAP1 POP PUSH2 0x4283 PUSH0 DUP4 ADD DUP5 PUSH2 0x4261 JUMP JUMPDEST SWAP3 SWAP2 POP POP JUMP JUMPDEST PUSH0 PUSH1 0x20 DUP3 DUP5 SUB SLT ISZERO PUSH2 0x429E JUMPI PUSH2 0x429D PUSH2 0x3EE9 JUMP JUMPDEST JUMPDEST PUSH0 PUSH2 0x42AB DUP5 DUP3 DUP6 ADD PUSH2 0x40C7 JUMP JUMPDEST SWAP2 POP POP SWAP3 SWAP2 POP POP JUMP JUMPDEST PUSH0 PUSH1 0x20 DUP3 DUP5 SUB SLT ISZERO PUSH2 0x42C9 JUMPI PUSH2 0x42C8 PUSH2 0x3EE9 JUMP JUMPDEST JUMPDEST PUSH0 PUSH2 0x42D6 DUP5 DUP3 DUP6 ADD PUSH2 0x4094 JUMP JUMPDEST SWAP2 POP POP SWAP3 SWAP2 POP POP JUMP JUMPDEST PUSH2 0x42E8 DUP2 PUSH2 0x406D JUMP JUMPDEST DUP3 MSTORE POP POP JUMP JUMPDEST PUSH0 PUSH1 0x20 DUP3 ADD SWAP1 POP PUSH2 0x4301 PUSH0 DUP4 ADD DUP5 PUSH2 0x42DF JUMP JUMPDEST SWAP3 SWAP2 POP POP JUMP JUMPDEST PUSH0 PUSH2 0x4311 DUP3 PUSH2 0x406D JUMP JUMPDEST SWAP1 POP SWAP2 SWAP1 POP JUMP JUMPDEST PUSH2 0x4321 DUP2 PUSH2 0x4307 JUMP JUMPDEST DUP2 EQ PUSH2 0x432B JUMPI PUSH0 DUP1 REVERT JUMPDEST POP JUMP JUMPDEST PUSH0 DUP2 CALLDATALOAD SWAP1 POP PUSH2 0x433C DUP2 PUSH2 0x4318 JUMP JUMPDEST SWAP3 SWAP2 POP POP JUMP JUMPDEST PUSH0 DUP1 REVERT JUMPDEST PUSH0 DUP1 REVERT JUMPDEST PUSH0 DUP1 REVERT JUMPDEST PUSH0 DUP1 DUP4 PUSH1 0x1F DUP5 ADD SLT PUSH2 0x4363 JUMPI PUSH2 0x4362 PUSH2 0x4342 JUMP JUMPDEST JUMPDEST DUP3 CALLDATALOAD SWAP1 POP PUSH8 0xFFFFFFFFFFFFFFFF DUP2 GT ISZERO PUSH2 0x4380 JUMPI PUSH2 0x437F PUSH2 0x4346 JUMP JUMPDEST JUMPDEST PUSH1 0x20 DUP4 ADD SWAP2 POP DUP4 PUSH1 0x1 DUP3 MUL DUP4 ADD GT ISZERO PUSH2 0x439C JUMPI PUSH2 0x439B PUSH2 0x434A JUMP JUMPDEST JUMPDEST SWAP3 POP SWAP3 SWAP1 POP JUMP JUMPDEST PUSH0 DUP1 PUSH0 DUP1 PUSH0 PUSH1 0x80 DUP7 DUP9 SUB SLT ISZERO PUSH2 0x43BC JUMPI PUSH2 0x43BB PUSH2 0x3EE9 JUMP JUMPDEST JUMPDEST PUSH0 PUSH2 0x43C9 DUP9 DUP3 DUP10 ADD PUSH2 0x432E JUMP JUMPDEST SWAP6 POP POP PUSH1 0x20 PUSH2 0x43DA DUP9 DUP3 DUP10 ADD PUSH2 0x4094 JUMP JUMPDEST SWAP5 POP POP PUSH1 0x40 PUSH2 0x43EB DUP9 DUP3 DUP10 ADD PUSH2 0x40C7 JUMP JUMPDEST SWAP4 POP POP PUSH1 0x60 DUP7 ADD CALLDATALOAD PUSH8 0xFFFFFFFFFFFFFFFF DUP2 GT ISZERO PUSH2 0x440C JUMPI PUSH2 0x440B PUSH2 0x3EED JUMP JUMPDEST JUMPDEST PUSH2 0x4418 DUP9 DUP3 DUP10 ADD PUSH2 0x434E JUMP JUMPDEST SWAP3 POP SWAP3 POP POP SWAP3 SWAP6 POP SWAP3 SWAP6 SWAP1 SWAP4 POP JUMP JUMPDEST PUSH0 PUSH4 0xFFFFFFFF DUP3 AND SWAP1 POP SWAP2 SWAP1 POP JUMP JUMPDEST PUSH2 0x443F DUP2 PUSH2 0x4427 JUMP JUMPDEST DUP3 MSTORE POP POP JUMP JUMPDEST PUSH0 PUSH1 0x20 DUP3 ADD SWAP1 POP PUSH2 0x4458 PUSH0 DUP4 ADD DUP5 PUSH2 0x4436 JUMP JUMPDEST SWAP3 SWAP2 POP POP JUMP JUMPDEST PUSH0 PUSH32 0xFF00000000000000000000000000000000000000000000000000000000000000 DUP3 AND SWAP1 POP SWAP2 SWAP1 POP JUMP JUMPDEST PUSH2 0x4492 DUP2 PUSH2 0x445E JUMP JUMPDEST DUP3 MSTORE POP POP JUMP JUMPDEST PUSH0 DUP2 MLOAD SWAP1 POP SWAP2 SWAP1 POP JUMP JUMPDEST PUSH0 DUP3 DUP3 MSTORE PUSH1 0x20 DUP3 ADD SWAP1 POP SWAP3 SWAP2 POP POP JUMP JUMPDEST PUSH0 DUP2 SWAP1 POP PUSH1 0x20 DUP3 ADD SWAP1 POP SWAP2 SWAP1 POP JUMP JUMPDEST PUSH2 0x44CA DUP2 PUSH2 0x40A8 JUMP JUMPDEST DUP3 MSTORE POP POP JUMP JUMPDEST PUSH0 PUSH2 0x44DB DUP4 DUP4 PUSH2 0x44C1 JUMP JUMPDEST PUSH1 0x20 DUP4 ADD SWAP1 POP SWAP3 SWAP2 POP POP JUMP JUMPDEST PUSH0 PUSH1 0x20 DUP3 ADD SWAP1 POP SWAP2 SWAP1 POP JUMP JUMPDEST PUSH0 PUSH2 0x44FD DUP3 PUSH2 0x4498 JUMP JUMPDEST PUSH2 0x4507 DUP2 DUP6 PUSH2 0x44A2 JUMP JUMPDEST SWAP4 POP PUSH2 0x4512 DUP4 PUSH2 0x44B2 JUMP JUMPDEST DUP1 PUSH0 JUMPDEST DUP4 DUP2 LT ISZERO PUSH2 0x4542 JUMPI DUP2 MLOAD PUSH2 0x4529 DUP9 DUP3 PUSH2 0x44D0 JUMP JUMPDEST SWAP8 POP PUSH2 0x4534 DUP4 PUSH2 0x44E7 JUMP JUMPDEST SWAP3 POP POP PUSH1 0x1 DUP2 ADD SWAP1 POP PUSH2 0x4515 JUMP JUMPDEST POP DUP6 SWAP4 POP POP POP POP SWAP3 SWAP2 POP POP JUMP JUMPDEST PUSH0 PUSH1 0xE0 DUP3 ADD SWAP1 POP PUSH2 0x4562 PUSH0 DUP4 ADD DUP11 PUSH2 0x4489 JUMP JUMPDEST DUP2 DUP2 SUB PUSH1 0x20 DUP4 ADD MSTORE PUSH2 0x4574 DUP2 DUP10 PUSH2 0x3FF6 JUMP JUMPDEST SWAP1 POP DUP2 DUP2 SUB PUSH1 0x40 DUP4 ADD MSTORE PUSH2 0x4588 DUP2 DUP9 PUSH2 0x3FF6 JUMP JUMPDEST SWAP1 POP PUSH2 0x4597 PUSH1 0x60 DUP4 ADD DUP8 PUSH2 0x4119 JUMP JUMPDEST PUSH2 0x45A4 PUSH1 0x80 DUP4 ADD DUP7 PUSH2 0x42DF JUMP JUMPDEST PUSH2 0x45B1 PUSH1 0xA0 DUP4 ADD DUP6 PUSH2 0x41EF JUMP JUMPDEST DUP2 DUP2 SUB PUSH1 0xC0 DUP4 ADD MSTORE PUSH2 0x45C3 DUP2 DUP5 PUSH2 0x44F3 JUMP JUMPDEST SWAP1 POP SWAP9 SWAP8 POP POP POP POP POP POP POP POP JUMP JUMPDEST PUSH0 PUSH6 0xFFFFFFFFFFFF DUP3 AND SWAP1 POP SWAP2 SWAP1 POP JUMP JUMPDEST PUSH2 0x45EB DUP2 PUSH2 0x45D1 JUMP JUMPDEST DUP3 MSTORE POP POP JUMP JUMPDEST PUSH0 PUSH1 0x20 DUP3 ADD SWAP1 POP PUSH2 0x4604 PUSH0 DUP4 ADD DUP5 PUSH2 0x45E2 JUMP JUMPDEST SWAP3 SWAP2 POP POP JUMP JUMPDEST PUSH0 DUP1 PUSH0 PUSH1 0x60 DUP5 DUP7 SUB SLT ISZERO PUSH2 0x4621 JUMPI PUSH2 0x4620 PUSH2 0x3EE9 JUMP JUMPDEST JUMPDEST PUSH0 PUSH2 0x462E DUP7 DUP3 DUP8 ADD PUSH2 0x4094 JUMP JUMPDEST SWAP4 POP POP PUSH1 0x20 PUSH2 0x463F DUP7 DUP3 DUP8 ADD PUSH2 0x4094 JUMP JUMPDEST SWAP3 POP POP PUSH1 0x40 PUSH2 0x4650 DUP7 DUP3 DUP8 ADD PUSH2 0x4094 JUMP JUMPDEST SWAP2 POP POP SWAP3 POP SWAP3 POP SWAP3 JUMP JUMPDEST PUSH2 0x4663 DUP2 PUSH2 0x4255 JUMP JUMPDEST DUP2 EQ PUSH2 0x466D JUMPI PUSH0 DUP1 REVERT JUMPDEST POP JUMP JUMPDEST PUSH0 DUP2 CALLDATALOAD SWAP1 POP PUSH2 0x467E DUP2 PUSH2 0x465A JUMP JUMPDEST SWAP3 SWAP2 POP POP JUMP JUMPDEST PUSH0 DUP1 PUSH0 DUP1 PUSH0 DUP1 PUSH1 0xC0 DUP8 DUP10 SUB SLT ISZERO PUSH2 0x469E JUMPI PUSH2 0x469D PUSH2 0x3EE9 JUMP JUMPDEST JUMPDEST PUSH0 PUSH2 0x46AB DUP10 DUP3 DUP11 ADD PUSH2 0x4094 JUMP JUMPDEST SWAP7 POP POP PUSH1 0x20 PUSH2 0x46BC DUP10 DUP3 DUP11 ADD PUSH2 0x40C7 JUMP JUMPDEST SWAP6 POP POP PUSH1 0x40 PUSH2 0x46CD DUP10 DUP3 DUP11 ADD PUSH2 0x40C7 JUMP JUMPDEST SWAP5 POP POP PUSH1 0x60 PUSH2 0x46DE DUP10 DUP3 DUP11 ADD PUSH2 0x4670 JUMP JUMPDEST SWAP4 POP POP PUSH1 0x80 PUSH2 0x46EF DUP10 DUP3 DUP11 ADD PUSH2 0x41B0 JUMP JUMPDEST SWAP3 POP POP PUSH1 0xA0 PUSH2 0x4700 DUP10 DUP3 DUP11 ADD PUSH2 0x41B0 JUMP JUMPDEST SWAP2 POP POP SWAP3 SWAP6 POP SWAP3 SWAP6 POP SWAP3 SWAP6 JUMP JUMPDEST PUSH0 DUP1 PUSH0 DUP1 PUSH0 DUP1 PUSH0 PUSH1 0xE0 DUP9 DUP11 SUB SLT ISZERO PUSH2 0x4728 JUMPI PUSH2 0x4727 PUSH2 0x3EE9 JUMP JUMPDEST JUMPDEST PUSH0 PUSH2 0x4735 DUP11 DUP3 DUP12 ADD PUSH2 0x4094 JUMP JUMPDEST SWAP8 POP POP PUSH1 0x20 PUSH2 0x4746 DUP11 DUP3 DUP12 ADD PUSH2 0x4094 JUMP JUMPDEST SWAP7 POP POP PUSH1 0x40 PUSH2 0x4757 DUP11 DUP3 DUP12 ADD PUSH2 0x40C7 JUMP JUMPDEST SWAP6 POP POP PUSH1 0x60 PUSH2 0x4768 DUP11 DUP3 DUP12 ADD PUSH2 0x40C7 JUMP JUMPDEST SWAP5 POP POP PUSH1 0x80 PUSH2 0x4779 DUP11 DUP3 DUP12 ADD PUSH2 0x4670 JUMP JUMPDEST SWAP4 POP POP PUSH1 0xA0 PUSH2 0x478A DUP11 DUP3 DUP12 ADD PUSH2 0x41B0 JUMP JUMPDEST SWAP3 POP POP PUSH1 0xC0 PUSH2 0x479B DUP11 DUP3 DUP12 ADD PUSH2 0x41B0 JUMP JUMPDEST SWAP2 POP POP SWAP3 SWAP6 SWAP9 SWAP2 SWAP5 SWAP8 POP SWAP3 SWAP6 POP JUMP JUMPDEST PUSH0 DUP1 PUSH1 0x40 DUP4 DUP6 SUB SLT ISZERO PUSH2 0x47C0 JUMPI PUSH2 0x47BF PUSH2 0x3EE9 JUMP JUMPDEST JUMPDEST PUSH0 PUSH2 0x47CD DUP6 DUP3 DUP7 ADD PUSH2 0x4094 JUMP JUMPDEST SWAP3 POP POP PUSH1 0x20 PUSH2 0x47DE DUP6 DUP3 DUP7 ADD PUSH2 0x4094 JUMP JUMPDEST SWAP2 POP POP SWAP3 POP SWAP3 SWAP1 POP JUMP JUMPDEST PUSH2 0x47F1 DUP2 PUSH2 0x4427 JUMP JUMPDEST DUP2 EQ PUSH2 0x47FB JUMPI PUSH0 DUP1 REVERT JUMPDEST POP JUMP JUMPDEST PUSH0 DUP2 CALLDATALOAD SWAP1 POP PUSH2 0x480C DUP2 PUSH2 0x47E8 JUMP JUMPDEST SWAP3 SWAP2 POP POP JUMP JUMPDEST PUSH0 DUP1 PUSH1 0x40 DUP4 DUP6 SUB SLT ISZERO PUSH2 0x4828 JUMPI PUSH2 0x4827 PUSH2 0x3EE9 JUMP JUMPDEST JUMPDEST PUSH0 PUSH2 0x4835 DUP6 DUP3 DUP7 ADD PUSH2 0x4094 JUMP JUMPDEST SWAP3 POP POP PUSH1 0x20 PUSH2 0x4846 DUP6 DUP3 DUP7 ADD PUSH2 0x47FE JUMP JUMPDEST SWAP2 POP POP SWAP3 POP SWAP3 SWAP1 POP JUMP JUMPDEST PUSH2 0x4859 DUP2 PUSH2 0x45D1 JUMP JUMPDEST DUP3 MSTORE POP POP JUMP JUMPDEST PUSH0 PUSH26 0xFFFFFFFFFFFFFFFFFFFFFFFFFFFFFFFFFFFFFFFFFFFFFFFFFFFF DUP3 AND SWAP1 POP SWAP2 SWAP1 POP JUMP JUMPDEST PUSH2 0x488D DUP2 PUSH2 0x485F JUMP JUMPDEST DUP3 MSTORE POP POP JUMP JUMPDEST PUSH1 0x40 DUP3 ADD PUSH0 DUP3 ADD MLOAD PUSH2 0x48A7 PUSH0 DUP6 ADD DUP3 PUSH2 0x4850 JUMP JUMPDEST POP PUSH1 0x20 DUP3 ADD MLOAD PUSH2 0x48BA PUSH1 0x20 DUP6 ADD DUP3 PUSH2 0x4884 JUMP JUMPDEST POP POP POP POP JUMP JUMPDEST PUSH0 PUSH1 0x40 DUP3 ADD SWAP1 POP PUSH2 0x48D3 PUSH0 DUP4 ADD DUP5 PUSH2 0x4893 JUMP JUMPDEST SWAP3 SWAP2 POP POP JUMP JUMPDEST PUSH32 0x4E487B7100000000000000000000000000000000000000000000000000000000 PUSH0 MSTORE PUSH1 0x22 PUSH1 0x4 MSTORE PUSH1 0x24 PUSH0 REVERT JUMPDEST PUSH0 PUSH1 0x2 DUP3 DIV SWAP1 POP PUSH1 0x1 DUP3 AND DUP1 PUSH2 0x491D JUMPI PUSH1 0x7F DUP3 AND SWAP2 POP JUMPDEST PUSH1 0x20 DUP3 LT DUP2 SUB PUSH2 0x4930 JUMPI PUSH2 0x492F PUSH2 0x48D9 JUMP JUMPDEST JUMPDEST POP SWAP2 SWAP1 POP JUMP JUMPDEST PUSH0 PUSH1 0x40 DUP3 ADD SWAP1 POP PUSH2 0x4949 PUSH0 DUP4 ADD DUP6 PUSH2 0x4119 JUMP JUMPDEST PUSH2 0x4956 PUSH1 0x20 DUP4 ADD DUP5 PUSH2 0x45E2 JUMP JUMPDEST SWAP4 SWAP3 POP POP POP JUMP JUMPDEST PUSH0 DUP3 DUP3 MSTORE PUSH1 0x20 DUP3 ADD SWAP1 POP SWAP3 SWAP2 POP POP JUMP JUMPDEST DUP3 DUP2 DUP4 CALLDATACOPY PUSH0 DUP4 DUP4 ADD MSTORE POP POP POP JUMP JUMPDEST PUSH0 PUSH2 0x4986 DUP4 DUP6 PUSH2 0x495D JUMP JUMPDEST SWAP4 POP PUSH2 0x4993 DUP4 DUP6 DUP5 PUSH2 0x496D JUMP JUMPDEST PUSH2 0x499C DUP4 PUSH2 0x3FE6 JUMP JUMPDEST DUP5 ADD SWAP1 POP SWAP4 SWAP3 POP POP POP JUMP JUMPDEST PUSH0 PUSH1 0xA0 DUP3 ADD SWAP1 POP PUSH2 0x49BA PUSH0 DUP4 ADD DUP10 PUSH2 0x42DF JUMP JUMPDEST PUSH2 0x49C7 PUSH1 0x20 DUP4 ADD DUP9 PUSH2 0x42DF JUMP JUMPDEST PUSH2 0x49D4 PUSH1 0x40 DUP4 ADD DUP8 PUSH2 0x4119 JUMP JUMPDEST PUSH2 0x49E1 PUSH1 0x60 DUP4 ADD DUP7 PUSH2 0x4119 JUMP JUMPDEST DUP2 DUP2 SUB PUSH1 0x80 DUP4 ADD MSTORE PUSH2 0x49F4 DUP2 DUP5 DUP7 PUSH2 0x497B JUMP JUMPDEST SWAP1 POP SWAP8 SWAP7 POP POP POP POP POP POP POP JUMP JUMPDEST PUSH0 DUP2 MLOAD SWAP1 POP PUSH2 0x4A0F DUP2 PUSH2 0x419A JUMP JUMPDEST SWAP3 SWAP2 POP POP JUMP JUMPDEST PUSH0 PUSH1 0x20 DUP3 DUP5 SUB SLT ISZERO PUSH2 0x4A2A JUMPI PUSH2 0x4A29 PUSH2 0x3EE9 JUMP JUMPDEST JUMPDEST PUSH0 PUSH2 0x4A37 DUP5 DUP3 DUP6 ADD PUSH2 0x4A01 JUMP JUMPDEST SWAP2 POP POP SWAP3 SWAP2 POP POP JUMP JUMPDEST PUSH32 0x4E487B7100000000000000000000000000000000000000000000000000000000 PUSH0 MSTORE PUSH1 0x11 PUSH1 0x4 MSTORE PUSH1 0x24 PUSH0 REVERT JUMPDEST PUSH0 PUSH2 0x4A77 DUP3 PUSH2 0x40A8 JUMP JUMPDEST SWAP2 POP PUSH2 0x4A82 DUP4 PUSH2 0x40A8 JUMP JUMPDEST SWAP3 POP DUP3 DUP3 ADD SWAP1 POP DUP1 DUP3 GT ISZERO PUSH2 0x4A9A JUMPI PUSH2 0x4A99 PUSH2 0x4A40 JUMP JUMPDEST JUMPDEST SWAP3 SWAP2 POP POP JUMP JUMPDEST PUSH0 PUSH2 0x4AAA DUP3 PUSH2 0x40A8 JUMP JUMPDEST SWAP2 POP PUSH2 0x4AB5 DUP4 PUSH2 0x40A8 JUMP JUMPDEST SWAP3 POP DUP3 DUP3 SUB SWAP1 POP DUP2 DUP2 GT ISZERO PUSH2 0x4ACD JUMPI PUSH2 0x4ACC PUSH2 0x4A40 JUMP JUMPDEST JUMPDEST SWAP3 SWAP2 POP POP JUMP JUMPDEST PUSH32 0x4549503731323A20556E696E697469616C697A65640000000000000000000000 PUSH0 DUP3 ADD MSTORE POP JUMP JUMPDEST PUSH0 PUSH2 0x4B07 PUSH1 0x15 DUP4 PUSH2 0x3FAE JUMP JUMPDEST SWAP2 POP PUSH2 0x4B12 DUP3 PUSH2 0x4AD3 JUMP JUMPDEST PUSH1 0x20 DUP3 ADD SWAP1 POP SWAP2 SWAP1 POP JUMP JUMPDEST PUSH0 PUSH1 0x20 DUP3 ADD SWAP1 POP DUP2 DUP2 SUB PUSH0 DUP4 ADD MSTORE PUSH2 0x4B34 DUP2 PUSH2 0x4AFB JUMP JUMPDEST SWAP1 POP SWAP2 SWAP1 POP JUMP JUMPDEST PUSH32 0x4E487B7100000000000000000000000000000000000000000000000000000000 PUSH0 MSTORE PUSH1 0x41 PUSH1 0x4 MSTORE PUSH1 0x24 PUSH0 REVERT JUMPDEST PUSH0 DUP2 PUSH1 0x1 SHR SWAP1 POP SWAP2 SWAP1 POP JUMP JUMPDEST PUSH0 DUP1 DUP3 SWAP2 POP DUP4 SWAP1 POP JUMPDEST PUSH1 0x1 DUP6 GT ISZERO PUSH2 0x4BBD JUMPI DUP1 DUP7 DIV DUP2 GT ISZERO PUSH2 0x4B99 JUMPI PUSH2 0x4B98 PUSH2 0x4A40 JUMP JUMPDEST JUMPDEST PUSH1 0x1 DUP6 AND ISZERO PUSH2 0x4BA8 JUMPI DUP1 DUP3 MUL SWAP2 POP JUMPDEST DUP1 DUP2 MUL SWAP1 POP PUSH2 0x4BB6 DUP6 PUSH2 0x4B68 JUMP JUMPDEST SWAP5 POP PUSH2 0x4B7D JUMP JUMPDEST SWAP5 POP SWAP5 SWAP3 POP POP POP JUMP JUMPDEST PUSH0 DUP3 PUSH2 0x4BD5 JUMPI PUSH1 0x1 SWAP1 POP PUSH2 0x4C90 JUMP JUMPDEST DUP2 PUSH2 0x4BE2 JUMPI PUSH0 SWAP1 POP PUSH2 0x4C90 JUMP JUMPDEST DUP2 PUSH1 0x1 DUP2 EQ PUSH2 0x4BF8 JUMPI PUSH1 0x2 DUP2 EQ PUSH2 0x4C02 JUMPI PUSH2 0x4C31 JUMP JUMPDEST PUSH1 0x1 SWAP2 POP POP PUSH2 0x4C90 JUMP JUMPDEST PUSH1 0xFF DUP5 GT ISZERO PUSH2 0x4C14 JUMPI PUSH2 0x4C13 PUSH2 0x4A40 JUMP JUMPDEST JUMPDEST DUP4 PUSH1 0x2 EXP SWAP2 POP DUP5 DUP3 GT ISZERO PUSH2 0x4C2B JUMPI PUSH2 0x4C2A PUSH2 0x4A40 JUMP JUMPDEST JUMPDEST POP PUSH2 0x4C90 JUMP JUMPDEST POP PUSH1 0x20 DUP4 LT PUSH2 0x133 DUP4 LT AND PUSH1 0x4E DUP5 LT PUSH1 0xB DUP5 LT AND OR ISZERO PUSH2 0x4C66 JUMPI DUP3 DUP3 EXP SWAP1 POP DUP4 DUP2 GT ISZERO PUSH2 0x4C61 JUMPI PUSH2 0x4C60 PUSH2 0x4A40 JUMP JUMPDEST JUMPDEST PUSH2 0x4C90 JUMP JUMPDEST PUSH2 0x4C73 DUP5 DUP5 DUP5 PUSH1 0x1 PUSH2 0x4B74 JUMP JUMPDEST SWAP3 POP SWAP1 POP DUP2 DUP5 DIV DUP2 GT ISZERO PUSH2 0x4C8A JUMPI PUSH2 0x4C89 PUSH2 0x4A40 JUMP JUMPDEST JUMPDEST DUP2 DUP2 MUL SWAP1 POP JUMPDEST SWAP4 SWAP3 POP POP POP JUMP JUMPDEST PUSH0 PUSH2 0x4CA1 DUP3 PUSH2 0x40A8 JUMP JUMPDEST SWAP2 POP PUSH2 0x4CAC DUP4 PUSH2 0x4255 JUMP JUMPDEST SWAP3 POP PUSH2 0x4CD9 PUSH32 0xFFFFFFFFFFFFFFFFFFFFFFFFFFFFFFFFFFFFFFFFFFFFFFFFFFFFFFFFFFFFFFFF DUP5 DUP5 PUSH2 0x4BC6 JUMP JUMPDEST SWAP1 POP SWAP3 SWAP2 POP POP JUMP JUMPDEST PUSH0 PUSH2 0x4CEB DUP3 PUSH2 0x40A8 JUMP JUMPDEST SWAP2 POP PUSH2 0x4CF6 DUP4 PUSH2 0x40A8 JUMP JUMPDEST SWAP3 POP DUP3 DUP3 MUL PUSH2 0x4D04 DUP2 PUSH2 0x40A8 JUMP JUMPDEST SWAP2 POP DUP3 DUP3 DIV DUP5 EQ DUP4 ISZERO OR PUSH2 0x4D1B JUMPI PUSH2 0x4D1A PUSH2 0x4A40 JUMP JUMPDEST JUMPDEST POP SWAP3 SWAP2 POP POP JUMP JUMPDEST PUSH0 DUP2 SWAP1 POP SWAP2 SWAP1 POP JUMP JUMPDEST PUSH0 PUSH8 0xFFFFFFFFFFFFFFFF DUP3 AND SWAP1 POP SWAP2 SWAP1 POP JUMP JUMPDEST PUSH0 DUP2 SWAP1 POP SWAP2 SWAP1 POP JUMP JUMPDEST PUSH0 PUSH2 0x4D61 PUSH2 0x4D5C PUSH2 0x4D57 DUP5 PUSH2 0x4D22 JUMP JUMPDEST PUSH2 0x4D3E JUMP JUMPDEST PUSH2 0x4D2B JUMP JUMPDEST SWAP1 POP SWAP2 SWAP1 POP JUMP JUMPDEST PUSH2 0x4D71 DUP2 PUSH2 0x4D47 JUMP JUMPDEST DUP3 MSTORE POP POP JUMP JUMPDEST PUSH0 PUSH1 0x20 DUP3 ADD SWAP1 POP PUSH2 0x4D8A PUSH0 DUP4 ADD DUP5 PUSH2 0x4D68 JUMP JUMPDEST SWAP3 SWAP2 POP POP JUMP JUMPDEST PUSH0 PUSH1 0x80 DUP3 ADD SWAP1 POP PUSH2 0x4DA3 PUSH0 DUP4 ADD DUP8 PUSH2 0x41EF JUMP JUMPDEST PUSH2 0x4DB0 PUSH1 0x20 DUP4 ADD DUP7 PUSH2 0x42DF JUMP JUMPDEST PUSH2 0x4DBD PUSH1 0x40 DUP4 ADD DUP6 PUSH2 0x4119 JUMP JUMPDEST PUSH2 0x4DCA PUSH1 0x60 DUP4 ADD DUP5 PUSH2 0x4119 JUMP JUMPDEST SWAP6 SWAP5 POP POP POP POP POP JUMP JUMPDEST PUSH0 PUSH1 0xC0 DUP3 ADD SWAP1 POP PUSH2 0x4DE6 PUSH0 DUP4 ADD DUP10 PUSH2 0x41EF JUMP JUMPDEST PUSH2 0x4DF3 PUSH1 0x20 DUP4 ADD DUP9 PUSH2 0x42DF JUMP JUMPDEST PUSH2 0x4E00 PUSH1 0x40 DUP4 ADD DUP8 PUSH2 0x42DF JUMP JUMPDEST PUSH2 0x4E0D PUSH1 0x60 DUP4 ADD DUP7 PUSH2 0x4119 JUMP JUMPDEST PUSH2 0x4E1A PUSH1 0x80 DUP4 ADD DUP6 PUSH2 0x4119 JUMP JUMPDEST PUSH2 0x4E27 PUSH1 0xA0 DUP4 ADD DUP5 PUSH2 0x4119 JUMP JUMPDEST SWAP8 SWAP7 POP POP POP POP POP POP POP JUMP JUMPDEST PUSH0 PUSH1 0x40 DUP3 ADD SWAP1 POP PUSH2 0x4E45 PUSH0 DUP4 ADD DUP6 PUSH2 0x42DF JUMP JUMPDEST PUSH2 0x4E52 PUSH1 0x20 DUP4 ADD DUP5 PUSH2 0x42DF JUMP JUMPDEST SWAP4 SWAP3 POP POP POP JUMP JUMPDEST PUSH0 PUSH1 0x60 DUP3 ADD SWAP1 POP PUSH2 0x4E6C PUSH0 DUP4 ADD DUP7 PUSH2 0x42DF JUMP JUMPDEST PUSH2 0x4E79 PUSH1 0x20 DUP4 ADD DUP6 PUSH2 0x4119 JUMP JUMPDEST PUSH2 0x4E86 PUSH1 0x40 DUP4 ADD DUP5 PUSH2 0x4119 JUMP JUMPDEST SWAP5 SWAP4 POP POP POP POP JUMP JUMPDEST PUSH0 DUP2 SWAP1 POP SWAP2 SWAP1 POP JUMP JUMPDEST PUSH0 PUSH2 0x4EB1 PUSH2 0x4EAC PUSH2 0x4EA7 DUP5 PUSH2 0x4E8E JUMP JUMPDEST PUSH2 0x4D3E JUMP JUMPDEST PUSH2 0x4255 JUMP JUMPDEST SWAP1 POP SWAP2 SWAP1 POP JUMP JUMPDEST PUSH2 0x4EC1 DUP2 PUSH2 0x4E97 JUMP JUMPDEST DUP3 MSTORE POP POP JUMP JUMPDEST PUSH0 PUSH1 0x40 DUP3 ADD SWAP1 POP PUSH2 0x4EDA PUSH0 DUP4 ADD DUP6 PUSH2 0x4EB8 JUMP JUMPDEST PUSH2 0x4EE7 PUSH1 0x20 DUP4 ADD DUP5 PUSH2 0x4119 JUMP JUMPDEST SWAP4 SWAP3 POP POP POP JUMP JUMPDEST PUSH0 PUSH1 0x40 DUP3 ADD SWAP1 POP PUSH2 0x4F01 PUSH0 DUP4 ADD DUP6 PUSH2 0x42DF JUMP JUMPDEST PUSH2 0x4F0E PUSH1 0x20 DUP4 ADD DUP5 PUSH2 0x4119 JUMP JUMPDEST SWAP4 SWAP3 POP POP POP JUMP JUMPDEST PUSH0 PUSH1 0x40 DUP3 ADD SWAP1 POP PUSH2 0x4F28 PUSH0 DUP4 ADD DUP6 PUSH2 0x42DF JUMP JUMPDEST PUSH2 0x4F35 PUSH1 0x20 DUP4 ADD DUP5 PUSH2 0x41EF JUMP JUMPDEST SWAP4 SWAP3 POP POP POP JUMP JUMPDEST PUSH0 PUSH1 0xA0 DUP3 ADD SWAP1 POP PUSH2 0x4F4F PUSH0 DUP4 ADD DUP9 PUSH2 0x41EF JUMP JUMPDEST PUSH2 0x4F5C PUSH1 0x20 DUP4 ADD DUP8 PUSH2 0x41EF JUMP JUMPDEST PUSH2 0x4F69 PUSH1 0x40 DUP4 ADD DUP7 PUSH2 0x41EF JUMP JUMPDEST PUSH2 0x4F76 PUSH1 0x60 DUP4 ADD DUP6 PUSH2 0x4119 JUMP JUMPDEST PUSH2 0x4F83 PUSH1 0x80 DUP4 ADD DUP5 PUSH2 0x42DF JUMP JUMPDEST SWAP7 SWAP6 POP POP POP POP POP POP JUMP JUMPDEST PUSH32 0x4E487B7100000000000000000000000000000000000000000000000000000000 PUSH0 MSTORE PUSH1 0x12 PUSH1 0x4 MSTORE PUSH1 0x24 PUSH0 REVERT JUMPDEST PUSH0 PUSH1 0x40 DUP3 ADD SWAP1 POP PUSH2 0x4FCD PUSH0 DUP4 ADD DUP6 PUSH2 0x4119 JUMP JUMPDEST PUSH2 0x4FDA PUSH1 0x20 DUP4 ADD DUP5 PUSH2 0x4119 JUMP JUMPDEST SWAP4 SWAP3 POP POP POP JUMP JUMPDEST PUSH0 DUP2 SWAP1 POP SWAP2 SWAP1 POP JUMP JUMPDEST PUSH0 PUSH2 0x5004 PUSH2 0x4FFF PUSH2 0x4FFA DUP5 PUSH2 0x4FE1 JUMP JUMPDEST PUSH2 0x4D3E JUMP JUMPDEST PUSH2 0x4255 JUMP JUMPDEST SWAP1 POP SWAP2 SWAP1 POP JUMP JUMPDEST PUSH2 0x5014 DUP2 PUSH2 0x4FEA JUMP JUMPDEST DUP3 MSTORE POP POP JUMP JUMPDEST PUSH0 PUSH1 0x40 DUP3 ADD SWAP1 POP PUSH2 0x502D PUSH0 DUP4 ADD DUP6 PUSH2 0x500B JUMP JUMPDEST PUSH2 0x503A PUSH1 0x20 DUP4 ADD DUP5 PUSH2 0x4119 JUMP JUMPDEST SWAP4 SWAP3 POP POP POP JUMP JUMPDEST PUSH0 DUP2 SWAP1 POP DUP2 PUSH0 MSTORE PUSH1 0x20 PUSH0 KECCAK256 SWAP1 POP SWAP2 SWAP1 POP JUMP JUMPDEST PUSH0 PUSH1 0x20 PUSH1 0x1F DUP4 ADD DIV SWAP1 POP SWAP2 SWAP1 POP JUMP JUMPDEST PUSH0 DUP3 DUP3 SHL SWAP1 POP SWAP3 SWAP2 POP POP JUMP JUMPDEST PUSH0 PUSH1 0x8 DUP4 MUL PUSH2 0x509D PUSH32 0xFFFFFFFFFFFFFFFFFFFFFFFFFFFFFFFFFFFFFFFFFFFFFFFFFFFFFFFFFFFFFFFF DUP3 PUSH2 0x5062 JUMP JUMPDEST PUSH2 0x50A7 DUP7 DUP4 PUSH2 0x5062 JUMP JUMPDEST SWAP6 POP DUP1 NOT DUP5 AND SWAP4 POP DUP1 DUP7 AND DUP5 OR SWAP3 POP POP POP SWAP4 SWAP3 POP POP POP JUMP JUMPDEST PUSH0 PUSH2 0x50D9 PUSH2 0x50D4 PUSH2 0x50CF DUP5 PUSH2 0x40A8 JUMP JUMPDEST PUSH2 0x4D3E JUMP JUMPDEST PUSH2 0x40A8 JUMP JUMPDEST SWAP1 POP SWAP2 SWAP1 POP JUMP JUMPDEST PUSH0 DUP2 SWAP1 POP SWAP2 SWAP1 POP JUMP JUMPDEST PUSH2 0x50F2 DUP4 PUSH2 0x50BF JUMP JUMPDEST PUSH2 0x5106 PUSH2 0x50FE DUP3 PUSH2 0x50E0 JUMP JUMPDEST DUP5 DUP5 SLOAD PUSH2 0x506E JUMP JUMPDEST DUP3 SSTORE POP POP POP POP JUMP JUMPDEST PUSH0 SWAP1 JUMP JUMPDEST PUSH2 0x511A PUSH2 0x510E JUMP JUMPDEST PUSH2 0x5125 DUP2 DUP5 DUP5 PUSH2 0x50E9 JUMP JUMPDEST POP POP POP JUMP JUMPDEST JUMPDEST DUP2 DUP2 LT ISZERO PUSH2 0x5148 JUMPI PUSH2 0x513D PUSH0 DUP3 PUSH2 0x5112 JUMP JUMPDEST PUSH1 0x1 DUP2 ADD SWAP1 POP PUSH2 0x512B JUMP JUMPDEST POP POP JUMP JUMPDEST PUSH1 0x1F DUP3 GT ISZERO PUSH2 0x518D JUMPI PUSH2 0x515E DUP2 PUSH2 0x5041 JUMP JUMPDEST PUSH2 0x5167 DUP5 PUSH2 0x5053 JUMP JUMPDEST DUP2 ADD PUSH1 0x20 DUP6 LT ISZERO PUSH2 0x5176 JUMPI DUP2 SWAP1 POP JUMPDEST PUSH2 0x518A PUSH2 0x5182 DUP6 PUSH2 0x5053 JUMP JUMPDEST DUP4 ADD DUP3 PUSH2 0x512A JUMP JUMPDEST POP POP JUMPDEST POP POP POP JUMP JUMPDEST PUSH0 DUP3 DUP3 SHR SWAP1 POP SWAP3 SWAP2 POP POP JUMP JUMPDEST PUSH0 PUSH2 0x51AD PUSH0 NOT DUP5 PUSH1 0x8 MUL PUSH2 0x5192 JUMP JUMPDEST NOT DUP1 DUP4 AND SWAP2 POP POP SWAP3 SWAP2 POP POP JUMP JUMPDEST PUSH0 PUSH2 0x51C5 DUP4 DUP4 PUSH2 0x519E JUMP JUMPDEST SWAP2 POP DUP3 PUSH1 0x2 MUL DUP3 OR SWAP1 POP SWAP3 SWAP2 POP POP JUMP JUMPDEST PUSH2 0x51DE DUP3 PUSH2 0x3FA4 JUMP JUMPDEST PUSH8 0xFFFFFFFFFFFFFFFF DUP2 GT ISZERO PUSH2 0x51F7 JUMPI PUSH2 0x51F6 PUSH2 0x4B3B JUMP JUMPDEST JUMPDEST PUSH2 0x5201 DUP3 SLOAD PUSH2 0x4906 JUMP JUMPDEST PUSH2 0x520C DUP3 DUP3 DUP6 PUSH2 0x514C JUMP JUMPDEST PUSH0 PUSH1 0x20 SWAP1 POP PUSH1 0x1F DUP4 GT PUSH1 0x1 DUP2 EQ PUSH2 0x523D JUMPI PUSH0 DUP5 ISZERO PUSH2 0x522B JUMPI DUP3 DUP8 ADD MLOAD SWAP1 POP JUMPDEST PUSH2 0x5235 DUP6 DUP3 PUSH2 0x51BA JUMP JUMPDEST DUP7 SSTORE POP PUSH2 0x529C JUMP JUMPDEST PUSH1 0x1F NOT DUP5 AND PUSH2 0x524B DUP7 PUSH2 0x5041 JUMP JUMPDEST PUSH0 JUMPDEST DUP3 DUP2 LT ISZERO PUSH2 0x5272 JUMPI DUP5 DUP10 ADD MLOAD DUP3 SSTORE PUSH1 0x1 DUP3 ADD SWAP2 POP PUSH1 0x20 DUP6 ADD SWAP5 POP PUSH1 0x20 DUP2 ADD SWAP1 POP PUSH2 0x524D JUMP JUMPDEST DUP7 DUP4 LT ISZERO PUSH2 0x528F JUMPI DUP5 DUP10 ADD MLOAD PUSH2 0x528B PUSH1 0x1F DUP10 AND DUP3 PUSH2 0x519E JUMP JUMPDEST DUP4 SSTORE POP JUMPDEST PUSH1 0x1 PUSH1 0x2 DUP9 MUL ADD DUP9 SSTORE POP POP POP JUMPDEST POP POP POP POP POP POP JUMP JUMPDEST PUSH0 PUSH1 0x80 DUP3 ADD SWAP1 POP PUSH2 0x52B7 PUSH0 DUP4 ADD DUP8 PUSH2 0x41EF JUMP JUMPDEST PUSH2 0x52C4 PUSH1 0x20 DUP4 ADD DUP7 PUSH2 0x4261 JUMP JUMPDEST PUSH2 0x52D1 PUSH1 0x40 DUP4 ADD DUP6 PUSH2 0x41EF JUMP JUMPDEST PUSH2 0x52DE PUSH1 0x60 DUP4 ADD DUP5 PUSH2 0x41EF JUMP JUMPDEST SWAP6 SWAP5 POP POP POP POP POP JUMP JUMPDEST PUSH32 0x4E487B7100000000000000000000000000000000000000000000000000000000 PUSH0 MSTORE PUSH1 0x21 PUSH1 0x4 MSTORE PUSH1 0x24 PUSH0 REVERT JUMPDEST PUSH32 0x4E487B7100000000000000000000000000000000000000000000000000000000 PUSH0 MSTORE PUSH1 0x32 PUSH1 0x4 MSTORE PUSH1 0x24 PUSH0 REVERT JUMPDEST PUSH0 PUSH2 0x534B DUP3 PUSH2 0x40A8 JUMP JUMPDEST SWAP2 POP PUSH2 0x5356 DUP4 PUSH2 0x40A8 JUMP JUMPDEST SWAP3 POP DUP3 PUSH2 0x5366 JUMPI PUSH2 0x5365 PUSH2 0x4F8D JUMP JUMPDEST JUMPDEST DUP3 DUP3 DIV SWAP1 POP SWAP3 SWAP2 POP POP JUMP JUMPDEST PUSH0 PUSH2 0x537B DUP3 PUSH2 0x485F JUMP JUMPDEST SWAP2 POP PUSH2 0x5386 DUP4 PUSH2 0x485F JUMP JUMPDEST SWAP3 POP DUP3 DUP3 SUB SWAP1 POP PUSH26 0xFFFFFFFFFFFFFFFFFFFFFFFFFFFFFFFFFFFFFFFFFFFFFFFFFFFF DUP2 GT ISZERO PUSH2 0x53B8 JUMPI PUSH2 0x53B7 PUSH2 0x4A40 JUMP JUMPDEST JUMPDEST SWAP3 SWAP2 POP POP JUMP JUMPDEST PUSH0 DUP2 SWAP1 POP SWAP2 SWAP1 POP JUMP JUMPDEST PUSH0 PUSH2 0x53E1 PUSH2 0x53DC PUSH2 0x53D7 DUP5 PUSH2 0x53BE JUMP JUMPDEST PUSH2 0x4D3E JUMP JUMPDEST PUSH2 0x4255 JUMP JUMPDEST SWAP1 POP SWAP2 SWAP1 POP JUMP JUMPDEST PUSH2 0x53F1 DUP2 PUSH2 0x53C7 JUMP JUMPDEST DUP3 MSTORE POP POP JUMP JUMPDEST PUSH0 PUSH1 0x40 DUP3 ADD SWAP1 POP PUSH2 0x540A PUSH0 DUP4 ADD DUP6 PUSH2 0x53E8 JUMP JUMPDEST PUSH2 0x5417 PUSH1 0x20 DUP4 ADD DUP5 PUSH2 0x4119 JUMP JUMPDEST SWAP4 SWAP3 POP POP POP JUMP JUMPDEST PUSH0 PUSH2 0x5428 DUP3 PUSH2 0x485F JUMP JUMPDEST SWAP2 POP PUSH2 0x5433 DUP4 PUSH2 0x485F JUMP JUMPDEST SWAP3 POP DUP3 DUP3 ADD SWAP1 POP PUSH26 0xFFFFFFFFFFFFFFFFFFFFFFFFFFFFFFFFFFFFFFFFFFFFFFFFFFFF DUP2 GT ISZERO PUSH2 0x5465 JUMPI PUSH2 0x5464 PUSH2 0x4A40 JUMP JUMPDEST JUMPDEST SWAP3 SWAP2 POP POP JUMP INVALID LOG2 PUSH5 0x6970667358 0x22 SLT KECCAK256 SAR DUP12 PUSH6 0xA2EC096DC421 0xC3 MSTORE8 0xB6 DUP10 0x4A RETURN 0xDA 0xAA 0xCA 0xAA PREVRANDAO 0xC3 PUSH13 0xB40FC07CF4F29B40D0C464736F PUSH13 0x63430008160033000000000000 "
	},
	"Assembly": ".code\n  PUSH 80\t\t\tcontract QAI is Initializable,...\n  PUSH 40\t\t\tcontract QAI is Initializable,...\n  MSTORE \t\t\tcontract QAI is Initializable,...\n  CALLVALUE \t\t\tconstructor() {\\n        _disa...\n  DUP1 \t\t\tconstructor() {\\n        _disa...\n  ISZERO \t\t\tconstructor() {\\n        _disa...\n  PUSH [tag] 1\t\t\tconstructor() {\\n        _disa...\n  JUMPI \t\t\tconstructor() {\\n        _disa...\n  PUSH 0\t\t\tconstructor() {\\n        _disa...\n  DUP1 \t\t\tconstructor() {\\n        _disa...\n  REVERT \t\t\tconstructor() {\\n        _disa...\ntag 1\t\t\tconstructor() {\\n        _disa...\n  JUMPDEST \t\t\tconstructor() {\\n        _disa...\n  POP \t\t\tconstructor() {\\n        _disa...\n  PUSH [tag] 4\t\t\t_disableInitializers()\n  PUSH [tag] 5\t\t\t_disableInitializers\n  PUSH 20\t\t\t_disableInitializers\n  SHL \t\t\t_disableInitializers\n  PUSH 20\t\t\t_disableInitializers()\n  SHR \t\t\t_disableInitializers()\n  JUMP \t\t\t_disableInitializers()\ntag 4\t\t\t_disableInitializers()\n  JUMPDEST \t\t\t_disableInitializers()\n  PUSH [tag] 6\t\t\tcontract QAI is Initializable,...\n  JUMP \t\t\tcontract QAI is Initializable,...\ntag 5\t\t\t\n  JUMPDEST \t\t\t\n  PUSH 0\t\t\t\n  PUSH [tag] 8\t\t\t\n  PUSH [tag] 9\t\t\t\n  PUSH 20\t\t\t\n  SHL \t\t\t\n  PUSH 20\t\t\t\n  SHR \t\t\t\n  JUMP \t\t\t\ntag 8\t\t\t\n  JUMPDEST \t\t\t\n  SWAP1 \t\t\t\n  POP \t\t\t\n  DUP1 \t\t\t\n  PUSH 0\t\t\t\n  ADD \t\t\t\n  PUSH 8\t\t\t\n  SWAP1 \t\t\t\n  SLOAD \t\t\t\n  SWAP1 \t\t\t\n  PUSH 100\t\t\t\n  EXP \t\t\t\n  SWAP1 \t\t\t\n  DIV \t\t\t\n  PUSH FF\t\t\t\n  AND \t\t\t\n  ISZERO \t\t\t\n  PUSH [tag] 10\t\t\t\n  JUMPI \t\t\t\n  PUSH 40\t\t\t\n  MLOAD \t\t\t\n  PUSH F92EE8A900000000000000000000000000000000000000000000000000000000\t\t\t\n  DUP2 \t\t\t\n  MSTORE \t\t\t\n  PUSH 4\t\t\t\n  ADD \t\t\t\n  PUSH 40\t\t\t\n  MLOAD \t\t\t\n  DUP1 \t\t\t\n  SWAP2 \t\t\t\n  SUB \t\t\t\n  SWAP1 \t\t\t\n  REVERT \t\t\t\ntag 10\t\t\t\n  JUMPDEST \t\t\t\n  PUSH FFFFFFFFFFFFFFFF\t\t\t\n  DUP1 \t\t\t\n  AND \t\t\t\n  DUP2 \t\t\t\n  PUSH 0\t\t\t\n  ADD \t\t\t\n  PUSH 0\t\t\t\n  SWAP1 \t\t\t\n  SLOAD \t\t\t\n  SWAP1 \t\t\t\n  PUSH 100\t\t\t\n  EXP \t\t\t\n  SWAP1 \t\t\t\n  DIV \t\t\t\n  PUSH FFFFFFFFFFFFFFFF\t\t\t\n  AND \t\t\t\n  PUSH FFFFFFFFFFFFFFFF\t\t\t\n  AND \t\t\t\n  EQ \t\t\t\n  PUSH [tag] 11\t\t\t\n  JUMPI \t\t\t\n  PUSH FFFFFFFFFFFFFFFF\t\t\t\n  DUP2 \t\t\t\n  PUSH 0\t\t\t\n  ADD \t\t\t\n  PUSH 0\t\t\t\n  PUSH 100\t\t\t\n  EXP \t\t\t\n  DUP2 \t\t\t\n  SLOAD \t\t\t\n  DUP2 \t\t\t\n  PUSH FFFFFFFFFFFFFFFF\t\t\t\n  MUL \t\t\t\n  NOT \t\t\t\n  AND \t\t\t\n  SWAP1 \t\t\t\n  DUP4 \t\t\t\n  PUSH FFFFFFFFFFFFFFFF\t\t\t\n  AND \t\t\t\n  MUL \t\t\t\n  OR \t\t\t\n  SWAP1 \t\t\t\n  SSTORE \t\t\t\n  POP \t\t\t\n  PUSH C7F505B2F371AE2175EE4913F4499E1F2633A7B5936321EED1CDAEB6115181D2\t\t\t\n  PUSH FFFFFFFFFFFFFFFF\t\t\t\n  PUSH 40\t\t\t\n  MLOAD \t\t\t\n  PUSH [tag] 12\t\t\t\n  SWAP2 \t\t\t\n  SWAP1 \t\t\t\n  PUSH [tag] 13\t\t\t\n  JUMP \t\t\t\ntag 12\t\t\t\n  JUMPDEST \t\t\t\n  PUSH 40\t\t\t\n  MLOAD \t\t\t\n  DUP1 \t\t\t\n  SWAP2 \t\t\t\n  SUB \t\t\t\n  SWAP1 \t\t\t\n  LOG1 \t\t\t\ntag 11\t\t\t\n  JUMPDEST \t\t\t\n  POP \t\t\t\n  JUMP \t\t\t\ntag 9\t\t\t\n  JUMPDEST \t\t\t\n  PUSH 0\t\t\t\n  PUSH F0C57E16840DF040F15088DC2F81FE391C3923BEC73E23A9662EFC9C229C6A00\t\t\t\n  SWAP1 \t\t\t\n  POP \t\t\t\n  SWAP1 \t\t\t\n  JUMP \t\t\t\ntag 15\t\t\t-License-Identifier: QAI\\nprag...\n  JUMPDEST \t\t\t-License-Identifier: QAI\\nprag...\n  PUSH 0\t\t\tdity ^0\n  PUSH FFFFFFFFFFFFFFFF\t\t\ttracts-upgradeable\n  DUP3 \t\t\tlin/c\n  AND \t\t\teppelin/contracts-upgradeable@\n  SWAP1 \t\t\tort \"@openzeppelin/contracts-u...\n  POP \t\t\tort \"@openzeppelin/contracts-u...\n  SWAP2 \t\t\t-License-Identifier: QAI\\nprag...\n  SWAP1 \t\t\t-License-Identifier: QAI\\nprag...\n  POP \t\t\t-License-Identifier: QAI\\nprag...\n  JUMP \t\t\t-License-Identifier: QAI\\nprag...\ntag 16\t\t\tERC20/ERC20Upgradeable.sol\";\\n...\n  JUMPDEST \t\t\tERC20/ERC20Upgradeable.sol\";\\n...\n  PUSH [tag] 20\t\t\tERC20/extensions/ERC20B\n  DUP2 \t\t\tERC20\n  PUSH [tag] 15\t\t\tERC20/extensions/ERC20B\n  JUMP \t\t\tERC20/extensions/ERC20B\ntag 20\t\t\tERC20/extensions/ERC20B\n  JUMPDEST \t\t\tERC20/extensions/ERC20B\n  DUP3 \t\t\toke\n  MSTORE \t\t\t5.0.0/token/ERC20/extensions/E...\n  POP \t\t\tERC20/ERC20Upgradeable.sol\";\\n...\n  POP \t\t\tERC20/ERC20Upgradeable.sol\";\\n...\n  JUMP \t\t\tERC20/ERC20Upgradeable.sol\";\\n...\ntag 13\t\t\teable.sol\";\\nimport \"@openzepp...\n  JUMPDEST \t\t\teable.sol\";\\nimport \"@openzepp...\n  PUSH 0\t\t\tausa\n  PUSH 20\t\t\tze\n  DUP3 \t\t\tport \"@op\n  ADD \t\t\t;\\nimport \"@openzep\n  SWAP1 \t\t\tble.sol\";\\nimport \"@openzep\n  POP \t\t\tble.sol\";\\nimport \"@openzep\n  PUSH [tag] 22\t\t\tracts-upgradeable@5.0.0/access...\n  PUSH 0\t\t\tr\n  DUP4 \t\t\t.sol\";\\nim\n  ADD \t\t\table.sol\";\\nimport\n  DUP5 \t\t\tolUpgr\n  PUSH [tag] 16\t\t\tracts-upgradeable@5.0.0/access...\n  JUMP \t\t\tracts-upgradeable@5.0.0/access...\ntag 22\t\t\tracts-upgradeable@5.0.0/access...\n  JUMPDEST \t\t\tracts-upgradeable@5.0.0/access...\n  SWAP3 \t\t\teable.sol\";\\nimport \"@openzepp...\n  SWAP2 \t\t\teable.sol\";\\nimport \"@openzepp...\n  POP \t\t\teable.sol\";\\nimport \"@openzepp...\n  POP \t\t\teable.sol\";\\nimport \"@openzepp...\n  JUMP \t\t\teable.sol\";\\nimport \"@openzepp...\ntag 6\t\t\tcontract QAI is Initializable,...\n  JUMPDEST \t\t\tcontract QAI is Initializable,...\n  PUSH #[$] 0000000000000000000000000000000000000000000000000000000000000000\t\t\tcontract QAI is Initializable,...\n  DUP1 \t\t\tcontract QAI is Initializable,...\n  PUSH [$] 0000000000000000000000000000000000000000000000000000000000000000\t\t\tcontract QAI is Initializable,...\n  PUSH 0\t\t\tcontract QAI is Initializable,...\n  CODECOPY \t\t\tcontract QAI is Initializable,...\n  PUSH 0\t\t\tcontract QAI is Initializable,...\n  RETURN \t\t\tcontract QAI is Initializable,...\n.data\n  0:\n    .code\n      PUSH 80\t\t\tcontract QAI is Initializable,...\n      PUSH 40\t\t\tcontract QAI is Initializable,...\n      MSTORE \t\t\tcontract QAI is Initializable,...\n      CALLVALUE \t\t\tcontract QAI is Initializable,...\n      DUP1 \t\t\tcontract QAI is Initializable,...\n      ISZERO \t\t\tcontract QAI is Initializable,...\n      PUSH [tag] 1\t\t\tcontract QAI is Initializable,...\n      JUMPI \t\t\tcontract QAI is Initializable,...\n      PUSH 0\t\t\tcontract QAI is Initializable,...\n      DUP1 \t\t\tcontract QAI is Initializable,...\n      REVERT \t\t\tcontract QAI is Initializable,...\n    tag 1\t\t\tcontract QAI is Initializable,...\n      JUMPDEST \t\t\tcontract QAI is Initializable,...\n      POP \t\t\tcontract QAI is Initializable,...\n      PUSH 4\t\t\tcontract QAI is Initializable,...\n      CALLDATASIZE \t\t\tcontract QAI is Initializable,...\n      LT \t\t\tcontract QAI is Initializable,...\n      PUSH [tag] 2\t\t\tcontract QAI is Initializable,...\n      JUMPI \t\t\tcontract QAI is Initializable,...\n      PUSH 0\t\t\tcontract QAI is Initializable,...\n      CALLDATALOAD \t\t\tcontract QAI is Initializable,...\n      PUSH E0\t\t\tcontract QAI is Initializable,...\n      SHR \t\t\tcontract QAI is Initializable,...\n      DUP1 \t\t\tcontract QAI is Initializable,...\n      PUSH 70A08231\t\t\tcontract QAI is Initializable,...\n      GT \t\t\tcontract QAI is Initializable,...\n      PUSH [tag] 45\t\t\tcontract QAI is Initializable,...\n      JUMPI \t\t\tcontract QAI is Initializable,...\n      DUP1 \t\t\tcontract QAI is Initializable,...\n      PUSH A217FDDF\t\t\tcontract QAI is Initializable,...\n      GT \t\t\tcontract QAI is Initializable,...\n      PUSH [tag] 46\t\t\tcontract QAI is Initializable,...\n      JUMPI \t\t\tcontract QAI is Initializable,...\n      DUP1 \t\t\tcontract QAI is Initializable,...\n      PUSH D5391393\t\t\tcontract QAI is Initializable,...\n      GT \t\t\tcontract QAI is Initializable,...\n      PUSH [tag] 47\t\t\tcontract QAI is Initializable,...\n      JUMPI \t\t\tcontract QAI is Initializable,...\n      DUP1 \t\t\tcontract QAI is Initializable,...\n      PUSH D5391393\t\t\tcontract QAI is Initializable,...\n      EQ \t\t\tcontract QAI is Initializable,...\n      PUSH [tag] 39\t\t\tcontract QAI is Initializable,...\n      JUMPI \t\t\tcontract QAI is Initializable,...\n      DUP1 \t\t\tcontract QAI is Initializable,...\n      PUSH D547741F\t\t\tcontract QAI is Initializable,...\n      EQ \t\t\tcontract QAI is Initializable,...\n      PUSH [tag] 40\t\t\tcontract QAI is Initializable,...\n      JUMPI \t\t\tcontract QAI is Initializable,...\n      DUP1 \t\t\tcontract QAI is Initializable,...\n      PUSH D9D98CE4\t\t\tcontract QAI is Initializable,...\n      EQ \t\t\tcontract QAI is Initializable,...\n      PUSH [tag] 41\t\t\tcontract QAI is Initializable,...\n      JUMPI \t\t\tcontract QAI is Initializable,...\n      DUP1 \t\t\tcontract QAI is Initializable,...\n      PUSH DD62ED3E\t\t\tcontract QAI is Initializable,...\n      EQ \t\t\tcontract QAI is Initializable,...\n      PUSH [tag] 42\t\t\tcontract QAI is Initializable,...\n      JUMPI \t\t\tcontract QAI is Initializable,...\n      DUP1 \t\t\tcontract QAI is Initializable,...\n      PUSH E63AB1E9\t\t\tcontract QAI is Initializable,...\n      EQ \t\t\tcontract QAI is Initializable,...\n      PUSH [tag] 43\t\t\tcontract QAI is Initializable,...\n      JUMPI \t\t\tcontract QAI is Initializable,...\n      DUP1 \t\t\tcontract QAI is Initializable,...\n      PUSH F1127ED8\t\t\tcontract QAI is Initializable,...\n      EQ \t\t\tcontract QAI is Initializable,...\n      PUSH [tag] 44\t\t\tcontract QAI is Initializable,...\n      JUMPI \t\t\tcontract QAI is Initializable,...\n      PUSH [tag] 2\t\t\tcontract QAI is Initializable,...\n      JUMP \t\t\tcontract QAI is Initializable,...\n    tag 47\t\t\tcontract QAI is Initializable,...\n      JUMPDEST \t\t\tcontract QAI is Initializable,...\n      DUP1 \t\t\tcontract QAI is Initializable,...\n      PUSH A217FDDF\t\t\tcontract QAI is Initializable,...\n      EQ \t\t\tcontract QAI is Initializable,...\n      PUSH [tag] 34\t\t\tcontract QAI is Initializable,...\n      JUMPI \t\t\tcontract QAI is Initializable,...\n      DUP1 \t\t\tcontract QAI is Initializable,...\n      PUSH A9059CBB\t\t\tcontract QAI is Initializable,...\n      EQ \t\t\tcontract QAI is Initializable,...\n      PUSH [tag] 35\t\t\tcontract QAI is Initializable,...\n      JUMPI \t\t\tcontract QAI is Initializable,...\n      DUP1 \t\t\tcontract QAI is Initializable,...\n      PUSH C0C53B8B\t\t\tcontract QAI is Initializable,...\n      EQ \t\t\tcontract QAI is Initializable,...\n      PUSH [tag] 36\t\t\tcontract QAI is Initializable,...\n      JUMPI \t\t\tcontract QAI is Initializable,...\n      DUP1 \t\t\tcontract QAI is Initializable,...\n      PUSH C3CDA520\t\t\tcontract QAI is Initializable,...\n      EQ \t\t\tcontract QAI is Initializable,...\n      PUSH [tag] 37\t\t\tcontract QAI is Initializable,...\n      JUMPI \t\t\tcontract QAI is Initializable,...\n      DUP1 \t\t\tcontract QAI is Initializable,...\n      PUSH D505ACCF\t\t\tcontract QAI is Initializable,...\n      EQ \t\t\tcontract QAI is Initializable,...\n      PUSH [tag] 38\t\t\tcontract QAI is Initializable,...\n      JUMPI \t\t\tcontract QAI is Initializable,...\n      PUSH [tag] 2\t\t\tcontract QAI is Initializable,...\n      JUMP \t\t\tcontract QAI is Initializable,...\n    tag 46\t\t\tcontract QAI is Initializable,...\n      JUMPDEST \t\t\tcontract QAI is Initializable,...\n      DUP1 \t\t\tcontract QAI is Initializable,...\n      PUSH 8E539E8C\t\t\tcontract QAI is Initializable,...\n      GT \t\t\tcontract QAI is Initializable,...\n      PUSH [tag] 48\t\t\tcontract QAI is Initializable,...\n      JUMPI \t\t\tcontract QAI is Initializable,...\n      DUP1 \t\t\tcontract QAI is Initializable,...\n      PUSH 8E539E8C\t\t\tcontract QAI is Initializable,...\n      EQ \t\t\tcontract QAI is Initializable,...\n      PUSH [tag] 29\t\t\tcontract QAI is Initializable,...\n      JUMPI \t\t\tcontract QAI is Initializable,...\n      DUP1 \t\t\tcontract QAI is Initializable,...\n      PUSH 91D14854\t\t\tcontract QAI is Initializable,...\n      EQ \t\t\tcontract QAI is Initializable,...\n      PUSH [tag] 30\t\t\tcontract QAI is Initializable,...\n      JUMPI \t\t\tcontract QAI is Initializable,...\n      DUP1 \t\t\tcontract QAI is Initializable,...\n      PUSH 91DDADF4\t\t\tcontract QAI is Initializable,...\n      EQ \t\t\tcontract QAI is Initializable,...\n      PUSH [tag] 31\t\t\tcontract QAI is Initializable,...\n      JUMPI \t\t\tcontract QAI is Initializable,...\n      DUP1 \t\t\tcontract QAI is Initializable,...\n      PUSH 95D89B41\t\t\tcontract QAI is Initializable,...\n      EQ \t\t\tcontract QAI is Initializable,...\n      PUSH [tag] 32\t\t\tcontract QAI is Initializable,...\n      JUMPI \t\t\tcontract QAI is Initializable,...\n      DUP1 \t\t\tcontract QAI is Initializable,...\n      PUSH 9AB24EB0\t\t\tcontract QAI is Initializable,...\n      EQ \t\t\tcontract QAI is Initializable,...\n      PUSH [tag] 33\t\t\tcontract QAI is Initializable,...\n      JUMPI \t\t\tcontract QAI is Initializable,...\n      PUSH [tag] 2\t\t\tcontract QAI is Initializable,...\n      JUMP \t\t\tcontract QAI is Initializable,...\n    tag 48\t\t\tcontract QAI is Initializable,...\n      JUMPDEST \t\t\tcontract QAI is Initializable,...\n      DUP1 \t\t\tcontract QAI is Initializable,...\n      PUSH 70A08231\t\t\tcontract QAI is Initializable,...\n      EQ \t\t\tcontract QAI is Initializable,...\n      PUSH [tag] 24\t\t\tcontract QAI is Initializable,...\n      JUMPI \t\t\tcontract QAI is Initializable,...\n      DUP1 \t\t\tcontract QAI is Initializable,...\n      PUSH 79CC6790\t\t\tcontract QAI is Initializable,...\n      EQ \t\t\tcontract QAI is Initializable,...\n      PUSH [tag] 25\t\t\tcontract QAI is Initializable,...\n      JUMPI \t\t\tcontract QAI is Initializable,...\n      DUP1 \t\t\tcontract QAI is Initializable,...\n      PUSH 7ECEBE00\t\t\tcontract QAI is Initializable,...\n      EQ \t\t\tcontract QAI is Initializable,...\n      PUSH [tag] 26\t\t\tcontract QAI is Initializable,...\n      JUMPI \t\t\tcontract QAI is Initializable,...\n      DUP1 \t\t\tcontract QAI is Initializable,...\n      PUSH 8456CB59\t\t\tcontract QAI is Initializable,...\n      EQ \t\t\tcontract QAI is Initializable,...\n      PUSH [tag] 27\t\t\tcontract QAI is Initializable,...\n      JUMPI \t\t\tcontract QAI is Initializable,...\n      DUP1 \t\t\tcontract QAI is Initializable,...\n      PUSH 84B0196E\t\t\tcontract QAI is Initializable,...\n      EQ \t\t\tcontract QAI is Initializable,...\n      PUSH [tag] 28\t\t\tcontract QAI is Initializable,...\n      JUMPI \t\t\tcontract QAI is Initializable,...\n      PUSH [tag] 2\t\t\tcontract QAI is Initializable,...\n      JUMP \t\t\tcontract QAI is Initializable,...\n    tag 45\t\t\tcontract QAI is Initializable,...\n      JUMPDEST \t\t\tcontract QAI is Initializable,...\n      DUP1 \t\t\tcontract QAI is Initializable,...\n      PUSH 3A46B1A8\t\t\tcontract QAI is Initializable,...\n      GT \t\t\tcontract QAI is Initializable,...\n      PUSH [tag] 49\t\t\tcontract QAI is Initializable,...\n      JUMPI \t\t\tcontract QAI is Initializable,...\n      DUP1 \t\t\tcontract QAI is Initializable,...\n      PUSH 587CDE1E\t\t\tcontract QAI is Initializable,...\n      GT \t\t\tcontract QAI is Initializable,...\n      PUSH [tag] 50\t\t\tcontract QAI is Initializable,...\n      JUMPI \t\t\tcontract QAI is Initializable,...\n      DUP1 \t\t\tcontract QAI is Initializable,...\n      PUSH 587CDE1E\t\t\tcontract QAI is Initializable,...\n      EQ \t\t\tcontract QAI is Initializable,...\n      PUSH [tag] 18\t\t\tcontract QAI is Initializable,...\n      JUMPI \t\t\tcontract QAI is Initializable,...\n      DUP1 \t\t\tcontract QAI is Initializable,...\n      PUSH 5C19A95C\t\t\tcontract QAI is Initializable,...\n      EQ \t\t\tcontract QAI is Initializable,...\n      PUSH [tag] 19\t\t\tcontract QAI is Initializable,...\n      JUMPI \t\t\tcontract QAI is Initializable,...\n      DUP1 \t\t\tcontract QAI is Initializable,...\n      PUSH 5C975ABB\t\t\tcontract QAI is Initializable,...\n      EQ \t\t\tcontract QAI is Initializable,...\n      PUSH [tag] 20\t\t\tcontract QAI is Initializable,...\n      JUMPI \t\t\tcontract QAI is Initializable,...\n      DUP1 \t\t\tcontract QAI is Initializable,...\n      PUSH 5CFFE9DE\t\t\tcontract QAI is Initializable,...\n      EQ \t\t\tcontract QAI is Initializable,...\n      PUSH [tag] 21\t\t\tcontract QAI is Initializable,...\n      JUMPI \t\t\tcontract QAI is Initializable,...\n      DUP1 \t\t\tcontract QAI is Initializable,...\n      PUSH 613255AB\t\t\tcontract QAI is Initializable,...\n      EQ \t\t\tcontract QAI is Initializable,...\n      PUSH [tag] 22\t\t\tcontract QAI is Initializable,...\n      JUMPI \t\t\tcontract QAI is Initializable,...\n      DUP1 \t\t\tcontract QAI is Initializable,...\n      PUSH 6FCFFF45\t\t\tcontract QAI is Initializable,...\n      EQ \t\t\tcontract QAI is Initializable,...\n      PUSH [tag] 23\t\t\tcontract QAI is Initializable,...\n      JUMPI \t\t\tcontract QAI is Initializable,...\n      PUSH [tag] 2\t\t\tcontract QAI is Initializable,...\n      JUMP \t\t\tcontract QAI is Initializable,...\n    tag 50\t\t\tcontract QAI is Initializable,...\n      JUMPDEST \t\t\tcontract QAI is Initializable,...\n      DUP1 \t\t\tcontract QAI is Initializable,...\n      PUSH 3A46B1A8\t\t\tcontract QAI is Initializable,...\n      EQ \t\t\tcontract QAI is Initializable,...\n      PUSH [tag] 13\t\t\tcontract QAI is Initializable,...\n      JUMPI \t\t\tcontract QAI is Initializable,...\n      DUP1 \t\t\tcontract QAI is Initializable,...\n      PUSH 3F4BA83A\t\t\tcontract QAI is Initializable,...\n      EQ \t\t\tcontract QAI is Initializable,...\n      PUSH [tag] 14\t\t\tcontract QAI is Initializable,...\n      JUMPI \t\t\tcontract QAI is Initializable,...\n      DUP1 \t\t\tcontract QAI is Initializable,...\n      PUSH 40C10F19\t\t\tcontract QAI is Initializable,...\n      EQ \t\t\tcontract QAI is Initializable,...\n      PUSH [tag] 15\t\t\tcontract QAI is Initializable,...\n      JUMPI \t\t\tcontract QAI is Initializable,...\n      DUP1 \t\t\tcontract QAI is Initializable,...\n      PUSH 42966C68\t\t\tcontract QAI is Initializable,...\n      EQ \t\t\tcontract QAI is Initializable,...\n      PUSH [tag] 16\t\t\tcontract QAI is Initializable,...\n      JUMPI \t\t\tcontract QAI is Initializable,...\n      DUP1 \t\t\tcontract QAI is Initializable,...\n      PUSH 4BF5D7E9\t\t\tcontract QAI is Initializable,...\n      EQ \t\t\tcontract QAI is Initializable,...\n      PUSH [tag] 17\t\t\tcontract QAI is Initializable,...\n      JUMPI \t\t\tcontract QAI is Initializable,...\n      PUSH [tag] 2\t\t\tcontract QAI is Initializable,...\n      JUMP \t\t\tcontract QAI is Initializable,...\n    tag 49\t\t\tcontract QAI is Initializable,...\n      JUMPDEST \t\t\tcontract QAI is Initializable,...\n      DUP1 \t\t\tcontract QAI is Initializable,...\n      PUSH 248A9CA3\t\t\tcontract QAI is Initializable,...\n      GT \t\t\tcontract QAI is Initializable,...\n      PUSH [tag] 51\t\t\tcontract QAI is Initializable,...\n      JUMPI \t\t\tcontract QAI is Initializable,...\n      DUP1 \t\t\tcontract QAI is Initializable,...\n      PUSH 248A9CA3\t\t\tcontract QAI is Initializable,...\n      EQ \t\t\tcontract QAI is Initializable,...\n      PUSH [tag] 8\t\t\tcontract QAI is Initializable,...\n      JUMPI \t\t\tcontract QAI is Initializable,...\n      DUP1 \t\t\tcontract QAI is Initializable,...\n      PUSH 2F2FF15D\t\t\tcontract QAI is Initializable,...\n      EQ \t\t\tcontract QAI is Initializable,...\n      PUSH [tag] 9\t\t\tcontract QAI is Initializable,...\n      JUMPI \t\t\tcontract QAI is Initializable,...\n      DUP1 \t\t\tcontract QAI is Initializable,...\n      PUSH 313CE567\t\t\tcontract QAI is Initializable,...\n      EQ \t\t\tcontract QAI is Initializable,...\n      PUSH [tag] 10\t\t\tcontract QAI is Initializable,...\n      JUMPI \t\t\tcontract QAI is Initializable,...\n      DUP1 \t\t\tcontract QAI is Initializable,...\n      PUSH 3644E515\t\t\tcontract QAI is Initializable,...\n      EQ \t\t\tcontract QAI is Initializable,...\n      PUSH [tag] 11\t\t\tcontract QAI is Initializable,...\n      JUMPI \t\t\tcontract QAI is Initializable,...\n      DUP1 \t\t\tcontract QAI is Initializable,...\n      PUSH 36568ABE\t\t\tcontract QAI is Initializable,...\n      EQ \t\t\tcontract QAI is Initializable,...\n      PUSH [tag] 12\t\t\tcontract QAI is Initializable,...\n      JUMPI \t\t\tcontract QAI is Initializable,...\n      PUSH [tag] 2\t\t\tcontract QAI is Initializable,...\n      JUMP \t\t\tcontract QAI is Initializable,...\n    tag 51\t\t\tcontract QAI is Initializable,...\n      JUMPDEST \t\t\tcontract QAI is Initializable,...\n      DUP1 \t\t\tcontract QAI is Initializable,...\n      PUSH 1FFC9A7\t\t\tcontract QAI is Initializable,...\n      EQ \t\t\tcontract QAI is Initializable,...\n      PUSH [tag] 3\t\t\tcontract QAI is Initializable,...\n      JUMPI \t\t\tcontract QAI is Initializable,...\n      DUP1 \t\t\tcontract QAI is Initializable,...\n      PUSH 6FDDE03\t\t\tcontract QAI is Initializable,...\n      EQ \t\t\tcontract QAI is Initializable,...\n      PUSH [tag] 4\t\t\tcontract QAI is Initializable,...\n      JUMPI \t\t\tcontract QAI is Initializable,...\n      DUP1 \t\t\tcontract QAI is Initializable,...\n      PUSH 95EA7B3\t\t\tcontract QAI is Initializable,...\n      EQ \t\t\tcontract QAI is Initializable,...\n      PUSH [tag] 5\t\t\tcontract QAI is Initializable,...\n      JUMPI \t\t\tcontract QAI is Initializable,...\n      DUP1 \t\t\tcontract QAI is Initializable,...\n      PUSH 18160DDD\t\t\tcontract QAI is Initializable,...\n      EQ \t\t\tcontract QAI is Initializable,...\n      PUSH [tag] 6\t\t\tcontract QAI is Initializable,...\n      JUMPI \t\t\tcontract QAI is Initializable,...\n      DUP1 \t\t\tcontract QAI is Initializable,...\n      PUSH 23B872DD\t\t\tcontract QAI is Initializable,...\n      EQ \t\t\tcontract QAI is Initializable,...\n      PUSH [tag] 7\t\t\tcontract QAI is Initializable,...\n      JUMPI \t\t\tcontract QAI is Initializable,...\n    tag 2\t\t\tcontract QAI is Initializable,...\n      JUMPDEST \t\t\tcontract QAI is Initializable,...\n      PUSH 0\t\t\tcontract QAI is Initializable,...\n      DUP1 \t\t\tcontract QAI is Initializable,...\n      REVERT \t\t\tcontract QAI is Initializable,...\n    tag 3\t\t\t\n      JUMPDEST \t\t\t\n      PUSH [tag] 52\t\t\t\n      PUSH 4\t\t\t\n      DUP1 \t\t\t\n      CALLDATASIZE \t\t\t\n      SUB \t\t\t\n      DUP2 \t\t\t\n      ADD \t\t\t\n      SWAP1 \t\t\t\n      PUSH [tag] 53\t\t\t\n      SWAP2 \t\t\t\n      SWAP1 \t\t\t\n      PUSH [tag] 54\t\t\t\n      JUMP \t\t\t\n    tag 53\t\t\t\n      JUMPDEST \t\t\t\n      PUSH [tag] 55\t\t\t\n      JUMP \t\t\t\n    tag 52\t\t\t\n      JUMPDEST \t\t\t\n      PUSH 40\t\t\t\n      MLOAD \t\t\t\n      PUSH [tag] 56\t\t\t\n      SWAP2 \t\t\t\n      SWAP1 \t\t\t\n      PUSH [tag] 57\t\t\t\n      JUMP \t\t\t\n    tag 56\t\t\t\n      JUMPDEST \t\t\t\n      PUSH 40\t\t\t\n      MLOAD \t\t\t\n      DUP1 \t\t\t\n      SWAP2 \t\t\t\n      SUB \t\t\t\n      SWAP1 \t\t\t\n      RETURN \t\t\t\n    tag 4\t\t\t\n      JUMPDEST \t\t\t\n      PUSH [tag] 58\t\t\t\n      PUSH [tag] 59\t\t\t\n      JUMP \t\t\t\n    tag 58\t\t\t\n      JUMPDEST \t\t\t\n      PUSH 40\t\t\t\n      MLOAD \t\t\t\n      PUSH [tag] 60\t\t\t\n      SWAP2 \t\t\t\n      SWAP1 \t\t\t\n      PUSH [tag] 61\t\t\t\n      JUMP \t\t\t\n    tag 60\t\t\t\n      JUMPDEST \t\t\t\n      PUSH 40\t\t\t\n      MLOAD \t\t\t\n      DUP1 \t\t\t\n      SWAP2 \t\t\t\n      SUB \t\t\t\n      SWAP1 \t\t\t\n      RETURN \t\t\t\n    tag 5\t\t\t\n      JUMPDEST \t\t\t\n      PUSH [tag] 62\t\t\t\n      PUSH 4\t\t\t\n      DUP1 \t\t\t\n      CALLDATASIZE \t\t\t\n      SUB \t\t\t\n      DUP2 \t\t\t\n      ADD \t\t\t\n      SWAP1 \t\t\t\n      PUSH [tag] 63\t\t\t\n      SWAP2 \t\t\t\n      SWAP1 \t\t\t\n      PUSH [tag] 64\t\t\t\n      JUMP \t\t\t\n    tag 63\t\t\t\n      JUMPDEST \t\t\t\n      PUSH [tag] 65\t\t\t\n      JUMP \t\t\t\n    tag 62\t\t\t\n      JUMPDEST \t\t\t\n      PUSH 40\t\t\t\n      MLOAD \t\t\t\n      PUSH [tag] 66\t\t\t\n      SWAP2 \t\t\t\n      SWAP1 \t\t\t\n      PUSH [tag] 57\t\t\t\n      JUMP \t\t\t\n    tag 66\t\t\t\n      JUMPDEST \t\t\t\n      PUSH 40\t\t\t\n      MLOAD \t\t\t\n      DUP1 \t\t\t\n      SWAP2 \t\t\t\n      SUB \t\t\t\n      SWAP1 \t\t\t\n      RETURN \t\t\t\n    tag 6\t\t\t\n      JUMPDEST \t\t\t\n      PUSH [tag] 67\t\t\t\n      PUSH [tag] 68\t\t\t\n      JUMP \t\t\t\n    tag 67\t\t\t\n      JUMPDEST \t\t\t\n      PUSH 40\t\t\t\n      MLOAD \t\t\t\n      PUSH [tag] 69\t\t\t\n      SWAP2 \t\t\t\n      SWAP1 \t\t\t\n      PUSH [tag] 70\t\t\t\n      JUMP \t\t\t\n    tag 69\t\t\t\n      JUMPDEST \t\t\t\n      PUSH 40\t\t\t\n      MLOAD \t\t\t\n      DUP1 \t\t\t\n      SWAP2 \t\t\t\n      SUB \t\t\t\n      SWAP1 \t\t\t\n      RETURN \t\t\t\n    tag 7\t\t\t\n      JUMPDEST \t\t\t\n      PUSH [tag] 71\t\t\t\n      PUSH 4\t\t\t\n      DUP1 \t\t\t\n      CALLDATASIZE \t\t\t\n      SUB \t\t\t\n      DUP2 \t\t\t\n      ADD \t\t\t\n      SWAP1 \t\t\t\n      PUSH [tag] 72\t\t\t\n      SWAP2 \t\t\t\n      SWAP1 \t\t\t\n      PUSH [tag] 73\t\t\t\n      JUMP \t\t\t\n    tag 72\t\t\t\n      JUMPDEST \t\t\t\n      PUSH [tag] 74\t\t\t\n      JUMP \t\t\t\n    tag 71\t\t\t\n      JUMPDEST \t\t\t\n      PUSH 40\t\t\t\n      MLOAD \t\t\t\n      PUSH [tag] 75\t\t\t\n      SWAP2 \t\t\t\n      SWAP1 \t\t\t\n      PUSH [tag] 57\t\t\t\n      JUMP \t\t\t\n    tag 75\t\t\t\n      JUMPDEST \t\t\t\n      PUSH 40\t\t\t\n      MLOAD \t\t\t\n      DUP1 \t\t\t\n      SWAP2 \t\t\t\n      SUB \t\t\t\n      SWAP1 \t\t\t\n      RETURN \t\t\t\n    tag 8\t\t\t\n      JUMPDEST \t\t\t\n      PUSH [tag] 76\t\t\t\n      PUSH 4\t\t\t\n      DUP1 \t\t\t\n      CALLDATASIZE \t\t\t\n      SUB \t\t\t\n      DUP2 \t\t\t\n      ADD \t\t\t\n      SWAP1 \t\t\t\n      PUSH [tag] 77\t\t\t\n      SWAP2 \t\t\t\n      SWAP1 \t\t\t\n      PUSH [tag] 78\t\t\t\n      JUMP \t\t\t\n    tag 77\t\t\t\n      JUMPDEST \t\t\t\n      PUSH [tag] 79\t\t\t\n      JUMP \t\t\t\n    tag 76\t\t\t\n      JUMPDEST \t\t\t\n      PUSH 40\t\t\t\n      MLOAD \t\t\t\n      PUSH [tag] 80\t\t\t\n      SWAP2 \t\t\t\n      SWAP1 \t\t\t\n      PUSH [tag] 81\t\t\t\n      JUMP \t\t\t\n    tag 80\t\t\t\n      JUMPDEST \t\t\t\n      PUSH 40\t\t\t\n      MLOAD \t\t\t\n      DUP1 \t\t\t\n      SWAP2 \t\t\t\n      SUB \t\t\t\n      SWAP1 \t\t\t\n      RETURN \t\t\t\n    tag 9\t\t\t\n      JUMPDEST \t\t\t\n      PUSH [tag] 82\t\t\t\n      PUSH 4\t\t\t\n      DUP1 \t\t\t\n      CALLDATASIZE \t\t\t\n      SUB \t\t\t\n      DUP2 \t\t\t\n      ADD \t\t\t\n      SWAP1 \t\t\t\n      PUSH [tag] 83\t\t\t\n      SWAP2 \t\t\t\n      SWAP1 \t\t\t\n      PUSH [tag] 84\t\t\t\n      JUMP \t\t\t\n    tag 83\t\t\t\n      JUMPDEST \t\t\t\n      PUSH [tag] 85\t\t\t\n      JUMP \t\t\t\n    tag 82\t\t\t\n      JUMPDEST \t\t\t\n      STOP \t\t\t\n    tag 10\t\t\t\n      JUMPDEST \t\t\t\n      PUSH [tag] 86\t\t\t\n      PUSH [tag] 87\t\t\t\n      JUMP \t\t\t\n    tag 86\t\t\t\n      JUMPDEST \t\t\t\n      PUSH 40\t\t\t\n      MLOAD \t\t\t\n      PUSH [tag] 88\t\t\t\n      SWAP2 \t\t\t\n      SWAP1 \t\t\t\n      PUSH [tag] 89\t\t\t\n      JUMP \t\t\t\n    tag 88\t\t\t\n      JUMPDEST \t\t\t\n      PUSH 40\t\t\t\n      MLOAD \t\t\t\n      DUP1 \t\t\t\n      SWAP2 \t\t\t\n      SUB \t\t\t\n      SWAP1 \t\t\t\n      RETURN \t\t\t\n    tag 11\t\t\t\n      JUMPDEST \t\t\t\n      PUSH [tag] 90\t\t\t\n      PUSH [tag] 91\t\t\t\n      JUMP \t\t\t\n    tag 90\t\t\t\n      JUMPDEST \t\t\t\n      PUSH 40\t\t\t\n      MLOAD \t\t\t\n      PUSH [tag] 92\t\t\t\n      SWAP2 \t\t\t\n      SWAP1 \t\t\t\n      PUSH [tag] 81\t\t\t\n      JUMP \t\t\t\n    tag 92\t\t\t\n      JUMPDEST \t\t\t\n      PUSH 40\t\t\t\n      MLOAD \t\t\t\n      DUP1 \t\t\t\n      SWAP2 \t\t\t\n      SUB \t\t\t\n      SWAP1 \t\t\t\n      RETURN \t\t\t\n    tag 12\t\t\t\n      JUMPDEST \t\t\t\n      PUSH [tag] 93\t\t\t\n      PUSH 4\t\t\t\n      DUP1 \t\t\t\n      CALLDATASIZE \t\t\t\n      SUB \t\t\t\n      DUP2 \t\t\t\n      ADD \t\t\t\n      SWAP1 \t\t\t\n      PUSH [tag] 94\t\t\t\n      SWAP2 \t\t\t\n      SWAP1 \t\t\t\n      PUSH [tag] 84\t\t\t\n      JUMP \t\t\t\n    tag 94\t\t\t\n      JUMPDEST \t\t\t\n      PUSH [tag] 95\t\t\t\n      JUMP \t\t\t\n    tag 93\t\t\t\n      JUMPDEST \t\t\t\n      STOP \t\t\t\n    tag 13\t\t\t\n      JUMPDEST \t\t\t\n      PUSH [tag] 96\t\t\t\n      PUSH 4\t\t\t\n      DUP1 \t\t\t\n      CALLDATASIZE \t\t\t\n      SUB \t\t\t\n      DUP2 \t\t\t\n      ADD \t\t\t\n      SWAP1 \t\t\t\n      PUSH [tag] 97\t\t\t\n      SWAP2 \t\t\t\n      SWAP1 \t\t\t\n      PUSH [tag] 64\t\t\t\n      JUMP \t\t\t\n    tag 97\t\t\t\n      JUMPDEST \t\t\t\n      PUSH [tag] 98\t\t\t\n      JUMP \t\t\t\n    tag 96\t\t\t\n      JUMPDEST \t\t\t\n      PUSH 40\t\t\t\n      MLOAD \t\t\t\n      PUSH [tag] 99\t\t\t\n      SWAP2 \t\t\t\n      SWAP1 \t\t\t\n      PUSH [tag] 70\t\t\t\n      JUMP \t\t\t\n    tag 99\t\t\t\n      JUMPDEST \t\t\t\n      PUSH 40\t\t\t\n      MLOAD \t\t\t\n      DUP1 \t\t\t\n      SWAP2 \t\t\t\n      SUB \t\t\t\n      SWAP1 \t\t\t\n      RETURN \t\t\t\n    tag 14\t\t\tfunction unpause() public only...\n      JUMPDEST \t\t\tfunction unpause() public only...\n      PUSH [tag] 100\t\t\tfunction unpause() public only...\n      PUSH [tag] 101\t\t\tfunction unpause() public only...\n      JUMP \t\t\tfunction unpause() public only...\n    tag 100\t\t\tfunction unpause() public only...\n      JUMPDEST \t\t\tfunction unpause() public only...\n      STOP \t\t\tfunction unpause() public only...\n    tag 15\t\t\tfunction mint(address to, uint...\n      JUMPDEST \t\t\tfunction mint(address to, uint...\n      PUSH [tag] 102\t\t\tfunction mint(address to, uint...\n      PUSH 4\t\t\tfunction mint(address to, uint...\n      DUP1 \t\t\tfunction mint(address to, uint...\n      CALLDATASIZE \t\t\tfunction mint(address to, uint...\n      SUB \t\t\tfunction mint(address to, uint...\n      DUP2 \t\t\tfunction mint(address to, uint...\n      ADD \t\t\tfunction mint(address to, uint...\n      SWAP1 \t\t\tfunction mint(address to, uint...\n      PUSH [tag] 103\t\t\tfunction mint(address to, uint...\n      SWAP2 \t\t\tfunction mint(address to, uint...\n      SWAP1 \t\t\tfunction mint(address to, uint...\n      PUSH [tag] 64\t\t\tfunction mint(address to, uint...\n      JUMP \t\t\tfunction mint(address to, uint...\n    tag 103\t\t\tfunction mint(address to, uint...\n      JUMPDEST \t\t\tfunction mint(address to, uint...\n      PUSH [tag] 104\t\t\tfunction mint(address to, uint...\n      JUMP \t\t\tfunction mint(address to, uint...\n    tag 102\t\t\tfunction mint(address to, uint...\n      JUMPDEST \t\t\tfunction mint(address to, uint...\n      STOP \t\t\tfunction mint(address to, uint...\n    tag 16\t\t\tERC20BurnableUpgradeable, ERC2...\n      JUMPDEST \t\t\tERC20BurnableUpgradeable, ERC2...\n      PUSH [tag] 105\t\t\tERC20BurnableUpgradeable, ERC2...\n      PUSH 4\t\t\tERC20BurnableUpgradeable, ERC2...\n      DUP1 \t\t\tERC20BurnableUpgradeable, ERC2...\n      CALLDATASIZE \t\t\tERC20BurnableUpgradeable, ERC2...\n      SUB \t\t\tERC20BurnableUpgradeable, ERC2...\n      DUP2 \t\t\tERC20BurnableUpgradeable, ERC2...\n      ADD \t\t\tERC20BurnableUpgradeable, ERC2...\n      SWAP1 \t\t\tERC20BurnableUpgradeable, ERC2...\n      PUSH [tag] 106\t\t\tERC20BurnableUpgradeable, ERC2...\n      SWAP2 \t\t\tERC20BurnableUpgradeable, ERC2...\n      SWAP1 \t\t\tERC20BurnableUpgradeable, ERC2...\n      PUSH [tag] 107\t\t\tERC20BurnableUpgradeable, ERC2...\n      JUMP \t\t\tERC20BurnableUpgradeable, ERC2...\n    tag 106\t\t\tERC20BurnableUpgradeable, ERC2...\n      JUMPDEST \t\t\tERC20BurnableUpgradeable, ERC2...\n      PUSH [tag] 108\t\t\tERC20BurnableUpgradeable, ERC2...\n      JUMP \t\t\tERC20BurnableUpgradeable, ERC2...\n    tag 105\t\t\tERC20BurnableUpgradeable, ERC2...\n      JUMPDEST \t\t\tERC20BurnableUpgradeable, ERC2...\n      STOP \t\t\tERC20BurnableUpgradeable, ERC2...\n    tag 17\t\t\t\n      JUMPDEST \t\t\t\n      PUSH [tag] 109\t\t\t\n      PUSH [tag] 110\t\t\t\n      JUMP \t\t\t\n    tag 109\t\t\t\n      JUMPDEST \t\t\t\n      PUSH 40\t\t\t\n      MLOAD \t\t\t\n      PUSH [tag] 111\t\t\t\n      SWAP2 \t\t\t\n      SWAP1 \t\t\t\n      PUSH [tag] 61\t\t\t\n      JUMP \t\t\t\n    tag 111\t\t\t\n      JUMPDEST \t\t\t\n      PUSH 40\t\t\t\n      MLOAD \t\t\t\n      DUP1 \t\t\t\n      SWAP2 \t\t\t\n      SUB \t\t\t\n      SWAP1 \t\t\t\n      RETURN \t\t\t\n    tag 18\t\t\t\n      JUMPDEST \t\t\t\n      PUSH [tag] 112\t\t\t\n      PUSH 4\t\t\t\n      DUP1 \t\t\t\n      CALLDATASIZE \t\t\t\n      SUB \t\t\t\n      DUP2 \t\t\t\n      ADD \t\t\t\n      SWAP1 \t\t\t\n      PUSH [tag] 113\t\t\t\n      SWAP2 \t\t\t\n      SWAP1 \t\t\t\n      PUSH [tag] 114\t\t\t\n      JUMP \t\t\t\n    tag 113\t\t\t\n      JUMPDEST \t\t\t\n      PUSH [tag] 115\t\t\t\n      JUMP \t\t\t\n    tag 112\t\t\t\n      JUMPDEST \t\t\t\n      PUSH 40\t\t\t\n      MLOAD \t\t\t\n      PUSH [tag] 116\t\t\t\n      SWAP2 \t\t\t\n      SWAP1 \t\t\t\n      PUSH [tag] 117\t\t\t\n      JUMP \t\t\t\n    tag 116\t\t\t\n      JUMPDEST \t\t\t\n      PUSH 40\t\t\t\n      MLOAD \t\t\t\n      DUP1 \t\t\t\n      SWAP2 \t\t\t\n      SUB \t\t\t\n      SWAP1 \t\t\t\n      RETURN \t\t\t\n    tag 19\t\t\t\n      JUMPDEST \t\t\t\n      PUSH [tag] 118\t\t\t\n      PUSH 4\t\t\t\n      DUP1 \t\t\t\n      CALLDATASIZE \t\t\t\n      SUB \t\t\t\n      DUP2 \t\t\t\n      ADD \t\t\t\n      SWAP1 \t\t\t\n      PUSH [tag] 119\t\t\t\n      SWAP2 \t\t\t\n      SWAP1 \t\t\t\n      PUSH [tag] 114\t\t\t\n      JUMP \t\t\t\n    tag 119\t\t\t\n      JUMPDEST \t\t\t\n      PUSH [tag] 120\t\t\t\n      JUMP \t\t\t\n    tag 118\t\t\t\n      JUMPDEST \t\t\t\n      STOP \t\t\t\n    tag 20\t\t\t\n      JUMPDEST \t\t\t\n      PUSH [tag] 121\t\t\t\n      PUSH [tag] 122\t\t\t\n      JUMP \t\t\t\n    tag 121\t\t\t\n      JUMPDEST \t\t\t\n      PUSH 40\t\t\t\n      MLOAD \t\t\t\n      PUSH [tag] 123\t\t\t\n      SWAP2 \t\t\t\n      SWAP1 \t\t\t\n      PUSH [tag] 57\t\t\t\n      JUMP \t\t\t\n    tag 123\t\t\t\n      JUMPDEST \t\t\t\n      PUSH 40\t\t\t\n      MLOAD \t\t\t\n      DUP1 \t\t\t\n      SWAP2 \t\t\t\n      SUB \t\t\t\n      SWAP1 \t\t\t\n      RETURN \t\t\t\n    tag 21\t\t\t\n      JUMPDEST \t\t\t\n      PUSH [tag] 124\t\t\t\n      PUSH 4\t\t\t\n      DUP1 \t\t\t\n      CALLDATASIZE \t\t\t\n      SUB \t\t\t\n      DUP2 \t\t\t\n      ADD \t\t\t\n      SWAP1 \t\t\t\n      PUSH [tag] 125\t\t\t\n      SWAP2 \t\t\t\n      SWAP1 \t\t\t\n      PUSH [tag] 126\t\t\t\n      JUMP \t\t\t\n    tag 125\t\t\t\n      JUMPDEST \t\t\t\n      PUSH [tag] 127\t\t\t\n      JUMP \t\t\t\n    tag 124\t\t\t\n      JUMPDEST \t\t\t\n      PUSH 40\t\t\t\n      MLOAD \t\t\t\n      PUSH [tag] 128\t\t\t\n      SWAP2 \t\t\t\n      SWAP1 \t\t\t\n      PUSH [tag] 57\t\t\t\n      JUMP \t\t\t\n    tag 128\t\t\t\n      JUMPDEST \t\t\t\n      PUSH 40\t\t\t\n      MLOAD \t\t\t\n      DUP1 \t\t\t\n      SWAP2 \t\t\t\n      SUB \t\t\t\n      SWAP1 \t\t\t\n      RETURN \t\t\t\n    tag 22\t\t\tddress to, uint256 value)\\n   ...\n      JUMPDEST \t\t\tddress to, uint256 value)\\n   ...\n      PUSH [tag] 129\t\t\tddress to, uint256 value)\\n   ...\n      PUSH 4\t\t\tddress to, uint256 value)\\n   ...\n      DUP1 \t\t\tddress to, uint256 value)\\n   ...\n      CALLDATASIZE \t\t\tddress to, uint256 value)\\n   ...\n      SUB \t\t\tddress to, uint256 value)\\n   ...\n      DUP2 \t\t\tddress to, uint256 value)\\n   ...\n      ADD \t\t\tddress to, uint256 value)\\n   ...\n      SWAP1 \t\t\tddress to, uint256 value)\\n   ...\n      PUSH [tag] 130\t\t\tddress to, uint256 value)\\n   ...\n      SWAP2 \t\t\tddress to, uint256 value)\\n   ...\n      SWAP1 \t\t\tddress to, uint256 value)\\n   ...\n      PUSH [tag] 114\t\t\tddress to, uint256 value)\\n   ...\n      JUMP \t\t\tddress to, uint256 value)\\n   ...\n    tag 130\t\t\tddress to, uint256 value)\\n   ...\n      JUMPDEST \t\t\tddress to, uint256 value)\\n   ...\n      PUSH [tag] 131\t\t\tddress to, uint256 value)\\n   ...\n      JUMP \t\t\tddress to, uint256 value)\\n   ...\n    tag 129\t\t\tddress to, uint256 value)\\n   ...\n      JUMPDEST \t\t\tddress to, uint256 value)\\n   ...\n      PUSH 40\t\t\tddress to, uint256 value)\\n   ...\n      MLOAD \t\t\tddress to, uint256 value)\\n   ...\n      PUSH [tag] 132\t\t\tddress to, uint256 value)\\n   ...\n      SWAP2 \t\t\tddress to, uint256 value)\\n   ...\n      SWAP1 \t\t\tddress to, uint256 value)\\n   ...\n      PUSH [tag] 70\t\t\tddress to, uint256 value)\\n   ...\n      JUMP \t\t\tddress to, uint256 value)\\n   ...\n    tag 132\t\t\tddress to, uint256 value)\\n   ...\n      JUMPDEST \t\t\tddress to, uint256 value)\\n   ...\n      PUSH 40\t\t\tddress to, uint256 value)\\n   ...\n      MLOAD \t\t\tddress to, uint256 value)\\n   ...\n      DUP1 \t\t\tddress to, uint256 value)\\n   ...\n      SWAP2 \t\t\tddress to, uint256 value)\\n   ...\n      SUB \t\t\tddress to, uint256 value)\\n   ...\n      SWAP1 \t\t\tddress to, uint256 value)\\n   ...\n      RETURN \t\t\tddress to, uint256 value)\\n   ...\n    tag 23\t\t\t\n      JUMPDEST \t\t\t\n      PUSH [tag] 133\t\t\t\n      PUSH 4\t\t\t\n      DUP1 \t\t\t\n      CALLDATASIZE \t\t\t\n      SUB \t\t\t\n      DUP2 \t\t\t\n      ADD \t\t\t\n      SWAP1 \t\t\t\n      PUSH [tag] 134\t\t\t\n      SWAP2 \t\t\t\n      SWAP1 \t\t\t\n      PUSH [tag] 114\t\t\t\n      JUMP \t\t\t\n    tag 134\t\t\t\n      JUMPDEST \t\t\t\n      PUSH [tag] 135\t\t\t\n      JUMP \t\t\t\n    tag 133\t\t\t\n      JUMPDEST \t\t\t\n      PUSH 40\t\t\t\n      MLOAD \t\t\t\n      PUSH [tag] 136\t\t\t\n      SWAP2 \t\t\t\n      SWAP1 \t\t\t\n      PUSH [tag] 137\t\t\t\n      JUMP \t\t\t\n    tag 136\t\t\t\n      JUMPDEST \t\t\t\n      PUSH 40\t\t\t\n      MLOAD \t\t\t\n      DUP1 \t\t\t\n      SWAP2 \t\t\t\n      SUB \t\t\t\n      SWAP1 \t\t\t\n      RETURN \t\t\t\n    tag 24\t\t\t\n      JUMPDEST \t\t\t\n      PUSH [tag] 138\t\t\t\n      PUSH 4\t\t\t\n      DUP1 \t\t\t\n      CALLDATASIZE \t\t\t\n      SUB \t\t\t\n      DUP2 \t\t\t\n      ADD \t\t\t\n      SWAP1 \t\t\t\n      PUSH [tag] 139\t\t\t\n      SWAP2 \t\t\t\n      SWAP1 \t\t\t\n      PUSH [tag] 114\t\t\t\n      JUMP \t\t\t\n    tag 139\t\t\t\n      JUMPDEST \t\t\t\n      PUSH [tag] 140\t\t\t\n      JUMP \t\t\t\n    tag 138\t\t\t\n      JUMPDEST \t\t\t\n      PUSH 40\t\t\t\n      MLOAD \t\t\t\n      PUSH [tag] 141\t\t\t\n      SWAP2 \t\t\t\n      SWAP1 \t\t\t\n      PUSH [tag] 70\t\t\t\n      JUMP \t\t\t\n    tag 141\t\t\t\n      JUMPDEST \t\t\t\n      PUSH 40\t\t\t\n      MLOAD \t\t\t\n      DUP1 \t\t\t\n      SWAP2 \t\t\t\n      SUB \t\t\t\n      SWAP1 \t\t\t\n      RETURN \t\t\t\n    tag 25\t\t\t   function initialize(address...\n      JUMPDEST \t\t\t   function initialize(address...\n      PUSH [tag] 142\t\t\t   function initialize(address...\n      PUSH 4\t\t\t   function initialize(address...\n      DUP1 \t\t\t   function initialize(address...\n      CALLDATASIZE \t\t\t   function initialize(address...\n      SUB \t\t\t   function initialize(address...\n      DUP2 \t\t\t   function initialize(address...\n      ADD \t\t\t   function initialize(address...\n      SWAP1 \t\t\t   function initialize(address...\n      PUSH [tag] 143\t\t\t   function initialize(address...\n      SWAP2 \t\t\t   function initialize(address...\n      SWAP1 \t\t\t   function initialize(address...\n      PUSH [tag] 64\t\t\t   function initialize(address...\n      JUMP \t\t\t   function initialize(address...\n    tag 143\t\t\t   function initialize(address...\n      JUMPDEST \t\t\t   function initialize(address...\n      PUSH [tag] 144\t\t\t   function initialize(address...\n      JUMP \t\t\t   function initialize(address...\n    tag 142\t\t\t   function initialize(address...\n      JUMPDEST \t\t\t   function initialize(address...\n      STOP \t\t\t   function initialize(address...\n    tag 26\t\t\tfunction nonces(address owner)...\n      JUMPDEST \t\t\tfunction nonces(address owner)...\n      PUSH [tag] 145\t\t\tfunction nonces(address owner)...\n      PUSH 4\t\t\tfunction nonces(address owner)...\n      DUP1 \t\t\tfunction nonces(address owner)...\n      CALLDATASIZE \t\t\tfunction nonces(address owner)...\n      SUB \t\t\tfunction nonces(address owner)...\n      DUP2 \t\t\tfunction nonces(address owner)...\n      ADD \t\t\tfunction nonces(address owner)...\n      SWAP1 \t\t\tfunction nonces(address owner)...\n      PUSH [tag] 146\t\t\tfunction nonces(address owner)...\n      SWAP2 \t\t\tfunction nonces(address owner)...\n      SWAP1 \t\t\tfunction nonces(address owner)...\n      PUSH [tag] 114\t\t\tfunction nonces(address owner)...\n      JUMP \t\t\tfunction nonces(address owner)...\n    tag 146\t\t\tfunction nonces(address owner)...\n      JUMPDEST \t\t\tfunction nonces(address owner)...\n      PUSH [tag] 147\t\t\tfunction nonces(address owner)...\n      JUMP \t\t\tfunction nonces(address owner)...\n    tag 145\t\t\tfunction nonces(address owner)...\n      JUMPDEST \t\t\tfunction nonces(address owner)...\n      PUSH 40\t\t\tfunction nonces(address owner)...\n      MLOAD \t\t\tfunction nonces(address owner)...\n      PUSH [tag] 148\t\t\tfunction nonces(address owner)...\n      SWAP2 \t\t\tfunction nonces(address owner)...\n      SWAP1 \t\t\tfunction nonces(address owner)...\n      PUSH [tag] 70\t\t\tfunction nonces(address owner)...\n      JUMP \t\t\tfunction nonces(address owner)...\n    tag 148\t\t\tfunction nonces(address owner)...\n      JUMPDEST \t\t\tfunction nonces(address owner)...\n      PUSH 40\t\t\tfunction nonces(address owner)...\n      MLOAD \t\t\tfunction nonces(address owner)...\n      DUP1 \t\t\tfunction nonces(address owner)...\n      SWAP2 \t\t\tfunction nonces(address owner)...\n      SUB \t\t\tfunction nonces(address owner)...\n      SWAP1 \t\t\tfunction nonces(address owner)...\n      RETURN \t\t\tfunction nonces(address owner)...\n    tag 27\t\t\tfunction pause() public onlyRo...\n      JUMPDEST \t\t\tfunction pause() public onlyRo...\n      PUSH [tag] 149\t\t\tfunction pause() public onlyRo...\n      PUSH [tag] 150\t\t\tfunction pause() public onlyRo...\n      JUMP \t\t\tfunction pause() public onlyRo...\n    tag 149\t\t\tfunction pause() public onlyRo...\n      JUMPDEST \t\t\tfunction pause() public onlyRo...\n      STOP \t\t\tfunction pause() public onlyRo...\n    tag 28\t\t\t\n      JUMPDEST \t\t\t\n      PUSH [tag] 151\t\t\t\n      PUSH [tag] 152\t\t\t\n      JUMP \t\t\t\n    tag 151\t\t\t\n      JUMPDEST \t\t\t\n      PUSH 40\t\t\t\n      MLOAD \t\t\t\n      PUSH [tag] 153\t\t\t\n      SWAP8 \t\t\t\n      SWAP7 \t\t\t\n      SWAP6 \t\t\t\n      SWAP5 \t\t\t\n      SWAP4 \t\t\t\n      SWAP3 \t\t\t\n      SWAP2 \t\t\t\n      SWAP1 \t\t\t\n      PUSH [tag] 154\t\t\t\n      JUMP \t\t\t\n    tag 153\t\t\t\n      JUMPDEST \t\t\t\n      PUSH 40\t\t\t\n      MLOAD \t\t\t\n      DUP1 \t\t\t\n      SWAP2 \t\t\t\n      SUB \t\t\t\n      SWAP1 \t\t\t\n      RETURN \t\t\t\n    tag 29\t\t\t\n      JUMPDEST \t\t\t\n      PUSH [tag] 155\t\t\t\n      PUSH 4\t\t\t\n      DUP1 \t\t\t\n      CALLDATASIZE \t\t\t\n      SUB \t\t\t\n      DUP2 \t\t\t\n      ADD \t\t\t\n      SWAP1 \t\t\t\n      PUSH [tag] 156\t\t\t\n      SWAP2 \t\t\t\n      SWAP1 \t\t\t\n      PUSH [tag] 107\t\t\t\n      JUMP \t\t\t\n    tag 156\t\t\t\n      JUMPDEST \t\t\t\n      PUSH [tag] 157\t\t\t\n      JUMP \t\t\t\n    tag 155\t\t\t\n      JUMPDEST \t\t\t\n      PUSH 40\t\t\t\n      MLOAD \t\t\t\n      PUSH [tag] 158\t\t\t\n      SWAP2 \t\t\t\n      SWAP1 \t\t\t\n      PUSH [tag] 70\t\t\t\n      JUMP \t\t\t\n    tag 158\t\t\t\n      JUMPDEST \t\t\t\n      PUSH 40\t\t\t\n      MLOAD \t\t\t\n      DUP1 \t\t\t\n      SWAP2 \t\t\t\n      SUB \t\t\t\n      SWAP1 \t\t\t\n      RETURN \t\t\t\n    tag 30\t\t\t\n      JUMPDEST \t\t\t\n      PUSH [tag] 159\t\t\t\n      PUSH 4\t\t\t\n      DUP1 \t\t\t\n      CALLDATASIZE \t\t\t\n      SUB \t\t\t\n      DUP2 \t\t\t\n      ADD \t\t\t\n      SWAP1 \t\t\t\n      PUSH [tag] 160\t\t\t\n      SWAP2 \t\t\t\n      SWAP1 \t\t\t\n      PUSH [tag] 84\t\t\t\n      JUMP \t\t\t\n    tag 160\t\t\t\n      JUMPDEST \t\t\t\n      PUSH [tag] 161\t\t\t\n      JUMP \t\t\t\n    tag 159\t\t\t\n      JUMPDEST \t\t\t\n      PUSH 40\t\t\t\n      MLOAD \t\t\t\n      PUSH [tag] 162\t\t\t\n      SWAP2 \t\t\t\n      SWAP1 \t\t\t\n      PUSH [tag] 57\t\t\t\n      JUMP \t\t\t\n    tag 162\t\t\t\n      JUMPDEST \t\t\t\n      PUSH 40\t\t\t\n      MLOAD \t\t\t\n      DUP1 \t\t\t\n      SWAP2 \t\t\t\n      SUB \t\t\t\n      SWAP1 \t\t\t\n      RETURN \t\t\t\n    tag 31\t\t\t\n      JUMPDEST \t\t\t\n      PUSH [tag] 163\t\t\t\n      PUSH [tag] 164\t\t\t\n      JUMP \t\t\t\n    tag 163\t\t\t\n      JUMPDEST \t\t\t\n      PUSH 40\t\t\t\n      MLOAD \t\t\t\n      PUSH [tag] 165\t\t\t\n      SWAP2 \t\t\t\n      SWAP1 \t\t\t\n      PUSH [tag] 166\t\t\t\n      JUMP \t\t\t\n    tag 165\t\t\t\n      JUMPDEST \t\t\t\n      PUSH 40\t\t\t\n      MLOAD \t\t\t\n      DUP1 \t\t\t\n      SWAP2 \t\t\t\n      SUB \t\t\t\n      SWAP1 \t\t\t\n      RETURN \t\t\t\n    tag 32\t\t\t\n      JUMPDEST \t\t\t\n      PUSH [tag] 167\t\t\t\n      PUSH [tag] 168\t\t\t\n      JUMP \t\t\t\n    tag 167\t\t\t\n      JUMPDEST \t\t\t\n      PUSH 40\t\t\t\n      MLOAD \t\t\t\n      PUSH [tag] 169\t\t\t\n      SWAP2 \t\t\t\n      SWAP1 \t\t\t\n      PUSH [tag] 61\t\t\t\n      JUMP \t\t\t\n    tag 169\t\t\t\n      JUMPDEST \t\t\t\n      PUSH 40\t\t\t\n      MLOAD \t\t\t\n      DUP1 \t\t\t\n      SWAP2 \t\t\t\n      SUB \t\t\t\n      SWAP1 \t\t\t\n      RETURN \t\t\t\n    tag 33\t\t\t\n      JUMPDEST \t\t\t\n      PUSH [tag] 170\t\t\t\n      PUSH 4\t\t\t\n      DUP1 \t\t\t\n      CALLDATASIZE \t\t\t\n      SUB \t\t\t\n      DUP2 \t\t\t\n      ADD \t\t\t\n      SWAP1 \t\t\t\n      PUSH [tag] 171\t\t\t\n      SWAP2 \t\t\t\n      SWAP1 \t\t\t\n      PUSH [tag] 114\t\t\t\n      JUMP \t\t\t\n    tag 171\t\t\t\n      JUMPDEST \t\t\t\n      PUSH [tag] 172\t\t\t\n      JUMP \t\t\t\n    tag 170\t\t\t\n      JUMPDEST \t\t\t\n      PUSH 40\t\t\t\n      MLOAD \t\t\t\n      PUSH [tag] 173\t\t\t\n      SWAP2 \t\t\t\n      SWAP1 \t\t\t\n      PUSH [tag] 70\t\t\t\n      JUMP \t\t\t\n    tag 173\t\t\t\n      JUMPDEST \t\t\t\n      PUSH 40\t\t\t\n      MLOAD \t\t\t\n      DUP1 \t\t\t\n      SWAP2 \t\t\t\n      SUB \t\t\t\n      SWAP1 \t\t\t\n      RETURN \t\t\t\n    tag 34\t\t\teable, ERC20PausableUpgradeabl...\n      JUMPDEST \t\t\teable, ERC20PausableUpgradeabl...\n      PUSH [tag] 174\t\t\teable, ERC20PausableUpgradeabl...\n      PUSH [tag] 175\t\t\teable, ERC20PausableUpgradeabl...\n      JUMP \t\t\teable, ERC20PausableUpgradeabl...\n    tag 174\t\t\teable, ERC20PausableUpgradeabl...\n      JUMPDEST \t\t\teable, ERC20PausableUpgradeabl...\n      PUSH 40\t\t\teable, ERC20PausableUpgradeabl...\n      MLOAD \t\t\teable, ERC20PausableUpgradeabl...\n      PUSH [tag] 176\t\t\teable, ERC20PausableUpgradeabl...\n      SWAP2 \t\t\teable, ERC20PausableUpgradeabl...\n      SWAP1 \t\t\teable, ERC20PausableUpgradeabl...\n      PUSH [tag] 81\t\t\teable, ERC20PausableUpgradeabl...\n      JUMP \t\t\teable, ERC20PausableUpgradeabl...\n    tag 176\t\t\teable, ERC20PausableUpgradeabl...\n      JUMPDEST \t\t\teable, ERC20PausableUpgradeabl...\n      PUSH 40\t\t\teable, ERC20PausableUpgradeabl...\n      MLOAD \t\t\teable, ERC20PausableUpgradeabl...\n      DUP1 \t\t\teable, ERC20PausableUpgradeabl...\n      SWAP2 \t\t\teable, ERC20PausableUpgradeabl...\n      SUB \t\t\teable, ERC20PausableUpgradeabl...\n      SWAP1 \t\t\teable, ERC20PausableUpgradeabl...\n      RETURN \t\t\teable, ERC20PausableUpgradeabl...\n    tag 35\t\t\t\n      JUMPDEST \t\t\t\n      PUSH [tag] 177\t\t\t\n      PUSH 4\t\t\t\n      DUP1 \t\t\t\n      CALLDATASIZE \t\t\t\n      SUB \t\t\t\n      DUP2 \t\t\t\n      ADD \t\t\t\n      SWAP1 \t\t\t\n      PUSH [tag] 178\t\t\t\n      SWAP2 \t\t\t\n      SWAP1 \t\t\t\n      PUSH [tag] 64\t\t\t\n      JUMP \t\t\t\n    tag 178\t\t\t\n      JUMPDEST \t\t\t\n      PUSH [tag] 179\t\t\t\n      JUMP \t\t\t\n    tag 177\t\t\t\n      JUMPDEST \t\t\t\n      PUSH 40\t\t\t\n      MLOAD \t\t\t\n      PUSH [tag] 180\t\t\t\n      SWAP2 \t\t\t\n      SWAP1 \t\t\t\n      PUSH [tag] 57\t\t\t\n      JUMP \t\t\t\n    tag 180\t\t\t\n      JUMPDEST \t\t\t\n      PUSH 40\t\t\t\n      MLOAD \t\t\t\n      DUP1 \t\t\t\n      SWAP2 \t\t\t\n      SUB \t\t\t\n      SWAP1 \t\t\t\n      RETURN \t\t\t\n    tag 36\t\t\tfunction initialize(address de...\n      JUMPDEST \t\t\tfunction initialize(address de...\n      PUSH [tag] 181\t\t\tfunction initialize(address de...\n      PUSH 4\t\t\tfunction initialize(address de...\n      DUP1 \t\t\tfunction initialize(address de...\n      CALLDATASIZE \t\t\tfunction initialize(address de...\n      SUB \t\t\tfunction initialize(address de...\n      DUP2 \t\t\tfunction initialize(address de...\n      ADD \t\t\tfunction initialize(address de...\n      SWAP1 \t\t\tfunction initialize(address de...\n      PUSH [tag] 182\t\t\tfunction initialize(address de...\n      SWAP2 \t\t\tfunction initialize(address de...\n      SWAP1 \t\t\tfunction initialize(address de...\n      PUSH [tag] 183\t\t\tfunction initialize(address de...\n      JUMP \t\t\tfunction initialize(address de...\n    tag 182\t\t\tfunction initialize(address de...\n      JUMPDEST \t\t\tfunction initialize(address de...\n      PUSH [tag] 184\t\t\tfunction initialize(address de...\n      JUMP \t\t\tfunction initialize(address de...\n    tag 181\t\t\tfunction initialize(address de...\n      JUMPDEST \t\t\tfunction initialize(address de...\n      STOP \t\t\tfunction initialize(address de...\n    tag 37\t\t\t\n      JUMPDEST \t\t\t\n      PUSH [tag] 185\t\t\t\n      PUSH 4\t\t\t\n      DUP1 \t\t\t\n      CALLDATASIZE \t\t\t\n      SUB \t\t\t\n      DUP2 \t\t\t\n      ADD \t\t\t\n      SWAP1 \t\t\t\n      PUSH [tag] 186\t\t\t\n      SWAP2 \t\t\t\n      SWAP1 \t\t\t\n      PUSH [tag] 187\t\t\t\n      JUMP \t\t\t\n    tag 186\t\t\t\n      JUMPDEST \t\t\t\n      PUSH [tag] 188\t\t\t\n      JUMP \t\t\t\n    tag 185\t\t\t\n      JUMPDEST \t\t\t\n      STOP \t\t\t\n    tag 38\t\t\tNTER_ROLE) {\\n        _mint(to...\n      JUMPDEST \t\t\tNTER_ROLE) {\\n        _mint(to...\n      PUSH [tag] 189\t\t\tNTER_ROLE) {\\n        _mint(to...\n      PUSH 4\t\t\tNTER_ROLE) {\\n        _mint(to...\n      DUP1 \t\t\tNTER_ROLE) {\\n        _mint(to...\n      CALLDATASIZE \t\t\tNTER_ROLE) {\\n        _mint(to...\n      SUB \t\t\tNTER_ROLE) {\\n        _mint(to...\n      DUP2 \t\t\tNTER_ROLE) {\\n        _mint(to...\n      ADD \t\t\tNTER_ROLE) {\\n        _mint(to...\n      SWAP1 \t\t\tNTER_ROLE) {\\n        _mint(to...\n      PUSH [tag] 190\t\t\tNTER_ROLE) {\\n        _mint(to...\n      SWAP2 \t\t\tNTER_ROLE) {\\n        _mint(to...\n      SWAP1 \t\t\tNTER_ROLE) {\\n        _mint(to...\n      PUSH [tag] 191\t\t\tNTER_ROLE) {\\n        _mint(to...\n      JUMP \t\t\tNTER_ROLE) {\\n        _mint(to...\n    tag 190\t\t\tNTER_ROLE) {\\n        _mint(to...\n      JUMPDEST \t\t\tNTER_ROLE) {\\n        _mint(to...\n      PUSH [tag] 192\t\t\tNTER_ROLE) {\\n        _mint(to...\n      JUMP \t\t\tNTER_ROLE) {\\n        _mint(to...\n    tag 189\t\t\tNTER_ROLE) {\\n        _mint(to...\n      JUMPDEST \t\t\tNTER_ROLE) {\\n        _mint(to...\n      STOP \t\t\tNTER_ROLE) {\\n        _mint(to...\n    tag 39\t\t\tbytes32 public constant MINTER...\n      JUMPDEST \t\t\tbytes32 public constant MINTER...\n      PUSH [tag] 193\t\t\tbytes32 public constant MINTER...\n      PUSH [tag] 194\t\t\tbytes32 public constant MINTER...\n      JUMP \t\t\tbytes32 public constant MINTER...\n    tag 193\t\t\tbytes32 public constant MINTER...\n      JUMPDEST \t\t\tbytes32 public constant MINTER...\n      PUSH 40\t\t\tbytes32 public constant MINTER...\n      MLOAD \t\t\tbytes32 public constant MINTER...\n      PUSH [tag] 195\t\t\tbytes32 public constant MINTER...\n      SWAP2 \t\t\tbytes32 public constant MINTER...\n      SWAP1 \t\t\tbytes32 public constant MINTER...\n      PUSH [tag] 81\t\t\tbytes32 public constant MINTER...\n      JUMP \t\t\tbytes32 public constant MINTER...\n    tag 195\t\t\tbytes32 public constant MINTER...\n      JUMPDEST \t\t\tbytes32 public constant MINTER...\n      PUSH 40\t\t\tbytes32 public constant MINTER...\n      MLOAD \t\t\tbytes32 public constant MINTER...\n      DUP1 \t\t\tbytes32 public constant MINTER...\n      SWAP2 \t\t\tbytes32 public constant MINTER...\n      SUB \t\t\tbytes32 public constant MINTER...\n      SWAP1 \t\t\tbytes32 public constant MINTER...\n      RETURN \t\t\tbytes32 public constant MINTER...\n    tag 40\t\t\t\n      JUMPDEST \t\t\t\n      PUSH [tag] 196\t\t\t\n      PUSH 4\t\t\t\n      DUP1 \t\t\t\n      CALLDATASIZE \t\t\t\n      SUB \t\t\t\n      DUP2 \t\t\t\n      ADD \t\t\t\n      SWAP1 \t\t\t\n      PUSH [tag] 197\t\t\t\n      SWAP2 \t\t\t\n      SWAP1 \t\t\t\n      PUSH [tag] 84\t\t\t\n      JUMP \t\t\t\n    tag 197\t\t\t\n      JUMPDEST \t\t\t\n      PUSH [tag] 198\t\t\t\n      JUMP \t\t\t\n    tag 196\t\t\t\n      JUMPDEST \t\t\t\n      STOP \t\t\t\n    tag 41\t\t\t\n      JUMPDEST \t\t\t\n      PUSH [tag] 199\t\t\t\n      PUSH 4\t\t\t\n      DUP1 \t\t\t\n      CALLDATASIZE \t\t\t\n      SUB \t\t\t\n      DUP2 \t\t\t\n      ADD \t\t\t\n      SWAP1 \t\t\t\n      PUSH [tag] 200\t\t\t\n      SWAP2 \t\t\t\n      SWAP1 \t\t\t\n      PUSH [tag] 64\t\t\t\n      JUMP \t\t\t\n    tag 200\t\t\t\n      JUMPDEST \t\t\t\n      PUSH [tag] 201\t\t\t\n      JUMP \t\t\t\n    tag 199\t\t\t\n      JUMPDEST \t\t\t\n      PUSH 40\t\t\t\n      MLOAD \t\t\t\n      PUSH [tag] 202\t\t\t\n      SWAP2 \t\t\t\n      SWAP1 \t\t\t\n      PUSH [tag] 70\t\t\t\n      JUMP \t\t\t\n    tag 202\t\t\t\n      JUMPDEST \t\t\t\n      PUSH 40\t\t\t\n      MLOAD \t\t\t\n      DUP1 \t\t\t\n      SWAP2 \t\t\t\n      SUB \t\t\t\n      SWAP1 \t\t\t\n      RETURN \t\t\t\n    tag 42\t\t\t\n      JUMPDEST \t\t\t\n      PUSH [tag] 203\t\t\t\n      PUSH 4\t\t\t\n      DUP1 \t\t\t\n      CALLDATASIZE \t\t\t\n      SUB \t\t\t\n      DUP2 \t\t\t\n      ADD \t\t\t\n      SWAP1 \t\t\t\n      PUSH [tag] 204\t\t\t\n      SWAP2 \t\t\t\n      SWAP1 \t\t\t\n      PUSH [tag] 205\t\t\t\n      JUMP \t\t\t\n    tag 204\t\t\t\n      JUMPDEST \t\t\t\n      PUSH [tag] 206\t\t\t\n      JUMP \t\t\t\n    tag 203\t\t\t\n      JUMPDEST \t\t\t\n      PUSH 40\t\t\t\n      MLOAD \t\t\t\n      PUSH [tag] 207\t\t\t\n      SWAP2 \t\t\t\n      SWAP1 \t\t\t\n      PUSH [tag] 70\t\t\t\n      JUMP \t\t\t\n    tag 207\t\t\t\n      JUMPDEST \t\t\t\n      PUSH 40\t\t\t\n      MLOAD \t\t\t\n      DUP1 \t\t\t\n      SWAP2 \t\t\t\n      SUB \t\t\t\n      SWAP1 \t\t\t\n      RETURN \t\t\t\n    tag 43\t\t\tbytes32 public constant PAUSER...\n      JUMPDEST \t\t\tbytes32 public constant PAUSER...\n      PUSH [tag] 208\t\t\tbytes32 public constant PAUSER...\n      PUSH [tag] 209\t\t\tbytes32 public constant PAUSER...\n      JUMP \t\t\tbytes32 public constant PAUSER...\n    tag 208\t\t\tbytes32 public constant PAUSER...\n      JUMPDEST \t\t\tbytes32 public constant PAUSER...\n      PUSH 40\t\t\tbytes32 public constant PAUSER...\n      MLOAD \t\t\tbytes32 public constant PAUSER...\n      PUSH [tag] 210\t\t\tbytes32 public constant PAUSER...\n      SWAP2 \t\t\tbytes32 public constant PAUSER...\n      SWAP1 \t\t\tbytes32 public constant PAUSER...\n      PUSH [tag] 81\t\t\tbytes32 public constant PAUSER...\n      JUMP \t\t\tbytes32 public constant PAUSER...\n    tag 210\t\t\tbytes32 public constant PAUSER...\n      JUMPDEST \t\t\tbytes32 public constant PAUSER...\n      PUSH 40\t\t\tbytes32 public constant PAUSER...\n      MLOAD \t\t\tbytes32 public constant PAUSER...\n      DUP1 \t\t\tbytes32 public constant PAUSER...\n      SWAP2 \t\t\tbytes32 public constant PAUSER...\n      SUB \t\t\tbytes32 public constant PAUSER...\n      SWAP1 \t\t\tbytes32 public constant PAUSER...\n      RETURN \t\t\tbytes32 public constant PAUSER...\n    tag 44\t\t\t\n      JUMPDEST \t\t\t\n      PUSH [tag] 211\t\t\t\n      PUSH 4\t\t\t\n      DUP1 \t\t\t\n      CALLDATASIZE \t\t\t\n      SUB \t\t\t\n      DUP2 \t\t\t\n      ADD \t\t\t\n      SWAP1 \t\t\t\n      PUSH [tag] 212\t\t\t\n      SWAP2 \t\t\t\n      SWAP1 \t\t\t\n      PUSH [tag] 213\t\t\t\n      JUMP \t\t\t\n    tag 212\t\t\t\n      JUMPDEST \t\t\t\n      PUSH [tag] 214\t\t\t\n      JUMP \t\t\t\n    tag 211\t\t\t\n      JUMPDEST \t\t\t\n      PUSH 40\t\t\t\n      MLOAD \t\t\t\n      PUSH [tag] 215\t\t\t\n      SWAP2 \t\t\t\n      SWAP1 \t\t\t\n      PUSH [tag] 216\t\t\t\n      JUMP \t\t\t\n    tag 215\t\t\t\n      JUMPDEST \t\t\t\n      PUSH 40\t\t\t\n      MLOAD \t\t\t\n      DUP1 \t\t\t\n      SWAP2 \t\t\t\n      SUB \t\t\t\n      SWAP1 \t\t\t\n      RETURN \t\t\t\n    tag 55\t\t\t\n      JUMPDEST \t\t\t\n      PUSH 0\t\t\t\n      PUSH 7965DB0B00000000000000000000000000000000000000000000000000000000\t\t\t\n      PUSH FFFFFFFFFFFFFFFFFFFFFFFFFFFFFFFFFFFFFFFFFFFFFFFFFFFFFFFF\t\t\t\n      NOT \t\t\t\n      AND \t\t\t\n      DUP3 \t\t\t\n      PUSH FFFFFFFFFFFFFFFFFFFFFFFFFFFFFFFFFFFFFFFFFFFFFFFFFFFFFFFF\t\t\t\n      NOT \t\t\t\n      AND \t\t\t\n      EQ \t\t\t\n      DUP1 \t\t\t\n      PUSH [tag] 218\t\t\t\n      JUMPI \t\t\t\n      POP \t\t\t\n      PUSH [tag] 219\t\t\t\n      DUP3 \t\t\t\n      PUSH [tag] 220\t\t\t\n      JUMP \t\t\t\n    tag 219\t\t\t\n      JUMPDEST \t\t\t\n    tag 218\t\t\t\n      JUMPDEST \t\t\t\n      SWAP1 \t\t\t\n      POP \t\t\t\n      SWAP2 \t\t\t\n      SWAP1 \t\t\t\n      POP \t\t\t\n      JUMP \t\t\t\n    tag 59\t\t\t\n      JUMPDEST \t\t\t\n      PUSH 60\t\t\t\n      PUSH 0\t\t\t\n      PUSH [tag] 222\t\t\t\n      PUSH [tag] 223\t\t\t\n      JUMP \t\t\t\n    tag 222\t\t\t\n      JUMPDEST \t\t\t\n      SWAP1 \t\t\t\n      POP \t\t\t\n      DUP1 \t\t\t\n      PUSH 3\t\t\t\n      ADD \t\t\t\n      DUP1 \t\t\t\n      SLOAD \t\t\t\n      PUSH [tag] 224\t\t\t\n      SWAP1 \t\t\t\n      PUSH [tag] 225\t\t\t\n      JUMP \t\t\t\n    tag 224\t\t\t\n      JUMPDEST \t\t\t\n      DUP1 \t\t\t\n      PUSH 1F\t\t\t\n      ADD \t\t\t\n      PUSH 20\t\t\t\n      DUP1 \t\t\t\n      SWAP2 \t\t\t\n      DIV \t\t\t\n      MUL \t\t\t\n      PUSH 20\t\t\t\n      ADD \t\t\t\n      PUSH 40\t\t\t\n      MLOAD \t\t\t\n      SWAP1 \t\t\t\n      DUP2 \t\t\t\n      ADD \t\t\t\n      PUSH 40\t\t\t\n      MSTORE \t\t\t\n      DUP1 \t\t\t\n      SWAP3 \t\t\t\n      SWAP2 \t\t\t\n      SWAP1 \t\t\t\n      DUP2 \t\t\t\n      DUP2 \t\t\t\n      MSTORE \t\t\t\n      PUSH 20\t\t\t\n      ADD \t\t\t\n      DUP3 \t\t\t\n      DUP1 \t\t\t\n      SLOAD \t\t\t\n      PUSH [tag] 226\t\t\t\n      SWAP1 \t\t\t\n      PUSH [tag] 225\t\t\t\n      JUMP \t\t\t\n    tag 226\t\t\t\n      JUMPDEST \t\t\t\n      DUP1 \t\t\t\n      ISZERO \t\t\t\n      PUSH [tag] 227\t\t\t\n      JUMPI \t\t\t\n      DUP1 \t\t\t\n      PUSH 1F\t\t\t\n      LT \t\t\t\n      PUSH [tag] 228\t\t\t\n      JUMPI \t\t\t\n      PUSH 100\t\t\t\n      DUP1 \t\t\t\n      DUP4 \t\t\t\n      SLOAD \t\t\t\n      DIV \t\t\t\n      MUL \t\t\t\n      DUP4 \t\t\t\n      MSTORE \t\t\t\n      SWAP2 \t\t\t\n      PUSH 20\t\t\t\n      ADD \t\t\t\n      SWAP2 \t\t\t\n      PUSH [tag] 227\t\t\t\n      JUMP \t\t\t\n    tag 228\t\t\t\n      JUMPDEST \t\t\t\n      DUP3 \t\t\t\n      ADD \t\t\t\n      SWAP2 \t\t\t\n      SWAP1 \t\t\t\n      PUSH 0\t\t\t\n      MSTORE \t\t\t\n      PUSH 20\t\t\t\n      PUSH 0\t\t\t\n      KECCAK256 \t\t\t\n      SWAP1 \t\t\t\n    tag 229\t\t\t\n      JUMPDEST \t\t\t\n      DUP2 \t\t\t\n      SLOAD \t\t\t\n      DUP2 \t\t\t\n      MSTORE \t\t\t\n      SWAP1 \t\t\t\n      PUSH 1\t\t\t\n      ADD \t\t\t\n      SWAP1 \t\t\t\n      PUSH 20\t\t\t\n      ADD \t\t\t\n      DUP1 \t\t\t\n      DUP4 \t\t\t\n      GT \t\t\t\n      PUSH [tag] 229\t\t\t\n      JUMPI \t\t\t\n      DUP3 \t\t\t\n      SWAP1 \t\t\t\n      SUB \t\t\t\n      PUSH 1F\t\t\t\n      AND \t\t\t\n      DUP3 \t\t\t\n      ADD \t\t\t\n      SWAP2 \t\t\t\n    tag 227\t\t\t\n      JUMPDEST \t\t\t\n      POP \t\t\t\n      POP \t\t\t\n      POP \t\t\t\n      POP \t\t\t\n      POP \t\t\t\n      SWAP2 \t\t\t\n      POP \t\t\t\n      POP \t\t\t\n      SWAP1 \t\t\t\n      JUMP \t\t\t\n    tag 65\t\t\t\n      JUMPDEST \t\t\t\n      PUSH 0\t\t\t\n      DUP1 \t\t\t\n      PUSH [tag] 231\t\t\t\n      PUSH [tag] 232\t\t\t\n      JUMP \t\t\t\n    tag 231\t\t\t\n      JUMPDEST \t\t\t\n      SWAP1 \t\t\t\n      POP \t\t\t\n      PUSH [tag] 233\t\t\t\n      DUP2 \t\t\t\n      DUP6 \t\t\t\n      DUP6 \t\t\t\n      PUSH [tag] 234\t\t\t\n      JUMP \t\t\t\n    tag 233\t\t\t\n      JUMPDEST \t\t\t\n      PUSH 1\t\t\t\n      SWAP2 \t\t\t\n      POP \t\t\t\n      POP \t\t\t\n      SWAP3 \t\t\t\n      SWAP2 \t\t\t\n      POP \t\t\t\n      POP \t\t\t\n      JUMP \t\t\t\n    tag 68\t\t\t\n      JUMPDEST \t\t\t\n      PUSH 0\t\t\t\n      DUP1 \t\t\t\n      PUSH [tag] 236\t\t\t\n      PUSH [tag] 223\t\t\t\n      JUMP \t\t\t\n    tag 236\t\t\t\n      JUMPDEST \t\t\t\n      SWAP1 \t\t\t\n      POP \t\t\t\n      DUP1 \t\t\t\n      PUSH 2\t\t\t\n      ADD \t\t\t\n      SLOAD \t\t\t\n      SWAP2 \t\t\t\n      POP \t\t\t\n      POP \t\t\t\n      SWAP1 \t\t\t\n      JUMP \t\t\t\n    tag 74\t\t\t\n      JUMPDEST \t\t\t\n      PUSH 0\t\t\t\n      DUP1 \t\t\t\n      PUSH [tag] 238\t\t\t\n      PUSH [tag] 232\t\t\t\n      JUMP \t\t\t\n    tag 238\t\t\t\n      JUMPDEST \t\t\t\n      SWAP1 \t\t\t\n      POP \t\t\t\n      PUSH [tag] 239\t\t\t\n      DUP6 \t\t\t\n      DUP3 \t\t\t\n      DUP6 \t\t\t\n      PUSH [tag] 240\t\t\t\n      JUMP \t\t\t\n    tag 239\t\t\t\n      JUMPDEST \t\t\t\n      PUSH [tag] 241\t\t\t\n      DUP6 \t\t\t\n      DUP6 \t\t\t\n      DUP6 \t\t\t\n      PUSH [tag] 242\t\t\t\n      JUMP \t\t\t\n    tag 241\t\t\t\n      JUMPDEST \t\t\t\n      PUSH 1\t\t\t\n      SWAP2 \t\t\t\n      POP \t\t\t\n      POP \t\t\t\n      SWAP4 \t\t\t\n      SWAP3 \t\t\t\n      POP \t\t\t\n      POP \t\t\t\n      POP \t\t\t\n      JUMP \t\t\t\n    tag 79\t\t\t\n      JUMPDEST \t\t\t\n      PUSH 0\t\t\t\n      DUP1 \t\t\t\n      PUSH [tag] 244\t\t\t\n      PUSH [tag] 245\t\t\t\n      JUMP \t\t\t\n    tag 244\t\t\t\n      JUMPDEST \t\t\t\n      SWAP1 \t\t\t\n      POP \t\t\t\n      DUP1 \t\t\t\n      PUSH 0\t\t\t\n      ADD \t\t\t\n      PUSH 0\t\t\t\n      DUP5 \t\t\t\n      DUP2 \t\t\t\n      MSTORE \t\t\t\n      PUSH 20\t\t\t\n      ADD \t\t\t\n      SWAP1 \t\t\t\n      DUP2 \t\t\t\n      MSTORE \t\t\t\n      PUSH 20\t\t\t\n      ADD \t\t\t\n      PUSH 0\t\t\t\n      KECCAK256 \t\t\t\n      PUSH 1\t\t\t\n      ADD \t\t\t\n      SLOAD \t\t\t\n      SWAP2 \t\t\t\n      POP \t\t\t\n      POP \t\t\t\n      SWAP2 \t\t\t\n      SWAP1 \t\t\t\n      POP \t\t\t\n      JUMP \t\t\t\n    tag 85\t\t\t\n      JUMPDEST \t\t\t\n      PUSH [tag] 246\t\t\t\n      DUP3 \t\t\t\n      PUSH [tag] 79\t\t\t\n      JUMP \t\t\t\n    tag 246\t\t\t\n      JUMPDEST \t\t\t\n      PUSH [tag] 248\t\t\t\n      DUP2 \t\t\t\n      PUSH [tag] 249\t\t\t\n      JUMP \t\t\t\n    tag 248\t\t\t\n      JUMPDEST \t\t\t\n      PUSH [tag] 251\t\t\t\n      DUP4 \t\t\t\n      DUP4 \t\t\t\n      PUSH [tag] 252\t\t\t\n      JUMP \t\t\t\n    tag 251\t\t\t\n      JUMPDEST \t\t\t\n      POP \t\t\t\n      POP \t\t\t\n      POP \t\t\t\n      POP \t\t\t\n      JUMP \t\t\t\n    tag 87\t\t\t\n      JUMPDEST \t\t\t\n      PUSH 0\t\t\t\n      PUSH 12\t\t\t\n      SWAP1 \t\t\t\n      POP \t\t\t\n      SWAP1 \t\t\t\n      JUMP \t\t\t\n    tag 91\t\t\t\n      JUMPDEST \t\t\t\n      PUSH 0\t\t\t\n      PUSH [tag] 255\t\t\t\n      PUSH [tag] 256\t\t\t\n      JUMP \t\t\t\n    tag 255\t\t\t\n      JUMPDEST \t\t\t\n      SWAP1 \t\t\t\n      POP \t\t\t\n      SWAP1 \t\t\t\n      JUMP \t\t\t\n    tag 95\t\t\t\n      JUMPDEST \t\t\t\n      PUSH [tag] 258\t\t\t\n      PUSH [tag] 232\t\t\t\n      JUMP \t\t\t\n    tag 258\t\t\t\n      JUMPDEST \t\t\t\n      PUSH FFFFFFFFFFFFFFFFFFFFFFFFFFFFFFFFFFFFFFFF\t\t\t\n      AND \t\t\t\n      DUP2 \t\t\t\n      PUSH FFFFFFFFFFFFFFFFFFFFFFFFFFFFFFFFFFFFFFFF\t\t\t\n      AND \t\t\t\n      EQ \t\t\t\n      PUSH [tag] 259\t\t\t\n      JUMPI \t\t\t\n      PUSH 40\t\t\t\n      MLOAD \t\t\t\n      PUSH 6697B23200000000000000000000000000000000000000000000000000000000\t\t\t\n      DUP2 \t\t\t\n      MSTORE \t\t\t\n      PUSH 4\t\t\t\n      ADD \t\t\t\n      PUSH 40\t\t\t\n      MLOAD \t\t\t\n      DUP1 \t\t\t\n      SWAP2 \t\t\t\n      SUB \t\t\t\n      SWAP1 \t\t\t\n      REVERT \t\t\t\n    tag 259\t\t\t\n      JUMPDEST \t\t\t\n      PUSH [tag] 260\t\t\t\n      DUP3 \t\t\t\n      DUP3 \t\t\t\n      PUSH [tag] 261\t\t\t\n      JUMP \t\t\t\n    tag 260\t\t\t\n      JUMPDEST \t\t\t\n      POP \t\t\t\n      POP \t\t\t\n      POP \t\t\t\n      JUMP \t\t\t\n    tag 98\t\t\t\n      JUMPDEST \t\t\t\n      PUSH 0\t\t\t\n      DUP1 \t\t\t\n      PUSH [tag] 263\t\t\t\n      PUSH [tag] 264\t\t\t\n      JUMP \t\t\t\n    tag 263\t\t\t\n      JUMPDEST \t\t\t\n      SWAP1 \t\t\t\n      POP \t\t\t\n      PUSH 0\t\t\t\n      PUSH [tag] 265\t\t\t\n      PUSH [tag] 164\t\t\t\n      JUMP \t\t\t\n    tag 265\t\t\t\n      JUMPDEST \t\t\t\n      SWAP1 \t\t\t\n      POP \t\t\t\n      DUP1 \t\t\t\n      PUSH FFFFFFFFFFFF\t\t\t\n      AND \t\t\t\n      DUP5 \t\t\t\n      LT \t\t\t\n      PUSH [tag] 266\t\t\t\n      JUMPI \t\t\t\n      DUP4 \t\t\t\n      DUP2 \t\t\t\n      PUSH 40\t\t\t\n      MLOAD \t\t\t\n      PUSH ECD3F81E00000000000000000000000000000000000000000000000000000000\t\t\t\n      DUP2 \t\t\t\n      MSTORE \t\t\t\n      PUSH 4\t\t\t\n      ADD \t\t\t\n      PUSH [tag] 267\t\t\t\n      SWAP3 \t\t\t\n      SWAP2 \t\t\t\n      SWAP1 \t\t\t\n      PUSH [tag] 268\t\t\t\n      JUMP \t\t\t\n    tag 267\t\t\t\n      JUMPDEST \t\t\t\n      PUSH 40\t\t\t\n      MLOAD \t\t\t\n      DUP1 \t\t\t\n      SWAP2 \t\t\t\n      SUB \t\t\t\n      SWAP1 \t\t\t\n      REVERT \t\t\t\n    tag 266\t\t\t\n      JUMPDEST \t\t\t\n      PUSH [tag] 269\t\t\t\n      PUSH [tag] 270\t\t\t\n      DUP6 \t\t\t\n      PUSH [tag] 271\t\t\t\n      JUMP \t\t\t\n    tag 270\t\t\t\n      JUMPDEST \t\t\t\n      DUP4 \t\t\t\n      PUSH 1\t\t\t\n      ADD \t\t\t\n      PUSH 0\t\t\t\n      DUP9 \t\t\t\n      PUSH FFFFFFFFFFFFFFFFFFFFFFFFFFFFFFFFFFFFFFFF\t\t\t\n      AND \t\t\t\n      PUSH FFFFFFFFFFFFFFFFFFFFFFFFFFFFFFFFFFFFFFFF\t\t\t\n      AND \t\t\t\n      DUP2 \t\t\t\n      MSTORE \t\t\t\n      PUSH 20\t\t\t\n      ADD \t\t\t\n      SWAP1 \t\t\t\n      DUP2 \t\t\t\n      MSTORE \t\t\t\n      PUSH 20\t\t\t\n      ADD \t\t\t\n      PUSH 0\t\t\t\n      KECCAK256 \t\t\t\n      PUSH [tag] 272\t\t\t\n      SWAP1 \t\t\t\n      SWAP2 \t\t\t\n      SWAP1 \t\t\t\n      PUSH FFFFFFFF\t\t\t\n      AND \t\t\t\n      JUMP \t\t\t\n    tag 269\t\t\t\n      JUMPDEST \t\t\t\n      PUSH FFFFFFFFFFFFFFFFFFFFFFFFFFFFFFFFFFFFFFFFFFFFFFFFFFFF\t\t\t\n      AND \t\t\t\n      SWAP3 \t\t\t\n      POP \t\t\t\n      POP \t\t\t\n      POP \t\t\t\n      SWAP3 \t\t\t\n      SWAP2 \t\t\t\n      POP \t\t\t\n      POP \t\t\t\n      JUMP \t\t\t\n    tag 101\t\t\tfunction unpause() public only...\n      JUMPDEST \t\t\tfunction unpause() public only...\n      PUSH 65D7A28E3265B37A6474929F336521B332C1681B933F6CB9F3376673440D862A\t\t\tkeccak256(\"PAUSER_ROLE\")\n      PUSH [tag] 274\t\t\t\n      DUP2 \t\t\t\n      PUSH [tag] 249\t\t\t\n      JUMP \t\t\t\n    tag 274\t\t\t\n      JUMPDEST \t\t\t\n      PUSH [tag] 276\t\t\t_unpause()\n      PUSH [tag] 277\t\t\t_unpause\n      JUMP \t\t\t_unpause()\n    tag 276\t\t\t_unpause()\n      JUMPDEST \t\t\t_unpause()\n      POP \t\t\tfunction unpause() public only...\n      JUMP \t\t\tfunction unpause() public only...\n    tag 104\t\t\tfunction mint(address to, uint...\n      JUMPDEST \t\t\tfunction mint(address to, uint...\n      PUSH 9F2DF0FED2C77648DE5860A4CC508CD0818C85B8B8A1AB4CEEEF8D981C8956A6\t\t\tkeccak256(\"MINTER_ROLE\")\n      PUSH [tag] 279\t\t\t\n      DUP2 \t\t\t\n      PUSH [tag] 249\t\t\t\n      JUMP \t\t\t\n    tag 279\t\t\t\n      JUMPDEST \t\t\t\n      PUSH [tag] 281\t\t\t_mint(to, amount)\n      DUP4 \t\t\tto\n      DUP4 \t\t\tamount\n      PUSH [tag] 282\t\t\t_mint\n      JUMP \t\t\t_mint(to, amount)\n    tag 281\t\t\t_mint(to, amount)\n      JUMPDEST \t\t\t_mint(to, amount)\n      POP \t\t\tfunction mint(address to, uint...\n      POP \t\t\tfunction mint(address to, uint...\n      POP \t\t\tfunction mint(address to, uint...\n      JUMP \t\t\tfunction mint(address to, uint...\n    tag 108\t\t\tERC20BurnableUpgradeable, ERC2...\n      JUMPDEST \t\t\tERC20BurnableUpgradeable, ERC2...\n      PUSH [tag] 284\t\t\tcessControlUpgradeable, ER\n      PUSH [tag] 285\t\t\tntrolUpgrade\n      PUSH [tag] 232\t\t\tntrolUpgra\n      JUMP \t\t\tntrolUpgrade\n    tag 285\t\t\tntrolUpgrade\n      JUMPDEST \t\t\tntrolUpgrade\n      DUP3 \t\t\tle, E\n      PUSH [tag] 286\t\t\tcessC\n      JUMP \t\t\tcessControlUpgradeable, ER\n    tag 284\t\t\tcessControlUpgradeable, ER\n      JUMPDEST \t\t\tcessControlUpgradeable, ER\n      POP \t\t\tERC20BurnableUpgradeable, ERC2...\n      JUMP \t\t\tERC20BurnableUpgradeable, ERC2...\n    tag 110\t\t\t\n      JUMPDEST \t\t\t\n      PUSH 60\t\t\t\n      PUSH [tag] 288\t\t\t\n      PUSH [tag] 289\t\t\t\n      JUMP \t\t\t\n    tag 288\t\t\t\n      JUMPDEST \t\t\t\n      PUSH FFFFFFFFFFFF\t\t\t\n      AND \t\t\t\n      PUSH [tag] 290\t\t\t\n      PUSH [tag] 164\t\t\t\n      JUMP \t\t\t\n    tag 290\t\t\t\n      JUMPDEST \t\t\t\n      PUSH FFFFFFFFFFFF\t\t\t\n      AND \t\t\t\n      EQ \t\t\t\n      PUSH [tag] 291\t\t\t\n      JUMPI \t\t\t\n      PUSH 40\t\t\t\n      MLOAD \t\t\t\n      PUSH 6FF0714000000000000000000000000000000000000000000000000000000000\t\t\t\n      DUP2 \t\t\t\n      MSTORE \t\t\t\n      PUSH 4\t\t\t\n      ADD \t\t\t\n      PUSH 40\t\t\t\n      MLOAD \t\t\t\n      DUP1 \t\t\t\n      SWAP2 \t\t\t\n      SUB \t\t\t\n      SWAP1 \t\t\t\n      REVERT \t\t\t\n    tag 291\t\t\t\n      JUMPDEST \t\t\t\n      PUSH 40\t\t\t\n      MLOAD \t\t\t\n      DUP1 \t\t\t\n      PUSH 40\t\t\t\n      ADD \t\t\t\n      PUSH 40\t\t\t\n      MSTORE \t\t\t\n      DUP1 \t\t\t\n      PUSH 1D\t\t\t\n      DUP2 \t\t\t\n      MSTORE \t\t\t\n      PUSH 20\t\t\t\n      ADD \t\t\t\n      PUSH 6D6F64653D626C6F636B6E756D6265722666726F6D3D64656661756C74000000\t\t\t\n      DUP2 \t\t\t\n      MSTORE \t\t\t\n      POP \t\t\t\n      SWAP1 \t\t\t\n      POP \t\t\t\n      SWAP1 \t\t\t\n      JUMP \t\t\t\n    tag 115\t\t\t\n      JUMPDEST \t\t\t\n      PUSH 0\t\t\t\n      DUP1 \t\t\t\n      PUSH [tag] 293\t\t\t\n      PUSH [tag] 264\t\t\t\n      JUMP \t\t\t\n    tag 293\t\t\t\n      JUMPDEST \t\t\t\n      SWAP1 \t\t\t\n      POP \t\t\t\n      DUP1 \t\t\t\n      PUSH 0\t\t\t\n      ADD \t\t\t\n      PUSH 0\t\t\t\n      DUP5 \t\t\t\n      PUSH FFFFFFFFFFFFFFFFFFFFFFFFFFFFFFFFFFFFFFFF\t\t\t\n      AND \t\t\t\n      PUSH FFFFFFFFFFFFFFFFFFFFFFFFFFFFFFFFFFFFFFFF\t\t\t\n      AND \t\t\t\n      DUP2 \t\t\t\n      MSTORE \t\t\t\n      PUSH 20\t\t\t\n      ADD \t\t\t\n      SWAP1 \t\t\t\n      DUP2 \t\t\t\n      MSTORE \t\t\t\n      PUSH 20\t\t\t\n      ADD \t\t\t\n      PUSH 0\t\t\t\n      KECCAK256 \t\t\t\n      PUSH 0\t\t\t\n      SWAP1 \t\t\t\n      SLOAD \t\t\t\n      SWAP1 \t\t\t\n      PUSH 100\t\t\t\n      EXP \t\t\t\n      SWAP1 \t\t\t\n      DIV \t\t\t\n      PUSH FFFFFFFFFFFFFFFFFFFFFFFFFFFFFFFFFFFFFFFF\t\t\t\n      AND \t\t\t\n      SWAP2 \t\t\t\n      POP \t\t\t\n      POP \t\t\t\n      SWAP2 \t\t\t\n      SWAP1 \t\t\t\n      POP \t\t\t\n      JUMP \t\t\t\n    tag 120\t\t\t\n      JUMPDEST \t\t\t\n      PUSH 0\t\t\t\n      PUSH [tag] 295\t\t\t\n      PUSH [tag] 232\t\t\t\n      JUMP \t\t\t\n    tag 295\t\t\t\n      JUMPDEST \t\t\t\n      SWAP1 \t\t\t\n      POP \t\t\t\n      PUSH [tag] 296\t\t\t\n      DUP2 \t\t\t\n      DUP4 \t\t\t\n      PUSH [tag] 297\t\t\t\n      JUMP \t\t\t\n    tag 296\t\t\t\n      JUMPDEST \t\t\t\n      POP \t\t\t\n      POP \t\t\t\n      JUMP \t\t\t\n    tag 122\t\t\t\n      JUMPDEST \t\t\t\n      PUSH 0\t\t\t\n      DUP1 \t\t\t\n      PUSH [tag] 299\t\t\t\n      PUSH [tag] 300\t\t\t\n      JUMP \t\t\t\n    tag 299\t\t\t\n      JUMPDEST \t\t\t\n      SWAP1 \t\t\t\n      POP \t\t\t\n      DUP1 \t\t\t\n      PUSH 0\t\t\t\n      ADD \t\t\t\n      PUSH 0\t\t\t\n      SWAP1 \t\t\t\n      SLOAD \t\t\t\n      SWAP1 \t\t\t\n      PUSH 100\t\t\t\n      EXP \t\t\t\n      SWAP1 \t\t\t\n      DIV \t\t\t\n      PUSH FF\t\t\t\n      AND \t\t\t\n      SWAP2 \t\t\t\n      POP \t\t\t\n      POP \t\t\t\n      SWAP1 \t\t\t\n      JUMP \t\t\t\n    tag 127\t\t\t\n      JUMPDEST \t\t\t\n      PUSH 0\t\t\t\n      DUP1 \t\t\t\n      PUSH [tag] 302\t\t\t\n      DUP7 \t\t\t\n      PUSH [tag] 131\t\t\t\n      JUMP \t\t\t\n    tag 302\t\t\t\n      JUMPDEST \t\t\t\n      SWAP1 \t\t\t\n      POP \t\t\t\n      DUP1 \t\t\t\n      DUP6 \t\t\t\n      GT \t\t\t\n      ISZERO \t\t\t\n      PUSH [tag] 303\t\t\t\n      JUMPI \t\t\t\n      DUP1 \t\t\t\n      PUSH 40\t\t\t\n      MLOAD \t\t\t\n      PUSH FD9A760900000000000000000000000000000000000000000000000000000000\t\t\t\n      DUP2 \t\t\t\n      MSTORE \t\t\t\n      PUSH 4\t\t\t\n      ADD \t\t\t\n      PUSH [tag] 304\t\t\t\n      SWAP2 \t\t\t\n      SWAP1 \t\t\t\n      PUSH [tag] 70\t\t\t\n      JUMP \t\t\t\n    tag 304\t\t\t\n      JUMPDEST \t\t\t\n      PUSH 40\t\t\t\n      MLOAD \t\t\t\n      DUP1 \t\t\t\n      SWAP2 \t\t\t\n      SUB \t\t\t\n      SWAP1 \t\t\t\n      REVERT \t\t\t\n    tag 303\t\t\t\n      JUMPDEST \t\t\t\n      PUSH 0\t\t\t\n      PUSH [tag] 305\t\t\t\n      DUP8 \t\t\t\n      DUP8 \t\t\t\n      PUSH [tag] 201\t\t\t\n      JUMP \t\t\t\n    tag 305\t\t\t\n      JUMPDEST \t\t\t\n      SWAP1 \t\t\t\n      POP \t\t\t\n      PUSH [tag] 306\t\t\t\n      DUP9 \t\t\t\n      DUP8 \t\t\t\n      PUSH [tag] 282\t\t\t\n      JUMP \t\t\t\n    tag 306\t\t\t\n      JUMPDEST \t\t\t\n      PUSH 439148F0BBC682CA079E46D6E2C2F0C1E3B820F1A291B069D8882ABF8CF18DD9\t\t\tcak256(\"MINTER_ROLE\");\\n\\n    ...\n      DUP9 \t\t\t\n      PUSH FFFFFFFFFFFFFFFFFFFFFFFFFFFFFFFFFFFFFFFF\t\t\t\n      AND \t\t\t\n      PUSH 23E30C8B\t\t\t\n      PUSH [tag] 307\t\t\t\n      PUSH [tag] 232\t\t\t\n      JUMP \t\t\t\n    tag 307\t\t\t\n      JUMPDEST \t\t\t\n      DUP11 \t\t\t\n      DUP11 \t\t\t\n      DUP7 \t\t\t\n      DUP12 \t\t\t\n      DUP12 \t\t\t\n      PUSH 40\t\t\t\n      MLOAD \t\t\t\n      DUP8 \t\t\t\n      PUSH FFFFFFFF\t\t\t\n      AND \t\t\t\n      PUSH E0\t\t\t\n      SHL \t\t\t\n      DUP2 \t\t\t\n      MSTORE \t\t\t\n      PUSH 4\t\t\t\n      ADD \t\t\t\n      PUSH [tag] 308\t\t\t\n      SWAP7 \t\t\t\n      SWAP6 \t\t\t\n      SWAP5 \t\t\t\n      SWAP4 \t\t\t\n      SWAP3 \t\t\t\n      SWAP2 \t\t\t\n      SWAP1 \t\t\t\n      PUSH [tag] 309\t\t\t\n      JUMP \t\t\t\n    tag 308\t\t\t\n      JUMPDEST \t\t\t\n      PUSH 20\t\t\t\n      PUSH 40\t\t\t\n      MLOAD \t\t\t\n      DUP1 \t\t\t\n      DUP4 \t\t\t\n      SUB \t\t\t\n      DUP2 \t\t\t\n      PUSH 0\t\t\t\n      DUP8 \t\t\t\n      GAS \t\t\t\n      CALL \t\t\t\n      ISZERO \t\t\t\n      DUP1 \t\t\t\n      ISZERO \t\t\t\n      PUSH [tag] 311\t\t\t\n      JUMPI \t\t\t\n      RETURNDATASIZE \t\t\t\n      PUSH 0\t\t\t\n      DUP1 \t\t\t\n      RETURNDATACOPY \t\t\t\n      RETURNDATASIZE \t\t\t\n      PUSH 0\t\t\t\n      REVERT \t\t\t\n    tag 311\t\t\t\n      JUMPDEST \t\t\t\n      POP \t\t\t\n      POP \t\t\t\n      POP \t\t\t\n      POP \t\t\t\n      PUSH 40\t\t\t\n      MLOAD \t\t\t\n      RETURNDATASIZE \t\t\t\n      PUSH 1F\t\t\t\n      NOT \t\t\t\n      PUSH 1F\t\t\t\n      DUP3 \t\t\t\n      ADD \t\t\t\n      AND \t\t\t\n      DUP3 \t\t\t\n      ADD \t\t\t\n      DUP1 \t\t\t\n      PUSH 40\t\t\t\n      MSTORE \t\t\t\n      POP \t\t\t\n      DUP2 \t\t\t\n      ADD \t\t\t\n      SWAP1 \t\t\t\n      PUSH [tag] 312\t\t\t\n      SWAP2 \t\t\t\n      SWAP1 \t\t\t\n      PUSH [tag] 313\t\t\t\n      JUMP \t\t\t\n    tag 312\t\t\t\n      JUMPDEST \t\t\t\n      EQ \t\t\t\n      PUSH [tag] 314\t\t\t\n      JUMPI \t\t\t\n      DUP8 \t\t\t\n      PUSH 40\t\t\t\n      MLOAD \t\t\t\n      PUSH 678C5B0000000000000000000000000000000000000000000000000000000000\t\t\t\n      DUP2 \t\t\t\n      MSTORE \t\t\t\n      PUSH 4\t\t\t\n      ADD \t\t\t\n      PUSH [tag] 315\t\t\t\n      SWAP2 \t\t\t\n      SWAP1 \t\t\t\n      PUSH [tag] 117\t\t\t\n      JUMP \t\t\t\n    tag 315\t\t\t\n      JUMPDEST \t\t\t\n      PUSH 40\t\t\t\n      MLOAD \t\t\t\n      DUP1 \t\t\t\n      SWAP2 \t\t\t\n      SUB \t\t\t\n      SWAP1 \t\t\t\n      REVERT \t\t\t\n    tag 314\t\t\t\n      JUMPDEST \t\t\t\n      PUSH 0\t\t\t\n      PUSH [tag] 316\t\t\t\n      PUSH [tag] 317\t\t\t\n      JUMP \t\t\t\n    tag 316\t\t\t\n      JUMPDEST \t\t\t\n      SWAP1 \t\t\t\n      POP \t\t\t\n      PUSH [tag] 318\t\t\t\n      DUP10 \t\t\t\n      ADDRESS \t\t\t\n      DUP5 \t\t\t\n      DUP11 \t\t\t\n      PUSH [tag] 319\t\t\t\n      SWAP2 \t\t\t\n      SWAP1 \t\t\t\n      PUSH [tag] 320\t\t\t\n      JUMP \t\t\t\n    tag 319\t\t\t\n      JUMPDEST \t\t\t\n      PUSH [tag] 240\t\t\t\n      JUMP \t\t\t\n    tag 318\t\t\t\n      JUMPDEST \t\t\t\n      PUSH 0\t\t\t\n      DUP3 \t\t\t\n      EQ \t\t\t\n      DUP1 \t\t\t\n      PUSH [tag] 321\t\t\t\n      JUMPI \t\t\t\n      POP \t\t\t\n      PUSH 0\t\t\t\n      PUSH FFFFFFFFFFFFFFFFFFFFFFFFFFFFFFFFFFFFFFFF\t\t\t\n      AND \t\t\t\n      DUP2 \t\t\t\n      PUSH FFFFFFFFFFFFFFFFFFFFFFFFFFFFFFFFFFFFFFFF\t\t\t\n      AND \t\t\t\n      EQ \t\t\t\n    tag 321\t\t\t\n      JUMPDEST \t\t\t\n      ISZERO \t\t\t\n      PUSH [tag] 322\t\t\t\n      JUMPI \t\t\t\n      PUSH [tag] 323\t\t\t\n      DUP10 \t\t\t\n      DUP4 \t\t\t\n      DUP10 \t\t\t\n      PUSH [tag] 324\t\t\t\n      SWAP2 \t\t\t\n      SWAP1 \t\t\t\n      PUSH [tag] 320\t\t\t\n      JUMP \t\t\t\n    tag 324\t\t\t\n      JUMPDEST \t\t\t\n      PUSH [tag] 286\t\t\t\n      JUMP \t\t\t\n    tag 323\t\t\t\n      JUMPDEST \t\t\t\n      PUSH [tag] 325\t\t\t\n      JUMP \t\t\t\n    tag 322\t\t\t\n      JUMPDEST \t\t\t\n      PUSH [tag] 326\t\t\t\n      DUP10 \t\t\t\n      DUP9 \t\t\t\n      PUSH [tag] 286\t\t\t\n      JUMP \t\t\t\n    tag 326\t\t\t\n      JUMPDEST \t\t\t\n      PUSH [tag] 327\t\t\t\n      DUP10 \t\t\t\n      DUP3 \t\t\t\n      DUP5 \t\t\t\n      PUSH [tag] 242\t\t\t\n      JUMP \t\t\t\n    tag 327\t\t\t\n      JUMPDEST \t\t\t\n    tag 325\t\t\t\n      JUMPDEST \t\t\t\n      PUSH 1\t\t\t\n      SWAP4 \t\t\t\n      POP \t\t\t\n      POP \t\t\t\n      POP \t\t\t\n      POP \t\t\t\n      SWAP6 \t\t\t\n      SWAP5 \t\t\t\n      POP \t\t\t\n      POP \t\t\t\n      POP \t\t\t\n      POP \t\t\t\n      POP \t\t\t\n      JUMP \t\t\t\n    tag 131\t\t\tddress to, uint256 value)\\n   ...\n      JUMPDEST \t\t\tddress to, uint256 value)\\n   ...\n      PUSH 0\t\t\tpgradea\n      ADDRESS \t\t\tVote\n      PUSH FFFFFFFFFFFFFFFFFFFFFFFFFFFFFFFFFFFFFFFF\t\t\tpgradeable, ERC20Votes\n      AND \t\t\tpgradeable, ERC20Votes\n      DUP3 \t\t\tpgrad\n      PUSH FFFFFFFFFFFFFFFFFFFFFFFFFFFFFFFFFFFFFFFF\t\t\tpgradeable, ERC20Votes\n      AND \t\t\tpgradeable, ERC20Votes\n      EQ \t\t\tpgradeable, ERC20Votes\n      PUSH [tag] 329\t\t\tpgradeable, ERC20VotesUpgradea...\n      JUMPI \t\t\tpgradeable, ERC20VotesUpgradea...\n      PUSH 0\t\t\te\n      PUSH [tag] 330\t\t\tpgradeable, ERC20VotesUpgradea...\n      JUMP \t\t\tpgradeable, ERC20VotesUpgradea...\n    tag 329\t\t\tpgradeable, ERC20VotesUpgradea...\n      JUMPDEST \t\t\tpgradeable, ERC20VotesUpgradea...\n      PUSH [tag] 331\t\t\t    super._up\n      PUSH [tag] 68\t\t\t    super._\n      JUMP \t\t\t    super._up\n    tag 331\t\t\t    super._up\n      JUMPDEST \t\t\t    super._up\n      PUSH FFFFFFFFFFFFFFFFFFFFFFFFFFFFFFFFFFFFFFFFFFFFFFFFFFFFFFFFFFFFFFFF\t\t\tradeable)\\n    {\\n \n      PUSH [tag] 332\t\t\tradeable)\\n    {\\n        supe...\n      SWAP2 \t\t\tradeable)\\n    {\\n        supe...\n      SWAP1 \t\t\tradeable)\\n    {\\n        supe...\n      PUSH [tag] 333\t\t\tradeable)\\n    {\\n        supe...\n      JUMP \t\t\tradeable)\\n    {\\n        supe...\n    tag 332\t\t\tradeable)\\n    {\\n        supe...\n      JUMPDEST \t\t\tradeable)\\n    {\\n        supe...\n    tag 330\t\t\tpgradeable, ERC20VotesUpgradea...\n      JUMPDEST \t\t\tpgradeable, ERC20VotesUpgradea...\n      SWAP1 \t\t\tusableUpgradeable, ERC20VotesU...\n      POP \t\t\tusableUpgradeable, ERC20VotesU...\n      SWAP2 \t\t\tddress to, uint256 value)\\n   ...\n      SWAP1 \t\t\tddress to, uint256 value)\\n   ...\n      POP \t\t\tddress to, uint256 value)\\n   ...\n      JUMP \t\t\tddress to, uint256 value)\\n   ...\n    tag 135\t\t\t\n      JUMPDEST \t\t\t\n      PUSH 0\t\t\t\n      PUSH [tag] 335\t\t\t\n      DUP3 \t\t\t\n      PUSH [tag] 336\t\t\t\n      JUMP \t\t\t\n    tag 335\t\t\t\n      JUMPDEST \t\t\t\n      SWAP1 \t\t\t\n      POP \t\t\t\n      SWAP2 \t\t\t\n      SWAP1 \t\t\t\n      POP \t\t\t\n      JUMP \t\t\t\n    tag 140\t\t\t\n      JUMPDEST \t\t\t\n      PUSH 0\t\t\t\n      DUP1 \t\t\t\n      PUSH [tag] 338\t\t\t\n      PUSH [tag] 223\t\t\t\n      JUMP \t\t\t\n    tag 338\t\t\t\n      JUMPDEST \t\t\t\n      SWAP1 \t\t\t\n      POP \t\t\t\n      DUP1 \t\t\t\n      PUSH 0\t\t\t\n      ADD \t\t\t\n      PUSH 0\t\t\t\n      DUP5 \t\t\t\n      PUSH FFFFFFFFFFFFFFFFFFFFFFFFFFFFFFFFFFFFFFFF\t\t\t\n      AND \t\t\t\n      PUSH FFFFFFFFFFFFFFFFFFFFFFFFFFFFFFFFFFFFFFFF\t\t\t\n      AND \t\t\t\n      DUP2 \t\t\t\n      MSTORE \t\t\t\n      PUSH 20\t\t\t\n      ADD \t\t\t\n      SWAP1 \t\t\t\n      DUP2 \t\t\t\n      MSTORE \t\t\t\n      PUSH 20\t\t\t\n      ADD \t\t\t\n      PUSH 0\t\t\t\n      KECCAK256 \t\t\t\n      SLOAD \t\t\t\n      SWAP2 \t\t\t\n      POP \t\t\t\n      POP \t\t\t\n      SWAP2 \t\t\t\n      SWAP1 \t\t\t\n      POP \t\t\t\n      JUMP \t\t\t\n    tag 144\t\t\t   function initialize(address...\n      JUMPDEST \t\t\t   function initialize(address...\n      PUSH [tag] 340\t\t\t)\\n        initializer public\\...\n      DUP3 \t\t\tlizer p\n      PUSH [tag] 341\t\t\tlic\\n    {\\n  \n      PUSH [tag] 232\t\t\tlic\\n    {\\n\n      JUMP \t\t\tlic\\n    {\\n  \n    tag 341\t\t\tlic\\n    {\\n  \n      JUMPDEST \t\t\tlic\\n    {\\n  \n      DUP4 \t\t\t    _\n      PUSH [tag] 240\t\t\t)\\n        initi\n      JUMP \t\t\t)\\n        initializer public\\...\n    tag 340\t\t\t)\\n        initializer public\\...\n      JUMPDEST \t\t\t)\\n        initializer public\\...\n      PUSH [tag] 342\t\t\t(\"QAI\", \"AI\");\\n      \n      DUP3 \t\t\t, \"AI\")\n      DUP3 \t\t\t     \n      PUSH [tag] 286\t\t\t(\"QAI\n      JUMP \t\t\t(\"QAI\", \"AI\");\\n      \n    tag 342\t\t\t(\"QAI\", \"AI\");\\n      \n      JUMPDEST \t\t\t(\"QAI\", \"AI\");\\n      \n      POP \t\t\t   function initialize(address...\n      POP \t\t\t   function initialize(address...\n      JUMP \t\t\t   function initialize(address...\n    tag 147\t\t\tfunction nonces(address owner)...\n      JUMPDEST \t\t\tfunction nonces(address owner)...\n      PUSH 0\t\t\tuint256\n      PUSH [tag] 344\t\t\tsuper.nonces(owner)\n      DUP3 \t\t\towner\n      PUSH [tag] 345\t\t\tsuper.nonces\n      JUMP \t\t\tsuper.nonces(owner)\n    tag 344\t\t\tsuper.nonces(owner)\n      JUMPDEST \t\t\tsuper.nonces(owner)\n      SWAP1 \t\t\treturn super.nonces(owner)\n      POP \t\t\treturn super.nonces(owner)\n      SWAP2 \t\t\tfunction nonces(address owner)...\n      SWAP1 \t\t\tfunction nonces(address owner)...\n      POP \t\t\tfunction nonces(address owner)...\n      JUMP \t\t\tfunction nonces(address owner)...\n    tag 150\t\t\tfunction pause() public onlyRo...\n      JUMPDEST \t\t\tfunction pause() public onlyRo...\n      PUSH 65D7A28E3265B37A6474929F336521B332C1681B933F6CB9F3376673440D862A\t\t\tkeccak256(\"PAUSER_ROLE\")\n      PUSH [tag] 347\t\t\t\n      DUP2 \t\t\t\n      PUSH [tag] 249\t\t\t\n      JUMP \t\t\t\n    tag 347\t\t\t\n      JUMPDEST \t\t\t\n      PUSH [tag] 349\t\t\t_pause()\n      PUSH [tag] 350\t\t\t_pause\n      JUMP \t\t\t_pause()\n    tag 349\t\t\t_pause()\n      JUMPDEST \t\t\t_pause()\n      POP \t\t\tfunction pause() public onlyRo...\n      JUMP \t\t\tfunction pause() public onlyRo...\n    tag 152\t\t\t\n      JUMPDEST \t\t\t\n      PUSH 0\t\t\t\n      PUSH 60\t\t\t\n      DUP1 \t\t\t\n      PUSH 0\t\t\t\n      DUP1 \t\t\t\n      PUSH 0\t\t\t\n      PUSH 60\t\t\t\n      PUSH 0\t\t\t\n      PUSH [tag] 352\t\t\t\n      PUSH [tag] 353\t\t\t\n      JUMP \t\t\t\n    tag 352\t\t\t\n      JUMPDEST \t\t\t\n      SWAP1 \t\t\t\n      POP \t\t\t\n      PUSH 0\t\t\t\n      DUP1 \t\t\t\n      SHL \t\t\t\n      DUP2 \t\t\t\n      PUSH 0\t\t\t\n      ADD \t\t\t\n      SLOAD \t\t\t\n      EQ \t\t\t\n      DUP1 \t\t\t\n      ISZERO \t\t\t\n      PUSH [tag] 354\t\t\t\n      JUMPI \t\t\t\n      POP \t\t\t\n      PUSH 0\t\t\t\n      DUP1 \t\t\t\n      SHL \t\t\t\n      DUP2 \t\t\t\n      PUSH 1\t\t\t\n      ADD \t\t\t\n      SLOAD \t\t\t\n      EQ \t\t\t\n    tag 354\t\t\t\n      JUMPDEST \t\t\t\n      PUSH [tag] 355\t\t\t\n      JUMPI \t\t\t\n      PUSH 40\t\t\t\n      MLOAD \t\t\t\n      PUSH 8C379A000000000000000000000000000000000000000000000000000000000\t\t\t\n      DUP2 \t\t\t\n      MSTORE \t\t\t\n      PUSH 4\t\t\t\n      ADD \t\t\t\n      PUSH [tag] 356\t\t\t\n      SWAP1 \t\t\t\n      PUSH [tag] 357\t\t\t\n      JUMP \t\t\t\n    tag 356\t\t\t\n      JUMPDEST \t\t\t\n      PUSH 40\t\t\t\n      MLOAD \t\t\t\n      DUP1 \t\t\t\n      SWAP2 \t\t\t\n      SUB \t\t\t\n      SWAP1 \t\t\t\n      REVERT \t\t\t\n    tag 355\t\t\t\n      JUMPDEST \t\t\t\n      PUSH [tag] 358\t\t\t\n      PUSH [tag] 359\t\t\t\n      JUMP \t\t\t\n    tag 358\t\t\t\n      JUMPDEST \t\t\t\n      PUSH [tag] 360\t\t\t\n      PUSH [tag] 361\t\t\t\n      JUMP \t\t\t\n    tag 360\t\t\t\n      JUMPDEST \t\t\t\n      CHAINID \t\t\t\n      ADDRESS \t\t\t\n      PUSH 0\t\t\t\n      DUP1 \t\t\t\n      SHL \t\t\t\n      PUSH 0\t\t\t\n      PUSH FFFFFFFFFFFFFFFF\t\t\t\n      DUP2 \t\t\t\n      GT \t\t\t\n      ISZERO \t\t\t\n      PUSH [tag] 362\t\t\t\n      JUMPI \t\t\t\n      PUSH [tag] 363\t\t\t\n      PUSH [tag] 364\t\t\t\n      JUMP \t\t\t\n    tag 363\t\t\t\n      JUMPDEST \t\t\t\n    tag 362\t\t\t\n      JUMPDEST \t\t\t\n      PUSH 40\t\t\t\n      MLOAD \t\t\t\n      SWAP1 \t\t\t\n      DUP1 \t\t\t\n      DUP3 \t\t\t\n      MSTORE \t\t\t\n      DUP1 \t\t\t\n      PUSH 20\t\t\t\n      MUL \t\t\t\n      PUSH 20\t\t\t\n      ADD \t\t\t\n      DUP3 \t\t\t\n      ADD \t\t\t\n      PUSH 40\t\t\t\n      MSTORE \t\t\t\n      DUP1 \t\t\t\n      ISZERO \t\t\t\n      PUSH [tag] 365\t\t\t\n      JUMPI \t\t\t\n      DUP2 \t\t\t\n      PUSH 20\t\t\t\n      ADD \t\t\t\n      PUSH 20\t\t\t\n      DUP3 \t\t\t\n      MUL \t\t\t\n      DUP1 \t\t\t\n      CALLDATASIZE \t\t\t\n      DUP4 \t\t\t\n      CALLDATACOPY \t\t\t\n      DUP1 \t\t\t\n      DUP3 \t\t\t\n      ADD \t\t\t\n      SWAP2 \t\t\t\n      POP \t\t\t\n      POP \t\t\t\n      SWAP1 \t\t\t\n      POP \t\t\t\n    tag 365\t\t\t\n      JUMPDEST \t\t\t\n      POP \t\t\t\n      PUSH F00000000000000000000000000000000000000000000000000000000000000\t\t\t\n      SWAP6 \t\t\t\n      SWAP5 \t\t\t\n      SWAP4 \t\t\t\n      SWAP3 \t\t\t\n      SWAP2 \t\t\t\n      SWAP1 \t\t\t\n      SWAP8 \t\t\t\n      POP \t\t\t\n      SWAP8 \t\t\t\n      POP \t\t\t\n      SWAP8 \t\t\t\n      POP \t\t\t\n      SWAP8 \t\t\t\n      POP \t\t\t\n      SWAP8 \t\t\t\n      POP \t\t\t\n      SWAP8 \t\t\t\n      POP \t\t\t\n      SWAP8 \t\t\t\n      POP \t\t\t\n      POP \t\t\t\n      SWAP1 \t\t\t\n      SWAP2 \t\t\t\n      SWAP3 \t\t\t\n      SWAP4 \t\t\t\n      SWAP5 \t\t\t\n      SWAP6 \t\t\t\n      SWAP7 \t\t\t\n      JUMP \t\t\t\n    tag 157\t\t\t\n      JUMPDEST \t\t\t\n      PUSH 0\t\t\t\n      DUP1 \t\t\t\n      PUSH [tag] 367\t\t\t\n      PUSH [tag] 264\t\t\t\n      JUMP \t\t\t\n    tag 367\t\t\t\n      JUMPDEST \t\t\t\n      SWAP1 \t\t\t\n      POP \t\t\t\n      PUSH 0\t\t\t\n      PUSH [tag] 368\t\t\t\n      PUSH [tag] 164\t\t\t\n      JUMP \t\t\t\n    tag 368\t\t\t\n      JUMPDEST \t\t\t\n      SWAP1 \t\t\t\n      POP \t\t\t\n      DUP1 \t\t\t\n      PUSH FFFFFFFFFFFF\t\t\t\n      AND \t\t\t\n      DUP5 \t\t\t\n      LT \t\t\t\n      PUSH [tag] 369\t\t\t\n      JUMPI \t\t\t\n      DUP4 \t\t\t\n      DUP2 \t\t\t\n      PUSH 40\t\t\t\n      MLOAD \t\t\t\n      PUSH ECD3F81E00000000000000000000000000000000000000000000000000000000\t\t\t\n      DUP2 \t\t\t\n      MSTORE \t\t\t\n      PUSH 4\t\t\t\n      ADD \t\t\t\n      PUSH [tag] 370\t\t\t\n      SWAP3 \t\t\t\n      SWAP2 \t\t\t\n      SWAP1 \t\t\t\n      PUSH [tag] 268\t\t\t\n      JUMP \t\t\t\n    tag 370\t\t\t\n      JUMPDEST \t\t\t\n      PUSH 40\t\t\t\n      MLOAD \t\t\t\n      DUP1 \t\t\t\n      SWAP2 \t\t\t\n      SUB \t\t\t\n      SWAP1 \t\t\t\n      REVERT \t\t\t\n    tag 369\t\t\t\n      JUMPDEST \t\t\t\n      PUSH [tag] 371\t\t\t\n      PUSH [tag] 372\t\t\t\n      DUP6 \t\t\t\n      PUSH [tag] 271\t\t\t\n      JUMP \t\t\t\n    tag 372\t\t\t\n      JUMPDEST \t\t\t\n      DUP4 \t\t\t\n      PUSH 2\t\t\t\n      ADD \t\t\t\n      PUSH [tag] 272\t\t\t\n      SWAP1 \t\t\t\n      SWAP2 \t\t\t\n      SWAP1 \t\t\t\n      PUSH FFFFFFFF\t\t\t\n      AND \t\t\t\n      JUMP \t\t\t\n    tag 371\t\t\t\n      JUMPDEST \t\t\t\n      PUSH FFFFFFFFFFFFFFFFFFFFFFFFFFFFFFFFFFFFFFFFFFFFFFFFFFFF\t\t\t\n      AND \t\t\t\n      SWAP3 \t\t\t\n      POP \t\t\t\n      POP \t\t\t\n      POP \t\t\t\n      SWAP2 \t\t\t\n      SWAP1 \t\t\t\n      POP \t\t\t\n      JUMP \t\t\t\n    tag 161\t\t\t\n      JUMPDEST \t\t\t\n      PUSH 0\t\t\t\n      DUP1 \t\t\t\n      PUSH [tag] 374\t\t\t\n      PUSH [tag] 245\t\t\t\n      JUMP \t\t\t\n    tag 374\t\t\t\n      JUMPDEST \t\t\t\n      SWAP1 \t\t\t\n      POP \t\t\t\n      DUP1 \t\t\t\n      PUSH 0\t\t\t\n      ADD \t\t\t\n      PUSH 0\t\t\t\n      DUP6 \t\t\t\n      DUP2 \t\t\t\n      MSTORE \t\t\t\n      PUSH 20\t\t\t\n      ADD \t\t\t\n      SWAP1 \t\t\t\n      DUP2 \t\t\t\n      MSTORE \t\t\t\n      PUSH 20\t\t\t\n      ADD \t\t\t\n      PUSH 0\t\t\t\n      KECCAK256 \t\t\t\n      PUSH 0\t\t\t\n      ADD \t\t\t\n      PUSH 0\t\t\t\n      DUP5 \t\t\t\n      PUSH FFFFFFFFFFFFFFFFFFFFFFFFFFFFFFFFFFFFFFFF\t\t\t\n      AND \t\t\t\n      PUSH FFFFFFFFFFFFFFFFFFFFFFFFFFFFFFFFFFFFFFFF\t\t\t\n      AND \t\t\t\n      DUP2 \t\t\t\n      MSTORE \t\t\t\n      PUSH 20\t\t\t\n      ADD \t\t\t\n      SWAP1 \t\t\t\n      DUP2 \t\t\t\n      MSTORE \t\t\t\n      PUSH 20\t\t\t\n      ADD \t\t\t\n      PUSH 0\t\t\t\n      KECCAK256 \t\t\t\n      PUSH 0\t\t\t\n      SWAP1 \t\t\t\n      SLOAD \t\t\t\n      SWAP1 \t\t\t\n      PUSH 100\t\t\t\n      EXP \t\t\t\n      SWAP1 \t\t\t\n      DIV \t\t\t\n      PUSH FF\t\t\t\n      AND \t\t\t\n      SWAP2 \t\t\t\n      POP \t\t\t\n      POP \t\t\t\n      SWAP3 \t\t\t\n      SWAP2 \t\t\t\n      POP \t\t\t\n      POP \t\t\t\n      JUMP \t\t\t\n    tag 164\t\t\t\n      JUMPDEST \t\t\t\n      PUSH 0\t\t\t\n      PUSH [tag] 376\t\t\t\n      PUSH [tag] 289\t\t\t\n      JUMP \t\t\t\n    tag 376\t\t\t\n      JUMPDEST \t\t\t\n      SWAP1 \t\t\t\n      POP \t\t\t\n      SWAP1 \t\t\t\n      JUMP \t\t\t\n    tag 168\t\t\t\n      JUMPDEST \t\t\t\n      PUSH 60\t\t\t\n      PUSH 0\t\t\t\n      PUSH [tag] 378\t\t\t\n      PUSH [tag] 223\t\t\t\n      JUMP \t\t\t\n    tag 378\t\t\t\n      JUMPDEST \t\t\t\n      SWAP1 \t\t\t\n      POP \t\t\t\n      DUP1 \t\t\t\n      PUSH 4\t\t\t\n      ADD \t\t\t\n      DUP1 \t\t\t\n      SLOAD \t\t\t\n      PUSH [tag] 379\t\t\t\n      SWAP1 \t\t\t\n      PUSH [tag] 225\t\t\t\n      JUMP \t\t\t\n    tag 379\t\t\t\n      JUMPDEST \t\t\t\n      DUP1 \t\t\t\n      PUSH 1F\t\t\t\n      ADD \t\t\t\n      PUSH 20\t\t\t\n      DUP1 \t\t\t\n      SWAP2 \t\t\t\n      DIV \t\t\t\n      MUL \t\t\t\n      PUSH 20\t\t\t\n      ADD \t\t\t\n      PUSH 40\t\t\t\n      MLOAD \t\t\t\n      SWAP1 \t\t\t\n      DUP2 \t\t\t\n      ADD \t\t\t\n      PUSH 40\t\t\t\n      MSTORE \t\t\t\n      DUP1 \t\t\t\n      SWAP3 \t\t\t\n      SWAP2 \t\t\t\n      SWAP1 \t\t\t\n      DUP2 \t\t\t\n      DUP2 \t\t\t\n      MSTORE \t\t\t\n      PUSH 20\t\t\t\n      ADD \t\t\t\n      DUP3 \t\t\t\n      DUP1 \t\t\t\n      SLOAD \t\t\t\n      PUSH [tag] 380\t\t\t\n      SWAP1 \t\t\t\n      PUSH [tag] 225\t\t\t\n      JUMP \t\t\t\n    tag 380\t\t\t\n      JUMPDEST \t\t\t\n      DUP1 \t\t\t\n      ISZERO \t\t\t\n      PUSH [tag] 381\t\t\t\n      JUMPI \t\t\t\n      DUP1 \t\t\t\n      PUSH 1F\t\t\t\n      LT \t\t\t\n      PUSH [tag] 382\t\t\t\n      JUMPI \t\t\t\n      PUSH 100\t\t\t\n      DUP1 \t\t\t\n      DUP4 \t\t\t\n      SLOAD \t\t\t\n      DIV \t\t\t\n      MUL \t\t\t\n      DUP4 \t\t\t\n      MSTORE \t\t\t\n      SWAP2 \t\t\t\n      PUSH 20\t\t\t\n      ADD \t\t\t\n      SWAP2 \t\t\t\n      PUSH [tag] 381\t\t\t\n      JUMP \t\t\t\n    tag 382\t\t\t\n      JUMPDEST \t\t\t\n      DUP3 \t\t\t\n      ADD \t\t\t\n      SWAP2 \t\t\t\n      SWAP1 \t\t\t\n      PUSH 0\t\t\t\n      MSTORE \t\t\t\n      PUSH 20\t\t\t\n      PUSH 0\t\t\t\n      KECCAK256 \t\t\t\n      SWAP1 \t\t\t\n    tag 383\t\t\t\n      JUMPDEST \t\t\t\n      DUP2 \t\t\t\n      SLOAD \t\t\t\n      DUP2 \t\t\t\n      MSTORE \t\t\t\n      SWAP1 \t\t\t\n      PUSH 1\t\t\t\n      ADD \t\t\t\n      SWAP1 \t\t\t\n      PUSH 20\t\t\t\n      ADD \t\t\t\n      DUP1 \t\t\t\n      DUP4 \t\t\t\n      GT \t\t\t\n      PUSH [tag] 383\t\t\t\n      JUMPI \t\t\t\n      DUP3 \t\t\t\n      SWAP1 \t\t\t\n      SUB \t\t\t\n      PUSH 1F\t\t\t\n      AND \t\t\t\n      DUP3 \t\t\t\n      ADD \t\t\t\n      SWAP2 \t\t\t\n    tag 381\t\t\t\n      JUMPDEST \t\t\t\n      POP \t\t\t\n      POP \t\t\t\n      POP \t\t\t\n      POP \t\t\t\n      POP \t\t\t\n      SWAP2 \t\t\t\n      POP \t\t\t\n      POP \t\t\t\n      SWAP1 \t\t\t\n      JUMP \t\t\t\n    tag 172\t\t\t\n      JUMPDEST \t\t\t\n      PUSH 0\t\t\t\n      DUP1 \t\t\t\n      PUSH [tag] 385\t\t\t\n      PUSH [tag] 264\t\t\t\n      JUMP \t\t\t\n    tag 385\t\t\t\n      JUMPDEST \t\t\t\n      SWAP1 \t\t\t\n      POP \t\t\t\n      PUSH [tag] 386\t\t\t\n      DUP2 \t\t\t\n      PUSH 1\t\t\t\n      ADD \t\t\t\n      PUSH 0\t\t\t\n      DUP6 \t\t\t\n      PUSH FFFFFFFFFFFFFFFFFFFFFFFFFFFFFFFFFFFFFFFF\t\t\t\n      AND \t\t\t\n      PUSH FFFFFFFFFFFFFFFFFFFFFFFFFFFFFFFFFFFFFFFF\t\t\t\n      AND \t\t\t\n      DUP2 \t\t\t\n      MSTORE \t\t\t\n      PUSH 20\t\t\t\n      ADD \t\t\t\n      SWAP1 \t\t\t\n      DUP2 \t\t\t\n      MSTORE \t\t\t\n      PUSH 20\t\t\t\n      ADD \t\t\t\n      PUSH 0\t\t\t\n      KECCAK256 \t\t\t\n      PUSH [tag] 387\t\t\t\n      JUMP \t\t\t\n    tag 386\t\t\t\n      JUMPDEST \t\t\t\n      PUSH FFFFFFFFFFFFFFFFFFFFFFFFFFFFFFFFFFFFFFFFFFFFFFFFFFFF\t\t\t\n      AND \t\t\t\n      SWAP2 \t\t\t\n      POP \t\t\t\n      POP \t\t\t\n      SWAP2 \t\t\t\n      SWAP1 \t\t\t\n      POP \t\t\t\n      JUMP \t\t\t\n    tag 175\t\t\teable, ERC20PausableUpgradeabl...\n      JUMPDEST \t\t\teable, ERC20PausableUpgradeabl...\n      PUSH 0\t\t\tgrad\n      DUP1 \t\t\teable, ERC20PausableUpgradeabl...\n      SHL \t\t\teable, ERC20PausableUpgradeabl...\n      DUP2 \t\t\teable, ERC20PausableUpgradeabl...\n      JUMP \t\t\teable, ERC20PausableUpgradeabl...\n    tag 179\t\t\t\n      JUMPDEST \t\t\t\n      PUSH 0\t\t\t\n      DUP1 \t\t\t\n      PUSH [tag] 389\t\t\t\n      PUSH [tag] 232\t\t\t\n      JUMP \t\t\t\n    tag 389\t\t\t\n      JUMPDEST \t\t\t\n      SWAP1 \t\t\t\n      POP \t\t\t\n      PUSH [tag] 390\t\t\t\n      DUP2 \t\t\t\n      DUP6 \t\t\t\n      DUP6 \t\t\t\n      PUSH [tag] 242\t\t\t\n      JUMP \t\t\t\n    tag 390\t\t\t\n      JUMPDEST \t\t\t\n      PUSH 1\t\t\t\n      SWAP2 \t\t\t\n      POP \t\t\t\n      POP \t\t\t\n      SWAP3 \t\t\t\n      SWAP2 \t\t\t\n      POP \t\t\t\n      POP \t\t\t\n      JUMP \t\t\t\n    tag 184\t\t\tfunction initialize(address de...\n      JUMPDEST \t\t\tfunction initialize(address de...\n      PUSH 0\t\t\t\n      PUSH [tag] 392\t\t\t\n      PUSH [tag] 393\t\t\t\n      JUMP \t\t\t\n    tag 392\t\t\t\n      JUMPDEST \t\t\t\n      SWAP1 \t\t\t\n      POP \t\t\t\n      PUSH 0\t\t\t\n      DUP2 \t\t\t\n      PUSH 0\t\t\t\n      ADD \t\t\t\n      PUSH 8\t\t\t\n      SWAP1 \t\t\t\n      SLOAD \t\t\t\n      SWAP1 \t\t\t\n      PUSH 100\t\t\t\n      EXP \t\t\t\n      SWAP1 \t\t\t\n      DIV \t\t\t\n      PUSH FF\t\t\t\n      AND \t\t\t\n      ISZERO \t\t\t\n      SWAP1 \t\t\t\n      POP \t\t\t\n      PUSH 0\t\t\t\n      DUP3 \t\t\t\n      PUSH 0\t\t\t\n      ADD \t\t\t\n      PUSH 0\t\t\t\n      SWAP1 \t\t\t\n      SLOAD \t\t\t\n      SWAP1 \t\t\t\n      PUSH 100\t\t\t\n      EXP \t\t\t\n      SWAP1 \t\t\t\n      DIV \t\t\t\n      PUSH FFFFFFFFFFFFFFFF\t\t\t\n      AND \t\t\t\n      SWAP1 \t\t\t\n      POP \t\t\t\n      PUSH 0\t\t\t\n      DUP1 \t\t\t\n      DUP3 \t\t\t\n      PUSH FFFFFFFFFFFFFFFF\t\t\t\n      AND \t\t\t\n      EQ \t\t\t\n      DUP1 \t\t\t\n      ISZERO \t\t\t\n      PUSH [tag] 394\t\t\t\n      JUMPI \t\t\t\n      POP \t\t\t\n      DUP3 \t\t\t\n    tag 394\t\t\t\n      JUMPDEST \t\t\t\n      SWAP1 \t\t\t\n      POP \t\t\t\n      PUSH 0\t\t\t\n      PUSH 1\t\t\t\n      DUP4 \t\t\t\n      PUSH FFFFFFFFFFFFFFFF\t\t\t\n      AND \t\t\t\n      EQ \t\t\t\n      DUP1 \t\t\t\n      ISZERO \t\t\t\n      PUSH [tag] 395\t\t\t\n      JUMPI \t\t\t\n      POP \t\t\t\n      PUSH 0\t\t\t\n      ADDRESS \t\t\t\n      PUSH FFFFFFFFFFFFFFFFFFFFFFFFFFFFFFFFFFFFFFFF\t\t\t\n      AND \t\t\t\n      EXTCODESIZE \t\t\t\n      EQ \t\t\t\n    tag 395\t\t\t\n      JUMPDEST \t\t\t\n      SWAP1 \t\t\t\n      POP \t\t\t\n      DUP2 \t\t\t\n      ISZERO \t\t\t\n      DUP1 \t\t\t\n      ISZERO \t\t\t\n      PUSH [tag] 396\t\t\t\n      JUMPI \t\t\t\n      POP \t\t\t\n      DUP1 \t\t\t\n      ISZERO \t\t\t\n    tag 396\t\t\t\n      JUMPDEST \t\t\t\n      ISZERO \t\t\t\n      PUSH [tag] 397\t\t\t\n      JUMPI \t\t\t\n      PUSH 40\t\t\t\n      MLOAD \t\t\t\n      PUSH F92EE8A900000000000000000000000000000000000000000000000000000000\t\t\t\n      DUP2 \t\t\t\n      MSTORE \t\t\t\n      PUSH 4\t\t\t\n      ADD \t\t\t\n      PUSH 40\t\t\t\n      MLOAD \t\t\t\n      DUP1 \t\t\t\n      SWAP2 \t\t\t\n      SUB \t\t\t\n      SWAP1 \t\t\t\n      REVERT \t\t\t\n    tag 397\t\t\t\n      JUMPDEST \t\t\t\n      PUSH 1\t\t\t\n      DUP6 \t\t\t\n      PUSH 0\t\t\t\n      ADD \t\t\t\n      PUSH 0\t\t\t\n      PUSH 100\t\t\t\n      EXP \t\t\t\n      DUP2 \t\t\t\n      SLOAD \t\t\t\n      DUP2 \t\t\t\n      PUSH FFFFFFFFFFFFFFFF\t\t\t\n      MUL \t\t\t\n      NOT \t\t\t\n      AND \t\t\t\n      SWAP1 \t\t\t\n      DUP4 \t\t\t\n      PUSH FFFFFFFFFFFFFFFF\t\t\t\n      AND \t\t\t\n      MUL \t\t\t\n      OR \t\t\t\n      SWAP1 \t\t\t\n      SSTORE \t\t\t\n      POP \t\t\t\n      DUP4 \t\t\t\n      ISZERO \t\t\t\n      PUSH [tag] 398\t\t\t\n      JUMPI \t\t\t\n      PUSH 1\t\t\t\n      DUP6 \t\t\t\n      PUSH 0\t\t\t\n      ADD \t\t\t\n      PUSH 8\t\t\t\n      PUSH 100\t\t\t\n      EXP \t\t\t\n      DUP2 \t\t\t\n      SLOAD \t\t\t\n      DUP2 \t\t\t\n      PUSH FF\t\t\t\n      MUL \t\t\t\n      NOT \t\t\t\n      AND \t\t\t\n      SWAP1 \t\t\t\n      DUP4 \t\t\t\n      ISZERO \t\t\t\n      ISZERO \t\t\t\n      MUL \t\t\t\n      OR \t\t\t\n      SWAP1 \t\t\t\n      SSTORE \t\t\t\n      POP \t\t\t\n    tag 398\t\t\t\n      JUMPDEST \t\t\t\n      PUSH [tag] 400\t\t\t__ERC20_init(\"QAI\", \"AI\")\n      PUSH 40\t\t\t__ERC20_init(\"QAI\", \"AI\")\n      MLOAD \t\t\t__ERC20_init(\"QAI\", \"AI\")\n      DUP1 \t\t\t__ERC20_init(\"QAI\", \"AI\")\n      PUSH 40\t\t\t__ERC20_init(\"QAI\", \"AI\")\n      ADD \t\t\t__ERC20_init(\"QAI\", \"AI\")\n      PUSH 40\t\t\t__ERC20_init(\"QAI\", \"AI\")\n      MSTORE \t\t\t__ERC20_init(\"QAI\", \"AI\")\n      DUP1 \t\t\t__ERC20_init(\"QAI\", \"AI\")\n      PUSH 3\t\t\t__ERC20_init(\"QAI\", \"AI\")\n      DUP2 \t\t\t__ERC20_init(\"QAI\", \"AI\")\n      MSTORE \t\t\t__ERC20_init(\"QAI\", \"AI\")\n      PUSH 20\t\t\t__ERC20_init(\"QAI\", \"AI\")\n      ADD \t\t\t__ERC20_init(\"QAI\", \"AI\")\n      PUSH 5141490000000000000000000000000000000000000000000000000000000000\t\t\t__ERC20_init(\"QAI\", \"AI\")\n      DUP2 \t\t\t__ERC20_init(\"QAI\", \"AI\")\n      MSTORE \t\t\t__ERC20_init(\"QAI\", \"AI\")\n      POP \t\t\t__ERC20_init(\"QAI\", \"AI\")\n      PUSH 40\t\t\t__ERC20_init(\"QAI\", \"AI\")\n      MLOAD \t\t\t__ERC20_init(\"QAI\", \"AI\")\n      DUP1 \t\t\t__ERC20_init(\"QAI\", \"AI\")\n      PUSH 40\t\t\t__ERC20_init(\"QAI\", \"AI\")\n      ADD \t\t\t__ERC20_init(\"QAI\", \"AI\")\n      PUSH 40\t\t\t__ERC20_init(\"QAI\", \"AI\")\n      MSTORE \t\t\t__ERC20_init(\"QAI\", \"AI\")\n      DUP1 \t\t\t__ERC20_init(\"QAI\", \"AI\")\n      PUSH 2\t\t\t__ERC20_init(\"QAI\", \"AI\")\n      DUP2 \t\t\t__ERC20_init(\"QAI\", \"AI\")\n      MSTORE \t\t\t__ERC20_init(\"QAI\", \"AI\")\n      PUSH 20\t\t\t__ERC20_init(\"QAI\", \"AI\")\n      ADD \t\t\t__ERC20_init(\"QAI\", \"AI\")\n      PUSH 4149000000000000000000000000000000000000000000000000000000000000\t\t\t__ERC20_init(\"QAI\", \"AI\")\n      DUP2 \t\t\t__ERC20_init(\"QAI\", \"AI\")\n      MSTORE \t\t\t__ERC20_init(\"QAI\", \"AI\")\n      POP \t\t\t__ERC20_init(\"QAI\", \"AI\")\n      PUSH [tag] 401\t\t\t__ERC20_init\n      JUMP \t\t\t__ERC20_init(\"QAI\", \"AI\")\n    tag 400\t\t\t__ERC20_init(\"QAI\", \"AI\")\n      JUMPDEST \t\t\t__ERC20_init(\"QAI\", \"AI\")\n      PUSH [tag] 402\t\t\t__ERC20Burnable_init()\n      PUSH [tag] 403\t\t\t__ERC20Burnable_init\n      JUMP \t\t\t__ERC20Burnable_init()\n    tag 402\t\t\t__ERC20Burnable_init()\n      JUMPDEST \t\t\t__ERC20Burnable_init()\n      PUSH [tag] 404\t\t\t__ERC20Pausable_init()\n      PUSH [tag] 405\t\t\t__ERC20Pausable_init\n      JUMP \t\t\t__ERC20Pausable_init()\n    tag 404\t\t\t__ERC20Pausable_init()\n      JUMPDEST \t\t\t__ERC20Pausable_init()\n      PUSH [tag] 406\t\t\t__AccessControl_init()\n      PUSH [tag] 407\t\t\t__AccessControl_init\n      JUMP \t\t\t__AccessControl_init()\n    tag 406\t\t\t__AccessControl_init()\n      JUMPDEST \t\t\t__AccessControl_init()\n      PUSH [tag] 408\t\t\t__ERC20Permit_init(\"QAI\")\n      PUSH 40\t\t\t__ERC20Permit_init(\"QAI\")\n      MLOAD \t\t\t__ERC20Permit_init(\"QAI\")\n      DUP1 \t\t\t__ERC20Permit_init(\"QAI\")\n      PUSH 40\t\t\t__ERC20Permit_init(\"QAI\")\n      ADD \t\t\t__ERC20Permit_init(\"QAI\")\n      PUSH 40\t\t\t__ERC20Permit_init(\"QAI\")\n      MSTORE \t\t\t__ERC20Permit_init(\"QAI\")\n      DUP1 \t\t\t__ERC20Permit_init(\"QAI\")\n      PUSH 3\t\t\t__ERC20Permit_init(\"QAI\")\n      DUP2 \t\t\t__ERC20Permit_init(\"QAI\")\n      MSTORE \t\t\t__ERC20Permit_init(\"QAI\")\n      PUSH 20\t\t\t__ERC20Permit_init(\"QAI\")\n      ADD \t\t\t__ERC20Permit_init(\"QAI\")\n      PUSH 5141490000000000000000000000000000000000000000000000000000000000\t\t\t__ERC20Permit_init(\"QAI\")\n      DUP2 \t\t\t__ERC20Permit_init(\"QAI\")\n      MSTORE \t\t\t__ERC20Permit_init(\"QAI\")\n      POP \t\t\t__ERC20Permit_init(\"QAI\")\n      PUSH [tag] 409\t\t\t__ERC20Permit_init\n      JUMP \t\t\t__ERC20Permit_init(\"QAI\")\n    tag 408\t\t\t__ERC20Permit_init(\"QAI\")\n      JUMPDEST \t\t\t__ERC20Permit_init(\"QAI\")\n      PUSH [tag] 410\t\t\t__ERC20Votes_init()\n      PUSH [tag] 411\t\t\t__ERC20Votes_init\n      JUMP \t\t\t__ERC20Votes_init()\n    tag 410\t\t\t__ERC20Votes_init()\n      JUMPDEST \t\t\t__ERC20Votes_init()\n      PUSH [tag] 412\t\t\t__ERC20FlashMint_init()\n      PUSH [tag] 413\t\t\t__ERC20FlashMint_init\n      JUMP \t\t\t__ERC20FlashMint_init()\n    tag 412\t\t\t__ERC20FlashMint_init()\n      JUMPDEST \t\t\t__ERC20FlashMint_init()\n      PUSH [tag] 414\t\t\t_grantRole(DEFAULT_ADMIN_ROLE,...\n      PUSH 0\t\t\tgrad\n      DUP1 \t\t\tDEFAULT_ADMIN_ROLE\n      SHL \t\t\tDEFAULT_ADMIN_ROLE\n      DUP10 \t\t\tdefaultAdmin\n      PUSH [tag] 252\t\t\t_grantRole\n      JUMP \t\t\t_grantRole(DEFAULT_ADMIN_ROLE,...\n    tag 414\t\t\t_grantRole(DEFAULT_ADMIN_ROLE,...\n      JUMPDEST \t\t\t_grantRole(DEFAULT_ADMIN_ROLE,...\n      POP \t\t\t_grantRole(DEFAULT_ADMIN_ROLE,...\n      PUSH [tag] 415\t\t\t_grantRole(PAUSER_ROLE, pauser...\n      PUSH 65D7A28E3265B37A6474929F336521B332C1681B933F6CB9F3376673440D862A\t\t\tkeccak256(\"PAUSER_ROLE\")\n      DUP9 \t\t\tpauser\n      PUSH [tag] 252\t\t\t_grantRole\n      JUMP \t\t\t_grantRole(PAUSER_ROLE, pauser...\n    tag 415\t\t\t_grantRole(PAUSER_ROLE, pauser...\n      JUMPDEST \t\t\t_grantRole(PAUSER_ROLE, pauser...\n      POP \t\t\t_grantRole(PAUSER_ROLE, pauser...\n      PUSH [tag] 416\t\t\t_mint(msg.sender, 150000000 * ...\n      CALLER \t\t\tmsg.sender\n      PUSH [tag] 417\t\t\tdecimals()\n      PUSH [tag] 87\t\t\tdecimals\n      JUMP \t\t\tdecimals()\n    tag 417\t\t\tdecimals()\n      JUMPDEST \t\t\tdecimals()\n      PUSH A\t\t\t10\n      PUSH [tag] 418\t\t\t10 ** decimals()\n      SWAP2 \t\t\t10 ** decimals()\n      SWAP1 \t\t\t10 ** decimals()\n      PUSH [tag] 419\t\t\t10 ** decimals()\n      JUMP \t\t\t10 ** decimals()\n    tag 418\t\t\t10 ** decimals()\n      JUMPDEST \t\t\t10 ** decimals()\n      PUSH 8F0D180\t\t\t150000000\n      PUSH [tag] 420\t\t\t150000000 * 10 ** decimals()\n      SWAP2 \t\t\t150000000 * 10 ** decimals()\n      SWAP1 \t\t\t150000000 * 10 ** decimals()\n      PUSH [tag] 421\t\t\t150000000 * 10 ** decimals()\n      JUMP \t\t\t150000000 * 10 ** decimals()\n    tag 420\t\t\t150000000 * 10 ** decimals()\n      JUMPDEST \t\t\t150000000 * 10 ** decimals()\n      PUSH [tag] 282\t\t\t_mint\n      JUMP \t\t\t_mint(msg.sender, 150000000 * ...\n    tag 416\t\t\t_mint(msg.sender, 150000000 * ...\n      JUMPDEST \t\t\t_mint(msg.sender, 150000000 * ...\n      PUSH [tag] 422\t\t\t_grantRole(MINTER_ROLE, minter...\n      PUSH 9F2DF0FED2C77648DE5860A4CC508CD0818C85B8B8A1AB4CEEEF8D981C8956A6\t\t\tkeccak256(\"MINTER_ROLE\")\n      DUP8 \t\t\tminter\n      PUSH [tag] 252\t\t\t_grantRole\n      JUMP \t\t\t_grantRole(MINTER_ROLE, minter...\n    tag 422\t\t\t_grantRole(MINTER_ROLE, minter...\n      JUMPDEST \t\t\t_grantRole(MINTER_ROLE, minter...\n      POP \t\t\t_grantRole(MINTER_ROLE, minter...\n      DUP4 \t\t\t\n      ISZERO \t\t\t\n      PUSH [tag] 423\t\t\t\n      JUMPI \t\t\t\n      PUSH 0\t\t\t\n      DUP6 \t\t\t\n      PUSH 0\t\t\t\n      ADD \t\t\t\n      PUSH 8\t\t\t\n      PUSH 100\t\t\t\n      EXP \t\t\t\n      DUP2 \t\t\t\n      SLOAD \t\t\t\n      DUP2 \t\t\t\n      PUSH FF\t\t\t\n      MUL \t\t\t\n      NOT \t\t\t\n      AND \t\t\t\n      SWAP1 \t\t\t\n      DUP4 \t\t\t\n      ISZERO \t\t\t\n      ISZERO \t\t\t\n      MUL \t\t\t\n      OR \t\t\t\n      SWAP1 \t\t\t\n      SSTORE \t\t\t\n      POP \t\t\t\n      PUSH C7F505B2F371AE2175EE4913F4499E1F2633A7B5936321EED1CDAEB6115181D2\t\t\t\n      PUSH 1\t\t\t\n      PUSH 40\t\t\t\n      MLOAD \t\t\t\n      PUSH [tag] 424\t\t\t\n      SWAP2 \t\t\t\n      SWAP1 \t\t\t\n      PUSH [tag] 425\t\t\t\n      JUMP \t\t\t\n    tag 424\t\t\t\n      JUMPDEST \t\t\t\n      PUSH 40\t\t\t\n      MLOAD \t\t\t\n      DUP1 \t\t\t\n      SWAP2 \t\t\t\n      SUB \t\t\t\n      SWAP1 \t\t\t\n      LOG1 \t\t\t\n    tag 423\t\t\t\n      JUMPDEST \t\t\t\n      POP \t\t\t\n      POP \t\t\t\n      POP \t\t\t\n      POP \t\t\t\n      POP \t\t\t\n      POP \t\t\tfunction initialize(address de...\n      POP \t\t\tfunction initialize(address de...\n      POP \t\t\tfunction initialize(address de...\n      JUMP \t\t\tfunction initialize(address de...\n    tag 188\t\t\t\n      JUMPDEST \t\t\t\n      DUP4 \t\t\t\n      TIMESTAMP \t\t\t\n      GT \t\t\t\n      ISZERO \t\t\t\n      PUSH [tag] 427\t\t\t\n      JUMPI \t\t\t\n      DUP4 \t\t\t\n      PUSH 40\t\t\t\n      MLOAD \t\t\t\n      PUSH 4683AF0E00000000000000000000000000000000000000000000000000000000\t\t\t\n      DUP2 \t\t\t\n      MSTORE \t\t\t\n      PUSH 4\t\t\t\n      ADD \t\t\t\n      PUSH [tag] 428\t\t\t\n      SWAP2 \t\t\t\n      SWAP1 \t\t\t\n      PUSH [tag] 70\t\t\t\n      JUMP \t\t\t\n    tag 428\t\t\t\n      JUMPDEST \t\t\t\n      PUSH 40\t\t\t\n      MLOAD \t\t\t\n      DUP1 \t\t\t\n      SWAP2 \t\t\t\n      SUB \t\t\t\n      SWAP1 \t\t\t\n      REVERT \t\t\t\n    tag 427\t\t\t\n      JUMPDEST \t\t\t\n      PUSH 0\t\t\t\n      PUSH [tag] 429\t\t\t\n      PUSH [tag] 430\t\t\t\n      PUSH E48329057BFD03D55E49B547132E39CFFD9C1820AD7B9D4C5307691425D15ADF\t\t\tble, ERC20VotesUpgradeable)\\n ...\n      DUP10 \t\t\t\n      DUP10 \t\t\t\n      DUP10 \t\t\t\n      PUSH 40\t\t\t\n      MLOAD \t\t\t\n      PUSH 20\t\t\t\n      ADD \t\t\t\n      PUSH [tag] 431\t\t\t\n      SWAP5 \t\t\t\n      SWAP4 \t\t\t\n      SWAP3 \t\t\t\n      SWAP2 \t\t\t\n      SWAP1 \t\t\t\n      PUSH [tag] 432\t\t\t\n      JUMP \t\t\t\n    tag 431\t\t\t\n      JUMPDEST \t\t\t\n      PUSH 40\t\t\t\n      MLOAD \t\t\t\n      PUSH 20\t\t\t\n      DUP2 \t\t\t\n      DUP4 \t\t\t\n      SUB \t\t\t\n      SUB \t\t\t\n      DUP2 \t\t\t\n      MSTORE \t\t\t\n      SWAP1 \t\t\t\n      PUSH 40\t\t\t\n      MSTORE \t\t\t\n      DUP1 \t\t\t\n      MLOAD \t\t\t\n      SWAP1 \t\t\t\n      PUSH 20\t\t\t\n      ADD \t\t\t\n      KECCAK256 \t\t\t\n      PUSH [tag] 433\t\t\t\n      JUMP \t\t\t\n    tag 430\t\t\t\n      JUMPDEST \t\t\t\n      DUP6 \t\t\t\n      DUP6 \t\t\t\n      DUP6 \t\t\t\n      PUSH [tag] 434\t\t\t\n      JUMP \t\t\t\n    tag 429\t\t\t\n      JUMPDEST \t\t\t\n      SWAP1 \t\t\t\n      POP \t\t\t\n      PUSH [tag] 435\t\t\t\n      DUP2 \t\t\t\n      DUP8 \t\t\t\n      PUSH [tag] 436\t\t\t\n      JUMP \t\t\t\n    tag 435\t\t\t\n      JUMPDEST \t\t\t\n      PUSH [tag] 437\t\t\t\n      DUP2 \t\t\t\n      DUP9 \t\t\t\n      PUSH [tag] 297\t\t\t\n      JUMP \t\t\t\n    tag 437\t\t\t\n      JUMPDEST \t\t\t\n      POP \t\t\t\n      POP \t\t\t\n      POP \t\t\t\n      POP \t\t\t\n      POP \t\t\t\n      POP \t\t\t\n      POP \t\t\t\n      JUMP \t\t\t\n    tag 192\t\t\tNTER_ROLE) {\\n        _mint(to...\n      JUMPDEST \t\t\tNTER_ROLE) {\\n        _mint(to...\n      DUP4 \t\t\tdeable, \n      TIMESTAMP \t\t\tverride(ERC20Up\n      GT \t\t\tverride(ERC20Upgradeable, \n      ISZERO \t\t\t   override(ERC20Upgradeable, ...\n      PUSH [tag] 439\t\t\t   override(ERC20Upgradeable, ...\n      JUMPI \t\t\t   override(ERC20Upgradeable, ...\n      DUP4 \t\t\t)\\n    {\\n\n      PUSH 40\t\t\te, ERC20VotesUpgradeable)\\n   ...\n      MLOAD \t\t\te, ERC20VotesUpgradeable)\\n   ...\n      PUSH 6279130200000000000000000000000000000000000000000000000000000000\t\t\te, ERC20VotesUpgradeable)\\n   ...\n      DUP2 \t\t\te, ERC20VotesUpgradeable)\\n   ...\n      MSTORE \t\t\te, ERC20VotesUpgradeable)\\n   ...\n      PUSH 4\t\t\te, ERC20VotesUpgradeable)\\n   ...\n      ADD \t\t\te, ERC20VotesUpgradeable)\\n   ...\n      PUSH [tag] 440\t\t\te, ERC20VotesUpgradeable)\\n   ...\n      SWAP2 \t\t\te, ERC20VotesUpgradeable)\\n   ...\n      SWAP1 \t\t\te, ERC20VotesUpgradeable)\\n   ...\n      PUSH [tag] 70\t\t\te, ERC20VotesUpgradeable)\\n   ...\n      JUMP \t\t\te, ERC20VotesUpgradeable)\\n   ...\n    tag 440\t\t\te, ERC20VotesUpgradeable)\\n   ...\n      JUMPDEST \t\t\te, ERC20VotesUpgradeable)\\n   ...\n      PUSH 40\t\t\te, ERC20VotesUpgradeable)\\n   ...\n      MLOAD \t\t\te, ERC20VotesUpgradeable)\\n   ...\n      DUP1 \t\t\te, ERC20VotesUpgradeable)\\n   ...\n      SWAP2 \t\t\te, ERC20VotesUpgradeable)\\n   ...\n      SUB \t\t\te, ERC20VotesUpgradeable)\\n   ...\n      SWAP1 \t\t\te, ERC20VotesUpgradeable)\\n   ...\n      REVERT \t\t\te, ERC20VotesUpgradeable)\\n   ...\n    tag 439\t\t\t   override(ERC20Upgradeable, ...\n      JUMPDEST \t\t\t   override(ERC20Upgradeable, ...\n      PUSH 0\t\t\tfrom, to, value);\\n\n      PUSH 6E71EDAE12B1B97F4D1F60370FEF10105FA2FAAE0126114A169C64845D6126C9\t\t\t constructor() {\\n        _dis...\n      DUP9 \t\t\t\\n    \n      DUP9 \t\t\t  publi\n      DUP9 \t\t\t     \n      PUSH [tag] 441\t\t\t view\\n        ov\n      DUP13 \t\t\t    o\n      PUSH [tag] 442\t\t\t view\\n   \n      JUMP \t\t\t view\\n        ov\n    tag 441\t\t\t view\\n        ov\n      JUMPDEST \t\t\t view\\n        ov\n      DUP10 \t\t\tride(ERC\n      PUSH 40\t\t\tnction nonces(address owner)\\n...\n      MLOAD \t\t\tnction nonces(address owner)\\n...\n      PUSH 20\t\t\tnction nonces(address owner)\\n...\n      ADD \t\t\tnction nonces(address owner)\\n...\n      PUSH [tag] 443\t\t\tnction nonces(address owner)\\n...\n      SWAP7 \t\t\tnction nonces(address owner)\\n...\n      SWAP6 \t\t\tnction nonces(address owner)\\n...\n      SWAP5 \t\t\tnction nonces(address owner)\\n...\n      SWAP4 \t\t\tnction nonces(address owner)\\n...\n      SWAP3 \t\t\tnction nonces(address owner)\\n...\n      SWAP2 \t\t\tnction nonces(address owner)\\n...\n      SWAP1 \t\t\tnction nonces(address owner)\\n...\n      PUSH [tag] 444\t\t\tnction nonces(address owner)\\n...\n      JUMP \t\t\tnction nonces(address owner)\\n...\n    tag 443\t\t\tnction nonces(address owner)\\n...\n      JUMPDEST \t\t\tnction nonces(address owner)\\n...\n      PUSH 40\t\t\tnction nonces(address owner)\\n...\n      MLOAD \t\t\tnction nonces(address owner)\\n...\n      PUSH 20\t\t\tnction nonces(address owner)\\n...\n      DUP2 \t\t\tnction nonces(address owner)\\n...\n      DUP4 \t\t\tnction nonces(address owner)\\n...\n      SUB \t\t\tnction nonces(address owner)\\n...\n      SUB \t\t\tnction nonces(address owner)\\n...\n      DUP2 \t\t\tnction nonces(address owner)\\n...\n      MSTORE \t\t\tnction nonces(address owner)\\n...\n      SWAP1 \t\t\tnction nonces(address owner)\\n...\n      PUSH 40\t\t\tnction nonces(address owner)\\n...\n      MSTORE \t\t\tnction nonces(address owner)\\n...\n      DUP1 \t\t\t }\\n\\n    function nonces(addr...\n      MLOAD \t\t\t }\\n\\n    function nonces(addr...\n      SWAP1 \t\t\t }\\n\\n    function nonces(addr...\n      PUSH 20\t\t\t }\\n\\n    function nonces(addr...\n      ADD \t\t\t }\\n\\n    function nonces(addr...\n      KECCAK256 \t\t\t }\\n\\n    function nonces(addr...\n      SWAP1 \t\t\tfrom, to, value);\\n    }\\n\\n  ...\n      POP \t\t\tfrom, to, value);\\n    }\\n\\n  ...\n      PUSH 0\t\t\tdeable, Nonc\n      PUSH [tag] 445\t\t\tpgradeable)\\n        returns \n      DUP3 \t\t\t   returns\n      PUSH [tag] 433\t\t\tpgradeable)\\n    \n      JUMP \t\t\tpgradeable)\\n        returns \n    tag 445\t\t\tpgradeable)\\n        returns \n      JUMPDEST \t\t\tpgradeable)\\n        returns \n      SWAP1 \t\t\tdeable, NoncesUpgradeable)\\n  ...\n      POP \t\t\tdeable, NoncesUpgradeable)\\n  ...\n      PUSH 0\t\t\t   {\\n        r\n      PUSH [tag] 446\t\t\trn super.nonces(owner);\\n    \n      DUP3 \t\t\ts(ow\n      DUP8 \t\t\tr\n      DUP8 \t\t\t\\n\n      DUP8 \t\t\t \n      PUSH [tag] 434\t\t\trn super.nonc\n      JUMP \t\t\trn super.nonces(owner);\\n    \n    tag 446\t\t\trn super.nonces(owner);\\n    \n      JUMPDEST \t\t\trn super.nonces(owner);\\n    \n      SWAP1 \t\t\t   {\\n        return super.non...\n      POP \t\t\t   {\\n        return super.non...\n      DUP10 \t\t\t\n      PUSH FFFFFFFFFFFFFFFFFFFFFFFFFFFFFFFFFFFFFFFF\t\t\t\n      AND \t\t\t\n      DUP2 \t\t\t\n      PUSH FFFFFFFFFFFFFFFFFFFFFFFFFFFFFFFFFFFFFFFF\t\t\t\n      AND \t\t\t\n      EQ \t\t\t\n      PUSH [tag] 447\t\t\t\n      JUMPI \t\t\t\n      DUP1 \t\t\t\n      DUP11 \t\t\t\n      PUSH 40\t\t\t\n      MLOAD \t\t\t\n      PUSH 4B800E4600000000000000000000000000000000000000000000000000000000\t\t\t\n      DUP2 \t\t\t\n      MSTORE \t\t\t\n      PUSH 4\t\t\t\n      ADD \t\t\t\n      PUSH [tag] 448\t\t\t\n      SWAP3 \t\t\t\n      SWAP2 \t\t\t\n      SWAP1 \t\t\t\n      PUSH [tag] 449\t\t\t\n      JUMP \t\t\t\n    tag 448\t\t\t\n      JUMPDEST \t\t\t\n      PUSH 40\t\t\t\n      MLOAD \t\t\t\n      DUP1 \t\t\t\n      SWAP2 \t\t\t\n      SUB \t\t\t\n      SWAP1 \t\t\t\n      REVERT \t\t\t\n    tag 447\t\t\t\n      JUMPDEST \t\t\t\n      PUSH [tag] 450\t\t\t\n      DUP11 \t\t\t\n      DUP11 \t\t\t\n      DUP11 \t\t\t\n      PUSH [tag] 234\t\t\t\n      JUMP \t\t\t\n    tag 450\t\t\t\n      JUMPDEST \t\t\t\n      POP \t\t\trnal\\n        override(ERC20Up...\n      POP \t\t\trnal\\n        override(ERC20Up...\n      POP \t\t\trnal\\n        override(ERC20Up...\n      POP \t\t\tNTER_ROLE) {\\n        _mint(to...\n      POP \t\t\tNTER_ROLE) {\\n        _mint(to...\n      POP \t\t\tNTER_ROLE) {\\n        _mint(to...\n      POP \t\t\tNTER_ROLE) {\\n        _mint(to...\n      POP \t\t\tNTER_ROLE) {\\n        _mint(to...\n      POP \t\t\tNTER_ROLE) {\\n        _mint(to...\n      POP \t\t\tNTER_ROLE) {\\n        _mint(to...\n      JUMP \t\t\tNTER_ROLE) {\\n        _mint(to...\n    tag 194\t\t\tbytes32 public constant MINTER...\n      JUMPDEST \t\t\tbytes32 public constant MINTER...\n      PUSH 9F2DF0FED2C77648DE5860A4CC508CD0818C85B8B8A1AB4CEEEF8D981C8956A6\t\t\tkeccak256(\"MINTER_ROLE\")\n      DUP2 \t\t\tbytes32 public constant MINTER...\n      JUMP \t\t\tbytes32 public constant MINTER...\n    tag 198\t\t\t\n      JUMPDEST \t\t\t\n      PUSH [tag] 451\t\t\t\n      DUP3 \t\t\t\n      PUSH [tag] 79\t\t\t\n      JUMP \t\t\t\n    tag 451\t\t\t\n      JUMPDEST \t\t\t\n      PUSH [tag] 453\t\t\t\n      DUP2 \t\t\t\n      PUSH [tag] 249\t\t\t\n      JUMP \t\t\t\n    tag 453\t\t\t\n      JUMPDEST \t\t\t\n      PUSH [tag] 455\t\t\t\n      DUP4 \t\t\t\n      DUP4 \t\t\t\n      PUSH [tag] 261\t\t\t\n      JUMP \t\t\t\n    tag 455\t\t\t\n      JUMPDEST \t\t\t\n      POP \t\t\t\n      POP \t\t\t\n      POP \t\t\t\n      POP \t\t\t\n      JUMP \t\t\t\n    tag 201\t\t\t\n      JUMPDEST \t\t\t\n      PUSH 0\t\t\t\n      ADDRESS \t\t\t\n      PUSH FFFFFFFFFFFFFFFFFFFFFFFFFFFFFFFFFFFFFFFF\t\t\t\n      AND \t\t\t\n      DUP4 \t\t\t\n      PUSH FFFFFFFFFFFFFFFFFFFFFFFFFFFFFFFFFFFFFFFF\t\t\t\n      AND \t\t\t\n      EQ \t\t\t\n      PUSH [tag] 457\t\t\t\n      JUMPI \t\t\t\n      DUP3 \t\t\t\n      PUSH 40\t\t\t\n      MLOAD \t\t\t\n      PUSH B5A7DB9200000000000000000000000000000000000000000000000000000000\t\t\t\n      DUP2 \t\t\t\n      MSTORE \t\t\t\n      PUSH 4\t\t\t\n      ADD \t\t\t\n      PUSH [tag] 458\t\t\t\n      SWAP2 \t\t\t\n      SWAP1 \t\t\t\n      PUSH [tag] 117\t\t\t\n      JUMP \t\t\t\n    tag 458\t\t\t\n      JUMPDEST \t\t\t\n      PUSH 40\t\t\t\n      MLOAD \t\t\t\n      DUP1 \t\t\t\n      SWAP2 \t\t\t\n      SUB \t\t\t\n      SWAP1 \t\t\t\n      REVERT \t\t\t\n    tag 457\t\t\t\n      JUMPDEST \t\t\t\n      PUSH [tag] 459\t\t\t\n      DUP4 \t\t\t\n      DUP4 \t\t\t\n      PUSH [tag] 460\t\t\t\n      JUMP \t\t\t\n    tag 459\t\t\t\n      JUMPDEST \t\t\t\n      SWAP1 \t\t\t\n      POP \t\t\t\n      SWAP3 \t\t\t\n      SWAP2 \t\t\t\n      POP \t\t\t\n      POP \t\t\t\n      JUMP \t\t\t\n    tag 206\t\t\t\n      JUMPDEST \t\t\t\n      PUSH 0\t\t\t\n      DUP1 \t\t\t\n      PUSH [tag] 462\t\t\t\n      PUSH [tag] 223\t\t\t\n      JUMP \t\t\t\n    tag 462\t\t\t\n      JUMPDEST \t\t\t\n      SWAP1 \t\t\t\n      POP \t\t\t\n      DUP1 \t\t\t\n      PUSH 1\t\t\t\n      ADD \t\t\t\n      PUSH 0\t\t\t\n      DUP6 \t\t\t\n      PUSH FFFFFFFFFFFFFFFFFFFFFFFFFFFFFFFFFFFFFFFF\t\t\t\n      AND \t\t\t\n      PUSH FFFFFFFFFFFFFFFFFFFFFFFFFFFFFFFFFFFFFFFF\t\t\t\n      AND \t\t\t\n      DUP2 \t\t\t\n      MSTORE \t\t\t\n      PUSH 20\t\t\t\n      ADD \t\t\t\n      SWAP1 \t\t\t\n      DUP2 \t\t\t\n      MSTORE \t\t\t\n      PUSH 20\t\t\t\n      ADD \t\t\t\n      PUSH 0\t\t\t\n      KECCAK256 \t\t\t\n      PUSH 0\t\t\t\n      DUP5 \t\t\t\n      PUSH FFFFFFFFFFFFFFFFFFFFFFFFFFFFFFFFFFFFFFFF\t\t\t\n      AND \t\t\t\n      PUSH FFFFFFFFFFFFFFFFFFFFFFFFFFFFFFFFFFFFFFFF\t\t\t\n      AND \t\t\t\n      DUP2 \t\t\t\n      MSTORE \t\t\t\n      PUSH 20\t\t\t\n      ADD \t\t\t\n      SWAP1 \t\t\t\n      DUP2 \t\t\t\n      MSTORE \t\t\t\n      PUSH 20\t\t\t\n      ADD \t\t\t\n      PUSH 0\t\t\t\n      KECCAK256 \t\t\t\n      SLOAD \t\t\t\n      SWAP2 \t\t\t\n      POP \t\t\t\n      POP \t\t\t\n      SWAP3 \t\t\t\n      SWAP2 \t\t\t\n      POP \t\t\t\n      POP \t\t\t\n      JUMP \t\t\t\n    tag 209\t\t\tbytes32 public constant PAUSER...\n      JUMPDEST \t\t\tbytes32 public constant PAUSER...\n      PUSH 65D7A28E3265B37A6474929F336521B332C1681B933F6CB9F3376673440D862A\t\t\tkeccak256(\"PAUSER_ROLE\")\n      DUP2 \t\t\tbytes32 public constant PAUSER...\n      JUMP \t\t\tbytes32 public constant PAUSER...\n    tag 214\t\t\t\n      JUMPDEST \t\t\t\n      PUSH [tag] 463\t\t\t\n      PUSH [tag] 464\t\t\t\n      JUMP \t\t\t\n    tag 463\t\t\t\n      JUMPDEST \t\t\t\n      PUSH [tag] 466\t\t\t\n      DUP4 \t\t\t\n      DUP4 \t\t\t\n      PUSH [tag] 467\t\t\t\n      JUMP \t\t\t\n    tag 466\t\t\t\n      JUMPDEST \t\t\t\n      SWAP1 \t\t\t\n      POP \t\t\t\n      SWAP3 \t\t\t\n      SWAP2 \t\t\t\n      POP \t\t\t\n      POP \t\t\t\n      JUMP \t\t\t\n    tag 220\t\t\tRC20VotesUpgradeable, ERC20Fla...\n      JUMPDEST \t\t\tRC20VotesUpgradeable, ERC20Fla...\n      PUSH 0\t\t\tt PA\n      PUSH 1FFC9A700000000000000000000000000000000000000000000000000000000\t\t\t\");\\n    bytes32 public co\n      PUSH FFFFFFFFFFFFFFFFFFFFFFFFFFFFFFFFFFFFFFFFFFFFFFFFFFFFFFFF\t\t\t56(\"PAUSER_ROLE\");\\n    bytes3...\n      NOT \t\t\t56(\"PAUSER_ROLE\");\\n    bytes3...\n      AND \t\t\t56(\"PAUSER_ROLE\");\\n    bytes3...\n      DUP3 \t\t\t56(\"PAUSER_\n      PUSH FFFFFFFFFFFFFFFFFFFFFFFFFFFFFFFFFFFFFFFFFFFFFFFFFFFFFFFF\t\t\t56(\"PAUSER_ROLE\");\\n    bytes3...\n      NOT \t\t\t56(\"PAUSER_ROLE\");\\n    bytes3...\n      AND \t\t\t56(\"PAUSER_ROLE\");\\n    bytes3...\n      EQ \t\t\t56(\"PAUSER_ROLE\");\\n    bytes3...\n      SWAP1 \t\t\tkeccak256(\"PAUSER_ROLE\");\\n   ...\n      POP \t\t\tkeccak256(\"PAUSER_ROLE\");\\n   ...\n      SWAP2 \t\t\tRC20VotesUpgradeable, ERC20Fla...\n      SWAP1 \t\t\tRC20VotesUpgradeable, ERC20Fla...\n      POP \t\t\tRC20VotesUpgradeable, ERC20Fla...\n      JUMP \t\t\tRC20VotesUpgradeable, ERC20Fla...\n    tag 223\t\t\tm, address to, uint256 value)\\...\n      JUMPDEST \t\t\tm, address to, uint256 value)\\...\n      PUSH 0\t\t\t     override(ERC20Upg\n      PUSH 52C63247E1F47DB19D5CE0460030C497F067CA4CEBF71BA98EEADABE20BACE00\t\t\tsUpgradeable)\\n    {\\n\n      SWAP1 \t\t\t ERC20VotesUpgradeable)\\n    {...\n      POP \t\t\t ERC20VotesUpgradeable)\\n    {...\n      SWAP1 \t\t\tm, address to, uint256 value)\\...\n      JUMP \t\t\tm, address to, uint256 value)\\...\n    tag 232\t\t\tact QAI is Initializable, ERC2...\n      JUMPDEST \t\t\tact QAI is Initializable, ERC2...\n      PUSH 0\t\t\tableUpg\n      CALLER \t\t\tableUpgrad\n      SWAP1 \t\t\tC20PausableUpgrad\n      POP \t\t\tC20PausableUpgrad\n      SWAP1 \t\t\tact QAI is Initializable, ERC2...\n      JUMP \t\t\tact QAI is Initializable, ERC2...\n    tag 234\t\t\t\n      JUMPDEST \t\t\t\n      PUSH [tag] 472\t\t\t\n      DUP4 \t\t\t\n      DUP4 \t\t\t\n      DUP4 \t\t\t\n      PUSH 1\t\t\t\n      PUSH [tag] 473\t\t\t\n      JUMP \t\t\t\n    tag 472\t\t\t\n      JUMPDEST \t\t\t\n      POP \t\t\t\n      POP \t\t\t\n      POP \t\t\t\n      JUMP \t\t\t\n    tag 240\t\t\t\n      JUMPDEST \t\t\t\n      PUSH 0\t\t\t\n      PUSH [tag] 475\t\t\t\n      DUP5 \t\t\t\n      DUP5 \t\t\t\n      PUSH [tag] 206\t\t\t\n      JUMP \t\t\t\n    tag 475\t\t\t\n      JUMPDEST \t\t\t\n      SWAP1 \t\t\t\n      POP \t\t\t\n      PUSH FFFFFFFFFFFFFFFFFFFFFFFFFFFFFFFFFFFFFFFFFFFFFFFFFFFFFFFFFFFFFFFF\t\t\t\n      DUP2 \t\t\t\n      EQ \t\t\t\n      PUSH [tag] 476\t\t\t\n      JUMPI \t\t\t\n      DUP2 \t\t\t\n      DUP2 \t\t\t\n      LT \t\t\t\n      ISZERO \t\t\t\n      PUSH [tag] 477\t\t\t\n      JUMPI \t\t\t\n      DUP3 \t\t\t\n      DUP2 \t\t\t\n      DUP4 \t\t\t\n      PUSH 40\t\t\t\n      MLOAD \t\t\t\n      PUSH FB8F41B200000000000000000000000000000000000000000000000000000000\t\t\t\n      DUP2 \t\t\t\n      MSTORE \t\t\t\n      PUSH 4\t\t\t\n      ADD \t\t\t\n      PUSH [tag] 478\t\t\t\n      SWAP4 \t\t\t\n      SWAP3 \t\t\t\n      SWAP2 \t\t\t\n      SWAP1 \t\t\t\n      PUSH [tag] 479\t\t\t\n      JUMP \t\t\t\n    tag 478\t\t\t\n      JUMPDEST \t\t\t\n      PUSH 40\t\t\t\n      MLOAD \t\t\t\n      DUP1 \t\t\t\n      SWAP2 \t\t\t\n      SUB \t\t\t\n      SWAP1 \t\t\t\n      REVERT \t\t\t\n    tag 477\t\t\t\n      JUMPDEST \t\t\t\n      PUSH [tag] 480\t\t\t\n      DUP5 \t\t\t\n      DUP5 \t\t\t\n      DUP5 \t\t\t\n      DUP5 \t\t\t\n      SUB \t\t\t\n      PUSH 0\t\t\t\n      PUSH [tag] 473\t\t\t\n      JUMP \t\t\t\n    tag 480\t\t\t\n      JUMPDEST \t\t\t\n    tag 476\t\t\t\n      JUMPDEST \t\t\t\n      POP \t\t\t\n      POP \t\t\t\n      POP \t\t\t\n      POP \t\t\t\n      JUMP \t\t\t\n    tag 242\t\t\t\n      JUMPDEST \t\t\t\n      PUSH 0\t\t\t\n      PUSH FFFFFFFFFFFFFFFFFFFFFFFFFFFFFFFFFFFFFFFF\t\t\t\n      AND \t\t\t\n      DUP4 \t\t\t\n      PUSH FFFFFFFFFFFFFFFFFFFFFFFFFFFFFFFFFFFFFFFF\t\t\t\n      AND \t\t\t\n      SUB \t\t\t\n      PUSH [tag] 482\t\t\t\n      JUMPI \t\t\t\n      PUSH 0\t\t\t\n      PUSH 40\t\t\t\n      MLOAD \t\t\t\n      PUSH 96C6FD1E00000000000000000000000000000000000000000000000000000000\t\t\t\n      DUP2 \t\t\t\n      MSTORE \t\t\t\n      PUSH 4\t\t\t\n      ADD \t\t\t\n      PUSH [tag] 483\t\t\t\n      SWAP2 \t\t\t\n      SWAP1 \t\t\t\n      PUSH [tag] 117\t\t\t\n      JUMP \t\t\t\n    tag 483\t\t\t\n      JUMPDEST \t\t\t\n      PUSH 40\t\t\t\n      MLOAD \t\t\t\n      DUP1 \t\t\t\n      SWAP2 \t\t\t\n      SUB \t\t\t\n      SWAP1 \t\t\t\n      REVERT \t\t\t\n    tag 482\t\t\t\n      JUMPDEST \t\t\t\n      PUSH 0\t\t\t\n      PUSH FFFFFFFFFFFFFFFFFFFFFFFFFFFFFFFFFFFFFFFF\t\t\t\n      AND \t\t\t\n      DUP3 \t\t\t\n      PUSH FFFFFFFFFFFFFFFFFFFFFFFFFFFFFFFFFFFFFFFF\t\t\t\n      AND \t\t\t\n      SUB \t\t\t\n      PUSH [tag] 484\t\t\t\n      JUMPI \t\t\t\n      PUSH 0\t\t\t\n      PUSH 40\t\t\t\n      MLOAD \t\t\t\n      PUSH EC442F0500000000000000000000000000000000000000000000000000000000\t\t\t\n      DUP2 \t\t\t\n      MSTORE \t\t\t\n      PUSH 4\t\t\t\n      ADD \t\t\t\n      PUSH [tag] 485\t\t\t\n      SWAP2 \t\t\t\n      SWAP1 \t\t\t\n      PUSH [tag] 117\t\t\t\n      JUMP \t\t\t\n    tag 485\t\t\t\n      JUMPDEST \t\t\t\n      PUSH 40\t\t\t\n      MLOAD \t\t\t\n      DUP1 \t\t\t\n      SWAP2 \t\t\t\n      SUB \t\t\t\n      SWAP1 \t\t\t\n      REVERT \t\t\t\n    tag 484\t\t\t\n      JUMPDEST \t\t\t\n      PUSH [tag] 486\t\t\t\n      DUP4 \t\t\t\n      DUP4 \t\t\t\n      DUP4 \t\t\t\n      PUSH [tag] 487\t\t\t\n      JUMP \t\t\t\n    tag 486\t\t\t\n      JUMPDEST \t\t\t\n      POP \t\t\t\n      POP \t\t\t\n      POP \t\t\t\n      JUMP \t\t\t\n    tag 245\t\t\t\n      JUMPDEST \t\t\t\n      PUSH 0\t\t\t\n      PUSH 2DD7BC7DEC4DCEEDDA775E58DD541E08A116C6C53815C0BD028192F7B626800\t\t\t\n      SWAP1 \t\t\t\n      POP \t\t\t\n      SWAP1 \t\t\t\n      JUMP \t\t\t\n    tag 249\t\t\t\n      JUMPDEST \t\t\t\n      PUSH [tag] 490\t\t\t\n      DUP2 \t\t\t\n      PUSH [tag] 491\t\t\t\n      PUSH [tag] 232\t\t\t\n      JUMP \t\t\t\n    tag 491\t\t\t\n      JUMPDEST \t\t\t\n      PUSH [tag] 492\t\t\t\n      JUMP \t\t\t\n    tag 490\t\t\t\n      JUMPDEST \t\t\t\n      POP \t\t\t\n      JUMP \t\t\t\n    tag 252\t\t\t\n      JUMPDEST \t\t\t\n      PUSH 0\t\t\t\n      DUP1 \t\t\t\n      PUSH [tag] 494\t\t\t\n      PUSH [tag] 245\t\t\t\n      JUMP \t\t\t\n    tag 494\t\t\t\n      JUMPDEST \t\t\t\n      SWAP1 \t\t\t\n      POP \t\t\t\n      PUSH [tag] 495\t\t\t\n      DUP5 \t\t\t\n      DUP5 \t\t\t\n      PUSH [tag] 161\t\t\t\n      JUMP \t\t\t\n    tag 495\t\t\t\n      JUMPDEST \t\t\t\n      PUSH [tag] 496\t\t\t\n      JUMPI \t\t\t\n      PUSH 1\t\t\t\n      DUP2 \t\t\t\n      PUSH 0\t\t\t\n      ADD \t\t\t\n      PUSH 0\t\t\t\n      DUP7 \t\t\t\n      DUP2 \t\t\t\n      MSTORE \t\t\t\n      PUSH 20\t\t\t\n      ADD \t\t\t\n      SWAP1 \t\t\t\n      DUP2 \t\t\t\n      MSTORE \t\t\t\n      PUSH 20\t\t\t\n      ADD \t\t\t\n      PUSH 0\t\t\t\n      KECCAK256 \t\t\t\n      PUSH 0\t\t\t\n      ADD \t\t\t\n      PUSH 0\t\t\t\n      DUP6 \t\t\t\n      PUSH FFFFFFFFFFFFFFFFFFFFFFFFFFFFFFFFFFFFFFFF\t\t\t\n      AND \t\t\t\n      PUSH FFFFFFFFFFFFFFFFFFFFFFFFFFFFFFFFFFFFFFFF\t\t\t\n      AND \t\t\t\n      DUP2 \t\t\t\n      MSTORE \t\t\t\n      PUSH 20\t\t\t\n      ADD \t\t\t\n      SWAP1 \t\t\t\n      DUP2 \t\t\t\n      MSTORE \t\t\t\n      PUSH 20\t\t\t\n      ADD \t\t\t\n      PUSH 0\t\t\t\n      KECCAK256 \t\t\t\n      PUSH 0\t\t\t\n      PUSH 100\t\t\t\n      EXP \t\t\t\n      DUP2 \t\t\t\n      SLOAD \t\t\t\n      DUP2 \t\t\t\n      PUSH FF\t\t\t\n      MUL \t\t\t\n      NOT \t\t\t\n      AND \t\t\t\n      SWAP1 \t\t\t\n      DUP4 \t\t\t\n      ISZERO \t\t\t\n      ISZERO \t\t\t\n      MUL \t\t\t\n      OR \t\t\t\n      SWAP1 \t\t\t\n      SSTORE \t\t\t\n      POP \t\t\t\n      PUSH [tag] 497\t\t\t\n      PUSH [tag] 232\t\t\t\n      JUMP \t\t\t\n    tag 497\t\t\t\n      JUMPDEST \t\t\t\n      PUSH FFFFFFFFFFFFFFFFFFFFFFFFFFFFFFFFFFFFFFFF\t\t\t\n      AND \t\t\t\n      DUP4 \t\t\t\n      PUSH FFFFFFFFFFFFFFFFFFFFFFFFFFFFFFFFFFFFFFFF\t\t\t\n      AND \t\t\t\n      DUP6 \t\t\t\n      PUSH 2F8788117E7EFF1D82E926EC794901D17C78024A50270940304540A733656F0D\t\t\t\n      PUSH 40\t\t\t\n      MLOAD \t\t\t\n      PUSH 40\t\t\t\n      MLOAD \t\t\t\n      DUP1 \t\t\t\n      SWAP2 \t\t\t\n      SUB \t\t\t\n      SWAP1 \t\t\t\n      LOG4 \t\t\t\n      PUSH 1\t\t\t\n      SWAP2 \t\t\t\n      POP \t\t\t\n      POP \t\t\t\n      PUSH [tag] 493\t\t\t\n      JUMP \t\t\t\n    tag 496\t\t\t\n      JUMPDEST \t\t\t\n      PUSH 0\t\t\t\n      SWAP2 \t\t\t\n      POP \t\t\t\n      POP \t\t\t\n    tag 493\t\t\t\n      JUMPDEST \t\t\t\n      SWAP3 \t\t\t\n      SWAP2 \t\t\t\n      POP \t\t\t\n      POP \t\t\t\n      JUMP \t\t\t\n    tag 256\t\t\t\n      JUMPDEST \t\t\t\n      PUSH 0\t\t\t\n      PUSH [tag] 500\t\t\t\n      PUSH [tag] 501\t\t\t\n      JUMP \t\t\t\n    tag 500\t\t\t\n      JUMPDEST \t\t\t\n      SWAP1 \t\t\t\n      POP \t\t\t\n      SWAP1 \t\t\t\n      JUMP \t\t\t\n    tag 261\t\t\t\n      JUMPDEST \t\t\t\n      PUSH 0\t\t\t\n      DUP1 \t\t\t\n      PUSH [tag] 503\t\t\t\n      PUSH [tag] 245\t\t\t\n      JUMP \t\t\t\n    tag 503\t\t\t\n      JUMPDEST \t\t\t\n      SWAP1 \t\t\t\n      POP \t\t\t\n      PUSH [tag] 504\t\t\t\n      DUP5 \t\t\t\n      DUP5 \t\t\t\n      PUSH [tag] 161\t\t\t\n      JUMP \t\t\t\n    tag 504\t\t\t\n      JUMPDEST \t\t\t\n      ISZERO \t\t\t\n      PUSH [tag] 505\t\t\t\n      JUMPI \t\t\t\n      PUSH 0\t\t\t\n      DUP2 \t\t\t\n      PUSH 0\t\t\t\n      ADD \t\t\t\n      PUSH 0\t\t\t\n      DUP7 \t\t\t\n      DUP2 \t\t\t\n      MSTORE \t\t\t\n      PUSH 20\t\t\t\n      ADD \t\t\t\n      SWAP1 \t\t\t\n      DUP2 \t\t\t\n      MSTORE \t\t\t\n      PUSH 20\t\t\t\n      ADD \t\t\t\n      PUSH 0\t\t\t\n      KECCAK256 \t\t\t\n      PUSH 0\t\t\t\n      ADD \t\t\t\n      PUSH 0\t\t\t\n      DUP6 \t\t\t\n      PUSH FFFFFFFFFFFFFFFFFFFFFFFFFFFFFFFFFFFFFFFF\t\t\t\n      AND \t\t\t\n      PUSH FFFFFFFFFFFFFFFFFFFFFFFFFFFFFFFFFFFFFFFF\t\t\t\n      AND \t\t\t\n      DUP2 \t\t\t\n      MSTORE \t\t\t\n      PUSH 20\t\t\t\n      ADD \t\t\t\n      SWAP1 \t\t\t\n      DUP2 \t\t\t\n      MSTORE \t\t\t\n      PUSH 20\t\t\t\n      ADD \t\t\t\n      PUSH 0\t\t\t\n      KECCAK256 \t\t\t\n      PUSH 0\t\t\t\n      PUSH 100\t\t\t\n      EXP \t\t\t\n      DUP2 \t\t\t\n      SLOAD \t\t\t\n      DUP2 \t\t\t\n      PUSH FF\t\t\t\n      MUL \t\t\t\n      NOT \t\t\t\n      AND \t\t\t\n      SWAP1 \t\t\t\n      DUP4 \t\t\t\n      ISZERO \t\t\t\n      ISZERO \t\t\t\n      MUL \t\t\t\n      OR \t\t\t\n      SWAP1 \t\t\t\n      SSTORE \t\t\t\n      POP \t\t\t\n      PUSH [tag] 506\t\t\t\n      PUSH [tag] 232\t\t\t\n      JUMP \t\t\t\n    tag 506\t\t\t\n      JUMPDEST \t\t\t\n      PUSH FFFFFFFFFFFFFFFFFFFFFFFFFFFFFFFFFFFFFFFF\t\t\t\n      AND \t\t\t\n      DUP4 \t\t\t\n      PUSH FFFFFFFFFFFFFFFFFFFFFFFFFFFFFFFFFFFFFFFF\t\t\t\n      AND \t\t\t\n      DUP6 \t\t\t\n      PUSH F6391F5C32D9C69D2A47EA670B442974B53935D1EDC7FD64EB21E047A839171B\t\t\t\n      PUSH 40\t\t\t\n      MLOAD \t\t\t\n      PUSH 40\t\t\t\n      MLOAD \t\t\t\n      DUP1 \t\t\t\n      SWAP2 \t\t\t\n      SUB \t\t\t\n      SWAP1 \t\t\t\n      LOG4 \t\t\t\n      PUSH 1\t\t\t\n      SWAP2 \t\t\t\n      POP \t\t\t\n      POP \t\t\t\n      PUSH [tag] 502\t\t\t\n      JUMP \t\t\t\n    tag 505\t\t\t\n      JUMPDEST \t\t\t\n      PUSH 0\t\t\t\n      SWAP2 \t\t\t\n      POP \t\t\t\n      POP \t\t\t\n    tag 502\t\t\t\n      JUMPDEST \t\t\t\n      SWAP3 \t\t\t\n      SWAP2 \t\t\t\n      POP \t\t\t\n      POP \t\t\t\n      JUMP \t\t\t\n    tag 264\t\t\t\n      JUMPDEST \t\t\t\n      PUSH 0\t\t\t\n      PUSH E8B26C30FAD74198956032A3533D903385D56DD795AF560196F9C78D4AF40D00\t\t\t\n      SWAP1 \t\t\t\n      POP \t\t\t\n      SWAP1 \t\t\t\n      JUMP \t\t\t\n    tag 271\t\t\t\n      JUMPDEST \t\t\t\n      PUSH 0\t\t\t\n      PUSH FFFFFFFFFFFF\t\t\t\n      DUP1 \t\t\t\n      AND \t\t\t\n      DUP3 \t\t\t\n      GT \t\t\t\n      ISZERO \t\t\t\n      PUSH [tag] 510\t\t\t\n      JUMPI \t\t\t\n      PUSH 30\t\t\t\n      DUP3 \t\t\t\n      PUSH 40\t\t\t\n      MLOAD \t\t\t\n      PUSH 6DFCC65000000000000000000000000000000000000000000000000000000000\t\t\t\n      DUP2 \t\t\t\n      MSTORE \t\t\t\n      PUSH 4\t\t\t\n      ADD \t\t\t\n      PUSH [tag] 511\t\t\t\n      SWAP3 \t\t\t\n      SWAP2 \t\t\t\n      SWAP1 \t\t\t\n      PUSH [tag] 512\t\t\t\n      JUMP \t\t\t\n    tag 511\t\t\t\n      JUMPDEST \t\t\t\n      PUSH 40\t\t\t\n      MLOAD \t\t\t\n      DUP1 \t\t\t\n      SWAP2 \t\t\t\n      SUB \t\t\t\n      SWAP1 \t\t\t\n      REVERT \t\t\t\n    tag 510\t\t\t\n      JUMPDEST \t\t\t\n      DUP2 \t\t\t\n      SWAP1 \t\t\t\n      POP \t\t\t\n      SWAP2 \t\t\t\n      SWAP1 \t\t\t\n      POP \t\t\t\n      JUMP \t\t\t\n    tag 272\t\t\t\n      JUMPDEST \t\t\t\n      PUSH 0\t\t\t\n      DUP1 \t\t\t\n      DUP4 \t\t\t\n      PUSH 0\t\t\t\n      ADD \t\t\t\n      DUP1 \t\t\t\n      SLOAD \t\t\t\n      SWAP1 \t\t\t\n      POP \t\t\t\n      SWAP1 \t\t\t\n      POP \t\t\t\n      PUSH 0\t\t\t\n      DUP1 \t\t\t\n      DUP3 \t\t\t\n      SWAP1 \t\t\t\n      POP \t\t\t\n      PUSH 5\t\t\t\n      DUP4 \t\t\t\n      GT \t\t\t\n      ISZERO \t\t\t\n      PUSH [tag] 514\t\t\t\n      JUMPI \t\t\t\n      PUSH 0\t\t\t\n      PUSH [tag] 515\t\t\t\n      DUP5 \t\t\t\n      PUSH [tag] 516\t\t\t\n      JUMP \t\t\t\n    tag 515\t\t\t\n      JUMPDEST \t\t\t\n      DUP5 \t\t\t\n      PUSH [tag] 517\t\t\t\n      SWAP2 \t\t\t\n      SWAP1 \t\t\t\n      PUSH [tag] 333\t\t\t\n      JUMP \t\t\t\n    tag 517\t\t\t\n      JUMPDEST \t\t\t\n      SWAP1 \t\t\t\n      POP \t\t\t\n      PUSH [tag] 518\t\t\t\n      DUP8 \t\t\t\n      PUSH 0\t\t\t\n      ADD \t\t\t\n      DUP3 \t\t\t\n      PUSH [tag] 519\t\t\t\n      JUMP \t\t\t\n    tag 518\t\t\t\n      JUMPDEST \t\t\t\n      PUSH 0\t\t\t\n      ADD \t\t\t\n      PUSH 0\t\t\t\n      SWAP1 \t\t\t\n      SLOAD \t\t\t\n      SWAP1 \t\t\t\n      PUSH 100\t\t\t\n      EXP \t\t\t\n      SWAP1 \t\t\t\n      DIV \t\t\t\n      PUSH FFFFFFFFFFFF\t\t\t\n      AND \t\t\t\n      PUSH FFFFFFFFFFFF\t\t\t\n      AND \t\t\t\n      DUP7 \t\t\t\n      PUSH FFFFFFFFFFFF\t\t\t\n      AND \t\t\t\n      LT \t\t\t\n      ISZERO \t\t\t\n      PUSH [tag] 520\t\t\t\n      JUMPI \t\t\t\n      DUP1 \t\t\t\n      SWAP2 \t\t\t\n      POP \t\t\t\n      PUSH [tag] 521\t\t\t\n      JUMP \t\t\t\n    tag 520\t\t\t\n      JUMPDEST \t\t\t\n      PUSH 1\t\t\t\n      DUP2 \t\t\t\n      PUSH [tag] 522\t\t\t\n      SWAP2 \t\t\t\n      SWAP1 \t\t\t\n      PUSH [tag] 320\t\t\t\n      JUMP \t\t\t\n    tag 522\t\t\t\n      JUMPDEST \t\t\t\n      SWAP3 \t\t\t\n      POP \t\t\t\n    tag 521\t\t\t\n      JUMPDEST \t\t\t\n      POP \t\t\t\n    tag 514\t\t\t\n      JUMPDEST \t\t\t\n      PUSH 0\t\t\t\n      PUSH [tag] 523\t\t\t\n      DUP8 \t\t\t\n      PUSH 0\t\t\t\n      ADD \t\t\t\n      DUP8 \t\t\t\n      DUP6 \t\t\t\n      DUP6 \t\t\t\n      PUSH [tag] 524\t\t\t\n      JUMP \t\t\t\n    tag 523\t\t\t\n      JUMPDEST \t\t\t\n      SWAP1 \t\t\t\n      POP \t\t\t\n      PUSH 0\t\t\t\n      DUP2 \t\t\t\n      EQ \t\t\t\n      PUSH [tag] 525\t\t\t\n      JUMPI \t\t\t\n      PUSH [tag] 526\t\t\t\n      DUP8 \t\t\t\n      PUSH 0\t\t\t\n      ADD \t\t\t\n      PUSH 1\t\t\t\n      DUP4 \t\t\t\n      PUSH [tag] 527\t\t\t\n      SWAP2 \t\t\t\n      SWAP1 \t\t\t\n      PUSH [tag] 333\t\t\t\n      JUMP \t\t\t\n    tag 527\t\t\t\n      JUMPDEST \t\t\t\n      PUSH [tag] 519\t\t\t\n      JUMP \t\t\t\n    tag 526\t\t\t\n      JUMPDEST \t\t\t\n      PUSH 0\t\t\t\n      ADD \t\t\t\n      PUSH 6\t\t\t\n      SWAP1 \t\t\t\n      SLOAD \t\t\t\n      SWAP1 \t\t\t\n      PUSH 100\t\t\t\n      EXP \t\t\t\n      SWAP1 \t\t\t\n      DIV \t\t\t\n      PUSH FFFFFFFFFFFFFFFFFFFFFFFFFFFFFFFFFFFFFFFFFFFFFFFFFFFF\t\t\t\n      AND \t\t\t\n      PUSH [tag] 528\t\t\t\n      JUMP \t\t\t\n    tag 525\t\t\t\n      JUMPDEST \t\t\t\n      PUSH 0\t\t\t\n    tag 528\t\t\t\n      JUMPDEST \t\t\t\n      SWAP5 \t\t\t\n      POP \t\t\t\n      POP \t\t\t\n      POP \t\t\t\n      POP \t\t\t\n      POP \t\t\t\n      SWAP3 \t\t\t\n      SWAP2 \t\t\t\n      POP \t\t\t\n      POP \t\t\t\n      JUMP \t\t\t\n    tag 277\t\t\t\n      JUMPDEST \t\t\t\n      PUSH [tag] 530\t\t\ts (uint256)\\n    \n      PUSH [tag] 531\t\t\ts (uint256)\\n  \n      JUMP \t\t\ts (uint256)\\n    \n    tag 530\t\t\ts (uint256)\\n    \n      JUMPDEST \t\t\ts (uint256)\\n    \n      PUSH 0\t\t\t\n      PUSH [tag] 533\t\t\t\n      PUSH [tag] 300\t\t\t\n      JUMP \t\t\t\n    tag 533\t\t\t\n      JUMPDEST \t\t\t\n      SWAP1 \t\t\t\n      POP \t\t\t\n      PUSH 0\t\t\t\n      DUP2 \t\t\t\n      PUSH 0\t\t\t\n      ADD \t\t\t\n      PUSH 0\t\t\t\n      PUSH 100\t\t\t\n      EXP \t\t\t\n      DUP2 \t\t\t\n      SLOAD \t\t\t\n      DUP2 \t\t\t\n      PUSH FF\t\t\t\n      MUL \t\t\t\n      NOT \t\t\t\n      AND \t\t\t\n      SWAP1 \t\t\t\n      DUP4 \t\t\t\n      ISZERO \t\t\t\n      ISZERO \t\t\t\n      MUL \t\t\t\n      OR \t\t\t\n      SWAP1 \t\t\t\n      SSTORE \t\t\t\n      POP \t\t\t\n      PUSH 5DB9EE0A495BF2E6FF9C91A7834C1BA4FDD244A5E8AA4E537BD38AEAE4B073AA\t\t\t\n      PUSH [tag] 534\t\t\t\n      PUSH [tag] 232\t\t\t\n      JUMP \t\t\t\n    tag 534\t\t\t\n      JUMPDEST \t\t\t\n      PUSH 40\t\t\t\n      MLOAD \t\t\t\n      PUSH [tag] 535\t\t\t\n      SWAP2 \t\t\t\n      SWAP1 \t\t\t\n      PUSH [tag] 117\t\t\t\n      JUMP \t\t\t\n    tag 535\t\t\t\n      JUMPDEST \t\t\t\n      PUSH 40\t\t\t\n      MLOAD \t\t\t\n      DUP1 \t\t\t\n      SWAP2 \t\t\t\n      SUB \t\t\t\n      SWAP1 \t\t\t\n      LOG1 \t\t\t\n      POP \t\t\t\n      JUMP \t\t\t\n    tag 282\t\t\t\n      JUMPDEST \t\t\t\n      PUSH 0\t\t\t\n      PUSH FFFFFFFFFFFFFFFFFFFFFFFFFFFFFFFFFFFFFFFF\t\t\t\n      AND \t\t\t\n      DUP3 \t\t\t\n      PUSH FFFFFFFFFFFFFFFFFFFFFFFFFFFFFFFFFFFFFFFF\t\t\t\n      AND \t\t\t\n      SUB \t\t\t\n      PUSH [tag] 537\t\t\t\n      JUMPI \t\t\t\n      PUSH 0\t\t\t\n      PUSH 40\t\t\t\n      MLOAD \t\t\t\n      PUSH EC442F0500000000000000000000000000000000000000000000000000000000\t\t\t\n      DUP2 \t\t\t\n      MSTORE \t\t\t\n      PUSH 4\t\t\t\n      ADD \t\t\t\n      PUSH [tag] 538\t\t\t\n      SWAP2 \t\t\t\n      SWAP1 \t\t\t\n      PUSH [tag] 117\t\t\t\n      JUMP \t\t\t\n    tag 538\t\t\t\n      JUMPDEST \t\t\t\n      PUSH 40\t\t\t\n      MLOAD \t\t\t\n      DUP1 \t\t\t\n      SWAP2 \t\t\t\n      SUB \t\t\t\n      SWAP1 \t\t\t\n      REVERT \t\t\t\n    tag 537\t\t\t\n      JUMPDEST \t\t\t\n      PUSH [tag] 539\t\t\t\n      PUSH 0\t\t\t\n      DUP4 \t\t\t\n      DUP4 \t\t\t\n      PUSH [tag] 487\t\t\t\n      JUMP \t\t\t\n    tag 539\t\t\t\n      JUMPDEST \t\t\t\n      POP \t\t\t\n      POP \t\t\t\n      JUMP \t\t\t\n    tag 286\t\t\t\n      JUMPDEST \t\t\t\n      PUSH 0\t\t\t\n      PUSH FFFFFFFFFFFFFFFFFFFFFFFFFFFFFFFFFFFFFFFF\t\t\t\n      AND \t\t\t\n      DUP3 \t\t\t\n      PUSH FFFFFFFFFFFFFFFFFFFFFFFFFFFFFFFFFFFFFFFF\t\t\t\n      AND \t\t\t\n      SUB \t\t\t\n      PUSH [tag] 541\t\t\t\n      JUMPI \t\t\t\n      PUSH 0\t\t\t\n      PUSH 40\t\t\t\n      MLOAD \t\t\t\n      PUSH 96C6FD1E00000000000000000000000000000000000000000000000000000000\t\t\t\n      DUP2 \t\t\t\n      MSTORE \t\t\t\n      PUSH 4\t\t\t\n      ADD \t\t\t\n      PUSH [tag] 542\t\t\t\n      SWAP2 \t\t\t\n      SWAP1 \t\t\t\n      PUSH [tag] 117\t\t\t\n      JUMP \t\t\t\n    tag 542\t\t\t\n      JUMPDEST \t\t\t\n      PUSH 40\t\t\t\n      MLOAD \t\t\t\n      DUP1 \t\t\t\n      SWAP2 \t\t\t\n      SUB \t\t\t\n      SWAP1 \t\t\t\n      REVERT \t\t\t\n    tag 541\t\t\t\n      JUMPDEST \t\t\t\n      PUSH [tag] 543\t\t\t\n      DUP3 \t\t\t\n      PUSH 0\t\t\t\n      DUP4 \t\t\t\n      PUSH [tag] 487\t\t\t\n      JUMP \t\t\t\n    tag 543\t\t\t\n      JUMPDEST \t\t\t\n      POP \t\t\t\n      POP \t\t\t\n      JUMP \t\t\t\n    tag 289\t\t\tERC20BurnableUpgradeable, ERC2...\n      JUMPDEST \t\t\tERC20BurnableUpgradeable, ERC2...\n      PUSH 0\t\t\table, \n      PUSH [tag] 545\t\t\teable, ERC20PermitUpgradeable,...\n      NUMBER \t\t\tUpgradeable,\n      PUSH [tag] 271\t\t\teable, ERC20Permi\n      JUMP \t\t\teable, ERC20PermitUpgradeable,...\n    tag 545\t\t\teable, ERC20PermitUpgradeable,...\n      JUMPDEST \t\t\teable, ERC20PermitUpgradeable,...\n      SWAP1 \t\t\tlUpgradeable, ERC20PermitUpgra...\n      POP \t\t\tlUpgradeable, ERC20PermitUpgra...\n      SWAP1 \t\t\tERC20BurnableUpgradeable, ERC2...\n      JUMP \t\t\tERC20BurnableUpgradeable, ERC2...\n    tag 297\t\t\t\n      JUMPDEST \t\t\t\n      PUSH 0\t\t\t\n      PUSH [tag] 547\t\t\t\n      PUSH [tag] 264\t\t\t\n      JUMP \t\t\t\n    tag 547\t\t\t\n      JUMPDEST \t\t\t\n      SWAP1 \t\t\t\n      POP \t\t\t\n      PUSH 0\t\t\t\n      PUSH [tag] 548\t\t\t\n      DUP5 \t\t\t\n      PUSH [tag] 115\t\t\t\n      JUMP \t\t\t\n    tag 548\t\t\t\n      JUMPDEST \t\t\t\n      SWAP1 \t\t\t\n      POP \t\t\t\n      DUP3 \t\t\t\n      DUP3 \t\t\t\n      PUSH 0\t\t\t\n      ADD \t\t\t\n      PUSH 0\t\t\t\n      DUP7 \t\t\t\n      PUSH FFFFFFFFFFFFFFFFFFFFFFFFFFFFFFFFFFFFFFFF\t\t\t\n      AND \t\t\t\n      PUSH FFFFFFFFFFFFFFFFFFFFFFFFFFFFFFFFFFFFFFFF\t\t\t\n      AND \t\t\t\n      DUP2 \t\t\t\n      MSTORE \t\t\t\n      PUSH 20\t\t\t\n      ADD \t\t\t\n      SWAP1 \t\t\t\n      DUP2 \t\t\t\n      MSTORE \t\t\t\n      PUSH 20\t\t\t\n      ADD \t\t\t\n      PUSH 0\t\t\t\n      KECCAK256 \t\t\t\n      PUSH 0\t\t\t\n      PUSH 100\t\t\t\n      EXP \t\t\t\n      DUP2 \t\t\t\n      SLOAD \t\t\t\n      DUP2 \t\t\t\n      PUSH FFFFFFFFFFFFFFFFFFFFFFFFFFFFFFFFFFFFFFFF\t\t\t\n      MUL \t\t\t\n      NOT \t\t\t\n      AND \t\t\t\n      SWAP1 \t\t\t\n      DUP4 \t\t\t\n      PUSH FFFFFFFFFFFFFFFFFFFFFFFFFFFFFFFFFFFFFFFF\t\t\t\n      AND \t\t\t\n      MUL \t\t\t\n      OR \t\t\t\n      SWAP1 \t\t\t\n      SSTORE \t\t\t\n      POP \t\t\t\n      DUP3 \t\t\t\n      PUSH FFFFFFFFFFFFFFFFFFFFFFFFFFFFFFFFFFFFFFFF\t\t\t\n      AND \t\t\t\n      DUP2 \t\t\t\n      PUSH FFFFFFFFFFFFFFFFFFFFFFFFFFFFFFFFFFFFFFFF\t\t\t\n      AND \t\t\t\n      DUP6 \t\t\t\n      PUSH FFFFFFFFFFFFFFFFFFFFFFFFFFFFFFFFFFFFFFFF\t\t\t\n      AND \t\t\t\n      PUSH 3134E8A2E6D97E929A7E54011EA5485D7D196DD5F0BA4D4EF95803E8E3FC257F\t\t\t\n      PUSH 40\t\t\t\n      MLOAD \t\t\t\n      PUSH 40\t\t\t\n      MLOAD \t\t\t\n      DUP1 \t\t\t\n      SWAP2 \t\t\t\n      SUB \t\t\t\n      SWAP1 \t\t\t\n      LOG4 \t\t\t\n      PUSH [tag] 549\t\t\t\n      DUP2 \t\t\t\n      DUP5 \t\t\t\n      PUSH [tag] 550\t\t\t\n      DUP8 \t\t\t\n      PUSH [tag] 551\t\t\t\n      JUMP \t\t\t\n    tag 550\t\t\t\n      JUMPDEST \t\t\t\n      PUSH [tag] 552\t\t\t\n      JUMP \t\t\t\n    tag 549\t\t\t\n      JUMPDEST \t\t\t\n      POP \t\t\t\n      POP \t\t\t\n      POP \t\t\t\n      POP \t\t\t\n      JUMP \t\t\t\n    tag 300\t\t\tE\");\\n    bytes32 public const...\n      JUMPDEST \t\t\tE\");\\n    bytes32 public const...\n      PUSH 0\t\t\t256(\"MINTER_ROLE\");\\n\\n    \n      PUSH CD5ED15C6E187E77E9AEE88184C21F4F2182AB5827CB3B7E07FBEDCD63F03300\t\t\ttor\\n    constructor() {\n      SWAP1 \t\t\tw constructor\\n    constructor...\n      POP \t\t\tw constructor\\n    constructor...\n      SWAP1 \t\t\tE\");\\n    bytes32 public const...\n      JUMP \t\t\tE\");\\n    bytes32 public const...\n    tag 317\t\t\t\n      JUMPDEST \t\t\t\n      PUSH 0\t\t\t\n      SWAP1 \t\t\t\n      JUMP \t\t\t\n    tag 336\t\t\t\n      JUMPDEST \t\t\t\n      PUSH 0\t\t\t\n      DUP1 \t\t\t\n      PUSH [tag] 556\t\t\t\n      PUSH [tag] 264\t\t\t\n      JUMP \t\t\t\n    tag 556\t\t\t\n      JUMPDEST \t\t\t\n      SWAP1 \t\t\t\n      POP \t\t\t\n      PUSH [tag] 557\t\t\t\n      PUSH [tag] 558\t\t\t\n      DUP3 \t\t\t\n      PUSH 1\t\t\t\n      ADD \t\t\t\n      PUSH 0\t\t\t\n      DUP7 \t\t\t\n      PUSH FFFFFFFFFFFFFFFFFFFFFFFFFFFFFFFFFFFFFFFF\t\t\t\n      AND \t\t\t\n      PUSH FFFFFFFFFFFFFFFFFFFFFFFFFFFFFFFFFFFFFFFF\t\t\t\n      AND \t\t\t\n      DUP2 \t\t\t\n      MSTORE \t\t\t\n      PUSH 20\t\t\t\n      ADD \t\t\t\n      SWAP1 \t\t\t\n      DUP2 \t\t\t\n      MSTORE \t\t\t\n      PUSH 20\t\t\t\n      ADD \t\t\t\n      PUSH 0\t\t\t\n      KECCAK256 \t\t\t\n      PUSH [tag] 559\t\t\t\n      JUMP \t\t\t\n    tag 558\t\t\t\n      JUMPDEST \t\t\t\n      PUSH [tag] 560\t\t\t\n      JUMP \t\t\t\n    tag 557\t\t\t\n      JUMPDEST \t\t\t\n      SWAP2 \t\t\t\n      POP \t\t\t\n      POP \t\t\t\n      SWAP2 \t\t\t\n      SWAP1 \t\t\t\n      POP \t\t\t\n      JUMP \t\t\t\n    tag 345\t\t\t\n      JUMPDEST \t\t\t\n      PUSH 0\t\t\t\n      PUSH [tag] 562\t\t\t\n      DUP3 \t\t\t\n      PUSH [tag] 563\t\t\t\n      JUMP \t\t\t\n    tag 562\t\t\t\n      JUMPDEST \t\t\t\n      SWAP1 \t\t\t\n      POP \t\t\t\n      SWAP2 \t\t\t\n      SWAP1 \t\t\t\n      POP \t\t\t\n      JUMP \t\t\t\n    tag 350\t\t\t\n      JUMPDEST \t\t\t\n      PUSH [tag] 565\t\t\tdeable, ERC20Pausab\n      PUSH [tag] 566\t\t\tdeable, ERC20Paus\n      JUMP \t\t\tdeable, ERC20Pausab\n    tag 565\t\t\tdeable, ERC20Pausab\n      JUMPDEST \t\t\tdeable, ERC20Pausab\n      PUSH 0\t\t\t\n      PUSH [tag] 568\t\t\t\n      PUSH [tag] 300\t\t\t\n      JUMP \t\t\t\n    tag 568\t\t\t\n      JUMPDEST \t\t\t\n      SWAP1 \t\t\t\n      POP \t\t\t\n      PUSH 1\t\t\t\n      DUP2 \t\t\t\n      PUSH 0\t\t\t\n      ADD \t\t\t\n      PUSH 0\t\t\t\n      PUSH 100\t\t\t\n      EXP \t\t\t\n      DUP2 \t\t\t\n      SLOAD \t\t\t\n      DUP2 \t\t\t\n      PUSH FF\t\t\t\n      MUL \t\t\t\n      NOT \t\t\t\n      AND \t\t\t\n      SWAP1 \t\t\t\n      DUP4 \t\t\t\n      ISZERO \t\t\t\n      ISZERO \t\t\t\n      MUL \t\t\t\n      OR \t\t\t\n      SWAP1 \t\t\t\n      SSTORE \t\t\t\n      POP \t\t\t\n      PUSH 62E78CEA01BEE320CD4E420270B5EA74000D11B0C9F74754EBDBFC544B05A258\t\t\t\n      PUSH [tag] 569\t\t\t\n      PUSH [tag] 232\t\t\t\n      JUMP \t\t\t\n    tag 569\t\t\t\n      JUMPDEST \t\t\t\n      PUSH 40\t\t\t\n      MLOAD \t\t\t\n      PUSH [tag] 570\t\t\t\n      SWAP2 \t\t\t\n      SWAP1 \t\t\t\n      PUSH [tag] 117\t\t\t\n      JUMP \t\t\t\n    tag 570\t\t\t\n      JUMPDEST \t\t\t\n      PUSH 40\t\t\t\n      MLOAD \t\t\t\n      DUP1 \t\t\t\n      SWAP2 \t\t\t\n      SUB \t\t\t\n      SWAP1 \t\t\t\n      LOG1 \t\t\t\n      POP \t\t\t\n      JUMP \t\t\t\n    tag 353\t\t\t\n      JUMPDEST \t\t\t\n      PUSH 0\t\t\t\n      PUSH A16A46D94261C7517CC8FF89F61C0CE93598E3C849801011DEE649A6A557D100\t\t\t\n      SWAP1 \t\t\t\n      POP \t\t\t\n      SWAP1 \t\t\t\n      JUMP \t\t\t\n    tag 359\t\t\t\n      JUMPDEST \t\t\t\n      PUSH 60\t\t\t\n      PUSH 0\t\t\t\n      PUSH [tag] 573\t\t\t\n      PUSH [tag] 353\t\t\t\n      JUMP \t\t\t\n    tag 573\t\t\t\n      JUMPDEST \t\t\t\n      SWAP1 \t\t\t\n      POP \t\t\t\n      DUP1 \t\t\t\n      PUSH 2\t\t\t\n      ADD \t\t\t\n      DUP1 \t\t\t\n      SLOAD \t\t\t\n      PUSH [tag] 574\t\t\t\n      SWAP1 \t\t\t\n      PUSH [tag] 225\t\t\t\n      JUMP \t\t\t\n    tag 574\t\t\t\n      JUMPDEST \t\t\t\n      DUP1 \t\t\t\n      PUSH 1F\t\t\t\n      ADD \t\t\t\n      PUSH 20\t\t\t\n      DUP1 \t\t\t\n      SWAP2 \t\t\t\n      DIV \t\t\t\n      MUL \t\t\t\n      PUSH 20\t\t\t\n      ADD \t\t\t\n      PUSH 40\t\t\t\n      MLOAD \t\t\t\n      SWAP1 \t\t\t\n      DUP2 \t\t\t\n      ADD \t\t\t\n      PUSH 40\t\t\t\n      MSTORE \t\t\t\n      DUP1 \t\t\t\n      SWAP3 \t\t\t\n      SWAP2 \t\t\t\n      SWAP1 \t\t\t\n      DUP2 \t\t\t\n      DUP2 \t\t\t\n      MSTORE \t\t\t\n      PUSH 20\t\t\t\n      ADD \t\t\t\n      DUP3 \t\t\t\n      DUP1 \t\t\t\n      SLOAD \t\t\t\n      PUSH [tag] 575\t\t\t\n      SWAP1 \t\t\t\n      PUSH [tag] 225\t\t\t\n      JUMP \t\t\t\n    tag 575\t\t\t\n      JUMPDEST \t\t\t\n      DUP1 \t\t\t\n      ISZERO \t\t\t\n      PUSH [tag] 576\t\t\t\n      JUMPI \t\t\t\n      DUP1 \t\t\t\n      PUSH 1F\t\t\t\n      LT \t\t\t\n      PUSH [tag] 577\t\t\t\n      JUMPI \t\t\t\n      PUSH 100\t\t\t\n      DUP1 \t\t\t\n      DUP4 \t\t\t\n      SLOAD \t\t\t\n      DIV \t\t\t\n      MUL \t\t\t\n      DUP4 \t\t\t\n      MSTORE \t\t\t\n      SWAP2 \t\t\t\n      PUSH 20\t\t\t\n      ADD \t\t\t\n      SWAP2 \t\t\t\n      PUSH [tag] 576\t\t\t\n      JUMP \t\t\t\n    tag 577\t\t\t\n      JUMPDEST \t\t\t\n      DUP3 \t\t\t\n      ADD \t\t\t\n      SWAP2 \t\t\t\n      SWAP1 \t\t\t\n      PUSH 0\t\t\t\n      MSTORE \t\t\t\n      PUSH 20\t\t\t\n      PUSH 0\t\t\t\n      KECCAK256 \t\t\t\n      SWAP1 \t\t\t\n    tag 578\t\t\t\n      JUMPDEST \t\t\t\n      DUP2 \t\t\t\n      SLOAD \t\t\t\n      DUP2 \t\t\t\n      MSTORE \t\t\t\n      SWAP1 \t\t\t\n      PUSH 1\t\t\t\n      ADD \t\t\t\n      SWAP1 \t\t\t\n      PUSH 20\t\t\t\n      ADD \t\t\t\n      DUP1 \t\t\t\n      DUP4 \t\t\t\n      GT \t\t\t\n      PUSH [tag] 578\t\t\t\n      JUMPI \t\t\t\n      DUP3 \t\t\t\n      SWAP1 \t\t\t\n      SUB \t\t\t\n      PUSH 1F\t\t\t\n      AND \t\t\t\n      DUP3 \t\t\t\n      ADD \t\t\t\n      SWAP2 \t\t\t\n    tag 576\t\t\t\n      JUMPDEST \t\t\t\n      POP \t\t\t\n      POP \t\t\t\n      POP \t\t\t\n      POP \t\t\t\n      POP \t\t\t\n      SWAP2 \t\t\t\n      POP \t\t\t\n      POP \t\t\t\n      SWAP1 \t\t\t\n      JUMP \t\t\t\n    tag 361\t\t\t\n      JUMPDEST \t\t\t\n      PUSH 60\t\t\t\n      PUSH 0\t\t\t\n      PUSH [tag] 580\t\t\t\n      PUSH [tag] 353\t\t\t\n      JUMP \t\t\t\n    tag 580\t\t\t\n      JUMPDEST \t\t\t\n      SWAP1 \t\t\t\n      POP \t\t\t\n      DUP1 \t\t\t\n      PUSH 3\t\t\t\n      ADD \t\t\t\n      DUP1 \t\t\t\n      SLOAD \t\t\t\n      PUSH [tag] 581\t\t\t\n      SWAP1 \t\t\t\n      PUSH [tag] 225\t\t\t\n      JUMP \t\t\t\n    tag 581\t\t\t\n      JUMPDEST \t\t\t\n      DUP1 \t\t\t\n      PUSH 1F\t\t\t\n      ADD \t\t\t\n      PUSH 20\t\t\t\n      DUP1 \t\t\t\n      SWAP2 \t\t\t\n      DIV \t\t\t\n      MUL \t\t\t\n      PUSH 20\t\t\t\n      ADD \t\t\t\n      PUSH 40\t\t\t\n      MLOAD \t\t\t\n      SWAP1 \t\t\t\n      DUP2 \t\t\t\n      ADD \t\t\t\n      PUSH 40\t\t\t\n      MSTORE \t\t\t\n      DUP1 \t\t\t\n      SWAP3 \t\t\t\n      SWAP2 \t\t\t\n      SWAP1 \t\t\t\n      DUP2 \t\t\t\n      DUP2 \t\t\t\n      MSTORE \t\t\t\n      PUSH 20\t\t\t\n      ADD \t\t\t\n      DUP3 \t\t\t\n      DUP1 \t\t\t\n      SLOAD \t\t\t\n      PUSH [tag] 582\t\t\t\n      SWAP1 \t\t\t\n      PUSH [tag] 225\t\t\t\n      JUMP \t\t\t\n    tag 582\t\t\t\n      JUMPDEST \t\t\t\n      DUP1 \t\t\t\n      ISZERO \t\t\t\n      PUSH [tag] 583\t\t\t\n      JUMPI \t\t\t\n      DUP1 \t\t\t\n      PUSH 1F\t\t\t\n      LT \t\t\t\n      PUSH [tag] 584\t\t\t\n      JUMPI \t\t\t\n      PUSH 100\t\t\t\n      DUP1 \t\t\t\n      DUP4 \t\t\t\n      SLOAD \t\t\t\n      DIV \t\t\t\n      MUL \t\t\t\n      DUP4 \t\t\t\n      MSTORE \t\t\t\n      SWAP2 \t\t\t\n      PUSH 20\t\t\t\n      ADD \t\t\t\n      SWAP2 \t\t\t\n      PUSH [tag] 583\t\t\t\n      JUMP \t\t\t\n    tag 584\t\t\t\n      JUMPDEST \t\t\t\n      DUP3 \t\t\t\n      ADD \t\t\t\n      SWAP2 \t\t\t\n      SWAP1 \t\t\t\n      PUSH 0\t\t\t\n      MSTORE \t\t\t\n      PUSH 20\t\t\t\n      PUSH 0\t\t\t\n      KECCAK256 \t\t\t\n      SWAP1 \t\t\t\n    tag 585\t\t\t\n      JUMPDEST \t\t\t\n      DUP2 \t\t\t\n      SLOAD \t\t\t\n      DUP2 \t\t\t\n      MSTORE \t\t\t\n      SWAP1 \t\t\t\n      PUSH 1\t\t\t\n      ADD \t\t\t\n      SWAP1 \t\t\t\n      PUSH 20\t\t\t\n      ADD \t\t\t\n      DUP1 \t\t\t\n      DUP4 \t\t\t\n      GT \t\t\t\n      PUSH [tag] 585\t\t\t\n      JUMPI \t\t\t\n      DUP3 \t\t\t\n      SWAP1 \t\t\t\n      SUB \t\t\t\n      PUSH 1F\t\t\t\n      AND \t\t\t\n      DUP3 \t\t\t\n      ADD \t\t\t\n      SWAP2 \t\t\t\n    tag 583\t\t\t\n      JUMPDEST \t\t\t\n      POP \t\t\t\n      POP \t\t\t\n      POP \t\t\t\n      POP \t\t\t\n      POP \t\t\t\n      SWAP2 \t\t\t\n      POP \t\t\t\n      POP \t\t\t\n      SWAP1 \t\t\t\n      JUMP \t\t\t\n    tag 387\t\t\t\n      JUMPDEST \t\t\t\n      PUSH 0\t\t\t\n      DUP1 \t\t\t\n      DUP3 \t\t\t\n      PUSH 0\t\t\t\n      ADD \t\t\t\n      DUP1 \t\t\t\n      SLOAD \t\t\t\n      SWAP1 \t\t\t\n      POP \t\t\t\n      SWAP1 \t\t\t\n      POP \t\t\t\n      PUSH 0\t\t\t\n      DUP2 \t\t\t\n      EQ \t\t\t\n      PUSH [tag] 587\t\t\t\n      JUMPI \t\t\t\n      PUSH [tag] 588\t\t\t\n      DUP4 \t\t\t\n      PUSH 0\t\t\t\n      ADD \t\t\t\n      PUSH 1\t\t\t\n      DUP4 \t\t\t\n      PUSH [tag] 589\t\t\t\n      SWAP2 \t\t\t\n      SWAP1 \t\t\t\n      PUSH [tag] 333\t\t\t\n      JUMP \t\t\t\n    tag 589\t\t\t\n      JUMPDEST \t\t\t\n      PUSH [tag] 519\t\t\t\n      JUMP \t\t\t\n    tag 588\t\t\t\n      JUMPDEST \t\t\t\n      PUSH 0\t\t\t\n      ADD \t\t\t\n      PUSH 6\t\t\t\n      SWAP1 \t\t\t\n      SLOAD \t\t\t\n      SWAP1 \t\t\t\n      PUSH 100\t\t\t\n      EXP \t\t\t\n      SWAP1 \t\t\t\n      DIV \t\t\t\n      PUSH FFFFFFFFFFFFFFFFFFFFFFFFFFFFFFFFFFFFFFFFFFFFFFFFFFFF\t\t\t\n      AND \t\t\t\n      PUSH [tag] 590\t\t\t\n      JUMP \t\t\t\n    tag 587\t\t\t\n      JUMPDEST \t\t\t\n      PUSH 0\t\t\t\n    tag 590\t\t\t\n      JUMPDEST \t\t\t\n      SWAP2 \t\t\t\n      POP \t\t\t\n      POP \t\t\t\n      SWAP2 \t\t\t\n      SWAP1 \t\t\t\n      POP \t\t\t\n      JUMP \t\t\t\n    tag 393\t\t\t\n      JUMPDEST \t\t\t\n      PUSH 0\t\t\t\n      PUSH F0C57E16840DF040F15088DC2F81FE391C3923BEC73E23A9662EFC9C229C6A00\t\t\t\n      SWAP1 \t\t\t\n      POP \t\t\t\n      SWAP1 \t\t\t\n      JUMP \t\t\t\n    tag 401\t\t\t  {\\n        return super.nonc...\n      JUMPDEST \t\t\t  {\\n        return super.nonc...\n      PUSH [tag] 593\t\t\t\n      PUSH [tag] 594\t\t\t\n      JUMP \t\t\t\n    tag 593\t\t\t\n      JUMPDEST \t\t\t\n      PUSH [tag] 596\t\t\t\n      DUP3 \t\t\t\n      DUP3 \t\t\t\n      PUSH [tag] 597\t\t\t\n      JUMP \t\t\t\n    tag 596\t\t\t\n      JUMPDEST \t\t\t\n      POP \t\t\t  {\\n        return super.nonc...\n      POP \t\t\t  {\\n        return super.nonc...\n      JUMP \t\t\t  {\\n        return super.nonc...\n    tag 403\t\t\tntracts-upgradeable@5.0.0/toke...\n      JUMPDEST \t\t\tntracts-upgradeable@5.0.0/toke...\n      PUSH [tag] 599\t\t\t\n      PUSH [tag] 594\t\t\t\n      JUMP \t\t\t\n    tag 599\t\t\t\n      JUMPDEST \t\t\t\n      JUMP \t\t\tntracts-upgradeable@5.0.0/toke...\n    tag 405\t\t\t\");\\n    bytes32 public consta...\n      JUMPDEST \t\t\t\");\\n    bytes32 public consta...\n      PUSH [tag] 602\t\t\t\n      PUSH [tag] 594\t\t\t\n      JUMP \t\t\t\n    tag 602\t\t\t\n      JUMPDEST \t\t\t\n      PUSH [tag] 604\t\t\t\");\\n\\n    /// @custom:oz-upg\n      PUSH [tag] 605\t\t\t\");\\n\\n    /// @custom:oz-u\n      JUMP \t\t\t\");\\n\\n    /// @custom:oz-upg\n    tag 604\t\t\t\");\\n\\n    /// @custom:oz-upg\n      JUMPDEST \t\t\t\");\\n\\n    /// @custom:oz-upg\n      JUMP \t\t\t\");\\n    bytes32 public consta...\n    tag 407\t\t\t\n      JUMPDEST \t\t\t\n      PUSH [tag] 607\t\t\t\n      PUSH [tag] 594\t\t\t\n      JUMP \t\t\t\n    tag 607\t\t\t\n      JUMPDEST \t\t\t\n      JUMP \t\t\t\n    tag 409\t\t\t    _grantRole(MINTER_ROLE, mi...\n      JUMPDEST \t\t\t    _grantRole(MINTER_ROLE, mi...\n      PUSH [tag] 610\t\t\t\n      PUSH [tag] 594\t\t\t\n      JUMP \t\t\t\n    tag 610\t\t\t\n      JUMPDEST \t\t\t\n      PUSH [tag] 612\t\t\tSER_ROLE) {\\n        _pause();...\n      DUP2 \t\t\tse()\n      PUSH 40\t\t\tSER_ROLE) {\\n        _pause();...\n      MLOAD \t\t\tSER_ROLE) {\\n        _pause();...\n      DUP1 \t\t\tSER_ROLE) {\\n        _pause();...\n      PUSH 40\t\t\tSER_ROLE) {\\n        _pause();...\n      ADD \t\t\tSER_ROLE) {\\n        _pause();...\n      PUSH 40\t\t\tSER_ROLE) {\\n        _pause();...\n      MSTORE \t\t\tSER_ROLE) {\\n        _pause();...\n      DUP1 \t\t\tSER_ROLE) {\\n        _pause();...\n      PUSH 1\t\t\tSER_ROLE) {\\n        _pause();...\n      DUP2 \t\t\tSER_ROLE) {\\n        _pause();...\n      MSTORE \t\t\tSER_ROLE) {\\n        _pause();...\n      PUSH 20\t\t\tSER_ROLE) {\\n        _pause();...\n      ADD \t\t\tSER_ROLE) {\\n        _pause();...\n      PUSH 3100000000000000000000000000000000000000000000000000000000000000\t\t\tSER_ROLE) {\\n        _pause();...\n      DUP2 \t\t\tSER_ROLE) {\\n        _pause();...\n      MSTORE \t\t\tSER_ROLE) {\\n        _pause();...\n      POP \t\t\tSER_ROLE) {\\n        _pause();...\n      PUSH [tag] 613\t\t\tSER_ROLE) {\\n        _pa\n      JUMP \t\t\tSER_ROLE) {\\n        _pause();...\n    tag 612\t\t\tSER_ROLE) {\\n        _pause();...\n      JUMPDEST \t\t\tSER_ROLE) {\\n        _pause();...\n      POP \t\t\t    _grantRole(MINTER_ROLE, mi...\n      JUMP \t\t\t    _grantRole(MINTER_ROLE, mi...\n    tag 411\t\t\t       __ERC20Permit_init(\"QAI...\n      JUMPDEST \t\t\t       __ERC20Permit_init(\"QAI...\n      PUSH [tag] 615\t\t\t\n      PUSH [tag] 594\t\t\t\n      JUMP \t\t\t\n    tag 615\t\t\t\n      JUMPDEST \t\t\t\n      JUMP \t\t\t       __ERC20Permit_init(\"QAI...\n    tag 413\t\t\t__ERC20FlashMint_init();\\n\\n  ...\n      JUMPDEST \t\t\t__ERC20FlashMint_init();\\n\\n  ...\n      PUSH [tag] 618\t\t\t\n      PUSH [tag] 594\t\t\t\n      JUMP \t\t\t\n    tag 618\t\t\t\n      JUMPDEST \t\t\t\n      JUMP \t\t\t__ERC20FlashMint_init();\\n\\n  ...\n    tag 433\t\t\t\n      JUMPDEST \t\t\t\n      PUSH 0\t\t\t\n      PUSH [tag] 621\t\t\t\n      PUSH [tag] 622\t\t\t\n      PUSH [tag] 256\t\t\t\n      JUMP \t\t\t\n    tag 622\t\t\t\n      JUMPDEST \t\t\t\n      DUP4 \t\t\t\n      PUSH [tag] 623\t\t\t\n      JUMP \t\t\t\n    tag 621\t\t\t\n      JUMPDEST \t\t\t\n      SWAP1 \t\t\t\n      POP \t\t\t\n      SWAP2 \t\t\t\n      SWAP1 \t\t\t\n      POP \t\t\t\n      JUMP \t\t\t\n    tag 434\t\t\t\n      JUMPDEST \t\t\t\n      PUSH 0\t\t\t\n      DUP1 \t\t\t\n      PUSH 0\t\t\t\n      DUP1 \t\t\t\n      PUSH [tag] 625\t\t\t\n      DUP9 \t\t\t\n      DUP9 \t\t\t\n      DUP9 \t\t\t\n      DUP9 \t\t\t\n      PUSH [tag] 626\t\t\t\n      JUMP \t\t\t\n    tag 625\t\t\t\n      JUMPDEST \t\t\t\n      SWAP3 \t\t\t\n      POP \t\t\t\n      SWAP3 \t\t\t\n      POP \t\t\t\n      SWAP3 \t\t\t\n      POP \t\t\t\n      PUSH [tag] 627\t\t\t\n      DUP3 \t\t\t\n      DUP3 \t\t\t\n      PUSH [tag] 628\t\t\t\n      JUMP \t\t\t\n    tag 627\t\t\t\n      JUMPDEST \t\t\t\n      DUP3 \t\t\t\n      SWAP4 \t\t\t\n      POP \t\t\t\n      POP \t\t\t\n      POP \t\t\t\n      POP \t\t\t\n      SWAP5 \t\t\t\n      SWAP4 \t\t\t\n      POP \t\t\t\n      POP \t\t\t\n      POP \t\t\t\n      POP \t\t\t\n      JUMP \t\t\t\n    tag 436\t\t\tROLE) {\\n        _mint(to, amo...\n      JUMPDEST \t\t\tROLE) {\\n        _mint(to, amo...\n      PUSH 0\t\t\tdes required by\n      PUSH [tag] 630\t\t\tlidity.\\n\\n    fun\n      DUP4 \t\t\t   fu\n      PUSH [tag] 442\t\t\tlidity.\\n\\n\n      JUMP \t\t\tlidity.\\n\\n    fun\n    tag 630\t\t\tlidity.\\n\\n    fun\n      JUMPDEST \t\t\tlidity.\\n\\n    fun\n      SWAP1 \t\t\tdes required by Solidity.\\n\\n ...\n      POP \t\t\tdes required by Solidity.\\n\\n ...\n      DUP1 \t\t\trom, ad\n      DUP3 \t\t\taddre\n      EQ \t\t\taddress from, ad\n      PUSH [tag] 631\t\t\tate(address from, address to, ...\n      JUMPI \t\t\tate(address from, address to, ...\n      DUP3 \t\t\t     \n      DUP2 \t\t\toverrid\n      PUSH 40\t\t\t)\\n        internal\\n        o...\n      MLOAD \t\t\t)\\n        internal\\n        o...\n      PUSH 752D88C000000000000000000000000000000000000000000000000000000000\t\t\t)\\n        internal\\n        o...\n      DUP2 \t\t\t)\\n        internal\\n        o...\n      MSTORE \t\t\t)\\n        internal\\n        o...\n      PUSH 4\t\t\t)\\n        internal\\n        o...\n      ADD \t\t\t)\\n        internal\\n        o...\n      PUSH [tag] 632\t\t\t)\\n        internal\\n        o...\n      SWAP3 \t\t\t)\\n        internal\\n        o...\n      SWAP2 \t\t\t)\\n        internal\\n        o...\n      SWAP1 \t\t\t)\\n        internal\\n        o...\n      PUSH [tag] 633\t\t\t)\\n        internal\\n        o...\n      JUMP \t\t\t)\\n        internal\\n        o...\n    tag 632\t\t\t)\\n        internal\\n        o...\n      JUMPDEST \t\t\t)\\n        internal\\n        o...\n      PUSH 40\t\t\t)\\n        internal\\n        o...\n      MLOAD \t\t\t)\\n        internal\\n        o...\n      DUP1 \t\t\t)\\n        internal\\n        o...\n      SWAP2 \t\t\t)\\n        internal\\n        o...\n      SUB \t\t\t)\\n        internal\\n        o...\n      SWAP1 \t\t\t)\\n        internal\\n        o...\n      REVERT \t\t\t)\\n        internal\\n        o...\n    tag 631\t\t\tate(address from, address to, ...\n      JUMPDEST \t\t\tate(address from, address to, ...\n      POP \t\t\tare overrides required by Soli...\n      POP \t\t\tROLE) {\\n        _mint(to, amo...\n      POP \t\t\tROLE) {\\n        _mint(to, amo...\n      JUMP \t\t\tROLE) {\\n        _mint(to, amo...\n    tag 442\t\t\tit();\\n        __AccessControl...\n      JUMPDEST \t\t\tit();\\n        __AccessControl...\n      PUSH 0\t\t\tinit(\"Q\n      DUP1 \t\t\t  __ERC20Votes_init();\\n\n      PUSH [tag] 635\t\t\t     __ERC20FlashMi\n      PUSH [tag] 636\t\t\t     __ERC20Flash\n      JUMP \t\t\t     __ERC20FlashMi\n    tag 635\t\t\t     __ERC20FlashMi\n      JUMPDEST \t\t\t     __ERC20FlashMi\n      SWAP1 \t\t\t  __ERC20Votes_init();\\n      ...\n      POP \t\t\t  __ERC20Votes_init();\\n      ...\n      DUP1 \t\t\tf\n      PUSH 0\t\t\tfunction \n      ADD \t\t\tfunction \n      PUSH 0\t\t\tfunction unpause\n      DUP5 \t\t\tnpaus\n      PUSH FFFFFFFFFFFFFFFFFFFFFFFFFFFFFFFFFFFFFFFF\t\t\tfunction unpause\n      AND \t\t\tfunction unpause\n      PUSH FFFFFFFFFFFFFFFFFFFFFFFFFFFFFFFFFFFFFFFF\t\t\tfunction unpause\n      AND \t\t\tfunction unpause\n      DUP2 \t\t\tfunction unpause\n      MSTORE \t\t\tfunction unpause\n      PUSH 20\t\t\tfunction unpause\n      ADD \t\t\tfunction unpause\n      SWAP1 \t\t\tfunction unpause\n      DUP2 \t\t\tfunction unpause\n      MSTORE \t\t\tfunction unpause\n      PUSH 20\t\t\tfunction unpause\n      ADD \t\t\tfunction unpause\n      PUSH 0\t\t\tfunction unpause\n      KECCAK256 \t\t\tfunction unpause\n      PUSH 0\t\t\tfunction unpause\n      DUP2 \t\t\tfunction unpause()\n      SLOAD \t\t\tfunction unpause()\n      DUP1 \t\t\tfunction unpause()\n      SWAP3 \t\t\tfunction unpause()\n      SWAP2 \t\t\tfunction unpause()\n      SWAP1 \t\t\tfunction unpause()\n      PUSH 1\t\t\tfunction unpause()\n      ADD \t\t\tfunction unpause()\n      SWAP2 \t\t\tfunction unpause()\n      SWAP1 \t\t\tfunction unpause()\n      POP \t\t\tfunction unpause()\n      SSTORE \t\t\tfunction unpause()\n      SWAP2 \t\t\t}\\n\\n    function unpause()\n      POP \t\t\t}\\n\\n    function unpause()\n      POP \t\t\t}\\n\\n    function unpause()\n      SWAP2 \t\t\tit();\\n        __AccessControl...\n      SWAP1 \t\t\tit();\\n        __AccessControl...\n      POP \t\t\tit();\\n        __AccessControl...\n      JUMP \t\t\tit();\\n        __AccessControl...\n    tag 460\t\t\t\n      JUMPDEST \t\t\t\n      PUSH 0\t\t\t\n      SWAP3 \t\t\t\n      SWAP2 \t\t\t\n      POP \t\t\t\n      POP \t\t\t\n      JUMP \t\t\t\n    tag 467\t\t\t\n      JUMPDEST \t\t\t\n      PUSH [tag] 638\t\t\t\n      PUSH [tag] 464\t\t\t\n      JUMP \t\t\t\n    tag 638\t\t\t\n      JUMPDEST \t\t\t\n      PUSH 0\t\t\t\n      PUSH [tag] 640\t\t\t\n      PUSH [tag] 264\t\t\t\n      JUMP \t\t\t\n    tag 640\t\t\t\n      JUMPDEST \t\t\t\n      SWAP1 \t\t\t\n      POP \t\t\t\n      PUSH [tag] 641\t\t\t\n      DUP4 \t\t\t\n      DUP3 \t\t\t\n      PUSH 1\t\t\t\n      ADD \t\t\t\n      PUSH 0\t\t\t\n      DUP8 \t\t\t\n      PUSH FFFFFFFFFFFFFFFFFFFFFFFFFFFFFFFFFFFFFFFF\t\t\t\n      AND \t\t\t\n      PUSH FFFFFFFFFFFFFFFFFFFFFFFFFFFFFFFFFFFFFFFF\t\t\t\n      AND \t\t\t\n      DUP2 \t\t\t\n      MSTORE \t\t\t\n      PUSH 20\t\t\t\n      ADD \t\t\t\n      SWAP1 \t\t\t\n      DUP2 \t\t\t\n      MSTORE \t\t\t\n      PUSH 20\t\t\t\n      ADD \t\t\t\n      PUSH 0\t\t\t\n      KECCAK256 \t\t\t\n      PUSH [tag] 642\t\t\t\n      SWAP1 \t\t\t\n      SWAP2 \t\t\t\n      SWAP1 \t\t\t\n      PUSH FFFFFFFF\t\t\t\n      AND \t\t\t\n      JUMP \t\t\t\n    tag 641\t\t\t\n      JUMPDEST \t\t\t\n      SWAP2 \t\t\t\n      POP \t\t\t\n      POP \t\t\t\n      SWAP3 \t\t\t\n      SWAP2 \t\t\t\n      POP \t\t\t\n      POP \t\t\t\n      JUMP \t\t\t\n    tag 473\t\t\t\n      JUMPDEST \t\t\t\n      PUSH 0\t\t\t\n      PUSH [tag] 644\t\t\t\n      PUSH [tag] 223\t\t\t\n      JUMP \t\t\t\n    tag 644\t\t\t\n      JUMPDEST \t\t\t\n      SWAP1 \t\t\t\n      POP \t\t\t\n      PUSH 0\t\t\t\n      PUSH FFFFFFFFFFFFFFFFFFFFFFFFFFFFFFFFFFFFFFFF\t\t\t\n      AND \t\t\t\n      DUP6 \t\t\t\n      PUSH FFFFFFFFFFFFFFFFFFFFFFFFFFFFFFFFFFFFFFFF\t\t\t\n      AND \t\t\t\n      SUB \t\t\t\n      PUSH [tag] 645\t\t\t\n      JUMPI \t\t\t\n      PUSH 0\t\t\t\n      PUSH 40\t\t\t\n      MLOAD \t\t\t\n      PUSH E602DF0500000000000000000000000000000000000000000000000000000000\t\t\t\n      DUP2 \t\t\t\n      MSTORE \t\t\t\n      PUSH 4\t\t\t\n      ADD \t\t\t\n      PUSH [tag] 646\t\t\t\n      SWAP2 \t\t\t\n      SWAP1 \t\t\t\n      PUSH [tag] 117\t\t\t\n      JUMP \t\t\t\n    tag 646\t\t\t\n      JUMPDEST \t\t\t\n      PUSH 40\t\t\t\n      MLOAD \t\t\t\n      DUP1 \t\t\t\n      SWAP2 \t\t\t\n      SUB \t\t\t\n      SWAP1 \t\t\t\n      REVERT \t\t\t\n    tag 645\t\t\t\n      JUMPDEST \t\t\t\n      PUSH 0\t\t\t\n      PUSH FFFFFFFFFFFFFFFFFFFFFFFFFFFFFFFFFFFFFFFF\t\t\t\n      AND \t\t\t\n      DUP5 \t\t\t\n      PUSH FFFFFFFFFFFFFFFFFFFFFFFFFFFFFFFFFFFFFFFF\t\t\t\n      AND \t\t\t\n      SUB \t\t\t\n      PUSH [tag] 647\t\t\t\n      JUMPI \t\t\t\n      PUSH 0\t\t\t\n      PUSH 40\t\t\t\n      MLOAD \t\t\t\n      PUSH 94280D6200000000000000000000000000000000000000000000000000000000\t\t\t\n      DUP2 \t\t\t\n      MSTORE \t\t\t\n      PUSH 4\t\t\t\n      ADD \t\t\t\n      PUSH [tag] 648\t\t\t\n      SWAP2 \t\t\t\n      SWAP1 \t\t\t\n      PUSH [tag] 117\t\t\t\n      JUMP \t\t\t\n    tag 648\t\t\t\n      JUMPDEST \t\t\t\n      PUSH 40\t\t\t\n      MLOAD \t\t\t\n      DUP1 \t\t\t\n      SWAP2 \t\t\t\n      SUB \t\t\t\n      SWAP1 \t\t\t\n      REVERT \t\t\t\n    tag 647\t\t\t\n      JUMPDEST \t\t\t\n      DUP3 \t\t\t\n      DUP2 \t\t\t\n      PUSH 1\t\t\t\n      ADD \t\t\t\n      PUSH 0\t\t\t\n      DUP8 \t\t\t\n      PUSH FFFFFFFFFFFFFFFFFFFFFFFFFFFFFFFFFFFFFFFF\t\t\t\n      AND \t\t\t\n      PUSH FFFFFFFFFFFFFFFFFFFFFFFFFFFFFFFFFFFFFFFF\t\t\t\n      AND \t\t\t\n      DUP2 \t\t\t\n      MSTORE \t\t\t\n      PUSH 20\t\t\t\n      ADD \t\t\t\n      SWAP1 \t\t\t\n      DUP2 \t\t\t\n      MSTORE \t\t\t\n      PUSH 20\t\t\t\n      ADD \t\t\t\n      PUSH 0\t\t\t\n      KECCAK256 \t\t\t\n      PUSH 0\t\t\t\n      DUP7 \t\t\t\n      PUSH FFFFFFFFFFFFFFFFFFFFFFFFFFFFFFFFFFFFFFFF\t\t\t\n      AND \t\t\t\n      PUSH FFFFFFFFFFFFFFFFFFFFFFFFFFFFFFFFFFFFFFFF\t\t\t\n      AND \t\t\t\n      DUP2 \t\t\t\n      MSTORE \t\t\t\n      PUSH 20\t\t\t\n      ADD \t\t\t\n      SWAP1 \t\t\t\n      DUP2 \t\t\t\n      MSTORE \t\t\t\n      PUSH 20\t\t\t\n      ADD \t\t\t\n      PUSH 0\t\t\t\n      KECCAK256 \t\t\t\n      DUP2 \t\t\t\n      SWAP1 \t\t\t\n      SSTORE \t\t\t\n      POP \t\t\t\n      DUP2 \t\t\t\n      ISZERO \t\t\t\n      PUSH [tag] 649\t\t\t\n      JUMPI \t\t\t\n      DUP4 \t\t\t\n      PUSH FFFFFFFFFFFFFFFFFFFFFFFFFFFFFFFFFFFFFFFF\t\t\t\n      AND \t\t\t\n      DUP6 \t\t\t\n      PUSH FFFFFFFFFFFFFFFFFFFFFFFFFFFFFFFFFFFFFFFF\t\t\t\n      AND \t\t\t\n      PUSH 8C5BE1E5EBEC7D5BD14F71427D1E84F3DD0314C0F7B2291E5B200AC8C7C3B925\t\t\t\n      DUP6 \t\t\t\n      PUSH 40\t\t\t\n      MLOAD \t\t\t\n      PUSH [tag] 650\t\t\t\n      SWAP2 \t\t\t\n      SWAP1 \t\t\t\n      PUSH [tag] 70\t\t\t\n      JUMP \t\t\t\n    tag 650\t\t\t\n      JUMPDEST \t\t\t\n      PUSH 40\t\t\t\n      MLOAD \t\t\t\n      DUP1 \t\t\t\n      SWAP2 \t\t\t\n      SUB \t\t\t\n      SWAP1 \t\t\t\n      LOG3 \t\t\t\n    tag 649\t\t\t\n      JUMPDEST \t\t\t\n      POP \t\t\t\n      POP \t\t\t\n      POP \t\t\t\n      POP \t\t\t\n      POP \t\t\t\n      JUMP \t\t\t\n    tag 487\t\t\tfunction _update(address from,...\n      JUMPDEST \t\t\tfunction _update(address from,...\n      PUSH [tag] 652\t\t\tsuper._update(from, to, value)\n      DUP4 \t\t\tfrom\n      DUP4 \t\t\tto\n      DUP4 \t\t\tvalue\n      PUSH [tag] 653\t\t\tsuper._update\n      JUMP \t\t\tsuper._update(from, to, value)\n    tag 652\t\t\tsuper._update(from, to, value)\n      JUMPDEST \t\t\tsuper._update(from, to, value)\n      POP \t\t\tfunction _update(address from,...\n      POP \t\t\tfunction _update(address from,...\n      POP \t\t\tfunction _update(address from,...\n      JUMP \t\t\tfunction _update(address from,...\n    tag 492\t\t\t\n      JUMPDEST \t\t\t\n      PUSH [tag] 655\t\t\t\n      DUP3 \t\t\t\n      DUP3 \t\t\t\n      PUSH [tag] 161\t\t\t\n      JUMP \t\t\t\n    tag 655\t\t\t\n      JUMPDEST \t\t\t\n      PUSH [tag] 656\t\t\t\n      JUMPI \t\t\t\n      DUP1 \t\t\t\n      DUP3 \t\t\t\n      PUSH 40\t\t\t\n      MLOAD \t\t\t\n      PUSH E2517D3F00000000000000000000000000000000000000000000000000000000\t\t\t\n      DUP2 \t\t\t\n      MSTORE \t\t\t\n      PUSH 4\t\t\t\n      ADD \t\t\t\n      PUSH [tag] 657\t\t\t\n      SWAP3 \t\t\t\n      SWAP2 \t\t\t\n      SWAP1 \t\t\t\n      PUSH [tag] 658\t\t\t\n      JUMP \t\t\t\n    tag 657\t\t\t\n      JUMPDEST \t\t\t\n      PUSH 40\t\t\t\n      MLOAD \t\t\t\n      DUP1 \t\t\t\n      SWAP2 \t\t\t\n      SUB \t\t\t\n      SWAP1 \t\t\t\n      REVERT \t\t\t\n    tag 656\t\t\t\n      JUMPDEST \t\t\t\n      POP \t\t\t\n      POP \t\t\t\n      JUMP \t\t\t\n    tag 501\t\t\t\n      JUMPDEST \t\t\t\n      PUSH 0\t\t\t\n      PUSH 8B73C3C69BB8FE3D512ECC4CF759CC79239F7B179B0FFACAA9A75D522B39400F\t\t\tnt) public onlyRole(MINTER_ROL...\n      PUSH [tag] 660\t\t\t\n      PUSH [tag] 661\t\t\t\n      JUMP \t\t\t\n    tag 660\t\t\t\n      JUMPDEST \t\t\t\n      PUSH [tag] 662\t\t\t\n      PUSH [tag] 663\t\t\t\n      JUMP \t\t\t\n    tag 662\t\t\t\n      JUMPDEST \t\t\t\n      CHAINID \t\t\t\n      ADDRESS \t\t\t\n      PUSH 40\t\t\t\n      MLOAD \t\t\t\n      PUSH 20\t\t\t\n      ADD \t\t\t\n      PUSH [tag] 664\t\t\t\n      SWAP6 \t\t\t\n      SWAP5 \t\t\t\n      SWAP4 \t\t\t\n      SWAP3 \t\t\t\n      SWAP2 \t\t\t\n      SWAP1 \t\t\t\n      PUSH [tag] 665\t\t\t\n      JUMP \t\t\t\n    tag 664\t\t\t\n      JUMPDEST \t\t\t\n      PUSH 40\t\t\t\n      MLOAD \t\t\t\n      PUSH 20\t\t\t\n      DUP2 \t\t\t\n      DUP4 \t\t\t\n      SUB \t\t\t\n      SUB \t\t\t\n      DUP2 \t\t\t\n      MSTORE \t\t\t\n      SWAP1 \t\t\t\n      PUSH 40\t\t\t\n      MSTORE \t\t\t\n      DUP1 \t\t\t\n      MLOAD \t\t\t\n      SWAP1 \t\t\t\n      PUSH 20\t\t\t\n      ADD \t\t\t\n      KECCAK256 \t\t\t\n      SWAP1 \t\t\t\n      POP \t\t\t\n      SWAP1 \t\t\t\n      JUMP \t\t\t\n    tag 516\t\t\t\n      JUMPDEST \t\t\t\n      PUSH 0\t\t\t\n      DUP1 \t\t\t\n      DUP3 \t\t\t\n      SUB \t\t\t\n      PUSH [tag] 667\t\t\t\n      JUMPI \t\t\t\n      PUSH 0\t\t\t\n      SWAP1 \t\t\t\n      POP \t\t\t\n      PUSH [tag] 666\t\t\t\n      JUMP \t\t\t\n    tag 667\t\t\t\n      JUMPDEST \t\t\t\n      PUSH 0\t\t\t\n      PUSH 1\t\t\t\n      PUSH [tag] 668\t\t\t\n      DUP5 \t\t\t\n      PUSH [tag] 669\t\t\t\n      JUMP \t\t\t\n    tag 668\t\t\t\n      JUMPDEST \t\t\t\n      SWAP1 \t\t\t\n      SHR \t\t\t\n      PUSH 1\t\t\t\n      SWAP1 \t\t\t\n      SHL \t\t\t\n      SWAP1 \t\t\t\n      POP \t\t\t\n      PUSH 1\t\t\t\n      DUP2 \t\t\t\n      DUP5 \t\t\t\n      DUP2 \t\t\t\n      PUSH [tag] 670\t\t\t\n      JUMPI \t\t\t\n      PUSH [tag] 671\t\t\t\n      PUSH [tag] 672\t\t\t\n      JUMP \t\t\t\n    tag 671\t\t\t\n      JUMPDEST \t\t\t\n    tag 670\t\t\t\n      JUMPDEST \t\t\t\n      DIV \t\t\t\n      DUP3 \t\t\t\n      ADD \t\t\t\n      SWAP1 \t\t\t\n      SHR \t\t\t\n      SWAP1 \t\t\t\n      POP \t\t\t\n      PUSH 1\t\t\t\n      DUP2 \t\t\t\n      DUP5 \t\t\t\n      DUP2 \t\t\t\n      PUSH [tag] 673\t\t\t\n      JUMPI \t\t\t\n      PUSH [tag] 674\t\t\t\n      PUSH [tag] 672\t\t\t\n      JUMP \t\t\t\n    tag 674\t\t\t\n      JUMPDEST \t\t\t\n    tag 673\t\t\t\n      JUMPDEST \t\t\t\n      DIV \t\t\t\n      DUP3 \t\t\t\n      ADD \t\t\t\n      SWAP1 \t\t\t\n      SHR \t\t\t\n      SWAP1 \t\t\t\n      POP \t\t\t\n      PUSH 1\t\t\t\n      DUP2 \t\t\t\n      DUP5 \t\t\t\n      DUP2 \t\t\t\n      PUSH [tag] 675\t\t\t\n      JUMPI \t\t\t\n      PUSH [tag] 676\t\t\t\n      PUSH [tag] 672\t\t\t\n      JUMP \t\t\t\n    tag 676\t\t\t\n      JUMPDEST \t\t\t\n    tag 675\t\t\t\n      JUMPDEST \t\t\t\n      DIV \t\t\t\n      DUP3 \t\t\t\n      ADD \t\t\t\n      SWAP1 \t\t\t\n      SHR \t\t\t\n      SWAP1 \t\t\t\n      POP \t\t\t\n      PUSH 1\t\t\t\n      DUP2 \t\t\t\n      DUP5 \t\t\t\n      DUP2 \t\t\t\n      PUSH [tag] 677\t\t\t\n      JUMPI \t\t\t\n      PUSH [tag] 678\t\t\t\n      PUSH [tag] 672\t\t\t\n      JUMP \t\t\t\n    tag 678\t\t\t\n      JUMPDEST \t\t\t\n    tag 677\t\t\t\n      JUMPDEST \t\t\t\n      DIV \t\t\t\n      DUP3 \t\t\t\n      ADD \t\t\t\n      SWAP1 \t\t\t\n      SHR \t\t\t\n      SWAP1 \t\t\t\n      POP \t\t\t\n      PUSH 1\t\t\t\n      DUP2 \t\t\t\n      DUP5 \t\t\t\n      DUP2 \t\t\t\n      PUSH [tag] 679\t\t\t\n      JUMPI \t\t\t\n      PUSH [tag] 680\t\t\t\n      PUSH [tag] 672\t\t\t\n      JUMP \t\t\t\n    tag 680\t\t\t\n      JUMPDEST \t\t\t\n    tag 679\t\t\t\n      JUMPDEST \t\t\t\n      DIV \t\t\t\n      DUP3 \t\t\t\n      ADD \t\t\t\n      SWAP1 \t\t\t\n      SHR \t\t\t\n      SWAP1 \t\t\t\n      POP \t\t\t\n      PUSH 1\t\t\t\n      DUP2 \t\t\t\n      DUP5 \t\t\t\n      DUP2 \t\t\t\n      PUSH [tag] 681\t\t\t\n      JUMPI \t\t\t\n      PUSH [tag] 682\t\t\t\n      PUSH [tag] 672\t\t\t\n      JUMP \t\t\t\n    tag 682\t\t\t\n      JUMPDEST \t\t\t\n    tag 681\t\t\t\n      JUMPDEST \t\t\t\n      DIV \t\t\t\n      DUP3 \t\t\t\n      ADD \t\t\t\n      SWAP1 \t\t\t\n      SHR \t\t\t\n      SWAP1 \t\t\t\n      POP \t\t\t\n      PUSH 1\t\t\t\n      DUP2 \t\t\t\n      DUP5 \t\t\t\n      DUP2 \t\t\t\n      PUSH [tag] 683\t\t\t\n      JUMPI \t\t\t\n      PUSH [tag] 684\t\t\t\n      PUSH [tag] 672\t\t\t\n      JUMP \t\t\t\n    tag 684\t\t\t\n      JUMPDEST \t\t\t\n    tag 683\t\t\t\n      JUMPDEST \t\t\t\n      DIV \t\t\t\n      DUP3 \t\t\t\n      ADD \t\t\t\n      SWAP1 \t\t\t\n      SHR \t\t\t\n      SWAP1 \t\t\t\n      POP \t\t\t\n      PUSH [tag] 685\t\t\t\n      DUP2 \t\t\t\n      DUP3 \t\t\t\n      DUP6 \t\t\t\n      DUP2 \t\t\t\n      PUSH [tag] 686\t\t\t\n      JUMPI \t\t\t\n      PUSH [tag] 687\t\t\t\n      PUSH [tag] 672\t\t\t\n      JUMP \t\t\t\n    tag 687\t\t\t\n      JUMPDEST \t\t\t\n    tag 686\t\t\t\n      JUMPDEST \t\t\t\n      DIV \t\t\t\n      PUSH [tag] 688\t\t\t\n      JUMP \t\t\t\n    tag 685\t\t\t\n      JUMPDEST \t\t\t\n      SWAP2 \t\t\t\n      POP \t\t\t\n      POP \t\t\t\n    tag 666\t\t\t\n      JUMPDEST \t\t\t\n      SWAP2 \t\t\t\n      SWAP1 \t\t\t\n      POP \t\t\t\n      JUMP \t\t\t\n    tag 519\t\t\t\n      JUMPDEST \t\t\t\n      PUSH 0\t\t\t\n      DUP3 \t\t\t\n      PUSH 0\t\t\t\n      MSTORE \t\t\t\n      DUP2 \t\t\t\n      PUSH 20\t\t\t\n      PUSH 0\t\t\t\n      KECCAK256 \t\t\t\n      ADD \t\t\t\n      SWAP1 \t\t\t\n      POP \t\t\t\n      SWAP3 \t\t\t\n      SWAP2 \t\t\t\n      POP \t\t\t\n      POP \t\t\t\n      JUMP \t\t\t\n    tag 524\t\t\t\n      JUMPDEST \t\t\t\n      PUSH 0\t\t\t\n    tag 691\t\t\t\n      JUMPDEST \t\t\t\n      DUP2 \t\t\t\n      DUP4 \t\t\t\n      LT \t\t\t\n      ISZERO \t\t\t\n      PUSH [tag] 692\t\t\t\n      JUMPI \t\t\t\n      PUSH 0\t\t\t\n      PUSH [tag] 693\t\t\t\n      DUP5 \t\t\t\n      DUP5 \t\t\t\n      PUSH [tag] 694\t\t\t\n      JUMP \t\t\t\n    tag 693\t\t\t\n      JUMPDEST \t\t\t\n      SWAP1 \t\t\t\n      POP \t\t\t\n      DUP5 \t\t\t\n      PUSH FFFFFFFFFFFF\t\t\t\n      AND \t\t\t\n      PUSH [tag] 695\t\t\t\n      DUP8 \t\t\t\n      DUP4 \t\t\t\n      PUSH [tag] 519\t\t\t\n      JUMP \t\t\t\n    tag 695\t\t\t\n      JUMPDEST \t\t\t\n      PUSH 0\t\t\t\n      ADD \t\t\t\n      PUSH 0\t\t\t\n      SWAP1 \t\t\t\n      SLOAD \t\t\t\n      SWAP1 \t\t\t\n      PUSH 100\t\t\t\n      EXP \t\t\t\n      SWAP1 \t\t\t\n      DIV \t\t\t\n      PUSH FFFFFFFFFFFF\t\t\t\n      AND \t\t\t\n      PUSH FFFFFFFFFFFF\t\t\t\n      AND \t\t\t\n      GT \t\t\t\n      ISZERO \t\t\t\n      PUSH [tag] 696\t\t\t\n      JUMPI \t\t\t\n      DUP1 \t\t\t\n      SWAP3 \t\t\t\n      POP \t\t\t\n      PUSH [tag] 697\t\t\t\n      JUMP \t\t\t\n    tag 696\t\t\t\n      JUMPDEST \t\t\t\n      PUSH 1\t\t\t\n      DUP2 \t\t\t\n      PUSH [tag] 698\t\t\t\n      SWAP2 \t\t\t\n      SWAP1 \t\t\t\n      PUSH [tag] 320\t\t\t\n      JUMP \t\t\t\n    tag 698\t\t\t\n      JUMPDEST \t\t\t\n      SWAP4 \t\t\t\n      POP \t\t\t\n    tag 697\t\t\t\n      JUMPDEST \t\t\t\n      POP \t\t\t\n      PUSH [tag] 691\t\t\t\n      JUMP \t\t\t\n    tag 692\t\t\t\n      JUMPDEST \t\t\t\n      DUP2 \t\t\t\n      SWAP1 \t\t\t\n      POP \t\t\t\n      SWAP5 \t\t\t\n      SWAP4 \t\t\t\n      POP \t\t\t\n      POP \t\t\t\n      POP \t\t\t\n      POP \t\t\t\n      JUMP \t\t\t\n    tag 531\t\t\t\n      JUMPDEST \t\t\t\n      PUSH [tag] 700\t\t\t\n      PUSH [tag] 122\t\t\t\n      JUMP \t\t\t\n    tag 700\t\t\t\n      JUMPDEST \t\t\t\n      PUSH [tag] 701\t\t\t\n      JUMPI \t\t\t\n      PUSH 40\t\t\t\n      MLOAD \t\t\t\n      PUSH 8DFC202B00000000000000000000000000000000000000000000000000000000\t\t\t\n      DUP2 \t\t\t\n      MSTORE \t\t\t\n      PUSH 4\t\t\t\n      ADD \t\t\t\n      PUSH 40\t\t\t\n      MLOAD \t\t\t\n      DUP1 \t\t\t\n      SWAP2 \t\t\t\n      SUB \t\t\t\n      SWAP1 \t\t\t\n      REVERT \t\t\t\n    tag 701\t\t\t\n      JUMPDEST \t\t\t\n      JUMP \t\t\t\n    tag 551\t\t\t\n      JUMPDEST \t\t\t\n      PUSH 0\t\t\t\n      PUSH [tag] 703\t\t\t\n      DUP3 \t\t\t\n      PUSH [tag] 140\t\t\t\n      JUMP \t\t\t\n    tag 703\t\t\t\n      JUMPDEST \t\t\t\n      SWAP1 \t\t\t\n      POP \t\t\t\n      SWAP2 \t\t\t\n      SWAP1 \t\t\t\n      POP \t\t\t\n      JUMP \t\t\t\n    tag 552\t\t\t\n      JUMPDEST \t\t\t\n      PUSH 0\t\t\t\n      PUSH [tag] 705\t\t\t\n      PUSH [tag] 264\t\t\t\n      JUMP \t\t\t\n    tag 705\t\t\t\n      JUMPDEST \t\t\t\n      SWAP1 \t\t\t\n      POP \t\t\t\n      DUP3 \t\t\t\n      PUSH FFFFFFFFFFFFFFFFFFFFFFFFFFFFFFFFFFFFFFFF\t\t\t\n      AND \t\t\t\n      DUP5 \t\t\t\n      PUSH FFFFFFFFFFFFFFFFFFFFFFFFFFFFFFFFFFFFFFFF\t\t\t\n      AND \t\t\t\n      EQ \t\t\t\n      ISZERO \t\t\t\n      DUP1 \t\t\t\n      ISZERO \t\t\t\n      PUSH [tag] 706\t\t\t\n      JUMPI \t\t\t\n      POP \t\t\t\n      PUSH 0\t\t\t\n      DUP3 \t\t\t\n      GT \t\t\t\n    tag 706\t\t\t\n      JUMPDEST \t\t\t\n      ISZERO \t\t\t\n      PUSH [tag] 707\t\t\t\n      JUMPI \t\t\t\n      PUSH 0\t\t\t\n      PUSH FFFFFFFFFFFFFFFFFFFFFFFFFFFFFFFFFFFFFFFF\t\t\t\n      AND \t\t\t\n      DUP5 \t\t\t\n      PUSH FFFFFFFFFFFFFFFFFFFFFFFFFFFFFFFFFFFFFFFF\t\t\t\n      AND \t\t\t\n      EQ \t\t\t\n      PUSH [tag] 708\t\t\t\n      JUMPI \t\t\t\n      PUSH 0\t\t\t\n      DUP1 \t\t\t\n      PUSH [tag] 709\t\t\t\n      DUP4 \t\t\t\n      PUSH 1\t\t\t\n      ADD \t\t\t\n      PUSH 0\t\t\t\n      DUP9 \t\t\t\n      PUSH FFFFFFFFFFFFFFFFFFFFFFFFFFFFFFFFFFFFFFFF\t\t\t\n      AND \t\t\t\n      PUSH FFFFFFFFFFFFFFFFFFFFFFFFFFFFFFFFFFFFFFFF\t\t\t\n      AND \t\t\t\n      DUP2 \t\t\t\n      MSTORE \t\t\t\n      PUSH 20\t\t\t\n      ADD \t\t\t\n      SWAP1 \t\t\t\n      DUP2 \t\t\t\n      MSTORE \t\t\t\n      PUSH 20\t\t\t\n      ADD \t\t\t\n      PUSH 0\t\t\t\n      KECCAK256 \t\t\t\n      PUSH [tag] 710\t\t\t\n      PUSH [tag] 711\t\t\t\n      DUP8 \t\t\t\n      PUSH [tag] 712\t\t\t\n      JUMP \t\t\t\n    tag 711\t\t\t\n      JUMPDEST \t\t\t\n      PUSH [tag] 713\t\t\t\n      JUMP \t\t\t\n    tag 709\t\t\t\n      JUMPDEST \t\t\t\n      PUSH FFFFFFFFFFFFFFFFFFFFFFFFFFFFFFFFFFFFFFFFFFFFFFFFFFFF\t\t\t\n      AND \t\t\t\n      SWAP2 \t\t\t\n      POP \t\t\t\n      PUSH FFFFFFFFFFFFFFFFFFFFFFFFFFFFFFFFFFFFFFFFFFFFFFFFFFFF\t\t\t\n      AND \t\t\t\n      SWAP2 \t\t\t\n      POP \t\t\t\n      DUP6 \t\t\t\n      PUSH FFFFFFFFFFFFFFFFFFFFFFFFFFFFFFFFFFFFFFFF\t\t\t\n      AND \t\t\t\n      PUSH DEC2BACDD2F05B59DE34DA9B523DFF8BE42E5E38E818C82FDB0BAE774387A724\t\t\t\n      DUP4 \t\t\t\n      DUP4 \t\t\t\n      PUSH 40\t\t\t\n      MLOAD \t\t\t\n      PUSH [tag] 714\t\t\t\n      SWAP3 \t\t\t\n      SWAP2 \t\t\t\n      SWAP1 \t\t\t\n      PUSH [tag] 715\t\t\t\n      JUMP \t\t\t\n    tag 714\t\t\t\n      JUMPDEST \t\t\t\n      PUSH 40\t\t\t\n      MLOAD \t\t\t\n      DUP1 \t\t\t\n      SWAP2 \t\t\t\n      SUB \t\t\t\n      SWAP1 \t\t\t\n      LOG2 \t\t\t\n      POP \t\t\t\n      POP \t\t\t\n    tag 708\t\t\t\n      JUMPDEST \t\t\t\n      PUSH 0\t\t\t\n      PUSH FFFFFFFFFFFFFFFFFFFFFFFFFFFFFFFFFFFFFFFF\t\t\t\n      AND \t\t\t\n      DUP4 \t\t\t\n      PUSH FFFFFFFFFFFFFFFFFFFFFFFFFFFFFFFFFFFFFFFF\t\t\t\n      AND \t\t\t\n      EQ \t\t\t\n      PUSH [tag] 716\t\t\t\n      JUMPI \t\t\t\n      PUSH 0\t\t\t\n      DUP1 \t\t\t\n      PUSH [tag] 717\t\t\t\n      DUP4 \t\t\t\n      PUSH 1\t\t\t\n      ADD \t\t\t\n      PUSH 0\t\t\t\n      DUP8 \t\t\t\n      PUSH FFFFFFFFFFFFFFFFFFFFFFFFFFFFFFFFFFFFFFFF\t\t\t\n      AND \t\t\t\n      PUSH FFFFFFFFFFFFFFFFFFFFFFFFFFFFFFFFFFFFFFFF\t\t\t\n      AND \t\t\t\n      DUP2 \t\t\t\n      MSTORE \t\t\t\n      PUSH 20\t\t\t\n      ADD \t\t\t\n      SWAP1 \t\t\t\n      DUP2 \t\t\t\n      MSTORE \t\t\t\n      PUSH 20\t\t\t\n      ADD \t\t\t\n      PUSH 0\t\t\t\n      KECCAK256 \t\t\t\n      PUSH [tag] 718\t\t\t\n      PUSH [tag] 719\t\t\t\n      DUP8 \t\t\t\n      PUSH [tag] 712\t\t\t\n      JUMP \t\t\t\n    tag 719\t\t\t\n      JUMPDEST \t\t\t\n      PUSH [tag] 713\t\t\t\n      JUMP \t\t\t\n    tag 717\t\t\t\n      JUMPDEST \t\t\t\n      PUSH FFFFFFFFFFFFFFFFFFFFFFFFFFFFFFFFFFFFFFFFFFFFFFFFFFFF\t\t\t\n      AND \t\t\t\n      SWAP2 \t\t\t\n      POP \t\t\t\n      PUSH FFFFFFFFFFFFFFFFFFFFFFFFFFFFFFFFFFFFFFFFFFFFFFFFFFFF\t\t\t\n      AND \t\t\t\n      SWAP2 \t\t\t\n      POP \t\t\t\n      DUP5 \t\t\t\n      PUSH FFFFFFFFFFFFFFFFFFFFFFFFFFFFFFFFFFFFFFFF\t\t\t\n      AND \t\t\t\n      PUSH DEC2BACDD2F05B59DE34DA9B523DFF8BE42E5E38E818C82FDB0BAE774387A724\t\t\t\n      DUP4 \t\t\t\n      DUP4 \t\t\t\n      PUSH 40\t\t\t\n      MLOAD \t\t\t\n      PUSH [tag] 720\t\t\t\n      SWAP3 \t\t\t\n      SWAP2 \t\t\t\n      SWAP1 \t\t\t\n      PUSH [tag] 715\t\t\t\n      JUMP \t\t\t\n    tag 720\t\t\t\n      JUMPDEST \t\t\t\n      PUSH 40\t\t\t\n      MLOAD \t\t\t\n      DUP1 \t\t\t\n      SWAP2 \t\t\t\n      SUB \t\t\t\n      SWAP1 \t\t\t\n      LOG2 \t\t\t\n      POP \t\t\t\n      POP \t\t\t\n    tag 716\t\t\t\n      JUMPDEST \t\t\t\n    tag 707\t\t\t\n      JUMPDEST \t\t\t\n      POP \t\t\t\n      POP \t\t\t\n      POP \t\t\t\n      POP \t\t\t\n      JUMP \t\t\t\n    tag 559\t\t\t\n      JUMPDEST \t\t\t\n      PUSH 0\t\t\t\n      DUP2 \t\t\t\n      PUSH 0\t\t\t\n      ADD \t\t\t\n      DUP1 \t\t\t\n      SLOAD \t\t\t\n      SWAP1 \t\t\t\n      POP \t\t\t\n      SWAP1 \t\t\t\n      POP \t\t\t\n      SWAP2 \t\t\t\n      SWAP1 \t\t\t\n      POP \t\t\t\n      JUMP \t\t\t\n    tag 560\t\t\t\n      JUMPDEST \t\t\t\n      PUSH 0\t\t\t\n      PUSH FFFFFFFF\t\t\t\n      DUP1 \t\t\t\n      AND \t\t\t\n      DUP3 \t\t\t\n      GT \t\t\t\n      ISZERO \t\t\t\n      PUSH [tag] 723\t\t\t\n      JUMPI \t\t\t\n      PUSH 20\t\t\t\n      DUP3 \t\t\t\n      PUSH 40\t\t\t\n      MLOAD \t\t\t\n      PUSH 6DFCC65000000000000000000000000000000000000000000000000000000000\t\t\t\n      DUP2 \t\t\t\n      MSTORE \t\t\t\n      PUSH 4\t\t\t\n      ADD \t\t\t\n      PUSH [tag] 724\t\t\t\n      SWAP3 \t\t\t\n      SWAP2 \t\t\t\n      SWAP1 \t\t\t\n      PUSH [tag] 725\t\t\t\n      JUMP \t\t\t\n    tag 724\t\t\t\n      JUMPDEST \t\t\t\n      PUSH 40\t\t\t\n      MLOAD \t\t\t\n      DUP1 \t\t\t\n      SWAP2 \t\t\t\n      SUB \t\t\t\n      SWAP1 \t\t\t\n      REVERT \t\t\t\n    tag 723\t\t\t\n      JUMPDEST \t\t\t\n      DUP2 \t\t\t\n      SWAP1 \t\t\t\n      POP \t\t\t\n      SWAP2 \t\t\t\n      SWAP1 \t\t\t\n      POP \t\t\t\n      JUMP \t\t\t\n    tag 563\t\t\tow constructor\\n    constructo...\n      JUMPDEST \t\t\tow constructor\\n    constructo...\n      PUSH 0\t\t\ters();\\n\n      DUP1 \t\t\tunction initialize(addr\n      PUSH [tag] 727\t\t\t defaultAdmin, addr\n      PUSH [tag] 636\t\t\t defaultAdmin, ad\n      JUMP \t\t\t defaultAdmin, addr\n    tag 727\t\t\t defaultAdmin, addr\n      JUMPDEST \t\t\t defaultAdmin, addr\n      SWAP1 \t\t\tunction initialize(address def...\n      POP \t\t\tunction initialize(address def...\n      DUP1 \t\t\ts\n      PUSH 0\t\t\tss minter\n      ADD \t\t\tss minter\n      PUSH 0\t\t\tss minter)\\n     \n      DUP5 \t\t\t\\n    \n      PUSH FFFFFFFFFFFFFFFFFFFFFFFFFFFFFFFFFFFFFFFF\t\t\tss minter)\\n     \n      AND \t\t\tss minter)\\n     \n      PUSH FFFFFFFFFFFFFFFFFFFFFFFFFFFFFFFFFFFFFFFF\t\t\tss minter)\\n     \n      AND \t\t\tss minter)\\n     \n      DUP2 \t\t\tss minter)\\n     \n      MSTORE \t\t\tss minter)\\n     \n      PUSH 20\t\t\tss minter)\\n     \n      ADD \t\t\tss minter)\\n     \n      SWAP1 \t\t\tss minter)\\n     \n      DUP2 \t\t\tss minter)\\n     \n      MSTORE \t\t\tss minter)\\n     \n      PUSH 20\t\t\tss minter)\\n     \n      ADD \t\t\tss minter)\\n     \n      PUSH 0\t\t\tss minter)\\n     \n      KECCAK256 \t\t\tss minter)\\n     \n      SLOAD \t\t\tss minter)\\n     \n      SWAP2 \t\t\t, address minter)\\n     \n      POP \t\t\t, address minter)\\n     \n      POP \t\t\t, address minter)\\n     \n      SWAP2 \t\t\tow constructor\\n    constructo...\n      SWAP1 \t\t\tow constructor\\n    constructo...\n      POP \t\t\tow constructor\\n    constructo...\n      JUMP \t\t\tow constructor\\n    constructo...\n    tag 566\t\t\t\n      JUMPDEST \t\t\t\n      PUSH [tag] 729\t\t\t\n      PUSH [tag] 122\t\t\t\n      JUMP \t\t\t\n    tag 729\t\t\t\n      JUMPDEST \t\t\t\n      ISZERO \t\t\t\n      PUSH [tag] 730\t\t\t\n      JUMPI \t\t\t\n      PUSH 40\t\t\t\n      MLOAD \t\t\t\n      PUSH D93C066500000000000000000000000000000000000000000000000000000000\t\t\t\n      DUP2 \t\t\t\n      MSTORE \t\t\t\n      PUSH 4\t\t\t\n      ADD \t\t\t\n      PUSH 40\t\t\t\n      MLOAD \t\t\t\n      DUP1 \t\t\t\n      SWAP2 \t\t\t\n      SUB \t\t\t\n      SWAP1 \t\t\t\n      REVERT \t\t\t\n    tag 730\t\t\t\n      JUMPDEST \t\t\t\n      JUMP \t\t\t\n    tag 594\t\t\t\n      JUMPDEST \t\t\t\n      PUSH [tag] 732\t\t\t\n      PUSH [tag] 733\t\t\t\n      JUMP \t\t\t\n    tag 732\t\t\t\n      JUMPDEST \t\t\t\n      PUSH [tag] 734\t\t\t\n      JUMPI \t\t\t\n      PUSH 40\t\t\t\n      MLOAD \t\t\t\n      PUSH D7E6BCF800000000000000000000000000000000000000000000000000000000\t\t\t\n      DUP2 \t\t\t\n      MSTORE \t\t\t\n      PUSH 4\t\t\t\n      ADD \t\t\t\n      PUSH 40\t\t\t\n      MLOAD \t\t\t\n      DUP1 \t\t\t\n      SWAP2 \t\t\t\n      SUB \t\t\t\n      SWAP1 \t\t\t\n      REVERT \t\t\t\n    tag 734\t\t\t\n      JUMPDEST \t\t\t\n      JUMP \t\t\t\n    tag 597\t\t\t\n      JUMPDEST \t\t\t\n      PUSH [tag] 736\t\t\t\n      PUSH [tag] 594\t\t\t\n      JUMP \t\t\t\n    tag 736\t\t\t\n      JUMPDEST \t\t\t\n      PUSH 0\t\t\t\n      PUSH [tag] 738\t\t\t\n      PUSH [tag] 223\t\t\t\n      JUMP \t\t\t\n    tag 738\t\t\t\n      JUMPDEST \t\t\t\n      SWAP1 \t\t\t\n      POP \t\t\t\n      DUP3 \t\t\t\n      DUP2 \t\t\t\n      PUSH 3\t\t\t\n      ADD \t\t\t\n      SWAP1 \t\t\t\n      DUP2 \t\t\t\n      PUSH [tag] 739\t\t\t\n      SWAP2 \t\t\t\n      SWAP1 \t\t\t\n      PUSH [tag] 740\t\t\t\n      JUMP \t\t\t\n    tag 739\t\t\t\n      JUMPDEST \t\t\t\n      POP \t\t\t\n      DUP2 \t\t\t\n      DUP2 \t\t\t\n      PUSH 4\t\t\t\n      ADD \t\t\t\n      SWAP1 \t\t\t\n      DUP2 \t\t\t\n      PUSH [tag] 741\t\t\t\n      SWAP2 \t\t\t\n      SWAP1 \t\t\t\n      PUSH [tag] 740\t\t\t\n      JUMP \t\t\t\n    tag 741\t\t\t\n      JUMPDEST \t\t\t\n      POP \t\t\t\n      POP \t\t\t\n      POP \t\t\t\n      POP \t\t\t\n      JUMP \t\t\t\n    tag 605\t\t\t();\\n    }\\n\\n    function unp...\n      JUMPDEST \t\t\t();\\n    }\\n\\n    function unp...\n      PUSH [tag] 743\t\t\t\n      PUSH [tag] 594\t\t\t\n      JUMP \t\t\t\n    tag 743\t\t\t\n      JUMPDEST \t\t\t\n      PUSH 0\t\t\t_unpause();\\n    }\\n\\n    fu\n      PUSH [tag] 745\t\t\tion mint(address to, \n      PUSH [tag] 300\t\t\tion mint(address to\n      JUMP \t\t\tion mint(address to, \n    tag 745\t\t\tion mint(address to, \n      JUMPDEST \t\t\tion mint(address to, \n      SWAP1 \t\t\t_unpause();\\n    }\\n\\n    func...\n      POP \t\t\t_unpause();\\n    }\\n\\n    func...\n      PUSH 0\t\t\t only\n      DUP2 \t\t\to\n      PUSH 0\t\t\tount) pub\n      ADD \t\t\tount) pub\n      PUSH 0\t\t\tount) pub\n      PUSH 100\t\t\tount) public only\n      EXP \t\t\tount) public only\n      DUP2 \t\t\tount) public only\n      SLOAD \t\t\tount) public only\n      DUP2 \t\t\tount) public only\n      PUSH FF\t\t\tount) public only\n      MUL \t\t\tount) public only\n      NOT \t\t\tount) public only\n      AND \t\t\tount) public only\n      SWAP1 \t\t\tount) public only\n      DUP4 \t\t\tount) public only\n      ISZERO \t\t\tount) public only\n      ISZERO \t\t\tount) public only\n      MUL \t\t\tount) public only\n      OR \t\t\tount) public only\n      SWAP1 \t\t\tount) public only\n      SSTORE \t\t\tount) public only\n      POP \t\t\tount) public only\n      POP \t\t\t{\\n        _unpause();\\n    }\\...\n      JUMP \t\t\t();\\n    }\\n\\n    function unp...\n    tag 613\t\t\t\n      JUMPDEST \t\t\t\n      PUSH [tag] 747\t\t\t\n      PUSH [tag] 594\t\t\t\n      JUMP \t\t\t\n    tag 747\t\t\t\n      JUMPDEST \t\t\t\n      PUSH 0\t\t\t\n      PUSH [tag] 749\t\t\t\n      PUSH [tag] 353\t\t\t\n      JUMP \t\t\t\n    tag 749\t\t\t\n      JUMPDEST \t\t\t\n      SWAP1 \t\t\t\n      POP \t\t\t\n      DUP3 \t\t\t\n      DUP2 \t\t\t\n      PUSH 2\t\t\t\n      ADD \t\t\t\n      SWAP1 \t\t\t\n      DUP2 \t\t\t\n      PUSH [tag] 750\t\t\t\n      SWAP2 \t\t\t\n      SWAP1 \t\t\t\n      PUSH [tag] 740\t\t\t\n      JUMP \t\t\t\n    tag 750\t\t\t\n      JUMPDEST \t\t\t\n      POP \t\t\t\n      DUP2 \t\t\t\n      DUP2 \t\t\t\n      PUSH 3\t\t\t\n      ADD \t\t\t\n      SWAP1 \t\t\t\n      DUP2 \t\t\t\n      PUSH [tag] 751\t\t\t\n      SWAP2 \t\t\t\n      SWAP1 \t\t\t\n      PUSH [tag] 740\t\t\t\n      JUMP \t\t\t\n    tag 751\t\t\t\n      JUMPDEST \t\t\t\n      POP \t\t\t\n      PUSH 0\t\t\t\n      DUP1 \t\t\t\n      SHL \t\t\t\n      DUP2 \t\t\t\n      PUSH 0\t\t\t\n      ADD \t\t\t\n      DUP2 \t\t\t\n      SWAP1 \t\t\t\n      SSTORE \t\t\t\n      POP \t\t\t\n      PUSH 0\t\t\t\n      DUP1 \t\t\t\n      SHL \t\t\t\n      DUP2 \t\t\t\n      PUSH 1\t\t\t\n      ADD \t\t\t\n      DUP2 \t\t\t\n      SWAP1 \t\t\t\n      SSTORE \t\t\t\n      POP \t\t\t\n      POP \t\t\t\n      POP \t\t\t\n      POP \t\t\t\n      JUMP \t\t\t\n    tag 623\t\t\t\n      JUMPDEST \t\t\t\n      PUSH 0\t\t\t\n      PUSH 40\t\t\t\n      MLOAD \t\t\t\n      PUSH 1901000000000000000000000000000000000000000000000000000000000000\t\t\t\n      DUP2 \t\t\t\n      MSTORE \t\t\t\n      DUP4 \t\t\t\n      PUSH 2\t\t\t\n      DUP3 \t\t\t\n      ADD \t\t\t\n      MSTORE \t\t\t\n      DUP3 \t\t\t\n      PUSH 22\t\t\t\n      DUP3 \t\t\t\n      ADD \t\t\t\n      MSTORE \t\t\t\n      PUSH 42\t\t\t\n      DUP2 \t\t\t\n      KECCAK256 \t\t\t\n      SWAP2 \t\t\t\n      POP \t\t\t\n      POP \t\t\t\n      SWAP3 \t\t\t\n      SWAP2 \t\t\t\n      POP \t\t\t\n      POP \t\t\t\n      JUMP \t\t\t\n    tag 626\t\t\t\n      JUMPDEST \t\t\t\n      PUSH 0\t\t\t\n      DUP1 \t\t\t\n      PUSH 0\t\t\t\n      PUSH 7FFFFFFFFFFFFFFFFFFFFFFFFFFFFFFF5D576E7357A4501DDFE92F46681B20A0\t\t\t\n      DUP5 \t\t\t\n      PUSH 0\t\t\t\n      SHR \t\t\t\n      GT \t\t\t\n      ISZERO \t\t\t\n      PUSH [tag] 754\t\t\t\n      JUMPI \t\t\t\n      PUSH 0\t\t\t\n      PUSH 3\t\t\t\n      DUP6 \t\t\t\n      SWAP3 \t\t\t\n      POP \t\t\t\n      SWAP3 \t\t\t\n      POP \t\t\t\n      SWAP3 \t\t\t\n      POP \t\t\t\n      PUSH [tag] 753\t\t\t\n      JUMP \t\t\t\n    tag 754\t\t\t\n      JUMPDEST \t\t\t\n      PUSH 0\t\t\t\n      PUSH 1\t\t\t\n      DUP9 \t\t\t\n      DUP9 \t\t\t\n      DUP9 \t\t\t\n      DUP9 \t\t\t\n      PUSH 40\t\t\t\n      MLOAD \t\t\t\n      PUSH 0\t\t\t\n      DUP2 \t\t\t\n      MSTORE \t\t\t\n      PUSH 20\t\t\t\n      ADD \t\t\t\n      PUSH 40\t\t\t\n      MSTORE \t\t\t\n      PUSH 40\t\t\t\n      MLOAD \t\t\t\n      PUSH [tag] 755\t\t\t\n      SWAP5 \t\t\t\n      SWAP4 \t\t\t\n      SWAP3 \t\t\t\n      SWAP2 \t\t\t\n      SWAP1 \t\t\t\n      PUSH [tag] 756\t\t\t\n      JUMP \t\t\t\n    tag 755\t\t\t\n      JUMPDEST \t\t\t\n      PUSH 20\t\t\t\n      PUSH 40\t\t\t\n      MLOAD \t\t\t\n      PUSH 20\t\t\t\n      DUP2 \t\t\t\n      SUB \t\t\t\n      SWAP1 \t\t\t\n      DUP1 \t\t\t\n      DUP5 \t\t\t\n      SUB \t\t\t\n      SWAP1 \t\t\t\n      DUP6 \t\t\t\n      GAS \t\t\t\n      STATICCALL \t\t\t\n      ISZERO \t\t\t\n      DUP1 \t\t\t\n      ISZERO \t\t\t\n      PUSH [tag] 758\t\t\t\n      JUMPI \t\t\t\n      RETURNDATASIZE \t\t\t\n      PUSH 0\t\t\t\n      DUP1 \t\t\t\n      RETURNDATACOPY \t\t\t\n      RETURNDATASIZE \t\t\t\n      PUSH 0\t\t\t\n      REVERT \t\t\t\n    tag 758\t\t\t\n      JUMPDEST \t\t\t\n      POP \t\t\t\n      POP \t\t\t\n      POP \t\t\t\n      PUSH 20\t\t\t\n      PUSH 40\t\t\t\n      MLOAD \t\t\t\n      SUB \t\t\t\n      MLOAD \t\t\t\n      SWAP1 \t\t\t\n      POP \t\t\t\n      PUSH 0\t\t\t\n      PUSH FFFFFFFFFFFFFFFFFFFFFFFFFFFFFFFFFFFFFFFF\t\t\t\n      AND \t\t\t\n      DUP2 \t\t\t\n      PUSH FFFFFFFFFFFFFFFFFFFFFFFFFFFFFFFFFFFFFFFF\t\t\t\n      AND \t\t\t\n      SUB \t\t\t\n      PUSH [tag] 759\t\t\t\n      JUMPI \t\t\t\n      PUSH 0\t\t\t\n      PUSH 1\t\t\t\n      PUSH 0\t\t\t\n      DUP1 \t\t\t\n      SHL \t\t\t\n      SWAP4 \t\t\t\n      POP \t\t\t\n      SWAP4 \t\t\t\n      POP \t\t\t\n      SWAP4 \t\t\t\n      POP \t\t\t\n      POP \t\t\t\n      PUSH [tag] 753\t\t\t\n      JUMP \t\t\t\n    tag 759\t\t\t\n      JUMPDEST \t\t\t\n      DUP1 \t\t\t\n      PUSH 0\t\t\t\n      DUP1 \t\t\t\n      PUSH 0\t\t\t\n      SHL \t\t\t\n      SWAP4 \t\t\t\n      POP \t\t\t\n      SWAP4 \t\t\t\n      POP \t\t\t\n      SWAP4 \t\t\t\n      POP \t\t\t\n      POP \t\t\t\n    tag 753\t\t\t\n      JUMPDEST \t\t\t\n      SWAP5 \t\t\t\n      POP \t\t\t\n      SWAP5 \t\t\t\n      POP \t\t\t\n      SWAP5 \t\t\t\n      SWAP2 \t\t\t\n      POP \t\t\t\n      POP \t\t\t\n      JUMP \t\t\t\n    tag 628\t\t\t\n      JUMPDEST \t\t\t\n      PUSH 0\t\t\t\n      PUSH 3\t\t\t\n      DUP2 \t\t\t\n      GT \t\t\t\n      ISZERO \t\t\t\n      PUSH [tag] 761\t\t\t\n      JUMPI \t\t\t\n      PUSH [tag] 762\t\t\t\n      PUSH [tag] 763\t\t\t\n      JUMP \t\t\t\n    tag 762\t\t\t\n      JUMPDEST \t\t\t\n    tag 761\t\t\t\n      JUMPDEST \t\t\t\n      DUP3 \t\t\t\n      PUSH 3\t\t\t\n      DUP2 \t\t\t\n      GT \t\t\t\n      ISZERO \t\t\t\n      PUSH [tag] 764\t\t\t\n      JUMPI \t\t\t\n      PUSH [tag] 765\t\t\t\n      PUSH [tag] 763\t\t\t\n      JUMP \t\t\t\n    tag 765\t\t\t\n      JUMPDEST \t\t\t\n    tag 764\t\t\t\n      JUMPDEST \t\t\t\n      SUB \t\t\t\n      ISZERO \t\t\t\n      PUSH [tag] 760\t\t\t\n      JUMPI \t\t\t\n      PUSH 1\t\t\t\n      PUSH 3\t\t\t\n      DUP2 \t\t\t\n      GT \t\t\t\n      ISZERO \t\t\t\n      PUSH [tag] 768\t\t\t\n      JUMPI \t\t\t\n      PUSH [tag] 769\t\t\t\n      PUSH [tag] 763\t\t\t\n      JUMP \t\t\t\n    tag 769\t\t\t\n      JUMPDEST \t\t\t\n    tag 768\t\t\t\n      JUMPDEST \t\t\t\n      DUP3 \t\t\t\n      PUSH 3\t\t\t\n      DUP2 \t\t\t\n      GT \t\t\t\n      ISZERO \t\t\t\n      PUSH [tag] 770\t\t\t\n      JUMPI \t\t\t\n      PUSH [tag] 771\t\t\t\n      PUSH [tag] 763\t\t\t\n      JUMP \t\t\t\n    tag 771\t\t\t\n      JUMPDEST \t\t\t\n    tag 770\t\t\t\n      JUMPDEST \t\t\t\n      SUB \t\t\t\n      PUSH [tag] 772\t\t\t\n      JUMPI \t\t\t\n      PUSH 40\t\t\t\n      MLOAD \t\t\t\n      PUSH F645EEDF00000000000000000000000000000000000000000000000000000000\t\t\t\n      DUP2 \t\t\t\n      MSTORE \t\t\t\n      PUSH 4\t\t\t\n      ADD \t\t\t\n      PUSH 40\t\t\t\n      MLOAD \t\t\t\n      DUP1 \t\t\t\n      SWAP2 \t\t\t\n      SUB \t\t\t\n      SWAP1 \t\t\t\n      REVERT \t\t\t\n    tag 772\t\t\t\n      JUMPDEST \t\t\t\n      PUSH 2\t\t\t\n      PUSH 3\t\t\t\n      DUP2 \t\t\t\n      GT \t\t\t\n      ISZERO \t\t\t\n      PUSH [tag] 774\t\t\t\n      JUMPI \t\t\t\n      PUSH [tag] 775\t\t\t\n      PUSH [tag] 763\t\t\t\n      JUMP \t\t\t\n    tag 775\t\t\t\n      JUMPDEST \t\t\t\n    tag 774\t\t\t\n      JUMPDEST \t\t\t\n      DUP3 \t\t\t\n      PUSH 3\t\t\t\n      DUP2 \t\t\t\n      GT \t\t\t\n      ISZERO \t\t\t\n      PUSH [tag] 776\t\t\t\n      JUMPI \t\t\t\n      PUSH [tag] 777\t\t\t\n      PUSH [tag] 763\t\t\t\n      JUMP \t\t\t\n    tag 777\t\t\t\n      JUMPDEST \t\t\t\n    tag 776\t\t\t\n      JUMPDEST \t\t\t\n      SUB \t\t\t\n      PUSH [tag] 778\t\t\t\n      JUMPI \t\t\t\n      DUP1 \t\t\t\n      PUSH 0\t\t\t\n      SHR \t\t\t\n      PUSH 40\t\t\t\n      MLOAD \t\t\t\n      PUSH FCE698F700000000000000000000000000000000000000000000000000000000\t\t\t\n      DUP2 \t\t\t\n      MSTORE \t\t\t\n      PUSH 4\t\t\t\n      ADD \t\t\t\n      PUSH [tag] 779\t\t\t\n      SWAP2 \t\t\t\n      SWAP1 \t\t\t\n      PUSH [tag] 70\t\t\t\n      JUMP \t\t\t\n    tag 779\t\t\t\n      JUMPDEST \t\t\t\n      PUSH 40\t\t\t\n      MLOAD \t\t\t\n      DUP1 \t\t\t\n      SWAP2 \t\t\t\n      SUB \t\t\t\n      SWAP1 \t\t\t\n      REVERT \t\t\t\n    tag 778\t\t\t\n      JUMPDEST \t\t\t\n      PUSH 3\t\t\t\n      DUP1 \t\t\t\n      DUP2 \t\t\t\n      GT \t\t\t\n      ISZERO \t\t\t\n      PUSH [tag] 781\t\t\t\n      JUMPI \t\t\t\n      PUSH [tag] 782\t\t\t\n      PUSH [tag] 763\t\t\t\n      JUMP \t\t\t\n    tag 782\t\t\t\n      JUMPDEST \t\t\t\n    tag 781\t\t\t\n      JUMPDEST \t\t\t\n      DUP3 \t\t\t\n      PUSH 3\t\t\t\n      DUP2 \t\t\t\n      GT \t\t\t\n      ISZERO \t\t\t\n      PUSH [tag] 783\t\t\t\n      JUMPI \t\t\t\n      PUSH [tag] 784\t\t\t\n      PUSH [tag] 763\t\t\t\n      JUMP \t\t\t\n    tag 784\t\t\t\n      JUMPDEST \t\t\t\n    tag 783\t\t\t\n      JUMPDEST \t\t\t\n      SUB \t\t\t\n      PUSH [tag] 785\t\t\t\n      JUMPI \t\t\t\n      DUP1 \t\t\t\n      PUSH 40\t\t\t\n      MLOAD \t\t\t\n      PUSH D78BCE0C00000000000000000000000000000000000000000000000000000000\t\t\t\n      DUP2 \t\t\t\n      MSTORE \t\t\t\n      PUSH 4\t\t\t\n      ADD \t\t\t\n      PUSH [tag] 786\t\t\t\n      SWAP2 \t\t\t\n      SWAP1 \t\t\t\n      PUSH [tag] 81\t\t\t\n      JUMP \t\t\t\n    tag 786\t\t\t\n      JUMPDEST \t\t\t\n      PUSH 40\t\t\t\n      MLOAD \t\t\t\n      DUP1 \t\t\t\n      SWAP2 \t\t\t\n      SUB \t\t\t\n      SWAP1 \t\t\t\n      REVERT \t\t\t\n    tag 785\t\t\t\n      JUMPDEST \t\t\t\n    tag 760\t\t\t\n      JUMPDEST \t\t\t\n      POP \t\t\t\n      POP \t\t\t\n      JUMP \t\t\t\n    tag 636\t\t\tract QAI is Initializable, ERC...\n      JUMPDEST \t\t\tract QAI is Initializable, ERC...\n      PUSH 0\t\t\turnableUpgradeable, ERC\n      PUSH 5AB42CED628888259C08AC98DB1EB0CF702FC1501344311D8B100CD1BFE4BB00\t\t\tle, ERC20PermitUpgrad\n      SWAP1 \t\t\tlUpgradeable, ERC20PermitUpgra...\n      POP \t\t\tlUpgradeable, ERC20PermitUpgra...\n      SWAP1 \t\t\tract QAI is Initializable, ERC...\n      JUMP \t\t\tract QAI is Initializable, ERC...\n    tag 642\t\t\t\n      JUMPDEST \t\t\t\n      PUSH [tag] 788\t\t\t\n      PUSH [tag] 464\t\t\t\n      JUMP \t\t\t\n    tag 788\t\t\t\n      JUMPDEST \t\t\t\n      DUP3 \t\t\t\n      PUSH 0\t\t\t\n      ADD \t\t\t\n      DUP3 \t\t\t\n      PUSH FFFFFFFF\t\t\t\n      AND \t\t\t\n      DUP2 \t\t\t\n      SLOAD \t\t\t\n      DUP2 \t\t\t\n      LT \t\t\t\n      PUSH [tag] 790\t\t\t\n      JUMPI \t\t\t\n      PUSH [tag] 791\t\t\t\n      PUSH [tag] 792\t\t\t\n      JUMP \t\t\t\n    tag 791\t\t\t\n      JUMPDEST \t\t\t\n    tag 790\t\t\t\n      JUMPDEST \t\t\t\n      SWAP1 \t\t\t\n      PUSH 0\t\t\t\n      MSTORE \t\t\t\n      PUSH 20\t\t\t\n      PUSH 0\t\t\t\n      KECCAK256 \t\t\t\n      ADD \t\t\t\n      PUSH 40\t\t\t\n      MLOAD \t\t\t\n      DUP1 \t\t\t\n      PUSH 40\t\t\t\n      ADD \t\t\t\n      PUSH 40\t\t\t\n      MSTORE \t\t\t\n      SWAP1 \t\t\t\n      DUP2 \t\t\t\n      PUSH 0\t\t\t\n      DUP3 \t\t\t\n      ADD \t\t\t\n      PUSH 0\t\t\t\n      SWAP1 \t\t\t\n      SLOAD \t\t\t\n      SWAP1 \t\t\t\n      PUSH 100\t\t\t\n      EXP \t\t\t\n      SWAP1 \t\t\t\n      DIV \t\t\t\n      PUSH FFFFFFFFFFFF\t\t\t\n      AND \t\t\t\n      PUSH FFFFFFFFFFFF\t\t\t\n      AND \t\t\t\n      PUSH FFFFFFFFFFFF\t\t\t\n      AND \t\t\t\n      DUP2 \t\t\t\n      MSTORE \t\t\t\n      PUSH 20\t\t\t\n      ADD \t\t\t\n      PUSH 0\t\t\t\n      DUP3 \t\t\t\n      ADD \t\t\t\n      PUSH 6\t\t\t\n      SWAP1 \t\t\t\n      SLOAD \t\t\t\n      SWAP1 \t\t\t\n      PUSH 100\t\t\t\n      EXP \t\t\t\n      SWAP1 \t\t\t\n      DIV \t\t\t\n      PUSH FFFFFFFFFFFFFFFFFFFFFFFFFFFFFFFFFFFFFFFFFFFFFFFFFFFF\t\t\t\n      AND \t\t\t\n      PUSH FFFFFFFFFFFFFFFFFFFFFFFFFFFFFFFFFFFFFFFFFFFFFFFFFFFF\t\t\t\n      AND \t\t\t\n      PUSH FFFFFFFFFFFFFFFFFFFFFFFFFFFFFFFFFFFFFFFFFFFFFFFFFFFF\t\t\t\n      AND \t\t\t\n      DUP2 \t\t\t\n      MSTORE \t\t\t\n      POP \t\t\t\n      POP \t\t\t\n      SWAP1 \t\t\t\n      POP \t\t\t\n      SWAP3 \t\t\t\n      SWAP2 \t\t\t\n      POP \t\t\t\n      POP \t\t\t\n      JUMP \t\t\t\n    tag 653\t\t\t\n      JUMPDEST \t\t\t\n      PUSH [tag] 795\t\t\t\n      DUP4 \t\t\t\n      DUP4 \t\t\t\n      DUP4 \t\t\t\n      PUSH [tag] 796\t\t\t\n      JUMP \t\t\t\n    tag 795\t\t\t\n      JUMPDEST \t\t\t\n      PUSH 0\t\t\t\n      PUSH FFFFFFFFFFFFFFFFFFFFFFFFFFFFFFFFFFFFFFFF\t\t\t\n      AND \t\t\t\n      DUP4 \t\t\t\n      PUSH FFFFFFFFFFFFFFFFFFFFFFFFFFFFFFFFFFFFFFFF\t\t\t\n      AND \t\t\t\n      SUB \t\t\t\n      PUSH [tag] 797\t\t\t\n      JUMPI \t\t\t\n      PUSH 0\t\t\t\n      PUSH [tag] 798\t\t\t\n      PUSH [tag] 68\t\t\t\n      JUMP \t\t\t\n    tag 798\t\t\t\n      JUMPDEST \t\t\t\n      SWAP1 \t\t\t\n      POP \t\t\t\n      PUSH 0\t\t\t\n      PUSH [tag] 799\t\t\t\n      PUSH [tag] 800\t\t\t\n      JUMP \t\t\t\n    tag 799\t\t\t\n      JUMPDEST \t\t\t\n      SWAP1 \t\t\t\n      POP \t\t\t\n      DUP1 \t\t\t\n      DUP3 \t\t\t\n      GT \t\t\t\n      ISZERO \t\t\t\n      PUSH [tag] 801\t\t\t\n      JUMPI \t\t\t\n      DUP2 \t\t\t\n      DUP2 \t\t\t\n      PUSH 40\t\t\t\n      MLOAD \t\t\t\n      PUSH 1CB15D2600000000000000000000000000000000000000000000000000000000\t\t\t\n      DUP2 \t\t\t\n      MSTORE \t\t\t\n      PUSH 4\t\t\t\n      ADD \t\t\t\n      PUSH [tag] 802\t\t\t\n      SWAP3 \t\t\t\n      SWAP2 \t\t\t\n      SWAP1 \t\t\t\n      PUSH [tag] 715\t\t\t\n      JUMP \t\t\t\n    tag 802\t\t\t\n      JUMPDEST \t\t\t\n      PUSH 40\t\t\t\n      MLOAD \t\t\t\n      DUP1 \t\t\t\n      SWAP2 \t\t\t\n      SUB \t\t\t\n      SWAP1 \t\t\t\n      REVERT \t\t\t\n    tag 801\t\t\t\n      JUMPDEST \t\t\t\n      POP \t\t\t\n      POP \t\t\t\n    tag 797\t\t\t\n      JUMPDEST \t\t\t\n      PUSH [tag] 803\t\t\t\n      DUP4 \t\t\t\n      DUP4 \t\t\t\n      DUP4 \t\t\t\n      PUSH [tag] 804\t\t\t\n      JUMP \t\t\t\n    tag 803\t\t\t\n      JUMPDEST \t\t\t\n      POP \t\t\t\n      POP \t\t\t\n      POP \t\t\t\n      JUMP \t\t\t\n    tag 661\t\t\t\n      JUMPDEST \t\t\t\n      PUSH 0\t\t\t\n      DUP1 \t\t\t\n      PUSH [tag] 806\t\t\t\n      PUSH [tag] 353\t\t\t\n      JUMP \t\t\t\n    tag 806\t\t\t\n      JUMPDEST \t\t\t\n      SWAP1 \t\t\t\n      POP \t\t\t\n      PUSH 0\t\t\t\n      PUSH [tag] 807\t\t\t\n      PUSH [tag] 359\t\t\t\n      JUMP \t\t\t\n    tag 807\t\t\t\n      JUMPDEST \t\t\t\n      SWAP1 \t\t\t\n      POP \t\t\t\n      PUSH 0\t\t\t\n      DUP2 \t\t\t\n      MLOAD \t\t\t\n      GT \t\t\t\n      ISZERO \t\t\t\n      PUSH [tag] 808\t\t\t\n      JUMPI \t\t\t\n      DUP1 \t\t\t\n      DUP1 \t\t\t\n      MLOAD \t\t\t\n      SWAP1 \t\t\t\n      PUSH 20\t\t\t\n      ADD \t\t\t\n      KECCAK256 \t\t\t\n      SWAP3 \t\t\t\n      POP \t\t\t\n      POP \t\t\t\n      POP \t\t\t\n      PUSH [tag] 805\t\t\t\n      JUMP \t\t\t\n    tag 808\t\t\t\n      JUMPDEST \t\t\t\n      PUSH 0\t\t\t\n      DUP3 \t\t\t\n      PUSH 0\t\t\t\n      ADD \t\t\t\n      SLOAD \t\t\t\n      SWAP1 \t\t\t\n      POP \t\t\t\n      PUSH 0\t\t\t\n      DUP1 \t\t\t\n      SHL \t\t\t\n      DUP2 \t\t\t\n      EQ \t\t\t\n      PUSH [tag] 810\t\t\t\n      JUMPI \t\t\t\n      DUP1 \t\t\t\n      SWAP4 \t\t\t\n      POP \t\t\t\n      POP \t\t\t\n      POP \t\t\t\n      POP \t\t\t\n      PUSH [tag] 805\t\t\t\n      JUMP \t\t\t\n    tag 810\t\t\t\n      JUMPDEST \t\t\t\n      PUSH C5D2460186F7233C927E7DB2DCC703C0E500B653CA82273B7BFAD8045D85A470\t\t\t\n      SWAP4 \t\t\t\n      POP \t\t\t\n      POP \t\t\t\n      POP \t\t\t\n      POP \t\t\t\n    tag 805\t\t\t\n      JUMPDEST \t\t\t\n      SWAP1 \t\t\t\n      JUMP \t\t\t\n    tag 663\t\t\t\n      JUMPDEST \t\t\t\n      PUSH 0\t\t\t\n      DUP1 \t\t\t\n      PUSH [tag] 813\t\t\t\n      PUSH [tag] 353\t\t\t\n      JUMP \t\t\t\n    tag 813\t\t\t\n      JUMPDEST \t\t\t\n      SWAP1 \t\t\t\n      POP \t\t\t\n      PUSH 0\t\t\t\n      PUSH [tag] 814\t\t\t\n      PUSH [tag] 361\t\t\t\n      JUMP \t\t\t\n    tag 814\t\t\t\n      JUMPDEST \t\t\t\n      SWAP1 \t\t\t\n      POP \t\t\t\n      PUSH 0\t\t\t\n      DUP2 \t\t\t\n      MLOAD \t\t\t\n      GT \t\t\t\n      ISZERO \t\t\t\n      PUSH [tag] 815\t\t\t\n      JUMPI \t\t\t\n      DUP1 \t\t\t\n      DUP1 \t\t\t\n      MLOAD \t\t\t\n      SWAP1 \t\t\t\n      PUSH 20\t\t\t\n      ADD \t\t\t\n      KECCAK256 \t\t\t\n      SWAP3 \t\t\t\n      POP \t\t\t\n      POP \t\t\t\n      POP \t\t\t\n      PUSH [tag] 812\t\t\t\n      JUMP \t\t\t\n    tag 815\t\t\t\n      JUMPDEST \t\t\t\n      PUSH 0\t\t\t\n      DUP3 \t\t\t\n      PUSH 1\t\t\t\n      ADD \t\t\t\n      SLOAD \t\t\t\n      SWAP1 \t\t\t\n      POP \t\t\t\n      PUSH 0\t\t\t\n      DUP1 \t\t\t\n      SHL \t\t\t\n      DUP2 \t\t\t\n      EQ \t\t\t\n      PUSH [tag] 817\t\t\t\n      JUMPI \t\t\t\n      DUP1 \t\t\t\n      SWAP4 \t\t\t\n      POP \t\t\t\n      POP \t\t\t\n      POP \t\t\t\n      POP \t\t\t\n      PUSH [tag] 812\t\t\t\n      JUMP \t\t\t\n    tag 817\t\t\t\n      JUMPDEST \t\t\t\n      PUSH C5D2460186F7233C927E7DB2DCC703C0E500B653CA82273B7BFAD8045D85A470\t\t\t\n      SWAP4 \t\t\t\n      POP \t\t\t\n      POP \t\t\t\n      POP \t\t\t\n      POP \t\t\t\n    tag 812\t\t\t\n      JUMPDEST \t\t\t\n      SWAP1 \t\t\t\n      JUMP \t\t\t\n    tag 669\t\t\t\n      JUMPDEST \t\t\t\n      PUSH 0\t\t\t\n      DUP1 \t\t\t\n      PUSH 0\t\t\t\n      SWAP1 \t\t\t\n      POP \t\t\t\n      PUSH 0\t\t\t\n      PUSH 80\t\t\t\n      DUP5 \t\t\t\n      SWAP1 \t\t\t\n      SHR \t\t\t\n      GT \t\t\t\n      ISZERO \t\t\t\n      PUSH [tag] 820\t\t\t\n      JUMPI \t\t\t\n      PUSH 80\t\t\t\n      DUP4 \t\t\t\n      SWAP1 \t\t\t\n      SHR \t\t\t\n      SWAP3 \t\t\t\n      POP \t\t\t\n      PUSH 80\t\t\t\n      DUP2 \t\t\t\n      ADD \t\t\t\n      SWAP1 \t\t\t\n      POP \t\t\t\n    tag 820\t\t\t\n      JUMPDEST \t\t\t\n      PUSH 0\t\t\t\n      PUSH 40\t\t\t\n      DUP5 \t\t\t\n      SWAP1 \t\t\t\n      SHR \t\t\t\n      GT \t\t\t\n      ISZERO \t\t\t\n      PUSH [tag] 821\t\t\t\n      JUMPI \t\t\t\n      PUSH 40\t\t\t\n      DUP4 \t\t\t\n      SWAP1 \t\t\t\n      SHR \t\t\t\n      SWAP3 \t\t\t\n      POP \t\t\t\n      PUSH 40\t\t\t\n      DUP2 \t\t\t\n      ADD \t\t\t\n      SWAP1 \t\t\t\n      POP \t\t\t\n    tag 821\t\t\t\n      JUMPDEST \t\t\t\n      PUSH 0\t\t\t\n      PUSH 20\t\t\t\n      DUP5 \t\t\t\n      SWAP1 \t\t\t\n      SHR \t\t\t\n      GT \t\t\t\n      ISZERO \t\t\t\n      PUSH [tag] 822\t\t\t\n      JUMPI \t\t\t\n      PUSH 20\t\t\t\n      DUP4 \t\t\t\n      SWAP1 \t\t\t\n      SHR \t\t\t\n      SWAP3 \t\t\t\n      POP \t\t\t\n      PUSH 20\t\t\t\n      DUP2 \t\t\t\n      ADD \t\t\t\n      SWAP1 \t\t\t\n      POP \t\t\t\n    tag 822\t\t\t\n      JUMPDEST \t\t\t\n      PUSH 0\t\t\t\n      PUSH 10\t\t\t\n      DUP5 \t\t\t\n      SWAP1 \t\t\t\n      SHR \t\t\t\n      GT \t\t\t\n      ISZERO \t\t\t\n      PUSH [tag] 823\t\t\t\n      JUMPI \t\t\t\n      PUSH 10\t\t\t\n      DUP4 \t\t\t\n      SWAP1 \t\t\t\n      SHR \t\t\t\n      SWAP3 \t\t\t\n      POP \t\t\t\n      PUSH 10\t\t\t\n      DUP2 \t\t\t\n      ADD \t\t\t\n      SWAP1 \t\t\t\n      POP \t\t\t\n    tag 823\t\t\t\n      JUMPDEST \t\t\t\n      PUSH 0\t\t\t\n      PUSH 8\t\t\t\n      DUP5 \t\t\t\n      SWAP1 \t\t\t\n      SHR \t\t\t\n      GT \t\t\t\n      ISZERO \t\t\t\n      PUSH [tag] 824\t\t\t\n      JUMPI \t\t\t\n      PUSH 8\t\t\t\n      DUP4 \t\t\t\n      SWAP1 \t\t\t\n      SHR \t\t\t\n      SWAP3 \t\t\t\n      POP \t\t\t\n      PUSH 8\t\t\t\n      DUP2 \t\t\t\n      ADD \t\t\t\n      SWAP1 \t\t\t\n      POP \t\t\t\n    tag 824\t\t\t\n      JUMPDEST \t\t\t\n      PUSH 0\t\t\t\n      PUSH 4\t\t\t\n      DUP5 \t\t\t\n      SWAP1 \t\t\t\n      SHR \t\t\t\n      GT \t\t\t\n      ISZERO \t\t\t\n      PUSH [tag] 825\t\t\t\n      JUMPI \t\t\t\n      PUSH 4\t\t\t\n      DUP4 \t\t\t\n      SWAP1 \t\t\t\n      SHR \t\t\t\n      SWAP3 \t\t\t\n      POP \t\t\t\n      PUSH 4\t\t\t\n      DUP2 \t\t\t\n      ADD \t\t\t\n      SWAP1 \t\t\t\n      POP \t\t\t\n    tag 825\t\t\t\n      JUMPDEST \t\t\t\n      PUSH 0\t\t\t\n      PUSH 2\t\t\t\n      DUP5 \t\t\t\n      SWAP1 \t\t\t\n      SHR \t\t\t\n      GT \t\t\t\n      ISZERO \t\t\t\n      PUSH [tag] 826\t\t\t\n      JUMPI \t\t\t\n      PUSH 2\t\t\t\n      DUP4 \t\t\t\n      SWAP1 \t\t\t\n      SHR \t\t\t\n      SWAP3 \t\t\t\n      POP \t\t\t\n      PUSH 2\t\t\t\n      DUP2 \t\t\t\n      ADD \t\t\t\n      SWAP1 \t\t\t\n      POP \t\t\t\n    tag 826\t\t\t\n      JUMPDEST \t\t\t\n      PUSH 0\t\t\t\n      PUSH 1\t\t\t\n      DUP5 \t\t\t\n      SWAP1 \t\t\t\n      SHR \t\t\t\n      GT \t\t\t\n      ISZERO \t\t\t\n      PUSH [tag] 827\t\t\t\n      JUMPI \t\t\t\n      PUSH 1\t\t\t\n      DUP2 \t\t\t\n      ADD \t\t\t\n      SWAP1 \t\t\t\n      POP \t\t\t\n    tag 827\t\t\t\n      JUMPDEST \t\t\t\n      DUP1 \t\t\t\n      SWAP2 \t\t\t\n      POP \t\t\t\n      POP \t\t\t\n      SWAP2 \t\t\t\n      SWAP1 \t\t\t\n      POP \t\t\t\n      JUMP \t\t\t\n    tag 688\t\t\treturns (uint256)\\n    {\\n    ...\n      JUMPDEST \t\t\treturns (uint256)\\n    {\\n    ...\n      PUSH 0\t\t\t;\\n    }\n      DUP2 \t\t\t\n      DUP4 \t\t\t\n      LT \t\t\t\n      PUSH [tag] 829\t\t\t\n      JUMPI \t\t\t\n      DUP2 \t\t\t\n      PUSH [tag] 830\t\t\t\n      JUMP \t\t\t\n    tag 829\t\t\t\n      JUMPDEST \t\t\t\n      DUP3 \t\t\t\n    tag 830\t\t\t\n      JUMPDEST \t\t\t\n      SWAP1 \t\t\t\n      POP \t\t\t\n      SWAP3 \t\t\treturns (uint256)\\n    {\\n    ...\n      SWAP2 \t\t\treturns (uint256)\\n    {\\n    ...\n      POP \t\t\treturns (uint256)\\n    {\\n    ...\n      POP \t\t\treturns (uint256)\\n    {\\n    ...\n      JUMP \t\t\treturns (uint256)\\n    {\\n    ...\n    tag 694\t\t\t\n      JUMPDEST \t\t\t\n      PUSH 0\t\t\t\n      PUSH 2\t\t\t\n      DUP3 \t\t\t\n      DUP5 \t\t\t\n      XOR \t\t\t\n      PUSH [tag] 832\t\t\t\n      SWAP2 \t\t\t\n      SWAP1 \t\t\t\n      PUSH [tag] 833\t\t\t\n      JUMP \t\t\t\n    tag 832\t\t\t\n      JUMPDEST \t\t\t\n      DUP3 \t\t\t\n      DUP5 \t\t\t\n      AND \t\t\t\n      PUSH [tag] 834\t\t\t\n      SWAP2 \t\t\t\n      SWAP1 \t\t\t\n      PUSH [tag] 320\t\t\t\n      JUMP \t\t\t\n    tag 834\t\t\t\n      JUMPDEST \t\t\t\n      SWAP1 \t\t\t\n      POP \t\t\t\n      SWAP3 \t\t\t\n      SWAP2 \t\t\t\n      POP \t\t\t\n      POP \t\t\t\n      JUMP \t\t\t\n    tag 710\t\t\t\n      JUMPDEST \t\t\t\n      PUSH 0\t\t\t\n      DUP2 \t\t\t\n      DUP4 \t\t\t\n      PUSH [tag] 836\t\t\t\n      SWAP2 \t\t\t\n      SWAP1 \t\t\t\n      PUSH [tag] 837\t\t\t\n      JUMP \t\t\t\n    tag 836\t\t\t\n      JUMPDEST \t\t\t\n      SWAP1 \t\t\t\n      POP \t\t\t\n      SWAP3 \t\t\t\n      SWAP2 \t\t\t\n      POP \t\t\t\n      POP \t\t\t\n      JUMP \t\t\t\n    tag 712\t\t\t\n      JUMPDEST \t\t\t\n      PUSH 0\t\t\t\n      PUSH FFFFFFFFFFFFFFFFFFFFFFFFFFFFFFFFFFFFFFFFFFFFFFFFFFFF\t\t\t\n      DUP1 \t\t\t\n      AND \t\t\t\n      DUP3 \t\t\t\n      GT \t\t\t\n      ISZERO \t\t\t\n      PUSH [tag] 839\t\t\t\n      JUMPI \t\t\t\n      PUSH D0\t\t\t\n      DUP3 \t\t\t\n      PUSH 40\t\t\t\n      MLOAD \t\t\t\n      PUSH 6DFCC65000000000000000000000000000000000000000000000000000000000\t\t\t\n      DUP2 \t\t\t\n      MSTORE \t\t\t\n      PUSH 4\t\t\t\n      ADD \t\t\t\n      PUSH [tag] 840\t\t\t\n      SWAP3 \t\t\t\n      SWAP2 \t\t\t\n      SWAP1 \t\t\t\n      PUSH [tag] 841\t\t\t\n      JUMP \t\t\t\n    tag 840\t\t\t\n      JUMPDEST \t\t\t\n      PUSH 40\t\t\t\n      MLOAD \t\t\t\n      DUP1 \t\t\t\n      SWAP2 \t\t\t\n      SUB \t\t\t\n      SWAP1 \t\t\t\n      REVERT \t\t\t\n    tag 839\t\t\t\n      JUMPDEST \t\t\t\n      DUP2 \t\t\t\n      SWAP1 \t\t\t\n      POP \t\t\t\n      SWAP2 \t\t\t\n      SWAP1 \t\t\t\n      POP \t\t\t\n      JUMP \t\t\t\n    tag 713\t\t\t\n      JUMPDEST \t\t\t\n      PUSH 0\t\t\t\n      DUP1 \t\t\t\n      PUSH [tag] 843\t\t\t\n      PUSH [tag] 844\t\t\t\n      PUSH [tag] 164\t\t\t\n      JUMP \t\t\t\n    tag 844\t\t\t\n      JUMPDEST \t\t\t\n      PUSH [tag] 845\t\t\t\n      PUSH [tag] 846\t\t\t\n      DUP9 \t\t\t\n      PUSH [tag] 387\t\t\t\n      JUMP \t\t\t\n    tag 846\t\t\t\n      JUMPDEST \t\t\t\n      DUP7 \t\t\t\n      DUP9 \t\t\t\n      PUSH FFFFFFFF\t\t\t\n      AND \t\t\t\n      JUMP \t\t\t\n    tag 845\t\t\t\n      JUMPDEST \t\t\t\n      DUP8 \t\t\t\n      PUSH [tag] 847\t\t\t\n      SWAP1 \t\t\t\n      SWAP3 \t\t\t\n      SWAP2 \t\t\t\n      SWAP1 \t\t\t\n      PUSH FFFFFFFF\t\t\t\n      AND \t\t\t\n      JUMP \t\t\t\n    tag 843\t\t\t\n      JUMPDEST \t\t\t\n      SWAP2 \t\t\t\n      POP \t\t\t\n      SWAP2 \t\t\t\n      POP \t\t\t\n      SWAP4 \t\t\t\n      POP \t\t\t\n      SWAP4 \t\t\t\n      SWAP2 \t\t\t\n      POP \t\t\t\n      POP \t\t\t\n      JUMP \t\t\t\n    tag 718\t\t\t\n      JUMPDEST \t\t\t\n      PUSH 0\t\t\t\n      DUP2 \t\t\t\n      DUP4 \t\t\t\n      PUSH [tag] 849\t\t\t\n      SWAP2 \t\t\t\n      SWAP1 \t\t\t\n      PUSH [tag] 850\t\t\t\n      JUMP \t\t\t\n    tag 849\t\t\t\n      JUMPDEST \t\t\t\n      SWAP1 \t\t\t\n      POP \t\t\t\n      SWAP3 \t\t\t\n      SWAP2 \t\t\t\n      POP \t\t\t\n      POP \t\t\t\n      JUMP \t\t\t\n    tag 733\t\t\t\n      JUMPDEST \t\t\t\n      PUSH 0\t\t\t\n      PUSH [tag] 852\t\t\t\n      PUSH [tag] 393\t\t\t\n      JUMP \t\t\t\n    tag 852\t\t\t\n      JUMPDEST \t\t\t\n      PUSH 0\t\t\t\n      ADD \t\t\t\n      PUSH 8\t\t\t\n      SWAP1 \t\t\t\n      SLOAD \t\t\t\n      SWAP1 \t\t\t\n      PUSH 100\t\t\t\n      EXP \t\t\t\n      SWAP1 \t\t\t\n      DIV \t\t\t\n      PUSH FF\t\t\t\n      AND \t\t\t\n      SWAP1 \t\t\t\n      POP \t\t\t\n      SWAP1 \t\t\t\n      JUMP \t\t\t\n    tag 796\t\t\tit(\"QAI\", \"AI\");\\n        __ER...\n      JUMPDEST \t\t\tit(\"QAI\", \"AI\");\\n        __ER...\n      PUSH [tag] 854\t\t\tdeable, ERC20Pausab\n      PUSH [tag] 566\t\t\tdeable, ERC20Paus\n      JUMP \t\t\tdeable, ERC20Pausab\n    tag 854\t\t\tdeable, ERC20Pausab\n      JUMPDEST \t\t\tdeable, ERC20Pausab\n      PUSH [tag] 856\t\t\tt();\\n        __ERC20Permit_in...\n      DUP4 \t\t\t_ERC\n      DUP4 \t\t\tPe\n      DUP4 \t\t\tit_in\n      PUSH [tag] 857\t\t\tt();\\n        \n      JUMP \t\t\tt();\\n        __ERC20Permit_in...\n    tag 856\t\t\tt();\\n        __ERC20Permit_in...\n      JUMPDEST \t\t\tt();\\n        __ERC20Permit_in...\n      POP \t\t\tit(\"QAI\", \"AI\");\\n        __ER...\n      POP \t\t\tit(\"QAI\", \"AI\");\\n        __ER...\n      POP \t\t\tit(\"QAI\", \"AI\");\\n        __ER...\n      JUMP \t\t\tit(\"QAI\", \"AI\");\\n        __ER...\n    tag 800\t\t\t to, value);\\n    }\\n\\n    fun...\n      JUMPDEST \t\t\t to, value);\\n    }\\n\\n    fun...\n      PUSH 0\t\t\t)\\n     \n      PUSH FFFFFFFFFFFFFFFFFFFFFFFFFFFFFFFFFFFFFFFFFFFFFFFFFFFF\t\t\tiew\\n        overr\n      DUP1 \t\t\t      view\\n        overr\n      AND \t\t\t      view\\n        overr\n      SWAP1 \t\t\t      view\\n        overr\n      POP \t\t\t      view\\n        overr\n      SWAP1 \t\t\t to, value);\\n    }\\n\\n    fun...\n      JUMP \t\t\t to, value);\\n    }\\n\\n    fun...\n    tag 804\t\t\t\n      JUMPDEST \t\t\t\n      PUSH 0\t\t\t\n      PUSH [tag] 860\t\t\t\n      PUSH [tag] 264\t\t\t\n      JUMP \t\t\t\n    tag 860\t\t\t\n      JUMPDEST \t\t\t\n      SWAP1 \t\t\t\n      POP \t\t\t\n      PUSH 0\t\t\t\n      PUSH FFFFFFFFFFFFFFFFFFFFFFFFFFFFFFFFFFFFFFFF\t\t\t\n      AND \t\t\t\n      DUP5 \t\t\t\n      PUSH FFFFFFFFFFFFFFFFFFFFFFFFFFFFFFFFFFFFFFFF\t\t\t\n      AND \t\t\t\n      SUB \t\t\t\n      PUSH [tag] 861\t\t\t\n      JUMPI \t\t\t\n      PUSH [tag] 862\t\t\t\n      DUP2 \t\t\t\n      PUSH 2\t\t\t\n      ADD \t\t\t\n      PUSH [tag] 718\t\t\t\n      PUSH [tag] 863\t\t\t\n      DUP6 \t\t\t\n      PUSH [tag] 712\t\t\t\n      JUMP \t\t\t\n    tag 863\t\t\t\n      JUMPDEST \t\t\t\n      PUSH [tag] 713\t\t\t\n      JUMP \t\t\t\n    tag 862\t\t\t\n      JUMPDEST \t\t\t\n      POP \t\t\t\n      POP \t\t\t\n    tag 861\t\t\t\n      JUMPDEST \t\t\t\n      PUSH 0\t\t\t\n      PUSH FFFFFFFFFFFFFFFFFFFFFFFFFFFFFFFFFFFFFFFF\t\t\t\n      AND \t\t\t\n      DUP4 \t\t\t\n      PUSH FFFFFFFFFFFFFFFFFFFFFFFFFFFFFFFFFFFFFFFF\t\t\t\n      AND \t\t\t\n      SUB \t\t\t\n      PUSH [tag] 864\t\t\t\n      JUMPI \t\t\t\n      PUSH [tag] 865\t\t\t\n      DUP2 \t\t\t\n      PUSH 2\t\t\t\n      ADD \t\t\t\n      PUSH [tag] 710\t\t\t\n      PUSH [tag] 866\t\t\t\n      DUP6 \t\t\t\n      PUSH [tag] 712\t\t\t\n      JUMP \t\t\t\n    tag 866\t\t\t\n      JUMPDEST \t\t\t\n      PUSH [tag] 713\t\t\t\n      JUMP \t\t\t\n    tag 865\t\t\t\n      JUMPDEST \t\t\t\n      POP \t\t\t\n      POP \t\t\t\n    tag 864\t\t\t\n      JUMPDEST \t\t\t\n      PUSH [tag] 867\t\t\t\n      PUSH [tag] 868\t\t\t\n      DUP6 \t\t\t\n      PUSH [tag] 115\t\t\t\n      JUMP \t\t\t\n    tag 868\t\t\t\n      JUMPDEST \t\t\t\n      PUSH [tag] 869\t\t\t\n      DUP6 \t\t\t\n      PUSH [tag] 115\t\t\t\n      JUMP \t\t\t\n    tag 869\t\t\t\n      JUMPDEST \t\t\t\n      DUP5 \t\t\t\n      PUSH [tag] 552\t\t\t\n      JUMP \t\t\t\n    tag 867\t\t\t\n      JUMPDEST \t\t\t\n      POP \t\t\t\n      POP \t\t\t\n      POP \t\t\t\n      POP \t\t\t\n      JUMP \t\t\t\n    tag 847\t\t\t\n      JUMPDEST \t\t\t\n      PUSH 0\t\t\t\n      DUP1 \t\t\t\n      PUSH [tag] 871\t\t\t\n      DUP6 \t\t\t\n      PUSH 0\t\t\t\n      ADD \t\t\t\n      DUP6 \t\t\t\n      DUP6 \t\t\t\n      PUSH [tag] 872\t\t\t\n      JUMP \t\t\t\n    tag 871\t\t\t\n      JUMPDEST \t\t\t\n      SWAP2 \t\t\t\n      POP \t\t\t\n      SWAP2 \t\t\t\n      POP \t\t\t\n      SWAP4 \t\t\t\n      POP \t\t\t\n      SWAP4 \t\t\t\n      SWAP2 \t\t\t\n      POP \t\t\t\n      POP \t\t\t\n      JUMP \t\t\t\n    tag 857\t\t\t\n      JUMPDEST \t\t\t\n      PUSH 0\t\t\t\n      PUSH [tag] 874\t\t\t\n      PUSH [tag] 223\t\t\t\n      JUMP \t\t\t\n    tag 874\t\t\t\n      JUMPDEST \t\t\t\n      SWAP1 \t\t\t\n      POP \t\t\t\n      PUSH 0\t\t\t\n      PUSH FFFFFFFFFFFFFFFFFFFFFFFFFFFFFFFFFFFFFFFF\t\t\t\n      AND \t\t\t\n      DUP5 \t\t\t\n      PUSH FFFFFFFFFFFFFFFFFFFFFFFFFFFFFFFFFFFFFFFF\t\t\t\n      AND \t\t\t\n      SUB \t\t\t\n      PUSH [tag] 875\t\t\t\n      JUMPI \t\t\t\n      DUP2 \t\t\t\n      DUP2 \t\t\t\n      PUSH 2\t\t\t\n      ADD \t\t\t\n      PUSH 0\t\t\t\n      DUP3 \t\t\t\n      DUP3 \t\t\t\n      SLOAD \t\t\t\n      PUSH [tag] 876\t\t\t\n      SWAP2 \t\t\t\n      SWAP1 \t\t\t\n      PUSH [tag] 320\t\t\t\n      JUMP \t\t\t\n    tag 876\t\t\t\n      JUMPDEST \t\t\t\n      SWAP3 \t\t\t\n      POP \t\t\t\n      POP \t\t\t\n      DUP2 \t\t\t\n      SWAP1 \t\t\t\n      SSTORE \t\t\t\n      POP \t\t\t\n      PUSH [tag] 877\t\t\t\n      JUMP \t\t\t\n    tag 875\t\t\t\n      JUMPDEST \t\t\t\n      PUSH 0\t\t\t\n      DUP2 \t\t\t\n      PUSH 0\t\t\t\n      ADD \t\t\t\n      PUSH 0\t\t\t\n      DUP7 \t\t\t\n      PUSH FFFFFFFFFFFFFFFFFFFFFFFFFFFFFFFFFFFFFFFF\t\t\t\n      AND \t\t\t\n      PUSH FFFFFFFFFFFFFFFFFFFFFFFFFFFFFFFFFFFFFFFF\t\t\t\n      AND \t\t\t\n      DUP2 \t\t\t\n      MSTORE \t\t\t\n      PUSH 20\t\t\t\n      ADD \t\t\t\n      SWAP1 \t\t\t\n      DUP2 \t\t\t\n      MSTORE \t\t\t\n      PUSH 20\t\t\t\n      ADD \t\t\t\n      PUSH 0\t\t\t\n      KECCAK256 \t\t\t\n      SLOAD \t\t\t\n      SWAP1 \t\t\t\n      POP \t\t\t\n      DUP3 \t\t\t\n      DUP2 \t\t\t\n      LT \t\t\t\n      ISZERO \t\t\t\n      PUSH [tag] 878\t\t\t\n      JUMPI \t\t\t\n      DUP5 \t\t\t\n      DUP2 \t\t\t\n      DUP5 \t\t\t\n      PUSH 40\t\t\t\n      MLOAD \t\t\t\n      PUSH E450D38C00000000000000000000000000000000000000000000000000000000\t\t\t\n      DUP2 \t\t\t\n      MSTORE \t\t\t\n      PUSH 4\t\t\t\n      ADD \t\t\t\n      PUSH [tag] 879\t\t\t\n      SWAP4 \t\t\t\n      SWAP3 \t\t\t\n      SWAP2 \t\t\t\n      SWAP1 \t\t\t\n      PUSH [tag] 479\t\t\t\n      JUMP \t\t\t\n    tag 879\t\t\t\n      JUMPDEST \t\t\t\n      PUSH 40\t\t\t\n      MLOAD \t\t\t\n      DUP1 \t\t\t\n      SWAP2 \t\t\t\n      SUB \t\t\t\n      SWAP1 \t\t\t\n      REVERT \t\t\t\n    tag 878\t\t\t\n      JUMPDEST \t\t\t\n      DUP3 \t\t\t\n      DUP2 \t\t\t\n      SUB \t\t\t\n      DUP3 \t\t\t\n      PUSH 0\t\t\t\n      ADD \t\t\t\n      PUSH 0\t\t\t\n      DUP8 \t\t\t\n      PUSH FFFFFFFFFFFFFFFFFFFFFFFFFFFFFFFFFFFFFFFF\t\t\t\n      AND \t\t\t\n      PUSH FFFFFFFFFFFFFFFFFFFFFFFFFFFFFFFFFFFFFFFF\t\t\t\n      AND \t\t\t\n      DUP2 \t\t\t\n      MSTORE \t\t\t\n      PUSH 20\t\t\t\n      ADD \t\t\t\n      SWAP1 \t\t\t\n      DUP2 \t\t\t\n      MSTORE \t\t\t\n      PUSH 20\t\t\t\n      ADD \t\t\t\n      PUSH 0\t\t\t\n      KECCAK256 \t\t\t\n      DUP2 \t\t\t\n      SWAP1 \t\t\t\n      SSTORE \t\t\t\n      POP \t\t\t\n      POP \t\t\t\n    tag 877\t\t\t\n      JUMPDEST \t\t\t\n      PUSH 0\t\t\t\n      PUSH FFFFFFFFFFFFFFFFFFFFFFFFFFFFFFFFFFFFFFFF\t\t\t\n      AND \t\t\t\n      DUP4 \t\t\t\n      PUSH FFFFFFFFFFFFFFFFFFFFFFFFFFFFFFFFFFFFFFFF\t\t\t\n      AND \t\t\t\n      SUB \t\t\t\n      PUSH [tag] 880\t\t\t\n      JUMPI \t\t\t\n      DUP2 \t\t\t\n      DUP2 \t\t\t\n      PUSH 2\t\t\t\n      ADD \t\t\t\n      PUSH 0\t\t\t\n      DUP3 \t\t\t\n      DUP3 \t\t\t\n      SLOAD \t\t\t\n      SUB \t\t\t\n      SWAP3 \t\t\t\n      POP \t\t\t\n      POP \t\t\t\n      DUP2 \t\t\t\n      SWAP1 \t\t\t\n      SSTORE \t\t\t\n      POP \t\t\t\n      PUSH [tag] 881\t\t\t\n      JUMP \t\t\t\n    tag 880\t\t\t\n      JUMPDEST \t\t\t\n      DUP2 \t\t\t\n      DUP2 \t\t\t\n      PUSH 0\t\t\t\n      ADD \t\t\t\n      PUSH 0\t\t\t\n      DUP6 \t\t\t\n      PUSH FFFFFFFFFFFFFFFFFFFFFFFFFFFFFFFFFFFFFFFF\t\t\t\n      AND \t\t\t\n      PUSH FFFFFFFFFFFFFFFFFFFFFFFFFFFFFFFFFFFFFFFF\t\t\t\n      AND \t\t\t\n      DUP2 \t\t\t\n      MSTORE \t\t\t\n      PUSH 20\t\t\t\n      ADD \t\t\t\n      SWAP1 \t\t\t\n      DUP2 \t\t\t\n      MSTORE \t\t\t\n      PUSH 20\t\t\t\n      ADD \t\t\t\n      PUSH 0\t\t\t\n      KECCAK256 \t\t\t\n      PUSH 0\t\t\t\n      DUP3 \t\t\t\n      DUP3 \t\t\t\n      SLOAD \t\t\t\n      ADD \t\t\t\n      SWAP3 \t\t\t\n      POP \t\t\t\n      POP \t\t\t\n      DUP2 \t\t\t\n      SWAP1 \t\t\t\n      SSTORE \t\t\t\n      POP \t\t\t\n    tag 881\t\t\t\n      JUMPDEST \t\t\t\n      DUP3 \t\t\t\n      PUSH FFFFFFFFFFFFFFFFFFFFFFFFFFFFFFFFFFFFFFFF\t\t\t\n      AND \t\t\t\n      DUP5 \t\t\t\n      PUSH FFFFFFFFFFFFFFFFFFFFFFFFFFFFFFFFFFFFFFFF\t\t\t\n      AND \t\t\t\n      PUSH DDF252AD1BE2C89B69C2B068FC378DAA952BA7F163C4A11628F55A4DF523B3EF\t\t\t\n      DUP5 \t\t\t\n      PUSH 40\t\t\t\n      MLOAD \t\t\t\n      PUSH [tag] 882\t\t\t\n      SWAP2 \t\t\t\n      SWAP1 \t\t\t\n      PUSH [tag] 70\t\t\t\n      JUMP \t\t\t\n    tag 882\t\t\t\n      JUMPDEST \t\t\t\n      PUSH 40\t\t\t\n      MLOAD \t\t\t\n      DUP1 \t\t\t\n      SWAP2 \t\t\t\n      SUB \t\t\t\n      SWAP1 \t\t\t\n      LOG3 \t\t\t\n      POP \t\t\t\n      POP \t\t\t\n      POP \t\t\t\n      POP \t\t\t\n      JUMP \t\t\t\n    tag 872\t\t\t\n      JUMPDEST \t\t\t\n      PUSH 0\t\t\t\n      DUP1 \t\t\t\n      PUSH 0\t\t\t\n      DUP6 \t\t\t\n      DUP1 \t\t\t\n      SLOAD \t\t\t\n      SWAP1 \t\t\t\n      POP \t\t\t\n      SWAP1 \t\t\t\n      POP \t\t\t\n      PUSH 0\t\t\t\n      DUP2 \t\t\t\n      GT \t\t\t\n      ISZERO \t\t\t\n      PUSH [tag] 884\t\t\t\n      JUMPI \t\t\t\n      PUSH 0\t\t\t\n      PUSH [tag] 885\t\t\t\n      DUP8 \t\t\t\n      PUSH 1\t\t\t\n      DUP5 \t\t\t\n      PUSH [tag] 886\t\t\t\n      SWAP2 \t\t\t\n      SWAP1 \t\t\t\n      PUSH [tag] 333\t\t\t\n      JUMP \t\t\t\n    tag 886\t\t\t\n      JUMPDEST \t\t\t\n      PUSH [tag] 519\t\t\t\n      JUMP \t\t\t\n    tag 885\t\t\t\n      JUMPDEST \t\t\t\n      PUSH 40\t\t\t\n      MLOAD \t\t\t\n      DUP1 \t\t\t\n      PUSH 40\t\t\t\n      ADD \t\t\t\n      PUSH 40\t\t\t\n      MSTORE \t\t\t\n      SWAP1 \t\t\t\n      DUP2 \t\t\t\n      PUSH 0\t\t\t\n      DUP3 \t\t\t\n      ADD \t\t\t\n      PUSH 0\t\t\t\n      SWAP1 \t\t\t\n      SLOAD \t\t\t\n      SWAP1 \t\t\t\n      PUSH 100\t\t\t\n      EXP \t\t\t\n      SWAP1 \t\t\t\n      DIV \t\t\t\n      PUSH FFFFFFFFFFFF\t\t\t\n      AND \t\t\t\n      PUSH FFFFFFFFFFFF\t\t\t\n      AND \t\t\t\n      PUSH FFFFFFFFFFFF\t\t\t\n      AND \t\t\t\n      DUP2 \t\t\t\n      MSTORE \t\t\t\n      PUSH 20\t\t\t\n      ADD \t\t\t\n      PUSH 0\t\t\t\n      DUP3 \t\t\t\n      ADD \t\t\t\n      PUSH 6\t\t\t\n      SWAP1 \t\t\t\n      SLOAD \t\t\t\n      SWAP1 \t\t\t\n      PUSH 100\t\t\t\n      EXP \t\t\t\n      SWAP1 \t\t\t\n      DIV \t\t\t\n      PUSH FFFFFFFFFFFFFFFFFFFFFFFFFFFFFFFFFFFFFFFFFFFFFFFFFFFF\t\t\t\n      AND \t\t\t\n      PUSH FFFFFFFFFFFFFFFFFFFFFFFFFFFFFFFFFFFFFFFFFFFFFFFFFFFF\t\t\t\n      AND \t\t\t\n      PUSH FFFFFFFFFFFFFFFFFFFFFFFFFFFFFFFFFFFFFFFFFFFFFFFFFFFF\t\t\t\n      AND \t\t\t\n      DUP2 \t\t\t\n      MSTORE \t\t\t\n      POP \t\t\t\n      POP \t\t\t\n      SWAP1 \t\t\t\n      POP \t\t\t\n      DUP6 \t\t\t\n      PUSH FFFFFFFFFFFF\t\t\t\n      AND \t\t\t\n      DUP2 \t\t\t\n      PUSH 0\t\t\t\n      ADD \t\t\t\n      MLOAD \t\t\t\n      PUSH FFFFFFFFFFFF\t\t\t\n      AND \t\t\t\n      GT \t\t\t\n      ISZERO \t\t\t\n      PUSH [tag] 887\t\t\t\n      JUMPI \t\t\t\n      PUSH 40\t\t\t\n      MLOAD \t\t\t\n      PUSH 2520601D00000000000000000000000000000000000000000000000000000000\t\t\t\n      DUP2 \t\t\t\n      MSTORE \t\t\t\n      PUSH 4\t\t\t\n      ADD \t\t\t\n      PUSH 40\t\t\t\n      MLOAD \t\t\t\n      DUP1 \t\t\t\n      SWAP2 \t\t\t\n      SUB \t\t\t\n      SWAP1 \t\t\t\n      REVERT \t\t\t\n    tag 887\t\t\t\n      JUMPDEST \t\t\t\n      DUP6 \t\t\t\n      PUSH FFFFFFFFFFFF\t\t\t\n      AND \t\t\t\n      DUP2 \t\t\t\n      PUSH 0\t\t\t\n      ADD \t\t\t\n      MLOAD \t\t\t\n      PUSH FFFFFFFFFFFF\t\t\t\n      AND \t\t\t\n      SUB \t\t\t\n      PUSH [tag] 888\t\t\t\n      JUMPI \t\t\t\n      DUP5 \t\t\t\n      PUSH [tag] 889\t\t\t\n      DUP9 \t\t\t\n      PUSH 1\t\t\t\n      DUP6 \t\t\t\n      PUSH [tag] 890\t\t\t\n      SWAP2 \t\t\t\n      SWAP1 \t\t\t\n      PUSH [tag] 333\t\t\t\n      JUMP \t\t\t\n    tag 890\t\t\t\n      JUMPDEST \t\t\t\n      PUSH [tag] 519\t\t\t\n      JUMP \t\t\t\n    tag 889\t\t\t\n      JUMPDEST \t\t\t\n      PUSH 0\t\t\t\n      ADD \t\t\t\n      PUSH 6\t\t\t\n      PUSH 100\t\t\t\n      EXP \t\t\t\n      DUP2 \t\t\t\n      SLOAD \t\t\t\n      DUP2 \t\t\t\n      PUSH FFFFFFFFFFFFFFFFFFFFFFFFFFFFFFFFFFFFFFFFFFFFFFFFFFFF\t\t\t\n      MUL \t\t\t\n      NOT \t\t\t\n      AND \t\t\t\n      SWAP1 \t\t\t\n      DUP4 \t\t\t\n      PUSH FFFFFFFFFFFFFFFFFFFFFFFFFFFFFFFFFFFFFFFFFFFFFFFFFFFF\t\t\t\n      AND \t\t\t\n      MUL \t\t\t\n      OR \t\t\t\n      SWAP1 \t\t\t\n      SSTORE \t\t\t\n      POP \t\t\t\n      PUSH [tag] 891\t\t\t\n      JUMP \t\t\t\n    tag 888\t\t\t\n      JUMPDEST \t\t\t\n      DUP7 \t\t\t\n      PUSH 40\t\t\t\n      MLOAD \t\t\t\n      DUP1 \t\t\t\n      PUSH 40\t\t\t\n      ADD \t\t\t\n      PUSH 40\t\t\t\n      MSTORE \t\t\t\n      DUP1 \t\t\t\n      DUP9 \t\t\t\n      PUSH FFFFFFFFFFFF\t\t\t\n      AND \t\t\t\n      DUP2 \t\t\t\n      MSTORE \t\t\t\n      PUSH 20\t\t\t\n      ADD \t\t\t\n      DUP8 \t\t\t\n      PUSH FFFFFFFFFFFFFFFFFFFFFFFFFFFFFFFFFFFFFFFFFFFFFFFFFFFF\t\t\t\n      AND \t\t\t\n      DUP2 \t\t\t\n      MSTORE \t\t\t\n      POP \t\t\t\n      SWAP1 \t\t\t\n      DUP1 \t\t\t\n      PUSH 1\t\t\t\n      DUP2 \t\t\t\n      SLOAD \t\t\t\n      ADD \t\t\t\n      DUP1 \t\t\t\n      DUP3 \t\t\t\n      SSTORE \t\t\t\n      DUP1 \t\t\t\n      SWAP2 \t\t\t\n      POP \t\t\t\n      POP \t\t\t\n      PUSH 1\t\t\t\n      SWAP1 \t\t\t\n      SUB \t\t\t\n      SWAP1 \t\t\t\n      PUSH 0\t\t\t\n      MSTORE \t\t\t\n      PUSH 20\t\t\t\n      PUSH 0\t\t\t\n      KECCAK256 \t\t\t\n      ADD \t\t\t\n      PUSH 0\t\t\t\n      SWAP1 \t\t\t\n      SWAP2 \t\t\t\n      SWAP1 \t\t\t\n      SWAP2 \t\t\t\n      SWAP1 \t\t\t\n      SWAP2 \t\t\t\n      POP \t\t\t\n      PUSH 0\t\t\t\n      DUP3 \t\t\t\n      ADD \t\t\t\n      MLOAD \t\t\t\n      DUP2 \t\t\t\n      PUSH 0\t\t\t\n      ADD \t\t\t\n      PUSH 0\t\t\t\n      PUSH 100\t\t\t\n      EXP \t\t\t\n      DUP2 \t\t\t\n      SLOAD \t\t\t\n      DUP2 \t\t\t\n      PUSH FFFFFFFFFFFF\t\t\t\n      MUL \t\t\t\n      NOT \t\t\t\n      AND \t\t\t\n      SWAP1 \t\t\t\n      DUP4 \t\t\t\n      PUSH FFFFFFFFFFFF\t\t\t\n      AND \t\t\t\n      MUL \t\t\t\n      OR \t\t\t\n      SWAP1 \t\t\t\n      SSTORE \t\t\t\n      POP \t\t\t\n      PUSH 20\t\t\t\n      DUP3 \t\t\t\n      ADD \t\t\t\n      MLOAD \t\t\t\n      DUP2 \t\t\t\n      PUSH 0\t\t\t\n      ADD \t\t\t\n      PUSH 6\t\t\t\n      PUSH 100\t\t\t\n      EXP \t\t\t\n      DUP2 \t\t\t\n      SLOAD \t\t\t\n      DUP2 \t\t\t\n      PUSH FFFFFFFFFFFFFFFFFFFFFFFFFFFFFFFFFFFFFFFFFFFFFFFFFFFF\t\t\t\n      MUL \t\t\t\n      NOT \t\t\t\n      AND \t\t\t\n      SWAP1 \t\t\t\n      DUP4 \t\t\t\n      PUSH FFFFFFFFFFFFFFFFFFFFFFFFFFFFFFFFFFFFFFFFFFFFFFFFFFFF\t\t\t\n      AND \t\t\t\n      MUL \t\t\t\n      OR \t\t\t\n      SWAP1 \t\t\t\n      SSTORE \t\t\t\n      POP \t\t\t\n      POP \t\t\t\n      POP \t\t\t\n    tag 891\t\t\t\n      JUMPDEST \t\t\t\n      DUP1 \t\t\t\n      PUSH 20\t\t\t\n      ADD \t\t\t\n      MLOAD \t\t\t\n      DUP6 \t\t\t\n      SWAP4 \t\t\t\n      POP \t\t\t\n      SWAP4 \t\t\t\n      POP \t\t\t\n      POP \t\t\t\n      POP \t\t\t\n      PUSH [tag] 883\t\t\t\n      JUMP \t\t\t\n    tag 884\t\t\t\n      JUMPDEST \t\t\t\n      DUP6 \t\t\t\n      PUSH 40\t\t\t\n      MLOAD \t\t\t\n      DUP1 \t\t\t\n      PUSH 40\t\t\t\n      ADD \t\t\t\n      PUSH 40\t\t\t\n      MSTORE \t\t\t\n      DUP1 \t\t\t\n      DUP8 \t\t\t\n      PUSH FFFFFFFFFFFF\t\t\t\n      AND \t\t\t\n      DUP2 \t\t\t\n      MSTORE \t\t\t\n      PUSH 20\t\t\t\n      ADD \t\t\t\n      DUP7 \t\t\t\n      PUSH FFFFFFFFFFFFFFFFFFFFFFFFFFFFFFFFFFFFFFFFFFFFFFFFFFFF\t\t\t\n      AND \t\t\t\n      DUP2 \t\t\t\n      MSTORE \t\t\t\n      POP \t\t\t\n      SWAP1 \t\t\t\n      DUP1 \t\t\t\n      PUSH 1\t\t\t\n      DUP2 \t\t\t\n      SLOAD \t\t\t\n      ADD \t\t\t\n      DUP1 \t\t\t\n      DUP3 \t\t\t\n      SSTORE \t\t\t\n      DUP1 \t\t\t\n      SWAP2 \t\t\t\n      POP \t\t\t\n      POP \t\t\t\n      PUSH 1\t\t\t\n      SWAP1 \t\t\t\n      SUB \t\t\t\n      SWAP1 \t\t\t\n      PUSH 0\t\t\t\n      MSTORE \t\t\t\n      PUSH 20\t\t\t\n      PUSH 0\t\t\t\n      KECCAK256 \t\t\t\n      ADD \t\t\t\n      PUSH 0\t\t\t\n      SWAP1 \t\t\t\n      SWAP2 \t\t\t\n      SWAP1 \t\t\t\n      SWAP2 \t\t\t\n      SWAP1 \t\t\t\n      SWAP2 \t\t\t\n      POP \t\t\t\n      PUSH 0\t\t\t\n      DUP3 \t\t\t\n      ADD \t\t\t\n      MLOAD \t\t\t\n      DUP2 \t\t\t\n      PUSH 0\t\t\t\n      ADD \t\t\t\n      PUSH 0\t\t\t\n      PUSH 100\t\t\t\n      EXP \t\t\t\n      DUP2 \t\t\t\n      SLOAD \t\t\t\n      DUP2 \t\t\t\n      PUSH FFFFFFFFFFFF\t\t\t\n      MUL \t\t\t\n      NOT \t\t\t\n      AND \t\t\t\n      SWAP1 \t\t\t\n      DUP4 \t\t\t\n      PUSH FFFFFFFFFFFF\t\t\t\n      AND \t\t\t\n      MUL \t\t\t\n      OR \t\t\t\n      SWAP1 \t\t\t\n      SSTORE \t\t\t\n      POP \t\t\t\n      PUSH 20\t\t\t\n      DUP3 \t\t\t\n      ADD \t\t\t\n      MLOAD \t\t\t\n      DUP2 \t\t\t\n      PUSH 0\t\t\t\n      ADD \t\t\t\n      PUSH 6\t\t\t\n      PUSH 100\t\t\t\n      EXP \t\t\t\n      DUP2 \t\t\t\n      SLOAD \t\t\t\n      DUP2 \t\t\t\n      PUSH FFFFFFFFFFFFFFFFFFFFFFFFFFFFFFFFFFFFFFFFFFFFFFFFFFFF\t\t\t\n      MUL \t\t\t\n      NOT \t\t\t\n      AND \t\t\t\n      SWAP1 \t\t\t\n      DUP4 \t\t\t\n      PUSH FFFFFFFFFFFFFFFFFFFFFFFFFFFFFFFFFFFFFFFFFFFFFFFFFFFF\t\t\t\n      AND \t\t\t\n      MUL \t\t\t\n      OR \t\t\t\n      SWAP1 \t\t\t\n      SSTORE \t\t\t\n      POP \t\t\t\n      POP \t\t\t\n      POP \t\t\t\n      PUSH 0\t\t\t\n      DUP5 \t\t\t\n      SWAP3 \t\t\t\n      POP \t\t\t\n      SWAP3 \t\t\t\n      POP \t\t\t\n      POP \t\t\t\n    tag 883\t\t\t\n      JUMPDEST \t\t\t\n      SWAP4 \t\t\t\n      POP \t\t\t\n      SWAP4 \t\t\t\n      SWAP2 \t\t\t\n      POP \t\t\t\n      POP \t\t\t\n      JUMP \t\t\t\n    tag 464\t\t\t\n      JUMPDEST \t\t\t\n      PUSH 40\t\t\t\n      MLOAD \t\t\t\n      DUP1 \t\t\t\n      PUSH 40\t\t\t\n      ADD \t\t\t\n      PUSH 40\t\t\t\n      MSTORE \t\t\t\n      DUP1 \t\t\t\n      PUSH 0\t\t\t\n      PUSH FFFFFFFFFFFF\t\t\t\n      AND \t\t\t\n      DUP2 \t\t\t\n      MSTORE \t\t\t\n      PUSH 20\t\t\t\n      ADD \t\t\t\n      PUSH 0\t\t\t\n      PUSH FFFFFFFFFFFFFFFFFFFFFFFFFFFFFFFFFFFFFFFFFFFFFFFFFFFF\t\t\t\n      AND \t\t\t\n      DUP2 \t\t\t\n      MSTORE \t\t\t\n      POP \t\t\t\n      SWAP1 \t\t\t\n      JUMP \t\t\t\n    tag 896\t\t\ts-upgradeable@5.0.0/token/ERC2...\n      JUMPDEST \t\t\ts-upgradeable@5.0.0/token/ERC2...\n      PUSH 0\t\t\tn\n      DUP1 \t\t\to\n      REVERT \t\t\t5.0.0/token/\n    tag 897\t\t\tions/ERC20BurnableUpgradeable....\n      JUMPDEST \t\t\tions/ERC20BurnableUpgradeable....\n      PUSH 0\t\t\tE\n      DUP1 \t\t\tn\n      REVERT \t\t\txtensions/ER\n    tag 898\t\t\tpgradeable.sol\";\\nimport \"@ope...\n      JUMPDEST \t\t\tpgradeable.sol\";\\nimport \"@ope...\n      PUSH 0\t\t\tin/cont\n      PUSH FFFFFFFF00000000000000000000000000000000000000000000000000000000\t\t\tcessControlUpgradeable.sol\";\\n...\n      DUP3 \t\t\tcess/\n      AND \t\t\t0/access/AccessControlUpgradea...\n      SWAP1 \t\t\tdeable@5.0.0/access/AccessCont...\n      POP \t\t\tdeable@5.0.0/access/AccessCont...\n      SWAP2 \t\t\tpgradeable.sol\";\\nimport \"@ope...\n      SWAP1 \t\t\tpgradeable.sol\";\\nimport \"@ope...\n      POP \t\t\tpgradeable.sol\";\\nimport \"@ope...\n      JUMP \t\t\tpgradeable.sol\";\\nimport \"@ope...\n    tag 899\t\t\ttoken/ERC20/extensions/ERC20Pe...\n      JUMPDEST \t\t\ttoken/ERC20/extensions/ERC20Pe...\n      PUSH [tag] 996\t\t\tn/contracts-upgradeable\n      DUP2 \t\t\tdeabl\n      PUSH [tag] 898\t\t\tn/contracts-upgradeable\n      JUMP \t\t\tn/contracts-upgradeable\n    tag 996\t\t\tn/contracts-upgradeable\n      JUMPDEST \t\t\tn/contracts-upgradeable\n      DUP2 \t\t\tzeppe\n      EQ \t\t\tpenzeppelin/contracts-upgradea...\n      PUSH [tag] 997\t\t\timport \"@openzeppelin/contract...\n      JUMPI \t\t\timport \"@openzeppelin/contract...\n      PUSH 0\t\t\tC\n      DUP1 \t\t\t/\n      REVERT \t\t\t0/token/ERC2\n    tag 997\t\t\timport \"@openzeppelin/contract...\n      JUMPDEST \t\t\timport \"@openzeppelin/contract...\n      POP \t\t\ttoken/ERC20/extensions/ERC20Pe...\n      JUMP \t\t\ttoken/ERC20/extensions/ERC20Pe...\n    tag 900\t\t\tRC20VotesUpgradeable.sol\";\\nim...\n      JUMPDEST \t\t\tRC20VotesUpgradeable.sol\";\\nim...\n      PUSH 0\t\t\tlin/c\n      DUP2 \t\t\tERC20/\n      CALLDATALOAD \t\t\t@5.0.0/token/ERC20/e\n      SWAP1 \t\t\tgradeable@5.0.0/token/ERC20/e\n      POP \t\t\tgradeable@5.0.0/token/ERC20/e\n      PUSH [tag] 999\t\t\t/ERC20FlashMintUpgradeable.sol...\n      DUP2 \t\t\t.sol\"\n      PUSH [tag] 899\t\t\t/ERC20FlashMintUpgradeable.sol...\n      JUMP \t\t\t/ERC20FlashMintUpgradeable.sol...\n    tag 999\t\t\t/ERC20FlashMintUpgradeable.sol...\n      JUMPDEST \t\t\t/ERC20FlashMintUpgradeable.sol...\n      SWAP3 \t\t\tRC20VotesUpgradeable.sol\";\\nim...\n      SWAP2 \t\t\tRC20VotesUpgradeable.sol\";\\nim...\n      POP \t\t\tRC20VotesUpgradeable.sol\";\\nim...\n      POP \t\t\tRC20VotesUpgradeable.sol\";\\nim...\n      JUMP \t\t\tRC20VotesUpgradeable.sol\";\\nim...\n    tag 54\t\t\tenzeppelin/contracts-upgradeab...\n      JUMPDEST \t\t\tenzeppelin/contracts-upgradeab...\n      PUSH 0\t\t\tizable\n      PUSH 20\t\t\t13\n      DUP3 \t\t\tntact zel\n      DUP5 \t\t\tcurity-\n      SUB \t\t\tm:security-contact zele\n      SLT \t\t\tustom:security-contact zelena1...\n      ISZERO \t\t\t @custom:security-contact zele...\n      PUSH [tag] 1001\t\t\t @custom:security-contact zele...\n      JUMPI \t\t\t @custom:security-contact zele...\n      PUSH [tag] 1002\t\t\t@gmail.com\\ncontract QAI is In...\n      PUSH [tag] 896\t\t\t@gmail.com\\ncontract QAI is In...\n      JUMP \t\t\t@gmail.com\\ncontract QAI is In...\n    tag 1002\t\t\t@gmail.com\\ncontract QAI is In...\n      JUMPDEST \t\t\t@gmail.com\\ncontract QAI is In...\n    tag 1001\t\t\t @custom:security-contact zele...\n      JUMPDEST \t\t\t @custom:security-contact zele...\n      PUSH 0\t\t\tn\n      PUSH [tag] 1003\t\t\trmitUpgradeable, ERC20VotesUpg...\n      DUP5 \t\t\t0FlashM\n      DUP3 \t\t\tble, E\n      DUP6 \t\t\ttesUpgrad\n      ADD \t\t\t20VotesUpgradeable, ER\n      PUSH [tag] 900\t\t\trmitUpgradeable, ERC20VotesUpg...\n      JUMP \t\t\trmitUpgradeable, ERC20VotesUpg...\n    tag 1003\t\t\trmitUpgradeable, ERC20VotesUpg...\n      JUMPDEST \t\t\trmitUpgradeable, ERC20VotesUpg...\n      SWAP2 \t\t\te, ERC20PermitUpgradeable, ERC...\n      POP \t\t\te, ERC20PermitUpgradeable, ERC...\n      POP \t\t\tPausableUpgradeable, AccessCon...\n      SWAP3 \t\t\tenzeppelin/contracts-upgradeab...\n      SWAP2 \t\t\tenzeppelin/contracts-upgradeab...\n      POP \t\t\tenzeppelin/contracts-upgradeab...\n      POP \t\t\tenzeppelin/contracts-upgradeab...\n      JUMP \t\t\tenzeppelin/contracts-upgradeab...\n    tag 901\t\t\tes32 public constant PAUSER_RO...\n      JUMPDEST \t\t\tes32 public constant PAUSER_RO...\n      PUSH 0\t\t\t keccak\n      DUP2 \t\t\tic co\n      ISZERO \t\t\t32 public con\n      ISZERO \t\t\t  bytes32 public cons\n      SWAP1 \t\t\t_ROLE\");\\n    bytes32 public c...\n      POP \t\t\t_ROLE\");\\n    bytes32 public c...\n      SWAP2 \t\t\tes32 public constant PAUSER_RO...\n      SWAP1 \t\t\tes32 public constant PAUSER_RO...\n      POP \t\t\tes32 public constant PAUSER_RO...\n      JUMP \t\t\tes32 public constant PAUSER_RO...\n    tag 902\t\t\tROLE = keccak256(\"MINTER_ROLE\"...\n      JUMPDEST \t\t\tROLE = keccak256(\"MINTER_ROLE\"...\n      PUSH [tag] 1006\t\t\tuctor\\n    constructor\n      DUP2 \t\t\tructo\n      PUSH [tag] 901\t\t\tuctor\\n    constructor\n      JUMP \t\t\tuctor\\n    constructor\n    tag 1006\t\t\tuctor\\n    constructor\n      JUMPDEST \t\t\tuctor\\n    constructor\n      DUP3 \t\t\tons\n      MSTORE \t\t\tallow constructor\\n    constru...\n      POP \t\t\tROLE = keccak256(\"MINTER_ROLE\"...\n      POP \t\t\tROLE = keccak256(\"MINTER_ROLE\"...\n      JUMP \t\t\tROLE = keccak256(\"MINTER_ROLE\"...\n    tag 57\t\t\t_disableInitializers();\\n    }...\n      JUMPDEST \t\t\t_disableInitializers();\\n    }...\n      PUSH 0\t\t\tuser\n      PUSH 20\t\t\tze\n      DUP3 \t\t\t   initia\n      ADD \t\t\t       initializer\n      SWAP1 \t\t\tinter)\\n        initializer\n      POP \t\t\tinter)\\n        initializer\n      PUSH [tag] 1008\t\t\t  {\\n        __ERC20_init(\"QAI...\n      PUSH 0\t\t\t_\n      DUP4 \t\t\tC20Burnab\n      ADD \t\t\t__ERC20Burnable_i\n      DUP5 \t\t\t\\n     \n      PUSH [tag] 902\t\t\t  {\\n        __ERC20_init(\"QAI...\n      JUMP \t\t\t  {\\n        __ERC20_init(\"QAI...\n    tag 1008\t\t\t  {\\n        __ERC20_init(\"QAI...\n      JUMPDEST \t\t\t  {\\n        __ERC20_init(\"QAI...\n      SWAP3 \t\t\t_disableInitializers();\\n    }...\n      SWAP2 \t\t\t_disableInitializers();\\n    }...\n      POP \t\t\t_disableInitializers();\\n    }...\n      POP \t\t\t_disableInitializers();\\n    }...\n      JUMP \t\t\t_disableInitializers();\\n    }...\n    tag 903\t\t\t __ERC20Pausable_init();\\n    ...\n      JUMPDEST \t\t\t __ERC20Pausable_init();\\n    ...\n      PUSH 0\t\t\tt();\\n \n      DUP2 \t\t\tAI\");\n      MLOAD \t\t\tnit(\"QAI\");\\n\n      SWAP1 \t\t\t20Permit_init(\"QAI\");\\n\n      POP \t\t\t20Permit_init(\"QAI\");\\n\n      SWAP2 \t\t\t __ERC20Pausable_init();\\n    ...\n      SWAP1 \t\t\t __ERC20Pausable_init();\\n    ...\n      POP \t\t\t __ERC20Pausable_init();\\n    ...\n      JUMP \t\t\t __ERC20Pausable_init();\\n    ...\n    tag 904\t\t\t20Votes_init();\\n        __ERC...\n      JUMPDEST \t\t\t20Votes_init();\\n        __ERC...\n      PUSH 0\t\t\tOLE, defaul\n      DUP3 \t\t\tRole(P\n      DUP3 \t\t\tgra\n      MSTORE \t\t\t      _grantRole(PA\n      PUSH 20\t\t\t(msg\n      DUP3 \t\t\t_mi\n      ADD \t\t\t    _mint(msg.\n      SWAP1 \t\t\t, pauser);\\n        _mint(msg.\n      POP \t\t\t, pauser);\\n        _mint(msg.\n      SWAP3 \t\t\t20Votes_init();\\n        __ERC...\n      SWAP2 \t\t\t20Votes_init();\\n        __ERC...\n      POP \t\t\t20Votes_init();\\n        __ERC...\n      POP \t\t\t20Votes_init();\\n        __ERC...\n      JUMP \t\t\t20Votes_init();\\n        __ERC...\n    tag 905\t\t\t00000 * 10 ** decimals());\\n  ...\n      JUMPDEST \t\t\t00000 * 10 ** decimals());\\n  ...\n      PUSH 0\t\t\tn\n    tag 1012\t\t\tse() public onlyRole(PAUSER_RO...\n      JUMPDEST \t\t\tse() public onlyRole(PAUSER_RO...\n      DUP4 \t\t\tlyRole\n      DUP2 \t\t\t \n      LT \t\t\tlic onlyRole(\n      ISZERO \t\t\tse() public onlyRole(PAUSER_RO...\n      PUSH [tag] 1014\t\t\tse() public onlyRole(PAUSER_RO...\n      JUMPI \t\t\tse() public onlyRole(PAUSER_RO...\n      DUP1 \t\t\t(\n      DUP3 \t\t\tyRo\n      ADD \t\t\t onlyRole(P\n      MLOAD \t\t\tpublic onlyRole(PA\n      DUP2 \t\t\te\n      DUP5 \t\t\tnpa\n      ADD \t\t\ton unpause(\n      MSTORE \t\t\t function unpause() public onl...\n      PUSH 20\t\t\t  \n      DUP2 \t\t\t \n      ADD \t\t\tOLE) {\\n   \n      SWAP1 \t\t\tSER_ROLE) {\\n   \n      POP \t\t\tSER_ROLE) {\\n   \n      PUSH [tag] 1012\t\t\tse() public onlyRole(PAUSER_RO...\n      JUMP \t\t\tse() public onlyRole(PAUSER_RO...\n    tag 1014\t\t\tse() public onlyRole(PAUSER_RO...\n      JUMPDEST \t\t\tse() public onlyRole(PAUSER_RO...\n      PUSH 0\t\t\tu\n      DUP5 \t\t\t }\\n\\n  \n      DUP5 \t\t\t;\\n \n      ADD \t\t\tse();\\n    }\\n\\n   \n      MSTORE \t\t\t _unpause();\\n    }\\n\\n    fun\n      POP \t\t\tter);\\n    }\\n\\n    function p...\n      POP \t\t\t00000 * 10 ** decimals());\\n  ...\n      POP \t\t\t00000 * 10 ** decimals());\\n  ...\n      POP \t\t\t00000 * 10 ** decimals());\\n  ...\n      JUMP \t\t\t00000 * 10 ** decimals());\\n  ...\n    tag 906\t\t\tddress to, uint256 amount) pub...\n      JUMPDEST \t\t\tddress to, uint256 amount) pub...\n      PUSH 0\t\t\te(MINT\n      PUSH 1F\t\t\t  \n      NOT \t\t\t }\\n\\n   \n      PUSH 1F\t\t\t;\\n\n      DUP4 \t\t\tamoun\n      ADD \t\t\tto, amount);\\n \n      AND \t\t\tint(to, amount);\\n    }\\n\\n   ...\n      SWAP1 \t\t\t        _mint(to, amount);\\n  ...\n      POP \t\t\t        _mint(to, amount);\\n  ...\n      SWAP2 \t\t\tddress to, uint256 amount) pub...\n      SWAP1 \t\t\tddress to, uint256 amount) pub...\n      POP \t\t\tddress to, uint256 amount) pub...\n      JUMP \t\t\tddress to, uint256 amount) pub...\n    tag 907\t\t\twing functions are overrides r...\n      JUMPDEST \t\t\twing functions are overrides r...\n      PUSH 0\t\t\tddr\n      PUSH [tag] 1017\t\t\t      internal\\n        overri...\n      DUP3 \t\t\tRC20U\n      PUSH [tag] 903\t\t\t      internal\\n        overri...\n      JUMP \t\t\t      internal\\n        overri...\n    tag 1017\t\t\t      internal\\n        overri...\n      JUMPDEST \t\t\t      internal\\n        overri...\n      PUSH [tag] 1018\t\t\tPausableUpgradeable, ERC20Vote...\n      DUP2 \t\t\t_updat\n      DUP6 \t\t\tupe\n      PUSH [tag] 904\t\t\tPausableUpgradeable, ERC20Vote...\n      JUMP \t\t\tPausableUpgradeable, ERC20Vote...\n    tag 1018\t\t\tPausableUpgradeable, ERC20Vote...\n      JUMPDEST \t\t\tPausableUpgradeable, ERC20Vote...\n      SWAP4 \t\t\t, ERC20PausableUpgradeable, ER...\n      POP \t\t\t, ERC20PausableUpgradeable, ER...\n      PUSH [tag] 1019\t\t\t, value);\\n    }\\n\\n    functi...\n      DUP2 \t\t\t  publ\n      DUP6 \t\t\t   \n      PUSH 20\t\t\twner\n      DUP7 \t\t\tdress\n      ADD \t\t\ts(address owner)\n      PUSH [tag] 905\t\t\t, value);\\n    }\\n\\n    functi...\n      JUMP \t\t\t, value);\\n    }\\n\\n    functi...\n    tag 1019\t\t\t, value);\\n    }\\n\\n    functi...\n      JUMPDEST \t\t\t, value);\\n    }\\n\\n    functi...\n      PUSH [tag] 1020\t\t\terride(ERC20PermitUpgradeable\n      DUP2 \t\t\tadeabl\n      PUSH [tag] 906\t\t\terride(ERC20PermitUpgradeable\n      JUMP \t\t\terride(ERC20PermitUpgradeable\n    tag 1020\t\t\terride(ERC20PermitUpgradeable\n      JUMPDEST \t\t\terride(ERC20PermitUpgradeable\n      DUP5 \t\t\t   \n      ADD \t\t\t       override(ERC20PermitUpg...\n      SWAP2 \t\t\t view\\n        override(ERC20P...\n      POP \t\t\t view\\n        override(ERC20P...\n      POP \t\t\tss to, uint256 value)\\n       ...\n      SWAP3 \t\t\twing functions are overrides r...\n      SWAP2 \t\t\twing functions are overrides r...\n      POP \t\t\twing functions are overrides r...\n      POP \t\t\twing functions are overrides r...\n      JUMP \t\t\twing functions are overrides r...\n    tag 61\t\t\tdeable)\\n        returns (uint...\n      JUMPDEST \t\t\tdeable)\\n        returns (uint...\n      PUSH 0\t\t\t\n      PUSH 20\t\t\t\n      DUP3 \t\t\t\n      ADD \t\t\t\n      SWAP1 \t\t\t\n      POP \t\t\t\n      DUP2 \t\t\t\n      DUP2 \t\t\t\n      SUB \t\t\t\n      PUSH 0\t\t\t\n      DUP4 \t\t\t\n      ADD \t\t\t\n      MSTORE \t\t\t\n      PUSH [tag] 1022\t\t\t\n      DUP2 \t\t\t\n      DUP5 \t\t\t\n      PUSH [tag] 907\t\t\t\n      JUMP \t\t\t\n    tag 1022\t\t\t\n      JUMPDEST \t\t\t\n      SWAP1 \t\t\t\n      POP \t\t\t\n      SWAP3 \t\t\tdeable)\\n        returns (uint...\n      SWAP2 \t\t\tdeable)\\n        returns (uint...\n      POP \t\t\tdeable)\\n        returns (uint...\n      POP \t\t\tdeable)\\n        returns (uint...\n      JUMP \t\t\tdeable)\\n        returns (uint...\n    tag 908\t\t\t\n      JUMPDEST \t\t\t\n      PUSH 0\t\t\t\n      PUSH FFFFFFFFFFFFFFFFFFFFFFFFFFFFFFFFFFFFFFFF\t\t\t\n      DUP3 \t\t\t\n      AND \t\t\t\n      SWAP1 \t\t\t\n      POP \t\t\t\n      SWAP2 \t\t\t\n      SWAP1 \t\t\t\n      POP \t\t\t\n      JUMP \t\t\t\n    tag 909\t\t\t\n      JUMPDEST \t\t\t\n      PUSH 0\t\t\t\n      PUSH [tag] 1025\t\t\t\n      DUP3 \t\t\t\n      PUSH [tag] 908\t\t\t\n      JUMP \t\t\t\n    tag 1025\t\t\t\n      JUMPDEST \t\t\t\n      SWAP1 \t\t\t\n      POP \t\t\t\n      SWAP2 \t\t\t\n      SWAP1 \t\t\t\n      POP \t\t\t\n      JUMP \t\t\t\n    tag 910\t\t\t\n      JUMPDEST \t\t\t\n      PUSH [tag] 1027\t\t\t\n      DUP2 \t\t\t\n      PUSH [tag] 909\t\t\t\n      JUMP \t\t\t\n    tag 1027\t\t\t\n      JUMPDEST \t\t\t\n      DUP2 \t\t\t\n      EQ \t\t\t\n      PUSH [tag] 1028\t\t\t\n      JUMPI \t\t\t\n      PUSH 0\t\t\t\n      DUP1 \t\t\t\n      REVERT \t\t\t\n    tag 1028\t\t\t\n      JUMPDEST \t\t\t\n      POP \t\t\t\n      JUMP \t\t\t\n    tag 911\t\t\t\n      JUMPDEST \t\t\t\n      PUSH 0\t\t\t\n      DUP2 \t\t\t\n      CALLDATALOAD \t\t\t\n      SWAP1 \t\t\t\n      POP \t\t\t\n      PUSH [tag] 1030\t\t\t\n      DUP2 \t\t\t\n      PUSH [tag] 910\t\t\t\n      JUMP \t\t\t\n    tag 1030\t\t\t\n      JUMPDEST \t\t\t\n      SWAP3 \t\t\t\n      SWAP2 \t\t\t\n      POP \t\t\t\n      POP \t\t\t\n      JUMP \t\t\t\n    tag 912\t\t\t\n      JUMPDEST \t\t\t\n      PUSH 0\t\t\t\n      DUP2 \t\t\t\n      SWAP1 \t\t\t\n      POP \t\t\t\n      SWAP2 \t\t\t\n      SWAP1 \t\t\t\n      POP \t\t\t\n      JUMP \t\t\t\n    tag 913\t\t\t\n      JUMPDEST \t\t\t\n      PUSH [tag] 1033\t\t\t\n      DUP2 \t\t\t\n      PUSH [tag] 912\t\t\t\n      JUMP \t\t\t\n    tag 1033\t\t\t\n      JUMPDEST \t\t\t\n      DUP2 \t\t\t\n      EQ \t\t\t\n      PUSH [tag] 1034\t\t\t\n      JUMPI \t\t\t\n      PUSH 0\t\t\t\n      DUP1 \t\t\t\n      REVERT \t\t\t\n    tag 1034\t\t\t\n      JUMPDEST \t\t\t\n      POP \t\t\t\n      JUMP \t\t\t\n    tag 914\t\t\t\n      JUMPDEST \t\t\t\n      PUSH 0\t\t\t\n      DUP2 \t\t\t\n      CALLDATALOAD \t\t\t\n      SWAP1 \t\t\t\n      POP \t\t\t\n      PUSH [tag] 1036\t\t\t\n      DUP2 \t\t\t\n      PUSH [tag] 913\t\t\t\n      JUMP \t\t\t\n    tag 1036\t\t\t\n      JUMPDEST \t\t\t\n      SWAP3 \t\t\t\n      SWAP2 \t\t\t\n      POP \t\t\t\n      POP \t\t\t\n      JUMP \t\t\t\n    tag 64\t\t\t\n      JUMPDEST \t\t\t\n      PUSH 0\t\t\t\n      DUP1 \t\t\t\n      PUSH 40\t\t\t\n      DUP4 \t\t\t\n      DUP6 \t\t\t\n      SUB \t\t\t\n      SLT \t\t\t\n      ISZERO \t\t\t\n      PUSH [tag] 1038\t\t\t\n      JUMPI \t\t\t\n      PUSH [tag] 1039\t\t\t\n      PUSH [tag] 896\t\t\t\n      JUMP \t\t\t\n    tag 1039\t\t\t\n      JUMPDEST \t\t\t\n    tag 1038\t\t\t\n      JUMPDEST \t\t\t\n      PUSH 0\t\t\t\n      PUSH [tag] 1040\t\t\t\n      DUP6 \t\t\t\n      DUP3 \t\t\t\n      DUP7 \t\t\t\n      ADD \t\t\t\n      PUSH [tag] 911\t\t\t\n      JUMP \t\t\t\n    tag 1040\t\t\t\n      JUMPDEST \t\t\t\n      SWAP3 \t\t\t\n      POP \t\t\t\n      POP \t\t\t\n      PUSH 20\t\t\t\n      PUSH [tag] 1041\t\t\t\n      DUP6 \t\t\t\n      DUP3 \t\t\t\n      DUP7 \t\t\t\n      ADD \t\t\t\n      PUSH [tag] 914\t\t\t\n      JUMP \t\t\t\n    tag 1041\t\t\t\n      JUMPDEST \t\t\t\n      SWAP2 \t\t\t\n      POP \t\t\t\n      POP \t\t\t\n      SWAP3 \t\t\t\n      POP \t\t\t\n      SWAP3 \t\t\t\n      SWAP1 \t\t\t\n      POP \t\t\t\n      JUMP \t\t\t\n    tag 915\t\t\t\n      JUMPDEST \t\t\t\n      PUSH [tag] 1043\t\t\t\n      DUP2 \t\t\t\n      PUSH [tag] 912\t\t\t\n      JUMP \t\t\t\n    tag 1043\t\t\t\n      JUMPDEST \t\t\t\n      DUP3 \t\t\t\n      MSTORE \t\t\t\n      POP \t\t\t\n      POP \t\t\t\n      JUMP \t\t\t\n    tag 70\t\t\t\n      JUMPDEST \t\t\t\n      PUSH 0\t\t\t\n      PUSH 20\t\t\t\n      DUP3 \t\t\t\n      ADD \t\t\t\n      SWAP1 \t\t\t\n      POP \t\t\t\n      PUSH [tag] 1045\t\t\t\n      PUSH 0\t\t\t\n      DUP4 \t\t\t\n      ADD \t\t\t\n      DUP5 \t\t\t\n      PUSH [tag] 915\t\t\t\n      JUMP \t\t\t\n    tag 1045\t\t\t\n      JUMPDEST \t\t\t\n      SWAP3 \t\t\t\n      SWAP2 \t\t\t\n      POP \t\t\t\n      POP \t\t\t\n      JUMP \t\t\t\n    tag 73\t\t\t\n      JUMPDEST \t\t\t\n      PUSH 0\t\t\t\n      DUP1 \t\t\t\n      PUSH 0\t\t\t\n      PUSH 60\t\t\t\n      DUP5 \t\t\t\n      DUP7 \t\t\t\n      SUB \t\t\t\n      SLT \t\t\t\n      ISZERO \t\t\t\n      PUSH [tag] 1047\t\t\t\n      JUMPI \t\t\t\n      PUSH [tag] 1048\t\t\t\n      PUSH [tag] 896\t\t\t\n      JUMP \t\t\t\n    tag 1048\t\t\t\n      JUMPDEST \t\t\t\n    tag 1047\t\t\t\n      JUMPDEST \t\t\t\n      PUSH 0\t\t\t\n      PUSH [tag] 1049\t\t\t\n      DUP7 \t\t\t\n      DUP3 \t\t\t\n      DUP8 \t\t\t\n      ADD \t\t\t\n      PUSH [tag] 911\t\t\t\n      JUMP \t\t\t\n    tag 1049\t\t\t\n      JUMPDEST \t\t\t\n      SWAP4 \t\t\t\n      POP \t\t\t\n      POP \t\t\t\n      PUSH 20\t\t\t\n      PUSH [tag] 1050\t\t\t\n      DUP7 \t\t\t\n      DUP3 \t\t\t\n      DUP8 \t\t\t\n      ADD \t\t\t\n      PUSH [tag] 911\t\t\t\n      JUMP \t\t\t\n    tag 1050\t\t\t\n      JUMPDEST \t\t\t\n      SWAP3 \t\t\t\n      POP \t\t\t\n      POP \t\t\t\n      PUSH 40\t\t\t\n      PUSH [tag] 1051\t\t\t\n      DUP7 \t\t\t\n      DUP3 \t\t\t\n      DUP8 \t\t\t\n      ADD \t\t\t\n      PUSH [tag] 914\t\t\t\n      JUMP \t\t\t\n    tag 1051\t\t\t\n      JUMPDEST \t\t\t\n      SWAP2 \t\t\t\n      POP \t\t\t\n      POP \t\t\t\n      SWAP3 \t\t\t\n      POP \t\t\t\n      SWAP3 \t\t\t\n      POP \t\t\t\n      SWAP3 \t\t\t\n      JUMP \t\t\t\n    tag 916\t\t\t\n      JUMPDEST \t\t\t\n      PUSH 0\t\t\t\n      DUP2 \t\t\t\n      SWAP1 \t\t\t\n      POP \t\t\t\n      SWAP2 \t\t\t\n      SWAP1 \t\t\t\n      POP \t\t\t\n      JUMP \t\t\t\n    tag 917\t\t\t\n      JUMPDEST \t\t\t\n      PUSH [tag] 1054\t\t\t\n      DUP2 \t\t\t\n      PUSH [tag] 916\t\t\t\n      JUMP \t\t\t\n    tag 1054\t\t\t\n      JUMPDEST \t\t\t\n      DUP2 \t\t\t\n      EQ \t\t\t\n      PUSH [tag] 1055\t\t\t\n      JUMPI \t\t\t\n      PUSH 0\t\t\t\n      DUP1 \t\t\t\n      REVERT \t\t\t\n    tag 1055\t\t\t\n      JUMPDEST \t\t\t\n      POP \t\t\t\n      JUMP \t\t\t\n    tag 918\t\t\t\n      JUMPDEST \t\t\t\n      PUSH 0\t\t\t\n      DUP2 \t\t\t\n      CALLDATALOAD \t\t\t\n      SWAP1 \t\t\t\n      POP \t\t\t\n      PUSH [tag] 1057\t\t\t\n      DUP2 \t\t\t\n      PUSH [tag] 917\t\t\t\n      JUMP \t\t\t\n    tag 1057\t\t\t\n      JUMPDEST \t\t\t\n      SWAP3 \t\t\t\n      SWAP2 \t\t\t\n      POP \t\t\t\n      POP \t\t\t\n      JUMP \t\t\t\n    tag 78\t\t\t\n      JUMPDEST \t\t\t\n      PUSH 0\t\t\t\n      PUSH 20\t\t\t\n      DUP3 \t\t\t\n      DUP5 \t\t\t\n      SUB \t\t\t\n      SLT \t\t\t\n      ISZERO \t\t\t\n      PUSH [tag] 1059\t\t\t\n      JUMPI \t\t\t\n      PUSH [tag] 1060\t\t\t\n      PUSH [tag] 896\t\t\t\n      JUMP \t\t\t\n    tag 1060\t\t\t\n      JUMPDEST \t\t\t\n    tag 1059\t\t\t\n      JUMPDEST \t\t\t\n      PUSH 0\t\t\t\n      PUSH [tag] 1061\t\t\t\n      DUP5 \t\t\t\n      DUP3 \t\t\t\n      DUP6 \t\t\t\n      ADD \t\t\t\n      PUSH [tag] 918\t\t\t\n      JUMP \t\t\t\n    tag 1061\t\t\t\n      JUMPDEST \t\t\t\n      SWAP2 \t\t\t\n      POP \t\t\t\n      POP \t\t\t\n      SWAP3 \t\t\t\n      SWAP2 \t\t\t\n      POP \t\t\t\n      POP \t\t\t\n      JUMP \t\t\t\n    tag 919\t\t\t\n      JUMPDEST \t\t\t\n      PUSH [tag] 1063\t\t\t\n      DUP2 \t\t\t\n      PUSH [tag] 916\t\t\t\n      JUMP \t\t\t\n    tag 1063\t\t\t\n      JUMPDEST \t\t\t\n      DUP3 \t\t\t\n      MSTORE \t\t\t\n      POP \t\t\t\n      POP \t\t\t\n      JUMP \t\t\t\n    tag 81\t\t\t\n      JUMPDEST \t\t\t\n      PUSH 0\t\t\t\n      PUSH 20\t\t\t\n      DUP3 \t\t\t\n      ADD \t\t\t\n      SWAP1 \t\t\t\n      POP \t\t\t\n      PUSH [tag] 1065\t\t\t\n      PUSH 0\t\t\t\n      DUP4 \t\t\t\n      ADD \t\t\t\n      DUP5 \t\t\t\n      PUSH [tag] 919\t\t\t\n      JUMP \t\t\t\n    tag 1065\t\t\t\n      JUMPDEST \t\t\t\n      SWAP3 \t\t\t\n      SWAP2 \t\t\t\n      POP \t\t\t\n      POP \t\t\t\n      JUMP \t\t\t\n    tag 84\t\t\t\n      JUMPDEST \t\t\t\n      PUSH 0\t\t\t\n      DUP1 \t\t\t\n      PUSH 40\t\t\t\n      DUP4 \t\t\t\n      DUP6 \t\t\t\n      SUB \t\t\t\n      SLT \t\t\t\n      ISZERO \t\t\t\n      PUSH [tag] 1067\t\t\t\n      JUMPI \t\t\t\n      PUSH [tag] 1068\t\t\t\n      PUSH [tag] 896\t\t\t\n      JUMP \t\t\t\n    tag 1068\t\t\t\n      JUMPDEST \t\t\t\n    tag 1067\t\t\t\n      JUMPDEST \t\t\t\n      PUSH 0\t\t\t\n      PUSH [tag] 1069\t\t\t\n      DUP6 \t\t\t\n      DUP3 \t\t\t\n      DUP7 \t\t\t\n      ADD \t\t\t\n      PUSH [tag] 918\t\t\t\n      JUMP \t\t\t\n    tag 1069\t\t\t\n      JUMPDEST \t\t\t\n      SWAP3 \t\t\t\n      POP \t\t\t\n      POP \t\t\t\n      PUSH 20\t\t\t\n      PUSH [tag] 1070\t\t\t\n      DUP6 \t\t\t\n      DUP3 \t\t\t\n      DUP7 \t\t\t\n      ADD \t\t\t\n      PUSH [tag] 911\t\t\t\n      JUMP \t\t\t\n    tag 1070\t\t\t\n      JUMPDEST \t\t\t\n      SWAP2 \t\t\t\n      POP \t\t\t\n      POP \t\t\t\n      SWAP3 \t\t\t\n      POP \t\t\t\n      SWAP3 \t\t\t\n      SWAP1 \t\t\t\n      POP \t\t\t\n      JUMP \t\t\t\n    tag 920\t\t\t\n      JUMPDEST \t\t\t\n      PUSH 0\t\t\t\n      PUSH FF\t\t\t\n      DUP3 \t\t\t\n      AND \t\t\t\n      SWAP1 \t\t\t\n      POP \t\t\t\n      SWAP2 \t\t\t\n      SWAP1 \t\t\t\n      POP \t\t\t\n      JUMP \t\t\t\n    tag 921\t\t\t\n      JUMPDEST \t\t\t\n      PUSH [tag] 1073\t\t\t\n      DUP2 \t\t\t\n      PUSH [tag] 920\t\t\t\n      JUMP \t\t\t\n    tag 1073\t\t\t\n      JUMPDEST \t\t\t\n      DUP3 \t\t\t\n      MSTORE \t\t\t\n      POP \t\t\t\n      POP \t\t\t\n      JUMP \t\t\t\n    tag 89\t\t\t\n      JUMPDEST \t\t\t\n      PUSH 0\t\t\t\n      PUSH 20\t\t\t\n      DUP3 \t\t\t\n      ADD \t\t\t\n      SWAP1 \t\t\t\n      POP \t\t\t\n      PUSH [tag] 1075\t\t\t\n      PUSH 0\t\t\t\n      DUP4 \t\t\t\n      ADD \t\t\t\n      DUP5 \t\t\t\n      PUSH [tag] 921\t\t\t\n      JUMP \t\t\t\n    tag 1075\t\t\t\n      JUMPDEST \t\t\t\n      SWAP3 \t\t\t\n      SWAP2 \t\t\t\n      POP \t\t\t\n      POP \t\t\t\n      JUMP \t\t\t\n    tag 107\t\t\t\n      JUMPDEST \t\t\t\n      PUSH 0\t\t\t\n      PUSH 20\t\t\t\n      DUP3 \t\t\t\n      DUP5 \t\t\t\n      SUB \t\t\t\n      SLT \t\t\t\n      ISZERO \t\t\t\n      PUSH [tag] 1077\t\t\t\n      JUMPI \t\t\t\n      PUSH [tag] 1078\t\t\t\n      PUSH [tag] 896\t\t\t\n      JUMP \t\t\t\n    tag 1078\t\t\t\n      JUMPDEST \t\t\t\n    tag 1077\t\t\t\n      JUMPDEST \t\t\t\n      PUSH 0\t\t\t\n      PUSH [tag] 1079\t\t\t\n      DUP5 \t\t\t\n      DUP3 \t\t\t\n      DUP6 \t\t\t\n      ADD \t\t\t\n      PUSH [tag] 914\t\t\t\n      JUMP \t\t\t\n    tag 1079\t\t\t\n      JUMPDEST \t\t\t\n      SWAP2 \t\t\t\n      POP \t\t\t\n      POP \t\t\t\n      SWAP3 \t\t\t\n      SWAP2 \t\t\t\n      POP \t\t\t\n      POP \t\t\t\n      JUMP \t\t\t\n    tag 114\t\t\t\n      JUMPDEST \t\t\t\n      PUSH 0\t\t\t\n      PUSH 20\t\t\t\n      DUP3 \t\t\t\n      DUP5 \t\t\t\n      SUB \t\t\t\n      SLT \t\t\t\n      ISZERO \t\t\t\n      PUSH [tag] 1081\t\t\t\n      JUMPI \t\t\t\n      PUSH [tag] 1082\t\t\t\n      PUSH [tag] 896\t\t\t\n      JUMP \t\t\t\n    tag 1082\t\t\t\n      JUMPDEST \t\t\t\n    tag 1081\t\t\t\n      JUMPDEST \t\t\t\n      PUSH 0\t\t\t\n      PUSH [tag] 1083\t\t\t\n      DUP5 \t\t\t\n      DUP3 \t\t\t\n      DUP6 \t\t\t\n      ADD \t\t\t\n      PUSH [tag] 911\t\t\t\n      JUMP \t\t\t\n    tag 1083\t\t\t\n      JUMPDEST \t\t\t\n      SWAP2 \t\t\t\n      POP \t\t\t\n      POP \t\t\t\n      SWAP3 \t\t\t\n      SWAP2 \t\t\t\n      POP \t\t\t\n      POP \t\t\t\n      JUMP \t\t\t\n    tag 922\t\t\t\n      JUMPDEST \t\t\t\n      PUSH [tag] 1085\t\t\t\n      DUP2 \t\t\t\n      PUSH [tag] 909\t\t\t\n      JUMP \t\t\t\n    tag 1085\t\t\t\n      JUMPDEST \t\t\t\n      DUP3 \t\t\t\n      MSTORE \t\t\t\n      POP \t\t\t\n      POP \t\t\t\n      JUMP \t\t\t\n    tag 117\t\t\t\n      JUMPDEST \t\t\t\n      PUSH 0\t\t\t\n      PUSH 20\t\t\t\n      DUP3 \t\t\t\n      ADD \t\t\t\n      SWAP1 \t\t\t\n      POP \t\t\t\n      PUSH [tag] 1087\t\t\t\n      PUSH 0\t\t\t\n      DUP4 \t\t\t\n      ADD \t\t\t\n      DUP5 \t\t\t\n      PUSH [tag] 922\t\t\t\n      JUMP \t\t\t\n    tag 1087\t\t\t\n      JUMPDEST \t\t\t\n      SWAP3 \t\t\t\n      SWAP2 \t\t\t\n      POP \t\t\t\n      POP \t\t\t\n      JUMP \t\t\t\n    tag 923\t\t\t\n      JUMPDEST \t\t\t\n      PUSH 0\t\t\t\n      PUSH [tag] 1089\t\t\t\n      DUP3 \t\t\t\n      PUSH [tag] 909\t\t\t\n      JUMP \t\t\t\n    tag 1089\t\t\t\n      JUMPDEST \t\t\t\n      SWAP1 \t\t\t\n      POP \t\t\t\n      SWAP2 \t\t\t\n      SWAP1 \t\t\t\n      POP \t\t\t\n      JUMP \t\t\t\n    tag 924\t\t\t\n      JUMPDEST \t\t\t\n      PUSH [tag] 1091\t\t\t\n      DUP2 \t\t\t\n      PUSH [tag] 923\t\t\t\n      JUMP \t\t\t\n    tag 1091\t\t\t\n      JUMPDEST \t\t\t\n      DUP2 \t\t\t\n      EQ \t\t\t\n      PUSH [tag] 1092\t\t\t\n      JUMPI \t\t\t\n      PUSH 0\t\t\t\n      DUP1 \t\t\t\n      REVERT \t\t\t\n    tag 1092\t\t\t\n      JUMPDEST \t\t\t\n      POP \t\t\t\n      JUMP \t\t\t\n    tag 925\t\t\t\n      JUMPDEST \t\t\t\n      PUSH 0\t\t\t\n      DUP2 \t\t\t\n      CALLDATALOAD \t\t\t\n      SWAP1 \t\t\t\n      POP \t\t\t\n      PUSH [tag] 1094\t\t\t\n      DUP2 \t\t\t\n      PUSH [tag] 924\t\t\t\n      JUMP \t\t\t\n    tag 1094\t\t\t\n      JUMPDEST \t\t\t\n      SWAP3 \t\t\t\n      SWAP2 \t\t\t\n      POP \t\t\t\n      POP \t\t\t\n      JUMP \t\t\t\n    tag 926\t\t\t\n      JUMPDEST \t\t\t\n      PUSH 0\t\t\t\n      DUP1 \t\t\t\n      REVERT \t\t\t\n    tag 927\t\t\t\n      JUMPDEST \t\t\t\n      PUSH 0\t\t\t\n      DUP1 \t\t\t\n      REVERT \t\t\t\n    tag 928\t\t\t\n      JUMPDEST \t\t\t\n      PUSH 0\t\t\t\n      DUP1 \t\t\t\n      REVERT \t\t\t\n    tag 929\t\t\t\n      JUMPDEST \t\t\t\n      PUSH 0\t\t\t\n      DUP1 \t\t\t\n      DUP4 \t\t\t\n      PUSH 1F\t\t\t\n      DUP5 \t\t\t\n      ADD \t\t\t\n      SLT \t\t\t\n      PUSH [tag] 1099\t\t\t\n      JUMPI \t\t\t\n      PUSH [tag] 1100\t\t\t\n      PUSH [tag] 926\t\t\t\n      JUMP \t\t\t\n    tag 1100\t\t\t\n      JUMPDEST \t\t\t\n    tag 1099\t\t\t\n      JUMPDEST \t\t\t\n      DUP3 \t\t\t\n      CALLDATALOAD \t\t\t\n      SWAP1 \t\t\t\n      POP \t\t\t\n      PUSH FFFFFFFFFFFFFFFF\t\t\t\n      DUP2 \t\t\t\n      GT \t\t\t\n      ISZERO \t\t\t\n      PUSH [tag] 1101\t\t\t\n      JUMPI \t\t\t\n      PUSH [tag] 1102\t\t\t\n      PUSH [tag] 927\t\t\t\n      JUMP \t\t\t\n    tag 1102\t\t\t\n      JUMPDEST \t\t\t\n    tag 1101\t\t\t\n      JUMPDEST \t\t\t\n      PUSH 20\t\t\t\n      DUP4 \t\t\t\n      ADD \t\t\t\n      SWAP2 \t\t\t\n      POP \t\t\t\n      DUP4 \t\t\t\n      PUSH 1\t\t\t\n      DUP3 \t\t\t\n      MUL \t\t\t\n      DUP4 \t\t\t\n      ADD \t\t\t\n      GT \t\t\t\n      ISZERO \t\t\t\n      PUSH [tag] 1103\t\t\t\n      JUMPI \t\t\t\n      PUSH [tag] 1104\t\t\t\n      PUSH [tag] 928\t\t\t\n      JUMP \t\t\t\n    tag 1104\t\t\t\n      JUMPDEST \t\t\t\n    tag 1103\t\t\t\n      JUMPDEST \t\t\t\n      SWAP3 \t\t\t\n      POP \t\t\t\n      SWAP3 \t\t\t\n      SWAP1 \t\t\t\n      POP \t\t\t\n      JUMP \t\t\t\n    tag 126\t\t\t\n      JUMPDEST \t\t\t\n      PUSH 0\t\t\t\n      DUP1 \t\t\t\n      PUSH 0\t\t\t\n      DUP1 \t\t\t\n      PUSH 0\t\t\t\n      PUSH 80\t\t\t\n      DUP7 \t\t\t\n      DUP9 \t\t\t\n      SUB \t\t\t\n      SLT \t\t\t\n      ISZERO \t\t\t\n      PUSH [tag] 1106\t\t\t\n      JUMPI \t\t\t\n      PUSH [tag] 1107\t\t\t\n      PUSH [tag] 896\t\t\t\n      JUMP \t\t\t\n    tag 1107\t\t\t\n      JUMPDEST \t\t\t\n    tag 1106\t\t\t\n      JUMPDEST \t\t\t\n      PUSH 0\t\t\t\n      PUSH [tag] 1108\t\t\t\n      DUP9 \t\t\t\n      DUP3 \t\t\t\n      DUP10 \t\t\t\n      ADD \t\t\t\n      PUSH [tag] 925\t\t\t\n      JUMP \t\t\t\n    tag 1108\t\t\t\n      JUMPDEST \t\t\t\n      SWAP6 \t\t\t\n      POP \t\t\t\n      POP \t\t\t\n      PUSH 20\t\t\t\n      PUSH [tag] 1109\t\t\t\n      DUP9 \t\t\t\n      DUP3 \t\t\t\n      DUP10 \t\t\t\n      ADD \t\t\t\n      PUSH [tag] 911\t\t\t\n      JUMP \t\t\t\n    tag 1109\t\t\t\n      JUMPDEST \t\t\t\n      SWAP5 \t\t\t\n      POP \t\t\t\n      POP \t\t\t\n      PUSH 40\t\t\t\n      PUSH [tag] 1110\t\t\t\n      DUP9 \t\t\t\n      DUP3 \t\t\t\n      DUP10 \t\t\t\n      ADD \t\t\t\n      PUSH [tag] 914\t\t\t\n      JUMP \t\t\t\n    tag 1110\t\t\t\n      JUMPDEST \t\t\t\n      SWAP4 \t\t\t\n      POP \t\t\t\n      POP \t\t\t\n      PUSH 60\t\t\t\n      DUP7 \t\t\t\n      ADD \t\t\t\n      CALLDATALOAD \t\t\t\n      PUSH FFFFFFFFFFFFFFFF\t\t\t\n      DUP2 \t\t\t\n      GT \t\t\t\n      ISZERO \t\t\t\n      PUSH [tag] 1111\t\t\t\n      JUMPI \t\t\t\n      PUSH [tag] 1112\t\t\t\n      PUSH [tag] 897\t\t\t\n      JUMP \t\t\t\n    tag 1112\t\t\t\n      JUMPDEST \t\t\t\n    tag 1111\t\t\t\n      JUMPDEST \t\t\t\n      PUSH [tag] 1113\t\t\t\n      DUP9 \t\t\t\n      DUP3 \t\t\t\n      DUP10 \t\t\t\n      ADD \t\t\t\n      PUSH [tag] 929\t\t\t\n      JUMP \t\t\t\n    tag 1113\t\t\t\n      JUMPDEST \t\t\t\n      SWAP3 \t\t\t\n      POP \t\t\t\n      SWAP3 \t\t\t\n      POP \t\t\t\n      POP \t\t\t\n      SWAP3 \t\t\t\n      SWAP6 \t\t\t\n      POP \t\t\t\n      SWAP3 \t\t\t\n      SWAP6 \t\t\t\n      SWAP1 \t\t\t\n      SWAP4 \t\t\t\n      POP \t\t\t\n      JUMP \t\t\t\n    tag 930\t\t\t\n      JUMPDEST \t\t\t\n      PUSH 0\t\t\t\n      PUSH FFFFFFFF\t\t\t\n      DUP3 \t\t\t\n      AND \t\t\t\n      SWAP1 \t\t\t\n      POP \t\t\t\n      SWAP2 \t\t\t\n      SWAP1 \t\t\t\n      POP \t\t\t\n      JUMP \t\t\t\n    tag 931\t\t\t\n      JUMPDEST \t\t\t\n      PUSH [tag] 1116\t\t\t\n      DUP2 \t\t\t\n      PUSH [tag] 930\t\t\t\n      JUMP \t\t\t\n    tag 1116\t\t\t\n      JUMPDEST \t\t\t\n      DUP3 \t\t\t\n      MSTORE \t\t\t\n      POP \t\t\t\n      POP \t\t\t\n      JUMP \t\t\t\n    tag 137\t\t\t\n      JUMPDEST \t\t\t\n      PUSH 0\t\t\t\n      PUSH 20\t\t\t\n      DUP3 \t\t\t\n      ADD \t\t\t\n      SWAP1 \t\t\t\n      POP \t\t\t\n      PUSH [tag] 1118\t\t\t\n      PUSH 0\t\t\t\n      DUP4 \t\t\t\n      ADD \t\t\t\n      DUP5 \t\t\t\n      PUSH [tag] 931\t\t\t\n      JUMP \t\t\t\n    tag 1118\t\t\t\n      JUMPDEST \t\t\t\n      SWAP3 \t\t\t\n      SWAP2 \t\t\t\n      POP \t\t\t\n      POP \t\t\t\n      JUMP \t\t\t\n    tag 932\t\t\t\n      JUMPDEST \t\t\t\n      PUSH 0\t\t\t\n      PUSH FF00000000000000000000000000000000000000000000000000000000000000\t\t\t\n      DUP3 \t\t\t\n      AND \t\t\t\n      SWAP1 \t\t\t\n      POP \t\t\t\n      SWAP2 \t\t\t\n      SWAP1 \t\t\t\n      POP \t\t\t\n      JUMP \t\t\t\n    tag 933\t\t\t\n      JUMPDEST \t\t\t\n      PUSH [tag] 1121\t\t\t\n      DUP2 \t\t\t\n      PUSH [tag] 932\t\t\t\n      JUMP \t\t\t\n    tag 1121\t\t\t\n      JUMPDEST \t\t\t\n      DUP3 \t\t\t\n      MSTORE \t\t\t\n      POP \t\t\t\n      POP \t\t\t\n      JUMP \t\t\t\n    tag 934\t\t\t\n      JUMPDEST \t\t\t\n      PUSH 0\t\t\t\n      DUP2 \t\t\t\n      MLOAD \t\t\t\n      SWAP1 \t\t\t\n      POP \t\t\t\n      SWAP2 \t\t\t\n      SWAP1 \t\t\t\n      POP \t\t\t\n      JUMP \t\t\t\n    tag 935\t\t\t\n      JUMPDEST \t\t\t\n      PUSH 0\t\t\t\n      DUP3 \t\t\t\n      DUP3 \t\t\t\n      MSTORE \t\t\t\n      PUSH 20\t\t\t\n      DUP3 \t\t\t\n      ADD \t\t\t\n      SWAP1 \t\t\t\n      POP \t\t\t\n      SWAP3 \t\t\t\n      SWAP2 \t\t\t\n      POP \t\t\t\n      POP \t\t\t\n      JUMP \t\t\t\n    tag 936\t\t\t\n      JUMPDEST \t\t\t\n      PUSH 0\t\t\t\n      DUP2 \t\t\t\n      SWAP1 \t\t\t\n      POP \t\t\t\n      PUSH 20\t\t\t\n      DUP3 \t\t\t\n      ADD \t\t\t\n      SWAP1 \t\t\t\n      POP \t\t\t\n      SWAP2 \t\t\t\n      SWAP1 \t\t\t\n      POP \t\t\t\n      JUMP \t\t\t\n    tag 937\t\t\t\n      JUMPDEST \t\t\t\n      PUSH [tag] 1126\t\t\t\n      DUP2 \t\t\t\n      PUSH [tag] 912\t\t\t\n      JUMP \t\t\t\n    tag 1126\t\t\t\n      JUMPDEST \t\t\t\n      DUP3 \t\t\t\n      MSTORE \t\t\t\n      POP \t\t\t\n      POP \t\t\t\n      JUMP \t\t\t\n    tag 938\t\t\t\n      JUMPDEST \t\t\t\n      PUSH 0\t\t\t\n      PUSH [tag] 1128\t\t\t\n      DUP4 \t\t\t\n      DUP4 \t\t\t\n      PUSH [tag] 937\t\t\t\n      JUMP \t\t\t\n    tag 1128\t\t\t\n      JUMPDEST \t\t\t\n      PUSH 20\t\t\t\n      DUP4 \t\t\t\n      ADD \t\t\t\n      SWAP1 \t\t\t\n      POP \t\t\t\n      SWAP3 \t\t\t\n      SWAP2 \t\t\t\n      POP \t\t\t\n      POP \t\t\t\n      JUMP \t\t\t\n    tag 939\t\t\t\n      JUMPDEST \t\t\t\n      PUSH 0\t\t\t\n      PUSH 20\t\t\t\n      DUP3 \t\t\t\n      ADD \t\t\t\n      SWAP1 \t\t\t\n      POP \t\t\t\n      SWAP2 \t\t\t\n      SWAP1 \t\t\t\n      POP \t\t\t\n      JUMP \t\t\t\n    tag 940\t\t\t\n      JUMPDEST \t\t\t\n      PUSH 0\t\t\t\n      PUSH [tag] 1131\t\t\t\n      DUP3 \t\t\t\n      PUSH [tag] 934\t\t\t\n      JUMP \t\t\t\n    tag 1131\t\t\t\n      JUMPDEST \t\t\t\n      PUSH [tag] 1132\t\t\t\n      DUP2 \t\t\t\n      DUP6 \t\t\t\n      PUSH [tag] 935\t\t\t\n      JUMP \t\t\t\n    tag 1132\t\t\t\n      JUMPDEST \t\t\t\n      SWAP4 \t\t\t\n      POP \t\t\t\n      PUSH [tag] 1133\t\t\t\n      DUP4 \t\t\t\n      PUSH [tag] 936\t\t\t\n      JUMP \t\t\t\n    tag 1133\t\t\t\n      JUMPDEST \t\t\t\n      DUP1 \t\t\t\n      PUSH 0\t\t\t\n    tag 1134\t\t\t\n      JUMPDEST \t\t\t\n      DUP4 \t\t\t\n      DUP2 \t\t\t\n      LT \t\t\t\n      ISZERO \t\t\t\n      PUSH [tag] 1136\t\t\t\n      JUMPI \t\t\t\n      DUP2 \t\t\t\n      MLOAD \t\t\t\n      PUSH [tag] 1137\t\t\t\n      DUP9 \t\t\t\n      DUP3 \t\t\t\n      PUSH [tag] 938\t\t\t\n      JUMP \t\t\t\n    tag 1137\t\t\t\n      JUMPDEST \t\t\t\n      SWAP8 \t\t\t\n      POP \t\t\t\n      PUSH [tag] 1138\t\t\t\n      DUP4 \t\t\t\n      PUSH [tag] 939\t\t\t\n      JUMP \t\t\t\n    tag 1138\t\t\t\n      JUMPDEST \t\t\t\n      SWAP3 \t\t\t\n      POP \t\t\t\n      POP \t\t\t\n      PUSH 1\t\t\t\n      DUP2 \t\t\t\n      ADD \t\t\t\n      SWAP1 \t\t\t\n      POP \t\t\t\n      PUSH [tag] 1134\t\t\t\n      JUMP \t\t\t\n    tag 1136\t\t\t\n      JUMPDEST \t\t\t\n      POP \t\t\t\n      DUP6 \t\t\t\n      SWAP4 \t\t\t\n      POP \t\t\t\n      POP \t\t\t\n      POP \t\t\t\n      POP \t\t\t\n      SWAP3 \t\t\t\n      SWAP2 \t\t\t\n      POP \t\t\t\n      POP \t\t\t\n      JUMP \t\t\t\n    tag 154\t\t\t\n      JUMPDEST \t\t\t\n      PUSH 0\t\t\t\n      PUSH E0\t\t\t\n      DUP3 \t\t\t\n      ADD \t\t\t\n      SWAP1 \t\t\t\n      POP \t\t\t\n      PUSH [tag] 1140\t\t\t\n      PUSH 0\t\t\t\n      DUP4 \t\t\t\n      ADD \t\t\t\n      DUP11 \t\t\t\n      PUSH [tag] 933\t\t\t\n      JUMP \t\t\t\n    tag 1140\t\t\t\n      JUMPDEST \t\t\t\n      DUP2 \t\t\t\n      DUP2 \t\t\t\n      SUB \t\t\t\n      PUSH 20\t\t\t\n      DUP4 \t\t\t\n      ADD \t\t\t\n      MSTORE \t\t\t\n      PUSH [tag] 1141\t\t\t\n      DUP2 \t\t\t\n      DUP10 \t\t\t\n      PUSH [tag] 907\t\t\t\n      JUMP \t\t\t\n    tag 1141\t\t\t\n      JUMPDEST \t\t\t\n      SWAP1 \t\t\t\n      POP \t\t\t\n      DUP2 \t\t\t\n      DUP2 \t\t\t\n      SUB \t\t\t\n      PUSH 40\t\t\t\n      DUP4 \t\t\t\n      ADD \t\t\t\n      MSTORE \t\t\t\n      PUSH [tag] 1142\t\t\t\n      DUP2 \t\t\t\n      DUP9 \t\t\t\n      PUSH [tag] 907\t\t\t\n      JUMP \t\t\t\n    tag 1142\t\t\t\n      JUMPDEST \t\t\t\n      SWAP1 \t\t\t\n      POP \t\t\t\n      PUSH [tag] 1143\t\t\t\n      PUSH 60\t\t\t\n      DUP4 \t\t\t\n      ADD \t\t\t\n      DUP8 \t\t\t\n      PUSH [tag] 915\t\t\t\n      JUMP \t\t\t\n    tag 1143\t\t\t\n      JUMPDEST \t\t\t\n      PUSH [tag] 1144\t\t\t\n      PUSH 80\t\t\t\n      DUP4 \t\t\t\n      ADD \t\t\t\n      DUP7 \t\t\t\n      PUSH [tag] 922\t\t\t\n      JUMP \t\t\t\n    tag 1144\t\t\t\n      JUMPDEST \t\t\t\n      PUSH [tag] 1145\t\t\t\n      PUSH A0\t\t\t\n      DUP4 \t\t\t\n      ADD \t\t\t\n      DUP6 \t\t\t\n      PUSH [tag] 919\t\t\t\n      JUMP \t\t\t\n    tag 1145\t\t\t\n      JUMPDEST \t\t\t\n      DUP2 \t\t\t\n      DUP2 \t\t\t\n      SUB \t\t\t\n      PUSH C0\t\t\t\n      DUP4 \t\t\t\n      ADD \t\t\t\n      MSTORE \t\t\t\n      PUSH [tag] 1146\t\t\t\n      DUP2 \t\t\t\n      DUP5 \t\t\t\n      PUSH [tag] 940\t\t\t\n      JUMP \t\t\t\n    tag 1146\t\t\t\n      JUMPDEST \t\t\t\n      SWAP1 \t\t\t\n      POP \t\t\t\n      SWAP9 \t\t\t\n      SWAP8 \t\t\t\n      POP \t\t\t\n      POP \t\t\t\n      POP \t\t\t\n      POP \t\t\t\n      POP \t\t\t\n      POP \t\t\t\n      POP \t\t\t\n      POP \t\t\t\n      JUMP \t\t\t\n    tag 941\t\t\t\n      JUMPDEST \t\t\t\n      PUSH 0\t\t\t\n      PUSH FFFFFFFFFFFF\t\t\t\n      DUP3 \t\t\t\n      AND \t\t\t\n      SWAP1 \t\t\t\n      POP \t\t\t\n      SWAP2 \t\t\t\n      SWAP1 \t\t\t\n      POP \t\t\t\n      JUMP \t\t\t\n    tag 942\t\t\t\n      JUMPDEST \t\t\t\n      PUSH [tag] 1149\t\t\t\n      DUP2 \t\t\t\n      PUSH [tag] 941\t\t\t\n      JUMP \t\t\t\n    tag 1149\t\t\t\n      JUMPDEST \t\t\t\n      DUP3 \t\t\t\n      MSTORE \t\t\t\n      POP \t\t\t\n      POP \t\t\t\n      JUMP \t\t\t\n    tag 166\t\t\t\n      JUMPDEST \t\t\t\n      PUSH 0\t\t\t\n      PUSH 20\t\t\t\n      DUP3 \t\t\t\n      ADD \t\t\t\n      SWAP1 \t\t\t\n      POP \t\t\t\n      PUSH [tag] 1151\t\t\t\n      PUSH 0\t\t\t\n      DUP4 \t\t\t\n      ADD \t\t\t\n      DUP5 \t\t\t\n      PUSH [tag] 942\t\t\t\n      JUMP \t\t\t\n    tag 1151\t\t\t\n      JUMPDEST \t\t\t\n      SWAP3 \t\t\t\n      SWAP2 \t\t\t\n      POP \t\t\t\n      POP \t\t\t\n      JUMP \t\t\t\n    tag 183\t\t\t\n      JUMPDEST \t\t\t\n      PUSH 0\t\t\t\n      DUP1 \t\t\t\n      PUSH 0\t\t\t\n      PUSH 60\t\t\t\n      DUP5 \t\t\t\n      DUP7 \t\t\t\n      SUB \t\t\t\n      SLT \t\t\t\n      ISZERO \t\t\t\n      PUSH [tag] 1153\t\t\t\n      JUMPI \t\t\t\n      PUSH [tag] 1154\t\t\t\n      PUSH [tag] 896\t\t\t\n      JUMP \t\t\t\n    tag 1154\t\t\t\n      JUMPDEST \t\t\t\n    tag 1153\t\t\t\n      JUMPDEST \t\t\t\n      PUSH 0\t\t\t\n      PUSH [tag] 1155\t\t\t\n      DUP7 \t\t\t\n      DUP3 \t\t\t\n      DUP8 \t\t\t\n      ADD \t\t\t\n      PUSH [tag] 911\t\t\t\n      JUMP \t\t\t\n    tag 1155\t\t\t\n      JUMPDEST \t\t\t\n      SWAP4 \t\t\t\n      POP \t\t\t\n      POP \t\t\t\n      PUSH 20\t\t\t\n      PUSH [tag] 1156\t\t\t\n      DUP7 \t\t\t\n      DUP3 \t\t\t\n      DUP8 \t\t\t\n      ADD \t\t\t\n      PUSH [tag] 911\t\t\t\n      JUMP \t\t\t\n    tag 1156\t\t\t\n      JUMPDEST \t\t\t\n      SWAP3 \t\t\t\n      POP \t\t\t\n      POP \t\t\t\n      PUSH 40\t\t\t\n      PUSH [tag] 1157\t\t\t\n      DUP7 \t\t\t\n      DUP3 \t\t\t\n      DUP8 \t\t\t\n      ADD \t\t\t\n      PUSH [tag] 911\t\t\t\n      JUMP \t\t\t\n    tag 1157\t\t\t\n      JUMPDEST \t\t\t\n      SWAP2 \t\t\t\n      POP \t\t\t\n      POP \t\t\t\n      SWAP3 \t\t\t\n      POP \t\t\t\n      SWAP3 \t\t\t\n      POP \t\t\t\n      SWAP3 \t\t\t\n      JUMP \t\t\t\n    tag 943\t\t\t\n      JUMPDEST \t\t\t\n      PUSH [tag] 1159\t\t\t\n      DUP2 \t\t\t\n      PUSH [tag] 920\t\t\t\n      JUMP \t\t\t\n    tag 1159\t\t\t\n      JUMPDEST \t\t\t\n      DUP2 \t\t\t\n      EQ \t\t\t\n      PUSH [tag] 1160\t\t\t\n      JUMPI \t\t\t\n      PUSH 0\t\t\t\n      DUP1 \t\t\t\n      REVERT \t\t\t\n    tag 1160\t\t\t\n      JUMPDEST \t\t\t\n      POP \t\t\t\n      JUMP \t\t\t\n    tag 944\t\t\t\n      JUMPDEST \t\t\t\n      PUSH 0\t\t\t\n      DUP2 \t\t\t\n      CALLDATALOAD \t\t\t\n      SWAP1 \t\t\t\n      POP \t\t\t\n      PUSH [tag] 1162\t\t\t\n      DUP2 \t\t\t\n      PUSH [tag] 943\t\t\t\n      JUMP \t\t\t\n    tag 1162\t\t\t\n      JUMPDEST \t\t\t\n      SWAP3 \t\t\t\n      SWAP2 \t\t\t\n      POP \t\t\t\n      POP \t\t\t\n      JUMP \t\t\t\n    tag 187\t\t\t\n      JUMPDEST \t\t\t\n      PUSH 0\t\t\t\n      DUP1 \t\t\t\n      PUSH 0\t\t\t\n      DUP1 \t\t\t\n      PUSH 0\t\t\t\n      DUP1 \t\t\t\n      PUSH C0\t\t\t\n      DUP8 \t\t\t\n      DUP10 \t\t\t\n      SUB \t\t\t\n      SLT \t\t\t\n      ISZERO \t\t\t\n      PUSH [tag] 1164\t\t\t\n      JUMPI \t\t\t\n      PUSH [tag] 1165\t\t\t\n      PUSH [tag] 896\t\t\t\n      JUMP \t\t\t\n    tag 1165\t\t\t\n      JUMPDEST \t\t\t\n    tag 1164\t\t\t\n      JUMPDEST \t\t\t\n      PUSH 0\t\t\t\n      PUSH [tag] 1166\t\t\t\n      DUP10 \t\t\t\n      DUP3 \t\t\t\n      DUP11 \t\t\t\n      ADD \t\t\t\n      PUSH [tag] 911\t\t\t\n      JUMP \t\t\t\n    tag 1166\t\t\t\n      JUMPDEST \t\t\t\n      SWAP7 \t\t\t\n      POP \t\t\t\n      POP \t\t\t\n      PUSH 20\t\t\t\n      PUSH [tag] 1167\t\t\t\n      DUP10 \t\t\t\n      DUP3 \t\t\t\n      DUP11 \t\t\t\n      ADD \t\t\t\n      PUSH [tag] 914\t\t\t\n      JUMP \t\t\t\n    tag 1167\t\t\t\n      JUMPDEST \t\t\t\n      SWAP6 \t\t\t\n      POP \t\t\t\n      POP \t\t\t\n      PUSH 40\t\t\t\n      PUSH [tag] 1168\t\t\t\n      DUP10 \t\t\t\n      DUP3 \t\t\t\n      DUP11 \t\t\t\n      ADD \t\t\t\n      PUSH [tag] 914\t\t\t\n      JUMP \t\t\t\n    tag 1168\t\t\t\n      JUMPDEST \t\t\t\n      SWAP5 \t\t\t\n      POP \t\t\t\n      POP \t\t\t\n      PUSH 60\t\t\t\n      PUSH [tag] 1169\t\t\t\n      DUP10 \t\t\t\n      DUP3 \t\t\t\n      DUP11 \t\t\t\n      ADD \t\t\t\n      PUSH [tag] 944\t\t\t\n      JUMP \t\t\t\n    tag 1169\t\t\t\n      JUMPDEST \t\t\t\n      SWAP4 \t\t\t\n      POP \t\t\t\n      POP \t\t\t\n      PUSH 80\t\t\t\n      PUSH [tag] 1170\t\t\t\n      DUP10 \t\t\t\n      DUP3 \t\t\t\n      DUP11 \t\t\t\n      ADD \t\t\t\n      PUSH [tag] 918\t\t\t\n      JUMP \t\t\t\n    tag 1170\t\t\t\n      JUMPDEST \t\t\t\n      SWAP3 \t\t\t\n      POP \t\t\t\n      POP \t\t\t\n      PUSH A0\t\t\t\n      PUSH [tag] 1171\t\t\t\n      DUP10 \t\t\t\n      DUP3 \t\t\t\n      DUP11 \t\t\t\n      ADD \t\t\t\n      PUSH [tag] 918\t\t\t\n      JUMP \t\t\t\n    tag 1171\t\t\t\n      JUMPDEST \t\t\t\n      SWAP2 \t\t\t\n      POP \t\t\t\n      POP \t\t\t\n      SWAP3 \t\t\t\n      SWAP6 \t\t\t\n      POP \t\t\t\n      SWAP3 \t\t\t\n      SWAP6 \t\t\t\n      POP \t\t\t\n      SWAP3 \t\t\t\n      SWAP6 \t\t\t\n      JUMP \t\t\t\n    tag 191\t\t\t\n      JUMPDEST \t\t\t\n      PUSH 0\t\t\t\n      DUP1 \t\t\t\n      PUSH 0\t\t\t\n      DUP1 \t\t\t\n      PUSH 0\t\t\t\n      DUP1 \t\t\t\n      PUSH 0\t\t\t\n      PUSH E0\t\t\t\n      DUP9 \t\t\t\n      DUP11 \t\t\t\n      SUB \t\t\t\n      SLT \t\t\t\n      ISZERO \t\t\t\n      PUSH [tag] 1173\t\t\t\n      JUMPI \t\t\t\n      PUSH [tag] 1174\t\t\t\n      PUSH [tag] 896\t\t\t\n      JUMP \t\t\t\n    tag 1174\t\t\t\n      JUMPDEST \t\t\t\n    tag 1173\t\t\t\n      JUMPDEST \t\t\t\n      PUSH 0\t\t\t\n      PUSH [tag] 1175\t\t\t\n      DUP11 \t\t\t\n      DUP3 \t\t\t\n      DUP12 \t\t\t\n      ADD \t\t\t\n      PUSH [tag] 911\t\t\t\n      JUMP \t\t\t\n    tag 1175\t\t\t\n      JUMPDEST \t\t\t\n      SWAP8 \t\t\t\n      POP \t\t\t\n      POP \t\t\t\n      PUSH 20\t\t\t\n      PUSH [tag] 1176\t\t\t\n      DUP11 \t\t\t\n      DUP3 \t\t\t\n      DUP12 \t\t\t\n      ADD \t\t\t\n      PUSH [tag] 911\t\t\t\n      JUMP \t\t\t\n    tag 1176\t\t\t\n      JUMPDEST \t\t\t\n      SWAP7 \t\t\t\n      POP \t\t\t\n      POP \t\t\t\n      PUSH 40\t\t\t\n      PUSH [tag] 1177\t\t\t\n      DUP11 \t\t\t\n      DUP3 \t\t\t\n      DUP12 \t\t\t\n      ADD \t\t\t\n      PUSH [tag] 914\t\t\t\n      JUMP \t\t\t\n    tag 1177\t\t\t\n      JUMPDEST \t\t\t\n      SWAP6 \t\t\t\n      POP \t\t\t\n      POP \t\t\t\n      PUSH 60\t\t\t\n      PUSH [tag] 1178\t\t\t\n      DUP11 \t\t\t\n      DUP3 \t\t\t\n      DUP12 \t\t\t\n      ADD \t\t\t\n      PUSH [tag] 914\t\t\t\n      JUMP \t\t\t\n    tag 1178\t\t\t\n      JUMPDEST \t\t\t\n      SWAP5 \t\t\t\n      POP \t\t\t\n      POP \t\t\t\n      PUSH 80\t\t\t\n      PUSH [tag] 1179\t\t\t\n      DUP11 \t\t\t\n      DUP3 \t\t\t\n      DUP12 \t\t\t\n      ADD \t\t\t\n      PUSH [tag] 944\t\t\t\n      JUMP \t\t\t\n    tag 1179\t\t\t\n      JUMPDEST \t\t\t\n      SWAP4 \t\t\t\n      POP \t\t\t\n      POP \t\t\t\n      PUSH A0\t\t\t\n      PUSH [tag] 1180\t\t\t\n      DUP11 \t\t\t\n      DUP3 \t\t\t\n      DUP12 \t\t\t\n      ADD \t\t\t\n      PUSH [tag] 918\t\t\t\n      JUMP \t\t\t\n    tag 1180\t\t\t\n      JUMPDEST \t\t\t\n      SWAP3 \t\t\t\n      POP \t\t\t\n      POP \t\t\t\n      PUSH C0\t\t\t\n      PUSH [tag] 1181\t\t\t\n      DUP11 \t\t\t\n      DUP3 \t\t\t\n      DUP12 \t\t\t\n      ADD \t\t\t\n      PUSH [tag] 918\t\t\t\n      JUMP \t\t\t\n    tag 1181\t\t\t\n      JUMPDEST \t\t\t\n      SWAP2 \t\t\t\n      POP \t\t\t\n      POP \t\t\t\n      SWAP3 \t\t\t\n      SWAP6 \t\t\t\n      SWAP9 \t\t\t\n      SWAP2 \t\t\t\n      SWAP5 \t\t\t\n      SWAP8 \t\t\t\n      POP \t\t\t\n      SWAP3 \t\t\t\n      SWAP6 \t\t\t\n      POP \t\t\t\n      JUMP \t\t\t\n    tag 205\t\t\t\n      JUMPDEST \t\t\t\n      PUSH 0\t\t\t\n      DUP1 \t\t\t\n      PUSH 40\t\t\t\n      DUP4 \t\t\t\n      DUP6 \t\t\t\n      SUB \t\t\t\n      SLT \t\t\t\n      ISZERO \t\t\t\n      PUSH [tag] 1183\t\t\t\n      JUMPI \t\t\t\n      PUSH [tag] 1184\t\t\t\n      PUSH [tag] 896\t\t\t\n      JUMP \t\t\t\n    tag 1184\t\t\t\n      JUMPDEST \t\t\t\n    tag 1183\t\t\t\n      JUMPDEST \t\t\t\n      PUSH 0\t\t\t\n      PUSH [tag] 1185\t\t\t\n      DUP6 \t\t\t\n      DUP3 \t\t\t\n      DUP7 \t\t\t\n      ADD \t\t\t\n      PUSH [tag] 911\t\t\t\n      JUMP \t\t\t\n    tag 1185\t\t\t\n      JUMPDEST \t\t\t\n      SWAP3 \t\t\t\n      POP \t\t\t\n      POP \t\t\t\n      PUSH 20\t\t\t\n      PUSH [tag] 1186\t\t\t\n      DUP6 \t\t\t\n      DUP3 \t\t\t\n      DUP7 \t\t\t\n      ADD \t\t\t\n      PUSH [tag] 911\t\t\t\n      JUMP \t\t\t\n    tag 1186\t\t\t\n      JUMPDEST \t\t\t\n      SWAP2 \t\t\t\n      POP \t\t\t\n      POP \t\t\t\n      SWAP3 \t\t\t\n      POP \t\t\t\n      SWAP3 \t\t\t\n      SWAP1 \t\t\t\n      POP \t\t\t\n      JUMP \t\t\t\n    tag 945\t\t\t\n      JUMPDEST \t\t\t\n      PUSH [tag] 1188\t\t\t\n      DUP2 \t\t\t\n      PUSH [tag] 930\t\t\t\n      JUMP \t\t\t\n    tag 1188\t\t\t\n      JUMPDEST \t\t\t\n      DUP2 \t\t\t\n      EQ \t\t\t\n      PUSH [tag] 1189\t\t\t\n      JUMPI \t\t\t\n      PUSH 0\t\t\t\n      DUP1 \t\t\t\n      REVERT \t\t\t\n    tag 1189\t\t\t\n      JUMPDEST \t\t\t\n      POP \t\t\t\n      JUMP \t\t\t\n    tag 946\t\t\t\n      JUMPDEST \t\t\t\n      PUSH 0\t\t\t\n      DUP2 \t\t\t\n      CALLDATALOAD \t\t\t\n      SWAP1 \t\t\t\n      POP \t\t\t\n      PUSH [tag] 1191\t\t\t\n      DUP2 \t\t\t\n      PUSH [tag] 945\t\t\t\n      JUMP \t\t\t\n    tag 1191\t\t\t\n      JUMPDEST \t\t\t\n      SWAP3 \t\t\t\n      SWAP2 \t\t\t\n      POP \t\t\t\n      POP \t\t\t\n      JUMP \t\t\t\n    tag 213\t\t\t\n      JUMPDEST \t\t\t\n      PUSH 0\t\t\t\n      DUP1 \t\t\t\n      PUSH 40\t\t\t\n      DUP4 \t\t\t\n      DUP6 \t\t\t\n      SUB \t\t\t\n      SLT \t\t\t\n      ISZERO \t\t\t\n      PUSH [tag] 1193\t\t\t\n      JUMPI \t\t\t\n      PUSH [tag] 1194\t\t\t\n      PUSH [tag] 896\t\t\t\n      JUMP \t\t\t\n    tag 1194\t\t\t\n      JUMPDEST \t\t\t\n    tag 1193\t\t\t\n      JUMPDEST \t\t\t\n      PUSH 0\t\t\t\n      PUSH [tag] 1195\t\t\t\n      DUP6 \t\t\t\n      DUP3 \t\t\t\n      DUP7 \t\t\t\n      ADD \t\t\t\n      PUSH [tag] 911\t\t\t\n      JUMP \t\t\t\n    tag 1195\t\t\t\n      JUMPDEST \t\t\t\n      SWAP3 \t\t\t\n      POP \t\t\t\n      POP \t\t\t\n      PUSH 20\t\t\t\n      PUSH [tag] 1196\t\t\t\n      DUP6 \t\t\t\n      DUP3 \t\t\t\n      DUP7 \t\t\t\n      ADD \t\t\t\n      PUSH [tag] 946\t\t\t\n      JUMP \t\t\t\n    tag 1196\t\t\t\n      JUMPDEST \t\t\t\n      SWAP2 \t\t\t\n      POP \t\t\t\n      POP \t\t\t\n      SWAP3 \t\t\t\n      POP \t\t\t\n      SWAP3 \t\t\t\n      SWAP1 \t\t\t\n      POP \t\t\t\n      JUMP \t\t\t\n    tag 947\t\t\t\n      JUMPDEST \t\t\t\n      PUSH [tag] 1198\t\t\t\n      DUP2 \t\t\t\n      PUSH [tag] 941\t\t\t\n      JUMP \t\t\t\n    tag 1198\t\t\t\n      JUMPDEST \t\t\t\n      DUP3 \t\t\t\n      MSTORE \t\t\t\n      POP \t\t\t\n      POP \t\t\t\n      JUMP \t\t\t\n    tag 948\t\t\t\n      JUMPDEST \t\t\t\n      PUSH 0\t\t\t\n      PUSH FFFFFFFFFFFFFFFFFFFFFFFFFFFFFFFFFFFFFFFFFFFFFFFFFFFF\t\t\t\n      DUP3 \t\t\t\n      AND \t\t\t\n      SWAP1 \t\t\t\n      POP \t\t\t\n      SWAP2 \t\t\t\n      SWAP1 \t\t\t\n      POP \t\t\t\n      JUMP \t\t\t\n    tag 949\t\t\t\n      JUMPDEST \t\t\t\n      PUSH [tag] 1201\t\t\t\n      DUP2 \t\t\t\n      PUSH [tag] 948\t\t\t\n      JUMP \t\t\t\n    tag 1201\t\t\t\n      JUMPDEST \t\t\t\n      DUP3 \t\t\t\n      MSTORE \t\t\t\n      POP \t\t\t\n      POP \t\t\t\n      JUMP \t\t\t\n    tag 950\t\t\t\n      JUMPDEST \t\t\t\n      PUSH 40\t\t\t\n      DUP3 \t\t\t\n      ADD \t\t\t\n      PUSH 0\t\t\t\n      DUP3 \t\t\t\n      ADD \t\t\t\n      MLOAD \t\t\t\n      PUSH [tag] 1203\t\t\t\n      PUSH 0\t\t\t\n      DUP6 \t\t\t\n      ADD \t\t\t\n      DUP3 \t\t\t\n      PUSH [tag] 947\t\t\t\n      JUMP \t\t\t\n    tag 1203\t\t\t\n      JUMPDEST \t\t\t\n      POP \t\t\t\n      PUSH 20\t\t\t\n      DUP3 \t\t\t\n      ADD \t\t\t\n      MLOAD \t\t\t\n      PUSH [tag] 1204\t\t\t\n      PUSH 20\t\t\t\n      DUP6 \t\t\t\n      ADD \t\t\t\n      DUP3 \t\t\t\n      PUSH [tag] 949\t\t\t\n      JUMP \t\t\t\n    tag 1204\t\t\t\n      JUMPDEST \t\t\t\n      POP \t\t\t\n      POP \t\t\t\n      POP \t\t\t\n      POP \t\t\t\n      JUMP \t\t\t\n    tag 216\t\t\t\n      JUMPDEST \t\t\t\n      PUSH 0\t\t\t\n      PUSH 40\t\t\t\n      DUP3 \t\t\t\n      ADD \t\t\t\n      SWAP1 \t\t\t\n      POP \t\t\t\n      PUSH [tag] 1206\t\t\t\n      PUSH 0\t\t\t\n      DUP4 \t\t\t\n      ADD \t\t\t\n      DUP5 \t\t\t\n      PUSH [tag] 950\t\t\t\n      JUMP \t\t\t\n    tag 1206\t\t\t\n      JUMPDEST \t\t\t\n      SWAP3 \t\t\t\n      SWAP2 \t\t\t\n      POP \t\t\t\n      POP \t\t\t\n      JUMP \t\t\t\n    tag 951\t\t\t\n      JUMPDEST \t\t\t\n      PUSH 4E487B7100000000000000000000000000000000000000000000000000000000\t\t\t\n      PUSH 0\t\t\t\n      MSTORE \t\t\t\n      PUSH 22\t\t\t\n      PUSH 4\t\t\t\n      MSTORE \t\t\t\n      PUSH 24\t\t\t\n      PUSH 0\t\t\t\n      REVERT \t\t\t\n    tag 225\t\t\t\n      JUMPDEST \t\t\t\n      PUSH 0\t\t\t\n      PUSH 2\t\t\t\n      DUP3 \t\t\t\n      DIV \t\t\t\n      SWAP1 \t\t\t\n      POP \t\t\t\n      PUSH 1\t\t\t\n      DUP3 \t\t\t\n      AND \t\t\t\n      DUP1 \t\t\t\n      PUSH [tag] 1209\t\t\t\n      JUMPI \t\t\t\n      PUSH 7F\t\t\t\n      DUP3 \t\t\t\n      AND \t\t\t\n      SWAP2 \t\t\t\n      POP \t\t\t\n    tag 1209\t\t\t\n      JUMPDEST \t\t\t\n      PUSH 20\t\t\t\n      DUP3 \t\t\t\n      LT \t\t\t\n      DUP2 \t\t\t\n      SUB \t\t\t\n      PUSH [tag] 1210\t\t\t\n      JUMPI \t\t\t\n      PUSH [tag] 1211\t\t\t\n      PUSH [tag] 951\t\t\t\n      JUMP \t\t\t\n    tag 1211\t\t\t\n      JUMPDEST \t\t\t\n    tag 1210\t\t\t\n      JUMPDEST \t\t\t\n      POP \t\t\t\n      SWAP2 \t\t\t\n      SWAP1 \t\t\t\n      POP \t\t\t\n      JUMP \t\t\t\n    tag 268\t\t\t\n      JUMPDEST \t\t\t\n      PUSH 0\t\t\t\n      PUSH 40\t\t\t\n      DUP3 \t\t\t\n      ADD \t\t\t\n      SWAP1 \t\t\t\n      POP \t\t\t\n      PUSH [tag] 1213\t\t\t\n      PUSH 0\t\t\t\n      DUP4 \t\t\t\n      ADD \t\t\t\n      DUP6 \t\t\t\n      PUSH [tag] 915\t\t\t\n      JUMP \t\t\t\n    tag 1213\t\t\t\n      JUMPDEST \t\t\t\n      PUSH [tag] 1214\t\t\t\n      PUSH 20\t\t\t\n      DUP4 \t\t\t\n      ADD \t\t\t\n      DUP5 \t\t\t\n      PUSH [tag] 942\t\t\t\n      JUMP \t\t\t\n    tag 1214\t\t\t\n      JUMPDEST \t\t\t\n      SWAP4 \t\t\t\n      SWAP3 \t\t\t\n      POP \t\t\t\n      POP \t\t\t\n      POP \t\t\t\n      JUMP \t\t\t\n    tag 952\t\t\t\n      JUMPDEST \t\t\t\n      PUSH 0\t\t\t\n      DUP3 \t\t\t\n      DUP3 \t\t\t\n      MSTORE \t\t\t\n      PUSH 20\t\t\t\n      DUP3 \t\t\t\n      ADD \t\t\t\n      SWAP1 \t\t\t\n      POP \t\t\t\n      SWAP3 \t\t\t\n      SWAP2 \t\t\t\n      POP \t\t\t\n      POP \t\t\t\n      JUMP \t\t\t\n    tag 953\t\t\t\n      JUMPDEST \t\t\t\n      DUP3 \t\t\t\n      DUP2 \t\t\t\n      DUP4 \t\t\t\n      CALLDATACOPY \t\t\t\n      PUSH 0\t\t\t\n      DUP4 \t\t\t\n      DUP4 \t\t\t\n      ADD \t\t\t\n      MSTORE \t\t\t\n      POP \t\t\t\n      POP \t\t\t\n      POP \t\t\t\n      JUMP \t\t\t\n    tag 954\t\t\t\n      JUMPDEST \t\t\t\n      PUSH 0\t\t\t\n      PUSH [tag] 1218\t\t\t\n      DUP4 \t\t\t\n      DUP6 \t\t\t\n      PUSH [tag] 952\t\t\t\n      JUMP \t\t\t\n    tag 1218\t\t\t\n      JUMPDEST \t\t\t\n      SWAP4 \t\t\t\n      POP \t\t\t\n      PUSH [tag] 1219\t\t\t\n      DUP4 \t\t\t\n      DUP6 \t\t\t\n      DUP5 \t\t\t\n      PUSH [tag] 953\t\t\t\n      JUMP \t\t\t\n    tag 1219\t\t\t\n      JUMPDEST \t\t\t\n      PUSH [tag] 1220\t\t\t\n      DUP4 \t\t\t\n      PUSH [tag] 906\t\t\t\n      JUMP \t\t\t\n    tag 1220\t\t\t\n      JUMPDEST \t\t\t\n      DUP5 \t\t\t\n      ADD \t\t\t\n      SWAP1 \t\t\t\n      POP \t\t\t\n      SWAP4 \t\t\t\n      SWAP3 \t\t\t\n      POP \t\t\t\n      POP \t\t\t\n      POP \t\t\t\n      JUMP \t\t\t\n    tag 309\t\t\t\n      JUMPDEST \t\t\t\n      PUSH 0\t\t\t\n      PUSH A0\t\t\t\n      DUP3 \t\t\t\n      ADD \t\t\t\n      SWAP1 \t\t\t\n      POP \t\t\t\n      PUSH [tag] 1222\t\t\t\n      PUSH 0\t\t\t\n      DUP4 \t\t\t\n      ADD \t\t\t\n      DUP10 \t\t\t\n      PUSH [tag] 922\t\t\t\n      JUMP \t\t\t\n    tag 1222\t\t\t\n      JUMPDEST \t\t\t\n      PUSH [tag] 1223\t\t\t\n      PUSH 20\t\t\t\n      DUP4 \t\t\t\n      ADD \t\t\t\n      DUP9 \t\t\t\n      PUSH [tag] 922\t\t\t\n      JUMP \t\t\t\n    tag 1223\t\t\t\n      JUMPDEST \t\t\t\n      PUSH [tag] 1224\t\t\t\n      PUSH 40\t\t\t\n      DUP4 \t\t\t\n      ADD \t\t\t\n      DUP8 \t\t\t\n      PUSH [tag] 915\t\t\t\n      JUMP \t\t\t\n    tag 1224\t\t\t\n      JUMPDEST \t\t\t\n      PUSH [tag] 1225\t\t\t\n      PUSH 60\t\t\t\n      DUP4 \t\t\t\n      ADD \t\t\t\n      DUP7 \t\t\t\n      PUSH [tag] 915\t\t\t\n      JUMP \t\t\t\n    tag 1225\t\t\t\n      JUMPDEST \t\t\t\n      DUP2 \t\t\t\n      DUP2 \t\t\t\n      SUB \t\t\t\n      PUSH 80\t\t\t\n      DUP4 \t\t\t\n      ADD \t\t\t\n      MSTORE \t\t\t\n      PUSH [tag] 1226\t\t\t\n      DUP2 \t\t\t\n      DUP5 \t\t\t\n      DUP7 \t\t\t\n      PUSH [tag] 954\t\t\t\n      JUMP \t\t\t\n    tag 1226\t\t\t\n      JUMPDEST \t\t\t\n      SWAP1 \t\t\t\n      POP \t\t\t\n      SWAP8 \t\t\t\n      SWAP7 \t\t\t\n      POP \t\t\t\n      POP \t\t\t\n      POP \t\t\t\n      POP \t\t\t\n      POP \t\t\t\n      POP \t\t\t\n      POP \t\t\t\n      JUMP \t\t\t\n    tag 955\t\t\t\n      JUMPDEST \t\t\t\n      PUSH 0\t\t\t\n      DUP2 \t\t\t\n      MLOAD \t\t\t\n      SWAP1 \t\t\t\n      POP \t\t\t\n      PUSH [tag] 1228\t\t\t\n      DUP2 \t\t\t\n      PUSH [tag] 917\t\t\t\n      JUMP \t\t\t\n    tag 1228\t\t\t\n      JUMPDEST \t\t\t\n      SWAP3 \t\t\t\n      SWAP2 \t\t\t\n      POP \t\t\t\n      POP \t\t\t\n      JUMP \t\t\t\n    tag 313\t\t\t\n      JUMPDEST \t\t\t\n      PUSH 0\t\t\t\n      PUSH 20\t\t\t\n      DUP3 \t\t\t\n      DUP5 \t\t\t\n      SUB \t\t\t\n      SLT \t\t\t\n      ISZERO \t\t\t\n      PUSH [tag] 1230\t\t\t\n      JUMPI \t\t\t\n      PUSH [tag] 1231\t\t\t\n      PUSH [tag] 896\t\t\t\n      JUMP \t\t\t\n    tag 1231\t\t\t\n      JUMPDEST \t\t\t\n    tag 1230\t\t\t\n      JUMPDEST \t\t\t\n      PUSH 0\t\t\t\n      PUSH [tag] 1232\t\t\t\n      DUP5 \t\t\t\n      DUP3 \t\t\t\n      DUP6 \t\t\t\n      ADD \t\t\t\n      PUSH [tag] 955\t\t\t\n      JUMP \t\t\t\n    tag 1232\t\t\t\n      JUMPDEST \t\t\t\n      SWAP2 \t\t\t\n      POP \t\t\t\n      POP \t\t\t\n      SWAP3 \t\t\t\n      SWAP2 \t\t\t\n      POP \t\t\t\n      POP \t\t\t\n      JUMP \t\t\t\n    tag 956\t\t\t\n      JUMPDEST \t\t\t\n      PUSH 4E487B7100000000000000000000000000000000000000000000000000000000\t\t\t\n      PUSH 0\t\t\t\n      MSTORE \t\t\t\n      PUSH 11\t\t\t\n      PUSH 4\t\t\t\n      MSTORE \t\t\t\n      PUSH 24\t\t\t\n      PUSH 0\t\t\t\n      REVERT \t\t\t\n    tag 320\t\t\t\n      JUMPDEST \t\t\t\n      PUSH 0\t\t\t\n      PUSH [tag] 1235\t\t\t\n      DUP3 \t\t\t\n      PUSH [tag] 912\t\t\t\n      JUMP \t\t\t\n    tag 1235\t\t\t\n      JUMPDEST \t\t\t\n      SWAP2 \t\t\t\n      POP \t\t\t\n      PUSH [tag] 1236\t\t\t\n      DUP4 \t\t\t\n      PUSH [tag] 912\t\t\t\n      JUMP \t\t\t\n    tag 1236\t\t\t\n      JUMPDEST \t\t\t\n      SWAP3 \t\t\t\n      POP \t\t\t\n      DUP3 \t\t\t\n      DUP3 \t\t\t\n      ADD \t\t\t\n      SWAP1 \t\t\t\n      POP \t\t\t\n      DUP1 \t\t\t\n      DUP3 \t\t\t\n      GT \t\t\t\n      ISZERO \t\t\t\n      PUSH [tag] 1237\t\t\t\n      JUMPI \t\t\t\n      PUSH [tag] 1238\t\t\t\n      PUSH [tag] 956\t\t\t\n      JUMP \t\t\t\n    tag 1238\t\t\t\n      JUMPDEST \t\t\t\n    tag 1237\t\t\t\n      JUMPDEST \t\t\t\n      SWAP3 \t\t\t\n      SWAP2 \t\t\t\n      POP \t\t\t\n      POP \t\t\t\n      JUMP \t\t\t\n    tag 333\t\t\t\n      JUMPDEST \t\t\t\n      PUSH 0\t\t\t\n      PUSH [tag] 1240\t\t\t\n      DUP3 \t\t\t\n      PUSH [tag] 912\t\t\t\n      JUMP \t\t\t\n    tag 1240\t\t\t\n      JUMPDEST \t\t\t\n      SWAP2 \t\t\t\n      POP \t\t\t\n      PUSH [tag] 1241\t\t\t\n      DUP4 \t\t\t\n      PUSH [tag] 912\t\t\t\n      JUMP \t\t\t\n    tag 1241\t\t\t\n      JUMPDEST \t\t\t\n      SWAP3 \t\t\t\n      POP \t\t\t\n      DUP3 \t\t\t\n      DUP3 \t\t\t\n      SUB \t\t\t\n      SWAP1 \t\t\t\n      POP \t\t\t\n      DUP2 \t\t\t\n      DUP2 \t\t\t\n      GT \t\t\t\n      ISZERO \t\t\t\n      PUSH [tag] 1242\t\t\t\n      JUMPI \t\t\t\n      PUSH [tag] 1243\t\t\t\n      PUSH [tag] 956\t\t\t\n      JUMP \t\t\t\n    tag 1243\t\t\t\n      JUMPDEST \t\t\t\n    tag 1242\t\t\t\n      JUMPDEST \t\t\t\n      SWAP3 \t\t\t\n      SWAP2 \t\t\t\n      POP \t\t\t\n      POP \t\t\t\n      JUMP \t\t\t\n    tag 957\t\t\t\n      JUMPDEST \t\t\t\n      PUSH 4549503731323A20556E696E697469616C697A65640000000000000000000000\t\t\t\n      PUSH 0\t\t\t\n      DUP3 \t\t\t\n      ADD \t\t\t\n      MSTORE \t\t\t\n      POP \t\t\t\n      JUMP \t\t\t\n    tag 958\t\t\t\n      JUMPDEST \t\t\t\n      PUSH 0\t\t\t\n      PUSH [tag] 1246\t\t\t\n      PUSH 15\t\t\t\n      DUP4 \t\t\t\n      PUSH [tag] 904\t\t\t\n      JUMP \t\t\t\n    tag 1246\t\t\t\n      JUMPDEST \t\t\t\n      SWAP2 \t\t\t\n      POP \t\t\t\n      PUSH [tag] 1247\t\t\t\n      DUP3 \t\t\t\n      PUSH [tag] 957\t\t\t\n      JUMP \t\t\t\n    tag 1247\t\t\t\n      JUMPDEST \t\t\t\n      PUSH 20\t\t\t\n      DUP3 \t\t\t\n      ADD \t\t\t\n      SWAP1 \t\t\t\n      POP \t\t\t\n      SWAP2 \t\t\t\n      SWAP1 \t\t\t\n      POP \t\t\t\n      JUMP \t\t\t\n    tag 357\t\t\t\n      JUMPDEST \t\t\t\n      PUSH 0\t\t\t\n      PUSH 20\t\t\t\n      DUP3 \t\t\t\n      ADD \t\t\t\n      SWAP1 \t\t\t\n      POP \t\t\t\n      DUP2 \t\t\t\n      DUP2 \t\t\t\n      SUB \t\t\t\n      PUSH 0\t\t\t\n      DUP4 \t\t\t\n      ADD \t\t\t\n      MSTORE \t\t\t\n      PUSH [tag] 1249\t\t\t\n      DUP2 \t\t\t\n      PUSH [tag] 958\t\t\t\n      JUMP \t\t\t\n    tag 1249\t\t\t\n      JUMPDEST \t\t\t\n      SWAP1 \t\t\t\n      POP \t\t\t\n      SWAP2 \t\t\t\n      SWAP1 \t\t\t\n      POP \t\t\t\n      JUMP \t\t\t\n    tag 364\t\t\t\n      JUMPDEST \t\t\t\n      PUSH 4E487B7100000000000000000000000000000000000000000000000000000000\t\t\t\n      PUSH 0\t\t\t\n      MSTORE \t\t\t\n      PUSH 41\t\t\t\n      PUSH 4\t\t\t\n      MSTORE \t\t\t\n      PUSH 24\t\t\t\n      PUSH 0\t\t\t\n      REVERT \t\t\t\n    tag 959\t\t\t\n      JUMPDEST \t\t\t\n      PUSH 0\t\t\t\n      DUP2 \t\t\t\n      PUSH 1\t\t\t\n      SHR \t\t\t\n      SWAP1 \t\t\t\n      POP \t\t\t\n      SWAP2 \t\t\t\n      SWAP1 \t\t\t\n      POP \t\t\t\n      JUMP \t\t\t\n    tag 960\t\t\t\n      JUMPDEST \t\t\t\n      PUSH 0\t\t\t\n      DUP1 \t\t\t\n      DUP3 \t\t\t\n      SWAP2 \t\t\t\n      POP \t\t\t\n      DUP4 \t\t\t\n      SWAP1 \t\t\t\n      POP \t\t\t\n    tag 1253\t\t\t\n      JUMPDEST \t\t\t\n      PUSH 1\t\t\t\n      DUP6 \t\t\t\n      GT \t\t\t\n      ISZERO \t\t\t\n      PUSH [tag] 1255\t\t\t\n      JUMPI \t\t\t\n      DUP1 \t\t\t\n      DUP7 \t\t\t\n      DIV \t\t\t\n      DUP2 \t\t\t\n      GT \t\t\t\n      ISZERO \t\t\t\n      PUSH [tag] 1256\t\t\t\n      JUMPI \t\t\t\n      PUSH [tag] 1257\t\t\t\n      PUSH [tag] 956\t\t\t\n      JUMP \t\t\t\n    tag 1257\t\t\t\n      JUMPDEST \t\t\t\n    tag 1256\t\t\t\n      JUMPDEST \t\t\t\n      PUSH 1\t\t\t\n      DUP6 \t\t\t\n      AND \t\t\t\n      ISZERO \t\t\t\n      PUSH [tag] 1258\t\t\t\n      JUMPI \t\t\t\n      DUP1 \t\t\t\n      DUP3 \t\t\t\n      MUL \t\t\t\n      SWAP2 \t\t\t\n      POP \t\t\t\n    tag 1258\t\t\t\n      JUMPDEST \t\t\t\n      DUP1 \t\t\t\n      DUP2 \t\t\t\n      MUL \t\t\t\n      SWAP1 \t\t\t\n      POP \t\t\t\n      PUSH [tag] 1259\t\t\t\n      DUP6 \t\t\t\n      PUSH [tag] 959\t\t\t\n      JUMP \t\t\t\n    tag 1259\t\t\t\n      JUMPDEST \t\t\t\n      SWAP5 \t\t\t\n      POP \t\t\t\n      PUSH [tag] 1253\t\t\t\n      JUMP \t\t\t\n    tag 1255\t\t\t\n      JUMPDEST \t\t\t\n      SWAP5 \t\t\t\n      POP \t\t\t\n      SWAP5 \t\t\t\n      SWAP3 \t\t\t\n      POP \t\t\t\n      POP \t\t\t\n      POP \t\t\t\n      JUMP \t\t\t\n    tag 961\t\t\t\n      JUMPDEST \t\t\t\n      PUSH 0\t\t\t\n      DUP3 \t\t\t\n      PUSH [tag] 1261\t\t\t\n      JUMPI \t\t\t\n      PUSH 1\t\t\t\n      SWAP1 \t\t\t\n      POP \t\t\t\n      PUSH [tag] 1260\t\t\t\n      JUMP \t\t\t\n    tag 1261\t\t\t\n      JUMPDEST \t\t\t\n      DUP2 \t\t\t\n      PUSH [tag] 1262\t\t\t\n      JUMPI \t\t\t\n      PUSH 0\t\t\t\n      SWAP1 \t\t\t\n      POP \t\t\t\n      PUSH [tag] 1260\t\t\t\n      JUMP \t\t\t\n    tag 1262\t\t\t\n      JUMPDEST \t\t\t\n      DUP2 \t\t\t\n      PUSH 1\t\t\t\n      DUP2 \t\t\t\n      EQ \t\t\t\n      PUSH [tag] 1264\t\t\t\n      JUMPI \t\t\t\n      PUSH 2\t\t\t\n      DUP2 \t\t\t\n      EQ \t\t\t\n      PUSH [tag] 1265\t\t\t\n      JUMPI \t\t\t\n      PUSH [tag] 1263\t\t\t\n      JUMP \t\t\t\n    tag 1264\t\t\t\n      JUMPDEST \t\t\t\n      PUSH 1\t\t\t\n      SWAP2 \t\t\t\n      POP \t\t\t\n      POP \t\t\t\n      PUSH [tag] 1260\t\t\t\n      JUMP \t\t\t\n    tag 1265\t\t\t\n      JUMPDEST \t\t\t\n      PUSH FF\t\t\t\n      DUP5 \t\t\t\n      GT \t\t\t\n      ISZERO \t\t\t\n      PUSH [tag] 1266\t\t\t\n      JUMPI \t\t\t\n      PUSH [tag] 1267\t\t\t\n      PUSH [tag] 956\t\t\t\n      JUMP \t\t\t\n    tag 1267\t\t\t\n      JUMPDEST \t\t\t\n    tag 1266\t\t\t\n      JUMPDEST \t\t\t\n      DUP4 \t\t\t\n      PUSH 2\t\t\t\n      EXP \t\t\t\n      SWAP2 \t\t\t\n      POP \t\t\t\n      DUP5 \t\t\t\n      DUP3 \t\t\t\n      GT \t\t\t\n      ISZERO \t\t\t\n      PUSH [tag] 1268\t\t\t\n      JUMPI \t\t\t\n      PUSH [tag] 1269\t\t\t\n      PUSH [tag] 956\t\t\t\n      JUMP \t\t\t\n    tag 1269\t\t\t\n      JUMPDEST \t\t\t\n    tag 1268\t\t\t\n      JUMPDEST \t\t\t\n      POP \t\t\t\n      PUSH [tag] 1260\t\t\t\n      JUMP \t\t\t\n    tag 1263\t\t\t\n      JUMPDEST \t\t\t\n      POP \t\t\t\n      PUSH 20\t\t\t\n      DUP4 \t\t\t\n      LT \t\t\t\n      PUSH 133\t\t\t\n      DUP4 \t\t\t\n      LT \t\t\t\n      AND \t\t\t\n      PUSH 4E\t\t\t\n      DUP5 \t\t\t\n      LT \t\t\t\n      PUSH B\t\t\t\n      DUP5 \t\t\t\n      LT \t\t\t\n      AND \t\t\t\n      OR \t\t\t\n      ISZERO \t\t\t\n      PUSH [tag] 1270\t\t\t\n      JUMPI \t\t\t\n      DUP3 \t\t\t\n      DUP3 \t\t\t\n      EXP \t\t\t\n      SWAP1 \t\t\t\n      POP \t\t\t\n      DUP4 \t\t\t\n      DUP2 \t\t\t\n      GT \t\t\t\n      ISZERO \t\t\t\n      PUSH [tag] 1271\t\t\t\n      JUMPI \t\t\t\n      PUSH [tag] 1272\t\t\t\n      PUSH [tag] 956\t\t\t\n      JUMP \t\t\t\n    tag 1272\t\t\t\n      JUMPDEST \t\t\t\n    tag 1271\t\t\t\n      JUMPDEST \t\t\t\n      PUSH [tag] 1260\t\t\t\n      JUMP \t\t\t\n    tag 1270\t\t\t\n      JUMPDEST \t\t\t\n      PUSH [tag] 1273\t\t\t\n      DUP5 \t\t\t\n      DUP5 \t\t\t\n      DUP5 \t\t\t\n      PUSH 1\t\t\t\n      PUSH [tag] 960\t\t\t\n      JUMP \t\t\t\n    tag 1273\t\t\t\n      JUMPDEST \t\t\t\n      SWAP3 \t\t\t\n      POP \t\t\t\n      SWAP1 \t\t\t\n      POP \t\t\t\n      DUP2 \t\t\t\n      DUP5 \t\t\t\n      DIV \t\t\t\n      DUP2 \t\t\t\n      GT \t\t\t\n      ISZERO \t\t\t\n      PUSH [tag] 1274\t\t\t\n      JUMPI \t\t\t\n      PUSH [tag] 1275\t\t\t\n      PUSH [tag] 956\t\t\t\n      JUMP \t\t\t\n    tag 1275\t\t\t\n      JUMPDEST \t\t\t\n    tag 1274\t\t\t\n      JUMPDEST \t\t\t\n      DUP2 \t\t\t\n      DUP2 \t\t\t\n      MUL \t\t\t\n      SWAP1 \t\t\t\n      POP \t\t\t\n    tag 1260\t\t\t\n      JUMPDEST \t\t\t\n      SWAP4 \t\t\t\n      SWAP3 \t\t\t\n      POP \t\t\t\n      POP \t\t\t\n      POP \t\t\t\n      JUMP \t\t\t\n    tag 419\t\t\t\n      JUMPDEST \t\t\t\n      PUSH 0\t\t\t\n      PUSH [tag] 1277\t\t\t\n      DUP3 \t\t\t\n      PUSH [tag] 912\t\t\t\n      JUMP \t\t\t\n    tag 1277\t\t\t\n      JUMPDEST \t\t\t\n      SWAP2 \t\t\t\n      POP \t\t\t\n      PUSH [tag] 1278\t\t\t\n      DUP4 \t\t\t\n      PUSH [tag] 920\t\t\t\n      JUMP \t\t\t\n    tag 1278\t\t\t\n      JUMPDEST \t\t\t\n      SWAP3 \t\t\t\n      POP \t\t\t\n      PUSH [tag] 1279\t\t\t\n      PUSH FFFFFFFFFFFFFFFFFFFFFFFFFFFFFFFFFFFFFFFFFFFFFFFFFFFFFFFFFFFFFFFF\t\t\t\n      DUP5 \t\t\t\n      DUP5 \t\t\t\n      PUSH [tag] 961\t\t\t\n      JUMP \t\t\t\n    tag 1279\t\t\t\n      JUMPDEST \t\t\t\n      SWAP1 \t\t\t\n      POP \t\t\t\n      SWAP3 \t\t\t\n      SWAP2 \t\t\t\n      POP \t\t\t\n      POP \t\t\t\n      JUMP \t\t\t\n    tag 421\t\t\t\n      JUMPDEST \t\t\t\n      PUSH 0\t\t\t\n      PUSH [tag] 1281\t\t\t\n      DUP3 \t\t\t\n      PUSH [tag] 912\t\t\t\n      JUMP \t\t\t\n    tag 1281\t\t\t\n      JUMPDEST \t\t\t\n      SWAP2 \t\t\t\n      POP \t\t\t\n      PUSH [tag] 1282\t\t\t\n      DUP4 \t\t\t\n      PUSH [tag] 912\t\t\t\n      JUMP \t\t\t\n    tag 1282\t\t\t\n      JUMPDEST \t\t\t\n      SWAP3 \t\t\t\n      POP \t\t\t\n      DUP3 \t\t\t\n      DUP3 \t\t\t\n      MUL \t\t\t\n      PUSH [tag] 1283\t\t\t\n      DUP2 \t\t\t\n      PUSH [tag] 912\t\t\t\n      JUMP \t\t\t\n    tag 1283\t\t\t\n      JUMPDEST \t\t\t\n      SWAP2 \t\t\t\n      POP \t\t\t\n      DUP3 \t\t\t\n      DUP3 \t\t\t\n      DIV \t\t\t\n      DUP5 \t\t\t\n      EQ \t\t\t\n      DUP4 \t\t\t\n      ISZERO \t\t\t\n      OR \t\t\t\n      PUSH [tag] 1284\t\t\t\n      JUMPI \t\t\t\n      PUSH [tag] 1285\t\t\t\n      PUSH [tag] 956\t\t\t\n      JUMP \t\t\t\n    tag 1285\t\t\t\n      JUMPDEST \t\t\t\n    tag 1284\t\t\t\n      JUMPDEST \t\t\t\n      POP \t\t\t\n      SWAP3 \t\t\t\n      SWAP2 \t\t\t\n      POP \t\t\t\n      POP \t\t\t\n      JUMP \t\t\t\n    tag 962\t\t\t\n      JUMPDEST \t\t\t\n      PUSH 0\t\t\t\n      DUP2 \t\t\t\n      SWAP1 \t\t\t\n      POP \t\t\t\n      SWAP2 \t\t\t\n      SWAP1 \t\t\t\n      POP \t\t\t\n      JUMP \t\t\t\n    tag 963\t\t\t\n      JUMPDEST \t\t\t\n      PUSH 0\t\t\t\n      PUSH FFFFFFFFFFFFFFFF\t\t\t\n      DUP3 \t\t\t\n      AND \t\t\t\n      SWAP1 \t\t\t\n      POP \t\t\t\n      SWAP2 \t\t\t\n      SWAP1 \t\t\t\n      POP \t\t\t\n      JUMP \t\t\t\n    tag 964\t\t\t\n      JUMPDEST \t\t\t\n      PUSH 0\t\t\t\n      DUP2 \t\t\t\n      SWAP1 \t\t\t\n      POP \t\t\t\n      SWAP2 \t\t\t\n      SWAP1 \t\t\t\n      POP \t\t\t\n      JUMP \t\t\t\n    tag 965\t\t\t\n      JUMPDEST \t\t\t\n      PUSH 0\t\t\t\n      PUSH [tag] 1290\t\t\t\n      PUSH [tag] 1291\t\t\t\n      PUSH [tag] 1292\t\t\t\n      DUP5 \t\t\t\n      PUSH [tag] 962\t\t\t\n      JUMP \t\t\t\n    tag 1292\t\t\t\n      JUMPDEST \t\t\t\n      PUSH [tag] 964\t\t\t\n      JUMP \t\t\t\n    tag 1291\t\t\t\n      JUMPDEST \t\t\t\n      PUSH [tag] 963\t\t\t\n      JUMP \t\t\t\n    tag 1290\t\t\t\n      JUMPDEST \t\t\t\n      SWAP1 \t\t\t\n      POP \t\t\t\n      SWAP2 \t\t\t\n      SWAP1 \t\t\t\n      POP \t\t\t\n      JUMP \t\t\t\n    tag 966\t\t\t\n      JUMPDEST \t\t\t\n      PUSH [tag] 1294\t\t\t\n      DUP2 \t\t\t\n      PUSH [tag] 965\t\t\t\n      JUMP \t\t\t\n    tag 1294\t\t\t\n      JUMPDEST \t\t\t\n      DUP3 \t\t\t\n      MSTORE \t\t\t\n      POP \t\t\t\n      POP \t\t\t\n      JUMP \t\t\t\n    tag 425\t\t\t\n      JUMPDEST \t\t\t\n      PUSH 0\t\t\t\n      PUSH 20\t\t\t\n      DUP3 \t\t\t\n      ADD \t\t\t\n      SWAP1 \t\t\t\n      POP \t\t\t\n      PUSH [tag] 1296\t\t\t\n      PUSH 0\t\t\t\n      DUP4 \t\t\t\n      ADD \t\t\t\n      DUP5 \t\t\t\n      PUSH [tag] 966\t\t\t\n      JUMP \t\t\t\n    tag 1296\t\t\t\n      JUMPDEST \t\t\t\n      SWAP3 \t\t\t\n      SWAP2 \t\t\t\n      POP \t\t\t\n      POP \t\t\t\n      JUMP \t\t\t\n    tag 432\t\t\t\n      JUMPDEST \t\t\t\n      PUSH 0\t\t\t\n      PUSH 80\t\t\t\n      DUP3 \t\t\t\n      ADD \t\t\t\n      SWAP1 \t\t\t\n      POP \t\t\t\n      PUSH [tag] 1298\t\t\t\n      PUSH 0\t\t\t\n      DUP4 \t\t\t\n      ADD \t\t\t\n      DUP8 \t\t\t\n      PUSH [tag] 919\t\t\t\n      JUMP \t\t\t\n    tag 1298\t\t\t\n      JUMPDEST \t\t\t\n      PUSH [tag] 1299\t\t\t\n      PUSH 20\t\t\t\n      DUP4 \t\t\t\n      ADD \t\t\t\n      DUP7 \t\t\t\n      PUSH [tag] 922\t\t\t\n      JUMP \t\t\t\n    tag 1299\t\t\t\n      JUMPDEST \t\t\t\n      PUSH [tag] 1300\t\t\t\n      PUSH 40\t\t\t\n      DUP4 \t\t\t\n      ADD \t\t\t\n      DUP6 \t\t\t\n      PUSH [tag] 915\t\t\t\n      JUMP \t\t\t\n    tag 1300\t\t\t\n      JUMPDEST \t\t\t\n      PUSH [tag] 1301\t\t\t\n      PUSH 60\t\t\t\n      DUP4 \t\t\t\n      ADD \t\t\t\n      DUP5 \t\t\t\n      PUSH [tag] 915\t\t\t\n      JUMP \t\t\t\n    tag 1301\t\t\t\n      JUMPDEST \t\t\t\n      SWAP6 \t\t\t\n      SWAP5 \t\t\t\n      POP \t\t\t\n      POP \t\t\t\n      POP \t\t\t\n      POP \t\t\t\n      POP \t\t\t\n      JUMP \t\t\t\n    tag 444\t\t\t\n      JUMPDEST \t\t\t\n      PUSH 0\t\t\t\n      PUSH C0\t\t\t\n      DUP3 \t\t\t\n      ADD \t\t\t\n      SWAP1 \t\t\t\n      POP \t\t\t\n      PUSH [tag] 1303\t\t\t\n      PUSH 0\t\t\t\n      DUP4 \t\t\t\n      ADD \t\t\t\n      DUP10 \t\t\t\n      PUSH [tag] 919\t\t\t\n      JUMP \t\t\t\n    tag 1303\t\t\t\n      JUMPDEST \t\t\t\n      PUSH [tag] 1304\t\t\t\n      PUSH 20\t\t\t\n      DUP4 \t\t\t\n      ADD \t\t\t\n      DUP9 \t\t\t\n      PUSH [tag] 922\t\t\t\n      JUMP \t\t\t\n    tag 1304\t\t\t\n      JUMPDEST \t\t\t\n      PUSH [tag] 1305\t\t\t\n      PUSH 40\t\t\t\n      DUP4 \t\t\t\n      ADD \t\t\t\n      DUP8 \t\t\t\n      PUSH [tag] 922\t\t\t\n      JUMP \t\t\t\n    tag 1305\t\t\t\n      JUMPDEST \t\t\t\n      PUSH [tag] 1306\t\t\t\n      PUSH 60\t\t\t\n      DUP4 \t\t\t\n      ADD \t\t\t\n      DUP7 \t\t\t\n      PUSH [tag] 915\t\t\t\n      JUMP \t\t\t\n    tag 1306\t\t\t\n      JUMPDEST \t\t\t\n      PUSH [tag] 1307\t\t\t\n      PUSH 80\t\t\t\n      DUP4 \t\t\t\n      ADD \t\t\t\n      DUP6 \t\t\t\n      PUSH [tag] 915\t\t\t\n      JUMP \t\t\t\n    tag 1307\t\t\t\n      JUMPDEST \t\t\t\n      PUSH [tag] 1308\t\t\t\n      PUSH A0\t\t\t\n      DUP4 \t\t\t\n      ADD \t\t\t\n      DUP5 \t\t\t\n      PUSH [tag] 915\t\t\t\n      JUMP \t\t\t\n    tag 1308\t\t\t\n      JUMPDEST \t\t\t\n      SWAP8 \t\t\t\n      SWAP7 \t\t\t\n      POP \t\t\t\n      POP \t\t\t\n      POP \t\t\t\n      POP \t\t\t\n      POP \t\t\t\n      POP \t\t\t\n      POP \t\t\t\n      JUMP \t\t\t\n    tag 449\t\t\t\n      JUMPDEST \t\t\t\n      PUSH 0\t\t\t\n      PUSH 40\t\t\t\n      DUP3 \t\t\t\n      ADD \t\t\t\n      SWAP1 \t\t\t\n      POP \t\t\t\n      PUSH [tag] 1310\t\t\t\n      PUSH 0\t\t\t\n      DUP4 \t\t\t\n      ADD \t\t\t\n      DUP6 \t\t\t\n      PUSH [tag] 922\t\t\t\n      JUMP \t\t\t\n    tag 1310\t\t\t\n      JUMPDEST \t\t\t\n      PUSH [tag] 1311\t\t\t\n      PUSH 20\t\t\t\n      DUP4 \t\t\t\n      ADD \t\t\t\n      DUP5 \t\t\t\n      PUSH [tag] 922\t\t\t\n      JUMP \t\t\t\n    tag 1311\t\t\t\n      JUMPDEST \t\t\t\n      SWAP4 \t\t\t\n      SWAP3 \t\t\t\n      POP \t\t\t\n      POP \t\t\t\n      POP \t\t\t\n      JUMP \t\t\t\n    tag 479\t\t\t\n      JUMPDEST \t\t\t\n      PUSH 0\t\t\t\n      PUSH 60\t\t\t\n      DUP3 \t\t\t\n      ADD \t\t\t\n      SWAP1 \t\t\t\n      POP \t\t\t\n      PUSH [tag] 1313\t\t\t\n      PUSH 0\t\t\t\n      DUP4 \t\t\t\n      ADD \t\t\t\n      DUP7 \t\t\t\n      PUSH [tag] 922\t\t\t\n      JUMP \t\t\t\n    tag 1313\t\t\t\n      JUMPDEST \t\t\t\n      PUSH [tag] 1314\t\t\t\n      PUSH 20\t\t\t\n      DUP4 \t\t\t\n      ADD \t\t\t\n      DUP6 \t\t\t\n      PUSH [tag] 915\t\t\t\n      JUMP \t\t\t\n    tag 1314\t\t\t\n      JUMPDEST \t\t\t\n      PUSH [tag] 1315\t\t\t\n      PUSH 40\t\t\t\n      DUP4 \t\t\t\n      ADD \t\t\t\n      DUP5 \t\t\t\n      PUSH [tag] 915\t\t\t\n      JUMP \t\t\t\n    tag 1315\t\t\t\n      JUMPDEST \t\t\t\n      SWAP5 \t\t\t\n      SWAP4 \t\t\t\n      POP \t\t\t\n      POP \t\t\t\n      POP \t\t\t\n      POP \t\t\t\n      JUMP \t\t\t\n    tag 967\t\t\t\n      JUMPDEST \t\t\t\n      PUSH 0\t\t\t\n      DUP2 \t\t\t\n      SWAP1 \t\t\t\n      POP \t\t\t\n      SWAP2 \t\t\t\n      SWAP1 \t\t\t\n      POP \t\t\t\n      JUMP \t\t\t\n    tag 968\t\t\t\n      JUMPDEST \t\t\t\n      PUSH 0\t\t\t\n      PUSH [tag] 1318\t\t\t\n      PUSH [tag] 1319\t\t\t\n      PUSH [tag] 1320\t\t\t\n      DUP5 \t\t\t\n      PUSH [tag] 967\t\t\t\n      JUMP \t\t\t\n    tag 1320\t\t\t\n      JUMPDEST \t\t\t\n      PUSH [tag] 964\t\t\t\n      JUMP \t\t\t\n    tag 1319\t\t\t\n      JUMPDEST \t\t\t\n      PUSH [tag] 920\t\t\t\n      JUMP \t\t\t\n    tag 1318\t\t\t\n      JUMPDEST \t\t\t\n      SWAP1 \t\t\t\n      POP \t\t\t\n      SWAP2 \t\t\t\n      SWAP1 \t\t\t\n      POP \t\t\t\n      JUMP \t\t\t\n    tag 969\t\t\t\n      JUMPDEST \t\t\t\n      PUSH [tag] 1322\t\t\t\n      DUP2 \t\t\t\n      PUSH [tag] 968\t\t\t\n      JUMP \t\t\t\n    tag 1322\t\t\t\n      JUMPDEST \t\t\t\n      DUP3 \t\t\t\n      MSTORE \t\t\t\n      POP \t\t\t\n      POP \t\t\t\n      JUMP \t\t\t\n    tag 512\t\t\t\n      JUMPDEST \t\t\t\n      PUSH 0\t\t\t\n      PUSH 40\t\t\t\n      DUP3 \t\t\t\n      ADD \t\t\t\n      SWAP1 \t\t\t\n      POP \t\t\t\n      PUSH [tag] 1324\t\t\t\n      PUSH 0\t\t\t\n      DUP4 \t\t\t\n      ADD \t\t\t\n      DUP6 \t\t\t\n      PUSH [tag] 969\t\t\t\n      JUMP \t\t\t\n    tag 1324\t\t\t\n      JUMPDEST \t\t\t\n      PUSH [tag] 1325\t\t\t\n      PUSH 20\t\t\t\n      DUP4 \t\t\t\n      ADD \t\t\t\n      DUP5 \t\t\t\n      PUSH [tag] 915\t\t\t\n      JUMP \t\t\t\n    tag 1325\t\t\t\n      JUMPDEST \t\t\t\n      SWAP4 \t\t\t\n      SWAP3 \t\t\t\n      POP \t\t\t\n      POP \t\t\t\n      POP \t\t\t\n      JUMP \t\t\t\n    tag 633\t\t\t\n      JUMPDEST \t\t\t\n      PUSH 0\t\t\t\n      PUSH 40\t\t\t\n      DUP3 \t\t\t\n      ADD \t\t\t\n      SWAP1 \t\t\t\n      POP \t\t\t\n      PUSH [tag] 1327\t\t\t\n      PUSH 0\t\t\t\n      DUP4 \t\t\t\n      ADD \t\t\t\n      DUP6 \t\t\t\n      PUSH [tag] 922\t\t\t\n      JUMP \t\t\t\n    tag 1327\t\t\t\n      JUMPDEST \t\t\t\n      PUSH [tag] 1328\t\t\t\n      PUSH 20\t\t\t\n      DUP4 \t\t\t\n      ADD \t\t\t\n      DUP5 \t\t\t\n      PUSH [tag] 915\t\t\t\n      JUMP \t\t\t\n    tag 1328\t\t\t\n      JUMPDEST \t\t\t\n      SWAP4 \t\t\t\n      SWAP3 \t\t\t\n      POP \t\t\t\n      POP \t\t\t\n      POP \t\t\t\n      JUMP \t\t\t\n    tag 658\t\t\t\n      JUMPDEST \t\t\t\n      PUSH 0\t\t\t\n      PUSH 40\t\t\t\n      DUP3 \t\t\t\n      ADD \t\t\t\n      SWAP1 \t\t\t\n      POP \t\t\t\n      PUSH [tag] 1330\t\t\t\n      PUSH 0\t\t\t\n      DUP4 \t\t\t\n      ADD \t\t\t\n      DUP6 \t\t\t\n      PUSH [tag] 922\t\t\t\n      JUMP \t\t\t\n    tag 1330\t\t\t\n      JUMPDEST \t\t\t\n      PUSH [tag] 1331\t\t\t\n      PUSH 20\t\t\t\n      DUP4 \t\t\t\n      ADD \t\t\t\n      DUP5 \t\t\t\n      PUSH [tag] 919\t\t\t\n      JUMP \t\t\t\n    tag 1331\t\t\t\n      JUMPDEST \t\t\t\n      SWAP4 \t\t\t\n      SWAP3 \t\t\t\n      POP \t\t\t\n      POP \t\t\t\n      POP \t\t\t\n      JUMP \t\t\t\n    tag 665\t\t\t\n      JUMPDEST \t\t\t\n      PUSH 0\t\t\t\n      PUSH A0\t\t\t\n      DUP3 \t\t\t\n      ADD \t\t\t\n      SWAP1 \t\t\t\n      POP \t\t\t\n      PUSH [tag] 1333\t\t\t\n      PUSH 0\t\t\t\n      DUP4 \t\t\t\n      ADD \t\t\t\n      DUP9 \t\t\t\n      PUSH [tag] 919\t\t\t\n      JUMP \t\t\t\n    tag 1333\t\t\t\n      JUMPDEST \t\t\t\n      PUSH [tag] 1334\t\t\t\n      PUSH 20\t\t\t\n      DUP4 \t\t\t\n      ADD \t\t\t\n      DUP8 \t\t\t\n      PUSH [tag] 919\t\t\t\n      JUMP \t\t\t\n    tag 1334\t\t\t\n      JUMPDEST \t\t\t\n      PUSH [tag] 1335\t\t\t\n      PUSH 40\t\t\t\n      DUP4 \t\t\t\n      ADD \t\t\t\n      DUP7 \t\t\t\n      PUSH [tag] 919\t\t\t\n      JUMP \t\t\t\n    tag 1335\t\t\t\n      JUMPDEST \t\t\t\n      PUSH [tag] 1336\t\t\t\n      PUSH 60\t\t\t\n      DUP4 \t\t\t\n      ADD \t\t\t\n      DUP6 \t\t\t\n      PUSH [tag] 915\t\t\t\n      JUMP \t\t\t\n    tag 1336\t\t\t\n      JUMPDEST \t\t\t\n      PUSH [tag] 1337\t\t\t\n      PUSH 80\t\t\t\n      DUP4 \t\t\t\n      ADD \t\t\t\n      DUP5 \t\t\t\n      PUSH [tag] 922\t\t\t\n      JUMP \t\t\t\n    tag 1337\t\t\t\n      JUMPDEST \t\t\t\n      SWAP7 \t\t\t\n      SWAP6 \t\t\t\n      POP \t\t\t\n      POP \t\t\t\n      POP \t\t\t\n      POP \t\t\t\n      POP \t\t\t\n      POP \t\t\t\n      JUMP \t\t\t\n    tag 672\t\t\t\n      JUMPDEST \t\t\t\n      PUSH 4E487B7100000000000000000000000000000000000000000000000000000000\t\t\t\n      PUSH 0\t\t\t\n      MSTORE \t\t\t\n      PUSH 12\t\t\t\n      PUSH 4\t\t\t\n      MSTORE \t\t\t\n      PUSH 24\t\t\t\n      PUSH 0\t\t\t\n      REVERT \t\t\t\n    tag 715\t\t\t\n      JUMPDEST \t\t\t\n      PUSH 0\t\t\t\n      PUSH 40\t\t\t\n      DUP3 \t\t\t\n      ADD \t\t\t\n      SWAP1 \t\t\t\n      POP \t\t\t\n      PUSH [tag] 1340\t\t\t\n      PUSH 0\t\t\t\n      DUP4 \t\t\t\n      ADD \t\t\t\n      DUP6 \t\t\t\n      PUSH [tag] 915\t\t\t\n      JUMP \t\t\t\n    tag 1340\t\t\t\n      JUMPDEST \t\t\t\n      PUSH [tag] 1341\t\t\t\n      PUSH 20\t\t\t\n      DUP4 \t\t\t\n      ADD \t\t\t\n      DUP5 \t\t\t\n      PUSH [tag] 915\t\t\t\n      JUMP \t\t\t\n    tag 1341\t\t\t\n      JUMPDEST \t\t\t\n      SWAP4 \t\t\t\n      SWAP3 \t\t\t\n      POP \t\t\t\n      POP \t\t\t\n      POP \t\t\t\n      JUMP \t\t\t\n    tag 970\t\t\t\n      JUMPDEST \t\t\t\n      PUSH 0\t\t\t\n      DUP2 \t\t\t\n      SWAP1 \t\t\t\n      POP \t\t\t\n      SWAP2 \t\t\t\n      SWAP1 \t\t\t\n      POP \t\t\t\n      JUMP \t\t\t\n    tag 971\t\t\t\n      JUMPDEST \t\t\t\n      PUSH 0\t\t\t\n      PUSH [tag] 1344\t\t\t\n      PUSH [tag] 1345\t\t\t\n      PUSH [tag] 1346\t\t\t\n      DUP5 \t\t\t\n      PUSH [tag] 970\t\t\t\n      JUMP \t\t\t\n    tag 1346\t\t\t\n      JUMPDEST \t\t\t\n      PUSH [tag] 964\t\t\t\n      JUMP \t\t\t\n    tag 1345\t\t\t\n      JUMPDEST \t\t\t\n      PUSH [tag] 920\t\t\t\n      JUMP \t\t\t\n    tag 1344\t\t\t\n      JUMPDEST \t\t\t\n      SWAP1 \t\t\t\n      POP \t\t\t\n      SWAP2 \t\t\t\n      SWAP1 \t\t\t\n      POP \t\t\t\n      JUMP \t\t\t\n    tag 972\t\t\t\n      JUMPDEST \t\t\t\n      PUSH [tag] 1348\t\t\t\n      DUP2 \t\t\t\n      PUSH [tag] 971\t\t\t\n      JUMP \t\t\t\n    tag 1348\t\t\t\n      JUMPDEST \t\t\t\n      DUP3 \t\t\t\n      MSTORE \t\t\t\n      POP \t\t\t\n      POP \t\t\t\n      JUMP \t\t\t\n    tag 725\t\t\t\n      JUMPDEST \t\t\t\n      PUSH 0\t\t\t\n      PUSH 40\t\t\t\n      DUP3 \t\t\t\n      ADD \t\t\t\n      SWAP1 \t\t\t\n      POP \t\t\t\n      PUSH [tag] 1350\t\t\t\n      PUSH 0\t\t\t\n      DUP4 \t\t\t\n      ADD \t\t\t\n      DUP6 \t\t\t\n      PUSH [tag] 972\t\t\t\n      JUMP \t\t\t\n    tag 1350\t\t\t\n      JUMPDEST \t\t\t\n      PUSH [tag] 1351\t\t\t\n      PUSH 20\t\t\t\n      DUP4 \t\t\t\n      ADD \t\t\t\n      DUP5 \t\t\t\n      PUSH [tag] 915\t\t\t\n      JUMP \t\t\t\n    tag 1351\t\t\t\n      JUMPDEST \t\t\t\n      SWAP4 \t\t\t\n      SWAP3 \t\t\t\n      POP \t\t\t\n      POP \t\t\t\n      POP \t\t\t\n      JUMP \t\t\t\n    tag 973\t\t\t\n      JUMPDEST \t\t\t\n      PUSH 0\t\t\t\n      DUP2 \t\t\t\n      SWAP1 \t\t\t\n      POP \t\t\t\n      DUP2 \t\t\t\n      PUSH 0\t\t\t\n      MSTORE \t\t\t\n      PUSH 20\t\t\t\n      PUSH 0\t\t\t\n      KECCAK256 \t\t\t\n      SWAP1 \t\t\t\n      POP \t\t\t\n      SWAP2 \t\t\t\n      SWAP1 \t\t\t\n      POP \t\t\t\n      JUMP \t\t\t\n    tag 974\t\t\t\n      JUMPDEST \t\t\t\n      PUSH 0\t\t\t\n      PUSH 20\t\t\t\n      PUSH 1F\t\t\t\n      DUP4 \t\t\t\n      ADD \t\t\t\n      DIV \t\t\t\n      SWAP1 \t\t\t\n      POP \t\t\t\n      SWAP2 \t\t\t\n      SWAP1 \t\t\t\n      POP \t\t\t\n      JUMP \t\t\t\n    tag 975\t\t\t\n      JUMPDEST \t\t\t\n      PUSH 0\t\t\t\n      DUP3 \t\t\t\n      DUP3 \t\t\t\n      SHL \t\t\t\n      SWAP1 \t\t\t\n      POP \t\t\t\n      SWAP3 \t\t\t\n      SWAP2 \t\t\t\n      POP \t\t\t\n      POP \t\t\t\n      JUMP \t\t\t\n    tag 976\t\t\t\n      JUMPDEST \t\t\t\n      PUSH 0\t\t\t\n      PUSH 8\t\t\t\n      DUP4 \t\t\t\n      MUL \t\t\t\n      PUSH [tag] 1356\t\t\t\n      PUSH FFFFFFFFFFFFFFFFFFFFFFFFFFFFFFFFFFFFFFFFFFFFFFFFFFFFFFFFFFFFFFFF\t\t\t\n      DUP3 \t\t\t\n      PUSH [tag] 975\t\t\t\n      JUMP \t\t\t\n    tag 1356\t\t\t\n      JUMPDEST \t\t\t\n      PUSH [tag] 1357\t\t\t\n      DUP7 \t\t\t\n      DUP4 \t\t\t\n      PUSH [tag] 975\t\t\t\n      JUMP \t\t\t\n    tag 1357\t\t\t\n      JUMPDEST \t\t\t\n      SWAP6 \t\t\t\n      POP \t\t\t\n      DUP1 \t\t\t\n      NOT \t\t\t\n      DUP5 \t\t\t\n      AND \t\t\t\n      SWAP4 \t\t\t\n      POP \t\t\t\n      DUP1 \t\t\t\n      DUP7 \t\t\t\n      AND \t\t\t\n      DUP5 \t\t\t\n      OR \t\t\t\n      SWAP3 \t\t\t\n      POP \t\t\t\n      POP \t\t\t\n      POP \t\t\t\n      SWAP4 \t\t\t\n      SWAP3 \t\t\t\n      POP \t\t\t\n      POP \t\t\t\n      POP \t\t\t\n      JUMP \t\t\t\n    tag 977\t\t\t\n      JUMPDEST \t\t\t\n      PUSH 0\t\t\t\n      PUSH [tag] 1359\t\t\t\n      PUSH [tag] 1360\t\t\t\n      PUSH [tag] 1361\t\t\t\n      DUP5 \t\t\t\n      PUSH [tag] 912\t\t\t\n      JUMP \t\t\t\n    tag 1361\t\t\t\n      JUMPDEST \t\t\t\n      PUSH [tag] 964\t\t\t\n      JUMP \t\t\t\n    tag 1360\t\t\t\n      JUMPDEST \t\t\t\n      PUSH [tag] 912\t\t\t\n      JUMP \t\t\t\n    tag 1359\t\t\t\n      JUMPDEST \t\t\t\n      SWAP1 \t\t\t\n      POP \t\t\t\n      SWAP2 \t\t\t\n      SWAP1 \t\t\t\n      POP \t\t\t\n      JUMP \t\t\t\n    tag 978\t\t\t\n      JUMPDEST \t\t\t\n      PUSH 0\t\t\t\n      DUP2 \t\t\t\n      SWAP1 \t\t\t\n      POP \t\t\t\n      SWAP2 \t\t\t\n      SWAP1 \t\t\t\n      POP \t\t\t\n      JUMP \t\t\t\n    tag 979\t\t\t\n      JUMPDEST \t\t\t\n      PUSH [tag] 1364\t\t\t\n      DUP4 \t\t\t\n      PUSH [tag] 977\t\t\t\n      JUMP \t\t\t\n    tag 1364\t\t\t\n      JUMPDEST \t\t\t\n      PUSH [tag] 1365\t\t\t\n      PUSH [tag] 1366\t\t\t\n      DUP3 \t\t\t\n      PUSH [tag] 978\t\t\t\n      JUMP \t\t\t\n    tag 1366\t\t\t\n      JUMPDEST \t\t\t\n      DUP5 \t\t\t\n      DUP5 \t\t\t\n      SLOAD \t\t\t\n      PUSH [tag] 976\t\t\t\n      JUMP \t\t\t\n    tag 1365\t\t\t\n      JUMPDEST \t\t\t\n      DUP3 \t\t\t\n      SSTORE \t\t\t\n      POP \t\t\t\n      POP \t\t\t\n      POP \t\t\t\n      POP \t\t\t\n      JUMP \t\t\t\n    tag 980\t\t\t\n      JUMPDEST \t\t\t\n      PUSH 0\t\t\t\n      SWAP1 \t\t\t\n      JUMP \t\t\t\n    tag 981\t\t\t\n      JUMPDEST \t\t\t\n      PUSH [tag] 1369\t\t\t\n      PUSH [tag] 980\t\t\t\n      JUMP \t\t\t\n    tag 1369\t\t\t\n      JUMPDEST \t\t\t\n      PUSH [tag] 1370\t\t\t\n      DUP2 \t\t\t\n      DUP5 \t\t\t\n      DUP5 \t\t\t\n      PUSH [tag] 979\t\t\t\n      JUMP \t\t\t\n    tag 1370\t\t\t\n      JUMPDEST \t\t\t\n      POP \t\t\t\n      POP \t\t\t\n      POP \t\t\t\n      JUMP \t\t\t\n    tag 982\t\t\t\n      JUMPDEST \t\t\t\n    tag 1372\t\t\t\n      JUMPDEST \t\t\t\n      DUP2 \t\t\t\n      DUP2 \t\t\t\n      LT \t\t\t\n      ISZERO \t\t\t\n      PUSH [tag] 1374\t\t\t\n      JUMPI \t\t\t\n      PUSH [tag] 1375\t\t\t\n      PUSH 0\t\t\t\n      DUP3 \t\t\t\n      PUSH [tag] 981\t\t\t\n      JUMP \t\t\t\n    tag 1375\t\t\t\n      JUMPDEST \t\t\t\n      PUSH 1\t\t\t\n      DUP2 \t\t\t\n      ADD \t\t\t\n      SWAP1 \t\t\t\n      POP \t\t\t\n      PUSH [tag] 1372\t\t\t\n      JUMP \t\t\t\n    tag 1374\t\t\t\n      JUMPDEST \t\t\t\n      POP \t\t\t\n      POP \t\t\t\n      JUMP \t\t\t\n    tag 983\t\t\t\n      JUMPDEST \t\t\t\n      PUSH 1F\t\t\t\n      DUP3 \t\t\t\n      GT \t\t\t\n      ISZERO \t\t\t\n      PUSH [tag] 1377\t\t\t\n      JUMPI \t\t\t\n      PUSH [tag] 1378\t\t\t\n      DUP2 \t\t\t\n      PUSH [tag] 973\t\t\t\n      JUMP \t\t\t\n    tag 1378\t\t\t\n      JUMPDEST \t\t\t\n      PUSH [tag] 1379\t\t\t\n      DUP5 \t\t\t\n      PUSH [tag] 974\t\t\t\n      JUMP \t\t\t\n    tag 1379\t\t\t\n      JUMPDEST \t\t\t\n      DUP2 \t\t\t\n      ADD \t\t\t\n      PUSH 20\t\t\t\n      DUP6 \t\t\t\n      LT \t\t\t\n      ISZERO \t\t\t\n      PUSH [tag] 1380\t\t\t\n      JUMPI \t\t\t\n      DUP2 \t\t\t\n      SWAP1 \t\t\t\n      POP \t\t\t\n    tag 1380\t\t\t\n      JUMPDEST \t\t\t\n      PUSH [tag] 1381\t\t\t\n      PUSH [tag] 1382\t\t\t\n      DUP6 \t\t\t\n      PUSH [tag] 974\t\t\t\n      JUMP \t\t\t\n    tag 1382\t\t\t\n      JUMPDEST \t\t\t\n      DUP4 \t\t\t\n      ADD \t\t\t\n      DUP3 \t\t\t\n      PUSH [tag] 982\t\t\t\n      JUMP \t\t\t\n    tag 1381\t\t\t\n      JUMPDEST \t\t\t\n      POP \t\t\t\n      POP \t\t\t\n    tag 1377\t\t\t\n      JUMPDEST \t\t\t\n      POP \t\t\t\n      POP \t\t\t\n      POP \t\t\t\n      JUMP \t\t\t\n    tag 984\t\t\t\n      JUMPDEST \t\t\t\n      PUSH 0\t\t\t\n      DUP3 \t\t\t\n      DUP3 \t\t\t\n      SHR \t\t\t\n      SWAP1 \t\t\t\n      POP \t\t\t\n      SWAP3 \t\t\t\n      SWAP2 \t\t\t\n      POP \t\t\t\n      POP \t\t\t\n      JUMP \t\t\t\n    tag 985\t\t\t\n      JUMPDEST \t\t\t\n      PUSH 0\t\t\t\n      PUSH [tag] 1385\t\t\t\n      PUSH 0\t\t\t\n      NOT \t\t\t\n      DUP5 \t\t\t\n      PUSH 8\t\t\t\n      MUL \t\t\t\n      PUSH [tag] 984\t\t\t\n      JUMP \t\t\t\n    tag 1385\t\t\t\n      JUMPDEST \t\t\t\n      NOT \t\t\t\n      DUP1 \t\t\t\n      DUP4 \t\t\t\n      AND \t\t\t\n      SWAP2 \t\t\t\n      POP \t\t\t\n      POP \t\t\t\n      SWAP3 \t\t\t\n      SWAP2 \t\t\t\n      POP \t\t\t\n      POP \t\t\t\n      JUMP \t\t\t\n    tag 986\t\t\t\n      JUMPDEST \t\t\t\n      PUSH 0\t\t\t\n      PUSH [tag] 1387\t\t\t\n      DUP4 \t\t\t\n      DUP4 \t\t\t\n      PUSH [tag] 985\t\t\t\n      JUMP \t\t\t\n    tag 1387\t\t\t\n      JUMPDEST \t\t\t\n      SWAP2 \t\t\t\n      POP \t\t\t\n      DUP3 \t\t\t\n      PUSH 2\t\t\t\n      MUL \t\t\t\n      DUP3 \t\t\t\n      OR \t\t\t\n      SWAP1 \t\t\t\n      POP \t\t\t\n      SWAP3 \t\t\t\n      SWAP2 \t\t\t\n      POP \t\t\t\n      POP \t\t\t\n      JUMP \t\t\t\n    tag 740\t\t\t\n      JUMPDEST \t\t\t\n      PUSH [tag] 1389\t\t\t\n      DUP3 \t\t\t\n      PUSH [tag] 903\t\t\t\n      JUMP \t\t\t\n    tag 1389\t\t\t\n      JUMPDEST \t\t\t\n      PUSH FFFFFFFFFFFFFFFF\t\t\t\n      DUP2 \t\t\t\n      GT \t\t\t\n      ISZERO \t\t\t\n      PUSH [tag] 1390\t\t\t\n      JUMPI \t\t\t\n      PUSH [tag] 1391\t\t\t\n      PUSH [tag] 364\t\t\t\n      JUMP \t\t\t\n    tag 1391\t\t\t\n      JUMPDEST \t\t\t\n    tag 1390\t\t\t\n      JUMPDEST \t\t\t\n      PUSH [tag] 1392\t\t\t\n      DUP3 \t\t\t\n      SLOAD \t\t\t\n      PUSH [tag] 225\t\t\t\n      JUMP \t\t\t\n    tag 1392\t\t\t\n      JUMPDEST \t\t\t\n      PUSH [tag] 1393\t\t\t\n      DUP3 \t\t\t\n      DUP3 \t\t\t\n      DUP6 \t\t\t\n      PUSH [tag] 983\t\t\t\n      JUMP \t\t\t\n    tag 1393\t\t\t\n      JUMPDEST \t\t\t\n      PUSH 0\t\t\t\n      PUSH 20\t\t\t\n      SWAP1 \t\t\t\n      POP \t\t\t\n      PUSH 1F\t\t\t\n      DUP4 \t\t\t\n      GT \t\t\t\n      PUSH 1\t\t\t\n      DUP2 \t\t\t\n      EQ \t\t\t\n      PUSH [tag] 1395\t\t\t\n      JUMPI \t\t\t\n      PUSH 0\t\t\t\n      DUP5 \t\t\t\n      ISZERO \t\t\t\n      PUSH [tag] 1396\t\t\t\n      JUMPI \t\t\t\n      DUP3 \t\t\t\n      DUP8 \t\t\t\n      ADD \t\t\t\n      MLOAD \t\t\t\n      SWAP1 \t\t\t\n      POP \t\t\t\n    tag 1396\t\t\t\n      JUMPDEST \t\t\t\n      PUSH [tag] 1397\t\t\t\n      DUP6 \t\t\t\n      DUP3 \t\t\t\n      PUSH [tag] 986\t\t\t\n      JUMP \t\t\t\n    tag 1397\t\t\t\n      JUMPDEST \t\t\t\n      DUP7 \t\t\t\n      SSTORE \t\t\t\n      POP \t\t\t\n      PUSH [tag] 1394\t\t\t\n      JUMP \t\t\t\n    tag 1395\t\t\t\n      JUMPDEST \t\t\t\n      PUSH 1F\t\t\t\n      NOT \t\t\t\n      DUP5 \t\t\t\n      AND \t\t\t\n      PUSH [tag] 1398\t\t\t\n      DUP7 \t\t\t\n      PUSH [tag] 973\t\t\t\n      JUMP \t\t\t\n    tag 1398\t\t\t\n      JUMPDEST \t\t\t\n      PUSH 0\t\t\t\n    tag 1399\t\t\t\n      JUMPDEST \t\t\t\n      DUP3 \t\t\t\n      DUP2 \t\t\t\n      LT \t\t\t\n      ISZERO \t\t\t\n      PUSH [tag] 1401\t\t\t\n      JUMPI \t\t\t\n      DUP5 \t\t\t\n      DUP10 \t\t\t\n      ADD \t\t\t\n      MLOAD \t\t\t\n      DUP3 \t\t\t\n      SSTORE \t\t\t\n      PUSH 1\t\t\t\n      DUP3 \t\t\t\n      ADD \t\t\t\n      SWAP2 \t\t\t\n      POP \t\t\t\n      PUSH 20\t\t\t\n      DUP6 \t\t\t\n      ADD \t\t\t\n      SWAP5 \t\t\t\n      POP \t\t\t\n      PUSH 20\t\t\t\n      DUP2 \t\t\t\n      ADD \t\t\t\n      SWAP1 \t\t\t\n      POP \t\t\t\n      PUSH [tag] 1399\t\t\t\n      JUMP \t\t\t\n    tag 1401\t\t\t\n      JUMPDEST \t\t\t\n      DUP7 \t\t\t\n      DUP4 \t\t\t\n      LT \t\t\t\n      ISZERO \t\t\t\n      PUSH [tag] 1402\t\t\t\n      JUMPI \t\t\t\n      DUP5 \t\t\t\n      DUP10 \t\t\t\n      ADD \t\t\t\n      MLOAD \t\t\t\n      PUSH [tag] 1403\t\t\t\n      PUSH 1F\t\t\t\n      DUP10 \t\t\t\n      AND \t\t\t\n      DUP3 \t\t\t\n      PUSH [tag] 985\t\t\t\n      JUMP \t\t\t\n    tag 1403\t\t\t\n      JUMPDEST \t\t\t\n      DUP4 \t\t\t\n      SSTORE \t\t\t\n      POP \t\t\t\n    tag 1402\t\t\t\n      JUMPDEST \t\t\t\n      PUSH 1\t\t\t\n      PUSH 2\t\t\t\n      DUP9 \t\t\t\n      MUL \t\t\t\n      ADD \t\t\t\n      DUP9 \t\t\t\n      SSTORE \t\t\t\n      POP \t\t\t\n      POP \t\t\t\n      POP \t\t\t\n    tag 1394\t\t\t\n      JUMPDEST \t\t\t\n      POP \t\t\t\n      POP \t\t\t\n      POP \t\t\t\n      POP \t\t\t\n      POP \t\t\t\n      POP \t\t\t\n      JUMP \t\t\t\n    tag 756\t\t\t\n      JUMPDEST \t\t\t\n      PUSH 0\t\t\t\n      PUSH 80\t\t\t\n      DUP3 \t\t\t\n      ADD \t\t\t\n      SWAP1 \t\t\t\n      POP \t\t\t\n      PUSH [tag] 1405\t\t\t\n      PUSH 0\t\t\t\n      DUP4 \t\t\t\n      ADD \t\t\t\n      DUP8 \t\t\t\n      PUSH [tag] 919\t\t\t\n      JUMP \t\t\t\n    tag 1405\t\t\t\n      JUMPDEST \t\t\t\n      PUSH [tag] 1406\t\t\t\n      PUSH 20\t\t\t\n      DUP4 \t\t\t\n      ADD \t\t\t\n      DUP7 \t\t\t\n      PUSH [tag] 921\t\t\t\n      JUMP \t\t\t\n    tag 1406\t\t\t\n      JUMPDEST \t\t\t\n      PUSH [tag] 1407\t\t\t\n      PUSH 40\t\t\t\n      DUP4 \t\t\t\n      ADD \t\t\t\n      DUP6 \t\t\t\n      PUSH [tag] 919\t\t\t\n      JUMP \t\t\t\n    tag 1407\t\t\t\n      JUMPDEST \t\t\t\n      PUSH [tag] 1408\t\t\t\n      PUSH 60\t\t\t\n      DUP4 \t\t\t\n      ADD \t\t\t\n      DUP5 \t\t\t\n      PUSH [tag] 919\t\t\t\n      JUMP \t\t\t\n    tag 1408\t\t\t\n      JUMPDEST \t\t\t\n      SWAP6 \t\t\t\n      SWAP5 \t\t\t\n      POP \t\t\t\n      POP \t\t\t\n      POP \t\t\t\n      POP \t\t\t\n      POP \t\t\t\n      JUMP \t\t\t\n    tag 763\t\t\t\n      JUMPDEST \t\t\t\n      PUSH 4E487B7100000000000000000000000000000000000000000000000000000000\t\t\t\n      PUSH 0\t\t\t\n      MSTORE \t\t\t\n      PUSH 21\t\t\t\n      PUSH 4\t\t\t\n      MSTORE \t\t\t\n      PUSH 24\t\t\t\n      PUSH 0\t\t\t\n      REVERT \t\t\t\n    tag 792\t\t\t\n      JUMPDEST \t\t\t\n      PUSH 4E487B7100000000000000000000000000000000000000000000000000000000\t\t\t\n      PUSH 0\t\t\t\n      MSTORE \t\t\t\n      PUSH 32\t\t\t\n      PUSH 4\t\t\t\n      MSTORE \t\t\t\n      PUSH 24\t\t\t\n      PUSH 0\t\t\t\n      REVERT \t\t\t\n    tag 833\t\t\t\n      JUMPDEST \t\t\t\n      PUSH 0\t\t\t\n      PUSH [tag] 1412\t\t\t\n      DUP3 \t\t\t\n      PUSH [tag] 912\t\t\t\n      JUMP \t\t\t\n    tag 1412\t\t\t\n      JUMPDEST \t\t\t\n      SWAP2 \t\t\t\n      POP \t\t\t\n      PUSH [tag] 1413\t\t\t\n      DUP4 \t\t\t\n      PUSH [tag] 912\t\t\t\n      JUMP \t\t\t\n    tag 1413\t\t\t\n      JUMPDEST \t\t\t\n      SWAP3 \t\t\t\n      POP \t\t\t\n      DUP3 \t\t\t\n      PUSH [tag] 1414\t\t\t\n      JUMPI \t\t\t\n      PUSH [tag] 1415\t\t\t\n      PUSH [tag] 672\t\t\t\n      JUMP \t\t\t\n    tag 1415\t\t\t\n      JUMPDEST \t\t\t\n    tag 1414\t\t\t\n      JUMPDEST \t\t\t\n      DUP3 \t\t\t\n      DUP3 \t\t\t\n      DIV \t\t\t\n      SWAP1 \t\t\t\n      POP \t\t\t\n      SWAP3 \t\t\t\n      SWAP2 \t\t\t\n      POP \t\t\t\n      POP \t\t\t\n      JUMP \t\t\t\n    tag 837\t\t\t\n      JUMPDEST \t\t\t\n      PUSH 0\t\t\t\n      PUSH [tag] 1417\t\t\t\n      DUP3 \t\t\t\n      PUSH [tag] 948\t\t\t\n      JUMP \t\t\t\n    tag 1417\t\t\t\n      JUMPDEST \t\t\t\n      SWAP2 \t\t\t\n      POP \t\t\t\n      PUSH [tag] 1418\t\t\t\n      DUP4 \t\t\t\n      PUSH [tag] 948\t\t\t\n      JUMP \t\t\t\n    tag 1418\t\t\t\n      JUMPDEST \t\t\t\n      SWAP3 \t\t\t\n      POP \t\t\t\n      DUP3 \t\t\t\n      DUP3 \t\t\t\n      SUB \t\t\t\n      SWAP1 \t\t\t\n      POP \t\t\t\n      PUSH FFFFFFFFFFFFFFFFFFFFFFFFFFFFFFFFFFFFFFFFFFFFFFFFFFFF\t\t\t\n      DUP2 \t\t\t\n      GT \t\t\t\n      ISZERO \t\t\t\n      PUSH [tag] 1419\t\t\t\n      JUMPI \t\t\t\n      PUSH [tag] 1420\t\t\t\n      PUSH [tag] 956\t\t\t\n      JUMP \t\t\t\n    tag 1420\t\t\t\n      JUMPDEST \t\t\t\n    tag 1419\t\t\t\n      JUMPDEST \t\t\t\n      SWAP3 \t\t\t\n      SWAP2 \t\t\t\n      POP \t\t\t\n      POP \t\t\t\n      JUMP \t\t\t\n    tag 987\t\t\t\n      JUMPDEST \t\t\t\n      PUSH 0\t\t\t\n      DUP2 \t\t\t\n      SWAP1 \t\t\t\n      POP \t\t\t\n      SWAP2 \t\t\t\n      SWAP1 \t\t\t\n      POP \t\t\t\n      JUMP \t\t\t\n    tag 988\t\t\t\n      JUMPDEST \t\t\t\n      PUSH 0\t\t\t\n      PUSH [tag] 1423\t\t\t\n      PUSH [tag] 1424\t\t\t\n      PUSH [tag] 1425\t\t\t\n      DUP5 \t\t\t\n      PUSH [tag] 987\t\t\t\n      JUMP \t\t\t\n    tag 1425\t\t\t\n      JUMPDEST \t\t\t\n      PUSH [tag] 964\t\t\t\n      JUMP \t\t\t\n    tag 1424\t\t\t\n      JUMPDEST \t\t\t\n      PUSH [tag] 920\t\t\t\n      JUMP \t\t\t\n    tag 1423\t\t\t\n      JUMPDEST \t\t\t\n      SWAP1 \t\t\t\n      POP \t\t\t\n      SWAP2 \t\t\t\n      SWAP1 \t\t\t\n      POP \t\t\t\n      JUMP \t\t\t\n    tag 989\t\t\t\n      JUMPDEST \t\t\t\n      PUSH [tag] 1427\t\t\t\n      DUP2 \t\t\t\n      PUSH [tag] 988\t\t\t\n      JUMP \t\t\t\n    tag 1427\t\t\t\n      JUMPDEST \t\t\t\n      DUP3 \t\t\t\n      MSTORE \t\t\t\n      POP \t\t\t\n      POP \t\t\t\n      JUMP \t\t\t\n    tag 841\t\t\t\n      JUMPDEST \t\t\t\n      PUSH 0\t\t\t\n      PUSH 40\t\t\t\n      DUP3 \t\t\t\n      ADD \t\t\t\n      SWAP1 \t\t\t\n      POP \t\t\t\n      PUSH [tag] 1429\t\t\t\n      PUSH 0\t\t\t\n      DUP4 \t\t\t\n      ADD \t\t\t\n      DUP6 \t\t\t\n      PUSH [tag] 989\t\t\t\n      JUMP \t\t\t\n    tag 1429\t\t\t\n      JUMPDEST \t\t\t\n      PUSH [tag] 1430\t\t\t\n      PUSH 20\t\t\t\n      DUP4 \t\t\t\n      ADD \t\t\t\n      DUP5 \t\t\t\n      PUSH [tag] 915\t\t\t\n      JUMP \t\t\t\n    tag 1430\t\t\t\n      JUMPDEST \t\t\t\n      SWAP4 \t\t\t\n      SWAP3 \t\t\t\n      POP \t\t\t\n      POP \t\t\t\n      POP \t\t\t\n      JUMP \t\t\t\n    tag 850\t\t\t\n      JUMPDEST \t\t\t\n      PUSH 0\t\t\t\n      PUSH [tag] 1432\t\t\t\n      DUP3 \t\t\t\n      PUSH [tag] 948\t\t\t\n      JUMP \t\t\t\n    tag 1432\t\t\t\n      JUMPDEST \t\t\t\n      SWAP2 \t\t\t\n      POP \t\t\t\n      PUSH [tag] 1433\t\t\t\n      DUP4 \t\t\t\n      PUSH [tag] 948\t\t\t\n      JUMP \t\t\t\n    tag 1433\t\t\t\n      JUMPDEST \t\t\t\n      SWAP3 \t\t\t\n      POP \t\t\t\n      DUP3 \t\t\t\n      DUP3 \t\t\t\n      ADD \t\t\t\n      SWAP1 \t\t\t\n      POP \t\t\t\n      PUSH FFFFFFFFFFFFFFFFFFFFFFFFFFFFFFFFFFFFFFFFFFFFFFFFFFFF\t\t\t\n      DUP2 \t\t\t\n      GT \t\t\t\n      ISZERO \t\t\t\n      PUSH [tag] 1434\t\t\t\n      JUMPI \t\t\t\n      PUSH [tag] 1435\t\t\t\n      PUSH [tag] 956\t\t\t\n      JUMP \t\t\t\n    tag 1435\t\t\t\n      JUMPDEST \t\t\t\n    tag 1434\t\t\t\n      JUMPDEST \t\t\t\n      SWAP3 \t\t\t\n      SWAP2 \t\t\t\n      POP \t\t\t\n      POP \t\t\t\n      JUMP \t\t\t\n    .data\n"
}